{
  "contractName": "CollectibleUtils",
  "abi": [
    {
      "anonymous": false,
      "inputs": [
        {
          "indexed": true,
          "internalType": "address",
          "name": "owner",
          "type": "address"
        },
        {
          "indexed": true,
          "internalType": "address",
          "name": "approved",
          "type": "address"
        },
        {
          "indexed": true,
          "internalType": "uint256",
          "name": "tokenId",
          "type": "uint256"
        }
      ],
      "name": "Approval",
      "type": "event"
    },
    {
      "anonymous": false,
      "inputs": [
        {
          "indexed": true,
          "internalType": "address",
          "name": "owner",
          "type": "address"
        },
        {
          "indexed": true,
          "internalType": "address",
          "name": "operator",
          "type": "address"
        },
        {
          "indexed": false,
          "internalType": "bool",
          "name": "approved",
          "type": "bool"
        }
      ],
      "name": "ApprovalForAll",
      "type": "event"
    },
    {
      "anonymous": false,
      "inputs": [
        {
          "indexed": true,
          "internalType": "address",
          "name": "previousOwner",
          "type": "address"
        },
        {
          "indexed": true,
          "internalType": "address",
          "name": "newOwner",
          "type": "address"
        }
      ],
      "name": "OwnershipTransferred",
      "type": "event"
    },
    {
      "anonymous": false,
      "inputs": [
        {
          "indexed": true,
          "internalType": "address",
          "name": "from",
          "type": "address"
        },
        {
          "indexed": true,
          "internalType": "address",
          "name": "to",
          "type": "address"
        },
        {
          "indexed": true,
          "internalType": "uint256",
          "name": "tokenId",
          "type": "uint256"
        }
      ],
      "name": "Transfer",
      "type": "event"
    },
    {
      "inputs": [
        {
          "internalType": "address",
          "name": "to",
          "type": "address"
        },
        {
          "internalType": "uint256",
          "name": "tokenId",
          "type": "uint256"
        }
      ],
      "name": "approve",
      "outputs": [],
      "stateMutability": "nonpayable",
      "type": "function"
    },
    {
      "inputs": [
        {
          "internalType": "address",
          "name": "owner",
          "type": "address"
        }
      ],
      "name": "balanceOf",
      "outputs": [
        {
          "internalType": "uint256",
          "name": "",
          "type": "uint256"
        }
      ],
      "stateMutability": "view",
      "type": "function"
    },
    {
      "inputs": [
        {
          "internalType": "uint256",
          "name": "_id",
          "type": "uint256"
        },
        {
          "internalType": "string",
          "name": "_tokenUri",
          "type": "string"
        }
      ],
      "name": "buy",
      "outputs": [],
      "stateMutability": "payable",
      "type": "function"
    },
    {
      "inputs": [],
      "name": "contractAddress",
      "outputs": [
        {
          "internalType": "address payable",
          "name": "",
          "type": "address"
        }
      ],
      "stateMutability": "view",
      "type": "function"
    },
    {
      "inputs": [
        {
          "internalType": "string",
          "name": "_name",
          "type": "string"
        },
        {
          "internalType": "uint256",
          "name": "_id",
          "type": "uint256"
        },
        {
          "internalType": "uint256",
          "name": "_qty",
          "type": "uint256"
        },
        {
          "internalType": "uint256",
          "name": "_level",
          "type": "uint256"
        },
        {
          "internalType": "uint256",
          "name": "_price",
          "type": "uint256"
        },
        {
          "internalType": "bool",
          "name": "_lottery",
          "type": "bool"
        }
      ],
      "name": "create",
      "outputs": [
        {
          "components": [
            {
              "internalType": "uint256",
              "name": "id",
              "type": "uint256"
            },
            {
              "internalType": "uint256",
              "name": "qty",
              "type": "uint256"
            },
            {
              "internalType": "uint256",
              "name": "level",
              "type": "uint256"
            },
            {
              "internalType": "uint256",
              "name": "price",
              "type": "uint256"
            },
            {
              "internalType": "string",
              "name": "name",
              "type": "string"
            },
            {
              "internalType": "bool",
              "name": "lottery",
              "type": "bool"
            },
            {
              "internalType": "bool",
              "name": "created",
              "type": "bool"
            }
          ],
          "internalType": "struct Collectible.PoliticsAvailable",
          "name": "",
          "type": "tuple"
        }
      ],
      "stateMutability": "nonpayable",
      "type": "function"
    },
    {
      "inputs": [
        {
          "internalType": "uint256",
          "name": "tokenId",
          "type": "uint256"
        }
      ],
      "name": "getApproved",
      "outputs": [
        {
          "internalType": "address",
          "name": "",
          "type": "address"
        }
      ],
      "stateMutability": "view",
      "type": "function"
    },
    {
      "inputs": [
        {
          "internalType": "address",
          "name": "owner",
          "type": "address"
        },
        {
          "internalType": "address",
          "name": "operator",
          "type": "address"
        }
      ],
      "name": "isApprovedForAll",
      "outputs": [
        {
          "internalType": "bool",
          "name": "",
          "type": "bool"
        }
      ],
      "stateMutability": "view",
      "type": "function"
    },
    {
      "inputs": [],
      "name": "name",
      "outputs": [
        {
          "internalType": "string",
          "name": "",
          "type": "string"
        }
      ],
      "stateMutability": "view",
      "type": "function"
    },
    {
      "inputs": [
        {
          "internalType": "address",
          "name": "",
          "type": "address"
        },
        {
          "internalType": "address",
          "name": "",
          "type": "address"
        },
        {
          "internalType": "uint256",
          "name": "",
          "type": "uint256"
        },
        {
          "internalType": "bytes",
          "name": "",
          "type": "bytes"
        }
      ],
      "name": "onERC721Received",
      "outputs": [
        {
          "internalType": "bytes4",
          "name": "",
          "type": "bytes4"
        }
      ],
      "stateMutability": "nonpayable",
      "type": "function"
    },
    {
      "inputs": [],
      "name": "owner",
      "outputs": [
        {
          "internalType": "address",
          "name": "",
          "type": "address"
        }
      ],
      "stateMutability": "view",
      "type": "function"
    },
    {
      "inputs": [],
      "name": "ownerAddress",
      "outputs": [
        {
          "internalType": "address payable",
          "name": "",
          "type": "address"
        }
      ],
      "stateMutability": "view",
      "type": "function"
    },
    {
      "inputs": [
        {
          "internalType": "uint256",
          "name": "tokenId",
          "type": "uint256"
        }
      ],
      "name": "ownerOf",
      "outputs": [
        {
          "internalType": "address",
          "name": "",
          "type": "address"
        }
      ],
      "stateMutability": "view",
      "type": "function"
    },
    {
      "inputs": [],
      "name": "renounceOwnership",
      "outputs": [],
      "stateMutability": "nonpayable",
      "type": "function"
    },
    {
      "inputs": [
        {
          "internalType": "address",
          "name": "from",
          "type": "address"
        },
        {
          "internalType": "address",
          "name": "to",
          "type": "address"
        },
        {
          "internalType": "uint256",
          "name": "tokenId",
          "type": "uint256"
        }
      ],
      "name": "safeTransferFrom",
      "outputs": [],
      "stateMutability": "nonpayable",
      "type": "function"
    },
    {
      "inputs": [
        {
          "internalType": "address",
          "name": "from",
          "type": "address"
        },
        {
          "internalType": "address",
          "name": "to",
          "type": "address"
        },
        {
          "internalType": "uint256",
          "name": "tokenId",
          "type": "uint256"
        },
        {
          "internalType": "bytes",
          "name": "_data",
          "type": "bytes"
        }
      ],
      "name": "safeTransferFrom",
      "outputs": [],
      "stateMutability": "nonpayable",
      "type": "function"
    },
    {
      "inputs": [
        {
          "internalType": "address",
          "name": "operator",
          "type": "address"
        },
        {
          "internalType": "bool",
          "name": "approved",
          "type": "bool"
        }
      ],
      "name": "setApprovalForAll",
      "outputs": [],
      "stateMutability": "nonpayable",
      "type": "function"
    },
    {
      "inputs": [
        {
          "internalType": "bytes4",
          "name": "interfaceId",
          "type": "bytes4"
        }
      ],
      "name": "supportsInterface",
      "outputs": [
        {
          "internalType": "bool",
          "name": "",
          "type": "bool"
        }
      ],
      "stateMutability": "view",
      "type": "function"
    },
    {
      "inputs": [],
      "name": "symbol",
      "outputs": [
        {
          "internalType": "string",
          "name": "",
          "type": "string"
        }
      ],
      "stateMutability": "view",
      "type": "function"
    },
    {
      "inputs": [
        {
          "internalType": "uint256",
          "name": "tokenId",
          "type": "uint256"
        }
      ],
      "name": "tokenURI",
      "outputs": [
        {
          "internalType": "string",
          "name": "",
          "type": "string"
        }
      ],
      "stateMutability": "view",
      "type": "function"
    },
    {
      "inputs": [
        {
          "internalType": "address",
          "name": "newOwner",
          "type": "address"
        }
      ],
      "name": "transferOwnership",
      "outputs": [],
      "stateMutability": "nonpayable",
      "type": "function"
    },
    {
      "inputs": [],
      "name": "getPolitics",
      "outputs": [
        {
          "components": [
            {
              "internalType": "uint256",
              "name": "id",
              "type": "uint256"
            },
            {
              "internalType": "uint256",
              "name": "qty",
              "type": "uint256"
            },
            {
              "internalType": "uint256",
              "name": "level",
              "type": "uint256"
            },
            {
              "internalType": "uint256",
              "name": "price",
              "type": "uint256"
            },
            {
              "internalType": "string",
              "name": "name",
              "type": "string"
            },
            {
              "internalType": "bool",
              "name": "lottery",
              "type": "bool"
            },
            {
              "internalType": "bool",
              "name": "created",
              "type": "bool"
            }
          ],
          "internalType": "struct Collectible.PoliticsAvailable[]",
          "name": "",
          "type": "tuple[]"
        }
      ],
      "stateMutability": "view",
      "type": "function"
    },
    {
      "inputs": [],
      "name": "getMyPolitics",
      "outputs": [
        {
          "components": [
            {
              "internalType": "uint256",
              "name": "id",
              "type": "uint256"
            },
            {
              "internalType": "uint256",
              "name": "id_politic",
              "type": "uint256"
            },
            {
              "internalType": "address",
              "name": "owner",
              "type": "address"
            }
          ],
          "internalType": "struct Collectible.PoliticsOwned[]",
          "name": "",
          "type": "tuple[]"
        }
      ],
      "stateMutability": "view",
      "type": "function"
    },
    {
      "inputs": [
        {
          "internalType": "uint256",
          "name": "_id",
          "type": "uint256"
        },
        {
          "internalType": "uint256",
          "name": "_qty",
          "type": "uint256"
        }
      ],
      "name": "addQty",
      "outputs": [],
      "stateMutability": "nonpayable",
      "type": "function"
    },
    {
      "inputs": [
        {
          "internalType": "address",
          "name": "from",
          "type": "address"
        },
        {
          "internalType": "address",
          "name": "to",
          "type": "address"
        },
        {
          "internalType": "uint256",
          "name": "tokenId",
          "type": "uint256"
        }
      ],
      "name": "transferFrom",
      "outputs": [],
      "stateMutability": "nonpayable",
      "type": "function"
    }
  ],
  "bytecode": "0x60806040526001600e553480156200001657600080fd5b50604080518082018252600b81527f506f6c69746963734e667400000000000000000000000000000000000000000060208083019182528351808501909452600384527f504f4c0000000000000000000000000000000000000000000000000000000000908401528151919291620000919160009162000152565b508051620000a790600190602084019062000152565b505050620000d6620000c7620000fc640100000000026401000000009004565b64010000000062000100810204565b600c8054600160a060020a03199081163317909155600d8054909116301790556200024e565b3390565b60078054600160a060020a03838116600160a060020a0319831681179093556040519116919082907f8be0079c531659141344cd1fd0a4f28419497f9722a3daafe3b4186f6b6457e090600090a35050565b8280546200016090620001f8565b90600052602060002090601f016020900481019282620001845760008555620001cf565b82601f106200019f57805160ff1916838001178555620001cf565b82800160010185558215620001cf579182015b82811115620001cf578251825591602001919060010190620001b2565b50620001dd929150620001e1565b5090565b5b80821115620001dd5760008155600101620001e2565b6002810460018216806200020d57607f821691505b6020821081141562000248577f4e487b7100000000000000000000000000000000000000000000000000000000600052602260045260246000fd5b50919050565b612e39806200025e6000396000f3fe608060405260043610610168576000357c01000000000000000000000000000000000000000000000000000000009004806385d33436116100d3578063b88d4fde1161008c578063b88d4fde146103f1578063b9db1c9814610411578063c87b56dd14610431578063e985e9c514610451578063f2fde38b1461049a578063f6b4dfb4146104ba57600080fd5b806385d33436146103495780638da5cb5b1461036b5780638f84aa091461038957806395d89b41146103a9578063a22cb465146103be578063b7dc3b18146103de57600080fd5b806323b872dd1161012557806323b872dd1461028457806330f105cd146102a457806342842e0e146102c65780636352211e146102e657806370a0823114610306578063715018a61461033457600080fd5b806301ffc9a71461016d57806306fdde03146101a2578063081812fc146101c4578063095ea7b3146101fc578063111432771461021e578063150b7a021461024b575b600080fd5b34801561017957600080fd5b5061018d6101883660046128d5565b6104da565b60405190151581526020015b60405180910390f35b3480156101ae57600080fd5b506101b7610577565b6040516101999190612bbf565b3480156101d057600080fd5b506101e46101df366004612982565b610609565b604051600160a060020a039091168152602001610199565b34801561020857600080fd5b5061021c6102173660046128ab565b6106aa565b005b34801561022a57600080fd5b5061023e61023936600461290f565b6107e2565b6040516101999190612c64565b34801561025757600080fd5b5061026b610266366004612805565b610a97565b604051600160e060020a03199091168152602001610199565b34801561029057600080fd5b5061021c61029f3660046127c9565b610ac1565b3480156102b057600080fd5b506102b9610aee565b6040516101999190612afc565b3480156102d257600080fd5b5061021c6102e13660046127c9565b610c5e565b3480156102f257600080fd5b506101e4610301366004612982565b610c79565b34801561031257600080fd5b5061032661032136600461277b565b610d07565b604051908152602001610199565b34801561034057600080fd5b5061021c610da4565b34801561035557600080fd5b5061035e610ddd565b6040516101999190612b5d565b34801561037757600080fd5b50600754600160a060020a03166101e4565b34801561039557600080fd5b50600c546101e490600160a060020a031681565b3480156103b557600080fd5b506101b7610e61565b3480156103ca57600080fd5b5061021c6103d9366004612881565b610e70565b61021c6103ec36600461299b565b610f38565b3480156103fd57600080fd5b5061021c61040c366004612805565b611502565b34801561041d57600080fd5b5061021c61042c3660046129e2565b611593565b34801561043d57600080fd5b506101b761044c366004612982565b611724565b34801561045d57600080fd5b5061018d61046c366004612796565b600160a060020a03918216600090815260056020908152604080832093909416825291909152205460ff1690565b3480156104a657600080fd5b5061021c6104b536600461277b565b6118a2565b3480156104c657600080fd5b50600d546101e490600160a060020a031681565b6000600160e060020a031982167f80ac58cd00000000000000000000000000000000000000000000000000000000148061053d5750600160e060020a031982167f5b5e139f00000000000000000000000000000000000000000000000000000000145b8061057157507f01ffc9a700000000000000000000000000000000000000000000000000000000600160e060020a03198316145b92915050565b60606000805461058690612d1c565b80601f01602080910402602001604051908101604052809291908181526020018280546105b290612d1c565b80156105ff5780601f106105d4576101008083540402835291602001916105ff565b820191906000526020600020905b8154815290600101906020018083116105e257829003601f168201915b5050505050905090565b60006106148261195a565b61068e5760405160e560020a62461bcd02815260206004820152602c60248201527f4552433732313a20617070726f76656420717565727920666f72206e6f6e657860448201527f697374656e7420746f6b656e000000000000000000000000000000000000000060648201526084015b60405180910390fd5b50600090815260046020526040902054600160a060020a031690565b60006106b582610c79565b905080600160a060020a031683600160a060020a031614156107425760405160e560020a62461bcd02815260206004820152602160248201527f4552433732313a20617070726f76616c20746f2063757272656e74206f776e6560448201527f72000000000000000000000000000000000000000000000000000000000000006064820152608401610685565b33600160a060020a038216148061075e575061075e813361046c565b6107d35760405160e560020a62461bcd02815260206004820152603860248201527f4552433732313a20617070726f76652063616c6c6572206973206e6f74206f7760448201527f6e6572206e6f7220617070726f76656420666f7220616c6c00000000000000006064820152608401610685565b6107dd8383611977565b505050565b6108266040518060e0016040528060008152602001600081526020016000815260200160008152602001606081526020016000151581526020016000151581525090565b600754600160a060020a031633146108535760405160e560020a62461bcd02815260040161068590612c2f565b600086815260096020526040902060050154610100900460ff16156108bd5760405160e560020a62461bcd02815260206004820152601160248201527f696420616c726561647920696e207573650000000000000000000000000000006044820152606401610685565b6040805160e081018252878152602080820188815292820187815260608301878152608084018c815287151560a0860152600160c0860181905260088054918201815560005285517ff3f7a9fe364faab93b216da50a3214154f22a0a2b415b23a84c8169e8b636ee3600690920291820190815596517ff3f7a9fe364faab93b216da50a3214154f22a0a2b415b23a84c8169e8b636ee482015592517ff3f7a9fe364faab93b216da50a3214154f22a0a2b415b23a84c8169e8b636ee584015590517ff3f7a9fe364faab93b216da50a3214154f22a0a2b415b23a84c8169e8b636ee68301555180519394859490936109da937ff3f7a9fe364faab93b216da50a3214154f22a0a2b415b23a84c8169e8b636ee701920190612557565b5060a08201516005909101805460c09093015115156101000261ff00199215159290921661ffff1990931692909217179055600087815260096020908152604091829020835181558184015160018201559183015160028301556060830151600383015560808301518051849392610a59926004850192910190612557565b5060a08201516005909101805460c09093015115156101000261ff00199215159290921661ffff199093169290921717905590509695505050505050565b7f150b7a02000000000000000000000000000000000000000000000000000000005b949350505050565b600754600160a060020a031633146107dd5760405160e560020a62461bcd02815260040161068590612c2f565b600754606090600160a060020a03163314610b1e5760405160e560020a62461bcd02815260040161068590612c2f565b6008805480602002602001604051908101604052809291908181526020016000905b82821015610c5557838290600052602060002090600602016040518060e001604052908160008201548152602001600182015481526020016002820154815260200160038201548152602001600482018054610b9b90612d1c565b80601f0160208091040260200160405190810160405280929190818152602001828054610bc790612d1c565b8015610c145780601f10610be957610100808354040283529160200191610c14565b820191906000526020600020905b815481529060010190602001808311610bf757829003601f168201915b50505091835250506005919091015460ff80821615156020808501919091526101009092041615156040909201919091529082526001929092019101610b40565b50505050905090565b6107dd83838360405180602001604052806000815250611502565b600081815260026020526040812054600160a060020a0316806105715760405160e560020a62461bcd02815260206004820152602960248201527f4552433732313a206f776e657220717565727920666f72206e6f6e657869737460448201527f656e7420746f6b656e00000000000000000000000000000000000000000000006064820152608401610685565b6000600160a060020a038216610d885760405160e560020a62461bcd02815260206004820152602a60248201527f4552433732313a2062616c616e636520717565727920666f7220746865207a6560448201527f726f2061646472657373000000000000000000000000000000000000000000006064820152608401610685565b50600160a060020a031660009081526003602052604090205490565b600754600160a060020a03163314610dd15760405160e560020a62461bcd02815260040161068590612c2f565b610ddb60006119e5565b565b336000908152600a60209081526040808320805482518185028101850190935280835260609492939192909184015b82821015610c5557600084815260209081902060408051606081018252600386029092018054835260018082015484860152600290910154600160a060020a0316918301919091529083529092019101610e0c565b60606001805461058690612d1c565b600160a060020a038216331415610ecc5760405160e560020a62461bcd02815260206004820152601960248201527f4552433732313a20617070726f766520746f2063616c6c6572000000000000006044820152606401610685565b336000818152600560209081526040808320600160a060020a03871680855290835292819020805460ff191686151590811790915590519081529192917f17307eab39ab6107e8899845ad3d59bd9653f200f220920489ca2b5937696c31910160405180910390a35050565b600082815260096020526040902060050154610100900460ff16610fa15760405160e560020a62461bcd02815260206004820152601160248201527f506f6c69746963206e6f7420666f756e640000000000000000000000000000006044820152606401610685565b60008281526009602052604090206005015460ff161561102c5760405160e560020a62461bcd02815260206004820152602360248201527f506f6c69746963206f6e6c7920617661696c61626c652077697468206c6f747460448201527f65727900000000000000000000000000000000000000000000000000000000006064820152608401610685565b6000828152600960205260409020600101546110b35760405160e560020a62461bcd02815260206004820152602260248201527f5468657265206973206e6f206d6f726520706f6c6974696320617661696c616260448201527f6c650000000000000000000000000000000000000000000000000000000000006064820152608401610685565b6000828152600960205260409020600301546103e8906110db90670de0b6b3a7640000612ca3565b6110e59190612c8f565b34146111365760405160e560020a62461bcd02815260206004820152601060248201527f496e636f727265637420616d6f756e74000000000000000000000000000000006044820152606401610685565b61117a6040518060e0016040528060008152602001600081526020016000815260200160008152602001606081526020016000151581526020016000151581525090565b60005b6008548110156113c857836008828154811061119b5761119b612dbb565b90600052602060002090600602016000015414156113b657600881815481106111c6576111c6612dbb565b90600052602060002090600602016040518060e00160405290816000820154815260200160018201548152602001600282015481526020016003820154815260200160048201805461121790612d1c565b80601f016020809104026020016040519081016040528092919081815260200182805461124390612d1c565b80156112905780601f1061126557610100808354040283529160200191611290565b820191906000526020600020905b81548152906001019060200180831161127357829003601f168201915b50505091835250506005919091015460ff808216151560208401526101009091041615156040909101526008805491935090829081106112d2576112d2612dbb565b6000918252602082206001600690920201018054916112f083612d05565b91905055506008818154811061130857611308612dbb565b90600052602060002090600602016009600086815260200190815260200160002060008201548160000155600182015481600101556002820154816002015560038201548160030155600482018160040190805461136590612d1c565b6113709291906125db565b506005918201805491909201805460ff19811660ff93841615159081178355935461ffff1990911661ff0019909416939093176101009384900490921615159092021790555b806113c081612d5a565b91505061117d565b50600e5460408051602080820193909352336c0100000000000000000000000002818301528151603481830301815260549091019091528051910120600090611417906402540be40090612d75565b600e8054919250600061142983612d5a565b9091555050600c54604051600160a060020a03909116903480156108fc02916000818181858888f19350505050158015611467573d6000803e3d6000fd5b506114723382611a37565b61147c8184611a55565b6040805160608101825282815292516020808501918252338584018181526000828152600a8452858120805460018181018355918352858320995160039091029099019889559451948801949094555160029096018054600160a060020a0397909716600160a060020a0319978816179055938252600b90522080549092161790555050565b61150c3383611af2565b6115815760405160e560020a62461bcd02815260206004820152603160248201527f4552433732313a207472616e736665722063616c6c6572206973206e6f74206f60448201527f776e6572206e6f7220617070726f7665640000000000000000000000000000006064820152608401610685565b61158d84848484611bec565b50505050565b600754600160a060020a031633146115c05760405160e560020a62461bcd02815260040161068590612c2f565b60005b6008548110156107dd5782600882815481106115e1576115e1612dbb565b9060005260206000209060060201600001541480156116235750816008828154811061160f5761160f612dbb565b906000526020600020906006020160010154105b1561171257816008828154811061163c5761163c612dbb565b9060005260206000209060060201600101819055506008818154811061166457611664612dbb565b9060005260206000209060060201600960008581526020019081526020016000206000820154816000015560018201548160010155600282015481600201556003820154816003015560048201816004019080546116c190612d1c565b6116cc9291906125db565b506005918201805491909201805460ff19811660ff93841615159081178355935461ffff1990911661ff0019909416939093176101009384900490921615159092021790555b8061171c81612d5a565b9150506115c3565b606061172f8261195a565b6117a45760405160e560020a62461bcd02815260206004820152603160248201527f45524337323155524953746f726167653a2055524920717565727920666f722060448201527f6e6f6e6578697374656e7420746f6b656e0000000000000000000000000000006064820152608401610685565b600082815260066020526040812080546117bd90612d1c565b80601f01602080910402602001604051908101604052809291908181526020018280546117e990612d1c565b80156118365780601f1061180b57610100808354040283529160200191611836565b820191906000526020600020905b81548152906001019060200180831161181957829003601f168201915b50505050509050600061185460408051602081019091526000815290565b9050805160001415611867575092915050565b815115611899578082604051602001611881929190612a91565b60405160208183030381529060405292505050919050565b610ab984611c22565b600754600160a060020a031633146118cf5760405160e560020a62461bcd02815260040161068590612c2f565b600160a060020a03811661194e5760405160e560020a62461bcd02815260206004820152602660248201527f4f776e61626c653a206e6577206f776e657220697320746865207a65726f206160448201527f64647265737300000000000000000000000000000000000000000000000000006064820152608401610685565b611957816119e5565b50565b600090815260026020526040902054600160a060020a0316151590565b60008181526004602052604090208054600160a060020a031916600160a060020a03841690811790915581906119ac82610c79565b600160a060020a03167f8c5be1e5ebec7d5bd14f71427d1e84f3dd0314c0f7b2291e5b200ac8c7c3b92560405160405180910390a45050565b60078054600160a060020a03838116600160a060020a0319831681179093556040519116919082907f8be0079c531659141344cd1fd0a4f28419497f9722a3daafe3b4186f6b6457e090600090a35050565b611a51828260405180602001604052806000815250611d0b565b5050565b611a5e8261195a565b611ad35760405160e560020a62461bcd02815260206004820152602e60248201527f45524337323155524953746f726167653a2055524920736574206f66206e6f6e60448201527f6578697374656e7420746f6b656e0000000000000000000000000000000000006064820152608401610685565b600082815260066020908152604090912082516107dd92840190612557565b6000611afd8261195a565b611b725760405160e560020a62461bcd02815260206004820152602c60248201527f4552433732313a206f70657261746f7220717565727920666f72206e6f6e657860448201527f697374656e7420746f6b656e00000000000000000000000000000000000000006064820152608401610685565b6000611b7d83610c79565b905080600160a060020a031684600160a060020a03161480611bb8575083600160a060020a0316611bad84610609565b600160a060020a0316145b80610ab95750600160a060020a0380821660009081526005602090815260408083209388168352929052205460ff16610ab9565b611bf7848484611d41565b611c0384848484611f1f565b61158d5760405160e560020a62461bcd02815260040161068590612bd2565b6060611c2d8261195a565b611ca25760405160e560020a62461bcd02815260206004820152602f60248201527f4552433732314d657461646174613a2055524920717565727920666f72206e6f60448201527f6e6578697374656e7420746f6b656e00000000000000000000000000000000006064820152608401610685565b6000611cb960408051602081019091526000815290565b90506000815111611cd95760405180602001604052806000815250611d04565b80611ce38461205e565b604051602001611cf4929190612a91565b6040516020818303038152906040525b9392505050565b611d1583836121af565b611d226000848484611f1f565b6107dd5760405160e560020a62461bcd02815260040161068590612bd2565b82600160a060020a0316611d5482610c79565b600160a060020a031614611dd35760405160e560020a62461bcd02815260206004820152602960248201527f4552433732313a207472616e73666572206f6620746f6b656e2074686174206960448201527f73206e6f74206f776e00000000000000000000000000000000000000000000006064820152608401610685565b600160a060020a038216611e515760405160e560020a62461bcd028152602060048201526024808201527f4552433732313a207472616e7366657220746f20746865207a65726f2061646460448201527f72657373000000000000000000000000000000000000000000000000000000006064820152608401610685565b611e5c8383836122f4565b611e67600082611977565b600160a060020a0383166000908152600360205260408120805460019290611e90908490612cc2565b9091555050600160a060020a0382166000908152600360205260408120805460019290611ebe908490612c77565b90915550506000818152600260205260408082208054600160a060020a031916600160a060020a0386811691821790925591518493918716917fddf252ad1be2c89b69c2b068fc378daa952ba7f163c4a11628f55a4df523b3ef91a4505050565b6000600160a060020a0384163b15612056576040517f150b7a02000000000000000000000000000000000000000000000000000000008152600160a060020a0385169063150b7a0290611f7c903390899088908890600401612ac0565b602060405180830381600087803b158015611f9657600080fd5b505af1925050508015611fc6575060408051601f3d908101601f19168201909252611fc3918101906128f2565b60015b612023573d808015611ff4576040519150601f19603f3d011682016040523d82523d6000602084013e611ff9565b606091505b50805161201b5760405160e560020a62461bcd02815260040161068590612bd2565b805181602001fd5b600160e060020a0319167f150b7a0200000000000000000000000000000000000000000000000000000000149050610ab9565b506001610ab9565b60608161209e57505060408051808201909152600181527f3000000000000000000000000000000000000000000000000000000000000000602082015290565b8160005b81156120c857806120b281612d5a565b91506120c19050600a83612c8f565b91506120a2565b60008167ffffffffffffffff8111156120e3576120e3612dd4565b6040519080825280601f01601f19166020018201604052801561210d576020820181803683370190505b5090505b8415610ab957612122600183612cc2565b915061212f600a86612d75565b61213a906030612c77565b7f01000000000000000000000000000000000000000000000000000000000000000281838151811061216e5761216e612dbb565b60200101907effffffffffffffffffffffffffffffffffffffffffffffffffffffffffffff1916908160001a9053506121a8600a86612c8f565b9450612111565b600160a060020a0382166122085760405160e560020a62461bcd02815260206004820181905260248201527f4552433732313a206d696e7420746f20746865207a65726f20616464726573736044820152606401610685565b6122118161195a565b156122615760405160e560020a62461bcd02815260206004820152601c60248201527f4552433732313a20746f6b656e20616c7265616479206d696e746564000000006044820152606401610685565b61226d600083836122f4565b600160a060020a0382166000908152600360205260408120805460019290612296908490612c77565b90915550506000818152600260205260408082208054600160a060020a031916600160a060020a03861690811790915590518392907fddf252ad1be2c89b69c2b068fc378daa952ba7f163c4a11628f55a4df523b3ef908290a45050565b600160a060020a0383166000908152600a6020908152604080832080548251818502810185019093528083529192909190849084015b8282101561237f57600084815260209081902060408051606081018252600386029092018054835260018082015484860152600290910154600160a060020a031691830191909152908352909201910161232a565b505050600160a060020a0386166000908152600a602052604081209293506123a8929150612656565b60005b815181101561252657828282815181106123c7576123c7612dbb565b6020026020010151600001511461246557600160a060020a0385166000908152600a60205260409020825183908390811061240457612404612dbb565b6020908102919091018101518254600180820185556000948552938390208251600390920201908155918101519282019290925560409091015160029091018054600160a060020a031916600160a060020a03909216919091179055612514565b8382828151811061247857612478612dbb565b602090810291909101810151600160a060020a039283166040918201529186166000908152600a9091522082518390839081106124b7576124b7612dbb565b6020908102919091018101518254600180820185556000948552938390208251600390920201908155918101519282019290925560409091015160029091018054600160a060020a031916600160a060020a039092169190911790555b8061251e81612d5a565b9150506123ab565b50506000908152600b602052604090208054600160a060020a031916600160a060020a039290921691909117905550565b82805461256390612d1c565b90600052602060002090601f01602090048101928261258557600085556125cb565b82601f1061259e57805160ff19168380011785556125cb565b828001600101855582156125cb579182015b828111156125cb5782518255916020019190600101906125b0565b506125d7929150612677565b5090565b8280546125e790612d1c565b90600052602060002090601f01602090048101928261260957600085556125cb565b82601f1061261a57805485556125cb565b828001600101855582156125cb57600052602060002091601f016020900482015b828111156125cb57825482559160010191906001019061263b565b5080546000825560030290600052602060002090810190611957919061268c565b5b808211156125d75760008155600101612678565b5b808211156125d75760008082556001820155600281018054600160a060020a031916905560030161268d565b600067ffffffffffffffff808411156126d4576126d4612dd4565b604051601f8501601f19908116603f011681019082821181831017156126fc576126fc612dd4565b8160405280935085815286868601111561271557600080fd5b858560208301376000602087830101525050509392505050565b8035600160a060020a038116811461274657600080fd5b919050565b8035801515811461274657600080fd5b600082601f83011261276c57600080fd5b611d04838335602085016126b9565b60006020828403121561278d57600080fd5b611d048261272f565b600080604083850312156127a957600080fd5b6127b28361272f565b91506127c06020840161272f565b90509250929050565b6000806000606084860312156127de57600080fd5b6127e78461272f565b92506127f56020850161272f565b9150604084013590509250925092565b6000806000806080858703121561281b57600080fd5b6128248561272f565b93506128326020860161272f565b925060408501359150606085013567ffffffffffffffff81111561285557600080fd5b8501601f8101871361286657600080fd5b612875878235602084016126b9565b91505092959194509250565b6000806040838503121561289457600080fd5b61289d8361272f565b91506127c06020840161274b565b600080604083850312156128be57600080fd5b6128c78361272f565b946020939093013593505050565b6000602082840312156128e757600080fd5b8135611d0481612ded565b60006020828403121561290457600080fd5b8151611d0481612ded565b60008060008060008060c0878903121561292857600080fd5b863567ffffffffffffffff81111561293f57600080fd5b61294b89828a0161275b565b9650506020870135945060408701359350606087013592506080870135915061297660a0880161274b565b90509295509295509295565b60006020828403121561299457600080fd5b5035919050565b600080604083850312156129ae57600080fd5b82359150602083013567ffffffffffffffff8111156129cc57600080fd5b6129d88582860161275b565b9150509250929050565b600080604083850312156129f557600080fd5b50508035926020909101359150565b60008151808452612a1c816020860160208601612cd9565b601f01601f19169290920160200192915050565b805182526020810151602083015260408101516040830152606081015160608301526000608082015160e06080850152612a6d60e0850182612a04565b905060a0830151151560a085015260c0830151151560c08501528091505092915050565b60008351612aa3818460208801612cd9565b835190830190612ab7818360208801612cd9565b01949350505050565b6000600160a060020a03808716835280861660208401525083604083015260806060830152612af26080830184612a04565b9695505050505050565b600060208083018184528085518083526040860191506040848202870101925083870160005b82811015612b5057603f19888603018452612b3e858351612a30565b94509285019290850190600101612b22565b5092979650505050505050565b602080825282518282018190526000919060409081850190868401855b82811015612bb2578151805185528681015187860152850151600160a060020a03168585015260609093019290850190600101612b7a565b5091979650505050505050565b602081526000611d046020830184612a04565b60208082526032908201527f4552433732313a207472616e7366657220746f206e6f6e20455243373231526560408201527f63656976657220696d706c656d656e7465720000000000000000000000000000606082015260800190565b6020808252818101527f4f776e61626c653a2063616c6c6572206973206e6f7420746865206f776e6572604082015260600190565b602081526000611d046020830184612a30565b60008219821115612c8a57612c8a612d89565b500190565b600082612c9e57612c9e612da2565b500490565b6000816000190483118215151615612cbd57612cbd612d89565b500290565b600082821015612cd457612cd4612d89565b500390565b60005b83811015612cf4578181015183820152602001612cdc565b8381111561158d5750506000910152565b600081612d1457612d14612d89565b506000190190565b600281046001821680612d3057607f821691505b60208210811415612d545760e060020a634e487b7102600052602260045260246000fd5b50919050565b6000600019821415612d6e57612d6e612d89565b5060010190565b600082612d8457612d84612da2565b500690565b60e060020a634e487b7102600052601160045260246000fd5b60e060020a634e487b7102600052601260045260246000fd5b60e060020a634e487b7102600052603260045260246000fd5b60e060020a634e487b7102600052604160045260246000fd5b600160e060020a03198116811461195757600080fdfea2646970667358221220b260f3c8218eddb2ecf187c374f9e8ebb6e2c8c451237f9f6d4f9c03560c5e1964736f6c63430008070033",
  "immutableReferences": {},
  "source": "// SPDX-License-Identifier: MIT\n\npragma solidity ^0.8.0;\n\nimport \"./Collectible.sol\";\n\n/**\n* @title ERC721 collectible utils methods\n* @author Youness Chetoui\n*/\ncontract CollectibleUtils is Collectible {\n\n    /**\n    * @notice get list of all politician available\n    * @return Array of struct PoliticsAvailable\n    */\n    function getPolitics() public view onlyOwner returns (PoliticsAvailable[] memory) {\n        return politics;\n    }\n\n    /**\n    * @notice Get politician by user\n    * @return array of struct PoliticsOwned\n    */\n    function getMyPolitics() public view returns (PoliticsOwned[] memory) {\n        return userOwnedPolitics[msg.sender];\n    }\n\n    /**\n    * @notice Add quantity for a PoliticsAvailable\n    * @param _id of PoliticsAvailable and _qty wished\n    */\n    function addQty(uint256 _id, uint256 _qty) public onlyOwner {\n        for (uint i = 0; i < politics.length; i++) {\n            if (politics[i].id == _id && politics[i].qty < _qty) {\n                politics[i].qty = _qty;\n                politicsAvailable[_id] = politics[i];\n            }\n        }\n    }\n\n    /**\n    * @notice Disabled not safe transform\n    */\n    function transferFrom(\n        address from,\n        address to,\n        uint256 tokenId\n    ) public override onlyOwner {\n        //do nothing\n    }\n\n    function _beforeTokenTransfer(\n        address from,\n        address to,\n        uint256 tokenId\n    ) internal override {\n        PoliticsOwned[] memory politicsFrom = userOwnedPolitics[from];\n        delete userOwnedPolitics[from];\n        for (uint i = 0; i < politicsFrom.length; i++) {\n            if (politicsFrom[i].id != tokenId) {\n                userOwnedPolitics[from].push(politicsFrom[i]);\n\n            } else {\n                politicsFrom[i].owner = to;\n                userOwnedPolitics[to].push(politicsFrom[i]);\n            }\n        }\n\n        politicToUser[tokenId] = to;\n    }\n}\n",
  "sourcePath": "/home/youness/Crypto/PoliticsCollectible/contracts/CollectibleUtils.sol",
  "compiler": {
    "name": "solc",
    "version": "0.8.7+commit.e28d00a7.Emscripten.clang"
  },
  "schemaVersion": "3.4.3",
  "updatedAt": "2021-09-02T13:41:26.679Z",
  "devdoc": {
    "author": "Youness Chetoui",
    "kind": "dev",
    "methods": {
      "addQty(uint256,uint256)": {
        "params": {
          "_id": "of PoliticsAvailable and _qty wished"
        }
      },
      "approve(address,uint256)": {
        "details": "See {IERC721-approve}."
      },
      "balanceOf(address)": {
        "details": "See {IERC721-balanceOf}."
      },
      "buy(uint256,string)": {
        "params": {
          "_id": ", _tokenUri of politician available"
        }
      },
      "create(string,uint256,uint256,uint256,uint256,bool)": {
        "params": {
          "_name": ", _id, _qty, _level, _price and _lottery of politician available"
        },
        "returns": {
          "_0": "PoliticsAvailable created"
        }
      },
      "getApproved(uint256)": {
        "details": "See {IERC721-getApproved}."
      },
      "getMyPolitics()": {
        "returns": {
          "_0": "array of struct PoliticsOwned"
        }
      },
      "getPolitics()": {
        "returns": {
          "_0": "Array of struct PoliticsAvailable"
        }
      },
      "isApprovedForAll(address,address)": {
        "details": "See {IERC721-isApprovedForAll}."
      },
      "name()": {
        "details": "See {IERC721Metadata-name}."
      },
      "onERC721Received(address,address,uint256,bytes)": {
        "details": "See {IERC721Receiver-onERC721Received}. Always returns `IERC721Receiver.onERC721Received.selector`."
      },
      "owner()": {
        "details": "Returns the address of the current owner."
      },
      "ownerOf(uint256)": {
        "details": "See {IERC721-ownerOf}."
      },
      "renounceOwnership()": {
        "details": "Leaves the contract without owner. It will not be possible to call `onlyOwner` functions anymore. Can only be called by the current owner. NOTE: Renouncing ownership will leave the contract without an owner, thereby removing any functionality that is only available to the owner."
      },
      "safeTransferFrom(address,address,uint256)": {
        "details": "See {IERC721-safeTransferFrom}."
      },
      "safeTransferFrom(address,address,uint256,bytes)": {
        "details": "See {IERC721-safeTransferFrom}."
      },
      "setApprovalForAll(address,bool)": {
        "details": "See {IERC721-setApprovalForAll}."
      },
      "supportsInterface(bytes4)": {
        "details": "See {IERC165-supportsInterface}."
      },
      "symbol()": {
        "details": "See {IERC721Metadata-symbol}."
      },
      "tokenURI(uint256)": {
        "details": "See {IERC721Metadata-tokenURI}."
      },
      "transferOwnership(address)": {
        "details": "Transfers ownership of the contract to a new account (`newOwner`). Can only be called by the current owner."
      }
    },
    "title": "ERC721 collectible utils methods",
    "version": 1
  },
  "userdoc": {
    "kind": "user",
    "methods": {
      "addQty(uint256,uint256)": {
        "notice": "Add quantity for a PoliticsAvailable"
      },
      "buy(uint256,string)": {
        "notice": "Buy politician"
      },
      "create(string,uint256,uint256,uint256,uint256,bool)": {
        "notice": "Create politician"
      },
      "getMyPolitics()": {
        "notice": "Get politician by user"
      },
      "getPolitics()": {
        "notice": "get list of all politician available"
      },
      "transferFrom(address,address,uint256)": {
        "notice": "Disabled not safe transform"
      }
    },
    "version": 1
  }
}