{
  "contractName": "Collectible",
  "abi": [
    {
      "inputs": [],
      "stateMutability": "nonpayable",
      "type": "constructor"
    },
    {
      "anonymous": false,
      "inputs": [
        {
          "indexed": true,
          "internalType": "address",
          "name": "owner",
          "type": "address"
        },
        {
          "indexed": true,
          "internalType": "address",
          "name": "approved",
          "type": "address"
        },
        {
          "indexed": true,
          "internalType": "uint256",
          "name": "tokenId",
          "type": "uint256"
        }
      ],
      "name": "Approval",
      "type": "event"
    },
    {
      "anonymous": false,
      "inputs": [
        {
          "indexed": true,
          "internalType": "address",
          "name": "owner",
          "type": "address"
        },
        {
          "indexed": true,
          "internalType": "address",
          "name": "operator",
          "type": "address"
        },
        {
          "indexed": false,
          "internalType": "bool",
          "name": "approved",
          "type": "bool"
        }
      ],
      "name": "ApprovalForAll",
      "type": "event"
    },
    {
      "anonymous": false,
      "inputs": [
        {
          "indexed": false,
          "internalType": "uint256",
          "name": "id",
          "type": "uint256"
        }
      ],
      "name": "CreatePolitician",
      "type": "event"
    },
    {
      "anonymous": false,
      "inputs": [
        {
          "indexed": true,
          "internalType": "address",
          "name": "previousOwner",
          "type": "address"
        },
        {
          "indexed": true,
          "internalType": "address",
          "name": "newOwner",
          "type": "address"
        }
      ],
      "name": "OwnershipTransferred",
      "type": "event"
    },
    {
      "anonymous": false,
      "inputs": [
        {
          "indexed": false,
          "internalType": "address",
          "name": "owner",
          "type": "address"
        },
        {
          "indexed": false,
          "internalType": "uint256",
          "name": "id",
          "type": "uint256"
        }
      ],
      "name": "PoliticianBuy",
      "type": "event"
    },
    {
      "anonymous": false,
      "inputs": [
        {
          "indexed": true,
          "internalType": "address",
          "name": "from",
          "type": "address"
        },
        {
          "indexed": true,
          "internalType": "address",
          "name": "to",
          "type": "address"
        },
        {
          "indexed": true,
          "internalType": "uint256",
          "name": "tokenId",
          "type": "uint256"
        }
      ],
      "name": "Transfer",
      "type": "event"
    },
    {
      "inputs": [
        {
          "internalType": "address",
          "name": "to",
          "type": "address"
        },
        {
          "internalType": "uint256",
          "name": "tokenId",
          "type": "uint256"
        }
      ],
      "name": "approve",
      "outputs": [],
      "stateMutability": "nonpayable",
      "type": "function"
    },
    {
      "inputs": [
        {
          "internalType": "address",
          "name": "owner",
          "type": "address"
        }
      ],
      "name": "balanceOf",
      "outputs": [
        {
          "internalType": "uint256",
          "name": "",
          "type": "uint256"
        }
      ],
      "stateMutability": "view",
      "type": "function"
    },
    {
      "inputs": [],
      "name": "contractAddress",
      "outputs": [
        {
          "internalType": "address payable",
          "name": "",
          "type": "address"
        }
      ],
      "stateMutability": "view",
      "type": "function"
    },
    {
      "inputs": [
        {
          "internalType": "uint256",
          "name": "tokenId",
          "type": "uint256"
        }
      ],
      "name": "getApproved",
      "outputs": [
        {
          "internalType": "address",
          "name": "",
          "type": "address"
        }
      ],
      "stateMutability": "view",
      "type": "function"
    },
    {
      "inputs": [
        {
          "internalType": "address",
          "name": "owner",
          "type": "address"
        },
        {
          "internalType": "address",
          "name": "operator",
          "type": "address"
        }
      ],
      "name": "isApprovedForAll",
      "outputs": [
        {
          "internalType": "bool",
          "name": "",
          "type": "bool"
        }
      ],
      "stateMutability": "view",
      "type": "function"
    },
    {
      "inputs": [],
      "name": "name",
      "outputs": [
        {
          "internalType": "string",
          "name": "",
          "type": "string"
        }
      ],
      "stateMutability": "view",
      "type": "function"
    },
    {
      "inputs": [
        {
          "internalType": "address",
          "name": "",
          "type": "address"
        },
        {
          "internalType": "address",
          "name": "",
          "type": "address"
        },
        {
          "internalType": "uint256",
          "name": "",
          "type": "uint256"
        },
        {
          "internalType": "bytes",
          "name": "",
          "type": "bytes"
        }
      ],
      "name": "onERC721Received",
      "outputs": [
        {
          "internalType": "bytes4",
          "name": "",
          "type": "bytes4"
        }
      ],
      "stateMutability": "nonpayable",
      "type": "function"
    },
    {
      "inputs": [],
      "name": "owner",
      "outputs": [
        {
          "internalType": "address",
          "name": "",
          "type": "address"
        }
      ],
      "stateMutability": "view",
      "type": "function"
    },
    {
      "inputs": [],
      "name": "ownerAddress",
      "outputs": [
        {
          "internalType": "address payable",
          "name": "",
          "type": "address"
        }
      ],
      "stateMutability": "view",
      "type": "function"
    },
    {
      "inputs": [
        {
          "internalType": "uint256",
          "name": "tokenId",
          "type": "uint256"
        }
      ],
      "name": "ownerOf",
      "outputs": [
        {
          "internalType": "address",
          "name": "",
          "type": "address"
        }
      ],
      "stateMutability": "view",
      "type": "function"
    },
    {
      "inputs": [],
      "name": "renounceOwnership",
      "outputs": [],
      "stateMutability": "nonpayable",
      "type": "function"
    },
    {
      "inputs": [
        {
          "internalType": "address",
          "name": "from",
          "type": "address"
        },
        {
          "internalType": "address",
          "name": "to",
          "type": "address"
        },
        {
          "internalType": "uint256",
          "name": "tokenId",
          "type": "uint256"
        }
      ],
      "name": "safeTransferFrom",
      "outputs": [],
      "stateMutability": "nonpayable",
      "type": "function"
    },
    {
      "inputs": [
        {
          "internalType": "address",
          "name": "from",
          "type": "address"
        },
        {
          "internalType": "address",
          "name": "to",
          "type": "address"
        },
        {
          "internalType": "uint256",
          "name": "tokenId",
          "type": "uint256"
        },
        {
          "internalType": "bytes",
          "name": "_data",
          "type": "bytes"
        }
      ],
      "name": "safeTransferFrom",
      "outputs": [],
      "stateMutability": "nonpayable",
      "type": "function"
    },
    {
      "inputs": [
        {
          "internalType": "address",
          "name": "operator",
          "type": "address"
        },
        {
          "internalType": "bool",
          "name": "approved",
          "type": "bool"
        }
      ],
      "name": "setApprovalForAll",
      "outputs": [],
      "stateMutability": "nonpayable",
      "type": "function"
    },
    {
      "inputs": [
        {
          "internalType": "bytes4",
          "name": "interfaceId",
          "type": "bytes4"
        }
      ],
      "name": "supportsInterface",
      "outputs": [
        {
          "internalType": "bool",
          "name": "",
          "type": "bool"
        }
      ],
      "stateMutability": "view",
      "type": "function"
    },
    {
      "inputs": [],
      "name": "symbol",
      "outputs": [
        {
          "internalType": "string",
          "name": "",
          "type": "string"
        }
      ],
      "stateMutability": "view",
      "type": "function"
    },
    {
      "inputs": [
        {
          "internalType": "uint256",
          "name": "tokenId",
          "type": "uint256"
        }
      ],
      "name": "tokenURI",
      "outputs": [
        {
          "internalType": "string",
          "name": "",
          "type": "string"
        }
      ],
      "stateMutability": "view",
      "type": "function"
    },
    {
      "inputs": [
        {
          "internalType": "address",
          "name": "from",
          "type": "address"
        },
        {
          "internalType": "address",
          "name": "to",
          "type": "address"
        },
        {
          "internalType": "uint256",
          "name": "tokenId",
          "type": "uint256"
        }
      ],
      "name": "transferFrom",
      "outputs": [],
      "stateMutability": "nonpayable",
      "type": "function"
    },
    {
      "inputs": [
        {
          "internalType": "address",
          "name": "newOwner",
          "type": "address"
        }
      ],
      "name": "transferOwnership",
      "outputs": [],
      "stateMutability": "nonpayable",
      "type": "function"
    },
    {
      "inputs": [
        {
          "internalType": "uint256",
          "name": "_id",
          "type": "uint256"
        },
        {
          "internalType": "uint256",
          "name": "_price",
          "type": "uint256"
        },
        {
          "internalType": "uint256",
          "name": "_qty",
          "type": "uint256"
        },
        {
          "internalType": "bool",
          "name": "_lottery",
          "type": "bool"
        },
        {
          "internalType": "string",
          "name": "_tokenUri",
          "type": "string"
        }
      ],
      "name": "create",
      "outputs": [],
      "stateMutability": "nonpayable",
      "type": "function"
    },
    {
      "inputs": [
        {
          "internalType": "uint256",
          "name": "_id",
          "type": "uint256"
        }
      ],
      "name": "buy",
      "outputs": [],
      "stateMutability": "payable",
      "type": "function"
    }
  ],
  "bytecode": "0x60806040526001600e553480156200001657600080fd5b50604080518082018252600b81527f506f6c69746963734e667400000000000000000000000000000000000000000060208083019182528351808501909452600384527f504f4c0000000000000000000000000000000000000000000000000000000000908401528151919291620000919160009162000152565b508051620000a790600190602084019062000152565b505050620000d6620000c7620000fc640100000000026401000000009004565b64010000000062000100810204565b600c8054600160a060020a03199081163317909155600d8054909116301790556200024e565b3390565b60078054600160a060020a03838116600160a060020a0319831681179093556040519116919082907f8be0079c531659141344cd1fd0a4f28419497f9722a3daafe3b4186f6b6457e090600090a35050565b8280546200016090620001f8565b90600052602060002090601f016020900481019282620001845760008555620001cf565b82601f106200019f57805160ff1916838001178555620001cf565b82800160010185558215620001cf579182015b82811115620001cf578251825591602001919060010190620001b2565b50620001dd929150620001e1565b5090565b5b80821115620001dd5760008155600101620001e2565b6002810460018216806200020d57607f821691505b6020821081141562000248577f4e487b7100000000000000000000000000000000000000000000000000000000600052602260045260246000fd5b50919050565b612287806200025e6000396000f3fe608060405260043610610146576000357c010000000000000000000000000000000000000000000000000000000090048063715018a6116100c8578063b88d4fde1161008c578063b88d4fde1461036b578063c87b56dd1461038b578063d96a094a146103ab578063e985e9c5146103be578063f2fde38b14610407578063f6b4dfb41461042757600080fd5b8063715018a6146102e35780638da5cb5b146102f85780638f84aa091461031657806395d89b4114610336578063a22cb4651461034b57600080fd5b8063150b7a021161010f578063150b7a021461021c57806323b872dd1461025557806342842e0e146102755780636352211e1461029557806370a08231146102b557600080fd5b80626954751461014b57806301ffc9a71461016d57806306fdde03146101a2578063081812fc146101c4578063095ea7b3146101fc575b600080fd5b34801561015757600080fd5b5061016b610166366004611ead565b610447565b005b34801561017957600080fd5b5061018d610188366004611e5a565b6105ba565b60405190151581526020015b60405180910390f35b3480156101ae57600080fd5b506101b7610657565b6040516101999190611fc3565b3480156101d057600080fd5b506101e46101df366004611e94565b6106e9565b604051600160a060020a039091168152602001610199565b34801561020857600080fd5b5061016b610217366004611e30565b610785565b34801561022857600080fd5b5061023c610237366004611d8a565b6108bd565b604051600160e060020a03199091168152602001610199565b34801561026157600080fd5b5061016b610270366004611d4e565b6108e7565b34801561028157600080fd5b5061016b610290366004611d4e565b61091b565b3480156102a157600080fd5b506101e46102b0366004611e94565b610936565b3480156102c157600080fd5b506102d56102d0366004611d00565b6109c4565b604051908152602001610199565b3480156102ef57600080fd5b5061016b610a61565b34801561030457600080fd5b50600754600160a060020a03166101e4565b34801561032257600080fd5b50600c546101e490600160a060020a031681565b34801561034257600080fd5b506101b7610a9a565b34801561035757600080fd5b5061016b610366366004611e06565b610aa9565b34801561037757600080fd5b5061016b610386366004611d8a565b610b71565b34801561039757600080fd5b506101b76103a6366004611e94565b610bac565b61016b6103b9366004611e94565b610d2a565b3480156103ca57600080fd5b5061018d6103d9366004611d1b565b600160a060020a03918216600090815260056020908152604080832093909416825291909152205460ff1690565b34801561041357600080fd5b5061016b610422366004611d00565b611156565b34801561043357600080fd5b50600d546101e490600160a060020a031681565b600754600160a060020a0316331461047d5760405160e560020a62461bcd02815260040161047490612033565b60405180910390fd5b60008581526008602052604090206004015460ff16156104e25760405160e560020a62461bcd02815260206004820152601160248201527f696420616c726561647920696e207573650000000000000000000000000000006044820152606401610474565b6040805160a08101825286815260208082018781528515158385019081526060840186815260016080860181905260008c8152600a86528781208b90556008865296909620855181559251958301959095555160028201805460ff191691151591909117905592518051929384939092610563926003850192910190611bc5565b50608091909101516004909101805460ff19169115159190911790556040518681527ff00c522f13522af224c59f918a8375598b0362237c9cc8b4edb44f599cf0f3d69060200160405180910390a1505050505050565b6000600160e060020a031982167f80ac58cd00000000000000000000000000000000000000000000000000000000148061061d5750600160e060020a031982167f5b5e139f00000000000000000000000000000000000000000000000000000000145b8061065157507f01ffc9a700000000000000000000000000000000000000000000000000000000600160e060020a03198316145b92915050565b6060600080546106669061216a565b80601f01602080910402602001604051908101604052809291908181526020018280546106929061216a565b80156106df5780601f106106b4576101008083540402835291602001916106df565b820191906000526020600020905b8154815290600101906020018083116106c257829003601f168201915b5050505050905090565b60006106f48261120e565b6107695760405160e560020a62461bcd02815260206004820152602c60248201527f4552433732313a20617070726f76656420717565727920666f72206e6f6e657860448201527f697374656e7420746f6b656e00000000000000000000000000000000000000006064820152608401610474565b50600090815260046020526040902054600160a060020a031690565b600061079082610936565b905080600160a060020a031683600160a060020a0316141561081d5760405160e560020a62461bcd02815260206004820152602160248201527f4552433732313a20617070726f76616c20746f2063757272656e74206f776e6560448201527f72000000000000000000000000000000000000000000000000000000000000006064820152608401610474565b33600160a060020a0382161480610839575061083981336103d9565b6108ae5760405160e560020a62461bcd02815260206004820152603860248201527f4552433732313a20617070726f76652063616c6c6572206973206e6f74206f7760448201527f6e6572206e6f7220617070726f76656420666f7220616c6c00000000000000006064820152608401610474565b6108b8838361122b565b505050565b7f150b7a02000000000000000000000000000000000000000000000000000000005b949350505050565b6108f133826112a6565b6109105760405160e560020a62461bcd02815260040161047490612068565b6108b88383836113a0565b6108b883838360405180602001604052806000815250610b71565b600081815260026020526040812054600160a060020a0316806106515760405160e560020a62461bcd02815260206004820152602960248201527f4552433732313a206f776e657220717565727920666f72206e6f6e657869737460448201527f656e7420746f6b656e00000000000000000000000000000000000000000000006064820152608401610474565b6000600160a060020a038216610a455760405160e560020a62461bcd02815260206004820152602a60248201527f4552433732313a2062616c616e636520717565727920666f7220746865207a6560448201527f726f2061646472657373000000000000000000000000000000000000000000006064820152608401610474565b50600160a060020a031660009081526003602052604090205490565b600754600160a060020a03163314610a8e5760405160e560020a62461bcd02815260040161047490612033565b610a986000611580565b565b6060600180546106669061216a565b600160a060020a038216331415610b055760405160e560020a62461bcd02815260206004820152601960248201527f4552433732313a20617070726f766520746f2063616c6c6572000000000000006044820152606401610474565b336000818152600560209081526040808320600160a060020a03871680855290835292819020805460ff191686151590811790915590519081529192917f17307eab39ab6107e8899845ad3d59bd9653f200f220920489ca2b5937696c31910160405180910390a35050565b610b7b33836112a6565b610b9a5760405160e560020a62461bcd02815260040161047490612068565b610ba6848484846115df565b50505050565b6060610bb78261120e565b610c2c5760405160e560020a62461bcd02815260206004820152603160248201527f45524337323155524953746f726167653a2055524920717565727920666f722060448201527f6e6f6e6578697374656e7420746f6b656e0000000000000000000000000000006064820152608401610474565b60008281526006602052604081208054610c459061216a565b80601f0160208091040260200160405190810160405280929190818152602001828054610c719061216a565b8015610cbe5780601f10610c9357610100808354040283529160200191610cbe565b820191906000526020600020905b815481529060010190602001808311610ca157829003601f168201915b505050505090506000610cdc60408051602081019091526000815290565b9050805160001415610cef575092915050565b815115610d21578082604051602001610d09929190611f58565b60405160208183030381529060405292505050919050565b6108df84611615565b60008181526008602052604090206004015460ff16610d8e5760405160e560020a62461bcd02815260206004820152601160248201527f506f6c69746963206e6f7420666f756e640000000000000000000000000000006044820152606401610474565b60008181526008602052604090206002015460ff1615610e195760405160e560020a62461bcd02815260206004820152602360248201527f506f6c69746963206f6e6c7920617661696c61626c652077697468206c6f747460448201527f65727900000000000000000000000000000000000000000000000000000000006064820152608401610474565b6000818152600a6020526040902054610e9d5760405160e560020a62461bcd02815260206004820152602260248201527f5468657265206973206e6f206d6f726520706f6c6974696320617661696c616260448201527f6c650000000000000000000000000000000000000000000000000000000000006064820152608401610474565b6000818152600860205260409020600101546103e890610ec590670de0b6b3a76400006120f1565b610ecf91906120dd565b3414610f205760405160e560020a62461bcd02815260206004820152601060248201527f496e636f727265637420616d6f756e74000000000000000000000000000000006044820152606401610474565b6000818152600a60205260408120805491610f3a83612153565b9091555050600e5460408051602080820193909352336c0100000000000000000000000002818301528151603481830301815260549091019091528051910120600090610f8d906402540be400906121c3565b600e80549192506000610f9f836121a8565b9091555050600c54604051600160a060020a03909116903480156108fc02916000818181858888f19350505050158015610fdd573d6000803e3d6000fd5b50610fe833826116fe565b6000828152600860205260409020600301805461108d91839161100a9061216a565b80601f01602080910402602001604051908101604052809291908181526020018280546110369061216a565b80156110835780601f1061105857610100808354040283529160200191611083565b820191906000526020600020905b81548152906001019060200180831161106657829003601f168201915b505050505061171c565b604080516060810182528281526020808201858152338385018181526000828152600985528681208054600180820183559183528683208851600390920201908155945190850155905160029093018054600160a060020a0390941673ffffffffffffffffffffffffffffffffffffffff19948516179055868152600b845285902080549092168117909155835190815290810184905290917f0f1f73114dcf85af6f6506a86f3b42cdc8af0e4d37ca5130270465cd9c358223910160405180910390a1505050565b600754600160a060020a031633146111835760405160e560020a62461bcd02815260040161047490612033565b600160a060020a0381166112025760405160e560020a62461bcd02815260206004820152602660248201527f4f776e61626c653a206e6577206f776e657220697320746865207a65726f206160448201527f64647265737300000000000000000000000000000000000000000000000000006064820152608401610474565b61120b81611580565b50565b600090815260026020526040902054600160a060020a0316151590565b6000818152600460205260409020805473ffffffffffffffffffffffffffffffffffffffff1916600160a060020a038416908117909155819061126d82610936565b600160a060020a03167f8c5be1e5ebec7d5bd14f71427d1e84f3dd0314c0f7b2291e5b200ac8c7c3b92560405160405180910390a45050565b60006112b18261120e565b6113265760405160e560020a62461bcd02815260206004820152602c60248201527f4552433732313a206f70657261746f7220717565727920666f72206e6f6e657860448201527f697374656e7420746f6b656e00000000000000000000000000000000000000006064820152608401610474565b600061133183610936565b905080600160a060020a031684600160a060020a0316148061136c575083600160a060020a0316611361846106e9565b600160a060020a0316145b806108df5750600160a060020a0380821660009081526005602090815260408083209388168352929052205460ff166108df565b82600160a060020a03166113b382610936565b600160a060020a0316146114325760405160e560020a62461bcd02815260206004820152602960248201527f4552433732313a207472616e73666572206f6620746f6b656e2074686174206960448201527f73206e6f74206f776e00000000000000000000000000000000000000000000006064820152608401610474565b600160a060020a0382166114b05760405160e560020a62461bcd028152602060048201526024808201527f4552433732313a207472616e7366657220746f20746865207a65726f2061646460448201527f72657373000000000000000000000000000000000000000000000000000000006064820152608401610474565b6114bb60008261122b565b600160a060020a03831660009081526003602052604081208054600192906114e4908490612110565b9091555050600160a060020a03821660009081526003602052604081208054600192906115129084906120c5565b9091555050600081815260026020526040808220805473ffffffffffffffffffffffffffffffffffffffff1916600160a060020a0386811691821790925591518493918716917fddf252ad1be2c89b69c2b068fc378daa952ba7f163c4a11628f55a4df523b3ef91a4505050565b60078054600160a060020a0383811673ffffffffffffffffffffffffffffffffffffffff19831681179093556040519116919082907f8be0079c531659141344cd1fd0a4f28419497f9722a3daafe3b4186f6b6457e090600090a35050565b6115ea8484846113a0565b6115f6848484846117b9565b610ba65760405160e560020a62461bcd02815260040161047490611fd6565b60606116208261120e565b6116955760405160e560020a62461bcd02815260206004820152602f60248201527f4552433732314d657461646174613a2055524920717565727920666f72206e6f60448201527f6e6578697374656e7420746f6b656e00000000000000000000000000000000006064820152608401610474565b60006116ac60408051602081019091526000815290565b905060008151116116cc57604051806020016040528060008152506116f7565b806116d6846118f8565b6040516020016116e7929190611f58565b6040516020818303038152906040525b9392505050565b611718828260405180602001604052806000815250611a49565b5050565b6117258261120e565b61179a5760405160e560020a62461bcd02815260206004820152602e60248201527f45524337323155524953746f726167653a2055524920736574206f66206e6f6e60448201527f6578697374656e7420746f6b656e0000000000000000000000000000000000006064820152608401610474565b600082815260066020908152604090912082516108b892840190611bc5565b6000600160a060020a0384163b156118f0576040517f150b7a02000000000000000000000000000000000000000000000000000000008152600160a060020a0385169063150b7a0290611816903390899088908890600401611f87565b602060405180830381600087803b15801561183057600080fd5b505af1925050508015611860575060408051601f3d908101601f1916820190925261185d91810190611e77565b60015b6118bd573d80801561188e576040519150601f19603f3d011682016040523d82523d6000602084013e611893565b606091505b5080516118b55760405160e560020a62461bcd02815260040161047490611fd6565b805181602001fd5b600160e060020a0319167f150b7a02000000000000000000000000000000000000000000000000000000001490506108df565b5060016108df565b60608161193857505060408051808201909152600181527f3000000000000000000000000000000000000000000000000000000000000000602082015290565b8160005b8115611962578061194c816121a8565b915061195b9050600a836120dd565b915061193c565b60008167ffffffffffffffff81111561197d5761197d612222565b6040519080825280601f01601f1916602001820160405280156119a7576020820181803683370190505b5090505b84156108df576119bc600183612110565b91506119c9600a866121c3565b6119d49060306120c5565b7f010000000000000000000000000000000000000000000000000000000000000002818381518110611a0857611a08612209565b60200101907effffffffffffffffffffffffffffffffffffffffffffffffffffffffffffff1916908160001a905350611a42600a866120dd565b94506119ab565b611a538383611a7f565b611a6060008484846117b9565b6108b85760405160e560020a62461bcd02815260040161047490611fd6565b600160a060020a038216611ad85760405160e560020a62461bcd02815260206004820181905260248201527f4552433732313a206d696e7420746f20746865207a65726f20616464726573736044820152606401610474565b611ae18161120e565b15611b315760405160e560020a62461bcd02815260206004820152601c60248201527f4552433732313a20746f6b656e20616c7265616479206d696e746564000000006044820152606401610474565b600160a060020a0382166000908152600360205260408120805460019290611b5a9084906120c5565b9091555050600081815260026020526040808220805473ffffffffffffffffffffffffffffffffffffffff1916600160a060020a03861690811790915590518392907fddf252ad1be2c89b69c2b068fc378daa952ba7f163c4a11628f55a4df523b3ef908290a45050565b828054611bd19061216a565b90600052602060002090601f016020900481019282611bf35760008555611c39565b82601f10611c0c57805160ff1916838001178555611c39565b82800160010185558215611c39579182015b82811115611c39578251825591602001919060010190611c1e565b50611c45929150611c49565b5090565b5b80821115611c455760008155600101611c4a565b600067ffffffffffffffff80841115611c7957611c79612222565b604051601f8501601f19908116603f01168101908282118183101715611ca157611ca1612222565b81604052809350858152868686011115611cba57600080fd5b858560208301376000602087830101525050509392505050565b8035600160a060020a0381168114611ceb57600080fd5b919050565b80358015158114611ceb57600080fd5b600060208284031215611d1257600080fd5b6116f782611cd4565b60008060408385031215611d2e57600080fd5b611d3783611cd4565b9150611d4560208401611cd4565b90509250929050565b600080600060608486031215611d6357600080fd5b611d6c84611cd4565b9250611d7a60208501611cd4565b9150604084013590509250925092565b60008060008060808587031215611da057600080fd5b611da985611cd4565b9350611db760208601611cd4565b925060408501359150606085013567ffffffffffffffff811115611dda57600080fd5b8501601f81018713611deb57600080fd5b611dfa87823560208401611c5e565b91505092959194509250565b60008060408385031215611e1957600080fd5b611e2283611cd4565b9150611d4560208401611cf0565b60008060408385031215611e4357600080fd5b611e4c83611cd4565b946020939093013593505050565b600060208284031215611e6c57600080fd5b81356116f78161223b565b600060208284031215611e8957600080fd5b81516116f78161223b565b600060208284031215611ea657600080fd5b5035919050565b600080600080600060a08688031215611ec557600080fd5b853594506020860135935060408601359250611ee360608701611cf0565b9150608086013567ffffffffffffffff811115611eff57600080fd5b8601601f81018813611f1057600080fd5b611f1f88823560208401611c5e565b9150509295509295909350565b60008151808452611f44816020860160208601612127565b601f01601f19169290920160200192915050565b60008351611f6a818460208801612127565b835190830190611f7e818360208801612127565b01949350505050565b6000600160a060020a03808716835280861660208401525083604083015260806060830152611fb96080830184611f2c565b9695505050505050565b6020815260006116f76020830184611f2c565b60208082526032908201527f4552433732313a207472616e7366657220746f206e6f6e20455243373231526560408201527f63656976657220696d706c656d656e7465720000000000000000000000000000606082015260800190565b6020808252818101527f4f776e61626c653a2063616c6c6572206973206e6f7420746865206f776e6572604082015260600190565b60208082526031908201527f4552433732313a207472616e736665722063616c6c6572206973206e6f74206f60408201527f776e6572206e6f7220617070726f766564000000000000000000000000000000606082015260800190565b600082198211156120d8576120d86121d7565b500190565b6000826120ec576120ec6121f0565b500490565b600081600019048311821515161561210b5761210b6121d7565b500290565b600082821015612122576121226121d7565b500390565b60005b8381101561214257818101518382015260200161212a565b83811115610ba65750506000910152565b600081612162576121626121d7565b506000190190565b60028104600182168061217e57607f821691505b602082108114156121a25760e060020a634e487b7102600052602260045260246000fd5b50919050565b60006000198214156121bc576121bc6121d7565b5060010190565b6000826121d2576121d26121f0565b500690565b60e060020a634e487b7102600052601160045260246000fd5b60e060020a634e487b7102600052601260045260246000fd5b60e060020a634e487b7102600052603260045260246000fd5b60e060020a634e487b7102600052604160045260246000fd5b600160e060020a03198116811461120b57600080fdfea26469706673582212208b71a14e6f3cef3eaa930c7c66afcae87899ba078ae3fc0eafc17358322691df64736f6c63430008070033",
  "immutableReferences": {},
  "source": "// SPDX-License-Identifier: MIT\n\npragma solidity ^0.8.0;\n\nimport \"@openzeppelin/contracts/token/ERC721/extensions/ERC721URIStorage.sol\";\nimport \"@openzeppelin/contracts/token/ERC721/utils/ERC721Holder.sol\";\nimport \"@openzeppelin/contracts/access/Ownable.sol\";\n\n/**\n* @title ERC721 collectible base methods\n* @author Youness Chetoui\n*/\ncontract Collectible is ERC721URIStorage, ERC721Holder, Ownable {\n    struct PoliticsAvailable {\n        uint256 id;\n        uint256 price;\n        bool lottery;\n        string tokenUri;\n        bool created;\n    }\n\n    struct PoliticsOwned {\n        uint256 id;\n        uint256 id_politic;\n        address owner;\n    }\n\n    mapping(uint256 => PoliticsAvailable) internal politicsAvailable;\n    mapping(address => PoliticsOwned[]) internal userOwnedPolitics;\n    mapping(uint256 => uint256) internal politicsAvailableQty;\n    mapping(uint256 => address) internal politicToUser;\n\n    address payable public ownerAddress;\n    address payable public contractAddress;\n\n    uint256 internal tokenCounter = 1;\n\n    event CreatePolitician(uint256 id);\n    event PoliticianBuy(address owner, uint256 id);\n\n    constructor() ERC721(\"PoliticsNft\", \"POL\") {\n        ownerAddress = payable(msg.sender);\n        contractAddress = payable(address(this));\n    }\n\n    /**\n    * @notice Create politician\n    * @param _id, _qty, _price and _lottery of politician available\n    */\n    function create(\n        uint256 _id,\n        uint256 _price,\n        uint256 _qty,\n        bool _lottery,\n        string memory _tokenUri\n    )\n        public onlyOwner {\n        require(!politicsAvailable[_id].created, \"id already in use\");\n\n        PoliticsAvailable memory politic =\n            PoliticsAvailable({id: _id, price: _price, lottery: _lottery, tokenUri: _tokenUri, created: true});\n        politicsAvailableQty[_id] = _qty;\n        politicsAvailable[_id] = politic;\n\n        emit CreatePolitician(_id);\n    }\n\n    /**\n    * @notice Buy politician\n    * @param _id, _tokenUri of politician available\n    */\n    function buy(uint256 _id) external payable {\n        require(politicsAvailable[_id].created, \"Politic not found\");\n        require(!politicsAvailable[_id].lottery, \"Politic only available with lottery\");\n        require(politicsAvailableQty[_id] > 0, \"There is no more politic available\");\n        require(msg.value == ((politicsAvailable[_id].price * 10**18) / 1000), \"Incorrect amount\");\n\n        politicsAvailableQty[_id]--;\n\n        uint256 id = uint256(keccak256(abi.encodePacked(tokenCounter, msg.sender))) % 10000000000;\n        tokenCounter++;\n\n        ownerAddress.transfer(msg.value);\n        _safeMint(msg.sender, id);\n        _setTokenURI(id, politicsAvailable[_id].tokenUri);\n\n        PoliticsOwned memory politicOwned =\n            PoliticsOwned({id: id, id_politic: _id, owner: msg.sender});\n\n        userOwnedPolitics[msg.sender].push(politicOwned);\n        politicToUser[id] = msg.sender;\n\n        emit PoliticianBuy(msg.sender, id);\n    }\n}\n",
  "sourcePath": "/home/youness/Crypto/PoliticsCollectible/contracts/Collectible.sol",
  "compiler": {
    "name": "solc",
    "version": "0.8.7+commit.e28d00a7.Emscripten.clang"
  },
  "schemaVersion": "3.4.3",
  "updatedAt": "2021-09-07T08:49:39.316Z",
  "devdoc": {
    "author": "Youness Chetoui",
    "kind": "dev",
    "methods": {
      "approve(address,uint256)": {
        "details": "See {IERC721-approve}."
      },
      "balanceOf(address)": {
        "details": "See {IERC721-balanceOf}."
      },
      "buy(uint256)": {
        "params": {
          "_id": ", _tokenUri of politician available"
        }
      },
      "create(uint256,uint256,uint256,bool,string)": {
        "params": {
          "_id": ", _qty, _price and _lottery of politician available"
        }
      },
      "getApproved(uint256)": {
        "details": "See {IERC721-getApproved}."
      },
      "isApprovedForAll(address,address)": {
        "details": "See {IERC721-isApprovedForAll}."
      },
      "name()": {
        "details": "See {IERC721Metadata-name}."
      },
      "onERC721Received(address,address,uint256,bytes)": {
        "details": "See {IERC721Receiver-onERC721Received}. Always returns `IERC721Receiver.onERC721Received.selector`."
      },
      "owner()": {
        "details": "Returns the address of the current owner."
      },
      "ownerOf(uint256)": {
        "details": "See {IERC721-ownerOf}."
      },
      "renounceOwnership()": {
        "details": "Leaves the contract without owner. It will not be possible to call `onlyOwner` functions anymore. Can only be called by the current owner. NOTE: Renouncing ownership will leave the contract without an owner, thereby removing any functionality that is only available to the owner."
      },
      "safeTransferFrom(address,address,uint256)": {
        "details": "See {IERC721-safeTransferFrom}."
      },
      "safeTransferFrom(address,address,uint256,bytes)": {
        "details": "See {IERC721-safeTransferFrom}."
      },
      "setApprovalForAll(address,bool)": {
        "details": "See {IERC721-setApprovalForAll}."
      },
      "supportsInterface(bytes4)": {
        "details": "See {IERC165-supportsInterface}."
      },
      "symbol()": {
        "details": "See {IERC721Metadata-symbol}."
      },
      "tokenURI(uint256)": {
        "details": "See {IERC721Metadata-tokenURI}."
      },
      "transferFrom(address,address,uint256)": {
        "details": "See {IERC721-transferFrom}."
      },
      "transferOwnership(address)": {
        "details": "Transfers ownership of the contract to a new account (`newOwner`). Can only be called by the current owner."
      }
    },
    "title": "ERC721 collectible base methods",
    "version": 1
  },
  "userdoc": {
    "kind": "user",
    "methods": {
      "buy(uint256)": {
        "notice": "Buy politician"
      },
      "create(uint256,uint256,uint256,bool,string)": {
        "notice": "Create politician"
      }
    },
    "version": 1
  }
}