{
  "contractName": "CollectibleUtils",
  "abi": [
    {
      "anonymous": false,
      "inputs": [
        {
          "indexed": true,
          "internalType": "address",
          "name": "owner",
          "type": "address"
        },
        {
          "indexed": true,
          "internalType": "address",
          "name": "approved",
          "type": "address"
        },
        {
          "indexed": true,
          "internalType": "uint256",
          "name": "tokenId",
          "type": "uint256"
        }
      ],
      "name": "Approval",
      "type": "event"
    },
    {
      "anonymous": false,
      "inputs": [
        {
          "indexed": true,
          "internalType": "address",
          "name": "owner",
          "type": "address"
        },
        {
          "indexed": true,
          "internalType": "address",
          "name": "operator",
          "type": "address"
        },
        {
          "indexed": false,
          "internalType": "bool",
          "name": "approved",
          "type": "bool"
        }
      ],
      "name": "ApprovalForAll",
      "type": "event"
    },
    {
      "anonymous": false,
      "inputs": [
        {
          "indexed": false,
          "internalType": "uint256",
          "name": "id",
          "type": "uint256"
        }
      ],
      "name": "CreatePolitician",
      "type": "event"
    },
    {
      "anonymous": false,
      "inputs": [
        {
          "indexed": true,
          "internalType": "address",
          "name": "previousOwner",
          "type": "address"
        },
        {
          "indexed": true,
          "internalType": "address",
          "name": "newOwner",
          "type": "address"
        }
      ],
      "name": "OwnershipTransferred",
      "type": "event"
    },
    {
      "anonymous": false,
      "inputs": [
        {
          "indexed": false,
          "internalType": "address",
          "name": "owner",
          "type": "address"
        },
        {
          "indexed": false,
          "internalType": "uint256",
          "name": "id",
          "type": "uint256"
        }
      ],
      "name": "PoliticianBuy",
      "type": "event"
    },
    {
      "anonymous": false,
      "inputs": [
        {
          "indexed": true,
          "internalType": "address",
          "name": "from",
          "type": "address"
        },
        {
          "indexed": true,
          "internalType": "address",
          "name": "to",
          "type": "address"
        },
        {
          "indexed": true,
          "internalType": "uint256",
          "name": "tokenId",
          "type": "uint256"
        }
      ],
      "name": "Transfer",
      "type": "event"
    },
    {
      "inputs": [
        {
          "internalType": "address",
          "name": "to",
          "type": "address"
        },
        {
          "internalType": "uint256",
          "name": "tokenId",
          "type": "uint256"
        }
      ],
      "name": "approve",
      "outputs": [],
      "stateMutability": "nonpayable",
      "type": "function"
    },
    {
      "inputs": [
        {
          "internalType": "address",
          "name": "owner",
          "type": "address"
        }
      ],
      "name": "balanceOf",
      "outputs": [
        {
          "internalType": "uint256",
          "name": "",
          "type": "uint256"
        }
      ],
      "stateMutability": "view",
      "type": "function"
    },
    {
      "inputs": [
        {
          "internalType": "uint256",
          "name": "_id",
          "type": "uint256"
        },
        {
          "internalType": "string",
          "name": "_tokenUri",
          "type": "string"
        }
      ],
      "name": "buy",
      "outputs": [],
      "stateMutability": "payable",
      "type": "function"
    },
    {
      "inputs": [],
      "name": "contractAddress",
      "outputs": [
        {
          "internalType": "address payable",
          "name": "",
          "type": "address"
        }
      ],
      "stateMutability": "view",
      "type": "function"
    },
    {
      "inputs": [
        {
          "internalType": "uint256",
          "name": "_id",
          "type": "uint256"
        },
        {
          "internalType": "uint256",
          "name": "_price",
          "type": "uint256"
        },
        {
          "internalType": "uint256",
          "name": "_qty",
          "type": "uint256"
        },
        {
          "internalType": "bool",
          "name": "_lottery",
          "type": "bool"
        }
      ],
      "name": "create",
      "outputs": [],
      "stateMutability": "nonpayable",
      "type": "function"
    },
    {
      "inputs": [
        {
          "internalType": "uint256",
          "name": "tokenId",
          "type": "uint256"
        }
      ],
      "name": "getApproved",
      "outputs": [
        {
          "internalType": "address",
          "name": "",
          "type": "address"
        }
      ],
      "stateMutability": "view",
      "type": "function"
    },
    {
      "inputs": [
        {
          "internalType": "address",
          "name": "owner",
          "type": "address"
        },
        {
          "internalType": "address",
          "name": "operator",
          "type": "address"
        }
      ],
      "name": "isApprovedForAll",
      "outputs": [
        {
          "internalType": "bool",
          "name": "",
          "type": "bool"
        }
      ],
      "stateMutability": "view",
      "type": "function"
    },
    {
      "inputs": [],
      "name": "name",
      "outputs": [
        {
          "internalType": "string",
          "name": "",
          "type": "string"
        }
      ],
      "stateMutability": "view",
      "type": "function"
    },
    {
      "inputs": [
        {
          "internalType": "address",
          "name": "",
          "type": "address"
        },
        {
          "internalType": "address",
          "name": "",
          "type": "address"
        },
        {
          "internalType": "uint256",
          "name": "",
          "type": "uint256"
        },
        {
          "internalType": "bytes",
          "name": "",
          "type": "bytes"
        }
      ],
      "name": "onERC721Received",
      "outputs": [
        {
          "internalType": "bytes4",
          "name": "",
          "type": "bytes4"
        }
      ],
      "stateMutability": "nonpayable",
      "type": "function"
    },
    {
      "inputs": [],
      "name": "owner",
      "outputs": [
        {
          "internalType": "address",
          "name": "",
          "type": "address"
        }
      ],
      "stateMutability": "view",
      "type": "function"
    },
    {
      "inputs": [],
      "name": "ownerAddress",
      "outputs": [
        {
          "internalType": "address payable",
          "name": "",
          "type": "address"
        }
      ],
      "stateMutability": "view",
      "type": "function"
    },
    {
      "inputs": [
        {
          "internalType": "uint256",
          "name": "tokenId",
          "type": "uint256"
        }
      ],
      "name": "ownerOf",
      "outputs": [
        {
          "internalType": "address",
          "name": "",
          "type": "address"
        }
      ],
      "stateMutability": "view",
      "type": "function"
    },
    {
      "inputs": [],
      "name": "renounceOwnership",
      "outputs": [],
      "stateMutability": "nonpayable",
      "type": "function"
    },
    {
      "inputs": [
        {
          "internalType": "address",
          "name": "from",
          "type": "address"
        },
        {
          "internalType": "address",
          "name": "to",
          "type": "address"
        },
        {
          "internalType": "uint256",
          "name": "tokenId",
          "type": "uint256"
        }
      ],
      "name": "safeTransferFrom",
      "outputs": [],
      "stateMutability": "nonpayable",
      "type": "function"
    },
    {
      "inputs": [
        {
          "internalType": "address",
          "name": "from",
          "type": "address"
        },
        {
          "internalType": "address",
          "name": "to",
          "type": "address"
        },
        {
          "internalType": "uint256",
          "name": "tokenId",
          "type": "uint256"
        },
        {
          "internalType": "bytes",
          "name": "_data",
          "type": "bytes"
        }
      ],
      "name": "safeTransferFrom",
      "outputs": [],
      "stateMutability": "nonpayable",
      "type": "function"
    },
    {
      "inputs": [
        {
          "internalType": "address",
          "name": "operator",
          "type": "address"
        },
        {
          "internalType": "bool",
          "name": "approved",
          "type": "bool"
        }
      ],
      "name": "setApprovalForAll",
      "outputs": [],
      "stateMutability": "nonpayable",
      "type": "function"
    },
    {
      "inputs": [
        {
          "internalType": "bytes4",
          "name": "interfaceId",
          "type": "bytes4"
        }
      ],
      "name": "supportsInterface",
      "outputs": [
        {
          "internalType": "bool",
          "name": "",
          "type": "bool"
        }
      ],
      "stateMutability": "view",
      "type": "function"
    },
    {
      "inputs": [],
      "name": "symbol",
      "outputs": [
        {
          "internalType": "string",
          "name": "",
          "type": "string"
        }
      ],
      "stateMutability": "view",
      "type": "function"
    },
    {
      "inputs": [
        {
          "internalType": "uint256",
          "name": "tokenId",
          "type": "uint256"
        }
      ],
      "name": "tokenURI",
      "outputs": [
        {
          "internalType": "string",
          "name": "",
          "type": "string"
        }
      ],
      "stateMutability": "view",
      "type": "function"
    },
    {
      "inputs": [
        {
          "internalType": "address",
          "name": "newOwner",
          "type": "address"
        }
      ],
      "name": "transferOwnership",
      "outputs": [],
      "stateMutability": "nonpayable",
      "type": "function"
    },
    {
      "inputs": [
        {
          "internalType": "uint256",
          "name": "_id",
          "type": "uint256"
        }
      ],
      "name": "getPoliticQty",
      "outputs": [
        {
          "internalType": "uint256",
          "name": "",
          "type": "uint256"
        }
      ],
      "stateMutability": "view",
      "type": "function"
    },
    {
      "inputs": [],
      "name": "getMyPolitics",
      "outputs": [
        {
          "components": [
            {
              "internalType": "uint256",
              "name": "id",
              "type": "uint256"
            },
            {
              "internalType": "uint256",
              "name": "id_politic",
              "type": "uint256"
            },
            {
              "internalType": "address",
              "name": "owner",
              "type": "address"
            }
          ],
          "internalType": "struct Collectible.PoliticsOwned[]",
          "name": "",
          "type": "tuple[]"
        }
      ],
      "stateMutability": "view",
      "type": "function"
    },
    {
      "inputs": [
        {
          "internalType": "uint256",
          "name": "_id",
          "type": "uint256"
        },
        {
          "internalType": "uint256",
          "name": "_qty",
          "type": "uint256"
        }
      ],
      "name": "addQty",
      "outputs": [],
      "stateMutability": "nonpayable",
      "type": "function"
    },
    {
      "inputs": [
        {
          "internalType": "address",
          "name": "from",
          "type": "address"
        },
        {
          "internalType": "address",
          "name": "to",
          "type": "address"
        },
        {
          "internalType": "uint256",
          "name": "tokenId",
          "type": "uint256"
        }
      ],
      "name": "transferFrom",
      "outputs": [],
      "stateMutability": "nonpayable",
      "type": "function"
    }
  ],
  "bytecode": "0x60806040526001600e553480156200001657600080fd5b50604080518082018252600b81527f506f6c69746963734e667400000000000000000000000000000000000000000060208083019182528351808501909452600384527f504f4c0000000000000000000000000000000000000000000000000000000000908401528151919291620000919160009162000152565b508051620000a790600190602084019062000152565b505050620000d6620000c7620000fc640100000000026401000000009004565b64010000000062000100810204565b600c8054600160a060020a03199081163317909155600d8054909116301790556200024e565b3390565b60078054600160a060020a03838116600160a060020a0319831681179093556040519116919082907f8be0079c531659141344cd1fd0a4f28419497f9722a3daafe3b4186f6b6457e090600090a35050565b8280546200016090620001f8565b90600052602060002090601f016020900481019282620001845760008555620001cf565b82601f106200019f57805160ff1916838001178555620001cf565b82800160010185558215620001cf579182015b82811115620001cf578251825591602001919060010190620001b2565b50620001dd929150620001e1565b5090565b5b80821115620001dd5760008155600101620001e2565b6002810460018216806200020d57607f821691505b6020821081141562000248577f4e487b7100000000000000000000000000000000000000000000000000000000600052602260045260246000fd5b50919050565b6126ef806200025e6000396000f3fe608060405260043610610168576000357c0100000000000000000000000000000000000000000000000000000000900480638da5cb5b116100d3578063b9db1c981161008c578063b9db1c98146103e2578063c87b56dd14610402578063de7f558714610422578063e985e9c514610442578063f2fde38b1461048b578063f6b4dfb4146104ab57600080fd5b80638da5cb5b1461033c5780638f84aa091461035a57806395d89b411461037a578063a22cb4651461038f578063b7dc3b18146103af578063b88d4fde146103c257600080fd5b806323b872dd1161012557806323b872dd1461027757806342842e0e146102975780636352211e146102b757806370a08231146102d7578063715018a61461030557806385d334361461031a57600080fd5b806301ffc9a71461016d57806306fdde03146101a2578063081812fc146101c4578063095ea7b3146101fc5780630b2ee7e91461021e578063150b7a021461023e575b600080fd5b34801561017957600080fd5b5061018d610188366004612249565b6104cb565b60405190151581526020015b60405180910390f35b3480156101ae57600080fd5b506101b7610568565b6040516101999190612451565b3480156101d057600080fd5b506101e46101df366004612283565b6105fa565b604051600160a060020a039091168152602001610199565b34801561020857600080fd5b5061021c61021736600461221f565b61069b565b005b34801561022a57600080fd5b5061021c610239366004612319565b6107d3565b34801561024a57600080fd5b5061025e610259366004612179565b61091c565b604051600160e060020a03199091168152602001610199565b34801561028357600080fd5b5061021c61029236600461213d565b610946565b3480156102a357600080fd5b5061021c6102b236600461213d565b610973565b3480156102c357600080fd5b506101e46102d2366004612283565b61098e565b3480156102e357600080fd5b506102f76102f23660046120ef565b610a1c565b604051908152602001610199565b34801561031157600080fd5b5061021c610ab9565b34801561032657600080fd5b5061032f610af2565b60405161019991906123ef565b34801561034857600080fd5b50600754600160a060020a03166101e4565b34801561036657600080fd5b50600c546101e490600160a060020a031681565b34801561038657600080fd5b506101b7610b7f565b34801561039b57600080fd5b5061021c6103aa3660046121f5565b610b8e565b61021c6103bd36600461229c565b610c56565b3480156103ce57600080fd5b5061021c6103dd366004612179565b610fb0565b3480156103ee57600080fd5b5061021c6103fd3660046122f7565b611041565b34801561040e57600080fd5b506101b761041d366004612283565b6110b9565b34801561042e57600080fd5b506102f761043d366004612283565b611237565b34801561044e57600080fd5b5061018d61045d36600461210a565b600160a060020a03918216600090815260056020908152604080832093909416825291909152205460ff1690565b34801561049757600080fd5b5061021c6104a63660046120ef565b6112b6565b3480156104b757600080fd5b50600d546101e490600160a060020a031681565b6000600160e060020a031982167f80ac58cd00000000000000000000000000000000000000000000000000000000148061052e5750600160e060020a031982167f5b5e139f00000000000000000000000000000000000000000000000000000000145b8061056257507f01ffc9a700000000000000000000000000000000000000000000000000000000600160e060020a03198316145b92915050565b606060008054610577906125d2565b80601f01602080910402602001604051908101604052809291908181526020018280546105a3906125d2565b80156105f05780601f106105c5576101008083540402835291602001916105f0565b820191906000526020600020905b8154815290600101906020018083116105d357829003601f168201915b5050505050905090565b60006106058261136e565b61067f5760405160e560020a62461bcd02815260206004820152602c60248201527f4552433732313a20617070726f76656420717565727920666f72206e6f6e657860448201527f697374656e7420746f6b656e000000000000000000000000000000000000000060648201526084015b60405180910390fd5b50600090815260046020526040902054600160a060020a031690565b60006106a68261098e565b905080600160a060020a031683600160a060020a031614156107335760405160e560020a62461bcd02815260206004820152602160248201527f4552433732313a20617070726f76616c20746f2063757272656e74206f776e6560448201527f72000000000000000000000000000000000000000000000000000000000000006064820152608401610676565b33600160a060020a038216148061074f575061074f813361045d565b6107c45760405160e560020a62461bcd02815260206004820152603860248201527f4552433732313a20617070726f76652063616c6c6572206973206e6f74206f7760448201527f6e6572206e6f7220617070726f76656420666f7220616c6c00000000000000006064820152608401610676565b6107ce838361138b565b505050565b600754600160a060020a031633146108005760405160e560020a62461bcd028152600401610676906124c1565b600084815260086020526040902060020154610100900460ff161561086a5760405160e560020a62461bcd02815260206004820152601160248201527f696420616c726561647920696e207573650000000000000000000000000000006044820152606401610676565b60408051608081018252858152602080820186815284151583850190815260016060850181815260008b8152600a86528781208a9055600890955293869020855181559251908301555160029091018054925115156101000261ff00199215159290921661ffff199093169290921717905590517ff00c522f13522af224c59f918a8375598b0362237c9cc8b4edb44f599cf0f3d69061090d9087815260200190565b60405180910390a15050505050565b7f150b7a02000000000000000000000000000000000000000000000000000000005b949350505050565b600754600160a060020a031633146107ce5760405160e560020a62461bcd028152600401610676906124c1565b6107ce83838360405180602001604052806000815250610fb0565b600081815260026020526040812054600160a060020a0316806105625760405160e560020a62461bcd02815260206004820152602960248201527f4552433732313a206f776e657220717565727920666f72206e6f6e657869737460448201527f656e7420746f6b656e00000000000000000000000000000000000000000000006064820152608401610676565b6000600160a060020a038216610a9d5760405160e560020a62461bcd02815260206004820152602a60248201527f4552433732313a2062616c616e636520717565727920666f7220746865207a6560448201527f726f2061646472657373000000000000000000000000000000000000000000006064820152608401610676565b50600160a060020a031660009081526003602052604090205490565b600754600160a060020a03163314610ae65760405160e560020a62461bcd028152600401610676906124c1565b610af060006113f9565b565b336000908152600960209081526040808320805482518185028101850190935280835260609492939192909184015b82821015610b7657600084815260209081902060408051606081018252600386029092018054835260018082015484860152600290910154600160a060020a0316918301919091529083529092019101610b21565b50505050905090565b606060018054610577906125d2565b600160a060020a038216331415610bea5760405160e560020a62461bcd02815260206004820152601960248201527f4552433732313a20617070726f766520746f2063616c6c6572000000000000006044820152606401610676565b336000818152600560209081526040808320600160a060020a03871680855290835292819020805460ff191686151590811790915590519081529192917f17307eab39ab6107e8899845ad3d59bd9653f200f220920489ca2b5937696c31910160405180910390a35050565b600082815260086020526040902060020154610100900460ff16610c8f5760405160e560020a62461bcd028152600401610676906124f6565b60008281526008602052604090206002015460ff1615610d1a5760405160e560020a62461bcd02815260206004820152602360248201527f506f6c69746963206f6e6c7920617661696c61626c652077697468206c6f747460448201527f65727900000000000000000000000000000000000000000000000000000000006064820152608401610676565b6000828152600a6020526040902054610d9e5760405160e560020a62461bcd02815260206004820152602260248201527f5468657265206973206e6f206d6f726520706f6c6974696320617661696c616260448201527f6c650000000000000000000000000000000000000000000000000000000000006064820152608401610676565b6000828152600860205260409020600101546103e890610dc690670de0b6b3a7640000612559565b610dd09190612545565b3414610e215760405160e560020a62461bcd02815260206004820152601060248201527f496e636f727265637420616d6f756e74000000000000000000000000000000006044820152606401610676565b6000828152600a60205260408120805491610e3b836125bb565b9091555050600e5460408051602080820193909352336c0100000000000000000000000002818301528151603481830301815260549091019091528051910120600090610e8e906402540be4009061262b565b600e80549192506000610ea083612610565b9091555050600c54604051600160a060020a03909116903480156108fc02916000818181858888f19350505050158015610ede573d6000803e3d6000fd5b50610ee9338261144b565b610ef38183611469565b604080516060810182528281526020808201868152338385018181526000828152600985528681208054600180820183559183528683208851600390920201908155945190850155905160029093018054600160a060020a03909416600160a060020a0319948516179055868152600b845285902080549092168117909155835190815290810184905290917f0f1f73114dcf85af6f6506a86f3b42cdc8af0e4d37ca5130270465cd9c358223910160405180910390a150505050565b610fba3383611506565b61102f5760405160e560020a62461bcd02815260206004820152603160248201527f4552433732313a207472616e736665722063616c6c6572206973206e6f74206f60448201527f776e6572206e6f7220617070726f7665640000000000000000000000000000006064820152608401610676565b61103b84848484611600565b50505050565b600754600160a060020a0316331461106e5760405160e560020a62461bcd028152600401610676906124c1565b600082815260086020526040902060020154610100900460ff166110a75760405160e560020a62461bcd028152600401610676906124f6565b6000918252600a602052604090912055565b60606110c48261136e565b6111395760405160e560020a62461bcd02815260206004820152603160248201527f45524337323155524953746f726167653a2055524920717565727920666f722060448201527f6e6f6e6578697374656e7420746f6b656e0000000000000000000000000000006064820152608401610676565b60008281526006602052604081208054611152906125d2565b80601f016020809104026020016040519081016040528092919081815260200182805461117e906125d2565b80156111cb5780601f106111a0576101008083540402835291602001916111cb565b820191906000526020600020905b8154815290600101906020018083116111ae57829003601f168201915b5050505050905060006111e960408051602081019091526000815290565b90508051600014156111fc575092915050565b81511561122e578082604051602001611216929190612384565b60405160208183030381529060405292505050919050565b61093e84611636565b600754600090600160a060020a031633146112675760405160e560020a62461bcd028152600401610676906124c1565b600082815260086020526040902060020154610100900460ff166112a05760405160e560020a62461bcd028152600401610676906124f6565b506000818152600a60205260409020545b919050565b600754600160a060020a031633146112e35760405160e560020a62461bcd028152600401610676906124c1565b600160a060020a0381166113625760405160e560020a62461bcd02815260206004820152602660248201527f4f776e61626c653a206e6577206f776e657220697320746865207a65726f206160448201527f64647265737300000000000000000000000000000000000000000000000000006064820152608401610676565b61136b816113f9565b50565b600090815260026020526040902054600160a060020a0316151590565b60008181526004602052604090208054600160a060020a031916600160a060020a03841690811790915581906113c08261098e565b600160a060020a03167f8c5be1e5ebec7d5bd14f71427d1e84f3dd0314c0f7b2291e5b200ac8c7c3b92560405160405180910390a45050565b60078054600160a060020a03838116600160a060020a0319831681179093556040519116919082907f8be0079c531659141344cd1fd0a4f28419497f9722a3daafe3b4186f6b6457e090600090a35050565b61146582826040518060200160405280600081525061171f565b5050565b6114728261136e565b6114e75760405160e560020a62461bcd02815260206004820152602e60248201527f45524337323155524953746f726167653a2055524920736574206f66206e6f6e60448201527f6578697374656e7420746f6b656e0000000000000000000000000000000000006064820152608401610676565b600082815260066020908152604090912082516107ce92840190611f6b565b60006115118261136e565b6115865760405160e560020a62461bcd02815260206004820152602c60248201527f4552433732313a206f70657261746f7220717565727920666f72206e6f6e657860448201527f697374656e7420746f6b656e00000000000000000000000000000000000000006064820152608401610676565b60006115918361098e565b905080600160a060020a031684600160a060020a031614806115cc575083600160a060020a03166115c1846105fa565b600160a060020a0316145b8061093e5750600160a060020a0380821660009081526005602090815260408083209388168352929052205460ff1661093e565b61160b848484611755565b61161784848484611933565b61103b5760405160e560020a62461bcd02815260040161067690612464565b60606116418261136e565b6116b65760405160e560020a62461bcd02815260206004820152602f60248201527f4552433732314d657461646174613a2055524920717565727920666f72206e6f60448201527f6e6578697374656e7420746f6b656e00000000000000000000000000000000006064820152608401610676565b60006116cd60408051602081019091526000815290565b905060008151116116ed5760405180602001604052806000815250611718565b806116f784611a72565b604051602001611708929190612384565b6040516020818303038152906040525b9392505050565b6117298383611bc3565b6117366000848484611933565b6107ce5760405160e560020a62461bcd02815260040161067690612464565b82600160a060020a03166117688261098e565b600160a060020a0316146117e75760405160e560020a62461bcd02815260206004820152602960248201527f4552433732313a207472616e73666572206f6620746f6b656e2074686174206960448201527f73206e6f74206f776e00000000000000000000000000000000000000000000006064820152608401610676565b600160a060020a0382166118655760405160e560020a62461bcd028152602060048201526024808201527f4552433732313a207472616e7366657220746f20746865207a65726f2061646460448201527f72657373000000000000000000000000000000000000000000000000000000006064820152608401610676565b611870838383611d08565b61187b60008261138b565b600160a060020a03831660009081526003602052604081208054600192906118a4908490612578565b9091555050600160a060020a03821660009081526003602052604081208054600192906118d290849061252d565b90915550506000818152600260205260408082208054600160a060020a031916600160a060020a0386811691821790925591518493918716917fddf252ad1be2c89b69c2b068fc378daa952ba7f163c4a11628f55a4df523b3ef91a4505050565b6000600160a060020a0384163b15611a6a576040517f150b7a02000000000000000000000000000000000000000000000000000000008152600160a060020a0385169063150b7a02906119909033908990889088906004016123b3565b602060405180830381600087803b1580156119aa57600080fd5b505af19250505080156119da575060408051601f3d908101601f191682019092526119d791810190612266565b60015b611a37573d808015611a08576040519150601f19603f3d011682016040523d82523d6000602084013e611a0d565b606091505b508051611a2f5760405160e560020a62461bcd02815260040161067690612464565b805181602001fd5b600160e060020a0319167f150b7a020000000000000000000000000000000000000000000000000000000014905061093e565b50600161093e565b606081611ab257505060408051808201909152600181527f3000000000000000000000000000000000000000000000000000000000000000602082015290565b8160005b8115611adc5780611ac681612610565b9150611ad59050600a83612545565b9150611ab6565b60008167ffffffffffffffff811115611af757611af761268a565b6040519080825280601f01601f191660200182016040528015611b21576020820181803683370190505b5090505b841561093e57611b36600183612578565b9150611b43600a8661262b565b611b4e90603061252d565b7f010000000000000000000000000000000000000000000000000000000000000002818381518110611b8257611b82612671565b60200101907effffffffffffffffffffffffffffffffffffffffffffffffffffffffffffff1916908160001a905350611bbc600a86612545565b9450611b25565b600160a060020a038216611c1c5760405160e560020a62461bcd02815260206004820181905260248201527f4552433732313a206d696e7420746f20746865207a65726f20616464726573736044820152606401610676565b611c258161136e565b15611c755760405160e560020a62461bcd02815260206004820152601c60248201527f4552433732313a20746f6b656e20616c7265616479206d696e746564000000006044820152606401610676565b611c8160008383611d08565b600160a060020a0382166000908152600360205260408120805460019290611caa90849061252d565b90915550506000818152600260205260408082208054600160a060020a031916600160a060020a03861690811790915590518392907fddf252ad1be2c89b69c2b068fc378daa952ba7f163c4a11628f55a4df523b3ef908290a45050565b600160a060020a038316600090815260096020908152604080832080548251818502810185019093528083529192909190849084015b82821015611d9357600084815260209081902060408051606081018252600386029092018054835260018082015484860152600290910154600160a060020a0316918301919091529083529092019101611d3e565b505050600160a060020a0386166000908152600960205260408120929350611dbc929150611fef565b60005b8151811015611f3a5782828281518110611ddb57611ddb612671565b60200260200101516000015114611e7957600160a060020a03851660009081526009602052604090208251839083908110611e1857611e18612671565b6020908102919091018101518254600180820185556000948552938390208251600390920201908155918101519282019290925560409091015160029091018054600160a060020a031916600160a060020a03909216919091179055611f28565b83828281518110611e8c57611e8c612671565b602090810291909101810151600160a060020a0392831660409182015291861660009081526009909152208251839083908110611ecb57611ecb612671565b6020908102919091018101518254600180820185556000948552938390208251600390920201908155918101519282019290925560409091015160029091018054600160a060020a031916600160a060020a039092169190911790555b80611f3281612610565b915050611dbf565b50506000908152600b602052604090208054600160a060020a031916600160a060020a039290921691909117905550565b828054611f77906125d2565b90600052602060002090601f016020900481019282611f995760008555611fdf565b82601f10611fb257805160ff1916838001178555611fdf565b82800160010185558215611fdf579182015b82811115611fdf578251825591602001919060010190611fc4565b50611feb929150612010565b5090565b508054600082556003029060005260206000209081019061136b9190612025565b5b80821115611feb5760008155600101612011565b5b80821115611feb5760008082556001820155600281018054600160a060020a0319169055600301612026565b600067ffffffffffffffff8084111561206d5761206d61268a565b604051601f8501601f19908116603f011681019082821181831017156120955761209561268a565b816040528093508581528686860111156120ae57600080fd5b858560208301376000602087830101525050509392505050565b8035600160a060020a03811681146112b157600080fd5b803580151581146112b157600080fd5b60006020828403121561210157600080fd5b611718826120c8565b6000806040838503121561211d57600080fd5b612126836120c8565b9150612134602084016120c8565b90509250929050565b60008060006060848603121561215257600080fd5b61215b846120c8565b9250612169602085016120c8565b9150604084013590509250925092565b6000806000806080858703121561218f57600080fd5b612198856120c8565b93506121a6602086016120c8565b925060408501359150606085013567ffffffffffffffff8111156121c957600080fd5b8501601f810187136121da57600080fd5b6121e987823560208401612052565b91505092959194509250565b6000806040838503121561220857600080fd5b612211836120c8565b9150612134602084016120df565b6000806040838503121561223257600080fd5b61223b836120c8565b946020939093013593505050565b60006020828403121561225b57600080fd5b8135611718816126a3565b60006020828403121561227857600080fd5b8151611718816126a3565b60006020828403121561229557600080fd5b5035919050565b600080604083850312156122af57600080fd5b82359150602083013567ffffffffffffffff8111156122cd57600080fd5b8301601f810185136122de57600080fd5b6122ed85823560208401612052565b9150509250929050565b6000806040838503121561230a57600080fd5b50508035926020909101359150565b6000806000806080858703121561232f57600080fd5b84359350602085013592506040850135915061234d606086016120df565b905092959194509250565b6000815180845261237081602086016020860161258f565b601f01601f19169290920160200192915050565b6000835161239681846020880161258f565b8351908301906123aa81836020880161258f565b01949350505050565b6000600160a060020a038087168352808616602084015250836040830152608060608301526123e56080830184612358565b9695505050505050565b602080825282518282018190526000919060409081850190868401855b82811015612444578151805185528681015187860152850151600160a060020a0316858501526060909301929085019060010161240c565b5091979650505050505050565b6020815260006117186020830184612358565b60208082526032908201527f4552433732313a207472616e7366657220746f206e6f6e20455243373231526560408201527f63656976657220696d706c656d656e7465720000000000000000000000000000606082015260800190565b6020808252818101527f4f776e61626c653a2063616c6c6572206973206e6f7420746865206f776e6572604082015260600190565b60208082526011908201527f506f6c69746963206e6f7420666f756e64000000000000000000000000000000604082015260600190565b600082198211156125405761254061263f565b500190565b60008261255457612554612658565b500490565b60008160001904831182151516156125735761257361263f565b500290565b60008282101561258a5761258a61263f565b500390565b60005b838110156125aa578181015183820152602001612592565b8381111561103b5750506000910152565b6000816125ca576125ca61263f565b506000190190565b6002810460018216806125e657607f821691505b6020821081141561260a5760e060020a634e487b7102600052602260045260246000fd5b50919050565b60006000198214156126245761262461263f565b5060010190565b60008261263a5761263a612658565b500690565b60e060020a634e487b7102600052601160045260246000fd5b60e060020a634e487b7102600052601260045260246000fd5b60e060020a634e487b7102600052603260045260246000fd5b60e060020a634e487b7102600052604160045260246000fd5b600160e060020a03198116811461136b57600080fdfea26469706673582212201ba616ce94fc04024c9c3e1e04027e3c08c40b6cc4f90e9a535b2d8a34782ec464736f6c63430008070033",
  "immutableReferences": {},
  "source": "// SPDX-License-Identifier: MIT\n\npragma solidity ^0.8.0;\n\nimport \"./Collectible.sol\";\n\n/**\n* @title ERC721 collectible utils methods\n* @author Youness Chetoui\n*/\ncontract CollectibleUtils is Collectible {\n\n    /**\n    * @notice get qty of politician available\n    * @param _id PoliticsAvailable\n    * @return uint256\n    */\n    function getPoliticQty(uint256 _id) public view onlyOwner returns (uint256) {\n        require(politicsAvailable[_id].created, \"Politic not found\");\n        return politicsAvailableQty[_id];\n    }\n\n    /**\n    * @notice Get politician by user\n    * @return array of struct PoliticsOwned\n    */\n    function getMyPolitics() public view returns (PoliticsOwned[] memory) {\n        return userOwnedPolitics[msg.sender];\n    }\n\n    /**\n    * @notice Add quantity for a PoliticsAvailable\n    * @param _id of PoliticsAvailable and _qty wished\n    */\n    function addQty(uint256 _id, uint256 _qty) public onlyOwner {\n        require(politicsAvailable[_id].created, \"Politic not found\");\n        politicsAvailableQty[_id] = _qty;\n    }\n\n    /**\n    * @notice Disabled not safe transform\n    */\n    function transferFrom(\n        address from,\n        address to,\n        uint256 tokenId\n    ) public override onlyOwner {\n        //do nothing\n    }\n\n    function _beforeTokenTransfer(\n        address from,\n        address to,\n        uint256 tokenId\n    ) internal override {\n        PoliticsOwned[] memory politicsFrom = userOwnedPolitics[from];\n        delete userOwnedPolitics[from];\n        for (uint i = 0; i < politicsFrom.length; i++) {\n            if (politicsFrom[i].id != tokenId) {\n                userOwnedPolitics[from].push(politicsFrom[i]);\n\n            } else {\n                politicsFrom[i].owner = to;\n                userOwnedPolitics[to].push(politicsFrom[i]);\n            }\n        }\n\n        politicToUser[tokenId] = to;\n    }\n}\n",
  "sourcePath": "/home/youness/Crypto/PoliticsCollectible/contracts/CollectibleUtils.sol",
  "compiler": {
    "name": "solc",
    "version": "0.8.7+commit.e28d00a7.Emscripten.clang"
  },
  "schemaVersion": "3.4.3",
  "updatedAt": "2021-09-03T11:54:16.207Z",
  "devdoc": {
    "author": "Youness Chetoui",
    "kind": "dev",
    "methods": {
      "addQty(uint256,uint256)": {
        "params": {
          "_id": "of PoliticsAvailable and _qty wished"
        }
      },
      "approve(address,uint256)": {
        "details": "See {IERC721-approve}."
      },
      "balanceOf(address)": {
        "details": "See {IERC721-balanceOf}."
      },
      "buy(uint256,string)": {
        "params": {
          "_id": ", _tokenUri of politician available"
        }
      },
      "create(uint256,uint256,uint256,bool)": {
        "params": {
          "_id": ", _qty, _price and _lottery of politician available"
        }
      },
      "getApproved(uint256)": {
        "details": "See {IERC721-getApproved}."
      },
      "getMyPolitics()": {
        "returns": {
          "_0": "array of struct PoliticsOwned"
        }
      },
      "getPoliticQty(uint256)": {
        "params": {
          "_id": "PoliticsAvailable"
        },
        "returns": {
          "_0": "uint256"
        }
      },
      "isApprovedForAll(address,address)": {
        "details": "See {IERC721-isApprovedForAll}."
      },
      "name()": {
        "details": "See {IERC721Metadata-name}."
      },
      "onERC721Received(address,address,uint256,bytes)": {
        "details": "See {IERC721Receiver-onERC721Received}. Always returns `IERC721Receiver.onERC721Received.selector`."
      },
      "owner()": {
        "details": "Returns the address of the current owner."
      },
      "ownerOf(uint256)": {
        "details": "See {IERC721-ownerOf}."
      },
      "renounceOwnership()": {
        "details": "Leaves the contract without owner. It will not be possible to call `onlyOwner` functions anymore. Can only be called by the current owner. NOTE: Renouncing ownership will leave the contract without an owner, thereby removing any functionality that is only available to the owner."
      },
      "safeTransferFrom(address,address,uint256)": {
        "details": "See {IERC721-safeTransferFrom}."
      },
      "safeTransferFrom(address,address,uint256,bytes)": {
        "details": "See {IERC721-safeTransferFrom}."
      },
      "setApprovalForAll(address,bool)": {
        "details": "See {IERC721-setApprovalForAll}."
      },
      "supportsInterface(bytes4)": {
        "details": "See {IERC165-supportsInterface}."
      },
      "symbol()": {
        "details": "See {IERC721Metadata-symbol}."
      },
      "tokenURI(uint256)": {
        "details": "See {IERC721Metadata-tokenURI}."
      },
      "transferOwnership(address)": {
        "details": "Transfers ownership of the contract to a new account (`newOwner`). Can only be called by the current owner."
      }
    },
    "title": "ERC721 collectible utils methods",
    "version": 1
  },
  "userdoc": {
    "kind": "user",
    "methods": {
      "addQty(uint256,uint256)": {
        "notice": "Add quantity for a PoliticsAvailable"
      },
      "buy(uint256,string)": {
        "notice": "Buy politician"
      },
      "create(uint256,uint256,uint256,bool)": {
        "notice": "Create politician"
      },
      "getMyPolitics()": {
        "notice": "Get politician by user"
      },
      "getPoliticQty(uint256)": {
        "notice": "get qty of politician available"
      },
      "transferFrom(address,address,uint256)": {
        "notice": "Disabled not safe transform"
      }
    },
    "version": 1
  }
}