{
  "contractName": "Collectible",
  "abi": [
    {
      "inputs": [],
      "stateMutability": "nonpayable",
      "type": "constructor"
    },
    {
      "anonymous": false,
      "inputs": [
        {
          "indexed": true,
          "internalType": "address",
          "name": "owner",
          "type": "address"
        },
        {
          "indexed": true,
          "internalType": "address",
          "name": "approved",
          "type": "address"
        },
        {
          "indexed": true,
          "internalType": "uint256",
          "name": "tokenId",
          "type": "uint256"
        }
      ],
      "name": "Approval",
      "type": "event"
    },
    {
      "anonymous": false,
      "inputs": [
        {
          "indexed": true,
          "internalType": "address",
          "name": "owner",
          "type": "address"
        },
        {
          "indexed": true,
          "internalType": "address",
          "name": "operator",
          "type": "address"
        },
        {
          "indexed": false,
          "internalType": "bool",
          "name": "approved",
          "type": "bool"
        }
      ],
      "name": "ApprovalForAll",
      "type": "event"
    },
    {
      "anonymous": false,
      "inputs": [
        {
          "indexed": true,
          "internalType": "address",
          "name": "previousOwner",
          "type": "address"
        },
        {
          "indexed": true,
          "internalType": "address",
          "name": "newOwner",
          "type": "address"
        }
      ],
      "name": "OwnershipTransferred",
      "type": "event"
    },
    {
      "anonymous": false,
      "inputs": [
        {
          "indexed": true,
          "internalType": "address",
          "name": "from",
          "type": "address"
        },
        {
          "indexed": true,
          "internalType": "address",
          "name": "to",
          "type": "address"
        },
        {
          "indexed": true,
          "internalType": "uint256",
          "name": "tokenId",
          "type": "uint256"
        }
      ],
      "name": "Transfer",
      "type": "event"
    },
    {
      "inputs": [
        {
          "internalType": "address",
          "name": "to",
          "type": "address"
        },
        {
          "internalType": "uint256",
          "name": "tokenId",
          "type": "uint256"
        }
      ],
      "name": "approve",
      "outputs": [],
      "stateMutability": "nonpayable",
      "type": "function"
    },
    {
      "inputs": [
        {
          "internalType": "address",
          "name": "owner",
          "type": "address"
        }
      ],
      "name": "balanceOf",
      "outputs": [
        {
          "internalType": "uint256",
          "name": "",
          "type": "uint256"
        }
      ],
      "stateMutability": "view",
      "type": "function"
    },
    {
      "inputs": [],
      "name": "contractAddress",
      "outputs": [
        {
          "internalType": "address payable",
          "name": "",
          "type": "address"
        }
      ],
      "stateMutability": "view",
      "type": "function"
    },
    {
      "inputs": [
        {
          "internalType": "uint256",
          "name": "tokenId",
          "type": "uint256"
        }
      ],
      "name": "getApproved",
      "outputs": [
        {
          "internalType": "address",
          "name": "",
          "type": "address"
        }
      ],
      "stateMutability": "view",
      "type": "function"
    },
    {
      "inputs": [
        {
          "internalType": "address",
          "name": "owner",
          "type": "address"
        },
        {
          "internalType": "address",
          "name": "operator",
          "type": "address"
        }
      ],
      "name": "isApprovedForAll",
      "outputs": [
        {
          "internalType": "bool",
          "name": "",
          "type": "bool"
        }
      ],
      "stateMutability": "view",
      "type": "function"
    },
    {
      "inputs": [],
      "name": "name",
      "outputs": [
        {
          "internalType": "string",
          "name": "",
          "type": "string"
        }
      ],
      "stateMutability": "view",
      "type": "function"
    },
    {
      "inputs": [
        {
          "internalType": "address",
          "name": "",
          "type": "address"
        },
        {
          "internalType": "address",
          "name": "",
          "type": "address"
        },
        {
          "internalType": "uint256",
          "name": "",
          "type": "uint256"
        },
        {
          "internalType": "bytes",
          "name": "",
          "type": "bytes"
        }
      ],
      "name": "onERC721Received",
      "outputs": [
        {
          "internalType": "bytes4",
          "name": "",
          "type": "bytes4"
        }
      ],
      "stateMutability": "nonpayable",
      "type": "function"
    },
    {
      "inputs": [],
      "name": "owner",
      "outputs": [
        {
          "internalType": "address",
          "name": "",
          "type": "address"
        }
      ],
      "stateMutability": "view",
      "type": "function"
    },
    {
      "inputs": [],
      "name": "ownerAddress",
      "outputs": [
        {
          "internalType": "address payable",
          "name": "",
          "type": "address"
        }
      ],
      "stateMutability": "view",
      "type": "function"
    },
    {
      "inputs": [
        {
          "internalType": "uint256",
          "name": "tokenId",
          "type": "uint256"
        }
      ],
      "name": "ownerOf",
      "outputs": [
        {
          "internalType": "address",
          "name": "",
          "type": "address"
        }
      ],
      "stateMutability": "view",
      "type": "function"
    },
    {
      "inputs": [],
      "name": "renounceOwnership",
      "outputs": [],
      "stateMutability": "nonpayable",
      "type": "function"
    },
    {
      "inputs": [
        {
          "internalType": "address",
          "name": "from",
          "type": "address"
        },
        {
          "internalType": "address",
          "name": "to",
          "type": "address"
        },
        {
          "internalType": "uint256",
          "name": "tokenId",
          "type": "uint256"
        }
      ],
      "name": "safeTransferFrom",
      "outputs": [],
      "stateMutability": "nonpayable",
      "type": "function"
    },
    {
      "inputs": [
        {
          "internalType": "address",
          "name": "from",
          "type": "address"
        },
        {
          "internalType": "address",
          "name": "to",
          "type": "address"
        },
        {
          "internalType": "uint256",
          "name": "tokenId",
          "type": "uint256"
        },
        {
          "internalType": "bytes",
          "name": "_data",
          "type": "bytes"
        }
      ],
      "name": "safeTransferFrom",
      "outputs": [],
      "stateMutability": "nonpayable",
      "type": "function"
    },
    {
      "inputs": [
        {
          "internalType": "address",
          "name": "operator",
          "type": "address"
        },
        {
          "internalType": "bool",
          "name": "approved",
          "type": "bool"
        }
      ],
      "name": "setApprovalForAll",
      "outputs": [],
      "stateMutability": "nonpayable",
      "type": "function"
    },
    {
      "inputs": [
        {
          "internalType": "bytes4",
          "name": "interfaceId",
          "type": "bytes4"
        }
      ],
      "name": "supportsInterface",
      "outputs": [
        {
          "internalType": "bool",
          "name": "",
          "type": "bool"
        }
      ],
      "stateMutability": "view",
      "type": "function"
    },
    {
      "inputs": [],
      "name": "symbol",
      "outputs": [
        {
          "internalType": "string",
          "name": "",
          "type": "string"
        }
      ],
      "stateMutability": "view",
      "type": "function"
    },
    {
      "inputs": [
        {
          "internalType": "uint256",
          "name": "tokenId",
          "type": "uint256"
        }
      ],
      "name": "tokenURI",
      "outputs": [
        {
          "internalType": "string",
          "name": "",
          "type": "string"
        }
      ],
      "stateMutability": "view",
      "type": "function"
    },
    {
      "inputs": [
        {
          "internalType": "address",
          "name": "newOwner",
          "type": "address"
        }
      ],
      "name": "transferOwnership",
      "outputs": [],
      "stateMutability": "nonpayable",
      "type": "function"
    },
    {
      "inputs": [
        {
          "internalType": "uint256",
          "name": "_id",
          "type": "uint256"
        }
      ],
      "name": "getPolitic",
      "outputs": [
        {
          "components": [
            {
              "internalType": "uint256",
              "name": "id",
              "type": "uint256"
            },
            {
              "internalType": "uint256",
              "name": "qty",
              "type": "uint256"
            },
            {
              "internalType": "uint256",
              "name": "level",
              "type": "uint256"
            },
            {
              "internalType": "uint256",
              "name": "price",
              "type": "uint256"
            },
            {
              "internalType": "string",
              "name": "name",
              "type": "string"
            },
            {
              "internalType": "bool",
              "name": "lottery",
              "type": "bool"
            },
            {
              "internalType": "bool",
              "name": "created",
              "type": "bool"
            }
          ],
          "internalType": "struct Collectible.PoliticsAvailable",
          "name": "",
          "type": "tuple"
        }
      ],
      "stateMutability": "view",
      "type": "function"
    },
    {
      "inputs": [],
      "name": "getPolitics",
      "outputs": [
        {
          "components": [
            {
              "internalType": "uint256",
              "name": "id",
              "type": "uint256"
            },
            {
              "internalType": "uint256",
              "name": "qty",
              "type": "uint256"
            },
            {
              "internalType": "uint256",
              "name": "level",
              "type": "uint256"
            },
            {
              "internalType": "uint256",
              "name": "price",
              "type": "uint256"
            },
            {
              "internalType": "string",
              "name": "name",
              "type": "string"
            },
            {
              "internalType": "bool",
              "name": "lottery",
              "type": "bool"
            },
            {
              "internalType": "bool",
              "name": "created",
              "type": "bool"
            }
          ],
          "internalType": "struct Collectible.PoliticsAvailable[]",
          "name": "",
          "type": "tuple[]"
        }
      ],
      "stateMutability": "view",
      "type": "function"
    },
    {
      "inputs": [],
      "name": "getMyPolitics",
      "outputs": [
        {
          "components": [
            {
              "internalType": "uint256",
              "name": "id",
              "type": "uint256"
            },
            {
              "internalType": "uint256",
              "name": "id_politic",
              "type": "uint256"
            },
            {
              "internalType": "address",
              "name": "owner",
              "type": "address"
            }
          ],
          "internalType": "struct Collectible.PoliticsOwned[]",
          "name": "",
          "type": "tuple[]"
        }
      ],
      "stateMutability": "view",
      "type": "function"
    },
    {
      "inputs": [
        {
          "internalType": "string",
          "name": "_name",
          "type": "string"
        },
        {
          "internalType": "uint256",
          "name": "_id",
          "type": "uint256"
        },
        {
          "internalType": "uint256",
          "name": "_qty",
          "type": "uint256"
        },
        {
          "internalType": "uint256",
          "name": "_level",
          "type": "uint256"
        },
        {
          "internalType": "uint256",
          "name": "_price",
          "type": "uint256"
        },
        {
          "internalType": "bool",
          "name": "_lottery",
          "type": "bool"
        }
      ],
      "name": "create",
      "outputs": [
        {
          "components": [
            {
              "internalType": "uint256",
              "name": "id",
              "type": "uint256"
            },
            {
              "internalType": "uint256",
              "name": "qty",
              "type": "uint256"
            },
            {
              "internalType": "uint256",
              "name": "level",
              "type": "uint256"
            },
            {
              "internalType": "uint256",
              "name": "price",
              "type": "uint256"
            },
            {
              "internalType": "string",
              "name": "name",
              "type": "string"
            },
            {
              "internalType": "bool",
              "name": "lottery",
              "type": "bool"
            },
            {
              "internalType": "bool",
              "name": "created",
              "type": "bool"
            }
          ],
          "internalType": "struct Collectible.PoliticsAvailable",
          "name": "",
          "type": "tuple"
        }
      ],
      "stateMutability": "nonpayable",
      "type": "function"
    },
    {
      "inputs": [
        {
          "internalType": "uint256",
          "name": "_id",
          "type": "uint256"
        },
        {
          "internalType": "uint256",
          "name": "_qty",
          "type": "uint256"
        }
      ],
      "name": "addQty",
      "outputs": [],
      "stateMutability": "nonpayable",
      "type": "function"
    },
    {
      "inputs": [
        {
          "internalType": "uint256",
          "name": "_id",
          "type": "uint256"
        },
        {
          "internalType": "string",
          "name": "_tokenUri",
          "type": "string"
        }
      ],
      "name": "buy",
      "outputs": [],
      "stateMutability": "payable",
      "type": "function"
    },
    {
      "inputs": [
        {
          "internalType": "address",
          "name": "from",
          "type": "address"
        },
        {
          "internalType": "address",
          "name": "to",
          "type": "address"
        },
        {
          "internalType": "uint256",
          "name": "tokenId",
          "type": "uint256"
        }
      ],
      "name": "transferFrom",
      "outputs": [],
      "stateMutability": "nonpayable",
      "type": "function"
    }
  ],
  "bytecode": "0x60806040526001600e553480156200001657600080fd5b50604080518082018252600b81527f506f6c69746963734e667400000000000000000000000000000000000000000060208083019182528351808501909452600384527f504f4c0000000000000000000000000000000000000000000000000000000000908401528151919291620000919160009162000152565b508051620000a790600190602084019062000152565b505050620000d6620000c7620000fc640100000000026401000000009004565b64010000000062000100810204565b600c8054600160a060020a03199081163317909155600d8054909116301790556200024e565b3390565b60078054600160a060020a03838116600160a060020a0319831681179093556040519116919082907f8be0079c531659141344cd1fd0a4f28419497f9722a3daafe3b4186f6b6457e090600090a35050565b8280546200016090620001f8565b90600052602060002090601f016020900481019282620001845760008555620001cf565b82601f106200019f57805160ff1916838001178555620001cf565b82800160010185558215620001cf579182015b82811115620001cf578251825591602001919060010190620001b2565b50620001dd929150620001e1565b5090565b5b80821115620001dd5760008155600101620001e2565b6002810460018216806200020d57607f821691505b6020821081141562000248577f4e487b7100000000000000000000000000000000000000000000000000000000600052602260045260246000fd5b50919050565b612fd7806200025e6000396000f3fe608060405260043610610183576000357c010000000000000000000000000000000000000000000000000000000090048063715018a6116100ee578063b7dc3b18116100a7578063c87b56dd11610081578063c87b56dd1461046c578063e985e9c51461048c578063f2fde38b146104d5578063f6b4dfb4146104f557600080fd5b8063b7dc3b1814610419578063b88d4fde1461042c578063b9db1c981461044c57600080fd5b8063715018a61461036f57806385d33436146103845780638da5cb5b146103a65780638f84aa09146103c457806395d89b41146103e4578063a22cb465146103f957600080fd5b806323b872dd1161014057806323b872dd1461029f57806330f105cd146102bf57806342842e0e146102e15780635ad16b7f146103015780636352211e1461032157806370a082311461034157600080fd5b806301ffc9a71461018857806306fdde03146101bd578063081812fc146101df578063095ea7b3146102175780631114327714610239578063150b7a0214610266575b600080fd5b34801561019457600080fd5b506101a86101a3366004612a73565b610515565b60405190151581526020015b60405180910390f35b3480156101c957600080fd5b506101d26105b2565b6040516101b49190612d5d565b3480156101eb57600080fd5b506101ff6101fa366004612b20565b610644565b604051600160a060020a0390911681526020016101b4565b34801561022357600080fd5b50610237610232366004612a49565b6106e5565b005b34801561024557600080fd5b50610259610254366004612aad565b61081d565b6040516101b49190612e02565b34801561027257600080fd5b506102866102813660046129a3565b610a96565b604051600160e060020a031990911681526020016101b4565b3480156102ab57600080fd5b506102376102ba366004612967565b610ac0565b3480156102cb57600080fd5b506102d4610aed565b6040516101b49190612c9a565b3480156102ed57600080fd5b506102376102fc366004612967565b610c5d565b34801561030d57600080fd5b5061025961031c366004612b20565b610c78565b34801561032d57600080fd5b506101ff61033c366004612b20565b610e17565b34801561034d57600080fd5b5061036161035c366004612919565b610ea5565b6040519081526020016101b4565b34801561037b57600080fd5b50610237610f42565b34801561039057600080fd5b50610399610f7b565b6040516101b49190612cfb565b3480156103b257600080fd5b50600754600160a060020a03166101ff565b3480156103d057600080fd5b50600c546101ff90600160a060020a031681565b3480156103f057600080fd5b506101d2610fff565b34801561040557600080fd5b50610237610414366004612a1f565b61100e565b610237610427366004612b39565b6110d6565b34801561043857600080fd5b506102376104473660046129a3565b611664565b34801561045857600080fd5b50610237610467366004612b80565b6116f5565b34801561047857600080fd5b506101d2610487366004612b20565b611886565b34801561049857600080fd5b506101a86104a7366004612934565b600160a060020a03918216600090815260056020908152604080832093909416825291909152205460ff1690565b3480156104e157600080fd5b506102376104f0366004612919565b611a04565b34801561050157600080fd5b50600d546101ff90600160a060020a031681565b6000600160e060020a031982167f80ac58cd0000000000000000000000000000000000000000000000000000000014806105785750600160e060020a031982167f5b5e139f00000000000000000000000000000000000000000000000000000000145b806105ac57507f01ffc9a700000000000000000000000000000000000000000000000000000000600160e060020a03198316145b92915050565b6060600080546105c190612eba565b80601f01602080910402602001604051908101604052809291908181526020018280546105ed90612eba565b801561063a5780601f1061060f5761010080835404028352916020019161063a565b820191906000526020600020905b81548152906001019060200180831161061d57829003601f168201915b5050505050905090565b600061064f82611abc565b6106c95760405160e560020a62461bcd02815260206004820152602c60248201527f4552433732313a20617070726f76656420717565727920666f72206e6f6e657860448201527f697374656e7420746f6b656e000000000000000000000000000000000000000060648201526084015b60405180910390fd5b50600090815260046020526040902054600160a060020a031690565b60006106f082610e17565b905080600160a060020a031683600160a060020a0316141561077d5760405160e560020a62461bcd02815260206004820152602160248201527f4552433732313a20617070726f76616c20746f2063757272656e74206f776e6560448201527f720000000000000000000000000000000000000000000000000000000000000060648201526084016106c0565b33600160a060020a0382161480610799575061079981336104a7565b61080e5760405160e560020a62461bcd02815260206004820152603860248201527f4552433732313a20617070726f76652063616c6c6572206973206e6f74206f7760448201527f6e6572206e6f7220617070726f76656420666f7220616c6c000000000000000060648201526084016106c0565b6108188383611ad9565b505050565b6108256126b9565b600754600160a060020a031633146108525760405160e560020a62461bcd0281526004016106c090612dcd565b600086815260096020526040902060050154610100900460ff16156108bc5760405160e560020a62461bcd02815260206004820152601160248201527f696420616c726561647920696e2075736500000000000000000000000000000060448201526064016106c0565b6040805160e081018252878152602080820188815292820187815260608301878152608084018c815287151560a0860152600160c0860181905260088054918201815560005285517ff3f7a9fe364faab93b216da50a3214154f22a0a2b415b23a84c8169e8b636ee3600690920291820190815596517ff3f7a9fe364faab93b216da50a3214154f22a0a2b415b23a84c8169e8b636ee482015592517ff3f7a9fe364faab93b216da50a3214154f22a0a2b415b23a84c8169e8b636ee584015590517ff3f7a9fe364faab93b216da50a3214154f22a0a2b415b23a84c8169e8b636ee68301555180519394859490936109d9937ff3f7a9fe364faab93b216da50a3214154f22a0a2b415b23a84c8169e8b636ee7019201906126fa565b5060a08201516005909101805460c09093015115156101000261ff00199215159290921661ffff1990931692909217179055600087815260096020908152604091829020835181558184015160018201559183015160028301556060830151600383015560808301518051849392610a589260048501929101906126fa565b5060a08201516005909101805460c09093015115156101000261ff00199215159290921661ffff199093169290921717905590509695505050505050565b7f150b7a02000000000000000000000000000000000000000000000000000000005b949350505050565b600754600160a060020a031633146108185760405160e560020a62461bcd0281526004016106c090612dcd565b600754606090600160a060020a03163314610b1d5760405160e560020a62461bcd0281526004016106c090612dcd565b6008805480602002602001604051908101604052809291908181526020016000905b82821015610c5457838290600052602060002090600602016040518060e001604052908160008201548152602001600182015481526020016002820154815260200160038201548152602001600482018054610b9a90612eba565b80601f0160208091040260200160405190810160405280929190818152602001828054610bc690612eba565b8015610c135780601f10610be857610100808354040283529160200191610c13565b820191906000526020600020905b815481529060010190602001808311610bf657829003601f168201915b50505091835250506005919091015460ff80821615156020808501919091526101009092041615156040909201919091529082526001929092019101610b3f565b50505050905090565b61081883838360405180602001604052806000815250611664565b610c806126b9565b600754600160a060020a03163314610cad5760405160e560020a62461bcd0281526004016106c090612dcd565b600082815260096020526040902060050154610100900460ff16610d165760405160e560020a62461bcd02815260206004820152601160248201527f506f6c69746963206e6f7420666f756e6400000000000000000000000000000060448201526064016106c0565b600960008381526020019081526020016000206040518060e001604052908160008201548152602001600182015481526020016002820154815260200160038201548152602001600482018054610d6c90612eba565b80601f0160208091040260200160405190810160405280929190818152602001828054610d9890612eba565b8015610de55780601f10610dba57610100808354040283529160200191610de5565b820191906000526020600020905b815481529060010190602001808311610dc857829003601f168201915b50505091835250506005919091015460ff8082161515602084015261010090910416151560409091015290505b919050565b600081815260026020526040812054600160a060020a0316806105ac5760405160e560020a62461bcd02815260206004820152602960248201527f4552433732313a206f776e657220717565727920666f72206e6f6e657869737460448201527f656e7420746f6b656e000000000000000000000000000000000000000000000060648201526084016106c0565b6000600160a060020a038216610f265760405160e560020a62461bcd02815260206004820152602a60248201527f4552433732313a2062616c616e636520717565727920666f7220746865207a6560448201527f726f20616464726573730000000000000000000000000000000000000000000060648201526084016106c0565b50600160a060020a031660009081526003602052604090205490565b600754600160a060020a03163314610f6f5760405160e560020a62461bcd0281526004016106c090612dcd565b610f796000611b47565b565b336000908152600a60209081526040808320805482518185028101850190935280835260609492939192909184015b82821015610c5457600084815260209081902060408051606081018252600386029092018054835260018082015484860152600290910154600160a060020a0316918301919091529083529092019101610faa565b6060600180546105c190612eba565b600160a060020a03821633141561106a5760405160e560020a62461bcd02815260206004820152601960248201527f4552433732313a20617070726f766520746f2063616c6c65720000000000000060448201526064016106c0565b336000818152600560209081526040808320600160a060020a03871680855290835292819020805460ff191686151590811790915590519081529192917f17307eab39ab6107e8899845ad3d59bd9653f200f220920489ca2b5937696c31910160405180910390a35050565b600082815260096020526040902060050154610100900460ff1661113f5760405160e560020a62461bcd02815260206004820152601160248201527f506f6c69746963206e6f7420666f756e6400000000000000000000000000000060448201526064016106c0565b60008281526009602052604090206005015460ff16156111ca5760405160e560020a62461bcd02815260206004820152602360248201527f506f6c69746963206f6e6c7920617661696c61626c652077697468206c6f747460448201527f657279000000000000000000000000000000000000000000000000000000000060648201526084016106c0565b6000828152600960205260409020600101546112515760405160e560020a62461bcd02815260206004820152602260248201527f5468657265206973206e6f206d6f726520706f6c6974696320617661696c616260448201527f6c6500000000000000000000000000000000000000000000000000000000000060648201526084016106c0565b6000828152600960205260409020600301546103e89061127990670de0b6b3a7640000612e41565b6112839190612e2d565b34146112d45760405160e560020a62461bcd02815260206004820152601060248201527f496e636f727265637420616d6f756e740000000000000000000000000000000060448201526064016106c0565b6112dc6126b9565b60005b60085481101561152a5783600882815481106112fd576112fd612f59565b9060005260206000209060060201600001541415611518576008818154811061132857611328612f59565b90600052602060002090600602016040518060e00160405290816000820154815260200160018201548152602001600282015481526020016003820154815260200160048201805461137990612eba565b80601f01602080910402602001604051908101604052809291908181526020018280546113a590612eba565b80156113f25780601f106113c7576101008083540402835291602001916113f2565b820191906000526020600020905b8154815290600101906020018083116113d557829003601f168201915b50505091835250506005919091015460ff8082161515602084015261010090910416151560409091015260088054919350908290811061143457611434612f59565b60009182526020822060016006909202010180549161145283612ea3565b91905055506008818154811061146a5761146a612f59565b9060005260206000209060060201600960008681526020019081526020016000206000820154816000015560018201548160010155600282015481600201556003820154816003015560048201816004019080546114c790612eba565b6114d292919061277e565b506005918201805491909201805460ff19811660ff93841615159081178355935461ffff1990911661ff0019909416939093176101009384900490921615159092021790555b8061152281612ef8565b9150506112df565b50600e5460408051602080820193909352336c0100000000000000000000000002818301528151603481830301815260549091019091528051910120600090611579906402540be40090612f13565b600e8054919250600061158b83612ef8565b9091555050600c54604051600160a060020a03909116903480156108fc02916000818181858888f193505050501580156115c9573d6000803e3d6000fd5b506115d43382611b99565b6115de8184611bb7565b6040805160608101825282815292516020808501918252338584018181526000828152600a8452858120805460018181018355918352858320995160039091029099019889559451948801949094555160029096018054600160a060020a0397909716600160a060020a0319978816179055938252600b90522080549092161790555050565b61166e3383611c54565b6116e35760405160e560020a62461bcd02815260206004820152603160248201527f4552433732313a207472616e736665722063616c6c6572206973206e6f74206f60448201527f776e6572206e6f7220617070726f76656400000000000000000000000000000060648201526084016106c0565b6116ef84848484611d4e565b50505050565b600754600160a060020a031633146117225760405160e560020a62461bcd0281526004016106c090612dcd565b60005b60085481101561081857826008828154811061174357611743612f59565b9060005260206000209060060201600001541480156117855750816008828154811061177157611771612f59565b906000526020600020906006020160010154105b1561187457816008828154811061179e5761179e612f59565b906000526020600020906006020160010181905550600881815481106117c6576117c6612f59565b90600052602060002090600602016009600085815260200190815260200160002060008201548160000155600182015481600101556002820154816002015560038201548160030155600482018160040190805461182390612eba565b61182e92919061277e565b506005918201805491909201805460ff19811660ff93841615159081178355935461ffff1990911661ff0019909416939093176101009384900490921615159092021790555b8061187e81612ef8565b915050611725565b606061189182611abc565b6119065760405160e560020a62461bcd02815260206004820152603160248201527f45524337323155524953746f726167653a2055524920717565727920666f722060448201527f6e6f6e6578697374656e7420746f6b656e00000000000000000000000000000060648201526084016106c0565b6000828152600660205260408120805461191f90612eba565b80601f016020809104026020016040519081016040528092919081815260200182805461194b90612eba565b80156119985780601f1061196d57610100808354040283529160200191611998565b820191906000526020600020905b81548152906001019060200180831161197b57829003601f168201915b5050505050905060006119b660408051602081019091526000815290565b90508051600014156119c9575092915050565b8151156119fb5780826040516020016119e3929190612c2f565b60405160208183030381529060405292505050919050565b610ab884611d84565b600754600160a060020a03163314611a315760405160e560020a62461bcd0281526004016106c090612dcd565b600160a060020a038116611ab05760405160e560020a62461bcd02815260206004820152602660248201527f4f776e61626c653a206e6577206f776e657220697320746865207a65726f206160448201527f646472657373000000000000000000000000000000000000000000000000000060648201526084016106c0565b611ab981611b47565b50565b600090815260026020526040902054600160a060020a0316151590565b60008181526004602052604090208054600160a060020a031916600160a060020a0384169081179091558190611b0e82610e17565b600160a060020a03167f8c5be1e5ebec7d5bd14f71427d1e84f3dd0314c0f7b2291e5b200ac8c7c3b92560405160405180910390a45050565b60078054600160a060020a03838116600160a060020a0319831681179093556040519116919082907f8be0079c531659141344cd1fd0a4f28419497f9722a3daafe3b4186f6b6457e090600090a35050565b611bb3828260405180602001604052806000815250611e6d565b5050565b611bc082611abc565b611c355760405160e560020a62461bcd02815260206004820152602e60248201527f45524337323155524953746f726167653a2055524920736574206f66206e6f6e60448201527f6578697374656e7420746f6b656e00000000000000000000000000000000000060648201526084016106c0565b60008281526006602090815260409091208251610818928401906126fa565b6000611c5f82611abc565b611cd45760405160e560020a62461bcd02815260206004820152602c60248201527f4552433732313a206f70657261746f7220717565727920666f72206e6f6e657860448201527f697374656e7420746f6b656e000000000000000000000000000000000000000060648201526084016106c0565b6000611cdf83610e17565b905080600160a060020a031684600160a060020a03161480611d1a575083600160a060020a0316611d0f84610644565b600160a060020a0316145b80610ab85750600160a060020a0380821660009081526005602090815260408083209388168352929052205460ff16610ab8565b611d59848484611ea3565b611d6584848484612081565b6116ef5760405160e560020a62461bcd0281526004016106c090612d70565b6060611d8f82611abc565b611e045760405160e560020a62461bcd02815260206004820152602f60248201527f4552433732314d657461646174613a2055524920717565727920666f72206e6f60448201527f6e6578697374656e7420746f6b656e000000000000000000000000000000000060648201526084016106c0565b6000611e1b60408051602081019091526000815290565b90506000815111611e3b5760405180602001604052806000815250611e66565b80611e45846121c0565b604051602001611e56929190612c2f565b6040516020818303038152906040525b9392505050565b611e778383612311565b611e846000848484612081565b6108185760405160e560020a62461bcd0281526004016106c090612d70565b82600160a060020a0316611eb682610e17565b600160a060020a031614611f355760405160e560020a62461bcd02815260206004820152602960248201527f4552433732313a207472616e73666572206f6620746f6b656e2074686174206960448201527f73206e6f74206f776e000000000000000000000000000000000000000000000060648201526084016106c0565b600160a060020a038216611fb35760405160e560020a62461bcd028152602060048201526024808201527f4552433732313a207472616e7366657220746f20746865207a65726f2061646460448201527f726573730000000000000000000000000000000000000000000000000000000060648201526084016106c0565b611fbe838383612456565b611fc9600082611ad9565b600160a060020a0383166000908152600360205260408120805460019290611ff2908490612e60565b9091555050600160a060020a0382166000908152600360205260408120805460019290612020908490612e15565b90915550506000818152600260205260408082208054600160a060020a031916600160a060020a0386811691821790925591518493918716917fddf252ad1be2c89b69c2b068fc378daa952ba7f163c4a11628f55a4df523b3ef91a4505050565b6000600160a060020a0384163b156121b8576040517f150b7a02000000000000000000000000000000000000000000000000000000008152600160a060020a0385169063150b7a02906120de903390899088908890600401612c5e565b602060405180830381600087803b1580156120f857600080fd5b505af1925050508015612128575060408051601f3d908101601f1916820190925261212591810190612a90565b60015b612185573d808015612156576040519150601f19603f3d011682016040523d82523d6000602084013e61215b565b606091505b50805161217d5760405160e560020a62461bcd0281526004016106c090612d70565b805181602001fd5b600160e060020a0319167f150b7a0200000000000000000000000000000000000000000000000000000000149050610ab8565b506001610ab8565b60608161220057505060408051808201909152600181527f3000000000000000000000000000000000000000000000000000000000000000602082015290565b8160005b811561222a578061221481612ef8565b91506122239050600a83612e2d565b9150612204565b60008167ffffffffffffffff81111561224557612245612f72565b6040519080825280601f01601f19166020018201604052801561226f576020820181803683370190505b5090505b8415610ab857612284600183612e60565b9150612291600a86612f13565b61229c906030612e15565b7f0100000000000000000000000000000000000000000000000000000000000000028183815181106122d0576122d0612f59565b60200101907effffffffffffffffffffffffffffffffffffffffffffffffffffffffffffff1916908160001a90535061230a600a86612e2d565b9450612273565b600160a060020a03821661236a5760405160e560020a62461bcd02815260206004820181905260248201527f4552433732313a206d696e7420746f20746865207a65726f206164647265737360448201526064016106c0565b61237381611abc565b156123c35760405160e560020a62461bcd02815260206004820152601c60248201527f4552433732313a20746f6b656e20616c7265616479206d696e7465640000000060448201526064016106c0565b6123cf60008383612456565b600160a060020a03821660009081526003602052604081208054600192906123f8908490612e15565b90915550506000818152600260205260408082208054600160a060020a031916600160a060020a03861690811790915590518392907fddf252ad1be2c89b69c2b068fc378daa952ba7f163c4a11628f55a4df523b3ef908290a45050565b600160a060020a0383166000908152600a6020908152604080832080548251818502810185019093528083529192909190849084015b828210156124e157600084815260209081902060408051606081018252600386029092018054835260018082015484860152600290910154600160a060020a031691830191909152908352909201910161248c565b505050600160a060020a0386166000908152600a6020526040812092935061250a9291506127f9565b60005b8151811015612688578282828151811061252957612529612f59565b602002602001015160000151146125c757600160a060020a0385166000908152600a60205260409020825183908390811061256657612566612f59565b6020908102919091018101518254600180820185556000948552938390208251600390920201908155918101519282019290925560409091015160029091018054600160a060020a031916600160a060020a03909216919091179055612676565b838282815181106125da576125da612f59565b602090810291909101810151600160a060020a039283166040918201529186166000908152600a90915220825183908390811061261957612619612f59565b6020908102919091018101518254600180820185556000948552938390208251600390920201908155918101519282019290925560409091015160029091018054600160a060020a031916600160a060020a039092169190911790555b8061268081612ef8565b91505061250d565b50506000908152600b602052604090208054600160a060020a031916600160a060020a039290921691909117905550565b6040518060e0016040528060008152602001600081526020016000815260200160008152602001606081526020016000151581526020016000151581525090565b82805461270690612eba565b90600052602060002090601f016020900481019282612728576000855561276e565b82601f1061274157805160ff191683800117855561276e565b8280016001018555821561276e579182015b8281111561276e578251825591602001919060010190612753565b5061277a92915061281a565b5090565b82805461278a90612eba565b90600052602060002090601f0160209004810192826127ac576000855561276e565b82601f106127bd578054855561276e565b8280016001018555821561276e57600052602060002091601f016020900482015b8281111561276e5782548255916001019190600101906127de565b5080546000825560030290600052602060002090810190611ab9919061282f565b5b8082111561277a576000815560010161281b565b5b8082111561277a5760008082556001820155600281018054600160a060020a0319169055600301612830565b600067ffffffffffffffff8084111561287757612877612f72565b604051601f8501601f19908116603f0116810190828211818310171561289f5761289f612f72565b816040528093508581528686860111156128b857600080fd5b858560208301376000602087830101525050509392505050565b8035600160a060020a0381168114610e1257600080fd5b80358015158114610e1257600080fd5b600082601f83011261290a57600080fd5b611e668383356020850161285c565b60006020828403121561292b57600080fd5b611e66826128d2565b6000806040838503121561294757600080fd5b612950836128d2565b915061295e602084016128d2565b90509250929050565b60008060006060848603121561297c57600080fd5b612985846128d2565b9250612993602085016128d2565b9150604084013590509250925092565b600080600080608085870312156129b957600080fd5b6129c2856128d2565b93506129d0602086016128d2565b925060408501359150606085013567ffffffffffffffff8111156129f357600080fd5b8501601f81018713612a0457600080fd5b612a138782356020840161285c565b91505092959194509250565b60008060408385031215612a3257600080fd5b612a3b836128d2565b915061295e602084016128e9565b60008060408385031215612a5c57600080fd5b612a65836128d2565b946020939093013593505050565b600060208284031215612a8557600080fd5b8135611e6681612f8b565b600060208284031215612aa257600080fd5b8151611e6681612f8b565b60008060008060008060c08789031215612ac657600080fd5b863567ffffffffffffffff811115612add57600080fd5b612ae989828a016128f9565b96505060208701359450604087013593506060870135925060808701359150612b1460a088016128e9565b90509295509295509295565b600060208284031215612b3257600080fd5b5035919050565b60008060408385031215612b4c57600080fd5b82359150602083013567ffffffffffffffff811115612b6a57600080fd5b612b76858286016128f9565b9150509250929050565b60008060408385031215612b9357600080fd5b50508035926020909101359150565b60008151808452612bba816020860160208601612e77565b601f01601f19169290920160200192915050565b805182526020810151602083015260408101516040830152606081015160608301526000608082015160e06080850152612c0b60e0850182612ba2565b905060a0830151151560a085015260c0830151151560c08501528091505092915050565b60008351612c41818460208801612e77565b835190830190612c55818360208801612e77565b01949350505050565b6000600160a060020a03808716835280861660208401525083604083015260806060830152612c906080830184612ba2565b9695505050505050565b600060208083018184528085518083526040860191506040848202870101925083870160005b82811015612cee57603f19888603018452612cdc858351612bce565b94509285019290850190600101612cc0565b5092979650505050505050565b602080825282518282018190526000919060409081850190868401855b82811015612d50578151805185528681015187860152850151600160a060020a03168585015260609093019290850190600101612d18565b5091979650505050505050565b602081526000611e666020830184612ba2565b60208082526032908201527f4552433732313a207472616e7366657220746f206e6f6e20455243373231526560408201527f63656976657220696d706c656d656e7465720000000000000000000000000000606082015260800190565b6020808252818101527f4f776e61626c653a2063616c6c6572206973206e6f7420746865206f776e6572604082015260600190565b602081526000611e666020830184612bce565b60008219821115612e2857612e28612f27565b500190565b600082612e3c57612e3c612f40565b500490565b6000816000190483118215151615612e5b57612e5b612f27565b500290565b600082821015612e7257612e72612f27565b500390565b60005b83811015612e92578181015183820152602001612e7a565b838111156116ef5750506000910152565b600081612eb257612eb2612f27565b506000190190565b600281046001821680612ece57607f821691505b60208210811415612ef25760e060020a634e487b7102600052602260045260246000fd5b50919050565b6000600019821415612f0c57612f0c612f27565b5060010190565b600082612f2257612f22612f40565b500690565b60e060020a634e487b7102600052601160045260246000fd5b60e060020a634e487b7102600052601260045260246000fd5b60e060020a634e487b7102600052603260045260246000fd5b60e060020a634e487b7102600052604160045260246000fd5b600160e060020a031981168114611ab957600080fdfea26469706673582212201526888ae174d7523f15b6cde33bba25e955f2c950e4f441bd2c4baff5fd10f764736f6c63430008070033",
  "immutableReferences": {},
  "source": "// SPDX-License-Identifier: MIT\n\npragma solidity ^0.8.0;\n\nimport \"@openzeppelin/contracts/token/ERC721/extensions/ERC721URIStorage.sol\";\nimport \"@openzeppelin/contracts/token/ERC721/utils/ERC721Holder.sol\";\nimport \"@openzeppelin/contracts/access/Ownable.sol\";\n\n/**\n* @title ERC721 collectible base methods\n* @author Youness Chetoui\n*/\ncontract Collectible is ERC721URIStorage, ERC721Holder, Ownable {\n    struct PoliticsAvailable {\n        uint256 id;\n        uint256 qty;\n        uint256 level;\n        uint256 price;\n        string name;\n        bool lottery;\n        bool created;\n    }\n\n    struct PoliticsOwned {\n        uint256 id;\n        uint256 id_politic;\n        address owner;\n    }\n\n    PoliticsAvailable[] internal politics;\n\n    mapping(uint256 => PoliticsAvailable) internal politicsAvailable;\n    mapping(address => PoliticsOwned[]) internal userOwnedPolitics;\n    mapping(uint256 => address) internal politicToUser;\n\n    address payable public ownerAddress;\n    address payable public contractAddress;\n\n    uint256 internal tokenCounter = 1;\n\n    constructor() ERC721(\"PoliticsNft\", \"POL\") {\n        ownerAddress = payable(msg.sender);\n        contractAddress = payable(address(this));\n    }\n\n    /**\n    * @notice get politician available by id\n    * @param _id of politician\n    * @return struct PoliticsAvailable\n    */\n    function getPolitic(uint256 _id) public view onlyOwner returns(PoliticsAvailable memory) {\n        require(politicsAvailable[_id].created, \"Politic not found\");\n        return politicsAvailable[_id];\n    }\n\n    /**\n    * @notice get list of all politician available\n    * @return Array of struct PoliticsAvailable\n    */\n    function getPolitics() public view onlyOwner returns (PoliticsAvailable[] memory) {\n        return politics;\n    }\n\n    /**\n    * @notice Get politician by user\n    * @return array of struct PoliticsOwned\n    */\n    function getMyPolitics() public view returns (PoliticsOwned[] memory) {\n        return userOwnedPolitics[msg.sender];\n    }\n\n    /**\n    * @notice Create politician\n    * @param _name, _id, _qty, _level, _price and _lottery of politician available\n    * @return PoliticsAvailable created\n    */\n    function create(\n        string memory _name,\n        uint256 _id,\n        uint256 _qty,\n        uint256 _level,\n        uint256 _price,\n        bool _lottery\n    )\n        public onlyOwner returns (PoliticsAvailable memory) {\n        require(!politicsAvailable[_id].created, \"id already in use\");\n\n        PoliticsAvailable memory politic =\n            PoliticsAvailable({name: _name, id: _id, qty: _qty, level: _level, price: _price, lottery: _lottery, created: true});\n        politics.push(politic);\n        politicsAvailable[_id] = politic;\n\n        return politic;\n    }\n\n    /**\n    * @notice Add quantity for a PoliticsAvailable\n    * @param _id of PoliticsAvailable and _qty wished\n    */\n    function addQty(uint256 _id, uint256 _qty) public onlyOwner {\n        for (uint i = 0; i < politics.length; i++) {\n            if (politics[i].id == _id && politics[i].qty < _qty) {\n                politics[i].qty = _qty;\n                politicsAvailable[_id] = politics[i];\n            }\n        }\n    }\n\n    /**\n    * @notice Buy politician\n    * @param _id, _tokenUri of politician available\n    */\n    function buy(uint256 _id, string memory _tokenUri) external payable {\n        require(politicsAvailable[_id].created, \"Politic not found\");\n        require(!politicsAvailable[_id].lottery, \"Politic only available with lottery\");\n        require(politicsAvailable[_id].qty > 0, \"There is no more politic available\");\n        require(msg.value == ((politicsAvailable[_id].price * 10**18) / 1000), \"Incorrect amount\");\n        PoliticsAvailable memory politic;\n\n        for (uint i = 0; i < politics.length; i++) {\n            if (politics[i].id == _id) {\n                politic = politics[i];\n                politics[i].qty--;\n                politicsAvailable[_id] = politics[i];\n            }\n        }\n\n        uint256 id = uint256(keccak256(abi.encodePacked(tokenCounter, msg.sender))) % 10000000000;\n        tokenCounter++;\n\n        ownerAddress.transfer(msg.value);\n        _safeMint(msg.sender, id);\n        _setTokenURI(id, _tokenUri);\n\n        PoliticsOwned memory politicOwned =\n            PoliticsOwned({id: id, id_politic: politic.id, owner: msg.sender});\n\n        userOwnedPolitics[msg.sender].push(politicOwned);\n        politicToUser[id] = msg.sender;\n    }\n\n\n    /**\n    * @notice Disabled not safe transform\n    */\n    function transferFrom(\n        address from,\n        address to,\n        uint256 tokenId\n    ) public override onlyOwner {\n        //do nothing\n    }\n\n    function _beforeTokenTransfer(\n        address from,\n        address to,\n        uint256 tokenId\n    ) internal override {\n        PoliticsOwned[] memory politicsFrom = userOwnedPolitics[from];\n        delete userOwnedPolitics[from];\n        for (uint i = 0; i < politicsFrom.length; i++) {\n            if (politicsFrom[i].id != tokenId) {\n                userOwnedPolitics[from].push(politicsFrom[i]);\n\n            } else {\n                politicsFrom[i].owner = to;\n                userOwnedPolitics[to].push(politicsFrom[i]);\n            }\n        }\n\n        politicToUser[tokenId] = to;\n    }\n}\n",
  "sourcePath": "/home/youness/Crypto/PoliticsCollectible/contracts/Collectible.sol",
  "compiler": {
    "name": "solc",
    "version": "0.8.7+commit.e28d00a7.Emscripten.clang"
  },
  "schemaVersion": "3.4.3",
  "updatedAt": "2021-09-02T12:11:06.625Z",
  "devdoc": {
    "author": "Youness Chetoui",
    "kind": "dev",
    "methods": {
      "addQty(uint256,uint256)": {
        "params": {
          "_id": "of PoliticsAvailable and _qty wished"
        }
      },
      "approve(address,uint256)": {
        "details": "See {IERC721-approve}."
      },
      "balanceOf(address)": {
        "details": "See {IERC721-balanceOf}."
      },
      "buy(uint256,string)": {
        "params": {
          "_id": ", _tokenUri of politician available"
        }
      },
      "create(string,uint256,uint256,uint256,uint256,bool)": {
        "params": {
          "_name": ", _id, _qty, _level, _price and _lottery of politician available"
        },
        "returns": {
          "_0": "PoliticsAvailable created"
        }
      },
      "getApproved(uint256)": {
        "details": "See {IERC721-getApproved}."
      },
      "getMyPolitics()": {
        "returns": {
          "_0": "array of struct PoliticsOwned"
        }
      },
      "getPolitic(uint256)": {
        "params": {
          "_id": "of politician"
        },
        "returns": {
          "_0": "struct PoliticsAvailable"
        }
      },
      "getPolitics()": {
        "returns": {
          "_0": "Array of struct PoliticsAvailable"
        }
      },
      "isApprovedForAll(address,address)": {
        "details": "See {IERC721-isApprovedForAll}."
      },
      "name()": {
        "details": "See {IERC721Metadata-name}."
      },
      "onERC721Received(address,address,uint256,bytes)": {
        "details": "See {IERC721Receiver-onERC721Received}. Always returns `IERC721Receiver.onERC721Received.selector`."
      },
      "owner()": {
        "details": "Returns the address of the current owner."
      },
      "ownerOf(uint256)": {
        "details": "See {IERC721-ownerOf}."
      },
      "renounceOwnership()": {
        "details": "Leaves the contract without owner. It will not be possible to call `onlyOwner` functions anymore. Can only be called by the current owner. NOTE: Renouncing ownership will leave the contract without an owner, thereby removing any functionality that is only available to the owner."
      },
      "safeTransferFrom(address,address,uint256)": {
        "details": "See {IERC721-safeTransferFrom}."
      },
      "safeTransferFrom(address,address,uint256,bytes)": {
        "details": "See {IERC721-safeTransferFrom}."
      },
      "setApprovalForAll(address,bool)": {
        "details": "See {IERC721-setApprovalForAll}."
      },
      "supportsInterface(bytes4)": {
        "details": "See {IERC165-supportsInterface}."
      },
      "symbol()": {
        "details": "See {IERC721Metadata-symbol}."
      },
      "tokenURI(uint256)": {
        "details": "See {IERC721Metadata-tokenURI}."
      },
      "transferOwnership(address)": {
        "details": "Transfers ownership of the contract to a new account (`newOwner`). Can only be called by the current owner."
      }
    },
    "title": "ERC721 collectible base methods",
    "version": 1
  },
  "userdoc": {
    "kind": "user",
    "methods": {
      "addQty(uint256,uint256)": {
        "notice": "Add quantity for a PoliticsAvailable"
      },
      "buy(uint256,string)": {
        "notice": "Buy politician"
      },
      "create(string,uint256,uint256,uint256,uint256,bool)": {
        "notice": "Create politician"
      },
      "getMyPolitics()": {
        "notice": "Get politician by user"
      },
      "getPolitic(uint256)": {
        "notice": "get politician available by id"
      },
      "getPolitics()": {
        "notice": "get list of all politician available"
      },
      "transferFrom(address,address,uint256)": {
        "notice": "Disabled not safe transform"
      }
    },
    "version": 1
  }
}