{
  "contractName": "Collectible",
  "abi": [
    {
      "inputs": [],
      "stateMutability": "nonpayable",
      "type": "constructor"
    },
    {
      "anonymous": false,
      "inputs": [
        {
          "indexed": true,
          "internalType": "address",
          "name": "owner",
          "type": "address"
        },
        {
          "indexed": true,
          "internalType": "address",
          "name": "approved",
          "type": "address"
        },
        {
          "indexed": true,
          "internalType": "uint256",
          "name": "tokenId",
          "type": "uint256"
        }
      ],
      "name": "Approval",
      "type": "event"
    },
    {
      "anonymous": false,
      "inputs": [
        {
          "indexed": true,
          "internalType": "address",
          "name": "owner",
          "type": "address"
        },
        {
          "indexed": true,
          "internalType": "address",
          "name": "operator",
          "type": "address"
        },
        {
          "indexed": false,
          "internalType": "bool",
          "name": "approved",
          "type": "bool"
        }
      ],
      "name": "ApprovalForAll",
      "type": "event"
    },
    {
      "anonymous": false,
      "inputs": [
        {
          "indexed": false,
          "internalType": "uint256",
          "name": "id",
          "type": "uint256"
        }
      ],
      "name": "CreatePolitician",
      "type": "event"
    },
    {
      "anonymous": false,
      "inputs": [
        {
          "indexed": true,
          "internalType": "address",
          "name": "previousOwner",
          "type": "address"
        },
        {
          "indexed": true,
          "internalType": "address",
          "name": "newOwner",
          "type": "address"
        }
      ],
      "name": "OwnershipTransferred",
      "type": "event"
    },
    {
      "anonymous": false,
      "inputs": [
        {
          "indexed": false,
          "internalType": "address",
          "name": "owner",
          "type": "address"
        },
        {
          "indexed": false,
          "internalType": "uint256",
          "name": "id",
          "type": "uint256"
        }
      ],
      "name": "PoliticianBuy",
      "type": "event"
    },
    {
      "anonymous": false,
      "inputs": [
        {
          "indexed": true,
          "internalType": "address",
          "name": "from",
          "type": "address"
        },
        {
          "indexed": true,
          "internalType": "address",
          "name": "to",
          "type": "address"
        },
        {
          "indexed": true,
          "internalType": "uint256",
          "name": "tokenId",
          "type": "uint256"
        }
      ],
      "name": "Transfer",
      "type": "event"
    },
    {
      "inputs": [
        {
          "internalType": "address",
          "name": "to",
          "type": "address"
        },
        {
          "internalType": "uint256",
          "name": "tokenId",
          "type": "uint256"
        }
      ],
      "name": "approve",
      "outputs": [],
      "stateMutability": "nonpayable",
      "type": "function"
    },
    {
      "inputs": [
        {
          "internalType": "address",
          "name": "owner",
          "type": "address"
        }
      ],
      "name": "balanceOf",
      "outputs": [
        {
          "internalType": "uint256",
          "name": "",
          "type": "uint256"
        }
      ],
      "stateMutability": "view",
      "type": "function"
    },
    {
      "inputs": [],
      "name": "contractAddress",
      "outputs": [
        {
          "internalType": "address payable",
          "name": "",
          "type": "address"
        }
      ],
      "stateMutability": "view",
      "type": "function"
    },
    {
      "inputs": [
        {
          "internalType": "uint256",
          "name": "tokenId",
          "type": "uint256"
        }
      ],
      "name": "getApproved",
      "outputs": [
        {
          "internalType": "address",
          "name": "",
          "type": "address"
        }
      ],
      "stateMutability": "view",
      "type": "function"
    },
    {
      "inputs": [
        {
          "internalType": "address",
          "name": "owner",
          "type": "address"
        },
        {
          "internalType": "address",
          "name": "operator",
          "type": "address"
        }
      ],
      "name": "isApprovedForAll",
      "outputs": [
        {
          "internalType": "bool",
          "name": "",
          "type": "bool"
        }
      ],
      "stateMutability": "view",
      "type": "function"
    },
    {
      "inputs": [],
      "name": "name",
      "outputs": [
        {
          "internalType": "string",
          "name": "",
          "type": "string"
        }
      ],
      "stateMutability": "view",
      "type": "function"
    },
    {
      "inputs": [
        {
          "internalType": "address",
          "name": "",
          "type": "address"
        },
        {
          "internalType": "address",
          "name": "",
          "type": "address"
        },
        {
          "internalType": "uint256",
          "name": "",
          "type": "uint256"
        },
        {
          "internalType": "bytes",
          "name": "",
          "type": "bytes"
        }
      ],
      "name": "onERC721Received",
      "outputs": [
        {
          "internalType": "bytes4",
          "name": "",
          "type": "bytes4"
        }
      ],
      "stateMutability": "nonpayable",
      "type": "function"
    },
    {
      "inputs": [],
      "name": "owner",
      "outputs": [
        {
          "internalType": "address",
          "name": "",
          "type": "address"
        }
      ],
      "stateMutability": "view",
      "type": "function"
    },
    {
      "inputs": [],
      "name": "ownerAddress",
      "outputs": [
        {
          "internalType": "address payable",
          "name": "",
          "type": "address"
        }
      ],
      "stateMutability": "view",
      "type": "function"
    },
    {
      "inputs": [
        {
          "internalType": "uint256",
          "name": "tokenId",
          "type": "uint256"
        }
      ],
      "name": "ownerOf",
      "outputs": [
        {
          "internalType": "address",
          "name": "",
          "type": "address"
        }
      ],
      "stateMutability": "view",
      "type": "function"
    },
    {
      "inputs": [],
      "name": "renounceOwnership",
      "outputs": [],
      "stateMutability": "nonpayable",
      "type": "function"
    },
    {
      "inputs": [
        {
          "internalType": "address",
          "name": "from",
          "type": "address"
        },
        {
          "internalType": "address",
          "name": "to",
          "type": "address"
        },
        {
          "internalType": "uint256",
          "name": "tokenId",
          "type": "uint256"
        }
      ],
      "name": "safeTransferFrom",
      "outputs": [],
      "stateMutability": "nonpayable",
      "type": "function"
    },
    {
      "inputs": [
        {
          "internalType": "address",
          "name": "from",
          "type": "address"
        },
        {
          "internalType": "address",
          "name": "to",
          "type": "address"
        },
        {
          "internalType": "uint256",
          "name": "tokenId",
          "type": "uint256"
        },
        {
          "internalType": "bytes",
          "name": "_data",
          "type": "bytes"
        }
      ],
      "name": "safeTransferFrom",
      "outputs": [],
      "stateMutability": "nonpayable",
      "type": "function"
    },
    {
      "inputs": [
        {
          "internalType": "address",
          "name": "operator",
          "type": "address"
        },
        {
          "internalType": "bool",
          "name": "approved",
          "type": "bool"
        }
      ],
      "name": "setApprovalForAll",
      "outputs": [],
      "stateMutability": "nonpayable",
      "type": "function"
    },
    {
      "inputs": [
        {
          "internalType": "bytes4",
          "name": "interfaceId",
          "type": "bytes4"
        }
      ],
      "name": "supportsInterface",
      "outputs": [
        {
          "internalType": "bool",
          "name": "",
          "type": "bool"
        }
      ],
      "stateMutability": "view",
      "type": "function"
    },
    {
      "inputs": [],
      "name": "symbol",
      "outputs": [
        {
          "internalType": "string",
          "name": "",
          "type": "string"
        }
      ],
      "stateMutability": "view",
      "type": "function"
    },
    {
      "inputs": [
        {
          "internalType": "uint256",
          "name": "tokenId",
          "type": "uint256"
        }
      ],
      "name": "tokenURI",
      "outputs": [
        {
          "internalType": "string",
          "name": "",
          "type": "string"
        }
      ],
      "stateMutability": "view",
      "type": "function"
    },
    {
      "inputs": [
        {
          "internalType": "address",
          "name": "from",
          "type": "address"
        },
        {
          "internalType": "address",
          "name": "to",
          "type": "address"
        },
        {
          "internalType": "uint256",
          "name": "tokenId",
          "type": "uint256"
        }
      ],
      "name": "transferFrom",
      "outputs": [],
      "stateMutability": "nonpayable",
      "type": "function"
    },
    {
      "inputs": [
        {
          "internalType": "address",
          "name": "newOwner",
          "type": "address"
        }
      ],
      "name": "transferOwnership",
      "outputs": [],
      "stateMutability": "nonpayable",
      "type": "function"
    },
    {
      "inputs": [
        {
          "internalType": "uint256",
          "name": "_id",
          "type": "uint256"
        },
        {
          "internalType": "uint256",
          "name": "_price",
          "type": "uint256"
        },
        {
          "internalType": "uint256",
          "name": "_qty",
          "type": "uint256"
        },
        {
          "internalType": "bool",
          "name": "_lottery",
          "type": "bool"
        }
      ],
      "name": "create",
      "outputs": [],
      "stateMutability": "nonpayable",
      "type": "function"
    },
    {
      "inputs": [
        {
          "internalType": "uint256",
          "name": "_id",
          "type": "uint256"
        },
        {
          "internalType": "string",
          "name": "_tokenUri",
          "type": "string"
        }
      ],
      "name": "buy",
      "outputs": [],
      "stateMutability": "payable",
      "type": "function"
    }
  ],
  "bytecode": "0x60806040526001600e553480156200001657600080fd5b50604080518082018252600b81527f506f6c69746963734e667400000000000000000000000000000000000000000060208083019182528351808501909452600384527f504f4c0000000000000000000000000000000000000000000000000000000000908401528151919291620000919160009162000152565b508051620000a790600190602084019062000152565b505050620000d6620000c7620000fc640100000000026401000000009004565b64010000000062000100810204565b600c8054600160a060020a03199081163317909155600d8054909116301790556200024e565b3390565b60078054600160a060020a03838116600160a060020a0319831681179093556040519116919082907f8be0079c531659141344cd1fd0a4f28419497f9722a3daafe3b4186f6b6457e090600090a35050565b8280546200016090620001f8565b90600052602060002090601f016020900481019282620001845760008555620001cf565b82601f106200019f57805160ff1916838001178555620001cf565b82800160010185558215620001cf579182015b82811115620001cf578251825591602001919060010190620001b2565b50620001dd929150620001e1565b5090565b5b80821115620001dd5760008155600101620001e2565b6002810460018216806200020d57607f821691505b6020821081141562000248577f4e487b7100000000000000000000000000000000000000000000000000000000600052602260045260246000fd5b50919050565b6121e9806200025e6000396000f3fe608060405260043610610147576000357c010000000000000000000000000000000000000000000000000000000090048063715018a6116100c8578063b7dc3b181161008c578063b7dc3b181461036c578063b88d4fde1461037f578063c87b56dd1461039f578063e985e9c5146103bf578063f2fde38b14610408578063f6b4dfb41461042857600080fd5b8063715018a6146102e45780638da5cb5b146102f95780638f84aa091461031757806395d89b4114610337578063a22cb4651461034c57600080fd5b8063150b7a021161010f578063150b7a021461021d57806323b872dd1461025657806342842e0e146102765780636352211e1461029657806370a08231146102b657600080fd5b806301ffc9a71461014c57806306fdde0314610181578063081812fc146101a3578063095ea7b3146101db5780630b2ee7e9146101fd575b600080fd5b34801561015857600080fd5b5061016c610167366004611da1565b610448565b60405190151581526020015b60405180910390f35b34801561018d57600080fd5b506101966104e5565b6040516101789190611f25565b3480156101af57600080fd5b506101c36101be366004611ddb565b610577565b604051600160a060020a039091168152602001610178565b3480156101e757600080fd5b506101fb6101f6366004611d77565b610618565b005b34801561020957600080fd5b506101fb610218366004611e4f565b610750565b34801561022957600080fd5b5061023d610238366004611cd1565b610899565b604051600160e060020a03199091168152602001610178565b34801561026257600080fd5b506101fb610271366004611c95565b6108c3565b34801561028257600080fd5b506101fb610291366004611c95565b6108f7565b3480156102a257600080fd5b506101c36102b1366004611ddb565b610912565b3480156102c257600080fd5b506102d66102d1366004611c47565b6109a0565b604051908152602001610178565b3480156102f057600080fd5b506101fb610a3d565b34801561030557600080fd5b50600754600160a060020a03166101c3565b34801561032357600080fd5b50600c546101c390600160a060020a031681565b34801561034357600080fd5b50610196610a76565b34801561035857600080fd5b506101fb610367366004611d4d565b610a85565b6101fb61037a366004611df4565b610b4d565b34801561038b57600080fd5b506101fb61039a366004611cd1565b610ee4565b3480156103ab57600080fd5b506101966103ba366004611ddb565b610f1f565b3480156103cb57600080fd5b5061016c6103da366004611c62565b600160a060020a03918216600090815260056020908152604080832093909416825291909152205460ff1690565b34801561041457600080fd5b506101fb610423366004611c47565b61109d565b34801561043457600080fd5b50600d546101c390600160a060020a031681565b6000600160e060020a031982167f80ac58cd0000000000000000000000000000000000000000000000000000000014806104ab5750600160e060020a031982167f5b5e139f00000000000000000000000000000000000000000000000000000000145b806104df57507f01ffc9a700000000000000000000000000000000000000000000000000000000600160e060020a03198316145b92915050565b6060600080546104f4906120cc565b80601f0160208091040260200160405190810160405280929190818152602001828054610520906120cc565b801561056d5780601f106105425761010080835404028352916020019161056d565b820191906000526020600020905b81548152906001019060200180831161055057829003601f168201915b5050505050905090565b600061058282611155565b6105fc5760405160e560020a62461bcd02815260206004820152602c60248201527f4552433732313a20617070726f76656420717565727920666f72206e6f6e657860448201527f697374656e7420746f6b656e000000000000000000000000000000000000000060648201526084015b60405180910390fd5b50600090815260046020526040902054600160a060020a031690565b600061062382610912565b905080600160a060020a031683600160a060020a031614156106b05760405160e560020a62461bcd02815260206004820152602160248201527f4552433732313a20617070726f76616c20746f2063757272656e74206f776e6560448201527f720000000000000000000000000000000000000000000000000000000000000060648201526084016105f3565b33600160a060020a03821614806106cc57506106cc81336103da565b6107415760405160e560020a62461bcd02815260206004820152603860248201527f4552433732313a20617070726f76652063616c6c6572206973206e6f74206f7760448201527f6e6572206e6f7220617070726f76656420666f7220616c6c000000000000000060648201526084016105f3565b61074b8383611172565b505050565b600754600160a060020a0316331461077d5760405160e560020a62461bcd0281526004016105f390611f95565b600084815260086020526040902060020154610100900460ff16156107e75760405160e560020a62461bcd02815260206004820152601160248201527f696420616c726561647920696e2075736500000000000000000000000000000060448201526064016105f3565b60408051608081018252858152602080820186815284151583850190815260016060850181815260008b8152600a86528781208a9055600890955293869020855181559251908301555160029091018054925115156101000261ff00199215159290921661ffff199093169290921717905590517ff00c522f13522af224c59f918a8375598b0362237c9cc8b4edb44f599cf0f3d69061088a9087815260200190565b60405180910390a15050505050565b7f150b7a02000000000000000000000000000000000000000000000000000000005b949350505050565b6108cd33826111ed565b6108ec5760405160e560020a62461bcd0281526004016105f390611fca565b61074b8383836112e7565b61074b83838360405180602001604052806000815250610ee4565b600081815260026020526040812054600160a060020a0316806104df5760405160e560020a62461bcd02815260206004820152602960248201527f4552433732313a206f776e657220717565727920666f72206e6f6e657869737460448201527f656e7420746f6b656e000000000000000000000000000000000000000000000060648201526084016105f3565b6000600160a060020a038216610a215760405160e560020a62461bcd02815260206004820152602a60248201527f4552433732313a2062616c616e636520717565727920666f7220746865207a6560448201527f726f20616464726573730000000000000000000000000000000000000000000060648201526084016105f3565b50600160a060020a031660009081526003602052604090205490565b600754600160a060020a03163314610a6a5760405160e560020a62461bcd0281526004016105f390611f95565b610a7460006114c7565b565b6060600180546104f4906120cc565b600160a060020a038216331415610ae15760405160e560020a62461bcd02815260206004820152601960248201527f4552433732313a20617070726f766520746f2063616c6c65720000000000000060448201526064016105f3565b336000818152600560209081526040808320600160a060020a03871680855290835292819020805460ff191686151590811790915590519081529192917f17307eab39ab6107e8899845ad3d59bd9653f200f220920489ca2b5937696c31910160405180910390a35050565b600082815260086020526040902060020154610100900460ff16610bb65760405160e560020a62461bcd02815260206004820152601160248201527f506f6c69746963206e6f7420666f756e6400000000000000000000000000000060448201526064016105f3565b60008281526008602052604090206002015460ff1615610c415760405160e560020a62461bcd02815260206004820152602360248201527f506f6c69746963206f6e6c7920617661696c61626c652077697468206c6f747460448201527f657279000000000000000000000000000000000000000000000000000000000060648201526084016105f3565b6000828152600a6020526040902054610cc55760405160e560020a62461bcd02815260206004820152602260248201527f5468657265206973206e6f206d6f726520706f6c6974696320617661696c616260448201527f6c6500000000000000000000000000000000000000000000000000000000000060648201526084016105f3565b6000828152600860205260409020600101546103e890610ced90670de0b6b3a7640000612053565b610cf7919061203f565b3414610d485760405160e560020a62461bcd02815260206004820152601060248201527f496e636f727265637420616d6f756e740000000000000000000000000000000060448201526064016105f3565b6000828152600a60205260408120805491610d62836120b5565b9091555050600e5460408051602080820193909352336c0100000000000000000000000002818301528151603481830301815260549091019091528051910120600090610db5906402540be40090612125565b600e80549192506000610dc78361210a565b9091555050600c54604051600160a060020a03909116903480156108fc02916000818181858888f19350505050158015610e05573d6000803e3d6000fd5b50610e103382611526565b610e1a8183611544565b604080516060810182528281526020808201868152338385018181526000828152600985528681208054600180820183559183528683208851600390920201908155945190850155905160029093018054600160a060020a0390941673ffffffffffffffffffffffffffffffffffffffff19948516179055868152600b845285902080549092168117909155835190815290810184905290917f0f1f73114dcf85af6f6506a86f3b42cdc8af0e4d37ca5130270465cd9c358223910160405180910390a150505050565b610eee33836111ed565b610f0d5760405160e560020a62461bcd0281526004016105f390611fca565b610f19848484846115e1565b50505050565b6060610f2a82611155565b610f9f5760405160e560020a62461bcd02815260206004820152603160248201527f45524337323155524953746f726167653a2055524920717565727920666f722060448201527f6e6f6e6578697374656e7420746f6b656e00000000000000000000000000000060648201526084016105f3565b60008281526006602052604081208054610fb8906120cc565b80601f0160208091040260200160405190810160405280929190818152602001828054610fe4906120cc565b80156110315780601f1061100657610100808354040283529160200191611031565b820191906000526020600020905b81548152906001019060200180831161101457829003601f168201915b50505050509050600061104f60408051602081019091526000815290565b9050805160001415611062575092915050565b81511561109457808260405160200161107c929190611eba565b60405160208183030381529060405292505050919050565b6108bb84611617565b600754600160a060020a031633146110ca5760405160e560020a62461bcd0281526004016105f390611f95565b600160a060020a0381166111495760405160e560020a62461bcd02815260206004820152602660248201527f4f776e61626c653a206e6577206f776e657220697320746865207a65726f206160448201527f646472657373000000000000000000000000000000000000000000000000000060648201526084016105f3565b611152816114c7565b50565b600090815260026020526040902054600160a060020a0316151590565b6000818152600460205260409020805473ffffffffffffffffffffffffffffffffffffffff1916600160a060020a03841690811790915581906111b482610912565b600160a060020a03167f8c5be1e5ebec7d5bd14f71427d1e84f3dd0314c0f7b2291e5b200ac8c7c3b92560405160405180910390a45050565b60006111f882611155565b61126d5760405160e560020a62461bcd02815260206004820152602c60248201527f4552433732313a206f70657261746f7220717565727920666f72206e6f6e657860448201527f697374656e7420746f6b656e000000000000000000000000000000000000000060648201526084016105f3565b600061127883610912565b905080600160a060020a031684600160a060020a031614806112b3575083600160a060020a03166112a884610577565b600160a060020a0316145b806108bb5750600160a060020a0380821660009081526005602090815260408083209388168352929052205460ff166108bb565b82600160a060020a03166112fa82610912565b600160a060020a0316146113795760405160e560020a62461bcd02815260206004820152602960248201527f4552433732313a207472616e73666572206f6620746f6b656e2074686174206960448201527f73206e6f74206f776e000000000000000000000000000000000000000000000060648201526084016105f3565b600160a060020a0382166113f75760405160e560020a62461bcd028152602060048201526024808201527f4552433732313a207472616e7366657220746f20746865207a65726f2061646460448201527f726573730000000000000000000000000000000000000000000000000000000060648201526084016105f3565b611402600082611172565b600160a060020a038316600090815260036020526040812080546001929061142b908490612072565b9091555050600160a060020a0382166000908152600360205260408120805460019290611459908490612027565b9091555050600081815260026020526040808220805473ffffffffffffffffffffffffffffffffffffffff1916600160a060020a0386811691821790925591518493918716917fddf252ad1be2c89b69c2b068fc378daa952ba7f163c4a11628f55a4df523b3ef91a4505050565b60078054600160a060020a0383811673ffffffffffffffffffffffffffffffffffffffff19831681179093556040519116919082907f8be0079c531659141344cd1fd0a4f28419497f9722a3daafe3b4186f6b6457e090600090a35050565b611540828260405180602001604052806000815250611700565b5050565b61154d82611155565b6115c25760405160e560020a62461bcd02815260206004820152602e60248201527f45524337323155524953746f726167653a2055524920736574206f66206e6f6e60448201527f6578697374656e7420746f6b656e00000000000000000000000000000000000060648201526084016105f3565b6000828152600660209081526040909120825161074b92840190611b0c565b6115ec8484846112e7565b6115f884848484611736565b610f195760405160e560020a62461bcd0281526004016105f390611f38565b606061162282611155565b6116975760405160e560020a62461bcd02815260206004820152602f60248201527f4552433732314d657461646174613a2055524920717565727920666f72206e6f60448201527f6e6578697374656e7420746f6b656e000000000000000000000000000000000060648201526084016105f3565b60006116ae60408051602081019091526000815290565b905060008151116116ce57604051806020016040528060008152506116f9565b806116d884611875565b6040516020016116e9929190611eba565b6040516020818303038152906040525b9392505050565b61170a83836119c6565b6117176000848484611736565b61074b5760405160e560020a62461bcd0281526004016105f390611f38565b6000600160a060020a0384163b1561186d576040517f150b7a02000000000000000000000000000000000000000000000000000000008152600160a060020a0385169063150b7a0290611793903390899088908890600401611ee9565b602060405180830381600087803b1580156117ad57600080fd5b505af19250505080156117dd575060408051601f3d908101601f191682019092526117da91810190611dbe565b60015b61183a573d80801561180b576040519150601f19603f3d011682016040523d82523d6000602084013e611810565b606091505b5080516118325760405160e560020a62461bcd0281526004016105f390611f38565b805181602001fd5b600160e060020a0319167f150b7a02000000000000000000000000000000000000000000000000000000001490506108bb565b5060016108bb565b6060816118b557505060408051808201909152600181527f3000000000000000000000000000000000000000000000000000000000000000602082015290565b8160005b81156118df57806118c98161210a565b91506118d89050600a8361203f565b91506118b9565b60008167ffffffffffffffff8111156118fa576118fa612184565b6040519080825280601f01601f191660200182016040528015611924576020820181803683370190505b5090505b84156108bb57611939600183612072565b9150611946600a86612125565b611951906030612027565b7f0100000000000000000000000000000000000000000000000000000000000000028183815181106119855761198561216b565b60200101907effffffffffffffffffffffffffffffffffffffffffffffffffffffffffffff1916908160001a9053506119bf600a8661203f565b9450611928565b600160a060020a038216611a1f5760405160e560020a62461bcd02815260206004820181905260248201527f4552433732313a206d696e7420746f20746865207a65726f206164647265737360448201526064016105f3565b611a2881611155565b15611a785760405160e560020a62461bcd02815260206004820152601c60248201527f4552433732313a20746f6b656e20616c7265616479206d696e7465640000000060448201526064016105f3565b600160a060020a0382166000908152600360205260408120805460019290611aa1908490612027565b9091555050600081815260026020526040808220805473ffffffffffffffffffffffffffffffffffffffff1916600160a060020a03861690811790915590518392907fddf252ad1be2c89b69c2b068fc378daa952ba7f163c4a11628f55a4df523b3ef908290a45050565b828054611b18906120cc565b90600052602060002090601f016020900481019282611b3a5760008555611b80565b82601f10611b5357805160ff1916838001178555611b80565b82800160010185558215611b80579182015b82811115611b80578251825591602001919060010190611b65565b50611b8c929150611b90565b5090565b5b80821115611b8c5760008155600101611b91565b600067ffffffffffffffff80841115611bc057611bc0612184565b604051601f8501601f19908116603f01168101908282118183101715611be857611be8612184565b81604052809350858152868686011115611c0157600080fd5b858560208301376000602087830101525050509392505050565b8035600160a060020a0381168114611c3257600080fd5b919050565b80358015158114611c3257600080fd5b600060208284031215611c5957600080fd5b6116f982611c1b565b60008060408385031215611c7557600080fd5b611c7e83611c1b565b9150611c8c60208401611c1b565b90509250929050565b600080600060608486031215611caa57600080fd5b611cb384611c1b565b9250611cc160208501611c1b565b9150604084013590509250925092565b60008060008060808587031215611ce757600080fd5b611cf085611c1b565b9350611cfe60208601611c1b565b925060408501359150606085013567ffffffffffffffff811115611d2157600080fd5b8501601f81018713611d3257600080fd5b611d4187823560208401611ba5565b91505092959194509250565b60008060408385031215611d6057600080fd5b611d6983611c1b565b9150611c8c60208401611c37565b60008060408385031215611d8a57600080fd5b611d9383611c1b565b946020939093013593505050565b600060208284031215611db357600080fd5b81356116f98161219d565b600060208284031215611dd057600080fd5b81516116f98161219d565b600060208284031215611ded57600080fd5b5035919050565b60008060408385031215611e0757600080fd5b82359150602083013567ffffffffffffffff811115611e2557600080fd5b8301601f81018513611e3657600080fd5b611e4585823560208401611ba5565b9150509250929050565b60008060008060808587031215611e6557600080fd5b843593506020850135925060408501359150611e8360608601611c37565b905092959194509250565b60008151808452611ea6816020860160208601612089565b601f01601f19169290920160200192915050565b60008351611ecc818460208801612089565b835190830190611ee0818360208801612089565b01949350505050565b6000600160a060020a03808716835280861660208401525083604083015260806060830152611f1b6080830184611e8e565b9695505050505050565b6020815260006116f96020830184611e8e565b60208082526032908201527f4552433732313a207472616e7366657220746f206e6f6e20455243373231526560408201527f63656976657220696d706c656d656e7465720000000000000000000000000000606082015260800190565b6020808252818101527f4f776e61626c653a2063616c6c6572206973206e6f7420746865206f776e6572604082015260600190565b60208082526031908201527f4552433732313a207472616e736665722063616c6c6572206973206e6f74206f60408201527f776e6572206e6f7220617070726f766564000000000000000000000000000000606082015260800190565b6000821982111561203a5761203a612139565b500190565b60008261204e5761204e612152565b500490565b600081600019048311821515161561206d5761206d612139565b500290565b60008282101561208457612084612139565b500390565b60005b838110156120a457818101518382015260200161208c565b83811115610f195750506000910152565b6000816120c4576120c4612139565b506000190190565b6002810460018216806120e057607f821691505b602082108114156121045760e060020a634e487b7102600052602260045260246000fd5b50919050565b600060001982141561211e5761211e612139565b5060010190565b60008261213457612134612152565b500690565b60e060020a634e487b7102600052601160045260246000fd5b60e060020a634e487b7102600052601260045260246000fd5b60e060020a634e487b7102600052603260045260246000fd5b60e060020a634e487b7102600052604160045260246000fd5b600160e060020a03198116811461115257600080fdfea26469706673582212200926a4775af8ced04e6eac9dfc487df4be574fad3065f04087bb756971384a3264736f6c63430008070033",
  "immutableReferences": {},
  "source": "// SPDX-License-Identifier: MIT\n\npragma solidity ^0.8.0;\n\nimport \"@openzeppelin/contracts/token/ERC721/extensions/ERC721URIStorage.sol\";\nimport \"@openzeppelin/contracts/token/ERC721/utils/ERC721Holder.sol\";\nimport \"@openzeppelin/contracts/access/Ownable.sol\";\n\n/**\n* @title ERC721 collectible base methods\n* @author Youness Chetoui\n*/\ncontract Collectible is ERC721URIStorage, ERC721Holder, Ownable {\n    struct PoliticsAvailable {\n        uint256 id;\n        uint256 price;\n        bool lottery;\n        bool created;\n    }\n\n    struct PoliticsOwned {\n        uint256 id;\n        uint256 id_politic;\n        address owner;\n    }\n\n    mapping(uint256 => PoliticsAvailable) internal politicsAvailable;\n    mapping(address => PoliticsOwned[]) internal userOwnedPolitics;\n    mapping(uint256 => uint256) internal politicsAvailableQty;\n    mapping(uint256 => address) internal politicToUser;\n\n    address payable public ownerAddress;\n    address payable public contractAddress;\n\n    uint256 internal tokenCounter = 1;\n\n    event CreatePolitician(uint256 id);\n    event PoliticianBuy(address owner, uint256 id);\n\n    constructor() ERC721(\"PoliticsNft\", \"POL\") {\n        ownerAddress = payable(msg.sender);\n        contractAddress = payable(address(this));\n    }\n\n    /**\n    * @notice Create politician\n    * @param _id, _qty, _price and _lottery of politician available\n    */\n    function create(\n        uint256 _id,\n        uint256 _price,\n        uint256 _qty,\n        bool _lottery\n    )\n        public onlyOwner {\n        require(!politicsAvailable[_id].created, \"id already in use\");\n\n        PoliticsAvailable memory politic =\n            PoliticsAvailable({id: _id, price: _price, lottery: _lottery, created: true});\n        politicsAvailableQty[_id] = _qty;\n        politicsAvailable[_id] = politic;\n\n        emit CreatePolitician(_id);\n    }\n\n    /**\n    * @notice Buy politician\n    * @param _id, _tokenUri of politician available\n    */\n    function buy(uint256 _id, string memory _tokenUri) external payable {\n        require(politicsAvailable[_id].created, \"Politic not found\");\n        require(!politicsAvailable[_id].lottery, \"Politic only available with lottery\");\n        require(politicsAvailableQty[_id] > 0, \"There is no more politic available\");\n        require(msg.value == ((politicsAvailable[_id].price * 10**18) / 1000), \"Incorrect amount\");\n\n        politicsAvailableQty[_id]--;\n\n        uint256 id = uint256(keccak256(abi.encodePacked(tokenCounter, msg.sender))) % 10000000000;\n        tokenCounter++;\n\n        ownerAddress.transfer(msg.value);\n        _safeMint(msg.sender, id);\n        _setTokenURI(id, _tokenUri);\n\n        PoliticsOwned memory politicOwned =\n            PoliticsOwned({id: id, id_politic: _id, owner: msg.sender});\n\n        userOwnedPolitics[msg.sender].push(politicOwned);\n        politicToUser[id] = msg.sender;\n\n        emit PoliticianBuy(msg.sender, id);\n    }\n}\n",
  "sourcePath": "/home/youness/Crypto/PoliticsCollectible/contracts/Collectible.sol",
  "compiler": {
    "name": "solc",
    "version": "0.8.7+commit.e28d00a7.Emscripten.clang"
  },
  "schemaVersion": "3.4.3",
  "updatedAt": "2021-09-03T11:54:16.166Z",
  "devdoc": {
    "author": "Youness Chetoui",
    "kind": "dev",
    "methods": {
      "approve(address,uint256)": {
        "details": "See {IERC721-approve}."
      },
      "balanceOf(address)": {
        "details": "See {IERC721-balanceOf}."
      },
      "buy(uint256,string)": {
        "params": {
          "_id": ", _tokenUri of politician available"
        }
      },
      "create(uint256,uint256,uint256,bool)": {
        "params": {
          "_id": ", _qty, _price and _lottery of politician available"
        }
      },
      "getApproved(uint256)": {
        "details": "See {IERC721-getApproved}."
      },
      "isApprovedForAll(address,address)": {
        "details": "See {IERC721-isApprovedForAll}."
      },
      "name()": {
        "details": "See {IERC721Metadata-name}."
      },
      "onERC721Received(address,address,uint256,bytes)": {
        "details": "See {IERC721Receiver-onERC721Received}. Always returns `IERC721Receiver.onERC721Received.selector`."
      },
      "owner()": {
        "details": "Returns the address of the current owner."
      },
      "ownerOf(uint256)": {
        "details": "See {IERC721-ownerOf}."
      },
      "renounceOwnership()": {
        "details": "Leaves the contract without owner. It will not be possible to call `onlyOwner` functions anymore. Can only be called by the current owner. NOTE: Renouncing ownership will leave the contract without an owner, thereby removing any functionality that is only available to the owner."
      },
      "safeTransferFrom(address,address,uint256)": {
        "details": "See {IERC721-safeTransferFrom}."
      },
      "safeTransferFrom(address,address,uint256,bytes)": {
        "details": "See {IERC721-safeTransferFrom}."
      },
      "setApprovalForAll(address,bool)": {
        "details": "See {IERC721-setApprovalForAll}."
      },
      "supportsInterface(bytes4)": {
        "details": "See {IERC165-supportsInterface}."
      },
      "symbol()": {
        "details": "See {IERC721Metadata-symbol}."
      },
      "tokenURI(uint256)": {
        "details": "See {IERC721Metadata-tokenURI}."
      },
      "transferFrom(address,address,uint256)": {
        "details": "See {IERC721-transferFrom}."
      },
      "transferOwnership(address)": {
        "details": "Transfers ownership of the contract to a new account (`newOwner`). Can only be called by the current owner."
      }
    },
    "title": "ERC721 collectible base methods",
    "version": 1
  },
  "userdoc": {
    "kind": "user",
    "methods": {
      "buy(uint256,string)": {
        "notice": "Buy politician"
      },
      "create(uint256,uint256,uint256,bool)": {
        "notice": "Create politician"
      }
    },
    "version": 1
  }
}