{
  "contractName": "Collectible",
  "abi": [
    {
      "inputs": [],
      "stateMutability": "nonpayable",
      "type": "constructor"
    },
    {
      "anonymous": false,
      "inputs": [
        {
          "indexed": true,
          "internalType": "address",
          "name": "owner",
          "type": "address"
        },
        {
          "indexed": true,
          "internalType": "address",
          "name": "approved",
          "type": "address"
        },
        {
          "indexed": true,
          "internalType": "uint256",
          "name": "tokenId",
          "type": "uint256"
        }
      ],
      "name": "Approval",
      "type": "event"
    },
    {
      "anonymous": false,
      "inputs": [
        {
          "indexed": true,
          "internalType": "address",
          "name": "owner",
          "type": "address"
        },
        {
          "indexed": true,
          "internalType": "address",
          "name": "operator",
          "type": "address"
        },
        {
          "indexed": false,
          "internalType": "bool",
          "name": "approved",
          "type": "bool"
        }
      ],
      "name": "ApprovalForAll",
      "type": "event"
    },
    {
      "anonymous": false,
      "inputs": [
        {
          "indexed": true,
          "internalType": "address",
          "name": "previousOwner",
          "type": "address"
        },
        {
          "indexed": true,
          "internalType": "address",
          "name": "newOwner",
          "type": "address"
        }
      ],
      "name": "OwnershipTransferred",
      "type": "event"
    },
    {
      "anonymous": false,
      "inputs": [
        {
          "indexed": true,
          "internalType": "address",
          "name": "from",
          "type": "address"
        },
        {
          "indexed": true,
          "internalType": "address",
          "name": "to",
          "type": "address"
        },
        {
          "indexed": true,
          "internalType": "uint256",
          "name": "tokenId",
          "type": "uint256"
        }
      ],
      "name": "Transfer",
      "type": "event"
    },
    {
      "inputs": [
        {
          "internalType": "address",
          "name": "to",
          "type": "address"
        },
        {
          "internalType": "uint256",
          "name": "tokenId",
          "type": "uint256"
        }
      ],
      "name": "approve",
      "outputs": [],
      "stateMutability": "nonpayable",
      "type": "function"
    },
    {
      "inputs": [
        {
          "internalType": "address",
          "name": "owner",
          "type": "address"
        }
      ],
      "name": "balanceOf",
      "outputs": [
        {
          "internalType": "uint256",
          "name": "",
          "type": "uint256"
        }
      ],
      "stateMutability": "view",
      "type": "function"
    },
    {
      "inputs": [],
      "name": "contractAddress",
      "outputs": [
        {
          "internalType": "address payable",
          "name": "",
          "type": "address"
        }
      ],
      "stateMutability": "view",
      "type": "function"
    },
    {
      "inputs": [
        {
          "internalType": "uint256",
          "name": "tokenId",
          "type": "uint256"
        }
      ],
      "name": "getApproved",
      "outputs": [
        {
          "internalType": "address",
          "name": "",
          "type": "address"
        }
      ],
      "stateMutability": "view",
      "type": "function"
    },
    {
      "inputs": [
        {
          "internalType": "address",
          "name": "owner",
          "type": "address"
        },
        {
          "internalType": "address",
          "name": "operator",
          "type": "address"
        }
      ],
      "name": "isApprovedForAll",
      "outputs": [
        {
          "internalType": "bool",
          "name": "",
          "type": "bool"
        }
      ],
      "stateMutability": "view",
      "type": "function"
    },
    {
      "inputs": [],
      "name": "name",
      "outputs": [
        {
          "internalType": "string",
          "name": "",
          "type": "string"
        }
      ],
      "stateMutability": "view",
      "type": "function"
    },
    {
      "inputs": [
        {
          "internalType": "address",
          "name": "",
          "type": "address"
        },
        {
          "internalType": "address",
          "name": "",
          "type": "address"
        },
        {
          "internalType": "uint256",
          "name": "",
          "type": "uint256"
        },
        {
          "internalType": "bytes",
          "name": "",
          "type": "bytes"
        }
      ],
      "name": "onERC721Received",
      "outputs": [
        {
          "internalType": "bytes4",
          "name": "",
          "type": "bytes4"
        }
      ],
      "stateMutability": "nonpayable",
      "type": "function"
    },
    {
      "inputs": [],
      "name": "owner",
      "outputs": [
        {
          "internalType": "address",
          "name": "",
          "type": "address"
        }
      ],
      "stateMutability": "view",
      "type": "function"
    },
    {
      "inputs": [],
      "name": "ownerAddress",
      "outputs": [
        {
          "internalType": "address payable",
          "name": "",
          "type": "address"
        }
      ],
      "stateMutability": "view",
      "type": "function"
    },
    {
      "inputs": [
        {
          "internalType": "uint256",
          "name": "tokenId",
          "type": "uint256"
        }
      ],
      "name": "ownerOf",
      "outputs": [
        {
          "internalType": "address",
          "name": "",
          "type": "address"
        }
      ],
      "stateMutability": "view",
      "type": "function"
    },
    {
      "inputs": [],
      "name": "renounceOwnership",
      "outputs": [],
      "stateMutability": "nonpayable",
      "type": "function"
    },
    {
      "inputs": [
        {
          "internalType": "address",
          "name": "operator",
          "type": "address"
        },
        {
          "internalType": "bool",
          "name": "approved",
          "type": "bool"
        }
      ],
      "name": "setApprovalForAll",
      "outputs": [],
      "stateMutability": "nonpayable",
      "type": "function"
    },
    {
      "inputs": [
        {
          "internalType": "bytes4",
          "name": "interfaceId",
          "type": "bytes4"
        }
      ],
      "name": "supportsInterface",
      "outputs": [
        {
          "internalType": "bool",
          "name": "",
          "type": "bool"
        }
      ],
      "stateMutability": "view",
      "type": "function"
    },
    {
      "inputs": [],
      "name": "symbol",
      "outputs": [
        {
          "internalType": "string",
          "name": "",
          "type": "string"
        }
      ],
      "stateMutability": "view",
      "type": "function"
    },
    {
      "inputs": [
        {
          "internalType": "uint256",
          "name": "tokenId",
          "type": "uint256"
        }
      ],
      "name": "tokenURI",
      "outputs": [
        {
          "internalType": "string",
          "name": "",
          "type": "string"
        }
      ],
      "stateMutability": "view",
      "type": "function"
    },
    {
      "inputs": [
        {
          "internalType": "address",
          "name": "newOwner",
          "type": "address"
        }
      ],
      "name": "transferOwnership",
      "outputs": [],
      "stateMutability": "nonpayable",
      "type": "function"
    },
    {
      "inputs": [
        {
          "internalType": "uint256",
          "name": "_id",
          "type": "uint256"
        }
      ],
      "name": "getPolitic",
      "outputs": [
        {
          "components": [
            {
              "internalType": "uint256",
              "name": "id",
              "type": "uint256"
            },
            {
              "internalType": "uint256",
              "name": "qty",
              "type": "uint256"
            },
            {
              "internalType": "uint256",
              "name": "level",
              "type": "uint256"
            },
            {
              "internalType": "uint256",
              "name": "price",
              "type": "uint256"
            },
            {
              "internalType": "string",
              "name": "name",
              "type": "string"
            },
            {
              "internalType": "bool",
              "name": "lottery",
              "type": "bool"
            },
            {
              "internalType": "bool",
              "name": "created",
              "type": "bool"
            }
          ],
          "internalType": "struct Collectible.PoliticsAvailable",
          "name": "",
          "type": "tuple"
        }
      ],
      "stateMutability": "view",
      "type": "function"
    },
    {
      "inputs": [],
      "name": "getPolitics",
      "outputs": [
        {
          "components": [
            {
              "internalType": "uint256",
              "name": "id",
              "type": "uint256"
            },
            {
              "internalType": "uint256",
              "name": "qty",
              "type": "uint256"
            },
            {
              "internalType": "uint256",
              "name": "level",
              "type": "uint256"
            },
            {
              "internalType": "uint256",
              "name": "price",
              "type": "uint256"
            },
            {
              "internalType": "string",
              "name": "name",
              "type": "string"
            },
            {
              "internalType": "bool",
              "name": "lottery",
              "type": "bool"
            },
            {
              "internalType": "bool",
              "name": "created",
              "type": "bool"
            }
          ],
          "internalType": "struct Collectible.PoliticsAvailable[]",
          "name": "",
          "type": "tuple[]"
        }
      ],
      "stateMutability": "view",
      "type": "function"
    },
    {
      "inputs": [],
      "name": "getMyPolitics",
      "outputs": [
        {
          "components": [
            {
              "internalType": "uint256",
              "name": "id",
              "type": "uint256"
            },
            {
              "internalType": "uint256",
              "name": "id_politic",
              "type": "uint256"
            },
            {
              "internalType": "address",
              "name": "owner",
              "type": "address"
            }
          ],
          "internalType": "struct Collectible.PoliticsOwned[]",
          "name": "",
          "type": "tuple[]"
        }
      ],
      "stateMutability": "view",
      "type": "function"
    },
    {
      "inputs": [
        {
          "internalType": "string",
          "name": "_name",
          "type": "string"
        },
        {
          "internalType": "uint256",
          "name": "_id",
          "type": "uint256"
        },
        {
          "internalType": "uint256",
          "name": "_qty",
          "type": "uint256"
        },
        {
          "internalType": "uint256",
          "name": "_level",
          "type": "uint256"
        },
        {
          "internalType": "uint256",
          "name": "_price",
          "type": "uint256"
        },
        {
          "internalType": "bool",
          "name": "_lottery",
          "type": "bool"
        }
      ],
      "name": "create",
      "outputs": [
        {
          "components": [
            {
              "internalType": "uint256",
              "name": "id",
              "type": "uint256"
            },
            {
              "internalType": "uint256",
              "name": "qty",
              "type": "uint256"
            },
            {
              "internalType": "uint256",
              "name": "level",
              "type": "uint256"
            },
            {
              "internalType": "uint256",
              "name": "price",
              "type": "uint256"
            },
            {
              "internalType": "string",
              "name": "name",
              "type": "string"
            },
            {
              "internalType": "bool",
              "name": "lottery",
              "type": "bool"
            },
            {
              "internalType": "bool",
              "name": "created",
              "type": "bool"
            }
          ],
          "internalType": "struct Collectible.PoliticsAvailable",
          "name": "",
          "type": "tuple"
        }
      ],
      "stateMutability": "nonpayable",
      "type": "function"
    },
    {
      "inputs": [
        {
          "internalType": "uint256",
          "name": "_id",
          "type": "uint256"
        },
        {
          "internalType": "uint256",
          "name": "_qty",
          "type": "uint256"
        }
      ],
      "name": "addQty",
      "outputs": [],
      "stateMutability": "nonpayable",
      "type": "function"
    },
    {
      "inputs": [
        {
          "internalType": "uint256",
          "name": "_id",
          "type": "uint256"
        }
      ],
      "name": "buy",
      "outputs": [],
      "stateMutability": "payable",
      "type": "function"
    },
    {
      "inputs": [
        {
          "internalType": "address",
          "name": "from",
          "type": "address"
        },
        {
          "internalType": "address",
          "name": "to",
          "type": "address"
        },
        {
          "internalType": "uint256",
          "name": "tokenId",
          "type": "uint256"
        }
      ],
      "name": "transferFrom",
      "outputs": [],
      "stateMutability": "nonpayable",
      "type": "function"
    },
    {
      "inputs": [
        {
          "internalType": "address",
          "name": "from",
          "type": "address"
        },
        {
          "internalType": "address",
          "name": "to",
          "type": "address"
        },
        {
          "internalType": "uint256",
          "name": "tokenId",
          "type": "uint256"
        }
      ],
      "name": "safeTransferFrom",
      "outputs": [],
      "stateMutability": "nonpayable",
      "type": "function"
    },
    {
      "inputs": [
        {
          "internalType": "address",
          "name": "from",
          "type": "address"
        },
        {
          "internalType": "address",
          "name": "to",
          "type": "address"
        },
        {
          "internalType": "uint256",
          "name": "tokenId",
          "type": "uint256"
        },
        {
          "internalType": "bytes",
          "name": "_data",
          "type": "bytes"
        }
      ],
      "name": "safeTransferFrom",
      "outputs": [],
      "stateMutability": "nonpayable",
      "type": "function"
    }
  ],
  "bytecode": "0x60806040526001600d553480156200001657600080fd5b506040518060400160405280600b81526020017f506f6c69746963734e66740000000000000000000000000000000000000000008152506040518060400160405280600381526020017f504f4c000000000000000000000000000000000000000000000000000000000081525081600090805190602001906200009b9291906200022d565b508060019080519060200190620000b49291906200022d565b505050620000d7620000cb6200015f60201b60201c565b6200016760201b60201c565b33600b60006101000a81548173ffffffffffffffffffffffffffffffffffffffff021916908373ffffffffffffffffffffffffffffffffffffffff16021790555030600c60006101000a81548173ffffffffffffffffffffffffffffffffffffffff021916908373ffffffffffffffffffffffffffffffffffffffff16021790555062000342565b600033905090565b6000600660009054906101000a900473ffffffffffffffffffffffffffffffffffffffff16905081600660006101000a81548173ffffffffffffffffffffffffffffffffffffffff021916908373ffffffffffffffffffffffffffffffffffffffff1602179055508173ffffffffffffffffffffffffffffffffffffffff168173ffffffffffffffffffffffffffffffffffffffff167f8be0079c531659141344cd1fd0a4f28419497f9722a3daafe3b4186f6b6457e060405160405180910390a35050565b8280546200023b90620002dd565b90600052602060002090601f0160209004810192826200025f5760008555620002ab565b82601f106200027a57805160ff1916838001178555620002ab565b82800160010185558215620002ab579182015b82811115620002aa5782518255916020019190600101906200028d565b5b509050620002ba9190620002be565b5090565b5b80821115620002d9576000816000905550600101620002bf565b5090565b60006002820490506001821680620002f657607f821691505b602082108114156200030d576200030c62000313565b5b50919050565b7f4e487b7100000000000000000000000000000000000000000000000000000000600052602260045260246000fd5b614ce580620003526000396000f3fe6080604052600436106101665760003560e01c8063715018a6116100d1578063b88d4fde1161008a578063d96a094a11610064578063d96a094a14610562578063e985e9c51461057e578063f2fde38b146105bb578063f6b4dfb4146105e457610166565b8063b88d4fde146104d3578063b9db1c98146104fc578063c87b56dd1461052557610166565b8063715018a6146103e757806385d33436146103fe5780638da5cb5b146104295780638f84aa091461045457806395d89b411461047f578063a22cb465146104aa57610166565b806323b872dd1161012357806323b872dd146102b357806330f105cd146102dc57806342842e0e146103075780635ad16b7f146103305780636352211e1461036d57806370a08231146103aa57610166565b806301ffc9a71461016b57806306fdde03146101a8578063081812fc146101d3578063095ea7b3146102105780631114327714610239578063150b7a0214610276575b600080fd5b34801561017757600080fd5b50610192600480360381019061018d91906134d1565b61060f565b60405161019f9190613e31565b60405180910390f35b3480156101b457600080fd5b506101bd6106f1565b6040516101ca9190613e67565b60405180910390f35b3480156101df57600080fd5b506101fa60048036038101906101f591906135d4565b610783565b6040516102079190613d6b565b60405180910390f35b34801561021c57600080fd5b5061023760048036038101906102329190613491565b610808565b005b34801561024557600080fd5b50610260600480360381019061025b919061352b565b610920565b60405161026d9190614129565b60405180910390f35b34801561028257600080fd5b5061029d600480360381019061029891906133ce565b610ba1565b6040516102aa9190613e4c565b60405180910390f35b3480156102bf57600080fd5b506102da60048036038101906102d5919061337b565b610bb5565b005b3480156102e857600080fd5b506102f1610c36565b6040516102fe9190613ded565b60405180910390f35b34801561031357600080fd5b5061032e6004803603810190610329919061337b565b610e01565b005b34801561033c57600080fd5b50610357600480360381019061035291906135d4565b610e21565b6040516103649190614129565b60405180910390f35b34801561037957600080fd5b50610394600480360381019061038f91906135d4565b61101d565b6040516103a19190613d6b565b60405180910390f35b3480156103b657600080fd5b506103d160048036038101906103cc919061330e565b6110cf565b6040516103de919061414b565b60405180910390f35b3480156103f357600080fd5b506103fc611187565b005b34801561040a57600080fd5b5061041361120f565b6040516104209190613e0f565b60405180910390f35b34801561043557600080fd5b5061043e611315565b60405161044b9190613d6b565b60405180910390f35b34801561046057600080fd5b5061046961133f565b6040516104769190613d86565b60405180910390f35b34801561048b57600080fd5b50610494611365565b6040516104a19190613e67565b60405180910390f35b3480156104b657600080fd5b506104d160048036038101906104cc9190613451565b6113f7565b005b3480156104df57600080fd5b506104fa60048036038101906104f591906133ce565b611578565b005b34801561050857600080fd5b50610523600480360381019061051e9190613601565b6119d8565b005b34801561053157600080fd5b5061054c600480360381019061054791906135d4565b611bde565b6040516105599190613e67565b60405180910390f35b61057c600480360381019061057791906135d4565b611c85565b005b34801561058a57600080fd5b506105a560048036038101906105a0919061333b565b6122cf565b6040516105b29190613e31565b60405180910390f35b3480156105c757600080fd5b506105e260048036038101906105dd919061330e565b612363565b005b3480156105f057600080fd5b506105f961245b565b6040516106069190613d86565b60405180910390f35b60007f80ac58cd000000000000000000000000000000000000000000000000000000007bffffffffffffffffffffffffffffffffffffffffffffffffffffffff1916827bffffffffffffffffffffffffffffffffffffffffffffffffffffffff191614806106da57507f5b5e139f000000000000000000000000000000000000000000000000000000007bffffffffffffffffffffffffffffffffffffffffffffffffffffffff1916827bffffffffffffffffffffffffffffffffffffffffffffffffffffffff1916145b806106ea57506106e982612481565b5b9050919050565b606060008054610700906144ba565b80601f016020809104026020016040519081016040528092919081815260200182805461072c906144ba565b80156107795780601f1061074e57610100808354040283529160200191610779565b820191906000526020600020905b81548152906001019060200180831161075c57829003601f168201915b5050505050905090565b600061078e826124eb565b6107cd576040517f08c379a00000000000000000000000000000000000000000000000000000000081526004016107c490614009565b60405180910390fd5b6004600083815260200190815260200160002060009054906101000a900473ffffffffffffffffffffffffffffffffffffffff169050919050565b60006108138261101d565b90508073ffffffffffffffffffffffffffffffffffffffff168373ffffffffffffffffffffffffffffffffffffffff161415610884576040517f08c379a000000000000000000000000000000000000000000000000000000000815260040161087b90614089565b60405180910390fd5b8073ffffffffffffffffffffffffffffffffffffffff166108a3612557565b73ffffffffffffffffffffffffffffffffffffffff1614806108d257506108d1816108cc612557565b6122cf565b5b610911576040517f08c379a000000000000000000000000000000000000000000000000000000000815260040161090890613f89565b60405180910390fd5b61091b838361255f565b505050565b610928612fe2565b610930612557565b73ffffffffffffffffffffffffffffffffffffffff1661094e611315565b73ffffffffffffffffffffffffffffffffffffffff16146109a4576040517f08c379a000000000000000000000000000000000000000000000000000000000815260040161099b90614029565b60405180910390fd5b6008600087815260200190815260200160002060050160019054906101000a900460ff1615610a08576040517f08c379a00000000000000000000000000000000000000000000000000000000081526004016109ff906140c9565b60405180910390fd5b60006040518060e0016040528088815260200187815260200186815260200185815260200189815260200184151581526020016001151581525090506007819080600181540180825580915050600190039060005260206000209060060201600090919091909150600082015181600001556020820151816001015560408201518160020155606082015181600301556080820151816004019080519060200190610ab4929190613023565b5060a08201518160050160006101000a81548160ff02191690831515021790555060c08201518160050160016101000a81548160ff02191690831515021790555050508060086000898152602001908152602001600020600082015181600001556020820151816001015560408201518160020155606082015181600301556080820151816004019080519060200190610b4f929190613023565b5060a08201518160050160006101000a81548160ff02191690831515021790555060c08201518160050160016101000a81548160ff021916908315150217905550905050809150509695505050505050565b600063150b7a0260e01b9050949350505050565b610bbd612557565b73ffffffffffffffffffffffffffffffffffffffff16610bdb611315565b73ffffffffffffffffffffffffffffffffffffffff1614610c31576040517f08c379a0000000000000000000000000000000000000000000000000000000008152600401610c2890614029565b60405180910390fd5b505050565b6060610c40612557565b73ffffffffffffffffffffffffffffffffffffffff16610c5e611315565b73ffffffffffffffffffffffffffffffffffffffff1614610cb4576040517f08c379a0000000000000000000000000000000000000000000000000000000008152600401610cab90614029565b60405180910390fd5b6007805480602002602001604051908101604052809291908181526020016000905b82821015610df857838290600052602060002090600602016040518060e001604052908160008201548152602001600182015481526020016002820154815260200160038201548152602001600482018054610d31906144ba565b80601f0160208091040260200160405190810160405280929190818152602001828054610d5d906144ba565b8015610daa5780601f10610d7f57610100808354040283529160200191610daa565b820191906000526020600020905b815481529060010190602001808311610d8d57829003601f168201915b505050505081526020016005820160009054906101000a900460ff161515151581526020016005820160019054906101000a900460ff16151515158152505081526020019060010190610cd6565b50505050905090565b610e1c83838360405180602001604052806000815250611578565b505050565b610e29612fe2565b610e31612557565b73ffffffffffffffffffffffffffffffffffffffff16610e4f611315565b73ffffffffffffffffffffffffffffffffffffffff1614610ea5576040517f08c379a0000000000000000000000000000000000000000000000000000000008152600401610e9c90614029565b60405180910390fd5b6008600083815260200190815260200160002060050160019054906101000a900460ff16610f08576040517f08c379a0000000000000000000000000000000000000000000000000000000008152600401610eff906140e9565b60405180910390fd5b600860008381526020019081526020016000206040518060e001604052908160008201548152602001600182015481526020016002820154815260200160038201548152602001600482018054610f5e906144ba565b80601f0160208091040260200160405190810160405280929190818152602001828054610f8a906144ba565b8015610fd75780601f10610fac57610100808354040283529160200191610fd7565b820191906000526020600020905b815481529060010190602001808311610fba57829003601f168201915b505050505081526020016005820160009054906101000a900460ff161515151581526020016005820160019054906101000a900460ff1615151515815250509050919050565b6000806002600084815260200190815260200160002060009054906101000a900473ffffffffffffffffffffffffffffffffffffffff169050600073ffffffffffffffffffffffffffffffffffffffff168173ffffffffffffffffffffffffffffffffffffffff1614156110c6576040517f08c379a00000000000000000000000000000000000000000000000000000000081526004016110bd90613fc9565b60405180910390fd5b80915050919050565b60008073ffffffffffffffffffffffffffffffffffffffff168273ffffffffffffffffffffffffffffffffffffffff161415611140576040517f08c379a000000000000000000000000000000000000000000000000000000000815260040161113790613fa9565b60405180910390fd5b600360008373ffffffffffffffffffffffffffffffffffffffff1673ffffffffffffffffffffffffffffffffffffffff168152602001908152602001600020549050919050565b61118f612557565b73ffffffffffffffffffffffffffffffffffffffff166111ad611315565b73ffffffffffffffffffffffffffffffffffffffff1614611203576040517f08c379a00000000000000000000000000000000000000000000000000000000081526004016111fa90614029565b60405180910390fd5b61120d6000612618565b565b6060600960003373ffffffffffffffffffffffffffffffffffffffff1673ffffffffffffffffffffffffffffffffffffffff168152602001908152602001600020805480602002602001604051908101604052809291908181526020016000905b8282101561130c578382906000526020600020906003020160405180606001604052908160008201548152602001600182015481526020016002820160009054906101000a900473ffffffffffffffffffffffffffffffffffffffff1673ffffffffffffffffffffffffffffffffffffffff1673ffffffffffffffffffffffffffffffffffffffff168152505081526020019060010190611270565b50505050905090565b6000600660009054906101000a900473ffffffffffffffffffffffffffffffffffffffff16905090565b600b60009054906101000a900473ffffffffffffffffffffffffffffffffffffffff1681565b606060018054611374906144ba565b80601f01602080910402602001604051908101604052809291908181526020018280546113a0906144ba565b80156113ed5780601f106113c2576101008083540402835291602001916113ed565b820191906000526020600020905b8154815290600101906020018083116113d057829003601f168201915b5050505050905090565b6113ff612557565b73ffffffffffffffffffffffffffffffffffffffff168273ffffffffffffffffffffffffffffffffffffffff16141561146d576040517f08c379a000000000000000000000000000000000000000000000000000000000815260040161146490613f29565b60405180910390fd5b806005600061147a612557565b73ffffffffffffffffffffffffffffffffffffffff1673ffffffffffffffffffffffffffffffffffffffff16815260200190815260200160002060008473ffffffffffffffffffffffffffffffffffffffff1673ffffffffffffffffffffffffffffffffffffffff16815260200190815260200160002060006101000a81548160ff0219169083151502179055508173ffffffffffffffffffffffffffffffffffffffff16611527612557565b73ffffffffffffffffffffffffffffffffffffffff167f17307eab39ab6107e8899845ad3d59bd9653f200f220920489ca2b5937696c318360405161156c9190613e31565b60405180910390a35050565b611589611583612557565b836126de565b6115c8576040517f08c379a00000000000000000000000000000000000000000000000000000000081526004016115bf906140a9565b60405180910390fd5b6115d4848484846127bc565b6000600960008673ffffffffffffffffffffffffffffffffffffffff1673ffffffffffffffffffffffffffffffffffffffff168152602001908152602001600020805480602002602001604051908101604052809291908181526020016000905b828210156116d1578382906000526020600020906003020160405180606001604052908160008201548152602001600182015481526020016002820160009054906101000a900473ffffffffffffffffffffffffffffffffffffffff1673ffffffffffffffffffffffffffffffffffffffff1673ffffffffffffffffffffffffffffffffffffffff168152505081526020019060010190611635565b505050509050600960008673ffffffffffffffffffffffffffffffffffffffff1673ffffffffffffffffffffffffffffffffffffffff168152602001908152602001600020600061172291906130a9565b60005b815181101561197e578382828151811061174257611741614652565b5b6020026020010151600001511461183857600960008773ffffffffffffffffffffffffffffffffffffffff1673ffffffffffffffffffffffffffffffffffffffff1681526020019081526020016000208282815181106117a5576117a4614652565b5b60200260200101519080600181540180825580915050600190039060005260206000209060030201600090919091909150600082015181600001556020820151816001015560408201518160020160006101000a81548173ffffffffffffffffffffffffffffffffffffffff021916908373ffffffffffffffffffffffffffffffffffffffff160217905550505061196b565b8482828151811061184c5761184b614652565b5b60200260200101516040019073ffffffffffffffffffffffffffffffffffffffff16908173ffffffffffffffffffffffffffffffffffffffff1681525050600960008673ffffffffffffffffffffffffffffffffffffffff1673ffffffffffffffffffffffffffffffffffffffff1681526020019081526020016000208282815181106118dc576118db614652565b5b60200260200101519080600181540180825580915050600190039060005260206000209060030201600090919091909150600082015181600001556020820151816001015560408201518160020160006101000a81548173ffffffffffffffffffffffffffffffffffffffff021916908373ffffffffffffffffffffffffffffffffffffffff16021790555050505b80806119769061451d565b915050611725565b5033600a600085815260200190815260200160002060006101000a81548173ffffffffffffffffffffffffffffffffffffffff021916908373ffffffffffffffffffffffffffffffffffffffff1602179055505050505050565b6119e0612557565b73ffffffffffffffffffffffffffffffffffffffff166119fe611315565b73ffffffffffffffffffffffffffffffffffffffff1614611a54576040517f08c379a0000000000000000000000000000000000000000000000000000000008152600401611a4b90614029565b60405180910390fd5b60005b600780549050811015611bd9578260078281548110611a7957611a78614652565b5b906000526020600020906006020160000154148015611abc57508160078281548110611aa857611aa7614652565b5b906000526020600020906006020160010154105b15611bc6578160078281548110611ad657611ad5614652565b5b90600052602060002090600602016001018190555060078181548110611aff57611afe614652565b5b906000526020600020906006020160086000858152602001908152602001600020600082015481600001556001820154816001015560028201548160020155600382015481600301556004820181600401908054611b5c906144ba565b611b679291906130cd565b506005820160009054906101000a900460ff168160050160006101000a81548160ff0219169083151502179055506005820160019054906101000a900460ff168160050160016101000a81548160ff0219169083151502179055509050505b8080611bd19061451d565b915050611a57565b505050565b6060611be9826124eb565b611c28576040517f08c379a0000000000000000000000000000000000000000000000000000000008152600401611c1f90614069565b60405180910390fd5b6000611c32612818565b90506000815111611c525760405180602001604052806000815250611c7d565b80611c5c8461282f565b604051602001611c6d929190613d1b565b6040516020818303038152906040525b915050919050565b6008600082815260200190815260200160002060050160019054906101000a900460ff16611ce8576040517f08c379a0000000000000000000000000000000000000000000000000000000008152600401611cdf906140e9565b60405180910390fd5b6008600082815260200190815260200160002060050160009054906101000a900460ff1615611d4c576040517f08c379a0000000000000000000000000000000000000000000000000000000008152600401611d4390613f69565b60405180910390fd5b6000600860008381526020019081526020016000206001015411611da5576040517f08c379a0000000000000000000000000000000000000000000000000000000008152600401611d9c90613ee9565b60405180910390fd5b6103e8670de0b6b3a76400006008600084815260200190815260200160002060030154611dd2919061433a565b611ddc9190614309565b3414611e1d576040517f08c379a0000000000000000000000000000000000000000000000000000000008152600401611e1490614109565b60405180910390fd5b611e25612fe2565b60005b6007805490508110156120aa578260078281548110611e4a57611e49614652565b5b90600052602060002090600602016000015414156120975760078181548110611e7657611e75614652565b5b90600052602060002090600602016040518060e001604052908160008201548152602001600182015481526020016002820154815260200160038201548152602001600482018054611ec7906144ba565b80601f0160208091040260200160405190810160405280929190818152602001828054611ef3906144ba565b8015611f405780601f10611f1557610100808354040283529160200191611f40565b820191906000526020600020905b815481529060010190602001808311611f2357829003601f168201915b505050505081526020016005820160009054906101000a900460ff161515151581526020016005820160019054906101000a900460ff161515151581525050915060078181548110611f9557611f94614652565b5b90600052602060002090600602016001016000815480929190611fb790614490565b919050555060078181548110611fd057611fcf614652565b5b90600052602060002090600602016008600085815260200190815260200160002060008201548160000155600182015481600101556002820154816002015560038201548160030155600482018160040190805461202d906144ba565b6120389291906130cd565b506005820160009054906101000a900460ff168160050160006101000a81548160ff0219169083151502179055506005820160019054906101000a900460ff168160050160016101000a81548160ff0219169083151502179055509050505b80806120a29061451d565b915050611e28565b5060006402540be400600d54336040516020016120c8929190613d3f565b6040516020818303038152906040528051906020012060001c6120eb9190614594565b9050600d60008154809291906121009061451d565b919050555061210f3382612990565b600b60009054906101000a900473ffffffffffffffffffffffffffffffffffffffff1673ffffffffffffffffffffffffffffffffffffffff166108fc349081150290604051600060405180830381858888f19350505050158015612177573d6000803e3d6000fd5b5060006040518060600160405280838152602001846000015181526020013373ffffffffffffffffffffffffffffffffffffffff168152509050600960003373ffffffffffffffffffffffffffffffffffffffff1673ffffffffffffffffffffffffffffffffffffffff168152602001908152602001600020819080600181540180825580915050600190039060005260206000209060030201600090919091909150600082015181600001556020820151816001015560408201518160020160006101000a81548173ffffffffffffffffffffffffffffffffffffffff021916908373ffffffffffffffffffffffffffffffffffffffff160217905550505033600a600084815260200190815260200160002060006101000a81548173ffffffffffffffffffffffffffffffffffffffff021916908373ffffffffffffffffffffffffffffffffffffffff16021790555050505050565b6000600560008473ffffffffffffffffffffffffffffffffffffffff1673ffffffffffffffffffffffffffffffffffffffff16815260200190815260200160002060008373ffffffffffffffffffffffffffffffffffffffff1673ffffffffffffffffffffffffffffffffffffffff16815260200190815260200160002060009054906101000a900460ff16905092915050565b61236b612557565b73ffffffffffffffffffffffffffffffffffffffff16612389611315565b73ffffffffffffffffffffffffffffffffffffffff16146123df576040517f08c379a00000000000000000000000000000000000000000000000000000000081526004016123d690614029565b60405180910390fd5b600073ffffffffffffffffffffffffffffffffffffffff168173ffffffffffffffffffffffffffffffffffffffff16141561244f576040517f08c379a000000000000000000000000000000000000000000000000000000000815260040161244690613ea9565b60405180910390fd5b61245881612618565b50565b600c60009054906101000a900473ffffffffffffffffffffffffffffffffffffffff1681565b60007f01ffc9a7000000000000000000000000000000000000000000000000000000007bffffffffffffffffffffffffffffffffffffffffffffffffffffffff1916827bffffffffffffffffffffffffffffffffffffffffffffffffffffffff1916149050919050565b60008073ffffffffffffffffffffffffffffffffffffffff166002600084815260200190815260200160002060009054906101000a900473ffffffffffffffffffffffffffffffffffffffff1673ffffffffffffffffffffffffffffffffffffffff1614159050919050565b600033905090565b816004600083815260200190815260200160002060006101000a81548173ffffffffffffffffffffffffffffffffffffffff021916908373ffffffffffffffffffffffffffffffffffffffff160217905550808273ffffffffffffffffffffffffffffffffffffffff166125d28361101d565b73ffffffffffffffffffffffffffffffffffffffff167f8c5be1e5ebec7d5bd14f71427d1e84f3dd0314c0f7b2291e5b200ac8c7c3b92560405160405180910390a45050565b6000600660009054906101000a900473ffffffffffffffffffffffffffffffffffffffff16905081600660006101000a81548173ffffffffffffffffffffffffffffffffffffffff021916908373ffffffffffffffffffffffffffffffffffffffff1602179055508173ffffffffffffffffffffffffffffffffffffffff168173ffffffffffffffffffffffffffffffffffffffff167f8be0079c531659141344cd1fd0a4f28419497f9722a3daafe3b4186f6b6457e060405160405180910390a35050565b60006126e9826124eb565b612728576040517f08c379a000000000000000000000000000000000000000000000000000000000815260040161271f90613f49565b60405180910390fd5b60006127338361101d565b90508073ffffffffffffffffffffffffffffffffffffffff168473ffffffffffffffffffffffffffffffffffffffff1614806127a257508373ffffffffffffffffffffffffffffffffffffffff1661278a84610783565b73ffffffffffffffffffffffffffffffffffffffff16145b806127b357506127b281856122cf565b5b91505092915050565b6127c78484846129ae565b6127d384848484612c0a565b612812576040517f08c379a000000000000000000000000000000000000000000000000000000000815260040161280990613e89565b60405180910390fd5b50505050565b606060405180602001604052806000815250905090565b60606000821415612877576040518060400160405280600181526020017f3000000000000000000000000000000000000000000000000000000000000000815250905061298b565b600082905060005b600082146128a95780806128929061451d565b915050600a826128a29190614309565b915061287f565b60008167ffffffffffffffff8111156128c5576128c4614681565b5b6040519080825280601f01601f1916602001820160405280156128f75781602001600182028036833780820191505090505b5090505b60008514612984576001826129109190614394565b9150600a8561291f9190614594565b603061292b91906142b3565b60f81b81838151811061294157612940614652565b5b60200101907effffffffffffffffffffffffffffffffffffffffffffffffffffffffffffff1916908160001a905350600a8561297d9190614309565b94506128fb565b8093505050505b919050565b6129aa828260405180602001604052806000815250612da1565b5050565b8273ffffffffffffffffffffffffffffffffffffffff166129ce8261101d565b73ffffffffffffffffffffffffffffffffffffffff1614612a24576040517f08c379a0000000000000000000000000000000000000000000000000000000008152600401612a1b90614049565b60405180910390fd5b600073ffffffffffffffffffffffffffffffffffffffff168273ffffffffffffffffffffffffffffffffffffffff161415612a94576040517f08c379a0000000000000000000000000000000000000000000000000000000008152600401612a8b90613f09565b60405180910390fd5b612a9f838383612dfc565b612aaa60008261255f565b6001600360008573ffffffffffffffffffffffffffffffffffffffff1673ffffffffffffffffffffffffffffffffffffffff1681526020019081526020016000206000828254612afa9190614394565b925050819055506001600360008473ffffffffffffffffffffffffffffffffffffffff1673ffffffffffffffffffffffffffffffffffffffff1681526020019081526020016000206000828254612b5191906142b3565b92505081905550816002600083815260200190815260200160002060006101000a81548173ffffffffffffffffffffffffffffffffffffffff021916908373ffffffffffffffffffffffffffffffffffffffff160217905550808273ffffffffffffffffffffffffffffffffffffffff168473ffffffffffffffffffffffffffffffffffffffff167fddf252ad1be2c89b69c2b068fc378daa952ba7f163c4a11628f55a4df523b3ef60405160405180910390a4505050565b6000612c2b8473ffffffffffffffffffffffffffffffffffffffff16612e01565b15612d94578373ffffffffffffffffffffffffffffffffffffffff1663150b7a02612c54612557565b8786866040518563ffffffff1660e01b8152600401612c769493929190613da1565b602060405180830381600087803b158015612c9057600080fd5b505af1925050508015612cc157506040513d601f19601f82011682018060405250810190612cbe91906134fe565b60015b612d44573d8060008114612cf1576040519150601f19603f3d011682016040523d82523d6000602084013e612cf6565b606091505b50600081511415612d3c576040517f08c379a0000000000000000000000000000000000000000000000000000000008152600401612d3390613e89565b60405180910390fd5b805181602001fd5b63150b7a0260e01b7bffffffffffffffffffffffffffffffffffffffffffffffffffffffff1916817bffffffffffffffffffffffffffffffffffffffffffffffffffffffff191614915050612d99565b600190505b949350505050565b612dab8383612e14565b612db86000848484612c0a565b612df7576040517f08c379a0000000000000000000000000000000000000000000000000000000008152600401612dee90613e89565b60405180910390fd5b505050565b505050565b600080823b905060008111915050919050565b600073ffffffffffffffffffffffffffffffffffffffff168273ffffffffffffffffffffffffffffffffffffffff161415612e84576040517f08c379a0000000000000000000000000000000000000000000000000000000008152600401612e7b90613fe9565b60405180910390fd5b612e8d816124eb565b15612ecd576040517f08c379a0000000000000000000000000000000000000000000000000000000008152600401612ec490613ec9565b60405180910390fd5b612ed960008383612dfc565b6001600360008473ffffffffffffffffffffffffffffffffffffffff1673ffffffffffffffffffffffffffffffffffffffff1681526020019081526020016000206000828254612f2991906142b3565b92505081905550816002600083815260200190815260200160002060006101000a81548173ffffffffffffffffffffffffffffffffffffffff021916908373ffffffffffffffffffffffffffffffffffffffff160217905550808273ffffffffffffffffffffffffffffffffffffffff16600073ffffffffffffffffffffffffffffffffffffffff167fddf252ad1be2c89b69c2b068fc378daa952ba7f163c4a11628f55a4df523b3ef60405160405180910390a45050565b6040518060e0016040528060008152602001600081526020016000815260200160008152602001606081526020016000151581526020016000151581525090565b82805461302f906144ba565b90600052602060002090601f0160209004810192826130515760008555613098565b82601f1061306a57805160ff1916838001178555613098565b82800160010185558215613098579182015b8281111561309757825182559160200191906001019061307c565b5b5090506130a5919061315a565b5090565b50805460008255600302906000526020600020908101906130ca9190613177565b50565b8280546130d9906144ba565b90600052602060002090601f0160209004810192826130fb5760008555613149565b82601f1061310c5780548555613149565b8280016001018555821561314957600052602060002091601f016020900482015b8281111561314857825482559160010191906001019061312d565b5b509050613156919061315a565b5090565b5b8082111561317357600081600090555060010161315b565b5090565b5b808211156131c15760008082016000905560018201600090556002820160006101000a81549073ffffffffffffffffffffffffffffffffffffffff021916905550600301613178565b5090565b60006131d86131d38461418b565b614166565b9050828152602081018484840111156131f4576131f36146b5565b5b6131ff84828561444e565b509392505050565b600061321a613215846141bc565b614166565b905082815260208101848484011115613236576132356146b5565b5b61324184828561444e565b509392505050565b60008135905061325881614c53565b92915050565b60008135905061326d81614c6a565b92915050565b60008135905061328281614c81565b92915050565b60008151905061329781614c81565b92915050565b600082601f8301126132b2576132b16146b0565b5b81356132c28482602086016131c5565b91505092915050565b600082601f8301126132e0576132df6146b0565b5b81356132f0848260208601613207565b91505092915050565b60008135905061330881614c98565b92915050565b600060208284031215613324576133236146bf565b5b600061333284828501613249565b91505092915050565b60008060408385031215613352576133516146bf565b5b600061336085828601613249565b925050602061337185828601613249565b9150509250929050565b600080600060608486031215613394576133936146bf565b5b60006133a286828701613249565b93505060206133b386828701613249565b92505060406133c4868287016132f9565b9150509250925092565b600080600080608085870312156133e8576133e76146bf565b5b60006133f687828801613249565b945050602061340787828801613249565b9350506040613418878288016132f9565b925050606085013567ffffffffffffffff811115613439576134386146ba565b5b6134458782880161329d565b91505092959194509250565b60008060408385031215613468576134676146bf565b5b600061347685828601613249565b92505060206134878582860161325e565b9150509250929050565b600080604083850312156134a8576134a76146bf565b5b60006134b685828601613249565b92505060206134c7858286016132f9565b9150509250929050565b6000602082840312156134e7576134e66146bf565b5b60006134f584828501613273565b91505092915050565b600060208284031215613514576135136146bf565b5b600061352284828501613288565b91505092915050565b60008060008060008060c08789031215613548576135476146bf565b5b600087013567ffffffffffffffff811115613566576135656146ba565b5b61357289828a016132cb565b965050602061358389828a016132f9565b955050604061359489828a016132f9565b94505060606135a589828a016132f9565b93505060806135b689828a016132f9565b92505060a06135c789828a0161325e565b9150509295509295509295565b6000602082840312156135ea576135e96146bf565b5b60006135f8848285016132f9565b91505092915050565b60008060408385031215613618576136176146bf565b5b6000613626858286016132f9565b9250506020613637858286016132f9565b9150509250929050565b600061364d8383613b6c565b905092915050565b60006136618383613ca4565b60608301905092915050565b613676816143da565b82525050565b613685816143c8565b82525050565b613694816143c8565b82525050565b6136ab6136a6826143c8565b614566565b82525050565b60006136bc8261420d565b6136c68185614253565b9350836020820285016136d8856141ed565b8060005b8581101561371457848403895281516136f58582613641565b945061370083614239565b925060208a019950506001810190506136dc565b50829750879550505050505092915050565b600061373182614218565b61373b8185614264565b9350613746836141fd565b8060005b8381101561377757815161375e8882613655565b975061376983614246565b92505060018101905061374a565b5085935050505092915050565b61378d816143ec565b82525050565b61379c816143ec565b82525050565b6137ab816143f8565b82525050565b60006137bc82614223565b6137c68185614275565b93506137d681856020860161445d565b6137df816146c4565b840191505092915050565b60006137f58261422e565b6137ff8185614286565b935061380f81856020860161445d565b613818816146c4565b840191505092915050565b600061382e8261422e565b6138388185614297565b935061384881856020860161445d565b613851816146c4565b840191505092915050565b60006138678261422e565b61387181856142a8565b935061388181856020860161445d565b80840191505092915050565b600061389a603283614297565b91506138a5826146e2565b604082019050919050565b60006138bd602683614297565b91506138c882614731565b604082019050919050565b60006138e0601c83614297565b91506138eb82614780565b602082019050919050565b6000613903602283614297565b915061390e826147a9565b604082019050919050565b6000613926602483614297565b9150613931826147f8565b604082019050919050565b6000613949601983614297565b915061395482614847565b602082019050919050565b600061396c602c83614297565b915061397782614870565b604082019050919050565b600061398f602383614297565b915061399a826148bf565b604082019050919050565b60006139b2603883614297565b91506139bd8261490e565b604082019050919050565b60006139d5602a83614297565b91506139e08261495d565b604082019050919050565b60006139f8602983614297565b9150613a03826149ac565b604082019050919050565b6000613a1b602083614297565b9150613a26826149fb565b602082019050919050565b6000613a3e602c83614297565b9150613a4982614a24565b604082019050919050565b6000613a61602083614297565b9150613a6c82614a73565b602082019050919050565b6000613a84602983614297565b9150613a8f82614a9c565b604082019050919050565b6000613aa7602f83614297565b9150613ab282614aeb565b604082019050919050565b6000613aca602183614297565b9150613ad582614b3a565b604082019050919050565b6000613aed603183614297565b9150613af882614b89565b604082019050919050565b6000613b10601183614297565b9150613b1b82614bd8565b602082019050919050565b6000613b33601183614297565b9150613b3e82614c01565b602082019050919050565b6000613b56601083614297565b9150613b6182614c2a565b602082019050919050565b600060e083016000830151613b846000860182613ce6565b506020830151613b976020860182613ce6565b506040830151613baa6040860182613ce6565b506060830151613bbd6060860182613ce6565b5060808301518482036080860152613bd582826137ea565b91505060a0830151613bea60a0860182613784565b5060c0830151613bfd60c0860182613784565b508091505092915050565b600060e083016000830151613c206000860182613ce6565b506020830151613c336020860182613ce6565b506040830151613c466040860182613ce6565b506060830151613c596060860182613ce6565b5060808301518482036080860152613c7182826137ea565b91505060a0830151613c8660a0860182613784565b5060c0830151613c9960c0860182613784565b508091505092915050565b606082016000820151613cba6000850182613ce6565b506020820151613ccd6020850182613ce6565b506040820151613ce0604085018261367c565b50505050565b613cef81614444565b82525050565b613cfe81614444565b82525050565b613d15613d1082614444565b61458a565b82525050565b6000613d27828561385c565b9150613d33828461385c565b91508190509392505050565b6000613d4b8285613d04565b602082019150613d5b828461369a565b6014820191508190509392505050565b6000602082019050613d80600083018461368b565b92915050565b6000602082019050613d9b600083018461366d565b92915050565b6000608082019050613db6600083018761368b565b613dc3602083018661368b565b613dd06040830185613cf5565b8181036060830152613de281846137b1565b905095945050505050565b60006020820190508181036000830152613e0781846136b1565b905092915050565b60006020820190508181036000830152613e298184613726565b905092915050565b6000602082019050613e466000830184613793565b92915050565b6000602082019050613e6160008301846137a2565b92915050565b60006020820190508181036000830152613e818184613823565b905092915050565b60006020820190508181036000830152613ea28161388d565b9050919050565b60006020820190508181036000830152613ec2816138b0565b9050919050565b60006020820190508181036000830152613ee2816138d3565b9050919050565b60006020820190508181036000830152613f02816138f6565b9050919050565b60006020820190508181036000830152613f2281613919565b9050919050565b60006020820190508181036000830152613f428161393c565b9050919050565b60006020820190508181036000830152613f628161395f565b9050919050565b60006020820190508181036000830152613f8281613982565b9050919050565b60006020820190508181036000830152613fa2816139a5565b9050919050565b60006020820190508181036000830152613fc2816139c8565b9050919050565b60006020820190508181036000830152613fe2816139eb565b9050919050565b6000602082019050818103600083015261400281613a0e565b9050919050565b6000602082019050818103600083015261402281613a31565b9050919050565b6000602082019050818103600083015261404281613a54565b9050919050565b6000602082019050818103600083015261406281613a77565b9050919050565b6000602082019050818103600083015261408281613a9a565b9050919050565b600060208201905081810360008301526140a281613abd565b9050919050565b600060208201905081810360008301526140c281613ae0565b9050919050565b600060208201905081810360008301526140e281613b03565b9050919050565b6000602082019050818103600083015261410281613b26565b9050919050565b6000602082019050818103600083015261412281613b49565b9050919050565b600060208201905081810360008301526141438184613c08565b905092915050565b60006020820190506141606000830184613cf5565b92915050565b6000614170614181565b905061417c82826144ec565b919050565b6000604051905090565b600067ffffffffffffffff8211156141a6576141a5614681565b5b6141af826146c4565b9050602081019050919050565b600067ffffffffffffffff8211156141d7576141d6614681565b5b6141e0826146c4565b9050602081019050919050565b6000819050602082019050919050565b6000819050602082019050919050565b600081519050919050565b600081519050919050565b600081519050919050565b600081519050919050565b6000602082019050919050565b6000602082019050919050565b600082825260208201905092915050565b600082825260208201905092915050565b600082825260208201905092915050565b600082825260208201905092915050565b600082825260208201905092915050565b600081905092915050565b60006142be82614444565b91506142c983614444565b9250827fffffffffffffffffffffffffffffffffffffffffffffffffffffffffffffffff038211156142fe576142fd6145c5565b5b828201905092915050565b600061431482614444565b915061431f83614444565b92508261432f5761432e6145f4565b5b828204905092915050565b600061434582614444565b915061435083614444565b9250817fffffffffffffffffffffffffffffffffffffffffffffffffffffffffffffffff0483118215151615614389576143886145c5565b5b828202905092915050565b600061439f82614444565b91506143aa83614444565b9250828210156143bd576143bc6145c5565b5b828203905092915050565b60006143d382614424565b9050919050565b60006143e582614424565b9050919050565b60008115159050919050565b60007fffffffff0000000000000000000000000000000000000000000000000000000082169050919050565b600073ffffffffffffffffffffffffffffffffffffffff82169050919050565b6000819050919050565b82818337600083830152505050565b60005b8381101561447b578082015181840152602081019050614460565b8381111561448a576000848401525b50505050565b600061449b82614444565b915060008214156144af576144ae6145c5565b5b600182039050919050565b600060028204905060018216806144d257607f821691505b602082108114156144e6576144e5614623565b5b50919050565b6144f5826146c4565b810181811067ffffffffffffffff8211171561451457614513614681565b5b80604052505050565b600061452882614444565b91507fffffffffffffffffffffffffffffffffffffffffffffffffffffffffffffffff82141561455b5761455a6145c5565b5b600182019050919050565b600061457182614578565b9050919050565b6000614583826146d5565b9050919050565b6000819050919050565b600061459f82614444565b91506145aa83614444565b9250826145ba576145b96145f4565b5b828206905092915050565b7f4e487b7100000000000000000000000000000000000000000000000000000000600052601160045260246000fd5b7f4e487b7100000000000000000000000000000000000000000000000000000000600052601260045260246000fd5b7f4e487b7100000000000000000000000000000000000000000000000000000000600052602260045260246000fd5b7f4e487b7100000000000000000000000000000000000000000000000000000000600052603260045260246000fd5b7f4e487b7100000000000000000000000000000000000000000000000000000000600052604160045260246000fd5b600080fd5b600080fd5b600080fd5b600080fd5b6000601f19601f8301169050919050565b60008160601b9050919050565b7f4552433732313a207472616e7366657220746f206e6f6e20455243373231526560008201527f63656976657220696d706c656d656e7465720000000000000000000000000000602082015250565b7f4f776e61626c653a206e6577206f776e657220697320746865207a65726f206160008201527f6464726573730000000000000000000000000000000000000000000000000000602082015250565b7f4552433732313a20746f6b656e20616c7265616479206d696e74656400000000600082015250565b7f5468657265206973206e6f206d6f726520706f6c6974696320617661696c616260008201527f6c65000000000000000000000000000000000000000000000000000000000000602082015250565b7f4552433732313a207472616e7366657220746f20746865207a65726f2061646460008201527f7265737300000000000000000000000000000000000000000000000000000000602082015250565b7f4552433732313a20617070726f766520746f2063616c6c657200000000000000600082015250565b7f4552433732313a206f70657261746f7220717565727920666f72206e6f6e657860008201527f697374656e7420746f6b656e0000000000000000000000000000000000000000602082015250565b7f506f6c69746963206f6e6c7920617661696c61626c652077697468206c6f747460008201527f6572790000000000000000000000000000000000000000000000000000000000602082015250565b7f4552433732313a20617070726f76652063616c6c6572206973206e6f74206f7760008201527f6e6572206e6f7220617070726f76656420666f7220616c6c0000000000000000602082015250565b7f4552433732313a2062616c616e636520717565727920666f7220746865207a6560008201527f726f206164647265737300000000000000000000000000000000000000000000602082015250565b7f4552433732313a206f776e657220717565727920666f72206e6f6e657869737460008201527f656e7420746f6b656e0000000000000000000000000000000000000000000000602082015250565b7f4552433732313a206d696e7420746f20746865207a65726f2061646472657373600082015250565b7f4552433732313a20617070726f76656420717565727920666f72206e6f6e657860008201527f697374656e7420746f6b656e0000000000000000000000000000000000000000602082015250565b7f4f776e61626c653a2063616c6c6572206973206e6f7420746865206f776e6572600082015250565b7f4552433732313a207472616e73666572206f6620746f6b656e2074686174206960008201527f73206e6f74206f776e0000000000000000000000000000000000000000000000602082015250565b7f4552433732314d657461646174613a2055524920717565727920666f72206e6f60008201527f6e6578697374656e7420746f6b656e0000000000000000000000000000000000602082015250565b7f4552433732313a20617070726f76616c20746f2063757272656e74206f776e6560008201527f7200000000000000000000000000000000000000000000000000000000000000602082015250565b7f4552433732313a207472616e736665722063616c6c6572206973206e6f74206f60008201527f776e6572206e6f7220617070726f766564000000000000000000000000000000602082015250565b7f696420616c726561647920696e20757365000000000000000000000000000000600082015250565b7f506f6c69746963206e6f7420666f756e64000000000000000000000000000000600082015250565b7f496e636f727265637420616d6f756e7400000000000000000000000000000000600082015250565b614c5c816143c8565b8114614c6757600080fd5b50565b614c73816143ec565b8114614c7e57600080fd5b50565b614c8a816143f8565b8114614c9557600080fd5b50565b614ca181614444565b8114614cac57600080fd5b5056fea2646970667358221220ecc32a759503c823744c5e4070a82017fdc59c0a59140ac8c0a683d786c7658e64736f6c63430008070033",
  "immutableReferences": {},
  "source": "// SPDX-License-Identifier: MIT\n\npragma solidity ^0.8.0;\n\nimport \"@openzeppelin/contracts/token/ERC721/ERC721.sol\";\nimport \"@openzeppelin/contracts/token/ERC721/utils/ERC721Holder.sol\";\nimport \"@openzeppelin/contracts/access/Ownable.sol\";\n\n/**\n* @title ERC721 collectible base methods\n* @author Youness Chetoui\n*/\ncontract Collectible is ERC721, ERC721Holder, Ownable {\n    struct PoliticsAvailable {\n        uint256 id;\n        uint256 qty;\n        uint256 level;\n        uint256 price;\n        string name;\n        bool lottery;\n        bool created;\n    }\n\n    struct PoliticsOwned {\n        uint256 id;\n        uint256 id_politic;\n        address owner;\n    }\n\n    PoliticsAvailable[] internal politics;\n\n    mapping(uint256 => PoliticsAvailable) internal politicsAvailable;\n    mapping(address => PoliticsOwned[]) internal userOwnedPolitics;\n    mapping(uint256 => address) internal politicToUser;\n\n    address payable public ownerAddress;\n    address payable public contractAddress;\n\n    uint256 internal tokenCounter = 1;\n\n    constructor() ERC721(\"PoliticsNft\", \"POL\") {\n        ownerAddress = payable(msg.sender);\n        contractAddress = payable(address(this));\n    }\n\n    // function onERC721Received(\n    //     address operator,\n    //     address from,\n    //     uint256 tokenId,\n    //     bytes calldata data) external override returns (bytes4) {\n    //         return bytes4(0xbeabacc8);\n    //     }\n\n    /**\n    * @notice get politician available by id\n    * @param _id of politician\n    * @return struct PoliticsAvailable\n    */\n    function getPolitic(uint256 _id) public view onlyOwner returns(PoliticsAvailable memory) {\n        require(politicsAvailable[_id].created, \"Politic not found\");\n        return politicsAvailable[_id];\n    }\n\n    /**\n    * @notice get list of all politician available\n    * @return Array of struct PoliticsAvailable\n    */\n    function getPolitics() public view onlyOwner returns (PoliticsAvailable[] memory) {\n        return politics;\n    }\n\n    /**\n    * @notice Get politician by user\n    * @return array of struct PoliticsOwned\n    */\n    function getMyPolitics() public view returns (PoliticsOwned[] memory) {\n        return userOwnedPolitics[msg.sender];\n    }\n\n    /**\n    * @notice Create politician\n    * @param _name, _id, _qty, _level, _price and _lottery of politician available\n    * @return PoliticsAvailable created\n    */\n    function create(\n        string memory _name,\n        uint256 _id,\n        uint256 _qty,\n        uint256 _level,\n        uint256 _price,\n        bool _lottery\n    )\n        public onlyOwner returns (PoliticsAvailable memory) {\n        require(!politicsAvailable[_id].created, \"id already in use\");\n\n        PoliticsAvailable memory politic =\n            PoliticsAvailable({name: _name, id: _id, qty: _qty, level: _level, price: _price, lottery: _lottery, created: true});\n        politics.push(politic);\n        politicsAvailable[_id] = politic;\n\n        return politic;\n    }\n\n    /**\n    * @notice Add quantity for a PoliticsAvailable\n    * @param _id of PoliticsAvailable and _qty wished\n    */\n    function addQty(uint256 _id, uint256 _qty) public onlyOwner {\n        for (uint i = 0; i < politics.length; i++) {\n            if (politics[i].id == _id && politics[i].qty < _qty) {\n                politics[i].qty = _qty;\n                politicsAvailable[_id] = politics[i];\n            }\n        }\n    }\n\n    /**\n    * @notice Buy politician\n    * @param _id of politician available\n    */\n    function buy(uint256 _id) external payable {\n        require(politicsAvailable[_id].created, \"Politic not found\");\n        require(!politicsAvailable[_id].lottery, \"Politic only available with lottery\");\n        require(politicsAvailable[_id].qty > 0, \"There is no more politic available\");\n        require(msg.value == (politicsAvailable[_id].price * 10**18) / 1000, \"Incorrect amount\");\n        PoliticsAvailable memory politic;\n\n        for (uint i = 0; i < politics.length; i++) {\n            if (politics[i].id == _id) {\n                politic = politics[i];\n                politics[i].qty--;\n                politicsAvailable[_id] = politics[i];\n            }\n        }\n\n        uint256 id = uint256(keccak256(abi.encodePacked(tokenCounter, msg.sender))) % 10000000000;\n        tokenCounter++;\n\n        _safeMint(msg.sender, id);\n        ownerAddress.transfer(msg.value);\n\n        PoliticsOwned memory politicOwned =\n            PoliticsOwned({id: id, id_politic: politic.id, owner: msg.sender});\n\n\n        userOwnedPolitics[msg.sender].push(politicOwned);\n        politicToUser[id] = msg.sender;\n    }\n\n\n    /**\n    * @notice Disabled not safe transform\n    */\n    function transferFrom(\n        address from,\n        address to,\n        uint256 tokenId\n    ) public override onlyOwner {\n        //do nothing\n    }\n\n    /**\n    * @notice Transfer Politic\n    * @param from politician wallet address, to wallet address of receiver, tokenId of politician to transfer, _data\n    */\n    function safeTransferFrom(\n        address from,\n        address to,\n        uint256 tokenId,\n        bytes memory _data\n    ) public override  {\n        require(_isApprovedOrOwner(_msgSender(), tokenId), \"ERC721: transfer caller is not owner nor approved\");\n        _safeTransfer(from, to, tokenId, _data);\n\n        //Update owner of politics\n        PoliticsOwned[] memory politicsFrom = userOwnedPolitics[from];\n        delete userOwnedPolitics[from];\n        for (uint i = 0; i < politicsFrom.length; i++) {\n            if (politicsFrom[i].id != tokenId) {\n                userOwnedPolitics[from].push(politicsFrom[i]);\n\n            } else {\n                politicsFrom[i].owner = to;\n                userOwnedPolitics[to].push(politicsFrom[i]);\n            }\n        }\n\n        politicToUser[tokenId] = msg.sender;\n    }\n}\n",
  "sourcePath": "/home/youness/Crypto/PoliticsCollectible/contracts/Collectible.sol",
  "compiler": {
    "name": "solc",
    "version": "0.8.7+commit.e28d00a7.Emscripten.clang"
  },
  "schemaVersion": "3.4.3",
  "updatedAt": "2021-08-31T12:53:22.367Z",
  "devdoc": {
    "author": "Youness Chetoui",
    "kind": "dev",
    "methods": {
      "addQty(uint256,uint256)": {
        "params": {
          "_id": "of PoliticsAvailable and _qty wished"
        }
      },
      "approve(address,uint256)": {
        "details": "See {IERC721-approve}."
      },
      "balanceOf(address)": {
        "details": "See {IERC721-balanceOf}."
      },
      "buy(uint256)": {
        "params": {
          "_id": "of politician available"
        }
      },
      "create(string,uint256,uint256,uint256,uint256,bool)": {
        "params": {
          "_name": ", _id, _qty, _level, _price and _lottery of politician available"
        },
        "returns": {
          "_0": "PoliticsAvailable created"
        }
      },
      "getApproved(uint256)": {
        "details": "See {IERC721-getApproved}."
      },
      "getMyPolitics()": {
        "returns": {
          "_0": "array of struct PoliticsOwned"
        }
      },
      "getPolitic(uint256)": {
        "params": {
          "_id": "of politician"
        },
        "returns": {
          "_0": "struct PoliticsAvailable"
        }
      },
      "getPolitics()": {
        "returns": {
          "_0": "Array of struct PoliticsAvailable"
        }
      },
      "isApprovedForAll(address,address)": {
        "details": "See {IERC721-isApprovedForAll}."
      },
      "name()": {
        "details": "See {IERC721Metadata-name}."
      },
      "onERC721Received(address,address,uint256,bytes)": {
        "details": "See {IERC721Receiver-onERC721Received}. Always returns `IERC721Receiver.onERC721Received.selector`."
      },
      "owner()": {
        "details": "Returns the address of the current owner."
      },
      "ownerOf(uint256)": {
        "details": "See {IERC721-ownerOf}."
      },
      "renounceOwnership()": {
        "details": "Leaves the contract without owner. It will not be possible to call `onlyOwner` functions anymore. Can only be called by the current owner. NOTE: Renouncing ownership will leave the contract without an owner, thereby removing any functionality that is only available to the owner."
      },
      "safeTransferFrom(address,address,uint256)": {
        "details": "See {IERC721-safeTransferFrom}."
      },
      "safeTransferFrom(address,address,uint256,bytes)": {
        "params": {
          "from": "politician wallet address, to wallet address of receiver, tokenId of politician to transfer, _data"
        }
      },
      "setApprovalForAll(address,bool)": {
        "details": "See {IERC721-setApprovalForAll}."
      },
      "supportsInterface(bytes4)": {
        "details": "See {IERC165-supportsInterface}."
      },
      "symbol()": {
        "details": "See {IERC721Metadata-symbol}."
      },
      "tokenURI(uint256)": {
        "details": "See {IERC721Metadata-tokenURI}."
      },
      "transferOwnership(address)": {
        "details": "Transfers ownership of the contract to a new account (`newOwner`). Can only be called by the current owner."
      }
    },
    "title": "ERC721 collectible base methods",
    "version": 1
  },
  "userdoc": {
    "kind": "user",
    "methods": {
      "addQty(uint256,uint256)": {
        "notice": "Add quantity for a PoliticsAvailable"
      },
      "buy(uint256)": {
        "notice": "Buy politician"
      },
      "create(string,uint256,uint256,uint256,uint256,bool)": {
        "notice": "Create politician"
      },
      "getMyPolitics()": {
        "notice": "Get politician by user"
      },
      "getPolitic(uint256)": {
        "notice": "get politician available by id"
      },
      "getPolitics()": {
        "notice": "get list of all politician available"
      },
      "safeTransferFrom(address,address,uint256,bytes)": {
        "notice": "Transfer Politic"
      },
      "transferFrom(address,address,uint256)": {
        "notice": "Disabled not safe transform"
      }
    },
    "version": 1
  }
}