{
  "contractName": "CollectibleUtils",
  "abi": [
    {
      "anonymous": false,
      "inputs": [
        {
          "indexed": true,
          "internalType": "address",
          "name": "owner",
          "type": "address"
        },
        {
          "indexed": true,
          "internalType": "address",
          "name": "approved",
          "type": "address"
        },
        {
          "indexed": true,
          "internalType": "uint256",
          "name": "tokenId",
          "type": "uint256"
        }
      ],
      "name": "Approval",
      "type": "event"
    },
    {
      "anonymous": false,
      "inputs": [
        {
          "indexed": true,
          "internalType": "address",
          "name": "owner",
          "type": "address"
        },
        {
          "indexed": true,
          "internalType": "address",
          "name": "operator",
          "type": "address"
        },
        {
          "indexed": false,
          "internalType": "bool",
          "name": "approved",
          "type": "bool"
        }
      ],
      "name": "ApprovalForAll",
      "type": "event"
    },
    {
      "anonymous": false,
      "inputs": [
        {
          "indexed": false,
          "internalType": "uint256",
          "name": "id",
          "type": "uint256"
        }
      ],
      "name": "CreatePolitician",
      "type": "event"
    },
    {
      "anonymous": false,
      "inputs": [
        {
          "indexed": true,
          "internalType": "address",
          "name": "previousOwner",
          "type": "address"
        },
        {
          "indexed": true,
          "internalType": "address",
          "name": "newOwner",
          "type": "address"
        }
      ],
      "name": "OwnershipTransferred",
      "type": "event"
    },
    {
      "anonymous": false,
      "inputs": [
        {
          "indexed": false,
          "internalType": "address",
          "name": "owner",
          "type": "address"
        },
        {
          "indexed": false,
          "internalType": "uint256",
          "name": "id",
          "type": "uint256"
        }
      ],
      "name": "PoliticianBuy",
      "type": "event"
    },
    {
      "anonymous": false,
      "inputs": [
        {
          "indexed": true,
          "internalType": "address",
          "name": "from",
          "type": "address"
        },
        {
          "indexed": true,
          "internalType": "address",
          "name": "to",
          "type": "address"
        },
        {
          "indexed": true,
          "internalType": "uint256",
          "name": "tokenId",
          "type": "uint256"
        }
      ],
      "name": "Transfer",
      "type": "event"
    },
    {
      "inputs": [
        {
          "internalType": "address",
          "name": "to",
          "type": "address"
        },
        {
          "internalType": "uint256",
          "name": "tokenId",
          "type": "uint256"
        }
      ],
      "name": "approve",
      "outputs": [],
      "stateMutability": "nonpayable",
      "type": "function"
    },
    {
      "inputs": [
        {
          "internalType": "address",
          "name": "owner",
          "type": "address"
        }
      ],
      "name": "balanceOf",
      "outputs": [
        {
          "internalType": "uint256",
          "name": "",
          "type": "uint256"
        }
      ],
      "stateMutability": "view",
      "type": "function"
    },
    {
      "inputs": [
        {
          "internalType": "uint256",
          "name": "_id",
          "type": "uint256"
        }
      ],
      "name": "buy",
      "outputs": [],
      "stateMutability": "payable",
      "type": "function"
    },
    {
      "inputs": [],
      "name": "contractAddress",
      "outputs": [
        {
          "internalType": "address payable",
          "name": "",
          "type": "address"
        }
      ],
      "stateMutability": "view",
      "type": "function"
    },
    {
      "inputs": [
        {
          "internalType": "uint256",
          "name": "_id",
          "type": "uint256"
        },
        {
          "internalType": "uint256",
          "name": "_price",
          "type": "uint256"
        },
        {
          "internalType": "uint256",
          "name": "_qty",
          "type": "uint256"
        },
        {
          "internalType": "bool",
          "name": "_lottery",
          "type": "bool"
        },
        {
          "internalType": "string",
          "name": "_tokenUri",
          "type": "string"
        }
      ],
      "name": "create",
      "outputs": [],
      "stateMutability": "nonpayable",
      "type": "function"
    },
    {
      "inputs": [
        {
          "internalType": "uint256",
          "name": "tokenId",
          "type": "uint256"
        }
      ],
      "name": "getApproved",
      "outputs": [
        {
          "internalType": "address",
          "name": "",
          "type": "address"
        }
      ],
      "stateMutability": "view",
      "type": "function"
    },
    {
      "inputs": [
        {
          "internalType": "address",
          "name": "owner",
          "type": "address"
        },
        {
          "internalType": "address",
          "name": "operator",
          "type": "address"
        }
      ],
      "name": "isApprovedForAll",
      "outputs": [
        {
          "internalType": "bool",
          "name": "",
          "type": "bool"
        }
      ],
      "stateMutability": "view",
      "type": "function"
    },
    {
      "inputs": [],
      "name": "name",
      "outputs": [
        {
          "internalType": "string",
          "name": "",
          "type": "string"
        }
      ],
      "stateMutability": "view",
      "type": "function"
    },
    {
      "inputs": [
        {
          "internalType": "address",
          "name": "",
          "type": "address"
        },
        {
          "internalType": "address",
          "name": "",
          "type": "address"
        },
        {
          "internalType": "uint256",
          "name": "",
          "type": "uint256"
        },
        {
          "internalType": "bytes",
          "name": "",
          "type": "bytes"
        }
      ],
      "name": "onERC721Received",
      "outputs": [
        {
          "internalType": "bytes4",
          "name": "",
          "type": "bytes4"
        }
      ],
      "stateMutability": "nonpayable",
      "type": "function"
    },
    {
      "inputs": [],
      "name": "owner",
      "outputs": [
        {
          "internalType": "address",
          "name": "",
          "type": "address"
        }
      ],
      "stateMutability": "view",
      "type": "function"
    },
    {
      "inputs": [],
      "name": "ownerAddress",
      "outputs": [
        {
          "internalType": "address payable",
          "name": "",
          "type": "address"
        }
      ],
      "stateMutability": "view",
      "type": "function"
    },
    {
      "inputs": [
        {
          "internalType": "uint256",
          "name": "tokenId",
          "type": "uint256"
        }
      ],
      "name": "ownerOf",
      "outputs": [
        {
          "internalType": "address",
          "name": "",
          "type": "address"
        }
      ],
      "stateMutability": "view",
      "type": "function"
    },
    {
      "inputs": [],
      "name": "renounceOwnership",
      "outputs": [],
      "stateMutability": "nonpayable",
      "type": "function"
    },
    {
      "inputs": [
        {
          "internalType": "address",
          "name": "from",
          "type": "address"
        },
        {
          "internalType": "address",
          "name": "to",
          "type": "address"
        },
        {
          "internalType": "uint256",
          "name": "tokenId",
          "type": "uint256"
        }
      ],
      "name": "safeTransferFrom",
      "outputs": [],
      "stateMutability": "nonpayable",
      "type": "function"
    },
    {
      "inputs": [
        {
          "internalType": "address",
          "name": "from",
          "type": "address"
        },
        {
          "internalType": "address",
          "name": "to",
          "type": "address"
        },
        {
          "internalType": "uint256",
          "name": "tokenId",
          "type": "uint256"
        },
        {
          "internalType": "bytes",
          "name": "_data",
          "type": "bytes"
        }
      ],
      "name": "safeTransferFrom",
      "outputs": [],
      "stateMutability": "nonpayable",
      "type": "function"
    },
    {
      "inputs": [
        {
          "internalType": "address",
          "name": "operator",
          "type": "address"
        },
        {
          "internalType": "bool",
          "name": "approved",
          "type": "bool"
        }
      ],
      "name": "setApprovalForAll",
      "outputs": [],
      "stateMutability": "nonpayable",
      "type": "function"
    },
    {
      "inputs": [
        {
          "internalType": "bytes4",
          "name": "interfaceId",
          "type": "bytes4"
        }
      ],
      "name": "supportsInterface",
      "outputs": [
        {
          "internalType": "bool",
          "name": "",
          "type": "bool"
        }
      ],
      "stateMutability": "view",
      "type": "function"
    },
    {
      "inputs": [],
      "name": "symbol",
      "outputs": [
        {
          "internalType": "string",
          "name": "",
          "type": "string"
        }
      ],
      "stateMutability": "view",
      "type": "function"
    },
    {
      "inputs": [
        {
          "internalType": "uint256",
          "name": "tokenId",
          "type": "uint256"
        }
      ],
      "name": "tokenURI",
      "outputs": [
        {
          "internalType": "string",
          "name": "",
          "type": "string"
        }
      ],
      "stateMutability": "view",
      "type": "function"
    },
    {
      "inputs": [
        {
          "internalType": "address",
          "name": "newOwner",
          "type": "address"
        }
      ],
      "name": "transferOwnership",
      "outputs": [],
      "stateMutability": "nonpayable",
      "type": "function"
    },
    {
      "inputs": [
        {
          "internalType": "uint256",
          "name": "_id",
          "type": "uint256"
        }
      ],
      "name": "getPoliticQty",
      "outputs": [
        {
          "internalType": "uint256",
          "name": "",
          "type": "uint256"
        }
      ],
      "stateMutability": "view",
      "type": "function"
    },
    {
      "inputs": [],
      "name": "getMyPolitics",
      "outputs": [
        {
          "components": [
            {
              "internalType": "uint256",
              "name": "id",
              "type": "uint256"
            },
            {
              "internalType": "uint256",
              "name": "id_politic",
              "type": "uint256"
            },
            {
              "internalType": "address",
              "name": "owner",
              "type": "address"
            }
          ],
          "internalType": "struct Collectible.PoliticsOwned[]",
          "name": "",
          "type": "tuple[]"
        }
      ],
      "stateMutability": "view",
      "type": "function"
    },
    {
      "inputs": [
        {
          "internalType": "uint256",
          "name": "_id",
          "type": "uint256"
        },
        {
          "internalType": "uint256",
          "name": "_qty",
          "type": "uint256"
        }
      ],
      "name": "addQty",
      "outputs": [],
      "stateMutability": "nonpayable",
      "type": "function"
    },
    {
      "inputs": [
        {
          "internalType": "address",
          "name": "from",
          "type": "address"
        },
        {
          "internalType": "address",
          "name": "to",
          "type": "address"
        },
        {
          "internalType": "uint256",
          "name": "tokenId",
          "type": "uint256"
        }
      ],
      "name": "transferFrom",
      "outputs": [],
      "stateMutability": "nonpayable",
      "type": "function"
    }
  ],
  "bytecode": "0x60806040526001600e553480156200001657600080fd5b50604080518082018252600b81527f506f6c69746963734e667400000000000000000000000000000000000000000060208083019182528351808501909452600384527f504f4c0000000000000000000000000000000000000000000000000000000000908401528151919291620000919160009162000152565b508051620000a790600190602084019062000152565b505050620000d6620000c7620000fc640100000000026401000000009004565b64010000000062000100810204565b600c8054600160a060020a03199081163317909155600d8054909116301790556200024e565b3390565b60078054600160a060020a03838116600160a060020a0319831681179093556040519116919082907f8be0079c531659141344cd1fd0a4f28419497f9722a3daafe3b4186f6b6457e090600090a35050565b8280546200016090620001f8565b90600052602060002090601f016020900481019282620001845760008555620001cf565b82601f106200019f57805160ff1916838001178555620001cf565b82800160010185558215620001cf579182015b82811115620001cf578251825591602001919060010190620001b2565b50620001dd929150620001e1565b5090565b5b80821115620001dd5760008155600101620001e2565b6002810460018216806200020d57607f821691505b6020821081141562000248577f4e487b7100000000000000000000000000000000000000000000000000000000600052602260045260246000fd5b50919050565b612783806200025e6000396000f3fe608060405260043610610167576000357c0100000000000000000000000000000000000000000000000000000000900480638da5cb5b116100d3578063c87b56dd1161008c578063c87b56dd146103ee578063d96a094a1461040e578063de7f558714610421578063e985e9c514610441578063f2fde38b1461048a578063f6b4dfb4146104aa57600080fd5b80638da5cb5b1461033b5780638f84aa091461035957806395d89b4114610379578063a22cb4651461038e578063b88d4fde146103ae578063b9db1c98146103ce57600080fd5b806323b872dd1161012557806323b872dd1461027657806342842e0e146102965780636352211e146102b657806370a08231146102d6578063715018a61461030457806385d334361461031957600080fd5b80626954751461016c57806301ffc9a71461018e57806306fdde03146101c3578063081812fc146101e5578063095ea7b31461021d578063150b7a021461023d575b600080fd5b34801561017857600080fd5b5061018c61018736600461236d565b6104ca565b005b34801561019a57600080fd5b506101ae6101a93660046122f8565b61063d565b60405190151581526020015b60405180910390f35b3480156101cf57600080fd5b506101d86106da565b6040516101ba91906124e5565b3480156101f157600080fd5b50610205610200366004612332565b61076c565b604051600160a060020a0390911681526020016101ba565b34801561022957600080fd5b5061018c6102383660046122ce565b610808565b34801561024957600080fd5b5061025d610258366004612228565b610940565b604051600160e060020a031990911681526020016101ba565b34801561028257600080fd5b5061018c6102913660046121ec565b61096a565b3480156102a257600080fd5b5061018c6102b13660046121ec565b610997565b3480156102c257600080fd5b506102056102d1366004612332565b6109b2565b3480156102e257600080fd5b506102f66102f136600461219e565b610a40565b6040519081526020016101ba565b34801561031057600080fd5b5061018c610add565b34801561032557600080fd5b5061032e610b16565b6040516101ba9190612483565b34801561034757600080fd5b50600754600160a060020a0316610205565b34801561036557600080fd5b50600c5461020590600160a060020a031681565b34801561038557600080fd5b506101d8610ba3565b34801561039a57600080fd5b5061018c6103a93660046122a4565b610bb2565b3480156103ba57600080fd5b5061018c6103c9366004612228565b610c7a565b3480156103da57600080fd5b5061018c6103e936600461234b565b610d0b565b3480156103fa57600080fd5b506101d8610409366004612332565b610d7e565b61018c61041c366004612332565b610efc565b34801561042d57600080fd5b506102f661043c366004612332565b6112eb565b34801561044d57600080fd5b506101ae61045c3660046121b9565b600160a060020a03918216600090815260056020908152604080832093909416825291909152205460ff1690565b34801561049657600080fd5b5061018c6104a536600461219e565b611365565b3480156104b657600080fd5b50600d5461020590600160a060020a031681565b600754600160a060020a031633146105005760405160e560020a62461bcd0281526004016104f790612555565b60405180910390fd5b60008581526008602052604090206004015460ff16156105655760405160e560020a62461bcd02815260206004820152601160248201527f696420616c726561647920696e2075736500000000000000000000000000000060448201526064016104f7565b6040805160a08101825286815260208082018781528515158385019081526060840186815260016080860181905260008c8152600a86528781208b90556008865296909620855181559251958301959095555160028201805460ff1916911515919091179055925180519293849390926105e692600385019291019061201a565b50608091909101516004909101805460ff19169115159190911790556040518681527ff00c522f13522af224c59f918a8375598b0362237c9cc8b4edb44f599cf0f3d69060200160405180910390a1505050505050565b6000600160e060020a031982167f80ac58cd0000000000000000000000000000000000000000000000000000000014806106a05750600160e060020a031982167f5b5e139f00000000000000000000000000000000000000000000000000000000145b806106d457507f01ffc9a700000000000000000000000000000000000000000000000000000000600160e060020a03198316145b92915050565b6060600080546106e990612666565b80601f016020809104026020016040519081016040528092919081815260200182805461071590612666565b80156107625780601f1061073757610100808354040283529160200191610762565b820191906000526020600020905b81548152906001019060200180831161074557829003601f168201915b5050505050905090565b60006107778261141d565b6107ec5760405160e560020a62461bcd02815260206004820152602c60248201527f4552433732313a20617070726f76656420717565727920666f72206e6f6e657860448201527f697374656e7420746f6b656e000000000000000000000000000000000000000060648201526084016104f7565b50600090815260046020526040902054600160a060020a031690565b6000610813826109b2565b905080600160a060020a031683600160a060020a031614156108a05760405160e560020a62461bcd02815260206004820152602160248201527f4552433732313a20617070726f76616c20746f2063757272656e74206f776e6560448201527f720000000000000000000000000000000000000000000000000000000000000060648201526084016104f7565b33600160a060020a03821614806108bc57506108bc813361045c565b6109315760405160e560020a62461bcd02815260206004820152603860248201527f4552433732313a20617070726f76652063616c6c6572206973206e6f74206f7760448201527f6e6572206e6f7220617070726f76656420666f7220616c6c000000000000000060648201526084016104f7565b61093b838361143a565b505050565b7f150b7a02000000000000000000000000000000000000000000000000000000005b949350505050565b600754600160a060020a0316331461093b5760405160e560020a62461bcd0281526004016104f790612555565b61093b83838360405180602001604052806000815250610c7a565b600081815260026020526040812054600160a060020a0316806106d45760405160e560020a62461bcd02815260206004820152602960248201527f4552433732313a206f776e657220717565727920666f72206e6f6e657869737460448201527f656e7420746f6b656e000000000000000000000000000000000000000000000060648201526084016104f7565b6000600160a060020a038216610ac15760405160e560020a62461bcd02815260206004820152602a60248201527f4552433732313a2062616c616e636520717565727920666f7220746865207a6560448201527f726f20616464726573730000000000000000000000000000000000000000000060648201526084016104f7565b50600160a060020a031660009081526003602052604090205490565b600754600160a060020a03163314610b0a5760405160e560020a62461bcd0281526004016104f790612555565b610b1460006114a8565b565b336000908152600960209081526040808320805482518185028101850190935280835260609492939192909184015b82821015610b9a57600084815260209081902060408051606081018252600386029092018054835260018082015484860152600290910154600160a060020a0316918301919091529083529092019101610b45565b50505050905090565b6060600180546106e990612666565b600160a060020a038216331415610c0e5760405160e560020a62461bcd02815260206004820152601960248201527f4552433732313a20617070726f766520746f2063616c6c65720000000000000060448201526064016104f7565b336000818152600560209081526040808320600160a060020a03871680855290835292819020805460ff191686151590811790915590519081529192917f17307eab39ab6107e8899845ad3d59bd9653f200f220920489ca2b5937696c31910160405180910390a35050565b610c8433836114fa565b610cf95760405160e560020a62461bcd02815260206004820152603160248201527f4552433732313a207472616e736665722063616c6c6572206973206e6f74206f60448201527f776e6572206e6f7220617070726f76656400000000000000000000000000000060648201526084016104f7565b610d05848484846115f4565b50505050565b600754600160a060020a03163314610d385760405160e560020a62461bcd0281526004016104f790612555565b60008281526008602052604090206004015460ff16610d6c5760405160e560020a62461bcd0281526004016104f79061258a565b6000918252600a602052604090912055565b6060610d898261141d565b610dfe5760405160e560020a62461bcd02815260206004820152603160248201527f45524337323155524953746f726167653a2055524920717565727920666f722060448201527f6e6f6e6578697374656e7420746f6b656e00000000000000000000000000000060648201526084016104f7565b60008281526006602052604081208054610e1790612666565b80601f0160208091040260200160405190810160405280929190818152602001828054610e4390612666565b8015610e905780601f10610e6557610100808354040283529160200191610e90565b820191906000526020600020905b815481529060010190602001808311610e7357829003601f168201915b505050505090506000610eae60408051602081019091526000815290565b9050805160001415610ec1575092915050565b815115610ef3578082604051602001610edb929190612418565b60405160208183030381529060405292505050919050565b6109628461162a565b60008181526008602052604090206004015460ff16610f305760405160e560020a62461bcd0281526004016104f79061258a565b60008181526008602052604090206002015460ff1615610fbb5760405160e560020a62461bcd02815260206004820152602360248201527f506f6c69746963206f6e6c7920617661696c61626c652077697468206c6f747460448201527f657279000000000000000000000000000000000000000000000000000000000060648201526084016104f7565b6000818152600a602052604090205461103f5760405160e560020a62461bcd02815260206004820152602260248201527f5468657265206973206e6f206d6f726520706f6c6974696320617661696c616260448201527f6c6500000000000000000000000000000000000000000000000000000000000060648201526084016104f7565b6000818152600860205260409020600101546103e89061106790670de0b6b3a76400006125ed565b61107191906125d9565b34146110c25760405160e560020a62461bcd02815260206004820152601060248201527f496e636f727265637420616d6f756e740000000000000000000000000000000060448201526064016104f7565b6000818152600a602052604081208054916110dc8361264f565b9091555050600e5460408051602080820193909352336c010000000000000000000000000281830152815160348183030181526054909101909152805191012060009061112f906402540be400906126bf565b600e80549192506000611141836126a4565b9091555050600c54604051600160a060020a03909116903480156108fc02916000818181858888f1935050505015801561117f573d6000803e3d6000fd5b5061118a3382611713565b6000828152600860205260409020600301805461122f9183916111ac90612666565b80601f01602080910402602001604051908101604052809291908181526020018280546111d890612666565b80156112255780601f106111fa57610100808354040283529160200191611225565b820191906000526020600020905b81548152906001019060200180831161120857829003601f168201915b5050505050611731565b604080516060810182528281526020808201858152338385018181526000828152600985528681208054600180820183559183528683208851600390920201908155945190850155905160029093018054600160a060020a03909416600160a060020a0319948516179055868152600b845285902080549092168117909155835190815290810184905290917f0f1f73114dcf85af6f6506a86f3b42cdc8af0e4d37ca5130270465cd9c358223910160405180910390a1505050565b600754600090600160a060020a0316331461131b5760405160e560020a62461bcd0281526004016104f790612555565b60008281526008602052604090206004015460ff1661134f5760405160e560020a62461bcd0281526004016104f79061258a565b506000818152600a60205260409020545b919050565b600754600160a060020a031633146113925760405160e560020a62461bcd0281526004016104f790612555565b600160a060020a0381166114115760405160e560020a62461bcd02815260206004820152602660248201527f4f776e61626c653a206e6577206f776e657220697320746865207a65726f206160448201527f646472657373000000000000000000000000000000000000000000000000000060648201526084016104f7565b61141a816114a8565b50565b600090815260026020526040902054600160a060020a0316151590565b60008181526004602052604090208054600160a060020a031916600160a060020a038416908117909155819061146f826109b2565b600160a060020a03167f8c5be1e5ebec7d5bd14f71427d1e84f3dd0314c0f7b2291e5b200ac8c7c3b92560405160405180910390a45050565b60078054600160a060020a03838116600160a060020a0319831681179093556040519116919082907f8be0079c531659141344cd1fd0a4f28419497f9722a3daafe3b4186f6b6457e090600090a35050565b60006115058261141d565b61157a5760405160e560020a62461bcd02815260206004820152602c60248201527f4552433732313a206f70657261746f7220717565727920666f72206e6f6e657860448201527f697374656e7420746f6b656e000000000000000000000000000000000000000060648201526084016104f7565b6000611585836109b2565b905080600160a060020a031684600160a060020a031614806115c0575083600160a060020a03166115b58461076c565b600160a060020a0316145b806109625750600160a060020a0380821660009081526005602090815260408083209388168352929052205460ff16610962565b6115ff8484846117ce565b61160b848484846119ac565b610d055760405160e560020a62461bcd0281526004016104f7906124f8565b60606116358261141d565b6116aa5760405160e560020a62461bcd02815260206004820152602f60248201527f4552433732314d657461646174613a2055524920717565727920666f72206e6f60448201527f6e6578697374656e7420746f6b656e000000000000000000000000000000000060648201526084016104f7565b60006116c160408051602081019091526000815290565b905060008151116116e1576040518060200160405280600081525061170c565b806116eb84611aeb565b6040516020016116fc929190612418565b6040516020818303038152906040525b9392505050565b61172d828260405180602001604052806000815250611c3c565b5050565b61173a8261141d565b6117af5760405160e560020a62461bcd02815260206004820152602e60248201527f45524337323155524953746f726167653a2055524920736574206f66206e6f6e60448201527f6578697374656e7420746f6b656e00000000000000000000000000000000000060648201526084016104f7565b6000828152600660209081526040909120825161093b9284019061201a565b82600160a060020a03166117e1826109b2565b600160a060020a0316146118605760405160e560020a62461bcd02815260206004820152602960248201527f4552433732313a207472616e73666572206f6620746f6b656e2074686174206960448201527f73206e6f74206f776e000000000000000000000000000000000000000000000060648201526084016104f7565b600160a060020a0382166118de5760405160e560020a62461bcd028152602060048201526024808201527f4552433732313a207472616e7366657220746f20746865207a65726f2061646460448201527f726573730000000000000000000000000000000000000000000000000000000060648201526084016104f7565b6118e9838383611c72565b6118f460008261143a565b600160a060020a038316600090815260036020526040812080546001929061191d90849061260c565b9091555050600160a060020a038216600090815260036020526040812080546001929061194b9084906125c1565b90915550506000818152600260205260408082208054600160a060020a031916600160a060020a0386811691821790925591518493918716917fddf252ad1be2c89b69c2b068fc378daa952ba7f163c4a11628f55a4df523b3ef91a4505050565b6000600160a060020a0384163b15611ae3576040517f150b7a02000000000000000000000000000000000000000000000000000000008152600160a060020a0385169063150b7a0290611a09903390899088908890600401612447565b602060405180830381600087803b158015611a2357600080fd5b505af1925050508015611a53575060408051601f3d908101601f19168201909252611a5091810190612315565b60015b611ab0573d808015611a81576040519150601f19603f3d011682016040523d82523d6000602084013e611a86565b606091505b508051611aa85760405160e560020a62461bcd0281526004016104f7906124f8565b805181602001fd5b600160e060020a0319167f150b7a0200000000000000000000000000000000000000000000000000000000149050610962565b506001610962565b606081611b2b57505060408051808201909152600181527f3000000000000000000000000000000000000000000000000000000000000000602082015290565b8160005b8115611b555780611b3f816126a4565b9150611b4e9050600a836125d9565b9150611b2f565b60008167ffffffffffffffff811115611b7057611b7061271e565b6040519080825280601f01601f191660200182016040528015611b9a576020820181803683370190505b5090505b841561096257611baf60018361260c565b9150611bbc600a866126bf565b611bc79060306125c1565b7f010000000000000000000000000000000000000000000000000000000000000002818381518110611bfb57611bfb612705565b60200101907effffffffffffffffffffffffffffffffffffffffffffffffffffffffffffff1916908160001a905350611c35600a866125d9565b9450611b9e565b611c468383611ed5565b611c5360008484846119ac565b61093b5760405160e560020a62461bcd0281526004016104f7906124f8565b600160a060020a038316600090815260096020908152604080832080548251818502810185019093528083529192909190849084015b82821015611cfd57600084815260209081902060408051606081018252600386029092018054835260018082015484860152600290910154600160a060020a0316918301919091529083529092019101611ca8565b505050600160a060020a0386166000908152600960205260408120929350611d2692915061209e565b60005b8151811015611ea45782828281518110611d4557611d45612705565b60200260200101516000015114611de357600160a060020a03851660009081526009602052604090208251839083908110611d8257611d82612705565b6020908102919091018101518254600180820185556000948552938390208251600390920201908155918101519282019290925560409091015160029091018054600160a060020a031916600160a060020a03909216919091179055611e92565b83828281518110611df657611df6612705565b602090810291909101810151600160a060020a0392831660409182015291861660009081526009909152208251839083908110611e3557611e35612705565b6020908102919091018101518254600180820185556000948552938390208251600390920201908155918101519282019290925560409091015160029091018054600160a060020a031916600160a060020a039092169190911790555b80611e9c816126a4565b915050611d29565b50506000908152600b602052604090208054600160a060020a031916600160a060020a039290921691909117905550565b600160a060020a038216611f2e5760405160e560020a62461bcd02815260206004820181905260248201527f4552433732313a206d696e7420746f20746865207a65726f206164647265737360448201526064016104f7565b611f378161141d565b15611f875760405160e560020a62461bcd02815260206004820152601c60248201527f4552433732313a20746f6b656e20616c7265616479206d696e7465640000000060448201526064016104f7565b611f9360008383611c72565b600160a060020a0382166000908152600360205260408120805460019290611fbc9084906125c1565b90915550506000818152600260205260408082208054600160a060020a031916600160a060020a03861690811790915590518392907fddf252ad1be2c89b69c2b068fc378daa952ba7f163c4a11628f55a4df523b3ef908290a45050565b82805461202690612666565b90600052602060002090601f016020900481019282612048576000855561208e565b82601f1061206157805160ff191683800117855561208e565b8280016001018555821561208e579182015b8281111561208e578251825591602001919060010190612073565b5061209a9291506120bf565b5090565b508054600082556003029060005260206000209081019061141a91906120d4565b5b8082111561209a57600081556001016120c0565b5b8082111561209a5760008082556001820155600281018054600160a060020a03191690556003016120d5565b600067ffffffffffffffff8084111561211c5761211c61271e565b604051601f8501601f19908116603f011681019082821181831017156121445761214461271e565b8160405280935085815286868601111561215d57600080fd5b858560208301376000602087830101525050509392505050565b8035600160a060020a038116811461136057600080fd5b8035801515811461136057600080fd5b6000602082840312156121b057600080fd5b61170c82612177565b600080604083850312156121cc57600080fd5b6121d583612177565b91506121e360208401612177565b90509250929050565b60008060006060848603121561220157600080fd5b61220a84612177565b925061221860208501612177565b9150604084013590509250925092565b6000806000806080858703121561223e57600080fd5b61224785612177565b935061225560208601612177565b925060408501359150606085013567ffffffffffffffff81111561227857600080fd5b8501601f8101871361228957600080fd5b61229887823560208401612101565b91505092959194509250565b600080604083850312156122b757600080fd5b6122c083612177565b91506121e36020840161218e565b600080604083850312156122e157600080fd5b6122ea83612177565b946020939093013593505050565b60006020828403121561230a57600080fd5b813561170c81612737565b60006020828403121561232757600080fd5b815161170c81612737565b60006020828403121561234457600080fd5b5035919050565b6000806040838503121561235e57600080fd5b50508035926020909101359150565b600080600080600060a0868803121561238557600080fd5b8535945060208601359350604086013592506123a36060870161218e565b9150608086013567ffffffffffffffff8111156123bf57600080fd5b8601601f810188136123d057600080fd5b6123df88823560208401612101565b9150509295509295909350565b60008151808452612404816020860160208601612623565b601f01601f19169290920160200192915050565b6000835161242a818460208801612623565b83519083019061243e818360208801612623565b01949350505050565b6000600160a060020a0380871683528086166020840152508360408301526080606083015261247960808301846123ec565b9695505050505050565b602080825282518282018190526000919060409081850190868401855b828110156124d8578151805185528681015187860152850151600160a060020a031685850152606090930192908501906001016124a0565b5091979650505050505050565b60208152600061170c60208301846123ec565b60208082526032908201527f4552433732313a207472616e7366657220746f206e6f6e20455243373231526560408201527f63656976657220696d706c656d656e7465720000000000000000000000000000606082015260800190565b6020808252818101527f4f776e61626c653a2063616c6c6572206973206e6f7420746865206f776e6572604082015260600190565b60208082526011908201527f506f6c69746963206e6f7420666f756e64000000000000000000000000000000604082015260600190565b600082198211156125d4576125d46126d3565b500190565b6000826125e8576125e86126ec565b500490565b6000816000190483118215151615612607576126076126d3565b500290565b60008282101561261e5761261e6126d3565b500390565b60005b8381101561263e578181015183820152602001612626565b83811115610d055750506000910152565b60008161265e5761265e6126d3565b506000190190565b60028104600182168061267a57607f821691505b6020821081141561269e5760e060020a634e487b7102600052602260045260246000fd5b50919050565b60006000198214156126b8576126b86126d3565b5060010190565b6000826126ce576126ce6126ec565b500690565b60e060020a634e487b7102600052601160045260246000fd5b60e060020a634e487b7102600052601260045260246000fd5b60e060020a634e487b7102600052603260045260246000fd5b60e060020a634e487b7102600052604160045260246000fd5b600160e060020a03198116811461141a57600080fdfea2646970667358221220fa4765bbd8e95145825e72bb0bd690d3e7fb77072ffe359ea4c3527423c945be64736f6c63430008070033",
  "immutableReferences": {},
  "source": "// SPDX-License-Identifier: MIT\n\npragma solidity ^0.8.0;\n\nimport \"./Collectible.sol\";\n\n/**\n* @title ERC721 collectible utils methods\n* @author Youness Chetoui\n*/\ncontract CollectibleUtils is Collectible {\n\n    /**\n    * @notice get qty of politician available\n    * @param _id PoliticsAvailable\n    * @return uint256\n    */\n    function getPoliticQty(uint256 _id) public view onlyOwner returns (uint256) {\n        require(politicsAvailable[_id].created, \"Politic not found\");\n        return politicsAvailableQty[_id];\n    }\n\n    /**\n    * @notice Get politician by user\n    * @return array of struct PoliticsOwned\n    */\n    function getMyPolitics() public view returns (PoliticsOwned[] memory) {\n        return userOwnedPolitics[msg.sender];\n    }\n\n    /**\n    * @notice Add quantity for a PoliticsAvailable\n    * @param _id of PoliticsAvailable and _qty wished\n    */\n    function addQty(uint256 _id, uint256 _qty) public onlyOwner {\n        require(politicsAvailable[_id].created, \"Politic not found\");\n        politicsAvailableQty[_id] = _qty;\n    }\n\n    /**\n    * @notice Disabled not safe transform\n    */\n    function transferFrom(\n        address from,\n        address to,\n        uint256 tokenId\n    ) public override onlyOwner {\n        //do nothing\n    }\n\n    function _beforeTokenTransfer(\n        address from,\n        address to,\n        uint256 tokenId\n    ) internal override {\n        PoliticsOwned[] memory politicsFrom = userOwnedPolitics[from];\n        delete userOwnedPolitics[from];\n        for (uint i = 0; i < politicsFrom.length; i++) {\n            if (politicsFrom[i].id != tokenId) {\n                userOwnedPolitics[from].push(politicsFrom[i]);\n\n            } else {\n                politicsFrom[i].owner = to;\n                userOwnedPolitics[to].push(politicsFrom[i]);\n            }\n        }\n\n        politicToUser[tokenId] = to;\n    }\n}\n",
  "sourcePath": "/home/youness/Crypto/PoliticsCollectible/contracts/CollectibleUtils.sol",
  "compiler": {
    "name": "solc",
    "version": "0.8.7+commit.e28d00a7.Emscripten.clang"
  },
  "schemaVersion": "3.4.3",
  "updatedAt": "2021-09-07T08:49:39.360Z",
  "devdoc": {
    "author": "Youness Chetoui",
    "kind": "dev",
    "methods": {
      "addQty(uint256,uint256)": {
        "params": {
          "_id": "of PoliticsAvailable and _qty wished"
        }
      },
      "approve(address,uint256)": {
        "details": "See {IERC721-approve}."
      },
      "balanceOf(address)": {
        "details": "See {IERC721-balanceOf}."
      },
      "buy(uint256)": {
        "params": {
          "_id": ", _tokenUri of politician available"
        }
      },
      "create(uint256,uint256,uint256,bool,string)": {
        "params": {
          "_id": ", _qty, _price and _lottery of politician available"
        }
      },
      "getApproved(uint256)": {
        "details": "See {IERC721-getApproved}."
      },
      "getMyPolitics()": {
        "returns": {
          "_0": "array of struct PoliticsOwned"
        }
      },
      "getPoliticQty(uint256)": {
        "params": {
          "_id": "PoliticsAvailable"
        },
        "returns": {
          "_0": "uint256"
        }
      },
      "isApprovedForAll(address,address)": {
        "details": "See {IERC721-isApprovedForAll}."
      },
      "name()": {
        "details": "See {IERC721Metadata-name}."
      },
      "onERC721Received(address,address,uint256,bytes)": {
        "details": "See {IERC721Receiver-onERC721Received}. Always returns `IERC721Receiver.onERC721Received.selector`."
      },
      "owner()": {
        "details": "Returns the address of the current owner."
      },
      "ownerOf(uint256)": {
        "details": "See {IERC721-ownerOf}."
      },
      "renounceOwnership()": {
        "details": "Leaves the contract without owner. It will not be possible to call `onlyOwner` functions anymore. Can only be called by the current owner. NOTE: Renouncing ownership will leave the contract without an owner, thereby removing any functionality that is only available to the owner."
      },
      "safeTransferFrom(address,address,uint256)": {
        "details": "See {IERC721-safeTransferFrom}."
      },
      "safeTransferFrom(address,address,uint256,bytes)": {
        "details": "See {IERC721-safeTransferFrom}."
      },
      "setApprovalForAll(address,bool)": {
        "details": "See {IERC721-setApprovalForAll}."
      },
      "supportsInterface(bytes4)": {
        "details": "See {IERC165-supportsInterface}."
      },
      "symbol()": {
        "details": "See {IERC721Metadata-symbol}."
      },
      "tokenURI(uint256)": {
        "details": "See {IERC721Metadata-tokenURI}."
      },
      "transferOwnership(address)": {
        "details": "Transfers ownership of the contract to a new account (`newOwner`). Can only be called by the current owner."
      }
    },
    "title": "ERC721 collectible utils methods",
    "version": 1
  },
  "userdoc": {
    "kind": "user",
    "methods": {
      "addQty(uint256,uint256)": {
        "notice": "Add quantity for a PoliticsAvailable"
      },
      "buy(uint256)": {
        "notice": "Buy politician"
      },
      "create(uint256,uint256,uint256,bool,string)": {
        "notice": "Create politician"
      },
      "getMyPolitics()": {
        "notice": "Get politician by user"
      },
      "getPoliticQty(uint256)": {
        "notice": "get qty of politician available"
      },
      "transferFrom(address,address,uint256)": {
        "notice": "Disabled not safe transform"
      }
    },
    "version": 1
  }
}