{
  "contractName": "Collectible",
  "abi": [
    {
      "inputs": [],
      "stateMutability": "nonpayable",
      "type": "constructor"
    },
    {
      "anonymous": false,
      "inputs": [
        {
          "indexed": true,
          "internalType": "address",
          "name": "owner",
          "type": "address"
        },
        {
          "indexed": true,
          "internalType": "address",
          "name": "approved",
          "type": "address"
        },
        {
          "indexed": true,
          "internalType": "uint256",
          "name": "tokenId",
          "type": "uint256"
        }
      ],
      "name": "Approval",
      "type": "event"
    },
    {
      "anonymous": false,
      "inputs": [
        {
          "indexed": true,
          "internalType": "address",
          "name": "owner",
          "type": "address"
        },
        {
          "indexed": true,
          "internalType": "address",
          "name": "operator",
          "type": "address"
        },
        {
          "indexed": false,
          "internalType": "bool",
          "name": "approved",
          "type": "bool"
        }
      ],
      "name": "ApprovalForAll",
      "type": "event"
    },
    {
      "anonymous": false,
      "inputs": [
        {
          "indexed": true,
          "internalType": "address",
          "name": "previousOwner",
          "type": "address"
        },
        {
          "indexed": true,
          "internalType": "address",
          "name": "newOwner",
          "type": "address"
        }
      ],
      "name": "OwnershipTransferred",
      "type": "event"
    },
    {
      "anonymous": false,
      "inputs": [
        {
          "indexed": true,
          "internalType": "address",
          "name": "from",
          "type": "address"
        },
        {
          "indexed": true,
          "internalType": "address",
          "name": "to",
          "type": "address"
        },
        {
          "indexed": true,
          "internalType": "uint256",
          "name": "tokenId",
          "type": "uint256"
        }
      ],
      "name": "Transfer",
      "type": "event"
    },
    {
      "inputs": [
        {
          "internalType": "address",
          "name": "to",
          "type": "address"
        },
        {
          "internalType": "uint256",
          "name": "tokenId",
          "type": "uint256"
        }
      ],
      "name": "approve",
      "outputs": [],
      "stateMutability": "nonpayable",
      "type": "function"
    },
    {
      "inputs": [
        {
          "internalType": "address",
          "name": "owner",
          "type": "address"
        }
      ],
      "name": "balanceOf",
      "outputs": [
        {
          "internalType": "uint256",
          "name": "",
          "type": "uint256"
        }
      ],
      "stateMutability": "view",
      "type": "function"
    },
    {
      "inputs": [],
      "name": "contractAddress",
      "outputs": [
        {
          "internalType": "address payable",
          "name": "",
          "type": "address"
        }
      ],
      "stateMutability": "view",
      "type": "function"
    },
    {
      "inputs": [
        {
          "internalType": "uint256",
          "name": "tokenId",
          "type": "uint256"
        }
      ],
      "name": "getApproved",
      "outputs": [
        {
          "internalType": "address",
          "name": "",
          "type": "address"
        }
      ],
      "stateMutability": "view",
      "type": "function"
    },
    {
      "inputs": [
        {
          "internalType": "address",
          "name": "owner",
          "type": "address"
        },
        {
          "internalType": "address",
          "name": "operator",
          "type": "address"
        }
      ],
      "name": "isApprovedForAll",
      "outputs": [
        {
          "internalType": "bool",
          "name": "",
          "type": "bool"
        }
      ],
      "stateMutability": "view",
      "type": "function"
    },
    {
      "inputs": [],
      "name": "name",
      "outputs": [
        {
          "internalType": "string",
          "name": "",
          "type": "string"
        }
      ],
      "stateMutability": "view",
      "type": "function"
    },
    {
      "inputs": [
        {
          "internalType": "address",
          "name": "",
          "type": "address"
        },
        {
          "internalType": "address",
          "name": "",
          "type": "address"
        },
        {
          "internalType": "uint256",
          "name": "",
          "type": "uint256"
        },
        {
          "internalType": "bytes",
          "name": "",
          "type": "bytes"
        }
      ],
      "name": "onERC721Received",
      "outputs": [
        {
          "internalType": "bytes4",
          "name": "",
          "type": "bytes4"
        }
      ],
      "stateMutability": "nonpayable",
      "type": "function"
    },
    {
      "inputs": [],
      "name": "owner",
      "outputs": [
        {
          "internalType": "address",
          "name": "",
          "type": "address"
        }
      ],
      "stateMutability": "view",
      "type": "function"
    },
    {
      "inputs": [],
      "name": "ownerAddress",
      "outputs": [
        {
          "internalType": "address payable",
          "name": "",
          "type": "address"
        }
      ],
      "stateMutability": "view",
      "type": "function"
    },
    {
      "inputs": [
        {
          "internalType": "uint256",
          "name": "tokenId",
          "type": "uint256"
        }
      ],
      "name": "ownerOf",
      "outputs": [
        {
          "internalType": "address",
          "name": "",
          "type": "address"
        }
      ],
      "stateMutability": "view",
      "type": "function"
    },
    {
      "inputs": [],
      "name": "renounceOwnership",
      "outputs": [],
      "stateMutability": "nonpayable",
      "type": "function"
    },
    {
      "inputs": [
        {
          "internalType": "address",
          "name": "from",
          "type": "address"
        },
        {
          "internalType": "address",
          "name": "to",
          "type": "address"
        },
        {
          "internalType": "uint256",
          "name": "tokenId",
          "type": "uint256"
        }
      ],
      "name": "safeTransferFrom",
      "outputs": [],
      "stateMutability": "nonpayable",
      "type": "function"
    },
    {
      "inputs": [
        {
          "internalType": "address",
          "name": "from",
          "type": "address"
        },
        {
          "internalType": "address",
          "name": "to",
          "type": "address"
        },
        {
          "internalType": "uint256",
          "name": "tokenId",
          "type": "uint256"
        },
        {
          "internalType": "bytes",
          "name": "_data",
          "type": "bytes"
        }
      ],
      "name": "safeTransferFrom",
      "outputs": [],
      "stateMutability": "nonpayable",
      "type": "function"
    },
    {
      "inputs": [
        {
          "internalType": "address",
          "name": "operator",
          "type": "address"
        },
        {
          "internalType": "bool",
          "name": "approved",
          "type": "bool"
        }
      ],
      "name": "setApprovalForAll",
      "outputs": [],
      "stateMutability": "nonpayable",
      "type": "function"
    },
    {
      "inputs": [
        {
          "internalType": "bytes4",
          "name": "interfaceId",
          "type": "bytes4"
        }
      ],
      "name": "supportsInterface",
      "outputs": [
        {
          "internalType": "bool",
          "name": "",
          "type": "bool"
        }
      ],
      "stateMutability": "view",
      "type": "function"
    },
    {
      "inputs": [],
      "name": "symbol",
      "outputs": [
        {
          "internalType": "string",
          "name": "",
          "type": "string"
        }
      ],
      "stateMutability": "view",
      "type": "function"
    },
    {
      "inputs": [
        {
          "internalType": "uint256",
          "name": "tokenId",
          "type": "uint256"
        }
      ],
      "name": "tokenURI",
      "outputs": [
        {
          "internalType": "string",
          "name": "",
          "type": "string"
        }
      ],
      "stateMutability": "view",
      "type": "function"
    },
    {
      "inputs": [
        {
          "internalType": "address",
          "name": "from",
          "type": "address"
        },
        {
          "internalType": "address",
          "name": "to",
          "type": "address"
        },
        {
          "internalType": "uint256",
          "name": "tokenId",
          "type": "uint256"
        }
      ],
      "name": "transferFrom",
      "outputs": [],
      "stateMutability": "nonpayable",
      "type": "function"
    },
    {
      "inputs": [
        {
          "internalType": "address",
          "name": "newOwner",
          "type": "address"
        }
      ],
      "name": "transferOwnership",
      "outputs": [],
      "stateMutability": "nonpayable",
      "type": "function"
    },
    {
      "inputs": [
        {
          "internalType": "string",
          "name": "_name",
          "type": "string"
        },
        {
          "internalType": "uint256",
          "name": "_id",
          "type": "uint256"
        },
        {
          "internalType": "uint256",
          "name": "_qty",
          "type": "uint256"
        },
        {
          "internalType": "uint256",
          "name": "_level",
          "type": "uint256"
        },
        {
          "internalType": "uint256",
          "name": "_price",
          "type": "uint256"
        },
        {
          "internalType": "bool",
          "name": "_lottery",
          "type": "bool"
        }
      ],
      "name": "create",
      "outputs": [
        {
          "components": [
            {
              "internalType": "uint256",
              "name": "id",
              "type": "uint256"
            },
            {
              "internalType": "uint256",
              "name": "qty",
              "type": "uint256"
            },
            {
              "internalType": "uint256",
              "name": "level",
              "type": "uint256"
            },
            {
              "internalType": "uint256",
              "name": "price",
              "type": "uint256"
            },
            {
              "internalType": "string",
              "name": "name",
              "type": "string"
            },
            {
              "internalType": "bool",
              "name": "lottery",
              "type": "bool"
            },
            {
              "internalType": "bool",
              "name": "created",
              "type": "bool"
            }
          ],
          "internalType": "struct Collectible.PoliticsAvailable",
          "name": "",
          "type": "tuple"
        }
      ],
      "stateMutability": "nonpayable",
      "type": "function"
    },
    {
      "inputs": [
        {
          "internalType": "uint256",
          "name": "_id",
          "type": "uint256"
        },
        {
          "internalType": "string",
          "name": "_tokenUri",
          "type": "string"
        }
      ],
      "name": "buy",
      "outputs": [],
      "stateMutability": "payable",
      "type": "function"
    }
  ],
  "bytecode": "0x60806040526001600e553480156200001657600080fd5b50604080518082018252600b81527f506f6c69746963734e667400000000000000000000000000000000000000000060208083019182528351808501909452600384527f504f4c0000000000000000000000000000000000000000000000000000000000908401528151919291620000919160009162000152565b508051620000a790600190602084019062000152565b505050620000d6620000c7620000fc640100000000026401000000009004565b64010000000062000100810204565b600c8054600160a060020a03199081163317909155600d8054909116301790556200024e565b3390565b60078054600160a060020a03838116600160a060020a0319831681179093556040519116919082907f8be0079c531659141344cd1fd0a4f28419497f9722a3daafe3b4186f6b6457e090600090a35050565b8280546200016090620001f8565b90600052602060002090601f016020900481019282620001845760008555620001cf565b82601f106200019f57805160ff1916838001178555620001cf565b82800160010185558215620001cf579182015b82811115620001cf578251825591602001919060010190620001b2565b50620001dd929150620001e1565b5090565b5b80821115620001dd5760008155600101620001e2565b6002810460018216806200020d57607f821691505b6020821081141562000248577f4e487b7100000000000000000000000000000000000000000000000000000000600052602260045260246000fd5b50919050565b6126c6806200025e6000396000f3fe608060405260043610610147576000357c010000000000000000000000000000000000000000000000000000000090048063715018a6116100c8578063b7dc3b181161008c578063b7dc3b1814610379578063b88d4fde1461038c578063c87b56dd146103ac578063e985e9c5146103cc578063f2fde38b14610415578063f6b4dfb41461043557600080fd5b8063715018a6146102f15780638da5cb5b146103065780638f84aa091461032457806395d89b4114610344578063a22cb4651461035957600080fd5b8063150b7a021161010f578063150b7a021461022a57806323b872dd1461026357806342842e0e146102835780636352211e146102a357806370a08231146102c357600080fd5b806301ffc9a71461014c57806306fdde0314610181578063081812fc146101a3578063095ea7b3146101db57806311143277146101fd575b600080fd5b34801561015857600080fd5b5061016c6101673660046121f5565b610455565b60405190151581526020015b60405180910390f35b34801561018d57600080fd5b506101966104f2565b6040516101789190612399565b3480156101af57600080fd5b506101c36101be3660046122a2565b610584565b604051600160a060020a039091168152602001610178565b3480156101e757600080fd5b506101fb6101f63660046121cb565b610625565b005b34801561020957600080fd5b5061021d61021836600461222f565b61075d565b604051610178919061249b565b34801561023657600080fd5b5061024a610245366004612125565b610a12565b604051600160e060020a03199091168152602001610178565b34801561026f57600080fd5b506101fb61027e3660046120e9565b610a3c565b34801561028f57600080fd5b506101fb61029e3660046120e9565b610a70565b3480156102af57600080fd5b506101c36102be3660046122a2565b610a8b565b3480156102cf57600080fd5b506102e36102de36600461209b565b610b19565b604051908152602001610178565b3480156102fd57600080fd5b506101fb610bb6565b34801561031257600080fd5b50600754600160a060020a03166101c3565b34801561033057600080fd5b50600c546101c390600160a060020a031681565b34801561035057600080fd5b50610196610bef565b34801561036557600080fd5b506101fb6103743660046121a1565b610bfe565b6101fb6103873660046122bb565b610cc6565b34801561039857600080fd5b506101fb6103a7366004612125565b61129d565b3480156103b857600080fd5b506101966103c73660046122a2565b6112d8565b3480156103d857600080fd5b5061016c6103e73660046120b6565b600160a060020a03918216600090815260056020908152604080832093909416825291909152205460ff1690565b34801561042157600080fd5b506101fb61043036600461209b565b611456565b34801561044157600080fd5b50600d546101c390600160a060020a031681565b6000600160e060020a031982167f80ac58cd0000000000000000000000000000000000000000000000000000000014806104b85750600160e060020a031982167f5b5e139f00000000000000000000000000000000000000000000000000000000145b806104ec57507f01ffc9a700000000000000000000000000000000000000000000000000000000600160e060020a03198316145b92915050565b606060008054610501906125a9565b80601f016020809104026020016040519081016040528092919081815260200182805461052d906125a9565b801561057a5780601f1061054f5761010080835404028352916020019161057a565b820191906000526020600020905b81548152906001019060200180831161055d57829003601f168201915b5050505050905090565b600061058f8261150e565b6106095760405160e560020a62461bcd02815260206004820152602c60248201527f4552433732313a20617070726f76656420717565727920666f72206e6f6e657860448201527f697374656e7420746f6b656e000000000000000000000000000000000000000060648201526084015b60405180910390fd5b50600090815260046020526040902054600160a060020a031690565b600061063082610a8b565b905080600160a060020a031683600160a060020a031614156106bd5760405160e560020a62461bcd02815260206004820152602160248201527f4552433732313a20617070726f76616c20746f2063757272656e74206f776e6560448201527f72000000000000000000000000000000000000000000000000000000000000006064820152608401610600565b33600160a060020a03821614806106d957506106d981336103e7565b61074e5760405160e560020a62461bcd02815260206004820152603860248201527f4552433732313a20617070726f76652063616c6c6572206973206e6f74206f7760448201527f6e6572206e6f7220617070726f76656420666f7220616c6c00000000000000006064820152608401610600565b610758838361152b565b505050565b6107a16040518060e0016040528060008152602001600081526020016000815260200160008152602001606081526020016000151581526020016000151581525090565b600754600160a060020a031633146107ce5760405160e560020a62461bcd02815260040161060090612409565b600086815260096020526040902060050154610100900460ff16156108385760405160e560020a62461bcd02815260206004820152601160248201527f696420616c726561647920696e207573650000000000000000000000000000006044820152606401610600565b6040805160e081018252878152602080820188815292820187815260608301878152608084018c815287151560a0860152600160c0860181905260088054918201815560005285517ff3f7a9fe364faab93b216da50a3214154f22a0a2b415b23a84c8169e8b636ee3600690920291820190815596517ff3f7a9fe364faab93b216da50a3214154f22a0a2b415b23a84c8169e8b636ee482015592517ff3f7a9fe364faab93b216da50a3214154f22a0a2b415b23a84c8169e8b636ee584015590517ff3f7a9fe364faab93b216da50a3214154f22a0a2b415b23a84c8169e8b636ee6830155518051939485949093610955937ff3f7a9fe364faab93b216da50a3214154f22a0a2b415b23a84c8169e8b636ee701920190611ec5565b5060a08201516005909101805460c09093015115156101000261ff00199215159290921661ffff19909316929092171790556000878152600960209081526040918290208351815581840151600182015591830151600283015560608301516003830155608083015180518493926109d4926004850192910190611ec5565b5060a08201516005909101805460c09093015115156101000261ff00199215159290921661ffff199093169290921717905590509695505050505050565b7f150b7a02000000000000000000000000000000000000000000000000000000005b949350505050565b610a4633826115a6565b610a655760405160e560020a62461bcd0281526004016106009061243e565b6107588383836116a0565b6107588383836040518060200160405280600081525061129d565b600081815260026020526040812054600160a060020a0316806104ec5760405160e560020a62461bcd02815260206004820152602960248201527f4552433732313a206f776e657220717565727920666f72206e6f6e657869737460448201527f656e7420746f6b656e00000000000000000000000000000000000000000000006064820152608401610600565b6000600160a060020a038216610b9a5760405160e560020a62461bcd02815260206004820152602a60248201527f4552433732313a2062616c616e636520717565727920666f7220746865207a6560448201527f726f2061646472657373000000000000000000000000000000000000000000006064820152608401610600565b50600160a060020a031660009081526003602052604090205490565b600754600160a060020a03163314610be35760405160e560020a62461bcd02815260040161060090612409565b610bed6000611880565b565b606060018054610501906125a9565b600160a060020a038216331415610c5a5760405160e560020a62461bcd02815260206004820152601960248201527f4552433732313a20617070726f766520746f2063616c6c6572000000000000006044820152606401610600565b336000818152600560209081526040808320600160a060020a03871680855290835292819020805460ff191686151590811790915590519081529192917f17307eab39ab6107e8899845ad3d59bd9653f200f220920489ca2b5937696c31910160405180910390a35050565b600082815260096020526040902060050154610100900460ff16610d2f5760405160e560020a62461bcd02815260206004820152601160248201527f506f6c69746963206e6f7420666f756e640000000000000000000000000000006044820152606401610600565b60008281526009602052604090206005015460ff1615610dba5760405160e560020a62461bcd02815260206004820152602360248201527f506f6c69746963206f6e6c7920617661696c61626c652077697468206c6f747460448201527f65727900000000000000000000000000000000000000000000000000000000006064820152608401610600565b600082815260096020526040902060010154610e415760405160e560020a62461bcd02815260206004820152602260248201527f5468657265206973206e6f206d6f726520706f6c6974696320617661696c616260448201527f6c650000000000000000000000000000000000000000000000000000000000006064820152608401610600565b6000828152600960205260409020600301546103e890610e6990670de0b6b3a7640000612530565b610e73919061251c565b3414610ec45760405160e560020a62461bcd02815260206004820152601060248201527f496e636f727265637420616d6f756e74000000000000000000000000000000006044820152606401610600565b610f086040518060e0016040528060008152602001600081526020016000815260200160008152602001606081526020016000151581526020016000151581525090565b60005b600854811015611156578360088281548110610f2957610f29612648565b90600052602060002090600602016000015414156111445760088181548110610f5457610f54612648565b90600052602060002090600602016040518060e001604052908160008201548152602001600182015481526020016002820154815260200160038201548152602001600482018054610fa5906125a9565b80601f0160208091040260200160405190810160405280929190818152602001828054610fd1906125a9565b801561101e5780601f10610ff35761010080835404028352916020019161101e565b820191906000526020600020905b81548152906001019060200180831161100157829003601f168201915b50505091835250506005919091015460ff8082161515602084015261010090910416151560409091015260088054919350908290811061106057611060612648565b60009182526020822060016006909202010180549161107e83612592565b91905055506008818154811061109657611096612648565b9060005260206000209060060201600960008681526020019081526020016000206000820154816000015560018201548160010155600282015481600201556003820154816003015560048201816004019080546110f3906125a9565b6110fe929190611f49565b506005918201805491909201805460ff19811660ff93841615159081178355935461ffff1990911661ff0019909416939093176101009384900490921615159092021790555b8061114e816125e7565b915050610f0b565b50600e5460408051602080820193909352336c01000000000000000000000000028183015281516034818303018152605490910190915280519101206000906111a5906402540be40090612602565b600e805491925060006111b7836125e7565b9091555050600c54604051600160a060020a03909116903480156108fc02916000818181858888f193505050501580156111f5573d6000803e3d6000fd5b5061120033826118df565b61120a81846118fd565b6040805160608101825282815292516020808501918252338584018181526000828152600a8452858120805460018181018355918352858320995160039091029099019889559451948801949094555160029096018054600160a060020a039790971673ffffffffffffffffffffffffffffffffffffffff19978816179055938252600b90522080549092161790555050565b6112a733836115a6565b6112c65760405160e560020a62461bcd0281526004016106009061243e565b6112d28484848461199a565b50505050565b60606112e38261150e565b6113585760405160e560020a62461bcd02815260206004820152603160248201527f45524337323155524953746f726167653a2055524920717565727920666f722060448201527f6e6f6e6578697374656e7420746f6b656e0000000000000000000000000000006064820152608401610600565b60008281526006602052604081208054611371906125a9565b80601f016020809104026020016040519081016040528092919081815260200182805461139d906125a9565b80156113ea5780601f106113bf576101008083540402835291602001916113ea565b820191906000526020600020905b8154815290600101906020018083116113cd57829003601f168201915b50505050509050600061140860408051602081019091526000815290565b905080516000141561141b575092915050565b81511561144d57808260405160200161143592919061232e565b60405160208183030381529060405292505050919050565b610a34846119d0565b600754600160a060020a031633146114835760405160e560020a62461bcd02815260040161060090612409565b600160a060020a0381166115025760405160e560020a62461bcd02815260206004820152602660248201527f4f776e61626c653a206e6577206f776e657220697320746865207a65726f206160448201527f64647265737300000000000000000000000000000000000000000000000000006064820152608401610600565b61150b81611880565b50565b600090815260026020526040902054600160a060020a0316151590565b6000818152600460205260409020805473ffffffffffffffffffffffffffffffffffffffff1916600160a060020a038416908117909155819061156d82610a8b565b600160a060020a03167f8c5be1e5ebec7d5bd14f71427d1e84f3dd0314c0f7b2291e5b200ac8c7c3b92560405160405180910390a45050565b60006115b18261150e565b6116265760405160e560020a62461bcd02815260206004820152602c60248201527f4552433732313a206f70657261746f7220717565727920666f72206e6f6e657860448201527f697374656e7420746f6b656e00000000000000000000000000000000000000006064820152608401610600565b600061163183610a8b565b905080600160a060020a031684600160a060020a0316148061166c575083600160a060020a031661166184610584565b600160a060020a0316145b80610a345750600160a060020a0380821660009081526005602090815260408083209388168352929052205460ff16610a34565b82600160a060020a03166116b382610a8b565b600160a060020a0316146117325760405160e560020a62461bcd02815260206004820152602960248201527f4552433732313a207472616e73666572206f6620746f6b656e2074686174206960448201527f73206e6f74206f776e00000000000000000000000000000000000000000000006064820152608401610600565b600160a060020a0382166117b05760405160e560020a62461bcd028152602060048201526024808201527f4552433732313a207472616e7366657220746f20746865207a65726f2061646460448201527f72657373000000000000000000000000000000000000000000000000000000006064820152608401610600565b6117bb60008261152b565b600160a060020a03831660009081526003602052604081208054600192906117e490849061254f565b9091555050600160a060020a0382166000908152600360205260408120805460019290611812908490612504565b9091555050600081815260026020526040808220805473ffffffffffffffffffffffffffffffffffffffff1916600160a060020a0386811691821790925591518493918716917fddf252ad1be2c89b69c2b068fc378daa952ba7f163c4a11628f55a4df523b3ef91a4505050565b60078054600160a060020a0383811673ffffffffffffffffffffffffffffffffffffffff19831681179093556040519116919082907f8be0079c531659141344cd1fd0a4f28419497f9722a3daafe3b4186f6b6457e090600090a35050565b6118f9828260405180602001604052806000815250611ab9565b5050565b6119068261150e565b61197b5760405160e560020a62461bcd02815260206004820152602e60248201527f45524337323155524953746f726167653a2055524920736574206f66206e6f6e60448201527f6578697374656e7420746f6b656e0000000000000000000000000000000000006064820152608401610600565b6000828152600660209081526040909120825161075892840190611ec5565b6119a58484846116a0565b6119b184848484611aef565b6112d25760405160e560020a62461bcd028152600401610600906123ac565b60606119db8261150e565b611a505760405160e560020a62461bcd02815260206004820152602f60248201527f4552433732314d657461646174613a2055524920717565727920666f72206e6f60448201527f6e6578697374656e7420746f6b656e00000000000000000000000000000000006064820152608401610600565b6000611a6760408051602081019091526000815290565b90506000815111611a875760405180602001604052806000815250611ab2565b80611a9184611c2e565b604051602001611aa292919061232e565b6040516020818303038152906040525b9392505050565b611ac38383611d7f565b611ad06000848484611aef565b6107585760405160e560020a62461bcd028152600401610600906123ac565b6000600160a060020a0384163b15611c26576040517f150b7a02000000000000000000000000000000000000000000000000000000008152600160a060020a0385169063150b7a0290611b4c90339089908890889060040161235d565b602060405180830381600087803b158015611b6657600080fd5b505af1925050508015611b96575060408051601f3d908101601f19168201909252611b9391810190612212565b60015b611bf3573d808015611bc4576040519150601f19603f3d011682016040523d82523d6000602084013e611bc9565b606091505b508051611beb5760405160e560020a62461bcd028152600401610600906123ac565b805181602001fd5b600160e060020a0319167f150b7a0200000000000000000000000000000000000000000000000000000000149050610a34565b506001610a34565b606081611c6e57505060408051808201909152600181527f3000000000000000000000000000000000000000000000000000000000000000602082015290565b8160005b8115611c985780611c82816125e7565b9150611c919050600a8361251c565b9150611c72565b60008167ffffffffffffffff811115611cb357611cb3612661565b6040519080825280601f01601f191660200182016040528015611cdd576020820181803683370190505b5090505b8415610a3457611cf260018361254f565b9150611cff600a86612602565b611d0a906030612504565b7f010000000000000000000000000000000000000000000000000000000000000002818381518110611d3e57611d3e612648565b60200101907effffffffffffffffffffffffffffffffffffffffffffffffffffffffffffff1916908160001a905350611d78600a8661251c565b9450611ce1565b600160a060020a038216611dd85760405160e560020a62461bcd02815260206004820181905260248201527f4552433732313a206d696e7420746f20746865207a65726f20616464726573736044820152606401610600565b611de18161150e565b15611e315760405160e560020a62461bcd02815260206004820152601c60248201527f4552433732313a20746f6b656e20616c7265616479206d696e746564000000006044820152606401610600565b600160a060020a0382166000908152600360205260408120805460019290611e5a908490612504565b9091555050600081815260026020526040808220805473ffffffffffffffffffffffffffffffffffffffff1916600160a060020a03861690811790915590518392907fddf252ad1be2c89b69c2b068fc378daa952ba7f163c4a11628f55a4df523b3ef908290a45050565b828054611ed1906125a9565b90600052602060002090601f016020900481019282611ef35760008555611f39565b82601f10611f0c57805160ff1916838001178555611f39565b82800160010185558215611f39579182015b82811115611f39578251825591602001919060010190611f1e565b50611f45929150611fc4565b5090565b828054611f55906125a9565b90600052602060002090601f016020900481019282611f775760008555611f39565b82601f10611f885780548555611f39565b82800160010185558215611f3957600052602060002091601f016020900482015b82811115611f39578254825591600101919060010190611fa9565b5b80821115611f455760008155600101611fc5565b600067ffffffffffffffff80841115611ff457611ff4612661565b604051601f8501601f19908116603f0116810190828211818310171561201c5761201c612661565b8160405280935085815286868601111561203557600080fd5b858560208301376000602087830101525050509392505050565b8035600160a060020a038116811461206657600080fd5b919050565b8035801515811461206657600080fd5b600082601f83011261208c57600080fd5b611ab283833560208501611fd9565b6000602082840312156120ad57600080fd5b611ab28261204f565b600080604083850312156120c957600080fd5b6120d28361204f565b91506120e06020840161204f565b90509250929050565b6000806000606084860312156120fe57600080fd5b6121078461204f565b92506121156020850161204f565b9150604084013590509250925092565b6000806000806080858703121561213b57600080fd5b6121448561204f565b93506121526020860161204f565b925060408501359150606085013567ffffffffffffffff81111561217557600080fd5b8501601f8101871361218657600080fd5b61219587823560208401611fd9565b91505092959194509250565b600080604083850312156121b457600080fd5b6121bd8361204f565b91506120e06020840161206b565b600080604083850312156121de57600080fd5b6121e78361204f565b946020939093013593505050565b60006020828403121561220757600080fd5b8135611ab28161267a565b60006020828403121561222457600080fd5b8151611ab28161267a565b60008060008060008060c0878903121561224857600080fd5b863567ffffffffffffffff81111561225f57600080fd5b61226b89828a0161207b565b9650506020870135945060408701359350606087013592506080870135915061229660a0880161206b565b90509295509295509295565b6000602082840312156122b457600080fd5b5035919050565b600080604083850312156122ce57600080fd5b82359150602083013567ffffffffffffffff8111156122ec57600080fd5b6122f88582860161207b565b9150509250929050565b6000815180845261231a816020860160208601612566565b601f01601f19169290920160200192915050565b60008351612340818460208801612566565b835190830190612354818360208801612566565b01949350505050565b6000600160a060020a0380871683528086166020840152508360408301526080606083015261238f6080830184612302565b9695505050505050565b602081526000611ab26020830184612302565b60208082526032908201527f4552433732313a207472616e7366657220746f206e6f6e20455243373231526560408201527f63656976657220696d706c656d656e7465720000000000000000000000000000606082015260800190565b6020808252818101527f4f776e61626c653a2063616c6c6572206973206e6f7420746865206f776e6572604082015260600190565b60208082526031908201527f4552433732313a207472616e736665722063616c6c6572206973206e6f74206f60408201527f776e6572206e6f7220617070726f766564000000000000000000000000000000606082015260800190565b60208152815160208201526020820151604082015260408201516060820152606082015160808201526000608083015160e060a08401526124e0610100840182612302565b905060a0840151151560c084015260c0840151151560e08401528091505092915050565b6000821982111561251757612517612616565b500190565b60008261252b5761252b61262f565b500490565b600081600019048311821515161561254a5761254a612616565b500290565b60008282101561256157612561612616565b500390565b60005b83811015612581578181015183820152602001612569565b838111156112d25750506000910152565b6000816125a1576125a1612616565b506000190190565b6002810460018216806125bd57607f821691505b602082108114156125e15760e060020a634e487b7102600052602260045260246000fd5b50919050565b60006000198214156125fb576125fb612616565b5060010190565b6000826126115761261161262f565b500690565b60e060020a634e487b7102600052601160045260246000fd5b60e060020a634e487b7102600052601260045260246000fd5b60e060020a634e487b7102600052603260045260246000fd5b60e060020a634e487b7102600052604160045260246000fd5b600160e060020a03198116811461150b57600080fdfea264697066735822122073da9b27efc2a314e46f0d73e2666bc3755a71d5b85b15c12762c1800b18d46264736f6c63430008070033",
  "immutableReferences": {},
  "source": "// SPDX-License-Identifier: MIT\n\npragma solidity ^0.8.0;\n\nimport \"@openzeppelin/contracts/token/ERC721/extensions/ERC721URIStorage.sol\";\nimport \"@openzeppelin/contracts/token/ERC721/utils/ERC721Holder.sol\";\nimport \"@openzeppelin/contracts/access/Ownable.sol\";\n\n/**\n* @title ERC721 collectible base methods\n* @author Youness Chetoui\n*/\ncontract Collectible is ERC721URIStorage, ERC721Holder, Ownable {\n    struct PoliticsAvailable {\n        uint256 id;\n        uint256 qty;\n        uint256 level;\n        uint256 price;\n        string name;\n        bool lottery;\n        bool created;\n    }\n\n    struct PoliticsOwned {\n        uint256 id;\n        uint256 id_politic;\n        address owner;\n    }\n\n    PoliticsAvailable[] internal politics;\n\n    mapping(uint256 => PoliticsAvailable) internal politicsAvailable;\n    mapping(address => PoliticsOwned[]) internal userOwnedPolitics;\n    mapping(uint256 => address) internal politicToUser;\n\n    address payable public ownerAddress;\n    address payable public contractAddress;\n\n    uint256 internal tokenCounter = 1;\n\n    constructor() ERC721(\"PoliticsNft\", \"POL\") {\n        ownerAddress = payable(msg.sender);\n        contractAddress = payable(address(this));\n    }\n\n    /**\n    * @notice Create politician\n    * @param _name, _id, _qty, _level, _price and _lottery of politician available\n    * @return PoliticsAvailable created\n    */\n    function create(\n        string memory _name,\n        uint256 _id,\n        uint256 _qty,\n        uint256 _level,\n        uint256 _price,\n        bool _lottery\n    )\n        public onlyOwner returns (PoliticsAvailable memory) {\n        require(!politicsAvailable[_id].created, \"id already in use\");\n\n        PoliticsAvailable memory politic =\n            PoliticsAvailable({name: _name, id: _id, qty: _qty, level: _level, price: _price, lottery: _lottery, created: true});\n        politics.push(politic);\n        politicsAvailable[_id] = politic;\n\n        return politic;\n    }\n\n    /**\n    * @notice Buy politician\n    * @param _id, _tokenUri of politician available\n    */\n    function buy(uint256 _id, string memory _tokenUri) external payable {\n        require(politicsAvailable[_id].created, \"Politic not found\");\n        require(!politicsAvailable[_id].lottery, \"Politic only available with lottery\");\n        require(politicsAvailable[_id].qty > 0, \"There is no more politic available\");\n        require(msg.value == ((politicsAvailable[_id].price * 10**18) / 1000), \"Incorrect amount\");\n        PoliticsAvailable memory politic;\n\n        for (uint i = 0; i < politics.length; i++) {\n            if (politics[i].id == _id) {\n                politic = politics[i];\n                politics[i].qty--;\n                politicsAvailable[_id] = politics[i];\n            }\n        }\n\n        uint256 id = uint256(keccak256(abi.encodePacked(tokenCounter, msg.sender))) % 10000000000;\n        tokenCounter++;\n\n        ownerAddress.transfer(msg.value);\n        _safeMint(msg.sender, id);\n        _setTokenURI(id, _tokenUri);\n\n        PoliticsOwned memory politicOwned =\n            PoliticsOwned({id: id, id_politic: politic.id, owner: msg.sender});\n\n        userOwnedPolitics[msg.sender].push(politicOwned);\n        politicToUser[id] = msg.sender;\n    }\n}\n",
  "sourcePath": "/home/youness/Crypto/PoliticsCollectible/contracts/Collectible.sol",
  "compiler": {
    "name": "solc",
    "version": "0.8.7+commit.e28d00a7.Emscripten.clang"
  },
  "schemaVersion": "3.4.3",
  "updatedAt": "2021-09-02T13:41:26.658Z",
  "devdoc": {
    "author": "Youness Chetoui",
    "kind": "dev",
    "methods": {
      "approve(address,uint256)": {
        "details": "See {IERC721-approve}."
      },
      "balanceOf(address)": {
        "details": "See {IERC721-balanceOf}."
      },
      "buy(uint256,string)": {
        "params": {
          "_id": ", _tokenUri of politician available"
        }
      },
      "create(string,uint256,uint256,uint256,uint256,bool)": {
        "params": {
          "_name": ", _id, _qty, _level, _price and _lottery of politician available"
        },
        "returns": {
          "_0": "PoliticsAvailable created"
        }
      },
      "getApproved(uint256)": {
        "details": "See {IERC721-getApproved}."
      },
      "isApprovedForAll(address,address)": {
        "details": "See {IERC721-isApprovedForAll}."
      },
      "name()": {
        "details": "See {IERC721Metadata-name}."
      },
      "onERC721Received(address,address,uint256,bytes)": {
        "details": "See {IERC721Receiver-onERC721Received}. Always returns `IERC721Receiver.onERC721Received.selector`."
      },
      "owner()": {
        "details": "Returns the address of the current owner."
      },
      "ownerOf(uint256)": {
        "details": "See {IERC721-ownerOf}."
      },
      "renounceOwnership()": {
        "details": "Leaves the contract without owner. It will not be possible to call `onlyOwner` functions anymore. Can only be called by the current owner. NOTE: Renouncing ownership will leave the contract without an owner, thereby removing any functionality that is only available to the owner."
      },
      "safeTransferFrom(address,address,uint256)": {
        "details": "See {IERC721-safeTransferFrom}."
      },
      "safeTransferFrom(address,address,uint256,bytes)": {
        "details": "See {IERC721-safeTransferFrom}."
      },
      "setApprovalForAll(address,bool)": {
        "details": "See {IERC721-setApprovalForAll}."
      },
      "supportsInterface(bytes4)": {
        "details": "See {IERC165-supportsInterface}."
      },
      "symbol()": {
        "details": "See {IERC721Metadata-symbol}."
      },
      "tokenURI(uint256)": {
        "details": "See {IERC721Metadata-tokenURI}."
      },
      "transferFrom(address,address,uint256)": {
        "details": "See {IERC721-transferFrom}."
      },
      "transferOwnership(address)": {
        "details": "Transfers ownership of the contract to a new account (`newOwner`). Can only be called by the current owner."
      }
    },
    "title": "ERC721 collectible base methods",
    "version": 1
  },
  "userdoc": {
    "kind": "user",
    "methods": {
      "buy(uint256,string)": {
        "notice": "Buy politician"
      },
      "create(string,uint256,uint256,uint256,uint256,bool)": {
        "notice": "Create politician"
      }
    },
    "version": 1
  }
}