{
  "contractName": "Lottery",
  "abi": [
    {
      "anonymous": false,
      "inputs": [
        {
          "indexed": true,
          "internalType": "address",
          "name": "owner",
          "type": "address"
        },
        {
          "indexed": true,
          "internalType": "address",
          "name": "approved",
          "type": "address"
        },
        {
          "indexed": true,
          "internalType": "uint256",
          "name": "tokenId",
          "type": "uint256"
        }
      ],
      "name": "Approval",
      "type": "event"
    },
    {
      "anonymous": false,
      "inputs": [
        {
          "indexed": true,
          "internalType": "address",
          "name": "owner",
          "type": "address"
        },
        {
          "indexed": true,
          "internalType": "address",
          "name": "operator",
          "type": "address"
        },
        {
          "indexed": false,
          "internalType": "bool",
          "name": "approved",
          "type": "bool"
        }
      ],
      "name": "ApprovalForAll",
      "type": "event"
    },
    {
      "anonymous": false,
      "inputs": [
        {
          "indexed": false,
          "internalType": "uint256",
          "name": "id",
          "type": "uint256"
        },
        {
          "indexed": false,
          "internalType": "address",
          "name": "buyer",
          "type": "address"
        }
      ],
      "name": "BuyOnSale",
      "type": "event"
    },
    {
      "anonymous": false,
      "inputs": [
        {
          "indexed": false,
          "internalType": "uint256",
          "name": "id",
          "type": "uint256"
        }
      ],
      "name": "CreateLottery",
      "type": "event"
    },
    {
      "anonymous": false,
      "inputs": [
        {
          "indexed": false,
          "internalType": "uint256",
          "name": "id",
          "type": "uint256"
        }
      ],
      "name": "CreatePolitician",
      "type": "event"
    },
    {
      "anonymous": false,
      "inputs": [
        {
          "indexed": false,
          "internalType": "uint256",
          "name": "id",
          "type": "uint256"
        },
        {
          "indexed": false,
          "internalType": "address",
          "name": "owner",
          "type": "address"
        }
      ],
      "name": "CreateSale",
      "type": "event"
    },
    {
      "anonymous": false,
      "inputs": [
        {
          "indexed": false,
          "internalType": "uint256",
          "name": "id",
          "type": "uint256"
        },
        {
          "indexed": false,
          "internalType": "address",
          "name": "winner",
          "type": "address"
        }
      ],
      "name": "EndLottery",
      "type": "event"
    },
    {
      "anonymous": false,
      "inputs": [
        {
          "indexed": true,
          "internalType": "address",
          "name": "previousOwner",
          "type": "address"
        },
        {
          "indexed": true,
          "internalType": "address",
          "name": "newOwner",
          "type": "address"
        }
      ],
      "name": "OwnershipTransferred",
      "type": "event"
    },
    {
      "anonymous": false,
      "inputs": [
        {
          "indexed": false,
          "internalType": "address",
          "name": "owner",
          "type": "address"
        },
        {
          "indexed": false,
          "internalType": "uint256",
          "name": "id",
          "type": "uint256"
        }
      ],
      "name": "PoliticianBuy",
      "type": "event"
    },
    {
      "anonymous": false,
      "inputs": [
        {
          "indexed": false,
          "internalType": "uint256",
          "name": "randomResult",
          "type": "uint256"
        }
      ],
      "name": "RandomNumberCreated",
      "type": "event"
    },
    {
      "anonymous": false,
      "inputs": [
        {
          "indexed": true,
          "internalType": "address",
          "name": "from",
          "type": "address"
        },
        {
          "indexed": true,
          "internalType": "address",
          "name": "to",
          "type": "address"
        },
        {
          "indexed": true,
          "internalType": "uint256",
          "name": "tokenId",
          "type": "uint256"
        }
      ],
      "name": "Transfer",
      "type": "event"
    },
    {
      "anonymous": false,
      "inputs": [
        {
          "indexed": false,
          "internalType": "uint256",
          "name": "id",
          "type": "uint256"
        },
        {
          "indexed": false,
          "internalType": "address",
          "name": "player",
          "type": "address"
        }
      ],
      "name": "UserPlayedLottery",
      "type": "event"
    },
    {
      "inputs": [
        {
          "internalType": "uint256",
          "name": "_id",
          "type": "uint256"
        },
        {
          "internalType": "uint256",
          "name": "_qty",
          "type": "uint256"
        }
      ],
      "name": "addQty",
      "outputs": [],
      "stateMutability": "nonpayable",
      "type": "function"
    },
    {
      "inputs": [
        {
          "internalType": "address",
          "name": "to",
          "type": "address"
        },
        {
          "internalType": "uint256",
          "name": "tokenId",
          "type": "uint256"
        }
      ],
      "name": "approve",
      "outputs": [],
      "stateMutability": "nonpayable",
      "type": "function"
    },
    {
      "inputs": [
        {
          "internalType": "uint256",
          "name": "",
          "type": "uint256"
        }
      ],
      "name": "arrayPoliticiansOnSale",
      "outputs": [
        {
          "internalType": "uint256",
          "name": "",
          "type": "uint256"
        }
      ],
      "stateMutability": "view",
      "type": "function"
    },
    {
      "inputs": [
        {
          "internalType": "address",
          "name": "owner",
          "type": "address"
        }
      ],
      "name": "balanceOf",
      "outputs": [
        {
          "internalType": "uint256",
          "name": "",
          "type": "uint256"
        }
      ],
      "stateMutability": "view",
      "type": "function"
    },
    {
      "inputs": [
        {
          "internalType": "uint256",
          "name": "_id",
          "type": "uint256"
        },
        {
          "internalType": "string",
          "name": "_tokenUri",
          "type": "string"
        }
      ],
      "name": "buy",
      "outputs": [],
      "stateMutability": "payable",
      "type": "function"
    },
    {
      "inputs": [
        {
          "internalType": "uint256",
          "name": "_tokenId",
          "type": "uint256"
        }
      ],
      "name": "buyPoliticsForSale",
      "outputs": [],
      "stateMutability": "payable",
      "type": "function"
    },
    {
      "inputs": [
        {
          "internalType": "uint256",
          "name": "_tokenId",
          "type": "uint256"
        }
      ],
      "name": "cancelSell",
      "outputs": [],
      "stateMutability": "payable",
      "type": "function"
    },
    {
      "inputs": [],
      "name": "contractAddress",
      "outputs": [
        {
          "internalType": "address payable",
          "name": "",
          "type": "address"
        }
      ],
      "stateMutability": "view",
      "type": "function"
    },
    {
      "inputs": [
        {
          "internalType": "uint256",
          "name": "_id",
          "type": "uint256"
        },
        {
          "internalType": "uint256",
          "name": "_price",
          "type": "uint256"
        },
        {
          "internalType": "uint256",
          "name": "_qty",
          "type": "uint256"
        },
        {
          "internalType": "bool",
          "name": "_lottery",
          "type": "bool"
        }
      ],
      "name": "create",
      "outputs": [],
      "stateMutability": "nonpayable",
      "type": "function"
    },
    {
      "inputs": [
        {
          "internalType": "uint256",
          "name": "_tokenId",
          "type": "uint256"
        },
        {
          "internalType": "uint256",
          "name": "_price",
          "type": "uint256"
        }
      ],
      "name": "forSale",
      "outputs": [],
      "stateMutability": "nonpayable",
      "type": "function"
    },
    {
      "inputs": [
        {
          "internalType": "uint256",
          "name": "tokenId",
          "type": "uint256"
        }
      ],
      "name": "getApproved",
      "outputs": [
        {
          "internalType": "address",
          "name": "",
          "type": "address"
        }
      ],
      "stateMutability": "view",
      "type": "function"
    },
    {
      "inputs": [],
      "name": "getMyPolitics",
      "outputs": [
        {
          "components": [
            {
              "internalType": "uint256",
              "name": "id",
              "type": "uint256"
            },
            {
              "internalType": "uint256",
              "name": "id_politic",
              "type": "uint256"
            },
            {
              "internalType": "address",
              "name": "owner",
              "type": "address"
            }
          ],
          "internalType": "struct Collectible.PoliticsOwned[]",
          "name": "",
          "type": "tuple[]"
        }
      ],
      "stateMutability": "view",
      "type": "function"
    },
    {
      "inputs": [
        {
          "internalType": "uint256",
          "name": "_id",
          "type": "uint256"
        }
      ],
      "name": "getPoliticQty",
      "outputs": [
        {
          "internalType": "uint256",
          "name": "",
          "type": "uint256"
        }
      ],
      "stateMutability": "view",
      "type": "function"
    },
    {
      "inputs": [],
      "name": "getRandomNumber",
      "outputs": [
        {
          "internalType": "bytes32",
          "name": "requestId",
          "type": "bytes32"
        }
      ],
      "stateMutability": "nonpayable",
      "type": "function"
    },
    {
      "inputs": [
        {
          "internalType": "address",
          "name": "owner",
          "type": "address"
        },
        {
          "internalType": "address",
          "name": "operator",
          "type": "address"
        }
      ],
      "name": "isApprovedForAll",
      "outputs": [
        {
          "internalType": "bool",
          "name": "",
          "type": "bool"
        }
      ],
      "stateMutability": "view",
      "type": "function"
    },
    {
      "inputs": [],
      "name": "name",
      "outputs": [
        {
          "internalType": "string",
          "name": "",
          "type": "string"
        }
      ],
      "stateMutability": "view",
      "type": "function"
    },
    {
      "inputs": [
        {
          "internalType": "address",
          "name": "",
          "type": "address"
        },
        {
          "internalType": "address",
          "name": "",
          "type": "address"
        },
        {
          "internalType": "uint256",
          "name": "",
          "type": "uint256"
        },
        {
          "internalType": "bytes",
          "name": "",
          "type": "bytes"
        }
      ],
      "name": "onERC721Received",
      "outputs": [
        {
          "internalType": "bytes4",
          "name": "",
          "type": "bytes4"
        }
      ],
      "stateMutability": "nonpayable",
      "type": "function"
    },
    {
      "inputs": [],
      "name": "owner",
      "outputs": [
        {
          "internalType": "address",
          "name": "",
          "type": "address"
        }
      ],
      "stateMutability": "view",
      "type": "function"
    },
    {
      "inputs": [],
      "name": "ownerAddress",
      "outputs": [
        {
          "internalType": "address payable",
          "name": "",
          "type": "address"
        }
      ],
      "stateMutability": "view",
      "type": "function"
    },
    {
      "inputs": [
        {
          "internalType": "uint256",
          "name": "tokenId",
          "type": "uint256"
        }
      ],
      "name": "ownerOf",
      "outputs": [
        {
          "internalType": "address",
          "name": "",
          "type": "address"
        }
      ],
      "stateMutability": "view",
      "type": "function"
    },
    {
      "inputs": [],
      "name": "rand",
      "outputs": [
        {
          "internalType": "bytes32",
          "name": "",
          "type": "bytes32"
        }
      ],
      "stateMutability": "view",
      "type": "function"
    },
    {
      "inputs": [],
      "name": "randomResult",
      "outputs": [
        {
          "internalType": "uint256",
          "name": "",
          "type": "uint256"
        }
      ],
      "stateMutability": "view",
      "type": "function"
    },
    {
      "inputs": [
        {
          "internalType": "bytes32",
          "name": "requestId",
          "type": "bytes32"
        },
        {
          "internalType": "uint256",
          "name": "randomness",
          "type": "uint256"
        }
      ],
      "name": "rawFulfillRandomness",
      "outputs": [],
      "stateMutability": "nonpayable",
      "type": "function"
    },
    {
      "inputs": [],
      "name": "renounceOwnership",
      "outputs": [],
      "stateMutability": "nonpayable",
      "type": "function"
    },
    {
      "inputs": [
        {
          "internalType": "address",
          "name": "from",
          "type": "address"
        },
        {
          "internalType": "address",
          "name": "to",
          "type": "address"
        },
        {
          "internalType": "uint256",
          "name": "tokenId",
          "type": "uint256"
        }
      ],
      "name": "safeTransferFrom",
      "outputs": [],
      "stateMutability": "nonpayable",
      "type": "function"
    },
    {
      "inputs": [
        {
          "internalType": "address",
          "name": "from",
          "type": "address"
        },
        {
          "internalType": "address",
          "name": "to",
          "type": "address"
        },
        {
          "internalType": "uint256",
          "name": "tokenId",
          "type": "uint256"
        },
        {
          "internalType": "bytes",
          "name": "_data",
          "type": "bytes"
        }
      ],
      "name": "safeTransferFrom",
      "outputs": [],
      "stateMutability": "nonpayable",
      "type": "function"
    },
    {
      "inputs": [
        {
          "internalType": "address",
          "name": "operator",
          "type": "address"
        },
        {
          "internalType": "bool",
          "name": "approved",
          "type": "bool"
        }
      ],
      "name": "setApprovalForAll",
      "outputs": [],
      "stateMutability": "nonpayable",
      "type": "function"
    },
    {
      "inputs": [
        {
          "internalType": "bytes4",
          "name": "interfaceId",
          "type": "bytes4"
        }
      ],
      "name": "supportsInterface",
      "outputs": [
        {
          "internalType": "bool",
          "name": "",
          "type": "bool"
        }
      ],
      "stateMutability": "view",
      "type": "function"
    },
    {
      "inputs": [],
      "name": "symbol",
      "outputs": [
        {
          "internalType": "string",
          "name": "",
          "type": "string"
        }
      ],
      "stateMutability": "view",
      "type": "function"
    },
    {
      "inputs": [],
      "name": "test",
      "outputs": [
        {
          "internalType": "uint256[]",
          "name": "",
          "type": "uint256[]"
        }
      ],
      "stateMutability": "view",
      "type": "function"
    },
    {
      "inputs": [
        {
          "internalType": "uint256",
          "name": "tokenId",
          "type": "uint256"
        }
      ],
      "name": "tokenURI",
      "outputs": [
        {
          "internalType": "string",
          "name": "",
          "type": "string"
        }
      ],
      "stateMutability": "view",
      "type": "function"
    },
    {
      "inputs": [
        {
          "internalType": "address",
          "name": "from",
          "type": "address"
        },
        {
          "internalType": "address",
          "name": "to",
          "type": "address"
        },
        {
          "internalType": "uint256",
          "name": "tokenId",
          "type": "uint256"
        }
      ],
      "name": "transferFrom",
      "outputs": [],
      "stateMutability": "nonpayable",
      "type": "function"
    },
    {
      "inputs": [
        {
          "internalType": "address",
          "name": "newOwner",
          "type": "address"
        }
      ],
      "name": "transferOwnership",
      "outputs": [],
      "stateMutability": "nonpayable",
      "type": "function"
    },
    {
      "inputs": [
        {
          "internalType": "uint256",
          "name": "_id",
          "type": "uint256"
        }
      ],
      "name": "you",
      "outputs": [
        {
          "components": [
            {
              "internalType": "uint256",
              "name": "tokenId",
              "type": "uint256"
            },
            {
              "internalType": "uint256",
              "name": "price",
              "type": "uint256"
            },
            {
              "internalType": "address payable",
              "name": "owner",
              "type": "address"
            },
            {
              "internalType": "bool",
              "name": "created",
              "type": "bool"
            }
          ],
          "internalType": "struct Sell.PoliticOnSale",
          "name": "",
          "type": "tuple"
        }
      ],
      "stateMutability": "view",
      "type": "function"
    },
    {
      "inputs": [
        {
          "internalType": "uint256",
          "name": "_id",
          "type": "uint256"
        },
        {
          "internalType": "uint256",
          "name": "_id_politics",
          "type": "uint256"
        },
        {
          "internalType": "uint256",
          "name": "_end_time",
          "type": "uint256"
        },
        {
          "internalType": "uint256",
          "name": "_price",
          "type": "uint256"
        },
        {
          "internalType": "uint256",
          "name": "_ticket_available",
          "type": "uint256"
        }
      ],
      "name": "createLottery",
      "outputs": [],
      "stateMutability": "nonpayable",
      "type": "function"
    },
    {
      "inputs": [
        {
          "internalType": "uint256",
          "name": "_id",
          "type": "uint256"
        }
      ],
      "name": "playLottery",
      "outputs": [],
      "stateMutability": "payable",
      "type": "function"
    },
    {
      "inputs": [
        {
          "internalType": "uint256",
          "name": "_id",
          "type": "uint256"
        }
      ],
      "name": "onEndLottery",
      "outputs": [],
      "stateMutability": "nonpayable",
      "type": "function"
    }
  ],
  "bytecode": "0x60c06040526001600f5560056012553480156200001b57600080fd5b50604080518082018252600b81527f506f6c69746963734e667400000000000000000000000000000000000000000060208083019182528351808501909452600384527f504f4c0000000000000000000000000000000000000000000000000000000000908401527fa555fc018435bef5a13c6c6870a9d4c11dec329c00000000000000000000000060a0527f84b9b910527ad5c03a9ca831909e21e236ea7b060000000000000000000000006080528151919291620000de91600191620001cf565b508051620000f4906002906020840190620001cf565b505050620001236200011462000179640100000000026401000000009004565b6401000000006200017d810204565b600d8054600160a060020a03199081163317909155600e8054909116301790557fcaf3c3727e033261d383b315559476f48034c13b18f8cafed4d871abe504918660135567016345785d8a0000601455620002cb565b3390565b60088054600160a060020a03838116600160a060020a0319831681179093556040519116919082907f8be0079c531659141344cd1fd0a4f28419497f9722a3daafe3b4186f6b6457e090600090a35050565b828054620001dd9062000275565b90600052602060002090601f0160209004810192826200020157600085556200024c565b82601f106200021c57805160ff19168380011785556200024c565b828001600101855582156200024c579182015b828111156200024c5782518255916020019190600101906200022f565b506200025a9291506200025e565b5090565b5b808211156200025a57600081556001016200025f565b6002810460018216806200028a57607f821691505b60208210811415620002c5577f4e487b7100000000000000000000000000000000000000000000000000000000600052602260045260246000fd5b50919050565b6080516c01000000000000000000000000900460a0516c010000000000000000000000009004613ecd6200031f60003960008181611aff0152612c480152600081816122620152612c190152613ecd6000f3fe608060405260043610610237576000357c01000000000000000000000000000000000000000000000000000000009004806385d3343611610140578063b88d4fde116100c8578063e7e6c81c1161008c578063e7e6c81c146106ee578063e985e9c51461070e578063f2fde38b14610757578063f6b4dfb414610777578063f8a8fd6d1461079757600080fd5b8063b88d4fde14610659578063b9db1c9814610679578063c87b56dd14610699578063dbdff2c1146106b9578063de7f5587146106ce57600080fd5b8063935b8d971161010f578063935b8d97146105d157806394985ddd146105f157806395d89b4114610611578063a22cb46514610626578063b7dc3b181461064657600080fd5b806385d33436146105515780638da5cb5b146105735780638f84aa09146105915780638fedc864146105b157600080fd5b80633b27f082116101c3578063546f9e6711610192578063546f9e67146104c957806354b3efa6146104dc5780636352211e146104fc57806370a082311461051c578063715018a61461053c57600080fd5b80633b27f0821461038c5780633b3dca761461046f57806342619f661461049357806342842e0e146104a957600080fd5b8063081812fc1161020a578063081812fc146102bb578063095ea7b3146102f35780630b2ee7e914610313578063150b7a021461033357806323b872dd1461036c57600080fd5b806301ffc9a71461023c57806303ddcab81461027157806306fdde031461028657806307c9cd45146102a8575b600080fd5b34801561024857600080fd5b5061025c610257366004613939565b6107b9565b60405190151581526020015b60405180910390f35b61028461027f366004613973565b610856565b005b34801561029257600080fd5b5061029b610bc5565b6040516102689190613bea565b6102846102b6366004613973565b610c57565b3480156102c757600080fd5b506102db6102d6366004613973565b610e00565b604051600160a060020a039091168152602001610268565b3480156102ff57600080fd5b5061028461030e3660046138d0565b610e9c565b34801561031f57600080fd5b5061028461032e366004613a00565b610fd4565b34801561033f57600080fd5b5061035361034e36600461381d565b61111d565b604051600160e060020a03199091168152602001610268565b34801561037857600080fd5b506102846103873660046137e1565b611147565b34801561039857600080fd5b506104316103a7366004613973565b6040805160808101825260008082526020820181905291810182905260608101919091525060009081526010602090815260409182902082516080810184528154815260018201549281019290925260020154600160a060020a038116928201929092527401000000000000000000000000000000000000000090910460ff161515606082015290565b60405161026891908151815260208083015190820152604080830151600160a060020a03169082015260609182015115159181019190915260800190565b34801561047b57600080fd5b5061048560165481565b604051908152602001610268565b34801561049f57600080fd5b5061048560155481565b3480156104b557600080fd5b506102846104c43660046137e1565b611174565b6102846104d7366004613973565b61118f565b3480156104e857600080fd5b506102846104f7366004613917565b611443565b34801561050857600080fd5b506102db610517366004613973565b6115db565b34801561052857600080fd5b50610485610537366004613793565b611669565b34801561054857600080fd5b50610284611706565b34801561055d57600080fd5b5061056661173f565b6040516102689190613b44565b34801561057f57600080fd5b50600854600160a060020a03166102db565b34801561059d57600080fd5b50600d546102db90600160a060020a031681565b3480156105bd57600080fd5b506104856105cc366004613973565b6117cc565b3480156105dd57600080fd5b506102846105ec366004613973565b6117ed565b3480156105fd57600080fd5b5061028461060c366004613917565b611af4565b34801561061d57600080fd5b5061029b611b79565b34801561063257600080fd5b50610284610641366004613899565b611b88565b6102846106543660046139a5565b611c50565b34801561066557600080fd5b5061028461067436600461381d565b611f7a565b34801561068557600080fd5b50610284610694366004613917565b61200b565b3480156106a557600080fd5b5061029b6106b4366004613973565b612083565b3480156106c557600080fd5b50610485612201565b3480156106da57600080fd5b506104856106e9366004613973565b61236e565b3480156106fa57600080fd5b50610284610709366004613a41565b6123ed565b34801561071a57600080fd5b5061025c6107293660046137ae565b600160a060020a03918216600090815260066020908152604080832093909416825291909152205460ff1690565b34801561076357600080fd5b50610284610772366004613793565b61268c565b34801561078357600080fd5b50600e546102db90600160a060020a031681565b3480156107a357600080fd5b506107ac612744565b6040516102689190613ba6565b6000600160e060020a031982167f80ac58cd00000000000000000000000000000000000000000000000000000000148061081c5750600160e060020a031982167f5b5e139f00000000000000000000000000000000000000000000000000000000145b8061085057507f01ffc9a700000000000000000000000000000000000000000000000000000000600160e060020a03198316145b92915050565b6000818152601860205260409020600301546103e89061087e90670de0b6b3a7640000613d29565b6108889190613d15565b34146108b25760405160e560020a62461bcd0281526004016108a990613cc6565b60405180910390fd5b60008181526018602052604090206006015460ff166109165760405160e560020a62461bcd02815260206004820152601160248201527f4c6f7474657279206e6f7420666f756e6400000000000000000000000000000060448201526064016108a9565b60008181526018602052604090206002015442106109795760405160e560020a62461bcd02815260206004820152601560248201527f4c6f7474657279206e6f7420617661696c61626c65000000000000000000000060448201526064016108a9565b6000818152601860205260409020600501546109da5760405160e560020a62461bcd02815260206004820152601860248201527f4e6f206d6f7265207469636b657420617661696c61626c65000000000000000060448201526064016108a9565b600081815260176020908152604080832080548251818502810185019093528083529192909190830182828015610a3a57602002820191906000526020600020905b8154600160a060020a03168152600190910190602001808311610a1c575b5050505050905060005b8151811015610add5733600160a060020a0316828281518110610a6957610a69613e41565b6020026020010151600160a060020a03161415610acb5760405160e560020a62461bcd02815260206004820152601a60248201527f4f6e6c79206f6e65207469636b6574206279206164647265737300000000000060448201526064016108a9565b80610ad581613de0565b915050610a44565b50600d54604051600160a060020a03909116903480156108fc02916000818181858888f19350505050158015610b17573d6000803e3d6000fd5b5060008281526017602090815260408083208054600181018255908452828420018054600160a060020a0319163317905584835260189091528120600401805491610b6183613de0565b90915550506000828152601860205260408120600501805491610b8383613d8b565b9091555050604080518381523360208201527f9cc53c1a9ff48c4fe548325ee9a6f7bb7b2b2defb3183e546b6bfd540f286f8291015b60405180910390a15050565b606060018054610bd490613da2565b80601f0160208091040260200160405190810160405280929190818152602001828054610c0090613da2565b8015610c4d5780601f10610c2257610100808354040283529160200191610c4d565b820191906000526020600020905b815481529060010190602001808311610c3057829003601f168201915b5050505050905090565b600081815260106020526040902060020154600160a060020a03163314610cc35760405160e560020a62461bcd02815260206004820152601360248201527f4e6f7420796f757220706f6c6974696369616e0000000000000000000000000060448201526064016108a9565b60125460008281526010602052604081206001015490916064916103e890610cf390670de0b6b3a7640000613d29565b610cfd9190613d15565b610d079190613d29565b610d119190613d15565b9050803414610d355760405160e560020a62461bcd0281526004016108a990613cc6565b600d54604051600160a060020a039091169082156108fc029083906000818181858888f19350505050158015610d6f573d6000803e3d6000fd5b50600e546040517f42842e0e000000000000000000000000000000000000000000000000000000008152600160a060020a0390911660048201523360248201526044810183905230906342842e0e90606401600060405180830381600087803b158015610ddb57600080fd5b505af1158015610def573d6000803e3d6000fd5b50505050610dfc8261279b565b5050565b6000610e0b82612833565b610e805760405160e560020a62461bcd02815260206004820152602c60248201527f4552433732313a20617070726f76656420717565727920666f72206e6f6e657860448201527f697374656e7420746f6b656e000000000000000000000000000000000000000060648201526084016108a9565b50600090815260056020526040902054600160a060020a031690565b6000610ea7826115db565b905080600160a060020a031683600160a060020a03161415610f345760405160e560020a62461bcd02815260206004820152602160248201527f4552433732313a20617070726f76616c20746f2063757272656e74206f776e6560448201527f720000000000000000000000000000000000000000000000000000000000000060648201526084016108a9565b33600160a060020a0382161480610f505750610f508133610729565b610fc55760405160e560020a62461bcd02815260206004820152603860248201527f4552433732313a20617070726f76652063616c6c6572206973206e6f74206f7760448201527f6e6572206e6f7220617070726f76656420666f7220616c6c000000000000000060648201526084016108a9565b610fcf8383612850565b505050565b600854600160a060020a031633146110015760405160e560020a62461bcd0281526004016108a990613c5a565b600084815260096020526040902060020154610100900460ff161561106b5760405160e560020a62461bcd02815260206004820152601160248201527f696420616c726561647920696e2075736500000000000000000000000000000060448201526064016108a9565b60408051608081018252858152602080820186815284151583850190815260016060850181815260008b8152600b86528781208a9055600990955293869020855181559251908301555160029091018054925115156101000261ff00199215159290921661ffff199093169290921717905590517ff00c522f13522af224c59f918a8375598b0362237c9cc8b4edb44f599cf0f3d69061110e9087815260200190565b60405180910390a15050505050565b7f150b7a02000000000000000000000000000000000000000000000000000000005b949350505050565b600854600160a060020a03163314610fcf5760405160e560020a62461bcd0281526004016108a990613c5a565b610fcf83838360405180602001604052806000815250611f7a565b60008181526010602052604090206002015474010000000000000000000000000000000000000000900460ff1661120b5760405160e560020a62461bcd02815260206004820152601760248201527f506f6c6974696369616e206e6f7420666f722073616c6500000000000000000060448201526064016108a9565b600081815260106020526040902060020154600160a060020a03163314156112785760405160e560020a62461bcd02815260206004820152600f60248201527f596f757220706f6c6974696369616e000000000000000000000000000000000060448201526064016108a9565b6000818152601060205260409020600101546103e8906112a090670de0b6b3a7640000613d29565b6112aa9190613d15565b34146112cb5760405160e560020a62461bcd0281526004016108a990613cc6565b60006064601254346112dd9190613d29565b6112e79190613d15565b905060006112f58234613d48565b600d54604051919250600160a060020a03169083156108fc029084906000818181858888f19350505050158015611330573d6000803e3d6000fd5b50600083815260106020526040808220600201549051600160a060020a039091169183156108fc02918491818181858888f19350505050158015611378573d6000803e3d6000fd5b50600e546040517f42842e0e000000000000000000000000000000000000000000000000000000008152600160a060020a0390911660048201523360248201526044810184905230906342842e0e90606401600060405180830381600087803b1580156113e457600080fd5b505af11580156113f8573d6000803e3d6000fd5b505050506114058361279b565b604080518481523360208201527fba09fc575b06563e24ebda6a85ecaffa381143e05692b04d0439c33cb68261c591015b60405180910390a1505050565b6000828152600c6020526040902054600160a060020a031633146114d25760405160e560020a62461bcd02815260206004820152602260248201527f596f7520617265206e6f7420746865206f776e6572206f662074686520746f6b60448201527f656e00000000000000000000000000000000000000000000000000000000000060648201526084016108a9565b600e546114ea903390600160a060020a031684611174565b6040805160808101825283815260208082018481523383850181815260016060860181815260008a8152601087528881208851815595518684015592516002909501805491511515740100000000000000000000000000000000000000000274ffffffffffffffffffffffffffffffffffffffffff19909216600160a060020a03909616959095171790935560118054938401815590527f31ecc21a745e3968a04e9570e4425bc18fa8019c68028196b546d1669c200c6890910186905583518681529182015290917ffd49647dd00e6b295aa9844cad9611d0f189dc9ef85fb3a2c3df136694cf15479101611436565b600081815260036020526040812054600160a060020a0316806108505760405160e560020a62461bcd02815260206004820152602960248201527f4552433732313a206f776e657220717565727920666f72206e6f6e657869737460448201527f656e7420746f6b656e000000000000000000000000000000000000000000000060648201526084016108a9565b6000600160a060020a0382166116ea5760405160e560020a62461bcd02815260206004820152602a60248201527f4552433732313a2062616c616e636520717565727920666f7220746865207a6560448201527f726f20616464726573730000000000000000000000000000000000000000000060648201526084016108a9565b50600160a060020a031660009081526004602052604090205490565b600854600160a060020a031633146117335760405160e560020a62461bcd0281526004016108a990613c5a565b61173d60006128be565b565b336000908152600a60209081526040808320805482518185028101850190935280835260609492939192909184015b828210156117c357600084815260209081902060408051606081018252600386029092018054835260018082015484860152600290910154600160a060020a031691830191909152908352909201910161176e565b50505050905090565b601181815481106117dc57600080fd5b600091825260209091200154905081565b600854600160a060020a0316331461181a5760405160e560020a62461bcd0281526004016108a990613c5a565b60008181526018602052604090206006015460ff1661187e5760405160e560020a62461bcd02815260206004820152601560248201527f4c6f7474657279206e6f7420617661696c61626c65000000000000000000000060448201526064016108a9565b60008181526018602052604090206002015442116118e15760405160e560020a62461bcd02815260206004820152601460248201527f4c6f7474657279206e6f742066696e697368656400000000000000000000000060448201526064016108a9565b600081815260186020908152604080832060010154601790925282205460155491929161190e9190613dfb565b611919906001613cfd565b6000848152601760205260408120805492935090918390811061193e5761193e613e41565b6000918252602080832090910154600f54604051600160a060020a0390921694506402540be4009261199392869101918252600160a060020a03166c0100000000000000000000000002602082015260340190565b60408051601f1981840301815291905280516020909101206119b59190613dfb565b600f805491925060006119c783613de0565b91905055506119d68282612910565b604080516060810182528281526020808201878152600160a060020a038087168486018181526000828152600a86528781208054600181810183559183528783208951600392830290910190815596518783015592516002968701805491909616600160a060020a031991821617909555898252600c875288822080549095169093179093558b83526018855286832083815591820183905592810182905591820181905560048201819055600582018190556006909101805460ff1916905560179091529182209091611aaa9190613601565b60408051878152600160a060020a03851660208201527fa1f5e94be44374b084108775ea10df484c59d9b341260f24da036cadb79db46691015b60405180910390a1505050505050565b33600160a060020a037f00000000000000000000000000000000000000000000000000000000000000001614611b6f5760405160e560020a62461bcd02815260206004820152601f60248201527f4f6e6c7920565246436f6f7264696e61746f722063616e2066756c66696c6c0060448201526064016108a9565b610dfc828261292a565b606060028054610bd490613da2565b600160a060020a038216331415611be45760405160e560020a62461bcd02815260206004820152601960248201527f4552433732313a20617070726f766520746f2063616c6c65720000000000000060448201526064016108a9565b336000818152600660209081526040808320600160a060020a03871680855290835292819020805460ff191686151590811790915590519081529192917f17307eab39ab6107e8899845ad3d59bd9653f200f220920489ca2b5937696c31910160405180910390a35050565b600082815260096020526040902060020154610100900460ff16611c895760405160e560020a62461bcd0281526004016108a990613c8f565b60008281526009602052604090206002015460ff1615611d145760405160e560020a62461bcd02815260206004820152602360248201527f506f6c69746963206f6e6c7920617661696c61626c652077697468206c6f747460448201527f657279000000000000000000000000000000000000000000000000000000000060648201526084016108a9565b6000828152600b6020526040902054611d985760405160e560020a62461bcd02815260206004820152602260248201527f5468657265206973206e6f206d6f726520706f6c6974696320617661696c616260448201527f6c6500000000000000000000000000000000000000000000000000000000000060648201526084016108a9565b6000828152600960205260409020600101546103e890611dc090670de0b6b3a7640000613d29565b611dca9190613d15565b3414611deb5760405160e560020a62461bcd0281526004016108a990613cc6565b6000828152600b60205260408120805491611e0583613d8b565b9091555050600f5460408051602080820193909352336c0100000000000000000000000002818301528151603481830301815260549091019091528051910120600090611e58906402540be40090613dfb565b600f80549192506000611e6a83613de0565b9091555050600d54604051600160a060020a03909116903480156108fc02916000818181858888f19350505050158015611ea8573d6000803e3d6000fd5b50611eb33382612910565b611ebd818361295f565b604080516060810182528281526020808201868152338385018181526000828152600a85528681208054600180820183559183528683208851600390920201908155945190850155905160029093018054600160a060020a03909416600160a060020a0319948516179055868152600c845285902080549092168117909155835190815290810184905290917f0f1f73114dcf85af6f6506a86f3b42cdc8af0e4d37ca5130270465cd9c358223910160405180910390a150505050565b611f8433836129fc565b611ff95760405160e560020a62461bcd02815260206004820152603160248201527f4552433732313a207472616e736665722063616c6c6572206973206e6f74206f60448201527f776e6572206e6f7220617070726f76656400000000000000000000000000000060648201526084016108a9565b61200584848484612af6565b50505050565b600854600160a060020a031633146120385760405160e560020a62461bcd0281526004016108a990613c5a565b600082815260096020526040902060020154610100900460ff166120715760405160e560020a62461bcd0281526004016108a990613c8f565b6000918252600b602052604090912055565b606061208e82612833565b6121035760405160e560020a62461bcd02815260206004820152603160248201527f45524337323155524953746f726167653a2055524920717565727920666f722060448201527f6e6f6e6578697374656e7420746f6b656e00000000000000000000000000000060648201526084016108a9565b6000828152600760205260408120805461211c90613da2565b80601f016020809104026020016040519081016040528092919081815260200182805461214890613da2565b80156121955780601f1061216a57610100808354040283529160200191612195565b820191906000526020600020905b81548152906001019060200180831161217857829003601f168201915b5050505050905060006121b360408051602081019091526000815290565b90508051600014156121c6575092915050565b8151156121f85780826040516020016121e0929190613aa8565b60405160208183030381529060405292505050919050565b61113f84612b2c565b600854600090600160a060020a031633146122315760405160e560020a62461bcd0281526004016108a990613c5a565b6014546040517f70a082310000000000000000000000000000000000000000000000000000000081523060048201527f0000000000000000000000000000000000000000000000000000000000000000600160a060020a0316906370a082319060240160206040518083038186803b1580156122ac57600080fd5b505afa1580156122c0573d6000803e3d6000fd5b505050506040513d601f19601f820116820180604052508101906122e4919061398c565b101561235b5760405160e560020a62461bcd02815260206004820152602b60248201527f4e6f7420656e6f756768204c494e4b202d2066696c6c20636f6e74726163742060448201527f776974682066617563657400000000000000000000000000000000000000000060648201526084016108a9565b612369601354601454612c15565b905090565b600854600090600160a060020a0316331461239e5760405160e560020a62461bcd0281526004016108a990613c5a565b600082815260096020526040902060020154610100900460ff166123d75760405160e560020a62461bcd0281526004016108a990613c8f565b506000818152600b60205260409020545b919050565b600854600160a060020a0316331461241a5760405160e560020a62461bcd0281526004016108a990613c5a565b60008481526009602052604090206002015460ff1661247e5760405160e560020a62461bcd02815260206004820181905260248201527f506f6c69746963206e6f7420617661696c61626c6520696e206c6f747465727960448201526064016108a9565b60008581526018602052604090206006015460ff16156124e35760405160e560020a62461bcd02815260206004820152601560248201527f4c6f747465727920616c7265616479206578697374000000000000000000000060448201526064016108a9565b8242106125355760405160e560020a62461bcd02815260206004820152601360248201527f456e642074696d6520697320696e20706173740000000000000000000000000060448201526064016108a9565b600082116125885760405160e560020a62461bcd02815260206004820152600a60248201527f507269636520697320300000000000000000000000000000000000000000000060448201526064016108a9565b60328110156125dc5760405160e560020a62461bcd02815260206004820152601960248201527f5469636b657420617661696c69626c6520756e6465722035300000000000000060448201526064016108a9565b6040805160e08101825286815260208082018781528284018781526060840187815260006080860181815260a08701898152600160c089018181528f855260188952938a90208951815596519087015593516002860155915160038501559051600484015590516005830155516006909101805460ff1916911515919091179055915187815290917f960f4fb18f2af9795686d97891dbd6534865353629cbda12afb278e6181976629101611ae4565b600854600160a060020a031633146126b95760405160e560020a62461bcd0281526004016108a990613c5a565b600160a060020a0381166127385760405160e560020a62461bcd02815260206004820152602660248201527f4f776e61626c653a206e6577206f776e657220697320746865207a65726f206160448201527f646472657373000000000000000000000000000000000000000000000000000060648201526084016108a9565b612741816128be565b50565b60606011805480602002602001604051908101604052809291908181526020018280548015610c4d57602002820191906000526020600020905b81548152602001906001019080831161277e575050505050905090565b600081815260106020526040812081815560018101829055600201805474ffffffffffffffffffffffffffffffffffffffffff191690555b601154811015610dfc5781601182815481106127f1576127f1613e41565b90600052602060002001541415612821576011818154811061281557612815613e41565b60009182526020822001555b8061282b81613de0565b9150506127d3565b600090815260036020526040902054600160a060020a0316151590565b60008181526005602052604090208054600160a060020a031916600160a060020a0384169081179091558190612885826115db565b600160a060020a03167f8c5be1e5ebec7d5bd14f71427d1e84f3dd0314c0f7b2291e5b200ac8c7c3b92560405160405180910390a45050565b60088054600160a060020a03838116600160a060020a0319831681179093556040519116919082907f8be0079c531659141344cd1fd0a4f28419497f9722a3daafe3b4186f6b6457e090600090a35050565b610dfc828260405180602001604052806000815250612db5565b60158190556040518181527f3e03d1f6db9c938103954d9053238ec024c7852bb15999ab2bd58960b2c1919d90602001610bb9565b61296882612833565b6129dd5760405160e560020a62461bcd02815260206004820152602e60248201527f45524337323155524953746f726167653a2055524920736574206f66206e6f6e60448201527f6578697374656e7420746f6b656e00000000000000000000000000000000000060648201526084016108a9565b60008281526007602090815260409091208251610fcf9284019061361f565b6000612a0782612833565b612a7c5760405160e560020a62461bcd02815260206004820152602c60248201527f4552433732313a206f70657261746f7220717565727920666f72206e6f6e657860448201527f697374656e7420746f6b656e000000000000000000000000000000000000000060648201526084016108a9565b6000612a87836115db565b905080600160a060020a031684600160a060020a03161480612ac2575083600160a060020a0316612ab784610e00565b600160a060020a0316145b8061113f5750600160a060020a0380821660009081526006602090815260408083209388168352929052205460ff1661113f565b612b01848484612deb565b612b0d84848484612fc9565b6120055760405160e560020a62461bcd0281526004016108a990613bfd565b6060612b3782612833565b612bac5760405160e560020a62461bcd02815260206004820152602f60248201527f4552433732314d657461646174613a2055524920717565727920666f72206e6f60448201527f6e6578697374656e7420746f6b656e000000000000000000000000000000000060648201526084016108a9565b6000612bc360408051602081019091526000815290565b90506000815111612be35760405180602001604052806000815250612c0e565b80612bed84613108565b604051602001612bfe929190613aa8565b6040516020818303038152906040525b9392505050565b60007f0000000000000000000000000000000000000000000000000000000000000000600160a060020a0316634000aea07f000000000000000000000000000000000000000000000000000000000000000084866000604051602001612c85929190918252602082015260400190565b60408051601f19818403018152908290527c010000000000000000000000000000000000000000000000000000000063ffffffff8616028252612ccc939291600401613b13565b602060405180830381600087803b158015612ce657600080fd5b505af1158015612cfa573d6000803e3d6000fd5b505050506040513d601f19601f82011682018060405250810190612d1e91906138fa565b5060008381526020818152604080832054815180840188905280830185905230606082015260808082018390528351808303909101815260a090910190925281519183019190912086845292909152612d78906001613cfd565b600085815260208181526040918290209290925580518083018790528082018490528151808203830181526060909101909152805191012061113f565b612dbf8383613259565b612dcc6000848484612fc9565b610fcf5760405160e560020a62461bcd0281526004016108a990613bfd565b82600160a060020a0316612dfe826115db565b600160a060020a031614612e7d5760405160e560020a62461bcd02815260206004820152602960248201527f4552433732313a207472616e73666572206f6620746f6b656e2074686174206960448201527f73206e6f74206f776e000000000000000000000000000000000000000000000060648201526084016108a9565b600160a060020a038216612efb5760405160e560020a62461bcd028152602060048201526024808201527f4552433732313a207472616e7366657220746f20746865207a65726f2061646460448201527f726573730000000000000000000000000000000000000000000000000000000060648201526084016108a9565b612f0683838361339e565b612f11600082612850565b600160a060020a0383166000908152600460205260408120805460019290612f3a908490613d48565b9091555050600160a060020a0382166000908152600460205260408120805460019290612f68908490613cfd565b90915550506000818152600360205260408082208054600160a060020a031916600160a060020a0386811691821790925591518493918716917fddf252ad1be2c89b69c2b068fc378daa952ba7f163c4a11628f55a4df523b3ef91a4505050565b6000600160a060020a0384163b15613100576040517f150b7a02000000000000000000000000000000000000000000000000000000008152600160a060020a0385169063150b7a0290613026903390899088908890600401613ad7565b602060405180830381600087803b15801561304057600080fd5b505af1925050508015613070575060408051601f3d908101601f1916820190925261306d91810190613956565b60015b6130cd573d80801561309e576040519150601f19603f3d011682016040523d82523d6000602084013e6130a3565b606091505b5080516130c55760405160e560020a62461bcd0281526004016108a990613bfd565b805181602001fd5b600160e060020a0319167f150b7a020000000000000000000000000000000000000000000000000000000014905061113f565b50600161113f565b60608161314857505060408051808201909152600181527f3000000000000000000000000000000000000000000000000000000000000000602082015290565b8160005b8115613172578061315c81613de0565b915061316b9050600a83613d15565b915061314c565b60008167ffffffffffffffff81111561318d5761318d613e5a565b6040519080825280601f01601f1916602001820160405280156131b7576020820181803683370190505b5090505b841561113f576131cc600183613d48565b91506131d9600a86613dfb565b6131e4906030613cfd565b7f01000000000000000000000000000000000000000000000000000000000000000281838151811061321857613218613e41565b60200101907effffffffffffffffffffffffffffffffffffffffffffffffffffffffffffff1916908160001a905350613252600a86613d15565b94506131bb565b600160a060020a0382166132b25760405160e560020a62461bcd02815260206004820181905260248201527f4552433732313a206d696e7420746f20746865207a65726f206164647265737360448201526064016108a9565b6132bb81612833565b1561330b5760405160e560020a62461bcd02815260206004820152601c60248201527f4552433732313a20746f6b656e20616c7265616479206d696e7465640000000060448201526064016108a9565b6133176000838361339e565b600160a060020a0382166000908152600460205260408120805460019290613340908490613cfd565b90915550506000818152600360205260408082208054600160a060020a031916600160a060020a03861690811790915590518392907fddf252ad1be2c89b69c2b068fc378daa952ba7f163c4a11628f55a4df523b3ef908290a45050565b600160a060020a0383166000908152600a6020908152604080832080548251818502810185019093528083529192909190849084015b8282101561342957600084815260209081902060408051606081018252600386029092018054835260018082015484860152600290910154600160a060020a03169183019190915290835290920191016133d4565b505050600160a060020a0386166000908152600a602052604081209293506134529291506136a3565b60005b81518110156135d0578282828151811061347157613471613e41565b6020026020010151600001511461350f57600160a060020a0385166000908152600a6020526040902082518390839081106134ae576134ae613e41565b6020908102919091018101518254600180820185556000948552938390208251600390920201908155918101519282019290925560409091015160029091018054600160a060020a031916600160a060020a039092169190911790556135be565b8382828151811061352257613522613e41565b602090810291909101810151600160a060020a039283166040918201529186166000908152600a90915220825183908390811061356157613561613e41565b6020908102919091018101518254600180820185556000948552938390208251600390920201908155918101519282019290925560409091015160029091018054600160a060020a031916600160a060020a039092169190911790555b806135c881613de0565b915050613455565b50506000908152600c602052604090208054600160a060020a031916600160a060020a039290921691909117905550565b508054600082559060005260206000209081019061274191906136c4565b82805461362b90613da2565b90600052602060002090601f01602090048101928261364d5760008555613693565b82601f1061366657805160ff1916838001178555613693565b82800160010185558215613693579182015b82811115613693578251825591602001919060010190613678565b5061369f9291506136c4565b5090565b508054600082556003029060005260206000209081019061274191906136d9565b5b8082111561369f57600081556001016136c5565b5b8082111561369f5760008082556001820155600281018054600160a060020a03191690556003016136da565b600067ffffffffffffffff8084111561372157613721613e5a565b604051601f8501601f19908116603f0116810190828211818310171561374957613749613e5a565b8160405280935085815286868601111561376257600080fd5b858560208301376000602087830101525050509392505050565b8035600160a060020a03811681146123e857600080fd5b6000602082840312156137a557600080fd5b612c0e8261377c565b600080604083850312156137c157600080fd5b6137ca8361377c565b91506137d86020840161377c565b90509250929050565b6000806000606084860312156137f657600080fd5b6137ff8461377c565b925061380d6020850161377c565b9150604084013590509250925092565b6000806000806080858703121561383357600080fd5b61383c8561377c565b935061384a6020860161377c565b925060408501359150606085013567ffffffffffffffff81111561386d57600080fd5b8501601f8101871361387e57600080fd5b61388d87823560208401613706565b91505092959194509250565b600080604083850312156138ac57600080fd5b6138b58361377c565b915060208301356138c581613e73565b809150509250929050565b600080604083850312156138e357600080fd5b6138ec8361377c565b946020939093013593505050565b60006020828403121561390c57600080fd5b8151612c0e81613e73565b6000806040838503121561392a57600080fd5b50508035926020909101359150565b60006020828403121561394b57600080fd5b8135612c0e81613e81565b60006020828403121561396857600080fd5b8151612c0e81613e81565b60006020828403121561398557600080fd5b5035919050565b60006020828403121561399e57600080fd5b5051919050565b600080604083850312156139b857600080fd5b82359150602083013567ffffffffffffffff8111156139d657600080fd5b8301601f810185136139e757600080fd5b6139f685823560208401613706565b9150509250929050565b60008060008060808587031215613a1657600080fd5b8435935060208501359250604085013591506060850135613a3681613e73565b939692955090935050565b600080600080600060a08688031215613a5957600080fd5b505083359560208501359550604085013594606081013594506080013592509050565b60008151808452613a94816020860160208601613d5f565b601f01601f19169290920160200192915050565b60008351613aba818460208801613d5f565b835190830190613ace818360208801613d5f565b01949350505050565b6000600160a060020a03808716835280861660208401525083604083015260806060830152613b096080830184613a7c565b9695505050505050565b600160a060020a0384168152826020820152606060408201526000613b3b6060830184613a7c565b95945050505050565b602080825282518282018190526000919060409081850190868401855b82811015613b99578151805185528681015187860152850151600160a060020a03168585015260609093019290850190600101613b61565b5091979650505050505050565b6020808252825182820181905260009190848201906040850190845b81811015613bde57835183529284019291840191600101613bc2565b50909695505050505050565b602081526000612c0e6020830184613a7c565b60208082526032908201527f4552433732313a207472616e7366657220746f206e6f6e20455243373231526560408201527f63656976657220696d706c656d656e7465720000000000000000000000000000606082015260800190565b6020808252818101527f4f776e61626c653a2063616c6c6572206973206e6f7420746865206f776e6572604082015260600190565b60208082526011908201527f506f6c69746963206e6f7420666f756e64000000000000000000000000000000604082015260600190565b60208082526010908201527f496e636f727265637420616d6f756e7400000000000000000000000000000000604082015260600190565b60008219821115613d1057613d10613e0f565b500190565b600082613d2457613d24613e28565b500490565b6000816000190483118215151615613d4357613d43613e0f565b500290565b600082821015613d5a57613d5a613e0f565b500390565b60005b83811015613d7a578181015183820152602001613d62565b838111156120055750506000910152565b600081613d9a57613d9a613e0f565b506000190190565b600281046001821680613db657607f821691505b60208210811415613dda5760e060020a634e487b7102600052602260045260246000fd5b50919050565b6000600019821415613df457613df4613e0f565b5060010190565b600082613e0a57613e0a613e28565b500690565b60e060020a634e487b7102600052601160045260246000fd5b60e060020a634e487b7102600052601260045260246000fd5b60e060020a634e487b7102600052603260045260246000fd5b60e060020a634e487b7102600052604160045260246000fd5b801515811461274157600080fd5b600160e060020a03198116811461274157600080fdfea2646970667358221220f945e8ed4b68ef35067686c8c72acae17379cb2694b73cd7aecb11158e4f529064736f6c63430008070033",
  "immutableReferences": {
    "73": [
      {
        "length": 32,
        "start": 8802
      },
      {
        "length": 32,
        "start": 11289
      }
    ],
    "75": [
      {
        "length": 32,
        "start": 6911
      },
      {
        "length": 32,
        "start": 11336
      }
    ]
  },
  "source": "// SPDX-License-Identifier: MIT\n\npragma solidity ^0.8.0;\nimport \"./Sell.sol\";\nimport \"./RandomNumberConsumer.sol\";\n\n/**\n* @title Base methode of lottery\n* @author Youness Chetoui\n*/\ncontract Lottery is Sell, RandomNumberConsumer {\n    struct LotteryAvailable {\n        uint256 id;\n        uint256 id_politics;\n        uint256 end_time;\n        uint256 price;\n        uint256 nb_player;\n        uint256 ticket_available;\n        bool created;\n    }\n\n    mapping(uint256 => address[]) internal userPlayedLottery;\n    mapping(uint256 => LotteryAvailable) internal lotteryAvailable;\n\n    event CreateLottery(uint256 id);\n    event UserPlayedLottery(uint256 id, address player);\n    event EndLottery(uint256 id, address winner);\n\n    /**\n    * @notice Create lottery\n    * @param _id, _id_politics, _end_time, _price, _ticket_available\n    */\n    function createLottery(\n        uint256 _id,\n        uint256 _id_politics,\n        uint256 _end_time,\n        uint256 _price,\n        uint256 _ticket_available\n    ) public onlyOwner {\n        require(politicsAvailable[_id_politics].lottery, \"Politic not available in lottery\");\n        require(!lotteryAvailable[_id].created, \"Lottery already exist\");\n        require(block.timestamp < _end_time, \"End time is in past\");\n        require(_price > 0, \"Price is 0\");\n        require(_ticket_available >= 50, \"Ticket availible under 50\");\n\n        LotteryAvailable memory lottery =\n            LotteryAvailable({id: _id, id_politics: _id_politics, end_time: _end_time, price: _price, ticket_available: _ticket_available, nb_player: 0, created: true});\n\n        lotteryAvailable[_id] = lottery;\n\n        emit CreateLottery(_id);\n    }\n\n    /**\n    * @notice Play lottery\n    * @param _id of lottery\n    */\n    function playLottery(uint256 _id) public payable {\n        require(msg.value == (lotteryAvailable[_id].price * 10**18) / 1000, \"Incorrect amount\");\n        require(lotteryAvailable[_id].created, \"Lottery not found\");\n        require(lotteryAvailable[_id].end_time > block.timestamp, \"Lottery not available\");\n        require(lotteryAvailable[_id].ticket_available > 0, \"No more ticket available\");\n\n        address[] memory users = userPlayedLottery[_id];\n        for (uint i = 0; i < users.length; i++) {\n            require(users[i] != msg.sender, \"Only one ticket by address\");\n        }\n\n        ownerAddress.transfer(msg.value);\n        userPlayedLottery[_id].push(msg.sender);\n        lotteryAvailable[_id].nb_player++;\n        lotteryAvailable[_id].ticket_available--;\n\n        emit UserPlayedLottery(_id, msg.sender);\n    }\n\n    /**\n    * @notice End lottery\n    * @param _id of lottery\n    */\n    function onEndLottery(uint256 _id) public onlyOwner {\n        require(lotteryAvailable[_id].created, \"Lottery not available\");\n        require(block.timestamp > lotteryAvailable[_id].end_time, \"Lottery not finished\");\n\n        uint256 id_politics = lotteryAvailable[_id].id_politics;\n        uint256 randomIndex =  (randomResult % userPlayedLottery[_id].length) + 1;\n        address winner = userPlayedLottery[_id][randomIndex];\n\n        uint256 id = uint256(keccak256(abi.encodePacked(tokenCounter, winner))) % 10000000000;\n        tokenCounter++;\n\n        _safeMint(winner, id);\n\n        PoliticsOwned memory politicOwned =\n            PoliticsOwned({id: id, id_politic: id_politics, owner: winner});\n\n        userOwnedPolitics[winner].push(politicOwned);\n        politicToUser[id] = winner;\n\n        delete lotteryAvailable[_id];\n        delete userPlayedLottery[_id];\n\n        emit EndLottery(_id, winner);\n    }\n\n}\n",
  "sourcePath": "/home/youness/Crypto/PoliticsCollectible/contracts/Lottery.sol",
  "compiler": {
    "name": "solc",
    "version": "0.8.7+commit.e28d00a7.Emscripten.clang"
  },
  "schemaVersion": "3.4.3",
  "updatedAt": "2021-09-03T13:36:17.339Z",
  "devdoc": {
    "author": "Youness Chetoui",
    "kind": "dev",
    "methods": {
      "addQty(uint256,uint256)": {
        "params": {
          "_id": "of PoliticsAvailable and _qty wished"
        }
      },
      "approve(address,uint256)": {
        "details": "See {IERC721-approve}."
      },
      "balanceOf(address)": {
        "details": "See {IERC721-balanceOf}."
      },
      "buy(uint256,string)": {
        "params": {
          "_id": ", _tokenUri of politician available"
        }
      },
      "buyPoliticsForSale(uint256)": {
        "params": {
          "_tokenId": "of politician for sale"
        }
      },
      "cancelSell(uint256)": {
        "params": {
          "_tokenId": "of politician for sale"
        }
      },
      "create(uint256,uint256,uint256,bool)": {
        "params": {
          "_id": ", _qty, _price and _lottery of politician available"
        }
      },
      "createLottery(uint256,uint256,uint256,uint256,uint256)": {
        "params": {
          "_id": ", _id_politics, _end_time, _price, _ticket_available"
        }
      },
      "forSale(uint256,uint256)": {
        "params": {
          "_tokenId": "of politician owned and _price wished"
        }
      },
      "getApproved(uint256)": {
        "details": "See {IERC721-getApproved}."
      },
      "getMyPolitics()": {
        "returns": {
          "_0": "array of struct PoliticsOwned"
        }
      },
      "getPoliticQty(uint256)": {
        "params": {
          "_id": "PoliticsAvailable"
        },
        "returns": {
          "_0": "uint256"
        }
      },
      "isApprovedForAll(address,address)": {
        "details": "See {IERC721-isApprovedForAll}."
      },
      "name()": {
        "details": "See {IERC721Metadata-name}."
      },
      "onERC721Received(address,address,uint256,bytes)": {
        "details": "See {IERC721Receiver-onERC721Received}. Always returns `IERC721Receiver.onERC721Received.selector`."
      },
      "onEndLottery(uint256)": {
        "params": {
          "_id": "of lottery"
        }
      },
      "owner()": {
        "details": "Returns the address of the current owner."
      },
      "ownerOf(uint256)": {
        "details": "See {IERC721-ownerOf}."
      },
      "playLottery(uint256)": {
        "params": {
          "_id": "of lottery"
        }
      },
      "renounceOwnership()": {
        "details": "Leaves the contract without owner. It will not be possible to call `onlyOwner` functions anymore. Can only be called by the current owner. NOTE: Renouncing ownership will leave the contract without an owner, thereby removing any functionality that is only available to the owner."
      },
      "safeTransferFrom(address,address,uint256)": {
        "details": "See {IERC721-safeTransferFrom}."
      },
      "safeTransferFrom(address,address,uint256,bytes)": {
        "details": "See {IERC721-safeTransferFrom}."
      },
      "setApprovalForAll(address,bool)": {
        "details": "See {IERC721-setApprovalForAll}."
      },
      "supportsInterface(bytes4)": {
        "details": "See {IERC165-supportsInterface}."
      },
      "symbol()": {
        "details": "See {IERC721Metadata-symbol}."
      },
      "tokenURI(uint256)": {
        "details": "See {IERC721Metadata-tokenURI}."
      },
      "transferOwnership(address)": {
        "details": "Transfers ownership of the contract to a new account (`newOwner`). Can only be called by the current owner."
      }
    },
    "title": "Base methode of lottery",
    "version": 1
  },
  "userdoc": {
    "kind": "user",
    "methods": {
      "addQty(uint256,uint256)": {
        "notice": "Add quantity for a PoliticsAvailable"
      },
      "buy(uint256,string)": {
        "notice": "Buy politician"
      },
      "buyPoliticsForSale(uint256)": {
        "notice": "Buy politician"
      },
      "cancelSell(uint256)": {
        "notice": "Cancel the sell of politician"
      },
      "create(uint256,uint256,uint256,bool)": {
        "notice": "Create politician"
      },
      "createLottery(uint256,uint256,uint256,uint256,uint256)": {
        "notice": "Create lottery"
      },
      "forSale(uint256,uint256)": {
        "notice": "Up for sale of owned politician"
      },
      "getMyPolitics()": {
        "notice": "Get politician by user"
      },
      "getPoliticQty(uint256)": {
        "notice": "get qty of politician available"
      },
      "getRandomNumber()": {
        "notice": "Requests randomness"
      },
      "onEndLottery(uint256)": {
        "notice": "End lottery"
      },
      "playLottery(uint256)": {
        "notice": "Play lottery"
      },
      "transferFrom(address,address,uint256)": {
        "notice": "Disabled not safe transform"
      }
    },
    "version": 1
  }
}