{
  "contractName": "Lottery",
  "abi": [
    {
      "anonymous": false,
      "inputs": [
        {
          "indexed": true,
          "internalType": "address",
          "name": "owner",
          "type": "address"
        },
        {
          "indexed": true,
          "internalType": "address",
          "name": "approved",
          "type": "address"
        },
        {
          "indexed": true,
          "internalType": "uint256",
          "name": "tokenId",
          "type": "uint256"
        }
      ],
      "name": "Approval",
      "type": "event"
    },
    {
      "anonymous": false,
      "inputs": [
        {
          "indexed": true,
          "internalType": "address",
          "name": "owner",
          "type": "address"
        },
        {
          "indexed": true,
          "internalType": "address",
          "name": "operator",
          "type": "address"
        },
        {
          "indexed": false,
          "internalType": "bool",
          "name": "approved",
          "type": "bool"
        }
      ],
      "name": "ApprovalForAll",
      "type": "event"
    },
    {
      "anonymous": false,
      "inputs": [
        {
          "indexed": true,
          "internalType": "address",
          "name": "previousOwner",
          "type": "address"
        },
        {
          "indexed": true,
          "internalType": "address",
          "name": "newOwner",
          "type": "address"
        }
      ],
      "name": "OwnershipTransferred",
      "type": "event"
    },
    {
      "anonymous": false,
      "inputs": [
        {
          "indexed": true,
          "internalType": "address",
          "name": "from",
          "type": "address"
        },
        {
          "indexed": true,
          "internalType": "address",
          "name": "to",
          "type": "address"
        },
        {
          "indexed": true,
          "internalType": "uint256",
          "name": "tokenId",
          "type": "uint256"
        }
      ],
      "name": "Transfer",
      "type": "event"
    },
    {
      "inputs": [
        {
          "internalType": "uint256",
          "name": "_id",
          "type": "uint256"
        },
        {
          "internalType": "uint256",
          "name": "_qty",
          "type": "uint256"
        }
      ],
      "name": "addQty",
      "outputs": [],
      "stateMutability": "nonpayable",
      "type": "function"
    },
    {
      "inputs": [
        {
          "internalType": "address",
          "name": "to",
          "type": "address"
        },
        {
          "internalType": "uint256",
          "name": "tokenId",
          "type": "uint256"
        }
      ],
      "name": "approve",
      "outputs": [],
      "stateMutability": "nonpayable",
      "type": "function"
    },
    {
      "inputs": [
        {
          "internalType": "uint256",
          "name": "",
          "type": "uint256"
        }
      ],
      "name": "arrayLotteryAvailable",
      "outputs": [
        {
          "internalType": "uint256",
          "name": "",
          "type": "uint256"
        }
      ],
      "stateMutability": "view",
      "type": "function"
    },
    {
      "inputs": [
        {
          "internalType": "uint256",
          "name": "",
          "type": "uint256"
        }
      ],
      "name": "arrayPoliticiansOnSale",
      "outputs": [
        {
          "internalType": "uint256",
          "name": "",
          "type": "uint256"
        }
      ],
      "stateMutability": "view",
      "type": "function"
    },
    {
      "inputs": [
        {
          "internalType": "address",
          "name": "owner",
          "type": "address"
        }
      ],
      "name": "balanceOf",
      "outputs": [
        {
          "internalType": "uint256",
          "name": "",
          "type": "uint256"
        }
      ],
      "stateMutability": "view",
      "type": "function"
    },
    {
      "inputs": [
        {
          "internalType": "uint256",
          "name": "_id",
          "type": "uint256"
        },
        {
          "internalType": "string",
          "name": "_tokenUri",
          "type": "string"
        }
      ],
      "name": "buy",
      "outputs": [],
      "stateMutability": "payable",
      "type": "function"
    },
    {
      "inputs": [
        {
          "internalType": "uint256",
          "name": "_tokenId",
          "type": "uint256"
        }
      ],
      "name": "buyPoliticsForSale",
      "outputs": [],
      "stateMutability": "payable",
      "type": "function"
    },
    {
      "inputs": [
        {
          "internalType": "uint256",
          "name": "_tokenId",
          "type": "uint256"
        }
      ],
      "name": "cancelSell",
      "outputs": [],
      "stateMutability": "payable",
      "type": "function"
    },
    {
      "inputs": [],
      "name": "contractAddress",
      "outputs": [
        {
          "internalType": "address payable",
          "name": "",
          "type": "address"
        }
      ],
      "stateMutability": "view",
      "type": "function"
    },
    {
      "inputs": [
        {
          "internalType": "string",
          "name": "_name",
          "type": "string"
        },
        {
          "internalType": "uint256",
          "name": "_id",
          "type": "uint256"
        },
        {
          "internalType": "uint256",
          "name": "_qty",
          "type": "uint256"
        },
        {
          "internalType": "uint256",
          "name": "_level",
          "type": "uint256"
        },
        {
          "internalType": "uint256",
          "name": "_price",
          "type": "uint256"
        },
        {
          "internalType": "bool",
          "name": "_lottery",
          "type": "bool"
        }
      ],
      "name": "create",
      "outputs": [
        {
          "components": [
            {
              "internalType": "uint256",
              "name": "id",
              "type": "uint256"
            },
            {
              "internalType": "uint256",
              "name": "qty",
              "type": "uint256"
            },
            {
              "internalType": "uint256",
              "name": "level",
              "type": "uint256"
            },
            {
              "internalType": "uint256",
              "name": "price",
              "type": "uint256"
            },
            {
              "internalType": "string",
              "name": "name",
              "type": "string"
            },
            {
              "internalType": "bool",
              "name": "lottery",
              "type": "bool"
            },
            {
              "internalType": "bool",
              "name": "created",
              "type": "bool"
            }
          ],
          "internalType": "struct Collectible.PoliticsAvailable",
          "name": "",
          "type": "tuple"
        }
      ],
      "stateMutability": "nonpayable",
      "type": "function"
    },
    {
      "inputs": [
        {
          "internalType": "uint256",
          "name": "_tokenId",
          "type": "uint256"
        },
        {
          "internalType": "uint256",
          "name": "_price",
          "type": "uint256"
        }
      ],
      "name": "forSale",
      "outputs": [],
      "stateMutability": "nonpayable",
      "type": "function"
    },
    {
      "inputs": [
        {
          "internalType": "uint256",
          "name": "tokenId",
          "type": "uint256"
        }
      ],
      "name": "getApproved",
      "outputs": [
        {
          "internalType": "address",
          "name": "",
          "type": "address"
        }
      ],
      "stateMutability": "view",
      "type": "function"
    },
    {
      "inputs": [],
      "name": "getMyPolitics",
      "outputs": [
        {
          "components": [
            {
              "internalType": "uint256",
              "name": "id",
              "type": "uint256"
            },
            {
              "internalType": "uint256",
              "name": "id_politic",
              "type": "uint256"
            },
            {
              "internalType": "address",
              "name": "owner",
              "type": "address"
            }
          ],
          "internalType": "struct Collectible.PoliticsOwned[]",
          "name": "",
          "type": "tuple[]"
        }
      ],
      "stateMutability": "view",
      "type": "function"
    },
    {
      "inputs": [
        {
          "internalType": "uint256",
          "name": "_id",
          "type": "uint256"
        }
      ],
      "name": "getPolitic",
      "outputs": [
        {
          "components": [
            {
              "internalType": "uint256",
              "name": "id",
              "type": "uint256"
            },
            {
              "internalType": "uint256",
              "name": "qty",
              "type": "uint256"
            },
            {
              "internalType": "uint256",
              "name": "level",
              "type": "uint256"
            },
            {
              "internalType": "uint256",
              "name": "price",
              "type": "uint256"
            },
            {
              "internalType": "string",
              "name": "name",
              "type": "string"
            },
            {
              "internalType": "bool",
              "name": "lottery",
              "type": "bool"
            },
            {
              "internalType": "bool",
              "name": "created",
              "type": "bool"
            }
          ],
          "internalType": "struct Collectible.PoliticsAvailable",
          "name": "",
          "type": "tuple"
        }
      ],
      "stateMutability": "view",
      "type": "function"
    },
    {
      "inputs": [],
      "name": "getPolitics",
      "outputs": [
        {
          "components": [
            {
              "internalType": "uint256",
              "name": "id",
              "type": "uint256"
            },
            {
              "internalType": "uint256",
              "name": "qty",
              "type": "uint256"
            },
            {
              "internalType": "uint256",
              "name": "level",
              "type": "uint256"
            },
            {
              "internalType": "uint256",
              "name": "price",
              "type": "uint256"
            },
            {
              "internalType": "string",
              "name": "name",
              "type": "string"
            },
            {
              "internalType": "bool",
              "name": "lottery",
              "type": "bool"
            },
            {
              "internalType": "bool",
              "name": "created",
              "type": "bool"
            }
          ],
          "internalType": "struct Collectible.PoliticsAvailable[]",
          "name": "",
          "type": "tuple[]"
        }
      ],
      "stateMutability": "view",
      "type": "function"
    },
    {
      "inputs": [
        {
          "internalType": "address",
          "name": "owner",
          "type": "address"
        },
        {
          "internalType": "address",
          "name": "operator",
          "type": "address"
        }
      ],
      "name": "isApprovedForAll",
      "outputs": [
        {
          "internalType": "bool",
          "name": "",
          "type": "bool"
        }
      ],
      "stateMutability": "view",
      "type": "function"
    },
    {
      "inputs": [],
      "name": "name",
      "outputs": [
        {
          "internalType": "string",
          "name": "",
          "type": "string"
        }
      ],
      "stateMutability": "view",
      "type": "function"
    },
    {
      "inputs": [
        {
          "internalType": "address",
          "name": "",
          "type": "address"
        },
        {
          "internalType": "address",
          "name": "",
          "type": "address"
        },
        {
          "internalType": "uint256",
          "name": "",
          "type": "uint256"
        },
        {
          "internalType": "bytes",
          "name": "",
          "type": "bytes"
        }
      ],
      "name": "onERC721Received",
      "outputs": [
        {
          "internalType": "bytes4",
          "name": "",
          "type": "bytes4"
        }
      ],
      "stateMutability": "nonpayable",
      "type": "function"
    },
    {
      "inputs": [],
      "name": "owner",
      "outputs": [
        {
          "internalType": "address",
          "name": "",
          "type": "address"
        }
      ],
      "stateMutability": "view",
      "type": "function"
    },
    {
      "inputs": [],
      "name": "ownerAddress",
      "outputs": [
        {
          "internalType": "address payable",
          "name": "",
          "type": "address"
        }
      ],
      "stateMutability": "view",
      "type": "function"
    },
    {
      "inputs": [
        {
          "internalType": "uint256",
          "name": "tokenId",
          "type": "uint256"
        }
      ],
      "name": "ownerOf",
      "outputs": [
        {
          "internalType": "address",
          "name": "",
          "type": "address"
        }
      ],
      "stateMutability": "view",
      "type": "function"
    },
    {
      "inputs": [],
      "name": "renounceOwnership",
      "outputs": [],
      "stateMutability": "nonpayable",
      "type": "function"
    },
    {
      "inputs": [
        {
          "internalType": "address",
          "name": "from",
          "type": "address"
        },
        {
          "internalType": "address",
          "name": "to",
          "type": "address"
        },
        {
          "internalType": "uint256",
          "name": "tokenId",
          "type": "uint256"
        }
      ],
      "name": "safeTransferFrom",
      "outputs": [],
      "stateMutability": "nonpayable",
      "type": "function"
    },
    {
      "inputs": [
        {
          "internalType": "address",
          "name": "from",
          "type": "address"
        },
        {
          "internalType": "address",
          "name": "to",
          "type": "address"
        },
        {
          "internalType": "uint256",
          "name": "tokenId",
          "type": "uint256"
        },
        {
          "internalType": "bytes",
          "name": "_data",
          "type": "bytes"
        }
      ],
      "name": "safeTransferFrom",
      "outputs": [],
      "stateMutability": "nonpayable",
      "type": "function"
    },
    {
      "inputs": [
        {
          "internalType": "address",
          "name": "operator",
          "type": "address"
        },
        {
          "internalType": "bool",
          "name": "approved",
          "type": "bool"
        }
      ],
      "name": "setApprovalForAll",
      "outputs": [],
      "stateMutability": "nonpayable",
      "type": "function"
    },
    {
      "inputs": [
        {
          "internalType": "bytes4",
          "name": "interfaceId",
          "type": "bytes4"
        }
      ],
      "name": "supportsInterface",
      "outputs": [
        {
          "internalType": "bool",
          "name": "",
          "type": "bool"
        }
      ],
      "stateMutability": "view",
      "type": "function"
    },
    {
      "inputs": [],
      "name": "symbol",
      "outputs": [
        {
          "internalType": "string",
          "name": "",
          "type": "string"
        }
      ],
      "stateMutability": "view",
      "type": "function"
    },
    {
      "inputs": [
        {
          "internalType": "uint256",
          "name": "tokenId",
          "type": "uint256"
        }
      ],
      "name": "tokenURI",
      "outputs": [
        {
          "internalType": "string",
          "name": "",
          "type": "string"
        }
      ],
      "stateMutability": "view",
      "type": "function"
    },
    {
      "inputs": [
        {
          "internalType": "address",
          "name": "from",
          "type": "address"
        },
        {
          "internalType": "address",
          "name": "to",
          "type": "address"
        },
        {
          "internalType": "uint256",
          "name": "tokenId",
          "type": "uint256"
        }
      ],
      "name": "transferFrom",
      "outputs": [],
      "stateMutability": "nonpayable",
      "type": "function"
    },
    {
      "inputs": [
        {
          "internalType": "address",
          "name": "newOwner",
          "type": "address"
        }
      ],
      "name": "transferOwnership",
      "outputs": [],
      "stateMutability": "nonpayable",
      "type": "function"
    },
    {
      "inputs": [
        {
          "internalType": "uint256",
          "name": "",
          "type": "uint256"
        },
        {
          "internalType": "uint256",
          "name": "",
          "type": "uint256"
        }
      ],
      "name": "userPlayedLottery",
      "outputs": [
        {
          "internalType": "address",
          "name": "",
          "type": "address"
        }
      ],
      "stateMutability": "view",
      "type": "function"
    },
    {
      "inputs": [
        {
          "internalType": "uint256",
          "name": "_id",
          "type": "uint256"
        },
        {
          "internalType": "uint256",
          "name": "_id_politics",
          "type": "uint256"
        },
        {
          "internalType": "uint256",
          "name": "_end_time",
          "type": "uint256"
        },
        {
          "internalType": "uint256",
          "name": "_price",
          "type": "uint256"
        },
        {
          "internalType": "uint256",
          "name": "_ticket_available",
          "type": "uint256"
        }
      ],
      "name": "createLottery",
      "outputs": [],
      "stateMutability": "nonpayable",
      "type": "function"
    },
    {
      "inputs": [
        {
          "internalType": "uint256",
          "name": "_id",
          "type": "uint256"
        }
      ],
      "name": "playLottery",
      "outputs": [],
      "stateMutability": "payable",
      "type": "function"
    },
    {
      "inputs": [
        {
          "internalType": "uint256",
          "name": "_id",
          "type": "uint256"
        }
      ],
      "name": "random",
      "outputs": [
        {
          "internalType": "uint256",
          "name": "",
          "type": "uint256"
        }
      ],
      "stateMutability": "nonpayable",
      "type": "function"
    },
    {
      "inputs": [
        {
          "internalType": "uint256",
          "name": "_id",
          "type": "uint256"
        }
      ],
      "name": "onEndLottery",
      "outputs": [],
      "stateMutability": "nonpayable",
      "type": "function"
    }
  ],
  "bytecode": "0x60806040526001600e5560056011553480156200001b57600080fd5b50604080518082018252600b81527f506f6c69746963734e667400000000000000000000000000000000000000000060208083019182528351808501909452600384527f504f4c0000000000000000000000000000000000000000000000000000000000908401528151919291620000969160009162000157565b508051620000ac90600190602084019062000157565b505050620000db620000cc62000101640100000000026401000000009004565b64010000000062000105810204565b600c8054600160a060020a03199081163317909155600d80549091163017905562000253565b3390565b60078054600160a060020a03838116600160a060020a0319831681179093556040519116919082907f8be0079c531659141344cd1fd0a4f28419497f9722a3daafe3b4186f6b6457e090600090a35050565b8280546200016590620001fd565b90600052602060002090601f016020900481019282620001895760008555620001d4565b82601f10620001a457805160ff1916838001178555620001d4565b82800160010185558215620001d4579182015b82811115620001d4578251825591602001919060010190620001b7565b50620001e2929150620001e6565b5090565b5b80821115620001e25760008155600101620001e7565b6002810460018216806200021257607f821691505b602082108114156200024d577f4e487b7100000000000000000000000000000000000000000000000000000000600052602260045260246000fd5b50919050565b6142f580620002636000396000f3fe608060405260043610610221576000357c01000000000000000000000000000000000000000000000000000000009004806385d3343611610135578063b863bd37116100bd578063c87b56dd1161008c578063c87b56dd14610603578063e7e6c81c14610623578063e985e9c514610643578063f2fde38b1461068c578063f6b4dfb4146106ac57600080fd5b8063b863bd3714610583578063b88d4fde146105a3578063b9db1c98146105c3578063bf6e9bb2146105e357600080fd5b80638fedc864116101045780638fedc864146104fb578063935b8d971461051b57806395d89b411461053b578063a22cb46514610550578063b7dc3b181461057057600080fd5b806385d334361461047b5780638cd61e211461049d5780638da5cb5b146104bd5780638f84aa09146104db57600080fd5b806323b872dd116101b857806354b3efa61161018757806354b3efa6146103d85780635ad16b7f146103f85780636352211e1461041857806370a0823114610438578063715018a61461046657600080fd5b806323b872dd1461036357806330f105cd1461038357806342842e0e146103a5578063546f9e67146103c557600080fd5b8063081812fc116101f4578063081812fc146102a5578063095ea7b3146102dd57806311143277146102fd578063150b7a021461032a57600080fd5b806301ffc9a71461022657806303ddcab81461025b57806306fdde031461027057806307c9cd4514610292575b600080fd5b34801561023257600080fd5b50610246610241366004613ce8565b6106cc565b60405190151581526020015b60405180910390f35b61026e610269366004613d95565b610769565b005b34801561027c57600080fd5b50610285610a0f565b604051610252919061400d565b61026e6102a0366004613d95565b610aa1565b3480156102b157600080fd5b506102c56102c0366004613d95565b610c4c565b604051600160a060020a039091168152602001610252565b3480156102e957600080fd5b5061026e6102f8366004613cbe565b610ce8565b34801561030957600080fd5b5061031d610318366004613d22565b610e20565b6040516102529190614120565b34801561033657600080fd5b5061034a610345366004613c18565b611099565b604051600160e060020a03199091168152602001610252565b34801561036f57600080fd5b5061026e61037e366004613bdc565b6110c3565b34801561038f57600080fd5b506103986110f0565b6040516102529190613f4a565b3480156103b157600080fd5b5061026e6103c0366004613bdc565b611260565b61026e6103d3366004613d95565b61127b565b3480156103e457600080fd5b5061026e6103f3366004613df5565b6114f3565b34801561040457600080fd5b5061031d610413366004613d95565b611637565b34801561042457600080fd5b506102c5610433366004613d95565b6117d6565b34801561044457600080fd5b50610458610453366004613b8e565b611864565b604051908152602001610252565b34801561047257600080fd5b5061026e611901565b34801561048757600080fd5b5061049061193a565b6040516102529190613fab565b3480156104a957600080fd5b506102c56104b8366004613df5565b6119be565b3480156104c957600080fd5b50600754600160a060020a03166102c5565b3480156104e757600080fd5b50600c546102c590600160a060020a031681565b34801561050757600080fd5b50610458610516366004613d95565b6119f6565b34801561052757600080fd5b5061026e610536366004613d95565b611a17565b34801561054757600080fd5b50610285611ea2565b34801561055c57600080fd5b5061026e61056b366004613c94565b611eb1565b61026e61057e366004613dae565b611f79565b34801561058f57600080fd5b5061045861059e366004613d95565b6124d7565b3480156105af57600080fd5b5061026e6105be366004613c18565b612538565b3480156105cf57600080fd5b5061026e6105de366004613df5565b6125c9565b3480156105ef57600080fd5b506104586105fe366004613d95565b61275a565b34801561060f57600080fd5b5061028561061e366004613d95565b61276a565b34801561062f57600080fd5b5061026e61063e366004613e17565b6128e8565b34801561064f57600080fd5b5061024661065e366004613ba9565b600160a060020a03918216600090815260056020908152604080832093909416825291909152205460ff1690565b34801561069857600080fd5b5061026e6106a7366004613b8e565b612b8c565b3480156106b857600080fd5b50600d546102c590600160a060020a031681565b6000600160e060020a031982167f80ac58cd00000000000000000000000000000000000000000000000000000000148061072f5750600160e060020a031982167f5b5e139f00000000000000000000000000000000000000000000000000000000145b8061076357507f01ffc9a700000000000000000000000000000000000000000000000000000000600160e060020a03198316145b92915050565b6000818152601360205260409020600301546103e89061079190670de0b6b3a764000061415f565b61079b919061414b565b34146107c55760405160e560020a62461bcd0281526004016107bc906140e9565b60405180910390fd5b60008181526013602052604090206006015460ff166107f95760405160e560020a62461bcd0281526004016107bc906140b2565b600081815260136020526040902060020154421061082c5760405160e560020a62461bcd0281526004016107bc906140b2565b60008181526013602052604090206005015461085d5760405160e560020a62461bcd0281526004016107bc906140b2565b6000818152601260209081526040808320805482518185028101850190935280835291929091908301828280156108bd57602002820191906000526020600020905b8154600160a060020a0316815260019091019060200180831161089f575b5050505050905060005b81518110156109605733600160a060020a03168282815181106108ec576108ec614277565b6020026020010151600160a060020a0316141561094e5760405160e560020a62461bcd02815260206004820152601a60248201527f4f6e6c79206f6e65207469636b6574206279206164647265737300000000000060448201526064016107bc565b8061095881614216565b9150506108c7565b50600c54604051600160a060020a03909116903480156108fc02916000818181858888f1935050505015801561099a573d6000803e3d6000fd5b5060008281526012602090815260408083208054600181018255908452828420018054600160a060020a03191633179055848352601390915281206004018054916109e483614216565b90915550506000828152601360205260408120600501805491610a06836141c1565b91905055505050565b606060008054610a1e906141d8565b80601f0160208091040260200160405190810160405280929190818152602001828054610a4a906141d8565b8015610a975780601f10610a6c57610100808354040283529160200191610a97565b820191906000526020600020905b815481529060010190602001808311610a7a57829003601f168201915b5050505050905090565b6000818152600f6020526040902060020154600160a060020a03163314610b0d5760405160e560020a62461bcd02815260206004820152601360248201527f4e6f7420796f757220706f6c6974696369616e0000000000000000000000000060448201526064016107bc565b6011546000828152600f602052604081206001015490916064916103e890610b3d90670de0b6b3a764000061415f565b610b47919061414b565b610b51919061415f565b610b5b919061414b565b9050803414610b7f5760405160e560020a62461bcd0281526004016107bc906140e9565b600c54604051600160a060020a039091169082156108fc029083906000818181858888f19350505050158015610bb9573d6000803e3d6000fd5b50600d546040517f42842e0e000000000000000000000000000000000000000000000000000000008152600160a060020a0390911660048201523360248201526044810183905230906342842e0e90606401600060405180830381600087803b158015610c2557600080fd5b505af1158015610c39573d6000803e3d6000fd5b50505050610c48826001612c44565b5050565b6000610c5782612d18565b610ccc5760405160e560020a62461bcd02815260206004820152602c60248201527f4552433732313a20617070726f76656420717565727920666f72206e6f6e657860448201527f697374656e7420746f6b656e000000000000000000000000000000000000000060648201526084016107bc565b50600090815260046020526040902054600160a060020a031690565b6000610cf3826117d6565b905080600160a060020a031683600160a060020a03161415610d805760405160e560020a62461bcd02815260206004820152602160248201527f4552433732313a20617070726f76616c20746f2063757272656e74206f776e6560448201527f720000000000000000000000000000000000000000000000000000000000000060648201526084016107bc565b33600160a060020a0382161480610d9c5750610d9c813361065e565b610e115760405160e560020a62461bcd02815260206004820152603860248201527f4552433732313a20617070726f76652063616c6c6572206973206e6f74206f7760448201527f6e6572206e6f7220617070726f76656420666f7220616c6c000000000000000060648201526084016107bc565b610e1b8383612d35565b505050565b610e28613910565b600754600160a060020a03163314610e555760405160e560020a62461bcd0281526004016107bc9061407d565b600086815260096020526040902060050154610100900460ff1615610ebf5760405160e560020a62461bcd02815260206004820152601160248201527f696420616c726561647920696e2075736500000000000000000000000000000060448201526064016107bc565b6040805160e081018252878152602080820188815292820187815260608301878152608084018c815287151560a0860152600160c0860181905260088054918201815560005285517ff3f7a9fe364faab93b216da50a3214154f22a0a2b415b23a84c8169e8b636ee3600690920291820190815596517ff3f7a9fe364faab93b216da50a3214154f22a0a2b415b23a84c8169e8b636ee482015592517ff3f7a9fe364faab93b216da50a3214154f22a0a2b415b23a84c8169e8b636ee584015590517ff3f7a9fe364faab93b216da50a3214154f22a0a2b415b23a84c8169e8b636ee6830155518051939485949093610fdc937ff3f7a9fe364faab93b216da50a3214154f22a0a2b415b23a84c8169e8b636ee701920190613951565b5060a08201516005909101805460c09093015115156101000261ff00199215159290921661ffff199093169290921717905560008781526009602090815260409182902083518155818401516001820155918301516002830155606083015160038301556080830151805184939261105b926004850192910190613951565b5060a08201516005909101805460c09093015115156101000261ff00199215159290921661ffff199093169290921717905590509695505050505050565b7f150b7a02000000000000000000000000000000000000000000000000000000005b949350505050565b600754600160a060020a03163314610e1b5760405160e560020a62461bcd0281526004016107bc9061407d565b600754606090600160a060020a031633146111205760405160e560020a62461bcd0281526004016107bc9061407d565b6008805480602002602001604051908101604052809291908181526020016000905b8282101561125757838290600052602060002090600602016040518060e00160405290816000820154815260200160018201548152602001600282015481526020016003820154815260200160048201805461119d906141d8565b80601f01602080910402602001604051908101604052809291908181526020018280546111c9906141d8565b80156112165780601f106111eb57610100808354040283529160200191611216565b820191906000526020600020905b8154815290600101906020018083116111f957829003601f168201915b50505091835250506005919091015460ff80821615156020808501919091526101009092041615156040909201919091529082526001929092019101611142565b50505050905090565b610e1b83838360405180602001604052806000815250612538565b6000818152600f602052604090206002015474010000000000000000000000000000000000000000900460ff166112f75760405160e560020a62461bcd02815260206004820152601760248201527f506f6c6974696369616e206e6f7420666f722073616c6500000000000000000060448201526064016107bc565b6000818152600f6020526040902060020154600160a060020a03163314156113645760405160e560020a62461bcd02815260206004820152600f60248201527f596f757220706f6c6974696369616e000000000000000000000000000000000060448201526064016107bc565b6000818152600f60205260409020600101546103e89061138c90670de0b6b3a764000061415f565b611396919061414b565b34146113b75760405160e560020a62461bcd0281526004016107bc906140e9565b60006064601154346113c9919061415f565b6113d3919061414b565b905060006113e1823461417e565b600c54604051919250600160a060020a03169083156108fc029084906000818181858888f1935050505015801561141c573d6000803e3d6000fd5b506000838152600f6020526040808220600201549051600160a060020a039091169183156108fc02918491818181858888f19350505050158015611464573d6000803e3d6000fd5b50600d546040517f42842e0e000000000000000000000000000000000000000000000000000000008152600160a060020a0390911660048201523360248201526044810184905230906342842e0e90606401600060405180830381600087803b1580156114d057600080fd5b505af11580156114e4573d6000803e3d6000fd5b50505050610e1b836001612c44565b6000828152600b6020526040902054600160a060020a031633146115825760405160e560020a62461bcd02815260206004820152602260248201527f596f7520617265206e6f7420746865206f776e6572206f662074686520746f6b60448201527f656e00000000000000000000000000000000000000000000000000000000000060648201526084016107bc565b600d5461159a903390600160a060020a031684611260565b604080516080810182528381526020808201848152338385019081526001606085018181526000898152600f9095529590932084518155915182840155516002909101805494511515740100000000000000000000000000000000000000000274ffffffffffffffffffffffffffffffffffffffffff19909516600160a060020a0392909216919091179390931790925590610e1b908490612c44565b61163f613910565b600754600160a060020a0316331461166c5760405160e560020a62461bcd0281526004016107bc9061407d565b600082815260096020526040902060050154610100900460ff166116d55760405160e560020a62461bcd02815260206004820152601160248201527f506f6c69746963206e6f7420666f756e6400000000000000000000000000000060448201526064016107bc565b600960008381526020019081526020016000206040518060e00160405290816000820154815260200160018201548152602001600282015481526020016003820154815260200160048201805461172b906141d8565b80601f0160208091040260200160405190810160405280929190818152602001828054611757906141d8565b80156117a45780601f10611779576101008083540402835291602001916117a4565b820191906000526020600020905b81548152906001019060200180831161178757829003601f168201915b50505091835250506005919091015460ff8082161515602084015261010090910416151560409091015290505b919050565b600081815260026020526040812054600160a060020a0316806107635760405160e560020a62461bcd02815260206004820152602960248201527f4552433732313a206f776e657220717565727920666f72206e6f6e657869737460448201527f656e7420746f6b656e000000000000000000000000000000000000000000000060648201526084016107bc565b6000600160a060020a0382166118e55760405160e560020a62461bcd02815260206004820152602a60248201527f4552433732313a2062616c616e636520717565727920666f7220746865207a6560448201527f726f20616464726573730000000000000000000000000000000000000000000060648201526084016107bc565b50600160a060020a031660009081526003602052604090205490565b600754600160a060020a0316331461192e5760405160e560020a62461bcd0281526004016107bc9061407d565b6119386000612da3565b565b336000908152600a60209081526040808320805482518185028101850190935280835260609492939192909184015b8282101561125757600084815260209081902060408051606081018252600386029092018054835260018082015484860152600290910154600160a060020a0316918301919091529083529092019101611969565b601260205281600052604060002081815481106119da57600080fd5b600091825260209091200154600160a060020a03169150829050565b60108181548110611a0657600080fd5b600091825260209091200154905081565b600754600160a060020a03163314611a445760405160e560020a62461bcd0281526004016107bc9061407d565b60008181526013602052604090206006015460ff16611a785760405160e560020a62461bcd0281526004016107bc906140b2565b6000818152601360205260409020600201544211611adb5760405160e560020a62461bcd02815260206004820152601460248201527f4c6f7474657279206e6f742066696e697368656400000000000000000000000060448201526064016107bc565b60008181526013602052604081206001015490611af6613910565b60005b600854811015611d44578360088281548110611b1757611b17614277565b9060005260206000209060060201600001541415611d325760088181548110611b4257611b42614277565b90600052602060002090600602016040518060e001604052908160008201548152602001600182015481526020016002820154815260200160038201548152602001600482018054611b93906141d8565b80601f0160208091040260200160405190810160405280929190818152602001828054611bbf906141d8565b8015611c0c5780601f10611be157610100808354040283529160200191611c0c565b820191906000526020600020905b815481529060010190602001808311611bef57829003601f168201915b50505091835250506005919091015460ff80821615156020840152610100909104161515604090910152600880549193509082908110611c4e57611c4e614277565b600091825260208220600160069092020101805491611c6c836141c1565b919050555060088181548110611c8457611c84614277565b906000526020600020906006020160096000868152602001908152602001600020600082015481600001556001820154816001015560028201548160020155600382015481600301556004820181600401908054611ce1906141d8565b611cec9291906139d5565b506005918201805491909201805460ff19811660ff93841615159081178355935461ffff1990911661ff0019909416939093176101009384900490921615159092021790555b80611d3c81614216565b915050611af9565b5060006402540be400600e5484604051602001611d83929190918252600160a060020a03166c0100000000000000000000000002602082015260340190565b60408051601f198184030181529190528051602090910120611da59190614231565b600e80549192506000611db783614216565b9190505550611dc68382612df5565b604080516060810182528281526020808201878152600160a060020a038088168486018181526000828152600a86528781208054600181810183559183528783208951600392830290910190815596518783015592516002968701805491909616600160a060020a031991821617909555898252600b875288822080549095169093179093558b83526013855286832083815591820183905592810182905591820181905560048201819055600582018190556006909101805460ff1916905560129091529182209091611e9a9190613a50565b505050505050565b606060018054610a1e906141d8565b600160a060020a038216331415611f0d5760405160e560020a62461bcd02815260206004820152601960248201527f4552433732313a20617070726f766520746f2063616c6c65720000000000000060448201526064016107bc565b336000818152600560209081526040808320600160a060020a03871680855290835292819020805460ff191686151590811790915590519081529192917f17307eab39ab6107e8899845ad3d59bd9653f200f220920489ca2b5937696c31910160405180910390a35050565b600082815260096020526040902060050154610100900460ff16611fe25760405160e560020a62461bcd02815260206004820152601160248201527f506f6c69746963206e6f7420666f756e6400000000000000000000000000000060448201526064016107bc565b60008281526009602052604090206005015460ff161561206d5760405160e560020a62461bcd02815260206004820152602360248201527f506f6c69746963206f6e6c7920617661696c61626c652077697468206c6f747460448201527f657279000000000000000000000000000000000000000000000000000000000060648201526084016107bc565b6000828152600960205260409020600101546120f45760405160e560020a62461bcd02815260206004820152602260248201527f5468657265206973206e6f206d6f726520706f6c6974696320617661696c616260448201527f6c6500000000000000000000000000000000000000000000000000000000000060648201526084016107bc565b6000828152600960205260409020600301546103e89061211c90670de0b6b3a764000061415f565b612126919061414b565b34146121475760405160e560020a62461bcd0281526004016107bc906140e9565b61214f613910565b60005b60085481101561239d57836008828154811061217057612170614277565b906000526020600020906006020160000154141561238b576008818154811061219b5761219b614277565b90600052602060002090600602016040518060e0016040529081600082015481526020016001820154815260200160028201548152602001600382015481526020016004820180546121ec906141d8565b80601f0160208091040260200160405190810160405280929190818152602001828054612218906141d8565b80156122655780601f1061223a57610100808354040283529160200191612265565b820191906000526020600020905b81548152906001019060200180831161224857829003601f168201915b50505091835250506005919091015460ff808216151560208401526101009091041615156040909101526008805491935090829081106122a7576122a7614277565b6000918252602082206001600690920201018054916122c5836141c1565b9190505550600881815481106122dd576122dd614277565b90600052602060002090600602016009600086815260200190815260200160002060008201548160000155600182015481600101556002820154816002015560038201548160030155600482018160040190805461233a906141d8565b6123459291906139d5565b506005918201805491909201805460ff19811660ff93841615159081178355935461ffff1990911661ff0019909416939093176101009384900490921615159092021790555b8061239581614216565b915050612152565b50600e5460408051602080820193909352336c01000000000000000000000000028183015281516034818303018152605490910190915280519101206000906123ec906402540be40090614231565b600e805491925060006123fe83614216565b9091555050600c54604051600160a060020a03909116903480156108fc02916000818181858888f1935050505015801561243c573d6000803e3d6000fd5b506124473382612df5565b6124518184612e0f565b6040805160608101825282815292516020808501918252338584018181526000828152600a8452858120805460018181018355918352858320995160039091029099019889559451948801949094555160029096018054600160a060020a0397909716600160a060020a0319978816179055938252600b90522080549092161790555050565b600081815260136020908152604080832060010154601283528184205482514294810194909452918301859052606083018190529160800160408051601f1981840301815291905280516020909101206125319190614231565b9392505050565b6125423383612eac565b6125b75760405160e560020a62461bcd02815260206004820152603160248201527f4552433732313a207472616e736665722063616c6c6572206973206e6f74206f60448201527f776e6572206e6f7220617070726f76656400000000000000000000000000000060648201526084016107bc565b6125c384848484612fa6565b50505050565b600754600160a060020a031633146125f65760405160e560020a62461bcd0281526004016107bc9061407d565b60005b600854811015610e1b57826008828154811061261757612617614277565b9060005260206000209060060201600001541480156126595750816008828154811061264557612645614277565b906000526020600020906006020160010154105b1561274857816008828154811061267257612672614277565b9060005260206000209060060201600101819055506008818154811061269a5761269a614277565b9060005260206000209060060201600960008581526020019081526020016000206000820154816000015560018201548160010155600282015481600201556003820154816003015560048201816004019080546126f7906141d8565b6127029291906139d5565b506005918201805491909201805460ff19811660ff93841615159081178355935461ffff1990911661ff0019909416939093176101009384900490921615159092021790555b8061275281614216565b9150506125f9565b60148181548110611a0657600080fd5b606061277582612d18565b6127ea5760405160e560020a62461bcd02815260206004820152603160248201527f45524337323155524953746f726167653a2055524920717565727920666f722060448201527f6e6f6e6578697374656e7420746f6b656e00000000000000000000000000000060648201526084016107bc565b60008281526006602052604081208054612803906141d8565b80601f016020809104026020016040519081016040528092919081815260200182805461282f906141d8565b801561287c5780601f106128515761010080835404028352916020019161287c565b820191906000526020600020905b81548152906001019060200180831161285f57829003601f168201915b50505050509050600061289a60408051602081019091526000815290565b90508051600014156128ad575092915050565b8151156128df5780826040516020016128c7929190613edf565b60405160208183030381529060405292505050919050565b6110bb84612fdc565b600754600160a060020a031633146129155760405160e560020a62461bcd0281526004016107bc9061407d565b60008481526009602052604090206005015460ff166129795760405160e560020a62461bcd02815260206004820181905260248201527f506f6c69746963206e6f7420617661696c61626c6520696e206c6f747465727960448201526064016107bc565b60008581526013602052604090206006015460ff16156129de5760405160e560020a62461bcd02815260206004820152601560248201527f4c6f747465727920616c7265616479206578697374000000000000000000000060448201526064016107bc565b824210612a305760405160e560020a62461bcd02815260206004820152601360248201527f456e642074696d6520697320696e20706173740000000000000000000000000060448201526064016107bc565b60008211612a835760405160e560020a62461bcd02815260206004820152600a60248201527f507269636520697320300000000000000000000000000000000000000000000060448201526064016107bc565b600a811015612ad75760405160e560020a62461bcd02815260206004820152601960248201527f5469636b657420617661696c69626c6520756e6465722035300000000000000060448201526064016107bc565b6040805160e08101825286815260208082019687528183019586526060820194855260006080830181815260a08401958652600160c08501818152601480548084019091557fce6d7b5282bd9a3661ae061feed1dbda4e52ab073b1f9285be6e155d9c38d4ec018c90559a835260139093529390209151825595519581019590955592516002850155905160038401559051600483015551600582015590516006909101805460ff1916911515919091179055565b600754600160a060020a03163314612bb95760405160e560020a62461bcd0281526004016107bc9061407d565b600160a060020a038116612c385760405160e560020a62461bcd02815260206004820152602660248201527f4f776e61626c653a206e6577206f776e657220697320746865207a65726f206160448201527f646472657373000000000000000000000000000000000000000000000000000060648201526084016107bc565b612c4181612da3565b50565b8015612ce2576000828152600f6020526040812081815560018101829055600201805474ffffffffffffffffffffffffffffffffffffffffff191690555b601054811015610e1b578260108281548110612ca057612ca0614277565b90600052602060002001541415612cd05760108181548110612cc457612cc4614277565b60009182526020822001555b80612cda81614216565b915050612c82565b50601080546001810182556000919091527f1b6847dc741a1b0cd08d278845f9d819d87b734759afb55fe2de5cb82a9ae6720155565b600090815260026020526040902054600160a060020a0316151590565b60008181526004602052604090208054600160a060020a031916600160a060020a0384169081179091558190612d6a826117d6565b600160a060020a03167f8c5be1e5ebec7d5bd14f71427d1e84f3dd0314c0f7b2291e5b200ac8c7c3b92560405160405180910390a45050565b60078054600160a060020a03838116600160a060020a0319831681179093556040519116919082907f8be0079c531659141344cd1fd0a4f28419497f9722a3daafe3b4186f6b6457e090600090a35050565b610c488282604051806020016040528060008152506130c4565b612e1882612d18565b612e8d5760405160e560020a62461bcd02815260206004820152602e60248201527f45524337323155524953746f726167653a2055524920736574206f66206e6f6e60448201527f6578697374656e7420746f6b656e00000000000000000000000000000000000060648201526084016107bc565b60008281526006602090815260409091208251610e1b92840190613951565b6000612eb782612d18565b612f2c5760405160e560020a62461bcd02815260206004820152602c60248201527f4552433732313a206f70657261746f7220717565727920666f72206e6f6e657860448201527f697374656e7420746f6b656e000000000000000000000000000000000000000060648201526084016107bc565b6000612f37836117d6565b905080600160a060020a031684600160a060020a03161480612f72575083600160a060020a0316612f6784610c4c565b600160a060020a0316145b806110bb5750600160a060020a0380821660009081526005602090815260408083209388168352929052205460ff166110bb565b612fb18484846130fa565b612fbd848484846132d8565b6125c35760405160e560020a62461bcd0281526004016107bc90614020565b6060612fe782612d18565b61305c5760405160e560020a62461bcd02815260206004820152602f60248201527f4552433732314d657461646174613a2055524920717565727920666f72206e6f60448201527f6e6578697374656e7420746f6b656e000000000000000000000000000000000060648201526084016107bc565b600061307360408051602081019091526000815290565b905060008151116130935760405180602001604052806000815250612531565b8061309d84613417565b6040516020016130ae929190613edf565b6040516020818303038152906040529392505050565b6130ce8383613568565b6130db60008484846132d8565b610e1b5760405160e560020a62461bcd0281526004016107bc90614020565b82600160a060020a031661310d826117d6565b600160a060020a03161461318c5760405160e560020a62461bcd02815260206004820152602960248201527f4552433732313a207472616e73666572206f6620746f6b656e2074686174206960448201527f73206e6f74206f776e000000000000000000000000000000000000000000000060648201526084016107bc565b600160a060020a03821661320a5760405160e560020a62461bcd028152602060048201526024808201527f4552433732313a207472616e7366657220746f20746865207a65726f2061646460448201527f726573730000000000000000000000000000000000000000000000000000000060648201526084016107bc565b6132158383836136ad565b613220600082612d35565b600160a060020a038316600090815260036020526040812080546001929061324990849061417e565b9091555050600160a060020a0382166000908152600360205260408120805460019290613277908490614133565b90915550506000818152600260205260408082208054600160a060020a031916600160a060020a0386811691821790925591518493918716917fddf252ad1be2c89b69c2b068fc378daa952ba7f163c4a11628f55a4df523b3ef91a4505050565b6000600160a060020a0384163b1561340f576040517f150b7a02000000000000000000000000000000000000000000000000000000008152600160a060020a0385169063150b7a0290613335903390899088908890600401613f0e565b602060405180830381600087803b15801561334f57600080fd5b505af192505050801561337f575060408051601f3d908101601f1916820190925261337c91810190613d05565b60015b6133dc573d8080156133ad576040519150601f19603f3d011682016040523d82523d6000602084013e6133b2565b606091505b5080516133d45760405160e560020a62461bcd0281526004016107bc90614020565b805181602001fd5b600160e060020a0319167f150b7a02000000000000000000000000000000000000000000000000000000001490506110bb565b5060016110bb565b60608161345757505060408051808201909152600181527f3000000000000000000000000000000000000000000000000000000000000000602082015290565b8160005b8115613481578061346b81614216565b915061347a9050600a8361414b565b915061345b565b60008167ffffffffffffffff81111561349c5761349c614290565b6040519080825280601f01601f1916602001820160405280156134c6576020820181803683370190505b5090505b84156110bb576134db60018361417e565b91506134e8600a86614231565b6134f3906030614133565b7f01000000000000000000000000000000000000000000000000000000000000000281838151811061352757613527614277565b60200101907effffffffffffffffffffffffffffffffffffffffffffffffffffffffffffff1916908160001a905350613561600a8661414b565b94506134ca565b600160a060020a0382166135c15760405160e560020a62461bcd02815260206004820181905260248201527f4552433732313a206d696e7420746f20746865207a65726f206164647265737360448201526064016107bc565b6135ca81612d18565b1561361a5760405160e560020a62461bcd02815260206004820152601c60248201527f4552433732313a20746f6b656e20616c7265616479206d696e7465640000000060448201526064016107bc565b613626600083836136ad565b600160a060020a038216600090815260036020526040812080546001929061364f908490614133565b90915550506000818152600260205260408082208054600160a060020a031916600160a060020a03861690811790915590518392907fddf252ad1be2c89b69c2b068fc378daa952ba7f163c4a11628f55a4df523b3ef908290a45050565b600160a060020a0383166000908152600a6020908152604080832080548251818502810185019093528083529192909190849084015b8282101561373857600084815260209081902060408051606081018252600386029092018054835260018082015484860152600290910154600160a060020a03169183019190915290835290920191016136e3565b505050600160a060020a0386166000908152600a60205260408120929350613761929150613a6e565b60005b81518110156138df578282828151811061378057613780614277565b6020026020010151600001511461381e57600160a060020a0385166000908152600a6020526040902082518390839081106137bd576137bd614277565b6020908102919091018101518254600180820185556000948552938390208251600390920201908155918101519282019290925560409091015160029091018054600160a060020a031916600160a060020a039092169190911790556138cd565b8382828151811061383157613831614277565b602090810291909101810151600160a060020a039283166040918201529186166000908152600a90915220825183908390811061387057613870614277565b6020908102919091018101518254600180820185556000948552938390208251600390920201908155918101519282019290925560409091015160029091018054600160a060020a031916600160a060020a039092169190911790555b806138d781614216565b915050613764565b50506000908152600b602052604090208054600160a060020a031916600160a060020a039290921691909117905550565b6040518060e0016040528060008152602001600081526020016000815260200160008152602001606081526020016000151581526020016000151581525090565b82805461395d906141d8565b90600052602060002090601f01602090048101928261397f57600085556139c5565b82601f1061399857805160ff19168380011785556139c5565b828001600101855582156139c5579182015b828111156139c55782518255916020019190600101906139aa565b506139d1929150613a8f565b5090565b8280546139e1906141d8565b90600052602060002090601f016020900481019282613a0357600085556139c5565b82601f10613a1457805485556139c5565b828001600101855582156139c557600052602060002091601f016020900482015b828111156139c5578254825591600101919060010190613a35565b5080546000825590600052602060002090810190612c419190613a8f565b5080546000825560030290600052602060002090810190612c419190613aa4565b5b808211156139d15760008155600101613a90565b5b808211156139d15760008082556001820155600281018054600160a060020a0319169055600301613aa5565b600067ffffffffffffffff80841115613aec57613aec614290565b604051601f8501601f19908116603f01168101908282118183101715613b1457613b14614290565b81604052809350858152868686011115613b2d57600080fd5b858560208301376000602087830101525050509392505050565b8035600160a060020a03811681146117d157600080fd5b803580151581146117d157600080fd5b600082601f830112613b7f57600080fd5b61253183833560208501613ad1565b600060208284031215613ba057600080fd5b61253182613b47565b60008060408385031215613bbc57600080fd5b613bc583613b47565b9150613bd360208401613b47565b90509250929050565b600080600060608486031215613bf157600080fd5b613bfa84613b47565b9250613c0860208501613b47565b9150604084013590509250925092565b60008060008060808587031215613c2e57600080fd5b613c3785613b47565b9350613c4560208601613b47565b925060408501359150606085013567ffffffffffffffff811115613c6857600080fd5b8501601f81018713613c7957600080fd5b613c8887823560208401613ad1565b91505092959194509250565b60008060408385031215613ca757600080fd5b613cb083613b47565b9150613bd360208401613b5e565b60008060408385031215613cd157600080fd5b613cda83613b47565b946020939093013593505050565b600060208284031215613cfa57600080fd5b8135612531816142a9565b600060208284031215613d1757600080fd5b8151612531816142a9565b60008060008060008060c08789031215613d3b57600080fd5b863567ffffffffffffffff811115613d5257600080fd5b613d5e89828a01613b6e565b96505060208701359450604087013593506060870135925060808701359150613d8960a08801613b5e565b90509295509295509295565b600060208284031215613da757600080fd5b5035919050565b60008060408385031215613dc157600080fd5b82359150602083013567ffffffffffffffff811115613ddf57600080fd5b613deb85828601613b6e565b9150509250929050565b60008060408385031215613e0857600080fd5b50508035926020909101359150565b600080600080600060a08688031215613e2f57600080fd5b505083359560208501359550604085013594606081013594506080013592509050565b60008151808452613e6a816020860160208601614195565b601f01601f19169290920160200192915050565b805182526020810151602083015260408101516040830152606081015160608301526000608082015160e06080850152613ebb60e0850182613e52565b905060a0830151151560a085015260c0830151151560c08501528091505092915050565b60008351613ef1818460208801614195565b835190830190613f05818360208801614195565b01949350505050565b6000600160a060020a03808716835280861660208401525083604083015260806060830152613f406080830184613e52565b9695505050505050565b600060208083018184528085518083526040860191506040848202870101925083870160005b82811015613f9e57603f19888603018452613f8c858351613e7e565b94509285019290850190600101613f70565b5092979650505050505050565b602080825282518282018190526000919060409081850190868401855b82811015614000578151805185528681015187860152850151600160a060020a03168585015260609093019290850190600101613fc8565b5091979650505050505050565b6020815260006125316020830184613e52565b60208082526032908201527f4552433732313a207472616e7366657220746f206e6f6e20455243373231526560408201527f63656976657220696d706c656d656e7465720000000000000000000000000000606082015260800190565b6020808252818101527f4f776e61626c653a2063616c6c6572206973206e6f7420746865206f776e6572604082015260600190565b60208082526015908201527f4c6f7474657279206e6f7420617661696c61626c650000000000000000000000604082015260600190565b60208082526010908201527f496e636f727265637420616d6f756e7400000000000000000000000000000000604082015260600190565b6020815260006125316020830184613e7e565b6000821982111561414657614146614245565b500190565b60008261415a5761415a61425e565b500490565b600081600019048311821515161561417957614179614245565b500290565b60008282101561419057614190614245565b500390565b60005b838110156141b0578181015183820152602001614198565b838111156125c35750506000910152565b6000816141d0576141d0614245565b506000190190565b6002810460018216806141ec57607f821691505b602082108114156142105760e060020a634e487b7102600052602260045260246000fd5b50919050565b600060001982141561422a5761422a614245565b5060010190565b6000826142405761424061425e565b500690565b60e060020a634e487b7102600052601160045260246000fd5b60e060020a634e487b7102600052601260045260246000fd5b60e060020a634e487b7102600052603260045260246000fd5b60e060020a634e487b7102600052604160045260246000fd5b600160e060020a031981168114612c4157600080fdfea26469706673582212202e57a139198c2d7b5a2bf6d2a9b2ff359f56a9ba3513c7ef7e49e2c0a1c0e42764736f6c63430008070033",
  "immutableReferences": {},
  "source": "// SPDX-License-Identifier: MIT\n\npragma solidity ^0.8.0;\nimport \"./Sell.sol\";\n\n/**\n* @title Base methode of lottery\n* @author Youness Chetoui\n*/\ncontract Lottery is Sell {\n    struct LotteryAvailable {\n        uint256 id;\n        uint256 id_politics;\n        uint256 end_time;\n        uint256 price;\n        uint256 nbPlayer;\n        uint256 ticket_available;\n        bool created;\n    }\n\n    mapping(uint256 => address[]) public userPlayedLottery;\n    mapping(uint256 => LotteryAvailable) internal lotteryAvailable;\n\n    uint256[] public arrayLotteryAvailable;\n\n    function createLottery(\n        uint256 _id,\n        uint256 _id_politics,\n        uint256 _end_time,\n        uint256 _price,\n        uint256 _ticket_available\n    ) public onlyOwner {\n        require(politicsAvailable[_id_politics].lottery, \"Politic not available in lottery\");\n        require(!lotteryAvailable[_id].created, \"Lottery already exist\");\n        require(block.timestamp < _end_time, \"End time is in past\");\n        require(_price > 0, \"Price is 0\");\n        require(_ticket_available >= 10, \"Ticket availible under 50\");\n\n        LotteryAvailable memory lottery =\n            LotteryAvailable({id: _id, id_politics: _id_politics, end_time: _end_time, price: _price, ticket_available: _ticket_available, nbPlayer: 0, created: true});\n\n        arrayLotteryAvailable.push(lottery.id);\n        lotteryAvailable[_id] = lottery;\n    }\n\n    function playLottery(uint256 _id) public payable {\n        require(msg.value == (lotteryAvailable[_id].price * 10**18) / 1000, \"Incorrect amount\");\n        require(lotteryAvailable[_id].created, \"Lottery not available\");\n        require(lotteryAvailable[_id].end_time > block.timestamp, \"Lottery not available\");\n        require(lotteryAvailable[_id].ticket_available > 0, \"Lottery not available\");\n\n        address[] memory users = userPlayedLottery[_id];\n        for (uint i = 0; i < users.length; i++) {\n            require(users[i] != msg.sender, \"Only one ticket by address\");\n        }\n\n        ownerAddress.transfer(msg.value);\n        userPlayedLottery[_id].push(msg.sender);\n        lotteryAvailable[_id].nbPlayer++;\n        lotteryAvailable[_id].ticket_available--;\n    }\n\n    function random(uint256 _id) public returns (uint256){\n        uint256 id_politics = lotteryAvailable[_id].id_politics;\n\n        return uint256(keccak256(abi.encodePacked(block.timestamp, _id, id_politics))) % userPlayedLottery[_id].length;\n    }\n\n    function onEndLottery(uint256 _id) public onlyOwner {\n        require(lotteryAvailable[_id].created, \"Lottery not available\");\n        require(block.timestamp > lotteryAvailable[_id].end_time, \"Lottery not finished\");\n\n        uint256 id_politics = lotteryAvailable[_id].id_politics;\n        address winner; //uint256(keccak256(abi.encodePacked(block.timestamp, _id, id_politics))) % userPlayedLottery[_id].length;\n\n        PoliticsAvailable memory politic;\n\n        for (uint i = 0; i < politics.length; i++) {\n            if (politics[i].id == id_politics) {\n                politic = politics[i];\n                politics[i].qty--;\n                politicsAvailable[id_politics] = politics[i];\n            }\n        }\n\n        uint256 id = uint256(keccak256(abi.encodePacked(tokenCounter, winner))) % 10000000000;\n        tokenCounter++;\n\n        _safeMint(winner, id);\n\n        PoliticsOwned memory politicOwned =\n            PoliticsOwned({id: id, id_politic: id_politics, owner: winner});\n\n        userOwnedPolitics[winner].push(politicOwned);\n        politicToUser[id] = winner;\n\n        delete lotteryAvailable[_id];\n        delete userPlayedLottery[_id];\n    }\n\n}\n",
  "sourcePath": "/home/youness/Crypto/PoliticsCollectible/contracts/Lottery.sol",
  "compiler": {
    "name": "solc",
    "version": "0.8.7+commit.e28d00a7.Emscripten.clang"
  },
  "schemaVersion": "3.4.3",
  "updatedAt": "2021-09-02T12:16:38.590Z",
  "devdoc": {
    "author": "Youness Chetoui",
    "kind": "dev",
    "methods": {
      "addQty(uint256,uint256)": {
        "params": {
          "_id": "of PoliticsAvailable and _qty wished"
        }
      },
      "approve(address,uint256)": {
        "details": "See {IERC721-approve}."
      },
      "balanceOf(address)": {
        "details": "See {IERC721-balanceOf}."
      },
      "buy(uint256,string)": {
        "params": {
          "_id": ", _tokenUri of politician available"
        }
      },
      "buyPoliticsForSale(uint256)": {
        "params": {
          "_tokenId": "of politician for sale"
        }
      },
      "cancelSell(uint256)": {
        "params": {
          "_tokenId": "of politician for sale"
        }
      },
      "create(string,uint256,uint256,uint256,uint256,bool)": {
        "params": {
          "_name": ", _id, _qty, _level, _price and _lottery of politician available"
        },
        "returns": {
          "_0": "PoliticsAvailable created"
        }
      },
      "forSale(uint256,uint256)": {
        "params": {
          "_tokenId": "of politician owned and _price wished"
        }
      },
      "getApproved(uint256)": {
        "details": "See {IERC721-getApproved}."
      },
      "getMyPolitics()": {
        "returns": {
          "_0": "array of struct PoliticsOwned"
        }
      },
      "getPolitic(uint256)": {
        "params": {
          "_id": "of politician"
        },
        "returns": {
          "_0": "struct PoliticsAvailable"
        }
      },
      "getPolitics()": {
        "returns": {
          "_0": "Array of struct PoliticsAvailable"
        }
      },
      "isApprovedForAll(address,address)": {
        "details": "See {IERC721-isApprovedForAll}."
      },
      "name()": {
        "details": "See {IERC721Metadata-name}."
      },
      "onERC721Received(address,address,uint256,bytes)": {
        "details": "See {IERC721Receiver-onERC721Received}. Always returns `IERC721Receiver.onERC721Received.selector`."
      },
      "owner()": {
        "details": "Returns the address of the current owner."
      },
      "ownerOf(uint256)": {
        "details": "See {IERC721-ownerOf}."
      },
      "renounceOwnership()": {
        "details": "Leaves the contract without owner. It will not be possible to call `onlyOwner` functions anymore. Can only be called by the current owner. NOTE: Renouncing ownership will leave the contract without an owner, thereby removing any functionality that is only available to the owner."
      },
      "safeTransferFrom(address,address,uint256)": {
        "details": "See {IERC721-safeTransferFrom}."
      },
      "safeTransferFrom(address,address,uint256,bytes)": {
        "details": "See {IERC721-safeTransferFrom}."
      },
      "setApprovalForAll(address,bool)": {
        "details": "See {IERC721-setApprovalForAll}."
      },
      "supportsInterface(bytes4)": {
        "details": "See {IERC165-supportsInterface}."
      },
      "symbol()": {
        "details": "See {IERC721Metadata-symbol}."
      },
      "tokenURI(uint256)": {
        "details": "See {IERC721Metadata-tokenURI}."
      },
      "transferOwnership(address)": {
        "details": "Transfers ownership of the contract to a new account (`newOwner`). Can only be called by the current owner."
      }
    },
    "title": "Base methode of lottery",
    "version": 1
  },
  "userdoc": {
    "kind": "user",
    "methods": {
      "addQty(uint256,uint256)": {
        "notice": "Add quantity for a PoliticsAvailable"
      },
      "buy(uint256,string)": {
        "notice": "Buy politician"
      },
      "buyPoliticsForSale(uint256)": {
        "notice": "Buy politician"
      },
      "cancelSell(uint256)": {
        "notice": "Cancel the sell of politician"
      },
      "create(string,uint256,uint256,uint256,uint256,bool)": {
        "notice": "Create politician"
      },
      "forSale(uint256,uint256)": {
        "notice": "Up for sale of owned politician"
      },
      "getMyPolitics()": {
        "notice": "Get politician by user"
      },
      "getPolitic(uint256)": {
        "notice": "get politician available by id"
      },
      "getPolitics()": {
        "notice": "get list of all politician available"
      },
      "transferFrom(address,address,uint256)": {
        "notice": "Disabled not safe transform"
      }
    },
    "version": 1
  }
}