{
  "contractName": "LotteryFactory",
  "abi": [
    {
      "anonymous": false,
      "inputs": [
        {
          "indexed": true,
          "internalType": "address",
          "name": "owner",
          "type": "address"
        },
        {
          "indexed": true,
          "internalType": "address",
          "name": "approved",
          "type": "address"
        },
        {
          "indexed": true,
          "internalType": "uint256",
          "name": "tokenId",
          "type": "uint256"
        }
      ],
      "name": "Approval",
      "type": "event"
    },
    {
      "anonymous": false,
      "inputs": [
        {
          "indexed": true,
          "internalType": "address",
          "name": "owner",
          "type": "address"
        },
        {
          "indexed": true,
          "internalType": "address",
          "name": "operator",
          "type": "address"
        },
        {
          "indexed": false,
          "internalType": "bool",
          "name": "approved",
          "type": "bool"
        }
      ],
      "name": "ApprovalForAll",
      "type": "event"
    },
    {
      "anonymous": false,
      "inputs": [
        {
          "indexed": true,
          "internalType": "address",
          "name": "previousOwner",
          "type": "address"
        },
        {
          "indexed": true,
          "internalType": "address",
          "name": "newOwner",
          "type": "address"
        }
      ],
      "name": "OwnershipTransferred",
      "type": "event"
    },
    {
      "anonymous": false,
      "inputs": [
        {
          "indexed": true,
          "internalType": "address",
          "name": "from",
          "type": "address"
        },
        {
          "indexed": true,
          "internalType": "address",
          "name": "to",
          "type": "address"
        },
        {
          "indexed": true,
          "internalType": "uint256",
          "name": "tokenId",
          "type": "uint256"
        }
      ],
      "name": "Transfer",
      "type": "event"
    },
    {
      "inputs": [
        {
          "internalType": "uint256",
          "name": "_id",
          "type": "uint256"
        },
        {
          "internalType": "uint256",
          "name": "_qty",
          "type": "uint256"
        }
      ],
      "name": "addQty",
      "outputs": [],
      "stateMutability": "nonpayable",
      "type": "function"
    },
    {
      "inputs": [
        {
          "internalType": "address",
          "name": "to",
          "type": "address"
        },
        {
          "internalType": "uint256",
          "name": "tokenId",
          "type": "uint256"
        }
      ],
      "name": "approve",
      "outputs": [],
      "stateMutability": "nonpayable",
      "type": "function"
    },
    {
      "inputs": [
        {
          "internalType": "address",
          "name": "owner",
          "type": "address"
        }
      ],
      "name": "balanceOf",
      "outputs": [
        {
          "internalType": "uint256",
          "name": "",
          "type": "uint256"
        }
      ],
      "stateMutability": "view",
      "type": "function"
    },
    {
      "inputs": [
        {
          "internalType": "uint256",
          "name": "_id",
          "type": "uint256"
        }
      ],
      "name": "buy",
      "outputs": [],
      "stateMutability": "payable",
      "type": "function"
    },
    {
      "inputs": [
        {
          "internalType": "uint256",
          "name": "_tokenId",
          "type": "uint256"
        }
      ],
      "name": "buyPoliticsForSale",
      "outputs": [],
      "stateMutability": "payable",
      "type": "function"
    },
    {
      "inputs": [
        {
          "internalType": "uint256",
          "name": "_tokenId",
          "type": "uint256"
        }
      ],
      "name": "cancelSell",
      "outputs": [],
      "stateMutability": "nonpayable",
      "type": "function"
    },
    {
      "inputs": [],
      "name": "contractAddress",
      "outputs": [
        {
          "internalType": "address payable",
          "name": "",
          "type": "address"
        }
      ],
      "stateMutability": "view",
      "type": "function"
    },
    {
      "inputs": [
        {
          "internalType": "string",
          "name": "_name",
          "type": "string"
        },
        {
          "internalType": "uint256",
          "name": "_id",
          "type": "uint256"
        },
        {
          "internalType": "uint256",
          "name": "_qty",
          "type": "uint256"
        },
        {
          "internalType": "uint256",
          "name": "_level",
          "type": "uint256"
        },
        {
          "internalType": "uint256",
          "name": "_price",
          "type": "uint256"
        },
        {
          "internalType": "bool",
          "name": "_lottery",
          "type": "bool"
        }
      ],
      "name": "create",
      "outputs": [
        {
          "components": [
            {
              "internalType": "uint256",
              "name": "id",
              "type": "uint256"
            },
            {
              "internalType": "uint256",
              "name": "qty",
              "type": "uint256"
            },
            {
              "internalType": "uint256",
              "name": "level",
              "type": "uint256"
            },
            {
              "internalType": "uint256",
              "name": "price",
              "type": "uint256"
            },
            {
              "internalType": "string",
              "name": "name",
              "type": "string"
            },
            {
              "internalType": "bool",
              "name": "lottery",
              "type": "bool"
            },
            {
              "internalType": "bool",
              "name": "created",
              "type": "bool"
            }
          ],
          "internalType": "struct Collectible.PoliticsAvailable",
          "name": "",
          "type": "tuple"
        }
      ],
      "stateMutability": "nonpayable",
      "type": "function"
    },
    {
      "inputs": [
        {
          "internalType": "uint256",
          "name": "_tokenId",
          "type": "uint256"
        },
        {
          "internalType": "uint256",
          "name": "_price",
          "type": "uint256"
        }
      ],
      "name": "forSale",
      "outputs": [],
      "stateMutability": "nonpayable",
      "type": "function"
    },
    {
      "inputs": [
        {
          "internalType": "uint256",
          "name": "tokenId",
          "type": "uint256"
        }
      ],
      "name": "getApproved",
      "outputs": [
        {
          "internalType": "address",
          "name": "",
          "type": "address"
        }
      ],
      "stateMutability": "view",
      "type": "function"
    },
    {
      "inputs": [],
      "name": "getMyPolitics",
      "outputs": [
        {
          "components": [
            {
              "internalType": "uint256",
              "name": "id",
              "type": "uint256"
            },
            {
              "internalType": "uint256",
              "name": "id_politic",
              "type": "uint256"
            },
            {
              "internalType": "address",
              "name": "owner",
              "type": "address"
            }
          ],
          "internalType": "struct Collectible.PoliticsOwned[]",
          "name": "",
          "type": "tuple[]"
        }
      ],
      "stateMutability": "view",
      "type": "function"
    },
    {
      "inputs": [
        {
          "internalType": "uint256",
          "name": "_id",
          "type": "uint256"
        }
      ],
      "name": "getPolitic",
      "outputs": [
        {
          "components": [
            {
              "internalType": "uint256",
              "name": "id",
              "type": "uint256"
            },
            {
              "internalType": "uint256",
              "name": "qty",
              "type": "uint256"
            },
            {
              "internalType": "uint256",
              "name": "level",
              "type": "uint256"
            },
            {
              "internalType": "uint256",
              "name": "price",
              "type": "uint256"
            },
            {
              "internalType": "string",
              "name": "name",
              "type": "string"
            },
            {
              "internalType": "bool",
              "name": "lottery",
              "type": "bool"
            },
            {
              "internalType": "bool",
              "name": "created",
              "type": "bool"
            }
          ],
          "internalType": "struct Collectible.PoliticsAvailable",
          "name": "",
          "type": "tuple"
        }
      ],
      "stateMutability": "view",
      "type": "function"
    },
    {
      "inputs": [],
      "name": "getPolitics",
      "outputs": [
        {
          "components": [
            {
              "internalType": "uint256",
              "name": "id",
              "type": "uint256"
            },
            {
              "internalType": "uint256",
              "name": "qty",
              "type": "uint256"
            },
            {
              "internalType": "uint256",
              "name": "level",
              "type": "uint256"
            },
            {
              "internalType": "uint256",
              "name": "price",
              "type": "uint256"
            },
            {
              "internalType": "string",
              "name": "name",
              "type": "string"
            },
            {
              "internalType": "bool",
              "name": "lottery",
              "type": "bool"
            },
            {
              "internalType": "bool",
              "name": "created",
              "type": "bool"
            }
          ],
          "internalType": "struct Collectible.PoliticsAvailable[]",
          "name": "",
          "type": "tuple[]"
        }
      ],
      "stateMutability": "view",
      "type": "function"
    },
    {
      "inputs": [
        {
          "internalType": "address",
          "name": "owner",
          "type": "address"
        },
        {
          "internalType": "address",
          "name": "operator",
          "type": "address"
        }
      ],
      "name": "isApprovedForAll",
      "outputs": [
        {
          "internalType": "bool",
          "name": "",
          "type": "bool"
        }
      ],
      "stateMutability": "view",
      "type": "function"
    },
    {
      "inputs": [],
      "name": "name",
      "outputs": [
        {
          "internalType": "string",
          "name": "",
          "type": "string"
        }
      ],
      "stateMutability": "view",
      "type": "function"
    },
    {
      "inputs": [],
      "name": "owner",
      "outputs": [
        {
          "internalType": "address",
          "name": "",
          "type": "address"
        }
      ],
      "stateMutability": "view",
      "type": "function"
    },
    {
      "inputs": [],
      "name": "ownerAddress",
      "outputs": [
        {
          "internalType": "address payable",
          "name": "",
          "type": "address"
        }
      ],
      "stateMutability": "view",
      "type": "function"
    },
    {
      "inputs": [
        {
          "internalType": "uint256",
          "name": "tokenId",
          "type": "uint256"
        }
      ],
      "name": "ownerOf",
      "outputs": [
        {
          "internalType": "address",
          "name": "",
          "type": "address"
        }
      ],
      "stateMutability": "view",
      "type": "function"
    },
    {
      "inputs": [],
      "name": "renounceOwnership",
      "outputs": [],
      "stateMutability": "nonpayable",
      "type": "function"
    },
    {
      "inputs": [
        {
          "internalType": "address",
          "name": "from",
          "type": "address"
        },
        {
          "internalType": "address",
          "name": "to",
          "type": "address"
        },
        {
          "internalType": "uint256",
          "name": "tokenId",
          "type": "uint256"
        }
      ],
      "name": "safeTransferFrom",
      "outputs": [],
      "stateMutability": "nonpayable",
      "type": "function"
    },
    {
      "inputs": [
        {
          "internalType": "address",
          "name": "from",
          "type": "address"
        },
        {
          "internalType": "address",
          "name": "to",
          "type": "address"
        },
        {
          "internalType": "uint256",
          "name": "tokenId",
          "type": "uint256"
        },
        {
          "internalType": "bytes",
          "name": "_data",
          "type": "bytes"
        }
      ],
      "name": "safeTransferFrom",
      "outputs": [],
      "stateMutability": "nonpayable",
      "type": "function"
    },
    {
      "inputs": [
        {
          "internalType": "address",
          "name": "operator",
          "type": "address"
        },
        {
          "internalType": "bool",
          "name": "approved",
          "type": "bool"
        }
      ],
      "name": "setApprovalForAll",
      "outputs": [],
      "stateMutability": "nonpayable",
      "type": "function"
    },
    {
      "inputs": [
        {
          "internalType": "bytes4",
          "name": "interfaceId",
          "type": "bytes4"
        }
      ],
      "name": "supportsInterface",
      "outputs": [
        {
          "internalType": "bool",
          "name": "",
          "type": "bool"
        }
      ],
      "stateMutability": "view",
      "type": "function"
    },
    {
      "inputs": [],
      "name": "symbol",
      "outputs": [
        {
          "internalType": "string",
          "name": "",
          "type": "string"
        }
      ],
      "stateMutability": "view",
      "type": "function"
    },
    {
      "inputs": [
        {
          "internalType": "uint256",
          "name": "tokenId",
          "type": "uint256"
        }
      ],
      "name": "tokenURI",
      "outputs": [
        {
          "internalType": "string",
          "name": "",
          "type": "string"
        }
      ],
      "stateMutability": "view",
      "type": "function"
    },
    {
      "inputs": [
        {
          "internalType": "address",
          "name": "from",
          "type": "address"
        },
        {
          "internalType": "address",
          "name": "to",
          "type": "address"
        },
        {
          "internalType": "uint256",
          "name": "tokenId",
          "type": "uint256"
        }
      ],
      "name": "transferFrom",
      "outputs": [],
      "stateMutability": "nonpayable",
      "type": "function"
    },
    {
      "inputs": [
        {
          "internalType": "address",
          "name": "newOwner",
          "type": "address"
        }
      ],
      "name": "transferOwnership",
      "outputs": [],
      "stateMutability": "nonpayable",
      "type": "function"
    }
  ],
  "bytecode": "0x60806040526001600d556005600f553480156200001b57600080fd5b506040518060400160405280600b81526020017f506f6c69746963734e66740000000000000000000000000000000000000000008152506040518060400160405280600381526020017f504f4c00000000000000000000000000000000000000000000000000000000008152508160009080519060200190620000a092919062000232565b508060019080519060200190620000b992919062000232565b505050620000dc620000d06200016460201b60201c565b6200016c60201b60201c565b33600b60006101000a81548173ffffffffffffffffffffffffffffffffffffffff021916908373ffffffffffffffffffffffffffffffffffffffff16021790555030600c60006101000a81548173ffffffffffffffffffffffffffffffffffffffff021916908373ffffffffffffffffffffffffffffffffffffffff16021790555062000347565b600033905090565b6000600660009054906101000a900473ffffffffffffffffffffffffffffffffffffffff16905081600660006101000a81548173ffffffffffffffffffffffffffffffffffffffff021916908373ffffffffffffffffffffffffffffffffffffffff1602179055508173ffffffffffffffffffffffffffffffffffffffff168173ffffffffffffffffffffffffffffffffffffffff167f8be0079c531659141344cd1fd0a4f28419497f9722a3daafe3b4186f6b6457e060405160405180910390a35050565b8280546200024090620002e2565b90600052602060002090601f016020900481019282620002645760008555620002b0565b82601f106200027f57805160ff1916838001178555620002b0565b82800160010185558215620002b0579182015b82811115620002af57825182559160200191906001019062000292565b5b509050620002bf9190620002c3565b5090565b5b80821115620002de576000816000905550600101620002c4565b5090565b60006002820490506001821680620002fb57607f821691505b6020821081141562000312576200031162000318565b5b50919050565b7f4e487b7100000000000000000000000000000000000000000000000000000000600052602260045260246000fd5b615b1180620003576000396000f3fe60806040526004361061019c5760003560e01c806370a08231116100ec578063b88d4fde1161008a578063d96a094a11610064578063d96a094a146105c9578063e985e9c5146105e5578063f2fde38b14610622578063f6b4dfb41461064b5761019c565b8063b88d4fde1461053a578063b9db1c9814610563578063c87b56dd1461058c5761019c565b80638da5cb5b116100c65780638da5cb5b146104905780638f84aa09146104bb57806395d89b41146104e6578063a22cb465146105115761019c565b806370a0823114610411578063715018a61461044e57806385d33436146104655761019c565b806323b872dd11610159578063546f9e6711610133578063546f9e671461035257806354b3efa61461036e5780635ad16b7f146103975780636352211e146103d45761019c565b806323b872dd146102d557806330f105cd146102fe57806342842e0e146103295761019c565b806301ffc9a7146101a157806306fdde03146101de57806307c9cd4514610209578063081812fc14610232578063095ea7b31461026f5780631114327714610298575b600080fd5b3480156101ad57600080fd5b506101c860048036038101906101c391906140d5565b610676565b6040516101d59190614af8565b60405180910390f35b3480156101ea57600080fd5b506101f3610758565b6040516102009190614b13565b60405180910390f35b34801561021557600080fd5b50610230600480360381019061022b91906141d8565b6107ea565b005b34801561023e57600080fd5b50610259600480360381019061025491906141d8565b6109b0565b60405161026691906149fb565b60405180910390f35b34801561027b57600080fd5b5061029660048036038101906102919190614095565b610a35565b005b3480156102a457600080fd5b506102bf60048036038101906102ba919061412f565b610b4d565b6040516102cc9190614e55565b60405180910390f35b3480156102e157600080fd5b506102fc60048036038101906102f79190613f7f565b610dce565b005b34801561030a57600080fd5b50610313610e4f565b6040516103209190614ab4565b60405180910390f35b34801561033557600080fd5b50610350600480360381019061034b9190613f7f565b61101a565b005b61036c600480360381019061036791906141d8565b61103a565b005b34801561037a57600080fd5b5061039560048036038101906103909190614205565b6113f2565b005b3480156103a357600080fd5b506103be60048036038101906103b991906141d8565b6115c2565b6040516103cb9190614e55565b60405180910390f35b3480156103e057600080fd5b506103fb60048036038101906103f691906141d8565b6117be565b60405161040891906149fb565b60405180910390f35b34801561041d57600080fd5b5061043860048036038101906104339190613f12565b611870565b6040516104459190614e77565b60405180910390f35b34801561045a57600080fd5b50610463611928565b005b34801561047157600080fd5b5061047a6119b0565b6040516104879190614ad6565b60405180910390f35b34801561049c57600080fd5b506104a5611ab6565b6040516104b291906149fb565b60405180910390f35b3480156104c757600080fd5b506104d0611ae0565b6040516104dd9190614a16565b60405180910390f35b3480156104f257600080fd5b506104fb611b06565b6040516105089190614b13565b60405180910390f35b34801561051d57600080fd5b5061053860048036038101906105339190614055565b611b98565b005b34801561054657600080fd5b50610561600480360381019061055c9190613fd2565b611d19565b005b34801561056f57600080fd5b5061058a60048036038101906105859190614205565b612179565b005b34801561059857600080fd5b506105b360048036038101906105ae91906141d8565b61237f565b6040516105c09190614b13565b60405180910390f35b6105e360048036038101906105de91906141d8565b612426565b005b3480156105f157600080fd5b5061060c60048036038101906106079190613f3f565b612a70565b6040516106199190614af8565b60405180910390f35b34801561062e57600080fd5b5061064960048036038101906106449190613f12565b612b04565b005b34801561065757600080fd5b50610660612bfc565b60405161066d9190614a16565b60405180910390f35b60007f80ac58cd000000000000000000000000000000000000000000000000000000007bffffffffffffffffffffffffffffffffffffffffffffffffffffffff1916827bffffffffffffffffffffffffffffffffffffffffffffffffffffffff1916148061074157507f5b5e139f000000000000000000000000000000000000000000000000000000007bffffffffffffffffffffffffffffffffffffffffffffffffffffffff1916827bffffffffffffffffffffffffffffffffffffffffffffffffffffffff1916145b80610751575061075082612c22565b5b9050919050565b6060600080546107679061521c565b80601f01602080910402602001604051908101604052809291908181526020018280546107939061521c565b80156107e05780601f106107b5576101008083540402835291602001916107e0565b820191906000526020600020905b8154815290600101906020018083116107c357829003601f168201915b5050505050905090565b600e600082815260200190815260200160002060020160009054906101000a900473ffffffffffffffffffffffffffffffffffffffff1673ffffffffffffffffffffffffffffffffffffffff163373ffffffffffffffffffffffffffffffffffffffff161461088e576040517f08c379a000000000000000000000000000000000000000000000000000000000815260040161088590614e15565b60405180910390fd5b3073ffffffffffffffffffffffffffffffffffffffff166342842e0e600c60009054906101000a900473ffffffffffffffffffffffffffffffffffffffff1633846040518463ffffffff1660e01b81526004016108ed93929190614a31565b600060405180830381600087803b15801561090757600080fd5b505af115801561091b573d6000803e3d6000fd5b5050505061094c600c60009054906101000a900473ffffffffffffffffffffffffffffffffffffffff163383612c8c565b600e600082815260200190815260200160002060008082016000905560018201600090556002820160006101000a81549073ffffffffffffffffffffffffffffffffffffffff02191690556002820160146101000a81549060ff0219169055505050565b60006109bb8261308f565b6109fa576040517f08c379a00000000000000000000000000000000000000000000000000000000081526004016109f190614cb5565b60405180910390fd5b6004600083815260200190815260200160002060009054906101000a900473ffffffffffffffffffffffffffffffffffffffff169050919050565b6000610a40826117be565b90508073ffffffffffffffffffffffffffffffffffffffff168373ffffffffffffffffffffffffffffffffffffffff161415610ab1576040517f08c379a0000000000000000000000000000000000000000000000000000000008152600401610aa890614d55565b60405180910390fd5b8073ffffffffffffffffffffffffffffffffffffffff16610ad06130fb565b73ffffffffffffffffffffffffffffffffffffffff161480610aff5750610afe81610af96130fb565b612a70565b5b610b3e576040517f08c379a0000000000000000000000000000000000000000000000000000000008152600401610b3590614c35565b60405180910390fd5b610b488383613103565b505050565b610b55613be6565b610b5d6130fb565b73ffffffffffffffffffffffffffffffffffffffff16610b7b611ab6565b73ffffffffffffffffffffffffffffffffffffffff1614610bd1576040517f08c379a0000000000000000000000000000000000000000000000000000000008152600401610bc890614cd5565b60405180910390fd5b6008600087815260200190815260200160002060050160019054906101000a900460ff1615610c35576040517f08c379a0000000000000000000000000000000000000000000000000000000008152600401610c2c90614dd5565b60405180910390fd5b60006040518060e0016040528088815260200187815260200186815260200185815260200189815260200184151581526020016001151581525090506007819080600181540180825580915050600190039060005260206000209060060201600090919091909150600082015181600001556020820151816001015560408201518160020155606082015181600301556080820151816004019080519060200190610ce1929190613c27565b5060a08201518160050160006101000a81548160ff02191690831515021790555060c08201518160050160016101000a81548160ff02191690831515021790555050508060086000898152602001908152602001600020600082015181600001556020820151816001015560408201518160020155606082015181600301556080820151816004019080519060200190610d7c929190613c27565b5060a08201518160050160006101000a81548160ff02191690831515021790555060c08201518160050160016101000a81548160ff021916908315150217905550905050809150509695505050505050565b610dd66130fb565b73ffffffffffffffffffffffffffffffffffffffff16610df4611ab6565b73ffffffffffffffffffffffffffffffffffffffff1614610e4a576040517f08c379a0000000000000000000000000000000000000000000000000000000008152600401610e4190614cd5565b60405180910390fd5b505050565b6060610e596130fb565b73ffffffffffffffffffffffffffffffffffffffff16610e77611ab6565b73ffffffffffffffffffffffffffffffffffffffff1614610ecd576040517f08c379a0000000000000000000000000000000000000000000000000000000008152600401610ec490614cd5565b60405180910390fd5b6007805480602002602001604051908101604052809291908181526020016000905b8282101561101157838290600052602060002090600602016040518060e001604052908160008201548152602001600182015481526020016002820154815260200160038201548152602001600482018054610f4a9061521c565b80601f0160208091040260200160405190810160405280929190818152602001828054610f769061521c565b8015610fc35780601f10610f9857610100808354040283529160200191610fc3565b820191906000526020600020905b815481529060010190602001808311610fa657829003601f168201915b505050505081526020016005820160009054906101000a900460ff161515151581526020016005820160019054906101000a900460ff16151515158152505081526020019060010190610eef565b50505050905090565b61103583838360405180602001604052806000815250611d19565b505050565b600e600082815260200190815260200160002060020160149054906101000a900460ff1661109d576040517f08c379a000000000000000000000000000000000000000000000000000000000815260040161109490614d35565b60405180910390fd5b600e600082815260200190815260200160002060020160009054906101000a900473ffffffffffffffffffffffffffffffffffffffff1673ffffffffffffffffffffffffffffffffffffffff163373ffffffffffffffffffffffffffffffffffffffff161415611142576040517f08c379a000000000000000000000000000000000000000000000000000000000815260040161113990614d95565b60405180910390fd5b6103e8670de0b6b3a7640000600e60008481526020019081526020016000206001015461116f9190615066565b6111799190615035565b34146111ba576040517f08c379a00000000000000000000000000000000000000000000000000000000081526004016111b190614e35565b60405180910390fd5b60006064600f54346111cc9190615066565b6111d69190615035565b9050600081346111e691906150c0565b9050600b60009054906101000a900473ffffffffffffffffffffffffffffffffffffffff1673ffffffffffffffffffffffffffffffffffffffff166108fc839081150290604051600060405180830381858888f19350505050158015611250573d6000803e3d6000fd5b50600e600084815260200190815260200160002060020160009054906101000a900473ffffffffffffffffffffffffffffffffffffffff1673ffffffffffffffffffffffffffffffffffffffff166108fc829081150290604051600060405180830381858888f193505050501580156112cd573d6000803e3d6000fd5b503073ffffffffffffffffffffffffffffffffffffffff166342842e0e600c60009054906101000a900473ffffffffffffffffffffffffffffffffffffffff1633866040518463ffffffff1660e01b815260040161132d93929190614a31565b600060405180830381600087803b15801561134757600080fd5b505af115801561135b573d6000803e3d6000fd5b50505050600e600084815260200190815260200160002060008082016000905560018201600090556002820160006101000a81549073ffffffffffffffffffffffffffffffffffffffff02191690556002820160146101000a81549060ff021916905550506113ed600c60009054906101000a900473ffffffffffffffffffffffffffffffffffffffff163385612c8c565b505050565b3373ffffffffffffffffffffffffffffffffffffffff16600a600084815260200190815260200160002060009054906101000a900473ffffffffffffffffffffffffffffffffffffffff1673ffffffffffffffffffffffffffffffffffffffff1614611493576040517f08c379a000000000000000000000000000000000000000000000000000000000815260040161148a90614d75565b60405180910390fd5b6114c033600c60009054906101000a900473ffffffffffffffffffffffffffffffffffffffff16846131bc565b600060405180608001604052808481526020018381526020013373ffffffffffffffffffffffffffffffffffffffff16815260200160011515815250905080600e6000858152602001908152602001600020600082015181600001556020820151816001015560408201518160020160006101000a81548173ffffffffffffffffffffffffffffffffffffffff021916908373ffffffffffffffffffffffffffffffffffffffff16021790555060608201518160020160146101000a81548160ff0219169083151502179055509050506115bd33600c60009054906101000a900473ffffffffffffffffffffffffffffffffffffffff1685612c8c565b505050565b6115ca613be6565b6115d26130fb565b73ffffffffffffffffffffffffffffffffffffffff166115f0611ab6565b73ffffffffffffffffffffffffffffffffffffffff1614611646576040517f08c379a000000000000000000000000000000000000000000000000000000000815260040161163d90614cd5565b60405180910390fd5b6008600083815260200190815260200160002060050160019054906101000a900460ff166116a9576040517f08c379a00000000000000000000000000000000000000000000000000000000081526004016116a090614df5565b60405180910390fd5b600860008381526020019081526020016000206040518060e0016040529081600082015481526020016001820154815260200160028201548152602001600382015481526020016004820180546116ff9061521c565b80601f016020809104026020016040519081016040528092919081815260200182805461172b9061521c565b80156117785780601f1061174d57610100808354040283529160200191611778565b820191906000526020600020905b81548152906001019060200180831161175b57829003601f168201915b505050505081526020016005820160009054906101000a900460ff161515151581526020016005820160019054906101000a900460ff1615151515815250509050919050565b6000806002600084815260200190815260200160002060009054906101000a900473ffffffffffffffffffffffffffffffffffffffff169050600073ffffffffffffffffffffffffffffffffffffffff168173ffffffffffffffffffffffffffffffffffffffff161415611867576040517f08c379a000000000000000000000000000000000000000000000000000000000815260040161185e90614c75565b60405180910390fd5b80915050919050565b60008073ffffffffffffffffffffffffffffffffffffffff168273ffffffffffffffffffffffffffffffffffffffff1614156118e1576040517f08c379a00000000000000000000000000000000000000000000000000000000081526004016118d890614c55565b60405180910390fd5b600360008373ffffffffffffffffffffffffffffffffffffffff1673ffffffffffffffffffffffffffffffffffffffff168152602001908152602001600020549050919050565b6119306130fb565b73ffffffffffffffffffffffffffffffffffffffff1661194e611ab6565b73ffffffffffffffffffffffffffffffffffffffff16146119a4576040517f08c379a000000000000000000000000000000000000000000000000000000000815260040161199b90614cd5565b60405180910390fd5b6119ae600061321c565b565b6060600960003373ffffffffffffffffffffffffffffffffffffffff1673ffffffffffffffffffffffffffffffffffffffff168152602001908152602001600020805480602002602001604051908101604052809291908181526020016000905b82821015611aad578382906000526020600020906003020160405180606001604052908160008201548152602001600182015481526020016002820160009054906101000a900473ffffffffffffffffffffffffffffffffffffffff1673ffffffffffffffffffffffffffffffffffffffff1673ffffffffffffffffffffffffffffffffffffffff168152505081526020019060010190611a11565b50505050905090565b6000600660009054906101000a900473ffffffffffffffffffffffffffffffffffffffff16905090565b600b60009054906101000a900473ffffffffffffffffffffffffffffffffffffffff1681565b606060018054611b159061521c565b80601f0160208091040260200160405190810160405280929190818152602001828054611b419061521c565b8015611b8e5780601f10611b6357610100808354040283529160200191611b8e565b820191906000526020600020905b815481529060010190602001808311611b7157829003601f168201915b5050505050905090565b611ba06130fb565b73ffffffffffffffffffffffffffffffffffffffff168273ffffffffffffffffffffffffffffffffffffffff161415611c0e576040517f08c379a0000000000000000000000000000000000000000000000000000000008152600401611c0590614bd5565b60405180910390fd5b8060056000611c1b6130fb565b73ffffffffffffffffffffffffffffffffffffffff1673ffffffffffffffffffffffffffffffffffffffff16815260200190815260200160002060008473ffffffffffffffffffffffffffffffffffffffff1673ffffffffffffffffffffffffffffffffffffffff16815260200190815260200160002060006101000a81548160ff0219169083151502179055508173ffffffffffffffffffffffffffffffffffffffff16611cc86130fb565b73ffffffffffffffffffffffffffffffffffffffff167f17307eab39ab6107e8899845ad3d59bd9653f200f220920489ca2b5937696c3183604051611d0d9190614af8565b60405180910390a35050565b611d2a611d246130fb565b836132e2565b611d69576040517f08c379a0000000000000000000000000000000000000000000000000000000008152600401611d6090614db5565b60405180910390fd5b611d75848484846133c0565b6000600960008673ffffffffffffffffffffffffffffffffffffffff1673ffffffffffffffffffffffffffffffffffffffff168152602001908152602001600020805480602002602001604051908101604052809291908181526020016000905b82821015611e72578382906000526020600020906003020160405180606001604052908160008201548152602001600182015481526020016002820160009054906101000a900473ffffffffffffffffffffffffffffffffffffffff1673ffffffffffffffffffffffffffffffffffffffff1673ffffffffffffffffffffffffffffffffffffffff168152505081526020019060010190611dd6565b505050509050600960008673ffffffffffffffffffffffffffffffffffffffff1673ffffffffffffffffffffffffffffffffffffffff1681526020019081526020016000206000611ec39190613cad565b60005b815181101561211f5783828281518110611ee357611ee26153b4565b5b60200260200101516000015114611fd957600960008773ffffffffffffffffffffffffffffffffffffffff1673ffffffffffffffffffffffffffffffffffffffff168152602001908152602001600020828281518110611f4657611f456153b4565b5b60200260200101519080600181540180825580915050600190039060005260206000209060030201600090919091909150600082015181600001556020820151816001015560408201518160020160006101000a81548173ffffffffffffffffffffffffffffffffffffffff021916908373ffffffffffffffffffffffffffffffffffffffff160217905550505061210c565b84828281518110611fed57611fec6153b4565b5b60200260200101516040019073ffffffffffffffffffffffffffffffffffffffff16908173ffffffffffffffffffffffffffffffffffffffff1681525050600960008673ffffffffffffffffffffffffffffffffffffffff1673ffffffffffffffffffffffffffffffffffffffff16815260200190815260200160002082828151811061207d5761207c6153b4565b5b60200260200101519080600181540180825580915050600190039060005260206000209060030201600090919091909150600082015181600001556020820151816001015560408201518160020160006101000a81548173ffffffffffffffffffffffffffffffffffffffff021916908373ffffffffffffffffffffffffffffffffffffffff16021790555050505b80806121179061527f565b915050611ec6565b5033600a600085815260200190815260200160002060006101000a81548173ffffffffffffffffffffffffffffffffffffffff021916908373ffffffffffffffffffffffffffffffffffffffff1602179055505050505050565b6121816130fb565b73ffffffffffffffffffffffffffffffffffffffff1661219f611ab6565b73ffffffffffffffffffffffffffffffffffffffff16146121f5576040517f08c379a00000000000000000000000000000000000000000000000000000000081526004016121ec90614cd5565b60405180910390fd5b60005b60078054905081101561237a57826007828154811061221a576122196153b4565b5b90600052602060002090600602016000015414801561225d57508160078281548110612249576122486153b4565b5b906000526020600020906006020160010154105b15612367578160078281548110612277576122766153b4565b5b906000526020600020906006020160010181905550600781815481106122a05761229f6153b4565b5b9060005260206000209060060201600860008581526020019081526020016000206000820154816000015560018201548160010155600282015481600201556003820154816003015560048201816004019080546122fd9061521c565b612308929190613cd1565b506005820160009054906101000a900460ff168160050160006101000a81548160ff0219169083151502179055506005820160019054906101000a900460ff168160050160016101000a81548160ff0219169083151502179055509050505b80806123729061527f565b9150506121f8565b505050565b606061238a8261308f565b6123c9576040517f08c379a00000000000000000000000000000000000000000000000000000000081526004016123c090614d15565b60405180910390fd5b60006123d361341c565b905060008151116123f3576040518060200160405280600081525061241e565b806123fd84613433565b60405160200161240e9291906149ab565b6040516020818303038152906040525b915050919050565b6008600082815260200190815260200160002060050160019054906101000a900460ff16612489576040517f08c379a000000000000000000000000000000000000000000000000000000000815260040161248090614df5565b60405180910390fd5b6008600082815260200190815260200160002060050160009054906101000a900460ff16156124ed576040517f08c379a00000000000000000000000000000000000000000000000000000000081526004016124e490614c15565b60405180910390fd5b6000600860008381526020019081526020016000206001015411612546576040517f08c379a000000000000000000000000000000000000000000000000000000000815260040161253d90614b95565b60405180910390fd5b6103e8670de0b6b3a764000060086000848152602001908152602001600020600301546125739190615066565b61257d9190615035565b34146125be576040517f08c379a00000000000000000000000000000000000000000000000000000000081526004016125b590614e35565b60405180910390fd5b6125c6613be6565b60005b60078054905081101561284b5782600782815481106125eb576125ea6153b4565b5b90600052602060002090600602016000015414156128385760078181548110612617576126166153b4565b5b90600052602060002090600602016040518060e0016040529081600082015481526020016001820154815260200160028201548152602001600382015481526020016004820180546126689061521c565b80601f01602080910402602001604051908101604052809291908181526020018280546126949061521c565b80156126e15780601f106126b6576101008083540402835291602001916126e1565b820191906000526020600020905b8154815290600101906020018083116126c457829003601f168201915b505050505081526020016005820160009054906101000a900460ff161515151581526020016005820160019054906101000a900460ff161515151581525050915060078181548110612736576127356153b4565b5b90600052602060002090600602016001016000815480929190612758906151f2565b919050555060078181548110612771576127706153b4565b5b9060005260206000209060060201600860008581526020019081526020016000206000820154816000015560018201548160010155600282015481600201556003820154816003015560048201816004019080546127ce9061521c565b6127d9929190613cd1565b506005820160009054906101000a900460ff168160050160006101000a81548160ff0219169083151502179055506005820160019054906101000a900460ff168160050160016101000a81548160ff0219169083151502179055509050505b80806128439061527f565b9150506125c9565b5060006402540be400600d54336040516020016128699291906149cf565b6040516020818303038152906040528051906020012060001c61288c91906152f6565b9050600d60008154809291906128a19061527f565b91905055506128b03382613594565b600b60009054906101000a900473ffffffffffffffffffffffffffffffffffffffff1673ffffffffffffffffffffffffffffffffffffffff166108fc349081150290604051600060405180830381858888f19350505050158015612918573d6000803e3d6000fd5b5060006040518060600160405280838152602001846000015181526020013373ffffffffffffffffffffffffffffffffffffffff168152509050600960003373ffffffffffffffffffffffffffffffffffffffff1673ffffffffffffffffffffffffffffffffffffffff168152602001908152602001600020819080600181540180825580915050600190039060005260206000209060030201600090919091909150600082015181600001556020820151816001015560408201518160020160006101000a81548173ffffffffffffffffffffffffffffffffffffffff021916908373ffffffffffffffffffffffffffffffffffffffff160217905550505033600a600084815260200190815260200160002060006101000a81548173ffffffffffffffffffffffffffffffffffffffff021916908373ffffffffffffffffffffffffffffffffffffffff16021790555050505050565b6000600560008473ffffffffffffffffffffffffffffffffffffffff1673ffffffffffffffffffffffffffffffffffffffff16815260200190815260200160002060008373ffffffffffffffffffffffffffffffffffffffff1673ffffffffffffffffffffffffffffffffffffffff16815260200190815260200160002060009054906101000a900460ff16905092915050565b612b0c6130fb565b73ffffffffffffffffffffffffffffffffffffffff16612b2a611ab6565b73ffffffffffffffffffffffffffffffffffffffff1614612b80576040517f08c379a0000000000000000000000000000000000000000000000000000000008152600401612b7790614cd5565b60405180910390fd5b600073ffffffffffffffffffffffffffffffffffffffff168173ffffffffffffffffffffffffffffffffffffffff161415612bf0576040517f08c379a0000000000000000000000000000000000000000000000000000000008152600401612be790614b55565b60405180910390fd5b612bf98161321c565b50565b600c60009054906101000a900473ffffffffffffffffffffffffffffffffffffffff1681565b60007f01ffc9a7000000000000000000000000000000000000000000000000000000007bffffffffffffffffffffffffffffffffffffffffffffffffffffffff1916827bffffffffffffffffffffffffffffffffffffffffffffffffffffffff1916149050919050565b6000600960008573ffffffffffffffffffffffffffffffffffffffff1673ffffffffffffffffffffffffffffffffffffffff168152602001908152602001600020805480602002602001604051908101604052809291908181526020016000905b82821015612d89578382906000526020600020906003020160405180606001604052908160008201548152602001600182015481526020016002820160009054906101000a900473ffffffffffffffffffffffffffffffffffffffff1673ffffffffffffffffffffffffffffffffffffffff1673ffffffffffffffffffffffffffffffffffffffff168152505081526020019060010190612ced565b505050509050600960008573ffffffffffffffffffffffffffffffffffffffff1673ffffffffffffffffffffffffffffffffffffffff1681526020019081526020016000206000612dda9190613cad565b60005b81518110156130365782828281518110612dfa57612df96153b4565b5b60200260200101516000015114612ef057600960008673ffffffffffffffffffffffffffffffffffffffff1673ffffffffffffffffffffffffffffffffffffffff168152602001908152602001600020828281518110612e5d57612e5c6153b4565b5b60200260200101519080600181540180825580915050600190039060005260206000209060030201600090919091909150600082015181600001556020820151816001015560408201518160020160006101000a81548173ffffffffffffffffffffffffffffffffffffffff021916908373ffffffffffffffffffffffffffffffffffffffff1602179055505050613023565b83828281518110612f0457612f036153b4565b5b60200260200101516040019073ffffffffffffffffffffffffffffffffffffffff16908173ffffffffffffffffffffffffffffffffffffffff1681525050600960008573ffffffffffffffffffffffffffffffffffffffff1673ffffffffffffffffffffffffffffffffffffffff168152602001908152602001600020828281518110612f9457612f936153b4565b5b60200260200101519080600181540180825580915050600190039060005260206000209060030201600090919091909150600082015181600001556020820151816001015560408201518160020160006101000a81548173ffffffffffffffffffffffffffffffffffffffff021916908373ffffffffffffffffffffffffffffffffffffffff16021790555050505b808061302e9061527f565b915050612ddd565b5082600a600084815260200190815260200160002060006101000a81548173ffffffffffffffffffffffffffffffffffffffff021916908373ffffffffffffffffffffffffffffffffffffffff16021790555050505050565b60008073ffffffffffffffffffffffffffffffffffffffff166002600084815260200190815260200160002060009054906101000a900473ffffffffffffffffffffffffffffffffffffffff1673ffffffffffffffffffffffffffffffffffffffff1614159050919050565b600033905090565b816004600083815260200190815260200160002060006101000a81548173ffffffffffffffffffffffffffffffffffffffff021916908373ffffffffffffffffffffffffffffffffffffffff160217905550808273ffffffffffffffffffffffffffffffffffffffff16613176836117be565b73ffffffffffffffffffffffffffffffffffffffff167f8c5be1e5ebec7d5bd14f71427d1e84f3dd0314c0f7b2291e5b200ac8c7c3b92560405160405180910390a45050565b6131cd6131c76130fb565b826132e2565b61320c576040517f08c379a000000000000000000000000000000000000000000000000000000000815260040161320390614db5565b60405180910390fd5b6132178383836135b2565b505050565b6000600660009054906101000a900473ffffffffffffffffffffffffffffffffffffffff16905081600660006101000a81548173ffffffffffffffffffffffffffffffffffffffff021916908373ffffffffffffffffffffffffffffffffffffffff1602179055508173ffffffffffffffffffffffffffffffffffffffff168173ffffffffffffffffffffffffffffffffffffffff167f8be0079c531659141344cd1fd0a4f28419497f9722a3daafe3b4186f6b6457e060405160405180910390a35050565b60006132ed8261308f565b61332c576040517f08c379a000000000000000000000000000000000000000000000000000000000815260040161332390614bf5565b60405180910390fd5b6000613337836117be565b90508073ffffffffffffffffffffffffffffffffffffffff168473ffffffffffffffffffffffffffffffffffffffff1614806133a657508373ffffffffffffffffffffffffffffffffffffffff1661338e846109b0565b73ffffffffffffffffffffffffffffffffffffffff16145b806133b757506133b68185612a70565b5b91505092915050565b6133cb8484846135b2565b6133d78484848461380e565b613416576040517f08c379a000000000000000000000000000000000000000000000000000000000815260040161340d90614b35565b60405180910390fd5b50505050565b606060405180602001604052806000815250905090565b6060600082141561347b576040518060400160405280600181526020017f3000000000000000000000000000000000000000000000000000000000000000815250905061358f565b600082905060005b600082146134ad5780806134969061527f565b915050600a826134a69190615035565b9150613483565b60008167ffffffffffffffff8111156134c9576134c86153e3565b5b6040519080825280601f01601f1916602001820160405280156134fb5781602001600182028036833780820191505090505b5090505b600085146135885760018261351491906150c0565b9150600a8561352391906152f6565b603061352f9190614fdf565b60f81b818381518110613545576135446153b4565b5b60200101907effffffffffffffffffffffffffffffffffffffffffffffffffffffffffffff1916908160001a905350600a856135819190615035565b94506134ff565b8093505050505b919050565b6135ae8282604051806020016040528060008152506139a5565b5050565b8273ffffffffffffffffffffffffffffffffffffffff166135d2826117be565b73ffffffffffffffffffffffffffffffffffffffff1614613628576040517f08c379a000000000000000000000000000000000000000000000000000000000815260040161361f90614cf5565b60405180910390fd5b600073ffffffffffffffffffffffffffffffffffffffff168273ffffffffffffffffffffffffffffffffffffffff161415613698576040517f08c379a000000000000000000000000000000000000000000000000000000000815260040161368f90614bb5565b60405180910390fd5b6136a3838383613a00565b6136ae600082613103565b6001600360008573ffffffffffffffffffffffffffffffffffffffff1673ffffffffffffffffffffffffffffffffffffffff16815260200190815260200160002060008282546136fe91906150c0565b925050819055506001600360008473ffffffffffffffffffffffffffffffffffffffff1673ffffffffffffffffffffffffffffffffffffffff16815260200190815260200160002060008282546137559190614fdf565b92505081905550816002600083815260200190815260200160002060006101000a81548173ffffffffffffffffffffffffffffffffffffffff021916908373ffffffffffffffffffffffffffffffffffffffff160217905550808273ffffffffffffffffffffffffffffffffffffffff168473ffffffffffffffffffffffffffffffffffffffff167fddf252ad1be2c89b69c2b068fc378daa952ba7f163c4a11628f55a4df523b3ef60405160405180910390a4505050565b600061382f8473ffffffffffffffffffffffffffffffffffffffff16613a05565b15613998578373ffffffffffffffffffffffffffffffffffffffff1663150b7a026138586130fb565b8786866040518563ffffffff1660e01b815260040161387a9493929190614a68565b602060405180830381600087803b15801561389457600080fd5b505af19250505080156138c557506040513d601f19601f820116820180604052508101906138c29190614102565b60015b613948573d80600081146138f5576040519150601f19603f3d011682016040523d82523d6000602084013e6138fa565b606091505b50600081511415613940576040517f08c379a000000000000000000000000000000000000000000000000000000000815260040161393790614b35565b60405180910390fd5b805181602001fd5b63150b7a0260e01b7bffffffffffffffffffffffffffffffffffffffffffffffffffffffff1916817bffffffffffffffffffffffffffffffffffffffffffffffffffffffff19161491505061399d565b600190505b949350505050565b6139af8383613a18565b6139bc600084848461380e565b6139fb576040517f08c379a00000000000000000000000000000000000000000000000000000000081526004016139f290614b35565b60405180910390fd5b505050565b505050565b600080823b905060008111915050919050565b600073ffffffffffffffffffffffffffffffffffffffff168273ffffffffffffffffffffffffffffffffffffffff161415613a88576040517f08c379a0000000000000000000000000000000000000000000000000000000008152600401613a7f90614c95565b60405180910390fd5b613a918161308f565b15613ad1576040517f08c379a0000000000000000000000000000000000000000000000000000000008152600401613ac890614b75565b60405180910390fd5b613add60008383613a00565b6001600360008473ffffffffffffffffffffffffffffffffffffffff1673ffffffffffffffffffffffffffffffffffffffff1681526020019081526020016000206000828254613b2d9190614fdf565b92505081905550816002600083815260200190815260200160002060006101000a81548173ffffffffffffffffffffffffffffffffffffffff021916908373ffffffffffffffffffffffffffffffffffffffff160217905550808273ffffffffffffffffffffffffffffffffffffffff16600073ffffffffffffffffffffffffffffffffffffffff167fddf252ad1be2c89b69c2b068fc378daa952ba7f163c4a11628f55a4df523b3ef60405160405180910390a45050565b6040518060e0016040528060008152602001600081526020016000815260200160008152602001606081526020016000151581526020016000151581525090565b828054613c339061521c565b90600052602060002090601f016020900481019282613c555760008555613c9c565b82601f10613c6e57805160ff1916838001178555613c9c565b82800160010185558215613c9c579182015b82811115613c9b578251825591602001919060010190613c80565b5b509050613ca99190613d5e565b5090565b5080546000825560030290600052602060002090810190613cce9190613d7b565b50565b828054613cdd9061521c565b90600052602060002090601f016020900481019282613cff5760008555613d4d565b82601f10613d105780548555613d4d565b82800160010185558215613d4d57600052602060002091601f016020900482015b82811115613d4c578254825591600101919060010190613d31565b5b509050613d5a9190613d5e565b5090565b5b80821115613d77576000816000905550600101613d5f565b5090565b5b80821115613dc55760008082016000905560018201600090556002820160006101000a81549073ffffffffffffffffffffffffffffffffffffffff021916905550600301613d7c565b5090565b6000613ddc613dd784614eb7565b614e92565b905082815260208101848484011115613df857613df7615417565b5b613e038482856151b0565b509392505050565b6000613e1e613e1984614ee8565b614e92565b905082815260208101848484011115613e3a57613e39615417565b5b613e458482856151b0565b509392505050565b600081359050613e5c81615a7f565b92915050565b600081359050613e7181615a96565b92915050565b600081359050613e8681615aad565b92915050565b600081519050613e9b81615aad565b92915050565b600082601f830112613eb657613eb5615412565b5b8135613ec6848260208601613dc9565b91505092915050565b600082601f830112613ee457613ee3615412565b5b8135613ef4848260208601613e0b565b91505092915050565b600081359050613f0c81615ac4565b92915050565b600060208284031215613f2857613f27615421565b5b6000613f3684828501613e4d565b91505092915050565b60008060408385031215613f5657613f55615421565b5b6000613f6485828601613e4d565b9250506020613f7585828601613e4d565b9150509250929050565b600080600060608486031215613f9857613f97615421565b5b6000613fa686828701613e4d565b9350506020613fb786828701613e4d565b9250506040613fc886828701613efd565b9150509250925092565b60008060008060808587031215613fec57613feb615421565b5b6000613ffa87828801613e4d565b945050602061400b87828801613e4d565b935050604061401c87828801613efd565b925050606085013567ffffffffffffffff81111561403d5761403c61541c565b5b61404987828801613ea1565b91505092959194509250565b6000806040838503121561406c5761406b615421565b5b600061407a85828601613e4d565b925050602061408b85828601613e62565b9150509250929050565b600080604083850312156140ac576140ab615421565b5b60006140ba85828601613e4d565b92505060206140cb85828601613efd565b9150509250929050565b6000602082840312156140eb576140ea615421565b5b60006140f984828501613e77565b91505092915050565b60006020828403121561411857614117615421565b5b600061412684828501613e8c565b91505092915050565b60008060008060008060c0878903121561414c5761414b615421565b5b600087013567ffffffffffffffff81111561416a5761416961541c565b5b61417689828a01613ecf565b965050602061418789828a01613efd565b955050604061419889828a01613efd565b94505060606141a989828a01613efd565b93505060806141ba89828a01613efd565b92505060a06141cb89828a01613e62565b9150509295509295509295565b6000602082840312156141ee576141ed615421565b5b60006141fc84828501613efd565b91505092915050565b6000806040838503121561421c5761421b615421565b5b600061422a85828601613efd565b925050602061423b85828601613efd565b9150509250929050565b600061425183836147fc565b905092915050565b60006142658383614934565b60608301905092915050565b61427a8161517a565b82525050565b61428981615106565b82525050565b614298816150f4565b82525050565b6142a7816150f4565b82525050565b6142be6142b9826150f4565b6152c8565b82525050565b60006142cf82614f39565b6142d98185614f7f565b9350836020820285016142eb85614f19565b8060005b8581101561432757848403895281516143088582614245565b945061431383614f65565b925060208a019950506001810190506142ef565b50829750879550505050505092915050565b600061434482614f44565b61434e8185614f90565b935061435983614f29565b8060005b8381101561438a5781516143718882614259565b975061437c83614f72565b92505060018101905061435d565b5085935050505092915050565b6143a081615118565b82525050565b6143af81615118565b82525050565b60006143c082614f4f565b6143ca8185614fa1565b93506143da8185602086016151bf565b6143e381615426565b840191505092915050565b60006143f982614f5a565b6144038185614fb2565b93506144138185602086016151bf565b61441c81615426565b840191505092915050565b600061443282614f5a565b61443c8185614fc3565b935061444c8185602086016151bf565b61445581615426565b840191505092915050565b600061446b82614f5a565b6144758185614fd4565b93506144858185602086016151bf565b80840191505092915050565b600061449e603283614fc3565b91506144a982615444565b604082019050919050565b60006144c1602683614fc3565b91506144cc82615493565b604082019050919050565b60006144e4601c83614fc3565b91506144ef826154e2565b602082019050919050565b6000614507602283614fc3565b91506145128261550b565b604082019050919050565b600061452a602483614fc3565b91506145358261555a565b604082019050919050565b600061454d601983614fc3565b9150614558826155a9565b602082019050919050565b6000614570602c83614fc3565b915061457b826155d2565b604082019050919050565b6000614593602383614fc3565b915061459e82615621565b604082019050919050565b60006145b6603883614fc3565b91506145c182615670565b604082019050919050565b60006145d9602a83614fc3565b91506145e4826156bf565b604082019050919050565b60006145fc602983614fc3565b91506146078261570e565b604082019050919050565b600061461f602083614fc3565b915061462a8261575d565b602082019050919050565b6000614642602c83614fc3565b915061464d82615786565b604082019050919050565b6000614665602083614fc3565b9150614670826157d5565b602082019050919050565b6000614688602983614fc3565b9150614693826157fe565b604082019050919050565b60006146ab602f83614fc3565b91506146b68261584d565b604082019050919050565b60006146ce601783614fc3565b91506146d98261589c565b602082019050919050565b60006146f1602183614fc3565b91506146fc826158c5565b604082019050919050565b6000614714602283614fc3565b915061471f82615914565b604082019050919050565b6000614737600f83614fc3565b915061474282615963565b602082019050919050565b600061475a603183614fc3565b91506147658261598c565b604082019050919050565b600061477d601183614fc3565b9150614788826159db565b602082019050919050565b60006147a0601183614fc3565b91506147ab82615a04565b602082019050919050565b60006147c3601383614fc3565b91506147ce82615a2d565b602082019050919050565b60006147e6601083614fc3565b91506147f182615a56565b602082019050919050565b600060e0830160008301516148146000860182614976565b5060208301516148276020860182614976565b50604083015161483a6040860182614976565b50606083015161484d6060860182614976565b506080830151848203608086015261486582826143ee565b91505060a083015161487a60a0860182614397565b5060c083015161488d60c0860182614397565b508091505092915050565b600060e0830160008301516148b06000860182614976565b5060208301516148c36020860182614976565b5060408301516148d66040860182614976565b5060608301516148e96060860182614976565b506080830151848203608086015261490182826143ee565b91505060a083015161491660a0860182614397565b5060c083015161492960c0860182614397565b508091505092915050565b60608201600082015161494a6000850182614976565b50602082015161495d6020850182614976565b506040820151614970604085018261428f565b50505050565b61497f81615170565b82525050565b61498e81615170565b82525050565b6149a56149a082615170565b6152ec565b82525050565b60006149b78285614460565b91506149c38284614460565b91508190509392505050565b60006149db8285614994565b6020820191506149eb82846142ad565b6014820191508190509392505050565b6000602082019050614a10600083018461429e565b92915050565b6000602082019050614a2b6000830184614280565b92915050565b6000606082019050614a466000830186614271565b614a53602083018561429e565b614a606040830184614985565b949350505050565b6000608082019050614a7d600083018761429e565b614a8a602083018661429e565b614a976040830185614985565b8181036060830152614aa981846143b5565b905095945050505050565b60006020820190508181036000830152614ace81846142c4565b905092915050565b60006020820190508181036000830152614af08184614339565b905092915050565b6000602082019050614b0d60008301846143a6565b92915050565b60006020820190508181036000830152614b2d8184614427565b905092915050565b60006020820190508181036000830152614b4e81614491565b9050919050565b60006020820190508181036000830152614b6e816144b4565b9050919050565b60006020820190508181036000830152614b8e816144d7565b9050919050565b60006020820190508181036000830152614bae816144fa565b9050919050565b60006020820190508181036000830152614bce8161451d565b9050919050565b60006020820190508181036000830152614bee81614540565b9050919050565b60006020820190508181036000830152614c0e81614563565b9050919050565b60006020820190508181036000830152614c2e81614586565b9050919050565b60006020820190508181036000830152614c4e816145a9565b9050919050565b60006020820190508181036000830152614c6e816145cc565b9050919050565b60006020820190508181036000830152614c8e816145ef565b9050919050565b60006020820190508181036000830152614cae81614612565b9050919050565b60006020820190508181036000830152614cce81614635565b9050919050565b60006020820190508181036000830152614cee81614658565b9050919050565b60006020820190508181036000830152614d0e8161467b565b9050919050565b60006020820190508181036000830152614d2e8161469e565b9050919050565b60006020820190508181036000830152614d4e816146c1565b9050919050565b60006020820190508181036000830152614d6e816146e4565b9050919050565b60006020820190508181036000830152614d8e81614707565b9050919050565b60006020820190508181036000830152614dae8161472a565b9050919050565b60006020820190508181036000830152614dce8161474d565b9050919050565b60006020820190508181036000830152614dee81614770565b9050919050565b60006020820190508181036000830152614e0e81614793565b9050919050565b60006020820190508181036000830152614e2e816147b6565b9050919050565b60006020820190508181036000830152614e4e816147d9565b9050919050565b60006020820190508181036000830152614e6f8184614898565b905092915050565b6000602082019050614e8c6000830184614985565b92915050565b6000614e9c614ead565b9050614ea8828261524e565b919050565b6000604051905090565b600067ffffffffffffffff821115614ed257614ed16153e3565b5b614edb82615426565b9050602081019050919050565b600067ffffffffffffffff821115614f0357614f026153e3565b5b614f0c82615426565b9050602081019050919050565b6000819050602082019050919050565b6000819050602082019050919050565b600081519050919050565b600081519050919050565b600081519050919050565b600081519050919050565b6000602082019050919050565b6000602082019050919050565b600082825260208201905092915050565b600082825260208201905092915050565b600082825260208201905092915050565b600082825260208201905092915050565b600082825260208201905092915050565b600081905092915050565b6000614fea82615170565b9150614ff583615170565b9250827fffffffffffffffffffffffffffffffffffffffffffffffffffffffffffffffff0382111561502a57615029615327565b5b828201905092915050565b600061504082615170565b915061504b83615170565b92508261505b5761505a615356565b5b828204905092915050565b600061507182615170565b915061507c83615170565b9250817fffffffffffffffffffffffffffffffffffffffffffffffffffffffffffffffff04831182151516156150b5576150b4615327565b5b828202905092915050565b60006150cb82615170565b91506150d683615170565b9250828210156150e9576150e8615327565b5b828203905092915050565b60006150ff82615150565b9050919050565b600061511182615150565b9050919050565b60008115159050919050565b60007fffffffff0000000000000000000000000000000000000000000000000000000082169050919050565b600073ffffffffffffffffffffffffffffffffffffffff82169050919050565b6000819050919050565b60006151858261518c565b9050919050565b60006151978261519e565b9050919050565b60006151a982615150565b9050919050565b82818337600083830152505050565b60005b838110156151dd5780820151818401526020810190506151c2565b838111156151ec576000848401525b50505050565b60006151fd82615170565b9150600082141561521157615210615327565b5b600182039050919050565b6000600282049050600182168061523457607f821691505b6020821081141561524857615247615385565b5b50919050565b61525782615426565b810181811067ffffffffffffffff82111715615276576152756153e3565b5b80604052505050565b600061528a82615170565b91507fffffffffffffffffffffffffffffffffffffffffffffffffffffffffffffffff8214156152bd576152bc615327565b5b600182019050919050565b60006152d3826152da565b9050919050565b60006152e582615437565b9050919050565b6000819050919050565b600061530182615170565b915061530c83615170565b92508261531c5761531b615356565b5b828206905092915050565b7f4e487b7100000000000000000000000000000000000000000000000000000000600052601160045260246000fd5b7f4e487b7100000000000000000000000000000000000000000000000000000000600052601260045260246000fd5b7f4e487b7100000000000000000000000000000000000000000000000000000000600052602260045260246000fd5b7f4e487b7100000000000000000000000000000000000000000000000000000000600052603260045260246000fd5b7f4e487b7100000000000000000000000000000000000000000000000000000000600052604160045260246000fd5b600080fd5b600080fd5b600080fd5b600080fd5b6000601f19601f8301169050919050565b60008160601b9050919050565b7f4552433732313a207472616e7366657220746f206e6f6e20455243373231526560008201527f63656976657220696d706c656d656e7465720000000000000000000000000000602082015250565b7f4f776e61626c653a206e6577206f776e657220697320746865207a65726f206160008201527f6464726573730000000000000000000000000000000000000000000000000000602082015250565b7f4552433732313a20746f6b656e20616c7265616479206d696e74656400000000600082015250565b7f5468657265206973206e6f206d6f726520706f6c6974696320617661696c616260008201527f6c65000000000000000000000000000000000000000000000000000000000000602082015250565b7f4552433732313a207472616e7366657220746f20746865207a65726f2061646460008201527f7265737300000000000000000000000000000000000000000000000000000000602082015250565b7f4552433732313a20617070726f766520746f2063616c6c657200000000000000600082015250565b7f4552433732313a206f70657261746f7220717565727920666f72206e6f6e657860008201527f697374656e7420746f6b656e0000000000000000000000000000000000000000602082015250565b7f506f6c69746963206f6e6c7920617661696c61626c652077697468206c6f747460008201527f6572790000000000000000000000000000000000000000000000000000000000602082015250565b7f4552433732313a20617070726f76652063616c6c6572206973206e6f74206f7760008201527f6e6572206e6f7220617070726f76656420666f7220616c6c0000000000000000602082015250565b7f4552433732313a2062616c616e636520717565727920666f7220746865207a6560008201527f726f206164647265737300000000000000000000000000000000000000000000602082015250565b7f4552433732313a206f776e657220717565727920666f72206e6f6e657869737460008201527f656e7420746f6b656e0000000000000000000000000000000000000000000000602082015250565b7f4552433732313a206d696e7420746f20746865207a65726f2061646472657373600082015250565b7f4552433732313a20617070726f76656420717565727920666f72206e6f6e657860008201527f697374656e7420746f6b656e0000000000000000000000000000000000000000602082015250565b7f4f776e61626c653a2063616c6c6572206973206e6f7420746865206f776e6572600082015250565b7f4552433732313a207472616e73666572206f6620746f6b656e2074686174206960008201527f73206e6f74206f776e0000000000000000000000000000000000000000000000602082015250565b7f4552433732314d657461646174613a2055524920717565727920666f72206e6f60008201527f6e6578697374656e7420746f6b656e0000000000000000000000000000000000602082015250565b7f506f6c6974696369616e206e6f7420666f722073616c65000000000000000000600082015250565b7f4552433732313a20617070726f76616c20746f2063757272656e74206f776e6560008201527f7200000000000000000000000000000000000000000000000000000000000000602082015250565b7f596f7520617265206e6f7420746865206f776e6572206f662074686520746f6b60008201527f656e000000000000000000000000000000000000000000000000000000000000602082015250565b7f596f757220706f6c6974696369616e0000000000000000000000000000000000600082015250565b7f4552433732313a207472616e736665722063616c6c6572206973206e6f74206f60008201527f776e6572206e6f7220617070726f766564000000000000000000000000000000602082015250565b7f696420616c726561647920696e20757365000000000000000000000000000000600082015250565b7f506f6c69746963206e6f7420666f756e64000000000000000000000000000000600082015250565b7f4e6f7420796f757220706f6c6974696369616e00000000000000000000000000600082015250565b7f496e636f727265637420616d6f756e7400000000000000000000000000000000600082015250565b615a88816150f4565b8114615a9357600080fd5b50565b615a9f81615118565b8114615aaa57600080fd5b50565b615ab681615124565b8114615ac157600080fd5b50565b615acd81615170565b8114615ad857600080fd5b5056fea2646970667358221220df43cc85e5f5e126dcd7479cc860ae2dd87fa2145317b419f47b39580a761e1b64736f6c63430008070033",
  "immutableReferences": {},
  "source": "// SPDX-License-Identifier: MIT\n\npragma solidity ^0.8.0;\nimport \"./Lottery.sol\";\n\n/**\n* @title Factory of lottery function\n* @author Youness Chetoui\n*/\ncontract LotteryFactory is Lottery {\n}\n",
  "sourcePath": "/home/youness/Crypto/PoliticsCollectible/contracts/LotteryFactory.sol",
  "compiler": {
    "name": "solc",
    "version": "0.8.7+commit.e28d00a7.Emscripten.clang"
  },
  "schemaVersion": "3.4.3",
  "updatedAt": "2021-08-31T12:19:12.970Z",
  "devdoc": {
    "author": "Youness Chetoui",
    "kind": "dev",
    "methods": {
      "addQty(uint256,uint256)": {
        "params": {
          "_id": "of PoliticsAvailable and _qty wished"
        }
      },
      "approve(address,uint256)": {
        "details": "See {IERC721-approve}."
      },
      "balanceOf(address)": {
        "details": "See {IERC721-balanceOf}."
      },
      "buy(uint256)": {
        "params": {
          "_id": "of politician available"
        }
      },
      "buyPoliticsForSale(uint256)": {
        "params": {
          "_tokenId": "of politician for sale"
        }
      },
      "cancelSell(uint256)": {
        "params": {
          "_tokenId": "of politician for sale"
        }
      },
      "create(string,uint256,uint256,uint256,uint256,bool)": {
        "params": {
          "_name": ", _id, _qty, _level, _price and _lottery of politician available"
        },
        "returns": {
          "_0": "PoliticsAvailable created"
        }
      },
      "forSale(uint256,uint256)": {
        "params": {
          "_tokenId": "of politician owned and _price wished"
        }
      },
      "getApproved(uint256)": {
        "details": "See {IERC721-getApproved}."
      },
      "getMyPolitics()": {
        "returns": {
          "_0": "array of struct PoliticsOwned"
        }
      },
      "getPolitic(uint256)": {
        "params": {
          "_id": "of politician"
        },
        "returns": {
          "_0": "struct PoliticsAvailable"
        }
      },
      "getPolitics()": {
        "returns": {
          "_0": "Array of struct PoliticsAvailable"
        }
      },
      "isApprovedForAll(address,address)": {
        "details": "See {IERC721-isApprovedForAll}."
      },
      "name()": {
        "details": "See {IERC721Metadata-name}."
      },
      "owner()": {
        "details": "Returns the address of the current owner."
      },
      "ownerOf(uint256)": {
        "details": "See {IERC721-ownerOf}."
      },
      "renounceOwnership()": {
        "details": "Leaves the contract without owner. It will not be possible to call `onlyOwner` functions anymore. Can only be called by the current owner. NOTE: Renouncing ownership will leave the contract without an owner, thereby removing any functionality that is only available to the owner."
      },
      "safeTransferFrom(address,address,uint256)": {
        "details": "See {IERC721-safeTransferFrom}."
      },
      "safeTransferFrom(address,address,uint256,bytes)": {
        "params": {
          "from": "politician wallet address, to wallet address of receiver, tokenId of politician to transfer, _data"
        }
      },
      "setApprovalForAll(address,bool)": {
        "details": "See {IERC721-setApprovalForAll}."
      },
      "supportsInterface(bytes4)": {
        "details": "See {IERC165-supportsInterface}."
      },
      "symbol()": {
        "details": "See {IERC721Metadata-symbol}."
      },
      "tokenURI(uint256)": {
        "details": "See {IERC721Metadata-tokenURI}."
      },
      "transferOwnership(address)": {
        "details": "Transfers ownership of the contract to a new account (`newOwner`). Can only be called by the current owner."
      }
    },
    "title": "Factory of lottery function",
    "version": 1
  },
  "userdoc": {
    "kind": "user",
    "methods": {
      "addQty(uint256,uint256)": {
        "notice": "Add quantity for a PoliticsAvailable"
      },
      "buy(uint256)": {
        "notice": "Buy politician"
      },
      "buyPoliticsForSale(uint256)": {
        "notice": "Buy politician"
      },
      "cancelSell(uint256)": {
        "notice": "Cancel the sell of politician"
      },
      "create(string,uint256,uint256,uint256,uint256,bool)": {
        "notice": "Create politician"
      },
      "forSale(uint256,uint256)": {
        "notice": "Up for sale of owned politician"
      },
      "getMyPolitics()": {
        "notice": "Get politician by user"
      },
      "getPolitic(uint256)": {
        "notice": "get politician available by id"
      },
      "getPolitics()": {
        "notice": "get list of all politician available"
      },
      "safeTransferFrom(address,address,uint256,bytes)": {
        "notice": "Transfer Politic"
      },
      "transferFrom(address,address,uint256)": {
        "notice": "Disabled not safe transform"
      }
    },
    "version": 1
  }
}