{
  "contractName": "LotteryUtils",
  "abi": [
    {
      "anonymous": false,
      "inputs": [
        {
          "indexed": true,
          "internalType": "address",
          "name": "owner",
          "type": "address"
        },
        {
          "indexed": true,
          "internalType": "address",
          "name": "approved",
          "type": "address"
        },
        {
          "indexed": true,
          "internalType": "uint256",
          "name": "tokenId",
          "type": "uint256"
        }
      ],
      "name": "Approval",
      "type": "event"
    },
    {
      "anonymous": false,
      "inputs": [
        {
          "indexed": true,
          "internalType": "address",
          "name": "owner",
          "type": "address"
        },
        {
          "indexed": true,
          "internalType": "address",
          "name": "operator",
          "type": "address"
        },
        {
          "indexed": false,
          "internalType": "bool",
          "name": "approved",
          "type": "bool"
        }
      ],
      "name": "ApprovalForAll",
      "type": "event"
    },
    {
      "anonymous": false,
      "inputs": [
        {
          "indexed": false,
          "internalType": "uint256",
          "name": "id",
          "type": "uint256"
        },
        {
          "indexed": false,
          "internalType": "address",
          "name": "buyer",
          "type": "address"
        }
      ],
      "name": "BuyOnSale",
      "type": "event"
    },
    {
      "anonymous": false,
      "inputs": [
        {
          "indexed": false,
          "internalType": "uint256",
          "name": "id",
          "type": "uint256"
        }
      ],
      "name": "CreateLottery",
      "type": "event"
    },
    {
      "anonymous": false,
      "inputs": [
        {
          "indexed": false,
          "internalType": "uint256",
          "name": "id",
          "type": "uint256"
        }
      ],
      "name": "CreatePolitician",
      "type": "event"
    },
    {
      "anonymous": false,
      "inputs": [
        {
          "indexed": false,
          "internalType": "uint256",
          "name": "id",
          "type": "uint256"
        },
        {
          "indexed": false,
          "internalType": "address",
          "name": "owner",
          "type": "address"
        }
      ],
      "name": "CreateSale",
      "type": "event"
    },
    {
      "anonymous": false,
      "inputs": [
        {
          "indexed": false,
          "internalType": "uint256",
          "name": "id",
          "type": "uint256"
        },
        {
          "indexed": false,
          "internalType": "address",
          "name": "winner",
          "type": "address"
        }
      ],
      "name": "EndLottery",
      "type": "event"
    },
    {
      "anonymous": false,
      "inputs": [
        {
          "indexed": true,
          "internalType": "address",
          "name": "previousOwner",
          "type": "address"
        },
        {
          "indexed": true,
          "internalType": "address",
          "name": "newOwner",
          "type": "address"
        }
      ],
      "name": "OwnershipTransferred",
      "type": "event"
    },
    {
      "anonymous": false,
      "inputs": [
        {
          "indexed": false,
          "internalType": "address",
          "name": "owner",
          "type": "address"
        },
        {
          "indexed": false,
          "internalType": "uint256",
          "name": "id",
          "type": "uint256"
        }
      ],
      "name": "PoliticianBuy",
      "type": "event"
    },
    {
      "anonymous": false,
      "inputs": [
        {
          "indexed": false,
          "internalType": "uint256",
          "name": "randomResult",
          "type": "uint256"
        }
      ],
      "name": "RandomNumberCreated",
      "type": "event"
    },
    {
      "anonymous": false,
      "inputs": [
        {
          "indexed": true,
          "internalType": "address",
          "name": "from",
          "type": "address"
        },
        {
          "indexed": true,
          "internalType": "address",
          "name": "to",
          "type": "address"
        },
        {
          "indexed": true,
          "internalType": "uint256",
          "name": "tokenId",
          "type": "uint256"
        }
      ],
      "name": "Transfer",
      "type": "event"
    },
    {
      "anonymous": false,
      "inputs": [
        {
          "indexed": false,
          "internalType": "uint256",
          "name": "id",
          "type": "uint256"
        },
        {
          "indexed": false,
          "internalType": "address",
          "name": "player",
          "type": "address"
        }
      ],
      "name": "UserPlayedLottery",
      "type": "event"
    },
    {
      "inputs": [
        {
          "internalType": "uint256",
          "name": "_id",
          "type": "uint256"
        },
        {
          "internalType": "uint256",
          "name": "_qty",
          "type": "uint256"
        }
      ],
      "name": "addQty",
      "outputs": [],
      "stateMutability": "nonpayable",
      "type": "function"
    },
    {
      "inputs": [
        {
          "internalType": "address",
          "name": "to",
          "type": "address"
        },
        {
          "internalType": "uint256",
          "name": "tokenId",
          "type": "uint256"
        }
      ],
      "name": "approve",
      "outputs": [],
      "stateMutability": "nonpayable",
      "type": "function"
    },
    {
      "inputs": [
        {
          "internalType": "uint256",
          "name": "",
          "type": "uint256"
        }
      ],
      "name": "arrayPoliticiansOnSale",
      "outputs": [
        {
          "internalType": "uint256",
          "name": "",
          "type": "uint256"
        }
      ],
      "stateMutability": "view",
      "type": "function"
    },
    {
      "inputs": [
        {
          "internalType": "address",
          "name": "owner",
          "type": "address"
        }
      ],
      "name": "balanceOf",
      "outputs": [
        {
          "internalType": "uint256",
          "name": "",
          "type": "uint256"
        }
      ],
      "stateMutability": "view",
      "type": "function"
    },
    {
      "inputs": [
        {
          "internalType": "uint256",
          "name": "_id",
          "type": "uint256"
        }
      ],
      "name": "buy",
      "outputs": [],
      "stateMutability": "payable",
      "type": "function"
    },
    {
      "inputs": [
        {
          "internalType": "uint256",
          "name": "_tokenId",
          "type": "uint256"
        }
      ],
      "name": "buyPoliticsForSale",
      "outputs": [],
      "stateMutability": "payable",
      "type": "function"
    },
    {
      "inputs": [
        {
          "internalType": "uint256",
          "name": "_tokenId",
          "type": "uint256"
        }
      ],
      "name": "cancelSell",
      "outputs": [],
      "stateMutability": "payable",
      "type": "function"
    },
    {
      "inputs": [],
      "name": "contractAddress",
      "outputs": [
        {
          "internalType": "address payable",
          "name": "",
          "type": "address"
        }
      ],
      "stateMutability": "view",
      "type": "function"
    },
    {
      "inputs": [
        {
          "internalType": "uint256",
          "name": "_id",
          "type": "uint256"
        },
        {
          "internalType": "uint256",
          "name": "_price",
          "type": "uint256"
        },
        {
          "internalType": "uint256",
          "name": "_qty",
          "type": "uint256"
        },
        {
          "internalType": "bool",
          "name": "_lottery",
          "type": "bool"
        },
        {
          "internalType": "string",
          "name": "_tokenUri",
          "type": "string"
        }
      ],
      "name": "create",
      "outputs": [],
      "stateMutability": "nonpayable",
      "type": "function"
    },
    {
      "inputs": [
        {
          "internalType": "uint256",
          "name": "_id",
          "type": "uint256"
        },
        {
          "internalType": "uint256",
          "name": "_id_politics",
          "type": "uint256"
        },
        {
          "internalType": "uint256",
          "name": "_end_time",
          "type": "uint256"
        },
        {
          "internalType": "uint256",
          "name": "_price",
          "type": "uint256"
        },
        {
          "internalType": "uint256",
          "name": "_ticket_available",
          "type": "uint256"
        }
      ],
      "name": "createLottery",
      "outputs": [],
      "stateMutability": "nonpayable",
      "type": "function"
    },
    {
      "inputs": [
        {
          "internalType": "uint256",
          "name": "_tokenId",
          "type": "uint256"
        },
        {
          "internalType": "uint256",
          "name": "_price",
          "type": "uint256"
        }
      ],
      "name": "forSale",
      "outputs": [],
      "stateMutability": "nonpayable",
      "type": "function"
    },
    {
      "inputs": [
        {
          "internalType": "uint256",
          "name": "tokenId",
          "type": "uint256"
        }
      ],
      "name": "getApproved",
      "outputs": [
        {
          "internalType": "address",
          "name": "",
          "type": "address"
        }
      ],
      "stateMutability": "view",
      "type": "function"
    },
    {
      "inputs": [],
      "name": "getMyPolitics",
      "outputs": [
        {
          "components": [
            {
              "internalType": "uint256",
              "name": "id",
              "type": "uint256"
            },
            {
              "internalType": "uint256",
              "name": "id_politic",
              "type": "uint256"
            },
            {
              "internalType": "address",
              "name": "owner",
              "type": "address"
            }
          ],
          "internalType": "struct Collectible.PoliticsOwned[]",
          "name": "",
          "type": "tuple[]"
        }
      ],
      "stateMutability": "view",
      "type": "function"
    },
    {
      "inputs": [
        {
          "internalType": "uint256",
          "name": "_id",
          "type": "uint256"
        }
      ],
      "name": "getPoliticQty",
      "outputs": [
        {
          "internalType": "uint256",
          "name": "",
          "type": "uint256"
        }
      ],
      "stateMutability": "view",
      "type": "function"
    },
    {
      "inputs": [],
      "name": "getRandomNumber",
      "outputs": [
        {
          "internalType": "bytes32",
          "name": "requestId",
          "type": "bytes32"
        }
      ],
      "stateMutability": "nonpayable",
      "type": "function"
    },
    {
      "inputs": [
        {
          "internalType": "address",
          "name": "owner",
          "type": "address"
        },
        {
          "internalType": "address",
          "name": "operator",
          "type": "address"
        }
      ],
      "name": "isApprovedForAll",
      "outputs": [
        {
          "internalType": "bool",
          "name": "",
          "type": "bool"
        }
      ],
      "stateMutability": "view",
      "type": "function"
    },
    {
      "inputs": [],
      "name": "name",
      "outputs": [
        {
          "internalType": "string",
          "name": "",
          "type": "string"
        }
      ],
      "stateMutability": "view",
      "type": "function"
    },
    {
      "inputs": [
        {
          "internalType": "address",
          "name": "",
          "type": "address"
        },
        {
          "internalType": "address",
          "name": "",
          "type": "address"
        },
        {
          "internalType": "uint256",
          "name": "",
          "type": "uint256"
        },
        {
          "internalType": "bytes",
          "name": "",
          "type": "bytes"
        }
      ],
      "name": "onERC721Received",
      "outputs": [
        {
          "internalType": "bytes4",
          "name": "",
          "type": "bytes4"
        }
      ],
      "stateMutability": "nonpayable",
      "type": "function"
    },
    {
      "inputs": [
        {
          "internalType": "uint256",
          "name": "_id",
          "type": "uint256"
        }
      ],
      "name": "onEndLottery",
      "outputs": [],
      "stateMutability": "nonpayable",
      "type": "function"
    },
    {
      "inputs": [],
      "name": "owner",
      "outputs": [
        {
          "internalType": "address",
          "name": "",
          "type": "address"
        }
      ],
      "stateMutability": "view",
      "type": "function"
    },
    {
      "inputs": [],
      "name": "ownerAddress",
      "outputs": [
        {
          "internalType": "address payable",
          "name": "",
          "type": "address"
        }
      ],
      "stateMutability": "view",
      "type": "function"
    },
    {
      "inputs": [
        {
          "internalType": "uint256",
          "name": "tokenId",
          "type": "uint256"
        }
      ],
      "name": "ownerOf",
      "outputs": [
        {
          "internalType": "address",
          "name": "",
          "type": "address"
        }
      ],
      "stateMutability": "view",
      "type": "function"
    },
    {
      "inputs": [
        {
          "internalType": "uint256",
          "name": "_id",
          "type": "uint256"
        }
      ],
      "name": "playLottery",
      "outputs": [],
      "stateMutability": "payable",
      "type": "function"
    },
    {
      "inputs": [],
      "name": "randomResult",
      "outputs": [
        {
          "internalType": "uint256",
          "name": "",
          "type": "uint256"
        }
      ],
      "stateMutability": "view",
      "type": "function"
    },
    {
      "inputs": [
        {
          "internalType": "bytes32",
          "name": "requestId",
          "type": "bytes32"
        },
        {
          "internalType": "uint256",
          "name": "randomness",
          "type": "uint256"
        }
      ],
      "name": "rawFulfillRandomness",
      "outputs": [],
      "stateMutability": "nonpayable",
      "type": "function"
    },
    {
      "inputs": [],
      "name": "renounceOwnership",
      "outputs": [],
      "stateMutability": "nonpayable",
      "type": "function"
    },
    {
      "inputs": [
        {
          "internalType": "address",
          "name": "from",
          "type": "address"
        },
        {
          "internalType": "address",
          "name": "to",
          "type": "address"
        },
        {
          "internalType": "uint256",
          "name": "tokenId",
          "type": "uint256"
        }
      ],
      "name": "safeTransferFrom",
      "outputs": [],
      "stateMutability": "nonpayable",
      "type": "function"
    },
    {
      "inputs": [
        {
          "internalType": "address",
          "name": "from",
          "type": "address"
        },
        {
          "internalType": "address",
          "name": "to",
          "type": "address"
        },
        {
          "internalType": "uint256",
          "name": "tokenId",
          "type": "uint256"
        },
        {
          "internalType": "bytes",
          "name": "_data",
          "type": "bytes"
        }
      ],
      "name": "safeTransferFrom",
      "outputs": [],
      "stateMutability": "nonpayable",
      "type": "function"
    },
    {
      "inputs": [
        {
          "internalType": "address",
          "name": "operator",
          "type": "address"
        },
        {
          "internalType": "bool",
          "name": "approved",
          "type": "bool"
        }
      ],
      "name": "setApprovalForAll",
      "outputs": [],
      "stateMutability": "nonpayable",
      "type": "function"
    },
    {
      "inputs": [
        {
          "internalType": "bytes4",
          "name": "interfaceId",
          "type": "bytes4"
        }
      ],
      "name": "supportsInterface",
      "outputs": [
        {
          "internalType": "bool",
          "name": "",
          "type": "bool"
        }
      ],
      "stateMutability": "view",
      "type": "function"
    },
    {
      "inputs": [],
      "name": "symbol",
      "outputs": [
        {
          "internalType": "string",
          "name": "",
          "type": "string"
        }
      ],
      "stateMutability": "view",
      "type": "function"
    },
    {
      "inputs": [
        {
          "internalType": "uint256",
          "name": "tokenId",
          "type": "uint256"
        }
      ],
      "name": "tokenURI",
      "outputs": [
        {
          "internalType": "string",
          "name": "",
          "type": "string"
        }
      ],
      "stateMutability": "view",
      "type": "function"
    },
    {
      "inputs": [
        {
          "internalType": "address",
          "name": "from",
          "type": "address"
        },
        {
          "internalType": "address",
          "name": "to",
          "type": "address"
        },
        {
          "internalType": "uint256",
          "name": "tokenId",
          "type": "uint256"
        }
      ],
      "name": "transferFrom",
      "outputs": [],
      "stateMutability": "nonpayable",
      "type": "function"
    },
    {
      "inputs": [
        {
          "internalType": "address",
          "name": "newOwner",
          "type": "address"
        }
      ],
      "name": "transferOwnership",
      "outputs": [],
      "stateMutability": "nonpayable",
      "type": "function"
    },
    {
      "inputs": [
        {
          "internalType": "uint256",
          "name": "_id",
          "type": "uint256"
        }
      ],
      "name": "getlotteryAvailableStats",
      "outputs": [
        {
          "internalType": "uint256",
          "name": "",
          "type": "uint256"
        },
        {
          "internalType": "uint256",
          "name": "",
          "type": "uint256"
        }
      ],
      "stateMutability": "view",
      "type": "function"
    }
  ],
  "bytecode": "0x60c06040526001600f5560056012553480156200001b57600080fd5b50604080518082018252600b81527f506f6c69746963734e667400000000000000000000000000000000000000000060208083019182528351808501909452600384527f504f4c0000000000000000000000000000000000000000000000000000000000908401527fa555fc018435bef5a13c6c6870a9d4c11dec329c00000000000000000000000060a0527f84b9b910527ad5c03a9ca831909e21e236ea7b060000000000000000000000006080528151919291620000de91600191620001cf565b508051620000f4906002906020840190620001cf565b505050620001236200011462000179640100000000026401000000009004565b6401000000006200017d810204565b600d8054600160a060020a03199081163317909155600e8054909116301790557fcaf3c3727e033261d383b315559476f48034c13b18f8cafed4d871abe504918660135567016345785d8a0000601455620002cb565b3390565b60088054600160a060020a03838116600160a060020a0319831681179093556040519116919082907f8be0079c531659141344cd1fd0a4f28419497f9722a3daafe3b4186f6b6457e090600090a35050565b828054620001dd9062000275565b90600052602060002090601f0160209004810192826200020157600085556200024c565b82601f106200021c57805160ff19168380011785556200024c565b828001600101855582156200024c579182015b828111156200024c5782518255916020019190600101906200022f565b506200025a9291506200025e565b5090565b5b808211156200025a57600081556001016200025f565b6002810460018216806200028a57607f821691505b60208210811415620002c5577f4e487b7100000000000000000000000000000000000000000000000000000000600052602260045260246000fd5b50919050565b6080516c01000000000000000000000000900460a0516c010000000000000000000000009004613e7e6200031f60003960008181611a180152612c580152600081816122ce0152612c290152613e7e6000f3fe608060405260043610610220576000357c0100000000000000000000000000000000000000000000000000000000900480638da5cb5b11610135578063b9db1c98116100bd578063de7f55871161008c578063de7f5587146105f3578063e7e6c81c14610613578063e985e9c514610633578063f2fde38b1461067c578063f6b4dfb41461069c57600080fd5b8063b9db1c981461058b578063c87b56dd146105ab578063d96a094a146105cb578063dbdff2c1146105de57600080fd5b806394985ddd1161010457806394985ddd146104e157806395d89b4114610501578063a22cb46514610516578063a70fd4d714610536578063b88d4fde1461056b57600080fd5b80638da5cb5b146104635780638f84aa09146104815780638fedc864146104a1578063935b8d97146104c157600080fd5b806323b872dd116101b857806354b3efa61161018757806354b3efa6146103cc5780636352211e146103ec57806370a082311461040c578063715018a61461042c57806385d334361461044157600080fd5b806323b872dd1461035557806342619f661461037557806342842e0e14610399578063546f9e67146103b957600080fd5b806307c9cd45116101f457806307c9cd45146102b1578063081812fc146102c4578063095ea7b3146102fc578063150b7a021461031c57600080fd5b80626954751461022557806301ffc9a71461024757806303ddcab81461027c57806306fdde031461028f575b600080fd5b34801561023157600080fd5b506102456102403660046139b5565b6106bc565b005b34801561025357600080fd5b50610267610262366004613949565b610830565b60405190151581526020015b60405180910390f35b61024561028a366004613983565b6108cd565b34801561029b57600080fd5b506102a4610c33565b6040516102739190613b9b565b6102456102bf366004613983565b610cc5565b3480156102d057600080fd5b506102e46102df366004613983565b610e6e565b604051600160a060020a039091168152602001610273565b34801561030857600080fd5b506102456103173660046138e0565b610f0a565b34801561032857600080fd5b5061033c61033736600461382d565b611042565b604051600160e060020a03199091168152602001610273565b34801561036157600080fd5b506102456103703660046137f1565b61106c565b34801561038157600080fd5b5061038b60155481565b604051908152602001610273565b3480156103a557600080fd5b506102456103b43660046137f1565b611099565b6102456103c7366004613983565b6110b4565b3480156103d857600080fd5b506102456103e7366004613927565b611368565b3480156103f857600080fd5b506102e4610407366004613983565b611500565b34801561041857600080fd5b5061038b6104273660046137a3565b61158e565b34801561043857600080fd5b5061024561162b565b34801561044d57600080fd5b50610456611664565b6040516102739190613b39565b34801561046f57600080fd5b50600854600160a060020a03166102e4565b34801561048d57600080fd5b50600d546102e490600160a060020a031681565b3480156104ad57600080fd5b5061038b6104bc366004613983565b6116f1565b3480156104cd57600080fd5b506102456104dc366004613983565b611712565b3480156104ed57600080fd5b506102456104fc366004613927565b611a0d565b34801561050d57600080fd5b506102a4611a92565b34801561052257600080fd5b506102456105313660046138a9565b611aa1565b34801561054257600080fd5b50610556610551366004613983565b611b69565b60408051928352602083019190915201610273565b34801561057757600080fd5b5061024561058636600461382d565b611c34565b34801561059757600080fd5b506102456105a6366004613927565b611cc5565b3480156105b757600080fd5b506102a46105c6366004613983565b611d38565b6102456105d9366004613983565b611eb6565b3480156105ea57600080fd5b5061038b61226d565b3480156105ff57600080fd5b5061038b61060e366004613983565b6123da565b34801561061f57600080fd5b5061024561062e366004613a36565b612454565b34801561063f57600080fd5b5061026761064e3660046137be565b600160a060020a03918216600090815260066020908152604080832093909416825291909152205460ff1690565b34801561068857600080fd5b506102456106973660046137a3565b6126f3565b3480156106a857600080fd5b50600e546102e490600160a060020a031681565b600854600160a060020a031633146106f25760405160e560020a62461bcd0281526004016106e990613c0b565b60405180910390fd5b60008581526009602052604090206004015460ff16156107575760405160e560020a62461bcd02815260206004820152601160248201527f696420616c726561647920696e2075736500000000000000000000000000000060448201526064016106e9565b6040805160a08101825286815260208082018781528515158385019081526060840186815260016080860181905260008c8152600b86528781208b90556009865296909620855181559251958301959095555160028201805460ff1916911515919091179055925180519293849390926107d8926003850192910190613611565b50608091909101516004909101805460ff19169115159190911790556040518681527ff00c522f13522af224c59f918a8375598b0362237c9cc8b4edb44f599cf0f3d6906020015b60405180910390a1505050505050565b6000600160e060020a031982167f80ac58cd0000000000000000000000000000000000000000000000000000000014806108935750600160e060020a031982167f5b5e139f00000000000000000000000000000000000000000000000000000000145b806108c757507f01ffc9a700000000000000000000000000000000000000000000000000000000600160e060020a03198316145b92915050565b6000818152601760205260409020600301546103e8906108f590670de0b6b3a7640000613cda565b6108ff9190613cc6565b34146109205760405160e560020a62461bcd0281526004016106e990613c77565b60008181526017602052604090206006015460ff166109845760405160e560020a62461bcd02815260206004820152601160248201527f4c6f7474657279206e6f7420666f756e6400000000000000000000000000000060448201526064016106e9565b60008181526017602052604090206002015442106109e75760405160e560020a62461bcd02815260206004820152601560248201527f4c6f7474657279206e6f7420617661696c61626c65000000000000000000000060448201526064016106e9565b600081815260176020526040902060050154610a485760405160e560020a62461bcd02815260206004820152601860248201527f4e6f206d6f7265207469636b657420617661696c61626c65000000000000000060448201526064016106e9565b600081815260166020908152604080832080548251818502810185019093528083529192909190830182828015610aa857602002820191906000526020600020905b8154600160a060020a03168152600190910190602001808311610a8a575b5050505050905060005b8151811015610b4b5733600160a060020a0316828281518110610ad757610ad7613df2565b6020026020010151600160a060020a03161415610b395760405160e560020a62461bcd02815260206004820152601a60248201527f4f6e6c79206f6e65207469636b6574206279206164647265737300000000000060448201526064016106e9565b80610b4381613d91565b915050610ab2565b50600d54604051600160a060020a03909116903480156108fc02916000818181858888f19350505050158015610b85573d6000803e3d6000fd5b5060008281526016602090815260408083208054600181018255908452828420018054600160a060020a0319163317905584835260179091528120600401805491610bcf83613d91565b90915550506000828152601760205260408120600501805491610bf183613d3c565b9091555050604080518381523360208201527f9cc53c1a9ff48c4fe548325ee9a6f7bb7b2b2defb3183e546b6bfd540f286f8291015b60405180910390a15050565b606060018054610c4290613d53565b80601f0160208091040260200160405190810160405280929190818152602001828054610c6e90613d53565b8015610cbb5780601f10610c9057610100808354040283529160200191610cbb565b820191906000526020600020905b815481529060010190602001808311610c9e57829003601f168201915b5050505050905090565b600081815260106020526040902060020154600160a060020a03163314610d315760405160e560020a62461bcd02815260206004820152601360248201527f4e6f7420796f757220706f6c6974696369616e0000000000000000000000000060448201526064016106e9565b60125460008281526010602052604081206001015490916064916103e890610d6190670de0b6b3a7640000613cda565b610d6b9190613cc6565b610d759190613cda565b610d7f9190613cc6565b9050803414610da35760405160e560020a62461bcd0281526004016106e990613c77565b600d54604051600160a060020a039091169082156108fc029083906000818181858888f19350505050158015610ddd573d6000803e3d6000fd5b50600e546040517f42842e0e000000000000000000000000000000000000000000000000000000008152600160a060020a0390911660048201523360248201526044810183905230906342842e0e90606401600060405180830381600087803b158015610e4957600080fd5b505af1158015610e5d573d6000803e3d6000fd5b50505050610e6a826127ab565b5050565b6000610e7982612843565b610eee5760405160e560020a62461bcd02815260206004820152602c60248201527f4552433732313a20617070726f76656420717565727920666f72206e6f6e657860448201527f697374656e7420746f6b656e000000000000000000000000000000000000000060648201526084016106e9565b50600090815260056020526040902054600160a060020a031690565b6000610f1582611500565b905080600160a060020a031683600160a060020a03161415610fa25760405160e560020a62461bcd02815260206004820152602160248201527f4552433732313a20617070726f76616c20746f2063757272656e74206f776e6560448201527f720000000000000000000000000000000000000000000000000000000000000060648201526084016106e9565b33600160a060020a0382161480610fbe5750610fbe813361064e565b6110335760405160e560020a62461bcd02815260206004820152603860248201527f4552433732313a20617070726f76652063616c6c6572206973206e6f74206f7760448201527f6e6572206e6f7220617070726f76656420666f7220616c6c000000000000000060648201526084016106e9565b61103d8383612860565b505050565b7f150b7a02000000000000000000000000000000000000000000000000000000005b949350505050565b600854600160a060020a0316331461103d5760405160e560020a62461bcd0281526004016106e990613c0b565b61103d83838360405180602001604052806000815250611c34565b60008181526010602052604090206002015474010000000000000000000000000000000000000000900460ff166111305760405160e560020a62461bcd02815260206004820152601760248201527f506f6c6974696369616e206e6f7420666f722073616c6500000000000000000060448201526064016106e9565b600081815260106020526040902060020154600160a060020a031633141561119d5760405160e560020a62461bcd02815260206004820152600f60248201527f596f757220706f6c6974696369616e000000000000000000000000000000000060448201526064016106e9565b6000818152601060205260409020600101546103e8906111c590670de0b6b3a7640000613cda565b6111cf9190613cc6565b34146111f05760405160e560020a62461bcd0281526004016106e990613c77565b60006064601254346112029190613cda565b61120c9190613cc6565b9050600061121a8234613cf9565b600d54604051919250600160a060020a03169083156108fc029084906000818181858888f19350505050158015611255573d6000803e3d6000fd5b50600083815260106020526040808220600201549051600160a060020a039091169183156108fc02918491818181858888f1935050505015801561129d573d6000803e3d6000fd5b50600e546040517f42842e0e000000000000000000000000000000000000000000000000000000008152600160a060020a0390911660048201523360248201526044810184905230906342842e0e90606401600060405180830381600087803b15801561130957600080fd5b505af115801561131d573d6000803e3d6000fd5b5050505061132a836127ab565b604080518481523360208201527fba09fc575b06563e24ebda6a85ecaffa381143e05692b04d0439c33cb68261c591015b60405180910390a1505050565b6000828152600c6020526040902054600160a060020a031633146113f75760405160e560020a62461bcd02815260206004820152602260248201527f596f7520617265206e6f7420746865206f776e6572206f662074686520746f6b60448201527f656e00000000000000000000000000000000000000000000000000000000000060648201526084016106e9565b600e5461140f903390600160a060020a031684611099565b6040805160808101825283815260208082018481523383850181815260016060860181815260008a8152601087528881208851815595518684015592516002909501805491511515740100000000000000000000000000000000000000000274ffffffffffffffffffffffffffffffffffffffffff19909216600160a060020a03909616959095171790935560118054938401815590527f31ecc21a745e3968a04e9570e4425bc18fa8019c68028196b546d1669c200c6890910186905583518681529182015290917ffd49647dd00e6b295aa9844cad9611d0f189dc9ef85fb3a2c3df136694cf1547910161135b565b600081815260036020526040812054600160a060020a0316806108c75760405160e560020a62461bcd02815260206004820152602960248201527f4552433732313a206f776e657220717565727920666f72206e6f6e657869737460448201527f656e7420746f6b656e000000000000000000000000000000000000000000000060648201526084016106e9565b6000600160a060020a03821661160f5760405160e560020a62461bcd02815260206004820152602a60248201527f4552433732313a2062616c616e636520717565727920666f7220746865207a6560448201527f726f20616464726573730000000000000000000000000000000000000000000060648201526084016106e9565b50600160a060020a031660009081526004602052604090205490565b600854600160a060020a031633146116585760405160e560020a62461bcd0281526004016106e990613c0b565b61166260006128ce565b565b336000908152600a60209081526040808320805482518185028101850190935280835260609492939192909184015b828210156116e857600084815260209081902060408051606081018252600386029092018054835260018082015484860152600290910154600160a060020a0316918301919091529083529092019101611693565b50505050905090565b6011818154811061170157600080fd5b600091825260209091200154905081565b600854600160a060020a0316331461173f5760405160e560020a62461bcd0281526004016106e990613c0b565b60008181526017602052604090206006015460ff166117a35760405160e560020a62461bcd02815260206004820152601560248201527f4c6f7474657279206e6f7420617661696c61626c65000000000000000000000060448201526064016106e9565b60008181526017602052604090206002015442116118065760405160e560020a62461bcd02815260206004820152601460248201527f4c6f7474657279206e6f742066696e697368656400000000000000000000000060448201526064016106e9565b60008181526017602090815260408083206001015460169092528220546015549192916118339190613dac565b61183e906001613cae565b6000848152601660205260408120805492935090918390811061186357611863613df2565b6000918252602080832090910154600f54604051600160a060020a0390921694506402540be400926118b892869101918252600160a060020a03166c0100000000000000000000000002602082015260340190565b60408051601f1981840301815291905280516020909101206118da9190613dac565b600f805491925060006118ec83613d91565b91905055506118fb8282612920565b604080516060810182528281526020808201878152600160a060020a038087168486018181526000828152600a86528781208054600181810183559183528783208951600392830290910190815596518783015592516002968701805491909616600160a060020a031991821617909555898252600c875288822080549095169093179093558b83526017855286832083815591820183905592810182905591820181905560048201819055600582018190556006909101805460ff19169055601690915291822090916119cf9190613695565b60408051878152600160a060020a03851660208201527fa1f5e94be44374b084108775ea10df484c59d9b341260f24da036cadb79db4669101610820565b33600160a060020a037f00000000000000000000000000000000000000000000000000000000000000001614611a885760405160e560020a62461bcd02815260206004820152601f60248201527f4f6e6c7920565246436f6f7264696e61746f722063616e2066756c66696c6c0060448201526064016106e9565b610e6a828261293a565b606060028054610c4290613d53565b600160a060020a038216331415611afd5760405160e560020a62461bcd02815260206004820152601960248201527f4552433732313a20617070726f766520746f2063616c6c65720000000000000060448201526064016106e9565b336000818152600660209081526040808320600160a060020a03871680855290835292819020805460ff191686151590811790915590519081529192917f17307eab39ab6107e8899845ad3d59bd9653f200f220920489ca2b5937696c31910160405180910390a35050565b60008033600160a060020a0316611b88600854600160a060020a031690565b600160a060020a031614611bb15760405160e560020a62461bcd0281526004016106e990613c0b565b60008381526017602052604090206006015460ff16611c155760405160e560020a62461bcd02815260206004820152601160248201527f4c6f7474657279206e6f7420666f756e6400000000000000000000000000000060448201526064016106e9565b5050600090815260176020526040902060058101546004909101549091565b611c3e338361296f565b611cb35760405160e560020a62461bcd02815260206004820152603160248201527f4552433732313a207472616e736665722063616c6c6572206973206e6f74206f60448201527f776e6572206e6f7220617070726f76656400000000000000000000000000000060648201526084016106e9565b611cbf84848484612a69565b50505050565b600854600160a060020a03163314611cf25760405160e560020a62461bcd0281526004016106e990613c0b565b60008281526009602052604090206004015460ff16611d265760405160e560020a62461bcd0281526004016106e990613c40565b6000918252600b602052604090912055565b6060611d4382612843565b611db85760405160e560020a62461bcd02815260206004820152603160248201527f45524337323155524953746f726167653a2055524920717565727920666f722060448201527f6e6f6e6578697374656e7420746f6b656e00000000000000000000000000000060648201526084016106e9565b60008281526007602052604081208054611dd190613d53565b80601f0160208091040260200160405190810160405280929190818152602001828054611dfd90613d53565b8015611e4a5780601f10611e1f57610100808354040283529160200191611e4a565b820191906000526020600020905b815481529060010190602001808311611e2d57829003601f168201915b505050505090506000611e6860408051602081019091526000815290565b9050805160001415611e7b575092915050565b815115611ead578082604051602001611e95929190613a9d565b60405160208183030381529060405292505050919050565b61106484612a9f565b60008181526009602052604090206004015460ff16611eea5760405160e560020a62461bcd0281526004016106e990613c40565b60008181526009602052604090206002015460ff1615611f755760405160e560020a62461bcd02815260206004820152602360248201527f506f6c69746963206f6e6c7920617661696c61626c652077697468206c6f747460448201527f657279000000000000000000000000000000000000000000000000000000000060648201526084016106e9565b6000818152600b6020526040902054611ff95760405160e560020a62461bcd02815260206004820152602260248201527f5468657265206973206e6f206d6f726520706f6c6974696320617661696c616260448201527f6c6500000000000000000000000000000000000000000000000000000000000060648201526084016106e9565b6000818152600960205260409020600101546103e89061202190670de0b6b3a7640000613cda565b61202b9190613cc6565b341461204c5760405160e560020a62461bcd0281526004016106e990613c77565b6000818152600b6020526040812080549161206683613d3c565b9091555050600f5460408051602080820193909352336c01000000000000000000000000028183015281516034818303018152605490910190915280519101206000906120b9906402540be40090613dac565b600f805491925060006120cb83613d91565b9091555050600d54604051600160a060020a03909116903480156108fc02916000818181858888f19350505050158015612109573d6000803e3d6000fd5b506121143382612920565b600082815260096020526040902060030180546121b991839161213690613d53565b80601f016020809104026020016040519081016040528092919081815260200182805461216290613d53565b80156121af5780601f10612184576101008083540402835291602001916121af565b820191906000526020600020905b81548152906001019060200180831161219257829003601f168201915b5050505050612b88565b604080516060810182528281526020808201858152338385018181526000828152600a85528681208054600180820183559183528683208851600390920201908155945190850155905160029093018054600160a060020a03909416600160a060020a0319948516179055868152600c845285902080549092168117909155835190815290810184905290917f0f1f73114dcf85af6f6506a86f3b42cdc8af0e4d37ca5130270465cd9c358223910161135b565b600854600090600160a060020a0316331461229d5760405160e560020a62461bcd0281526004016106e990613c0b565b6014546040517f70a082310000000000000000000000000000000000000000000000000000000081523060048201527f0000000000000000000000000000000000000000000000000000000000000000600160a060020a0316906370a082319060240160206040518083038186803b15801561231857600080fd5b505afa15801561232c573d6000803e3d6000fd5b505050506040513d601f19601f82011682018060405250810190612350919061399c565b10156123c75760405160e560020a62461bcd02815260206004820152602b60248201527f4e6f7420656e6f756768204c494e4b202d2066696c6c20636f6e74726163742060448201527f776974682066617563657400000000000000000000000000000000000000000060648201526084016106e9565b6123d5601354601454612c25565b905090565b600854600090600160a060020a0316331461240a5760405160e560020a62461bcd0281526004016106e990613c0b565b60008281526009602052604090206004015460ff1661243e5760405160e560020a62461bcd0281526004016106e990613c40565b506000818152600b60205260409020545b919050565b600854600160a060020a031633146124815760405160e560020a62461bcd0281526004016106e990613c0b565b60008481526009602052604090206002015460ff166124e55760405160e560020a62461bcd02815260206004820181905260248201527f506f6c69746963206e6f7420617661696c61626c6520696e206c6f747465727960448201526064016106e9565b60008581526017602052604090206006015460ff161561254a5760405160e560020a62461bcd02815260206004820152601560248201527f4c6f747465727920616c7265616479206578697374000000000000000000000060448201526064016106e9565b82421061259c5760405160e560020a62461bcd02815260206004820152601360248201527f456e642074696d6520697320696e20706173740000000000000000000000000060448201526064016106e9565b600082116125ef5760405160e560020a62461bcd02815260206004820152600a60248201527f507269636520697320300000000000000000000000000000000000000000000060448201526064016106e9565b60328110156126435760405160e560020a62461bcd02815260206004820152601960248201527f5469636b657420617661696c69626c6520756e6465722035300000000000000060448201526064016106e9565b6040805160e08101825286815260208082018781528284018781526060840187815260006080860181815260a08701898152600160c089018181528f855260178952938a90208951815596519087015593516002860155915160038501559051600484015590516005830155516006909101805460ff1916911515919091179055915187815290917f960f4fb18f2af9795686d97891dbd6534865353629cbda12afb278e6181976629101610820565b600854600160a060020a031633146127205760405160e560020a62461bcd0281526004016106e990613c0b565b600160a060020a03811661279f5760405160e560020a62461bcd02815260206004820152602660248201527f4f776e61626c653a206e6577206f776e657220697320746865207a65726f206160448201527f646472657373000000000000000000000000000000000000000000000000000060648201526084016106e9565b6127a8816128ce565b50565b600081815260106020526040812081815560018101829055600201805474ffffffffffffffffffffffffffffffffffffffffff191690555b601154811015610e6a57816011828154811061280157612801613df2565b90600052602060002001541415612831576011818154811061282557612825613df2565b60009182526020822001555b8061283b81613d91565b9150506127e3565b600090815260036020526040902054600160a060020a0316151590565b60008181526005602052604090208054600160a060020a031916600160a060020a038416908117909155819061289582611500565b600160a060020a03167f8c5be1e5ebec7d5bd14f71427d1e84f3dd0314c0f7b2291e5b200ac8c7c3b92560405160405180910390a45050565b60088054600160a060020a03838116600160a060020a0319831681179093556040519116919082907f8be0079c531659141344cd1fd0a4f28419497f9722a3daafe3b4186f6b6457e090600090a35050565b610e6a828260405180602001604052806000815250612dc5565b60158190556040518181527f3e03d1f6db9c938103954d9053238ec024c7852bb15999ab2bd58960b2c1919d90602001610c27565b600061297a82612843565b6129ef5760405160e560020a62461bcd02815260206004820152602c60248201527f4552433732313a206f70657261746f7220717565727920666f72206e6f6e657860448201527f697374656e7420746f6b656e000000000000000000000000000000000000000060648201526084016106e9565b60006129fa83611500565b905080600160a060020a031684600160a060020a03161480612a35575083600160a060020a0316612a2a84610e6e565b600160a060020a0316145b806110645750600160a060020a0380821660009081526006602090815260408083209388168352929052205460ff16611064565b612a74848484612dfb565b612a8084848484612fd9565b611cbf5760405160e560020a62461bcd0281526004016106e990613bae565b6060612aaa82612843565b612b1f5760405160e560020a62461bcd02815260206004820152602f60248201527f4552433732314d657461646174613a2055524920717565727920666f72206e6f60448201527f6e6578697374656e7420746f6b656e000000000000000000000000000000000060648201526084016106e9565b6000612b3660408051602081019091526000815290565b90506000815111612b565760405180602001604052806000815250612b81565b80612b6084613118565b604051602001612b71929190613a9d565b6040516020818303038152906040525b9392505050565b612b9182612843565b612c065760405160e560020a62461bcd02815260206004820152602e60248201527f45524337323155524953746f726167653a2055524920736574206f66206e6f6e60448201527f6578697374656e7420746f6b656e00000000000000000000000000000000000060648201526084016106e9565b6000828152600760209081526040909120825161103d92840190613611565b60007f0000000000000000000000000000000000000000000000000000000000000000600160a060020a0316634000aea07f000000000000000000000000000000000000000000000000000000000000000084866000604051602001612c95929190918252602082015260400190565b60408051601f19818403018152908290527c010000000000000000000000000000000000000000000000000000000063ffffffff8616028252612cdc939291600401613b08565b602060405180830381600087803b158015612cf657600080fd5b505af1158015612d0a573d6000803e3d6000fd5b505050506040513d601f19601f82011682018060405250810190612d2e919061390a565b5060008381526020818152604080832054815180840188905280830185905230606082015260808082018390528351808303909101815260a090910190925281519183019190912086845292909152612d88906001613cae565b6000858152602081815260409182902092909255805180830187905280820184905281518082038301815260609091019091528051910120611064565b612dcf8383613269565b612ddc6000848484612fd9565b61103d5760405160e560020a62461bcd0281526004016106e990613bae565b82600160a060020a0316612e0e82611500565b600160a060020a031614612e8d5760405160e560020a62461bcd02815260206004820152602960248201527f4552433732313a207472616e73666572206f6620746f6b656e2074686174206960448201527f73206e6f74206f776e000000000000000000000000000000000000000000000060648201526084016106e9565b600160a060020a038216612f0b5760405160e560020a62461bcd028152602060048201526024808201527f4552433732313a207472616e7366657220746f20746865207a65726f2061646460448201527f726573730000000000000000000000000000000000000000000000000000000060648201526084016106e9565b612f168383836133ae565b612f21600082612860565b600160a060020a0383166000908152600460205260408120805460019290612f4a908490613cf9565b9091555050600160a060020a0382166000908152600460205260408120805460019290612f78908490613cae565b90915550506000818152600360205260408082208054600160a060020a031916600160a060020a0386811691821790925591518493918716917fddf252ad1be2c89b69c2b068fc378daa952ba7f163c4a11628f55a4df523b3ef91a4505050565b6000600160a060020a0384163b15613110576040517f150b7a02000000000000000000000000000000000000000000000000000000008152600160a060020a0385169063150b7a0290613036903390899088908890600401613acc565b602060405180830381600087803b15801561305057600080fd5b505af1925050508015613080575060408051601f3d908101601f1916820190925261307d91810190613966565b60015b6130dd573d8080156130ae576040519150601f19603f3d011682016040523d82523d6000602084013e6130b3565b606091505b5080516130d55760405160e560020a62461bcd0281526004016106e990613bae565b805181602001fd5b600160e060020a0319167f150b7a0200000000000000000000000000000000000000000000000000000000149050611064565b506001611064565b60608161315857505060408051808201909152600181527f3000000000000000000000000000000000000000000000000000000000000000602082015290565b8160005b8115613182578061316c81613d91565b915061317b9050600a83613cc6565b915061315c565b60008167ffffffffffffffff81111561319d5761319d613e0b565b6040519080825280601f01601f1916602001820160405280156131c7576020820181803683370190505b5090505b8415611064576131dc600183613cf9565b91506131e9600a86613dac565b6131f4906030613cae565b7f01000000000000000000000000000000000000000000000000000000000000000281838151811061322857613228613df2565b60200101907effffffffffffffffffffffffffffffffffffffffffffffffffffffffffffff1916908160001a905350613262600a86613cc6565b94506131cb565b600160a060020a0382166132c25760405160e560020a62461bcd02815260206004820181905260248201527f4552433732313a206d696e7420746f20746865207a65726f206164647265737360448201526064016106e9565b6132cb81612843565b1561331b5760405160e560020a62461bcd02815260206004820152601c60248201527f4552433732313a20746f6b656e20616c7265616479206d696e7465640000000060448201526064016106e9565b613327600083836133ae565b600160a060020a0382166000908152600460205260408120805460019290613350908490613cae565b90915550506000818152600360205260408082208054600160a060020a031916600160a060020a03861690811790915590518392907fddf252ad1be2c89b69c2b068fc378daa952ba7f163c4a11628f55a4df523b3ef908290a45050565b600160a060020a0383166000908152600a6020908152604080832080548251818502810185019093528083529192909190849084015b8282101561343957600084815260209081902060408051606081018252600386029092018054835260018082015484860152600290910154600160a060020a03169183019190915290835290920191016133e4565b505050600160a060020a0386166000908152600a602052604081209293506134629291506136b3565b60005b81518110156135e0578282828151811061348157613481613df2565b6020026020010151600001511461351f57600160a060020a0385166000908152600a6020526040902082518390839081106134be576134be613df2565b6020908102919091018101518254600180820185556000948552938390208251600390920201908155918101519282019290925560409091015160029091018054600160a060020a031916600160a060020a039092169190911790556135ce565b8382828151811061353257613532613df2565b602090810291909101810151600160a060020a039283166040918201529186166000908152600a90915220825183908390811061357157613571613df2565b6020908102919091018101518254600180820185556000948552938390208251600390920201908155918101519282019290925560409091015160029091018054600160a060020a031916600160a060020a039092169190911790555b806135d881613d91565b915050613465565b50506000908152600c602052604090208054600160a060020a031916600160a060020a039290921691909117905550565b82805461361d90613d53565b90600052602060002090601f01602090048101928261363f5760008555613685565b82601f1061365857805160ff1916838001178555613685565b82800160010185558215613685579182015b8281111561368557825182559160200191906001019061366a565b506136919291506136d4565b5090565b50805460008255906000526020600020908101906127a891906136d4565b50805460008255600302906000526020600020908101906127a891906136e9565b5b8082111561369157600081556001016136d5565b5b808211156136915760008082556001820155600281018054600160a060020a03191690556003016136ea565b600067ffffffffffffffff8084111561373157613731613e0b565b604051601f8501601f19908116603f0116810190828211818310171561375957613759613e0b565b8160405280935085815286868601111561377257600080fd5b858560208301376000602087830101525050509392505050565b8035600160a060020a038116811461244f57600080fd5b6000602082840312156137b557600080fd5b612b818261378c565b600080604083850312156137d157600080fd5b6137da8361378c565b91506137e86020840161378c565b90509250929050565b60008060006060848603121561380657600080fd5b61380f8461378c565b925061381d6020850161378c565b9150604084013590509250925092565b6000806000806080858703121561384357600080fd5b61384c8561378c565b935061385a6020860161378c565b925060408501359150606085013567ffffffffffffffff81111561387d57600080fd5b8501601f8101871361388e57600080fd5b61389d87823560208401613716565b91505092959194509250565b600080604083850312156138bc57600080fd5b6138c58361378c565b915060208301356138d581613e24565b809150509250929050565b600080604083850312156138f357600080fd5b6138fc8361378c565b946020939093013593505050565b60006020828403121561391c57600080fd5b8151612b8181613e24565b6000806040838503121561393a57600080fd5b50508035926020909101359150565b60006020828403121561395b57600080fd5b8135612b8181613e32565b60006020828403121561397857600080fd5b8151612b8181613e32565b60006020828403121561399557600080fd5b5035919050565b6000602082840312156139ae57600080fd5b5051919050565b600080600080600060a086880312156139cd57600080fd5b85359450602086013593506040860135925060608601356139ed81613e24565b9150608086013567ffffffffffffffff811115613a0957600080fd5b8601601f81018813613a1a57600080fd5b613a2988823560208401613716565b9150509295509295909350565b600080600080600060a08688031215613a4e57600080fd5b505083359560208501359550604085013594606081013594506080013592509050565b60008151808452613a89816020860160208601613d10565b601f01601f19169290920160200192915050565b60008351613aaf818460208801613d10565b835190830190613ac3818360208801613d10565b01949350505050565b6000600160a060020a03808716835280861660208401525083604083015260806060830152613afe6080830184613a71565b9695505050505050565b600160a060020a0384168152826020820152606060408201526000613b306060830184613a71565b95945050505050565b602080825282518282018190526000919060409081850190868401855b82811015613b8e578151805185528681015187860152850151600160a060020a03168585015260609093019290850190600101613b56565b5091979650505050505050565b602081526000612b816020830184613a71565b60208082526032908201527f4552433732313a207472616e7366657220746f206e6f6e20455243373231526560408201527f63656976657220696d706c656d656e7465720000000000000000000000000000606082015260800190565b6020808252818101527f4f776e61626c653a2063616c6c6572206973206e6f7420746865206f776e6572604082015260600190565b60208082526011908201527f506f6c69746963206e6f7420666f756e64000000000000000000000000000000604082015260600190565b60208082526010908201527f496e636f727265637420616d6f756e7400000000000000000000000000000000604082015260600190565b60008219821115613cc157613cc1613dc0565b500190565b600082613cd557613cd5613dd9565b500490565b6000816000190483118215151615613cf457613cf4613dc0565b500290565b600082821015613d0b57613d0b613dc0565b500390565b60005b83811015613d2b578181015183820152602001613d13565b83811115611cbf5750506000910152565b600081613d4b57613d4b613dc0565b506000190190565b600281046001821680613d6757607f821691505b60208210811415613d8b5760e060020a634e487b7102600052602260045260246000fd5b50919050565b6000600019821415613da557613da5613dc0565b5060010190565b600082613dbb57613dbb613dd9565b500690565b60e060020a634e487b7102600052601160045260246000fd5b60e060020a634e487b7102600052601260045260246000fd5b60e060020a634e487b7102600052603260045260246000fd5b60e060020a634e487b7102600052604160045260246000fd5b80151581146127a857600080fd5b600160e060020a0319811681146127a857600080fdfea264697066735822122064f25780b5903b3562011dff9651edd532e61cca5d95df1035a0c0694aedbe8f64736f6c63430008070033",
  "immutableReferences": {
    "73": [
      {
        "length": 32,
        "start": 8910
      },
      {
        "length": 32,
        "start": 11305
      }
    ],
    "75": [
      {
        "length": 32,
        "start": 6680
      },
      {
        "length": 32,
        "start": 11352
      }
    ]
  },
  "source": "// SPDX-License-Identifier: MIT\n\npragma solidity ^0.8.0;\n\nimport \"./Lottery.sol\";\n\n/**\n* @title ERC721 Lottery utils methods\n* @author Youness Chetoui\n*/\ncontract LotteryUtils is Lottery {\n\n    /**\n    * @notice Get stats by lottery\n    * @param _id of lottery\n    * @return ticket_available, nb_player\n    */\n    function getlotteryAvailableStats(uint256 _id) public view onlyOwner returns(uint256, uint256) {\n        require(lotteryAvailable[_id].created, \"Lottery not found\");\n        return (lotteryAvailable[_id].ticket_available, lotteryAvailable[_id].nb_player);\n    }\n}\n",
  "sourcePath": "/home/youness/Crypto/PoliticsCollectible/contracts/LotteryUtils.sol",
  "compiler": {
    "name": "solc",
    "version": "0.8.7+commit.e28d00a7.Emscripten.clang"
  },
  "schemaVersion": "3.4.3",
  "updatedAt": "2021-09-07T08:49:39.417Z",
  "devdoc": {
    "author": "Youness Chetoui",
    "kind": "dev",
    "methods": {
      "addQty(uint256,uint256)": {
        "params": {
          "_id": "of PoliticsAvailable and _qty wished"
        }
      },
      "approve(address,uint256)": {
        "details": "See {IERC721-approve}."
      },
      "balanceOf(address)": {
        "details": "See {IERC721-balanceOf}."
      },
      "buy(uint256)": {
        "params": {
          "_id": ", _tokenUri of politician available"
        }
      },
      "buyPoliticsForSale(uint256)": {
        "params": {
          "_tokenId": "of politician for sale"
        }
      },
      "cancelSell(uint256)": {
        "params": {
          "_tokenId": "of politician for sale"
        }
      },
      "create(uint256,uint256,uint256,bool,string)": {
        "params": {
          "_id": ", _qty, _price and _lottery of politician available"
        }
      },
      "createLottery(uint256,uint256,uint256,uint256,uint256)": {
        "params": {
          "_id": ", _id_politics, _end_time, _price, _ticket_available"
        }
      },
      "forSale(uint256,uint256)": {
        "params": {
          "_tokenId": "of politician owned and _price wished"
        }
      },
      "getApproved(uint256)": {
        "details": "See {IERC721-getApproved}."
      },
      "getMyPolitics()": {
        "returns": {
          "_0": "array of struct PoliticsOwned"
        }
      },
      "getPoliticQty(uint256)": {
        "params": {
          "_id": "PoliticsAvailable"
        },
        "returns": {
          "_0": "uint256"
        }
      },
      "getlotteryAvailableStats(uint256)": {
        "params": {
          "_id": "of lottery"
        },
        "returns": {
          "_0": "ticket_available, nb_player"
        }
      },
      "isApprovedForAll(address,address)": {
        "details": "See {IERC721-isApprovedForAll}."
      },
      "name()": {
        "details": "See {IERC721Metadata-name}."
      },
      "onERC721Received(address,address,uint256,bytes)": {
        "details": "See {IERC721Receiver-onERC721Received}. Always returns `IERC721Receiver.onERC721Received.selector`."
      },
      "onEndLottery(uint256)": {
        "params": {
          "_id": "of lottery"
        }
      },
      "owner()": {
        "details": "Returns the address of the current owner."
      },
      "ownerOf(uint256)": {
        "details": "See {IERC721-ownerOf}."
      },
      "playLottery(uint256)": {
        "params": {
          "_id": "of lottery"
        }
      },
      "renounceOwnership()": {
        "details": "Leaves the contract without owner. It will not be possible to call `onlyOwner` functions anymore. Can only be called by the current owner. NOTE: Renouncing ownership will leave the contract without an owner, thereby removing any functionality that is only available to the owner."
      },
      "safeTransferFrom(address,address,uint256)": {
        "details": "See {IERC721-safeTransferFrom}."
      },
      "safeTransferFrom(address,address,uint256,bytes)": {
        "details": "See {IERC721-safeTransferFrom}."
      },
      "setApprovalForAll(address,bool)": {
        "details": "See {IERC721-setApprovalForAll}."
      },
      "supportsInterface(bytes4)": {
        "details": "See {IERC165-supportsInterface}."
      },
      "symbol()": {
        "details": "See {IERC721Metadata-symbol}."
      },
      "tokenURI(uint256)": {
        "details": "See {IERC721Metadata-tokenURI}."
      },
      "transferOwnership(address)": {
        "details": "Transfers ownership of the contract to a new account (`newOwner`). Can only be called by the current owner."
      }
    },
    "title": "ERC721 Lottery utils methods",
    "version": 1
  },
  "userdoc": {
    "kind": "user",
    "methods": {
      "addQty(uint256,uint256)": {
        "notice": "Add quantity for a PoliticsAvailable"
      },
      "buy(uint256)": {
        "notice": "Buy politician"
      },
      "buyPoliticsForSale(uint256)": {
        "notice": "Buy politician"
      },
      "cancelSell(uint256)": {
        "notice": "Cancel the sell of politician"
      },
      "create(uint256,uint256,uint256,bool,string)": {
        "notice": "Create politician"
      },
      "createLottery(uint256,uint256,uint256,uint256,uint256)": {
        "notice": "Create lottery"
      },
      "forSale(uint256,uint256)": {
        "notice": "Up for sale of owned politician"
      },
      "getMyPolitics()": {
        "notice": "Get politician by user"
      },
      "getPoliticQty(uint256)": {
        "notice": "get qty of politician available"
      },
      "getRandomNumber()": {
        "notice": "Requests randomness"
      },
      "getlotteryAvailableStats(uint256)": {
        "notice": "Get stats by lottery"
      },
      "onEndLottery(uint256)": {
        "notice": "End lottery"
      },
      "playLottery(uint256)": {
        "notice": "Play lottery"
      },
      "transferFrom(address,address,uint256)": {
        "notice": "Disabled not safe transform"
      }
    },
    "version": 1
  }
}