{
  "contractName": "LotteryUtils",
  "abi": [
    {
      "anonymous": false,
      "inputs": [
        {
          "indexed": true,
          "internalType": "address",
          "name": "owner",
          "type": "address"
        },
        {
          "indexed": true,
          "internalType": "address",
          "name": "approved",
          "type": "address"
        },
        {
          "indexed": true,
          "internalType": "uint256",
          "name": "tokenId",
          "type": "uint256"
        }
      ],
      "name": "Approval",
      "type": "event"
    },
    {
      "anonymous": false,
      "inputs": [
        {
          "indexed": true,
          "internalType": "address",
          "name": "owner",
          "type": "address"
        },
        {
          "indexed": true,
          "internalType": "address",
          "name": "operator",
          "type": "address"
        },
        {
          "indexed": false,
          "internalType": "bool",
          "name": "approved",
          "type": "bool"
        }
      ],
      "name": "ApprovalForAll",
      "type": "event"
    },
    {
      "anonymous": false,
      "inputs": [
        {
          "indexed": false,
          "internalType": "uint256",
          "name": "id",
          "type": "uint256"
        },
        {
          "indexed": false,
          "internalType": "address",
          "name": "buyer",
          "type": "address"
        }
      ],
      "name": "BuyOnSale",
      "type": "event"
    },
    {
      "anonymous": false,
      "inputs": [
        {
          "indexed": false,
          "internalType": "uint256",
          "name": "id",
          "type": "uint256"
        }
      ],
      "name": "CreateLottery",
      "type": "event"
    },
    {
      "anonymous": false,
      "inputs": [
        {
          "indexed": false,
          "internalType": "uint256",
          "name": "id",
          "type": "uint256"
        }
      ],
      "name": "CreatePolitician",
      "type": "event"
    },
    {
      "anonymous": false,
      "inputs": [
        {
          "indexed": false,
          "internalType": "uint256",
          "name": "id",
          "type": "uint256"
        },
        {
          "indexed": false,
          "internalType": "address",
          "name": "owner",
          "type": "address"
        }
      ],
      "name": "CreateSale",
      "type": "event"
    },
    {
      "anonymous": false,
      "inputs": [
        {
          "indexed": false,
          "internalType": "uint256",
          "name": "id",
          "type": "uint256"
        },
        {
          "indexed": false,
          "internalType": "address",
          "name": "winner",
          "type": "address"
        }
      ],
      "name": "EndLottery",
      "type": "event"
    },
    {
      "anonymous": false,
      "inputs": [
        {
          "indexed": true,
          "internalType": "address",
          "name": "previousOwner",
          "type": "address"
        },
        {
          "indexed": true,
          "internalType": "address",
          "name": "newOwner",
          "type": "address"
        }
      ],
      "name": "OwnershipTransferred",
      "type": "event"
    },
    {
      "anonymous": false,
      "inputs": [
        {
          "indexed": false,
          "internalType": "address",
          "name": "owner",
          "type": "address"
        },
        {
          "indexed": false,
          "internalType": "uint256",
          "name": "id",
          "type": "uint256"
        }
      ],
      "name": "PoliticianBuy",
      "type": "event"
    },
    {
      "anonymous": false,
      "inputs": [
        {
          "indexed": false,
          "internalType": "uint256",
          "name": "randomResult",
          "type": "uint256"
        }
      ],
      "name": "RandomNumberCreated",
      "type": "event"
    },
    {
      "anonymous": false,
      "inputs": [
        {
          "indexed": true,
          "internalType": "address",
          "name": "from",
          "type": "address"
        },
        {
          "indexed": true,
          "internalType": "address",
          "name": "to",
          "type": "address"
        },
        {
          "indexed": true,
          "internalType": "uint256",
          "name": "tokenId",
          "type": "uint256"
        }
      ],
      "name": "Transfer",
      "type": "event"
    },
    {
      "anonymous": false,
      "inputs": [
        {
          "indexed": false,
          "internalType": "uint256",
          "name": "id",
          "type": "uint256"
        },
        {
          "indexed": false,
          "internalType": "address",
          "name": "player",
          "type": "address"
        }
      ],
      "name": "UserPlayedLottery",
      "type": "event"
    },
    {
      "inputs": [
        {
          "internalType": "uint256",
          "name": "_id",
          "type": "uint256"
        },
        {
          "internalType": "uint256",
          "name": "_qty",
          "type": "uint256"
        }
      ],
      "name": "addQty",
      "outputs": [],
      "stateMutability": "nonpayable",
      "type": "function"
    },
    {
      "inputs": [
        {
          "internalType": "address",
          "name": "to",
          "type": "address"
        },
        {
          "internalType": "uint256",
          "name": "tokenId",
          "type": "uint256"
        }
      ],
      "name": "approve",
      "outputs": [],
      "stateMutability": "nonpayable",
      "type": "function"
    },
    {
      "inputs": [
        {
          "internalType": "uint256",
          "name": "",
          "type": "uint256"
        }
      ],
      "name": "arrayPoliticiansOnSale",
      "outputs": [
        {
          "internalType": "uint256",
          "name": "",
          "type": "uint256"
        }
      ],
      "stateMutability": "view",
      "type": "function"
    },
    {
      "inputs": [
        {
          "internalType": "address",
          "name": "owner",
          "type": "address"
        }
      ],
      "name": "balanceOf",
      "outputs": [
        {
          "internalType": "uint256",
          "name": "",
          "type": "uint256"
        }
      ],
      "stateMutability": "view",
      "type": "function"
    },
    {
      "inputs": [
        {
          "internalType": "uint256",
          "name": "_id",
          "type": "uint256"
        },
        {
          "internalType": "string",
          "name": "_tokenUri",
          "type": "string"
        }
      ],
      "name": "buy",
      "outputs": [],
      "stateMutability": "payable",
      "type": "function"
    },
    {
      "inputs": [
        {
          "internalType": "uint256",
          "name": "_tokenId",
          "type": "uint256"
        }
      ],
      "name": "buyPoliticsForSale",
      "outputs": [],
      "stateMutability": "payable",
      "type": "function"
    },
    {
      "inputs": [
        {
          "internalType": "uint256",
          "name": "_tokenId",
          "type": "uint256"
        }
      ],
      "name": "cancelSell",
      "outputs": [],
      "stateMutability": "payable",
      "type": "function"
    },
    {
      "inputs": [],
      "name": "contractAddress",
      "outputs": [
        {
          "internalType": "address payable",
          "name": "",
          "type": "address"
        }
      ],
      "stateMutability": "view",
      "type": "function"
    },
    {
      "inputs": [
        {
          "internalType": "uint256",
          "name": "_id",
          "type": "uint256"
        },
        {
          "internalType": "uint256",
          "name": "_price",
          "type": "uint256"
        },
        {
          "internalType": "uint256",
          "name": "_qty",
          "type": "uint256"
        },
        {
          "internalType": "bool",
          "name": "_lottery",
          "type": "bool"
        }
      ],
      "name": "create",
      "outputs": [],
      "stateMutability": "nonpayable",
      "type": "function"
    },
    {
      "inputs": [
        {
          "internalType": "uint256",
          "name": "_id",
          "type": "uint256"
        },
        {
          "internalType": "uint256",
          "name": "_id_politics",
          "type": "uint256"
        },
        {
          "internalType": "uint256",
          "name": "_end_time",
          "type": "uint256"
        },
        {
          "internalType": "uint256",
          "name": "_price",
          "type": "uint256"
        },
        {
          "internalType": "uint256",
          "name": "_ticket_available",
          "type": "uint256"
        }
      ],
      "name": "createLottery",
      "outputs": [],
      "stateMutability": "nonpayable",
      "type": "function"
    },
    {
      "inputs": [
        {
          "internalType": "uint256",
          "name": "_tokenId",
          "type": "uint256"
        },
        {
          "internalType": "uint256",
          "name": "_price",
          "type": "uint256"
        }
      ],
      "name": "forSale",
      "outputs": [],
      "stateMutability": "nonpayable",
      "type": "function"
    },
    {
      "inputs": [
        {
          "internalType": "uint256",
          "name": "tokenId",
          "type": "uint256"
        }
      ],
      "name": "getApproved",
      "outputs": [
        {
          "internalType": "address",
          "name": "",
          "type": "address"
        }
      ],
      "stateMutability": "view",
      "type": "function"
    },
    {
      "inputs": [],
      "name": "getMyPolitics",
      "outputs": [
        {
          "components": [
            {
              "internalType": "uint256",
              "name": "id",
              "type": "uint256"
            },
            {
              "internalType": "uint256",
              "name": "id_politic",
              "type": "uint256"
            },
            {
              "internalType": "address",
              "name": "owner",
              "type": "address"
            }
          ],
          "internalType": "struct Collectible.PoliticsOwned[]",
          "name": "",
          "type": "tuple[]"
        }
      ],
      "stateMutability": "view",
      "type": "function"
    },
    {
      "inputs": [
        {
          "internalType": "uint256",
          "name": "_id",
          "type": "uint256"
        }
      ],
      "name": "getPoliticQty",
      "outputs": [
        {
          "internalType": "uint256",
          "name": "",
          "type": "uint256"
        }
      ],
      "stateMutability": "view",
      "type": "function"
    },
    {
      "inputs": [],
      "name": "getRandomNumber",
      "outputs": [
        {
          "internalType": "bytes32",
          "name": "requestId",
          "type": "bytes32"
        }
      ],
      "stateMutability": "nonpayable",
      "type": "function"
    },
    {
      "inputs": [
        {
          "internalType": "address",
          "name": "owner",
          "type": "address"
        },
        {
          "internalType": "address",
          "name": "operator",
          "type": "address"
        }
      ],
      "name": "isApprovedForAll",
      "outputs": [
        {
          "internalType": "bool",
          "name": "",
          "type": "bool"
        }
      ],
      "stateMutability": "view",
      "type": "function"
    },
    {
      "inputs": [],
      "name": "name",
      "outputs": [
        {
          "internalType": "string",
          "name": "",
          "type": "string"
        }
      ],
      "stateMutability": "view",
      "type": "function"
    },
    {
      "inputs": [
        {
          "internalType": "address",
          "name": "",
          "type": "address"
        },
        {
          "internalType": "address",
          "name": "",
          "type": "address"
        },
        {
          "internalType": "uint256",
          "name": "",
          "type": "uint256"
        },
        {
          "internalType": "bytes",
          "name": "",
          "type": "bytes"
        }
      ],
      "name": "onERC721Received",
      "outputs": [
        {
          "internalType": "bytes4",
          "name": "",
          "type": "bytes4"
        }
      ],
      "stateMutability": "nonpayable",
      "type": "function"
    },
    {
      "inputs": [
        {
          "internalType": "uint256",
          "name": "_id",
          "type": "uint256"
        }
      ],
      "name": "onEndLottery",
      "outputs": [],
      "stateMutability": "nonpayable",
      "type": "function"
    },
    {
      "inputs": [],
      "name": "owner",
      "outputs": [
        {
          "internalType": "address",
          "name": "",
          "type": "address"
        }
      ],
      "stateMutability": "view",
      "type": "function"
    },
    {
      "inputs": [],
      "name": "ownerAddress",
      "outputs": [
        {
          "internalType": "address payable",
          "name": "",
          "type": "address"
        }
      ],
      "stateMutability": "view",
      "type": "function"
    },
    {
      "inputs": [
        {
          "internalType": "uint256",
          "name": "tokenId",
          "type": "uint256"
        }
      ],
      "name": "ownerOf",
      "outputs": [
        {
          "internalType": "address",
          "name": "",
          "type": "address"
        }
      ],
      "stateMutability": "view",
      "type": "function"
    },
    {
      "inputs": [
        {
          "internalType": "uint256",
          "name": "_id",
          "type": "uint256"
        }
      ],
      "name": "playLottery",
      "outputs": [],
      "stateMutability": "payable",
      "type": "function"
    },
    {
      "inputs": [],
      "name": "rand",
      "outputs": [
        {
          "internalType": "bytes32",
          "name": "",
          "type": "bytes32"
        }
      ],
      "stateMutability": "view",
      "type": "function"
    },
    {
      "inputs": [],
      "name": "randomResult",
      "outputs": [
        {
          "internalType": "uint256",
          "name": "",
          "type": "uint256"
        }
      ],
      "stateMutability": "view",
      "type": "function"
    },
    {
      "inputs": [
        {
          "internalType": "bytes32",
          "name": "requestId",
          "type": "bytes32"
        },
        {
          "internalType": "uint256",
          "name": "randomness",
          "type": "uint256"
        }
      ],
      "name": "rawFulfillRandomness",
      "outputs": [],
      "stateMutability": "nonpayable",
      "type": "function"
    },
    {
      "inputs": [],
      "name": "renounceOwnership",
      "outputs": [],
      "stateMutability": "nonpayable",
      "type": "function"
    },
    {
      "inputs": [
        {
          "internalType": "address",
          "name": "from",
          "type": "address"
        },
        {
          "internalType": "address",
          "name": "to",
          "type": "address"
        },
        {
          "internalType": "uint256",
          "name": "tokenId",
          "type": "uint256"
        }
      ],
      "name": "safeTransferFrom",
      "outputs": [],
      "stateMutability": "nonpayable",
      "type": "function"
    },
    {
      "inputs": [
        {
          "internalType": "address",
          "name": "from",
          "type": "address"
        },
        {
          "internalType": "address",
          "name": "to",
          "type": "address"
        },
        {
          "internalType": "uint256",
          "name": "tokenId",
          "type": "uint256"
        },
        {
          "internalType": "bytes",
          "name": "_data",
          "type": "bytes"
        }
      ],
      "name": "safeTransferFrom",
      "outputs": [],
      "stateMutability": "nonpayable",
      "type": "function"
    },
    {
      "inputs": [
        {
          "internalType": "address",
          "name": "operator",
          "type": "address"
        },
        {
          "internalType": "bool",
          "name": "approved",
          "type": "bool"
        }
      ],
      "name": "setApprovalForAll",
      "outputs": [],
      "stateMutability": "nonpayable",
      "type": "function"
    },
    {
      "inputs": [
        {
          "internalType": "bytes4",
          "name": "interfaceId",
          "type": "bytes4"
        }
      ],
      "name": "supportsInterface",
      "outputs": [
        {
          "internalType": "bool",
          "name": "",
          "type": "bool"
        }
      ],
      "stateMutability": "view",
      "type": "function"
    },
    {
      "inputs": [],
      "name": "symbol",
      "outputs": [
        {
          "internalType": "string",
          "name": "",
          "type": "string"
        }
      ],
      "stateMutability": "view",
      "type": "function"
    },
    {
      "inputs": [],
      "name": "test",
      "outputs": [
        {
          "internalType": "uint256[]",
          "name": "",
          "type": "uint256[]"
        }
      ],
      "stateMutability": "view",
      "type": "function"
    },
    {
      "inputs": [
        {
          "internalType": "uint256",
          "name": "tokenId",
          "type": "uint256"
        }
      ],
      "name": "tokenURI",
      "outputs": [
        {
          "internalType": "string",
          "name": "",
          "type": "string"
        }
      ],
      "stateMutability": "view",
      "type": "function"
    },
    {
      "inputs": [
        {
          "internalType": "address",
          "name": "from",
          "type": "address"
        },
        {
          "internalType": "address",
          "name": "to",
          "type": "address"
        },
        {
          "internalType": "uint256",
          "name": "tokenId",
          "type": "uint256"
        }
      ],
      "name": "transferFrom",
      "outputs": [],
      "stateMutability": "nonpayable",
      "type": "function"
    },
    {
      "inputs": [
        {
          "internalType": "address",
          "name": "newOwner",
          "type": "address"
        }
      ],
      "name": "transferOwnership",
      "outputs": [],
      "stateMutability": "nonpayable",
      "type": "function"
    },
    {
      "inputs": [
        {
          "internalType": "uint256",
          "name": "_id",
          "type": "uint256"
        }
      ],
      "name": "you",
      "outputs": [
        {
          "components": [
            {
              "internalType": "uint256",
              "name": "tokenId",
              "type": "uint256"
            },
            {
              "internalType": "uint256",
              "name": "price",
              "type": "uint256"
            },
            {
              "internalType": "address payable",
              "name": "owner",
              "type": "address"
            },
            {
              "internalType": "bool",
              "name": "created",
              "type": "bool"
            }
          ],
          "internalType": "struct Sell.PoliticOnSale",
          "name": "",
          "type": "tuple"
        }
      ],
      "stateMutability": "view",
      "type": "function"
    },
    {
      "inputs": [
        {
          "internalType": "uint256",
          "name": "_id",
          "type": "uint256"
        }
      ],
      "name": "getlotteryAvailableStats",
      "outputs": [
        {
          "internalType": "uint256",
          "name": "",
          "type": "uint256"
        },
        {
          "internalType": "uint256",
          "name": "",
          "type": "uint256"
        }
      ],
      "stateMutability": "view",
      "type": "function"
    }
  ],
  "bytecode": "0x60c06040526001600f5560056012553480156200001b57600080fd5b50604080518082018252600b81527f506f6c69746963734e667400000000000000000000000000000000000000000060208083019182528351808501909452600384527f504f4c0000000000000000000000000000000000000000000000000000000000908401527fa555fc018435bef5a13c6c6870a9d4c11dec329c00000000000000000000000060a0527f84b9b910527ad5c03a9ca831909e21e236ea7b060000000000000000000000006080528151919291620000de91600191620001cf565b508051620000f4906002906020840190620001cf565b505050620001236200011462000179640100000000026401000000009004565b6401000000006200017d810204565b600d8054600160a060020a03199081163317909155600e8054909116301790557fcaf3c3727e033261d383b315559476f48034c13b18f8cafed4d871abe504918660135567016345785d8a0000601455620002cb565b3390565b60088054600160a060020a03838116600160a060020a0319831681179093556040519116919082907f8be0079c531659141344cd1fd0a4f28419497f9722a3daafe3b4186f6b6457e090600090a35050565b828054620001dd9062000275565b90600052602060002090601f0160209004810192826200020157600085556200024c565b82601f106200021c57805160ff19168380011785556200024c565b828001600101855582156200024c579182015b828111156200024c5782518255916020019190600101906200022f565b506200025a9291506200025e565b5090565b5b808211156200025a57600081556001016200025f565b6002810460018216806200028a57607f821691505b60208210811415620002c5577f4e487b7100000000000000000000000000000000000000000000000000000000600052602260045260246000fd5b50919050565b6080516c01000000000000000000000000900460a0516c010000000000000000000000009004613fd86200031f60003960008181611b3f0152612d5301526000818161236d0152612d240152613fd86000f3fe608060405260043610610242576000357c0100000000000000000000000000000000000000000000000000000000900480638da5cb5b11610140578063b88d4fde116100c8578063e7e6c81c1161008c578063e7e6c81c1461072e578063e985e9c51461074e578063f2fde38b14610797578063f6b4dfb4146107b7578063f8a8fd6d146107d757600080fd5b8063b88d4fde14610699578063b9db1c98146106b9578063c87b56dd146106d9578063dbdff2c1146106f9578063de7f55871461070e57600080fd5b806394985ddd1161010f57806394985ddd146105fc57806395d89b411461061c578063a22cb46514610631578063a70fd4d714610651578063b7dc3b181461068657600080fd5b80638da5cb5b1461057e5780638f84aa091461059c5780638fedc864146105bc578063935b8d97146105dc57600080fd5b80633b27f082116101ce57806354b3efa61161019257806354b3efa6146104e75780636352211e1461050757806370a0823114610527578063715018a61461054757806385d334361461055c57600080fd5b80633b27f082146103975780633b3dca761461047a57806342619f661461049e57806342842e0e146104b4578063546f9e67146104d457600080fd5b8063081812fc11610215578063081812fc146102c6578063095ea7b3146102fe5780630b2ee7e91461031e578063150b7a021461033e57806323b872dd1461037757600080fd5b806301ffc9a71461024757806303ddcab81461027c57806306fdde031461029157806307c9cd45146102b3575b600080fd5b34801561025357600080fd5b50610267610262366004613a44565b6107f9565b60405190151581526020015b60405180910390f35b61028f61028a366004613a7e565b610896565b005b34801561029d57600080fd5b506102a6610c05565b6040516102739190613cf5565b61028f6102c1366004613a7e565b610c97565b3480156102d257600080fd5b506102e66102e1366004613a7e565b610e40565b604051600160a060020a039091168152602001610273565b34801561030a57600080fd5b5061028f6103193660046139db565b610edc565b34801561032a57600080fd5b5061028f610339366004613b0b565b611014565b34801561034a57600080fd5b5061035e610359366004613928565b61115d565b604051600160e060020a03199091168152602001610273565b34801561038357600080fd5b5061028f6103923660046138ec565b611187565b3480156103a357600080fd5b5061043c6103b2366004613a7e565b6040805160808101825260008082526020820181905291810182905260608101919091525060009081526010602090815260409182902082516080810184528154815260018201549281019290925260020154600160a060020a038116928201929092527401000000000000000000000000000000000000000090910460ff161515606082015290565b60405161027391908151815260208083015190820152604080830151600160a060020a03169082015260609182015115159181019190915260800190565b34801561048657600080fd5b5061049060165481565b604051908152602001610273565b3480156104aa57600080fd5b5061049060155481565b3480156104c057600080fd5b5061028f6104cf3660046138ec565b6111b4565b61028f6104e2366004613a7e565b6111cf565b3480156104f357600080fd5b5061028f610502366004613a22565b611483565b34801561051357600080fd5b506102e6610522366004613a7e565b61161b565b34801561053357600080fd5b5061049061054236600461389e565b6116a9565b34801561055357600080fd5b5061028f611746565b34801561056857600080fd5b5061057161177f565b6040516102739190613c4f565b34801561058a57600080fd5b50600854600160a060020a03166102e6565b3480156105a857600080fd5b50600d546102e690600160a060020a031681565b3480156105c857600080fd5b506104906105d7366004613a7e565b61180c565b3480156105e857600080fd5b5061028f6105f7366004613a7e565b61182d565b34801561060857600080fd5b5061028f610617366004613a22565b611b34565b34801561062857600080fd5b506102a6611bb9565b34801561063d57600080fd5b5061028f61064c3660046139a4565b611bc8565b34801561065d57600080fd5b5061067161066c366004613a7e565b611c90565b60408051928352602083019190915201610273565b61028f610694366004613ab0565b611d5b565b3480156106a557600080fd5b5061028f6106b4366004613928565b612085565b3480156106c557600080fd5b5061028f6106d4366004613a22565b612116565b3480156106e557600080fd5b506102a66106f4366004613a7e565b61218e565b34801561070557600080fd5b5061049061230c565b34801561071a57600080fd5b50610490610729366004613a7e565b612479565b34801561073a57600080fd5b5061028f610749366004613b4c565b6124f8565b34801561075a57600080fd5b506102676107693660046138b9565b600160a060020a03918216600090815260066020908152604080832093909416825291909152205460ff1690565b3480156107a357600080fd5b5061028f6107b236600461389e565b612797565b3480156107c357600080fd5b50600e546102e690600160a060020a031681565b3480156107e357600080fd5b506107ec61284f565b6040516102739190613cb1565b6000600160e060020a031982167f80ac58cd00000000000000000000000000000000000000000000000000000000148061085c5750600160e060020a031982167f5b5e139f00000000000000000000000000000000000000000000000000000000145b8061089057507f01ffc9a700000000000000000000000000000000000000000000000000000000600160e060020a03198316145b92915050565b6000818152601860205260409020600301546103e8906108be90670de0b6b3a7640000613e34565b6108c89190613e20565b34146108f25760405160e560020a62461bcd0281526004016108e990613dd1565b60405180910390fd5b60008181526018602052604090206006015460ff166109565760405160e560020a62461bcd02815260206004820152601160248201527f4c6f7474657279206e6f7420666f756e6400000000000000000000000000000060448201526064016108e9565b60008181526018602052604090206002015442106109b95760405160e560020a62461bcd02815260206004820152601560248201527f4c6f7474657279206e6f7420617661696c61626c65000000000000000000000060448201526064016108e9565b600081815260186020526040902060050154610a1a5760405160e560020a62461bcd02815260206004820152601860248201527f4e6f206d6f7265207469636b657420617661696c61626c65000000000000000060448201526064016108e9565b600081815260176020908152604080832080548251818502810185019093528083529192909190830182828015610a7a57602002820191906000526020600020905b8154600160a060020a03168152600190910190602001808311610a5c575b5050505050905060005b8151811015610b1d5733600160a060020a0316828281518110610aa957610aa9613f4c565b6020026020010151600160a060020a03161415610b0b5760405160e560020a62461bcd02815260206004820152601a60248201527f4f6e6c79206f6e65207469636b6574206279206164647265737300000000000060448201526064016108e9565b80610b1581613eeb565b915050610a84565b50600d54604051600160a060020a03909116903480156108fc02916000818181858888f19350505050158015610b57573d6000803e3d6000fd5b5060008281526017602090815260408083208054600181018255908452828420018054600160a060020a0319163317905584835260189091528120600401805491610ba183613eeb565b90915550506000828152601860205260408120600501805491610bc383613e96565b9091555050604080518381523360208201527f9cc53c1a9ff48c4fe548325ee9a6f7bb7b2b2defb3183e546b6bfd540f286f8291015b60405180910390a15050565b606060018054610c1490613ead565b80601f0160208091040260200160405190810160405280929190818152602001828054610c4090613ead565b8015610c8d5780601f10610c6257610100808354040283529160200191610c8d565b820191906000526020600020905b815481529060010190602001808311610c7057829003601f168201915b5050505050905090565b600081815260106020526040902060020154600160a060020a03163314610d035760405160e560020a62461bcd02815260206004820152601360248201527f4e6f7420796f757220706f6c6974696369616e0000000000000000000000000060448201526064016108e9565b60125460008281526010602052604081206001015490916064916103e890610d3390670de0b6b3a7640000613e34565b610d3d9190613e20565b610d479190613e34565b610d519190613e20565b9050803414610d755760405160e560020a62461bcd0281526004016108e990613dd1565b600d54604051600160a060020a039091169082156108fc029083906000818181858888f19350505050158015610daf573d6000803e3d6000fd5b50600e546040517f42842e0e000000000000000000000000000000000000000000000000000000008152600160a060020a0390911660048201523360248201526044810183905230906342842e0e90606401600060405180830381600087803b158015610e1b57600080fd5b505af1158015610e2f573d6000803e3d6000fd5b50505050610e3c826128a6565b5050565b6000610e4b8261293e565b610ec05760405160e560020a62461bcd02815260206004820152602c60248201527f4552433732313a20617070726f76656420717565727920666f72206e6f6e657860448201527f697374656e7420746f6b656e000000000000000000000000000000000000000060648201526084016108e9565b50600090815260056020526040902054600160a060020a031690565b6000610ee78261161b565b905080600160a060020a031683600160a060020a03161415610f745760405160e560020a62461bcd02815260206004820152602160248201527f4552433732313a20617070726f76616c20746f2063757272656e74206f776e6560448201527f720000000000000000000000000000000000000000000000000000000000000060648201526084016108e9565b33600160a060020a0382161480610f905750610f908133610769565b6110055760405160e560020a62461bcd02815260206004820152603860248201527f4552433732313a20617070726f76652063616c6c6572206973206e6f74206f7760448201527f6e6572206e6f7220617070726f76656420666f7220616c6c000000000000000060648201526084016108e9565b61100f838361295b565b505050565b600854600160a060020a031633146110415760405160e560020a62461bcd0281526004016108e990613d65565b600084815260096020526040902060020154610100900460ff16156110ab5760405160e560020a62461bcd02815260206004820152601160248201527f696420616c726561647920696e2075736500000000000000000000000000000060448201526064016108e9565b60408051608081018252858152602080820186815284151583850190815260016060850181815260008b8152600b86528781208a9055600990955293869020855181559251908301555160029091018054925115156101000261ff00199215159290921661ffff199093169290921717905590517ff00c522f13522af224c59f918a8375598b0362237c9cc8b4edb44f599cf0f3d69061114e9087815260200190565b60405180910390a15050505050565b7f150b7a02000000000000000000000000000000000000000000000000000000005b949350505050565b600854600160a060020a0316331461100f5760405160e560020a62461bcd0281526004016108e990613d65565b61100f83838360405180602001604052806000815250612085565b60008181526010602052604090206002015474010000000000000000000000000000000000000000900460ff1661124b5760405160e560020a62461bcd02815260206004820152601760248201527f506f6c6974696369616e206e6f7420666f722073616c6500000000000000000060448201526064016108e9565b600081815260106020526040902060020154600160a060020a03163314156112b85760405160e560020a62461bcd02815260206004820152600f60248201527f596f757220706f6c6974696369616e000000000000000000000000000000000060448201526064016108e9565b6000818152601060205260409020600101546103e8906112e090670de0b6b3a7640000613e34565b6112ea9190613e20565b341461130b5760405160e560020a62461bcd0281526004016108e990613dd1565b600060646012543461131d9190613e34565b6113279190613e20565b905060006113358234613e53565b600d54604051919250600160a060020a03169083156108fc029084906000818181858888f19350505050158015611370573d6000803e3d6000fd5b50600083815260106020526040808220600201549051600160a060020a039091169183156108fc02918491818181858888f193505050501580156113b8573d6000803e3d6000fd5b50600e546040517f42842e0e000000000000000000000000000000000000000000000000000000008152600160a060020a0390911660048201523360248201526044810184905230906342842e0e90606401600060405180830381600087803b15801561142457600080fd5b505af1158015611438573d6000803e3d6000fd5b50505050611445836128a6565b604080518481523360208201527fba09fc575b06563e24ebda6a85ecaffa381143e05692b04d0439c33cb68261c591015b60405180910390a1505050565b6000828152600c6020526040902054600160a060020a031633146115125760405160e560020a62461bcd02815260206004820152602260248201527f596f7520617265206e6f7420746865206f776e6572206f662074686520746f6b60448201527f656e00000000000000000000000000000000000000000000000000000000000060648201526084016108e9565b600e5461152a903390600160a060020a0316846111b4565b6040805160808101825283815260208082018481523383850181815260016060860181815260008a8152601087528881208851815595518684015592516002909501805491511515740100000000000000000000000000000000000000000274ffffffffffffffffffffffffffffffffffffffffff19909216600160a060020a03909616959095171790935560118054938401815590527f31ecc21a745e3968a04e9570e4425bc18fa8019c68028196b546d1669c200c6890910186905583518681529182015290917ffd49647dd00e6b295aa9844cad9611d0f189dc9ef85fb3a2c3df136694cf15479101611476565b600081815260036020526040812054600160a060020a0316806108905760405160e560020a62461bcd02815260206004820152602960248201527f4552433732313a206f776e657220717565727920666f72206e6f6e657869737460448201527f656e7420746f6b656e000000000000000000000000000000000000000000000060648201526084016108e9565b6000600160a060020a03821661172a5760405160e560020a62461bcd02815260206004820152602a60248201527f4552433732313a2062616c616e636520717565727920666f7220746865207a6560448201527f726f20616464726573730000000000000000000000000000000000000000000060648201526084016108e9565b50600160a060020a031660009081526004602052604090205490565b600854600160a060020a031633146117735760405160e560020a62461bcd0281526004016108e990613d65565b61177d60006129c9565b565b336000908152600a60209081526040808320805482518185028101850190935280835260609492939192909184015b8282101561180357600084815260209081902060408051606081018252600386029092018054835260018082015484860152600290910154600160a060020a03169183019190915290835290920191016117ae565b50505050905090565b6011818154811061181c57600080fd5b600091825260209091200154905081565b600854600160a060020a0316331461185a5760405160e560020a62461bcd0281526004016108e990613d65565b60008181526018602052604090206006015460ff166118be5760405160e560020a62461bcd02815260206004820152601560248201527f4c6f7474657279206e6f7420617661696c61626c65000000000000000000000060448201526064016108e9565b60008181526018602052604090206002015442116119215760405160e560020a62461bcd02815260206004820152601460248201527f4c6f7474657279206e6f742066696e697368656400000000000000000000000060448201526064016108e9565b600081815260186020908152604080832060010154601790925282205460155491929161194e9190613f06565b611959906001613e08565b6000848152601760205260408120805492935090918390811061197e5761197e613f4c565b6000918252602080832090910154600f54604051600160a060020a0390921694506402540be400926119d392869101918252600160a060020a03166c0100000000000000000000000002602082015260340190565b60408051601f1981840301815291905280516020909101206119f59190613f06565b600f80549192506000611a0783613eeb565b9190505550611a168282612a1b565b604080516060810182528281526020808201878152600160a060020a038087168486018181526000828152600a86528781208054600181810183559183528783208951600392830290910190815596518783015592516002968701805491909616600160a060020a031991821617909555898252600c875288822080549095169093179093558b83526018855286832083815591820183905592810182905591820181905560048201819055600582018190556006909101805460ff1916905560179091529182209091611aea919061370c565b60408051878152600160a060020a03851660208201527fa1f5e94be44374b084108775ea10df484c59d9b341260f24da036cadb79db46691015b60405180910390a1505050505050565b33600160a060020a037f00000000000000000000000000000000000000000000000000000000000000001614611baf5760405160e560020a62461bcd02815260206004820152601f60248201527f4f6e6c7920565246436f6f7264696e61746f722063616e2066756c66696c6c0060448201526064016108e9565b610e3c8282612a35565b606060028054610c1490613ead565b600160a060020a038216331415611c245760405160e560020a62461bcd02815260206004820152601960248201527f4552433732313a20617070726f766520746f2063616c6c65720000000000000060448201526064016108e9565b336000818152600660209081526040808320600160a060020a03871680855290835292819020805460ff191686151590811790915590519081529192917f17307eab39ab6107e8899845ad3d59bd9653f200f220920489ca2b5937696c31910160405180910390a35050565b60008033600160a060020a0316611caf600854600160a060020a031690565b600160a060020a031614611cd85760405160e560020a62461bcd0281526004016108e990613d65565b60008381526018602052604090206006015460ff16611d3c5760405160e560020a62461bcd02815260206004820152601160248201527f4c6f7474657279206e6f7420666f756e6400000000000000000000000000000060448201526064016108e9565b5050600090815260186020526040902060058101546004909101549091565b600082815260096020526040902060020154610100900460ff16611d945760405160e560020a62461bcd0281526004016108e990613d9a565b60008281526009602052604090206002015460ff1615611e1f5760405160e560020a62461bcd02815260206004820152602360248201527f506f6c69746963206f6e6c7920617661696c61626c652077697468206c6f747460448201527f657279000000000000000000000000000000000000000000000000000000000060648201526084016108e9565b6000828152600b6020526040902054611ea35760405160e560020a62461bcd02815260206004820152602260248201527f5468657265206973206e6f206d6f726520706f6c6974696320617661696c616260448201527f6c6500000000000000000000000000000000000000000000000000000000000060648201526084016108e9565b6000828152600960205260409020600101546103e890611ecb90670de0b6b3a7640000613e34565b611ed59190613e20565b3414611ef65760405160e560020a62461bcd0281526004016108e990613dd1565b6000828152600b60205260408120805491611f1083613e96565b9091555050600f5460408051602080820193909352336c0100000000000000000000000002818301528151603481830301815260549091019091528051910120600090611f63906402540be40090613f06565b600f80549192506000611f7583613eeb565b9091555050600d54604051600160a060020a03909116903480156108fc02916000818181858888f19350505050158015611fb3573d6000803e3d6000fd5b50611fbe3382612a1b565b611fc88183612a6a565b604080516060810182528281526020808201868152338385018181526000828152600a85528681208054600180820183559183528683208851600390920201908155945190850155905160029093018054600160a060020a03909416600160a060020a0319948516179055868152600c845285902080549092168117909155835190815290810184905290917f0f1f73114dcf85af6f6506a86f3b42cdc8af0e4d37ca5130270465cd9c358223910160405180910390a150505050565b61208f3383612b07565b6121045760405160e560020a62461bcd02815260206004820152603160248201527f4552433732313a207472616e736665722063616c6c6572206973206e6f74206f60448201527f776e6572206e6f7220617070726f76656400000000000000000000000000000060648201526084016108e9565b61211084848484612c01565b50505050565b600854600160a060020a031633146121435760405160e560020a62461bcd0281526004016108e990613d65565b600082815260096020526040902060020154610100900460ff1661217c5760405160e560020a62461bcd0281526004016108e990613d9a565b6000918252600b602052604090912055565b60606121998261293e565b61220e5760405160e560020a62461bcd02815260206004820152603160248201527f45524337323155524953746f726167653a2055524920717565727920666f722060448201527f6e6f6e6578697374656e7420746f6b656e00000000000000000000000000000060648201526084016108e9565b6000828152600760205260408120805461222790613ead565b80601f016020809104026020016040519081016040528092919081815260200182805461225390613ead565b80156122a05780601f10612275576101008083540402835291602001916122a0565b820191906000526020600020905b81548152906001019060200180831161228357829003601f168201915b5050505050905060006122be60408051602081019091526000815290565b90508051600014156122d1575092915050565b8151156123035780826040516020016122eb929190613bb3565b60405160208183030381529060405292505050919050565b61117f84612c37565b600854600090600160a060020a0316331461233c5760405160e560020a62461bcd0281526004016108e990613d65565b6014546040517f70a082310000000000000000000000000000000000000000000000000000000081523060048201527f0000000000000000000000000000000000000000000000000000000000000000600160a060020a0316906370a082319060240160206040518083038186803b1580156123b757600080fd5b505afa1580156123cb573d6000803e3d6000fd5b505050506040513d601f19601f820116820180604052508101906123ef9190613a97565b10156124665760405160e560020a62461bcd02815260206004820152602b60248201527f4e6f7420656e6f756768204c494e4b202d2066696c6c20636f6e74726163742060448201527f776974682066617563657400000000000000000000000000000000000000000060648201526084016108e9565b612474601354601454612d20565b905090565b600854600090600160a060020a031633146124a95760405160e560020a62461bcd0281526004016108e990613d65565b600082815260096020526040902060020154610100900460ff166124e25760405160e560020a62461bcd0281526004016108e990613d9a565b506000818152600b60205260409020545b919050565b600854600160a060020a031633146125255760405160e560020a62461bcd0281526004016108e990613d65565b60008481526009602052604090206002015460ff166125895760405160e560020a62461bcd02815260206004820181905260248201527f506f6c69746963206e6f7420617661696c61626c6520696e206c6f747465727960448201526064016108e9565b60008581526018602052604090206006015460ff16156125ee5760405160e560020a62461bcd02815260206004820152601560248201527f4c6f747465727920616c7265616479206578697374000000000000000000000060448201526064016108e9565b8242106126405760405160e560020a62461bcd02815260206004820152601360248201527f456e642074696d6520697320696e20706173740000000000000000000000000060448201526064016108e9565b600082116126935760405160e560020a62461bcd02815260206004820152600a60248201527f507269636520697320300000000000000000000000000000000000000000000060448201526064016108e9565b60328110156126e75760405160e560020a62461bcd02815260206004820152601960248201527f5469636b657420617661696c69626c6520756e6465722035300000000000000060448201526064016108e9565b6040805160e08101825286815260208082018781528284018781526060840187815260006080860181815260a08701898152600160c089018181528f855260188952938a90208951815596519087015593516002860155915160038501559051600484015590516005830155516006909101805460ff1916911515919091179055915187815290917f960f4fb18f2af9795686d97891dbd6534865353629cbda12afb278e6181976629101611b24565b600854600160a060020a031633146127c45760405160e560020a62461bcd0281526004016108e990613d65565b600160a060020a0381166128435760405160e560020a62461bcd02815260206004820152602660248201527f4f776e61626c653a206e6577206f776e657220697320746865207a65726f206160448201527f646472657373000000000000000000000000000000000000000000000000000060648201526084016108e9565b61284c816129c9565b50565b60606011805480602002602001604051908101604052809291908181526020018280548015610c8d57602002820191906000526020600020905b815481526020019060010190808311612889575050505050905090565b600081815260106020526040812081815560018101829055600201805474ffffffffffffffffffffffffffffffffffffffffff191690555b601154811015610e3c5781601182815481106128fc576128fc613f4c565b9060005260206000200154141561292c576011818154811061292057612920613f4c565b60009182526020822001555b8061293681613eeb565b9150506128de565b600090815260036020526040902054600160a060020a0316151590565b60008181526005602052604090208054600160a060020a031916600160a060020a03841690811790915581906129908261161b565b600160a060020a03167f8c5be1e5ebec7d5bd14f71427d1e84f3dd0314c0f7b2291e5b200ac8c7c3b92560405160405180910390a45050565b60088054600160a060020a03838116600160a060020a0319831681179093556040519116919082907f8be0079c531659141344cd1fd0a4f28419497f9722a3daafe3b4186f6b6457e090600090a35050565b610e3c828260405180602001604052806000815250612ec0565b60158190556040518181527f3e03d1f6db9c938103954d9053238ec024c7852bb15999ab2bd58960b2c1919d90602001610bf9565b612a738261293e565b612ae85760405160e560020a62461bcd02815260206004820152602e60248201527f45524337323155524953746f726167653a2055524920736574206f66206e6f6e60448201527f6578697374656e7420746f6b656e00000000000000000000000000000000000060648201526084016108e9565b6000828152600760209081526040909120825161100f9284019061372a565b6000612b128261293e565b612b875760405160e560020a62461bcd02815260206004820152602c60248201527f4552433732313a206f70657261746f7220717565727920666f72206e6f6e657860448201527f697374656e7420746f6b656e000000000000000000000000000000000000000060648201526084016108e9565b6000612b928361161b565b905080600160a060020a031684600160a060020a03161480612bcd575083600160a060020a0316612bc284610e40565b600160a060020a0316145b8061117f5750600160a060020a0380821660009081526006602090815260408083209388168352929052205460ff1661117f565b612c0c848484612ef6565b612c18848484846130d4565b6121105760405160e560020a62461bcd0281526004016108e990613d08565b6060612c428261293e565b612cb75760405160e560020a62461bcd02815260206004820152602f60248201527f4552433732314d657461646174613a2055524920717565727920666f72206e6f60448201527f6e6578697374656e7420746f6b656e000000000000000000000000000000000060648201526084016108e9565b6000612cce60408051602081019091526000815290565b90506000815111612cee5760405180602001604052806000815250612d19565b80612cf884613213565b604051602001612d09929190613bb3565b6040516020818303038152906040525b9392505050565b60007f0000000000000000000000000000000000000000000000000000000000000000600160a060020a0316634000aea07f000000000000000000000000000000000000000000000000000000000000000084866000604051602001612d90929190918252602082015260400190565b60408051601f19818403018152908290527c010000000000000000000000000000000000000000000000000000000063ffffffff8616028252612dd7939291600401613c1e565b602060405180830381600087803b158015612df157600080fd5b505af1158015612e05573d6000803e3d6000fd5b505050506040513d601f19601f82011682018060405250810190612e299190613a05565b5060008381526020818152604080832054815180840188905280830185905230606082015260808082018390528351808303909101815260a090910190925281519183019190912086845292909152612e83906001613e08565b600085815260208181526040918290209290925580518083018790528082018490528151808203830181526060909101909152805191012061117f565b612eca8383613364565b612ed760008484846130d4565b61100f5760405160e560020a62461bcd0281526004016108e990613d08565b82600160a060020a0316612f098261161b565b600160a060020a031614612f885760405160e560020a62461bcd02815260206004820152602960248201527f4552433732313a207472616e73666572206f6620746f6b656e2074686174206960448201527f73206e6f74206f776e000000000000000000000000000000000000000000000060648201526084016108e9565b600160a060020a0382166130065760405160e560020a62461bcd028152602060048201526024808201527f4552433732313a207472616e7366657220746f20746865207a65726f2061646460448201527f726573730000000000000000000000000000000000000000000000000000000060648201526084016108e9565b6130118383836134a9565b61301c60008261295b565b600160a060020a0383166000908152600460205260408120805460019290613045908490613e53565b9091555050600160a060020a0382166000908152600460205260408120805460019290613073908490613e08565b90915550506000818152600360205260408082208054600160a060020a031916600160a060020a0386811691821790925591518493918716917fddf252ad1be2c89b69c2b068fc378daa952ba7f163c4a11628f55a4df523b3ef91a4505050565b6000600160a060020a0384163b1561320b576040517f150b7a02000000000000000000000000000000000000000000000000000000008152600160a060020a0385169063150b7a0290613131903390899088908890600401613be2565b602060405180830381600087803b15801561314b57600080fd5b505af192505050801561317b575060408051601f3d908101601f1916820190925261317891810190613a61565b60015b6131d8573d8080156131a9576040519150601f19603f3d011682016040523d82523d6000602084013e6131ae565b606091505b5080516131d05760405160e560020a62461bcd0281526004016108e990613d08565b805181602001fd5b600160e060020a0319167f150b7a020000000000000000000000000000000000000000000000000000000014905061117f565b50600161117f565b60608161325357505060408051808201909152600181527f3000000000000000000000000000000000000000000000000000000000000000602082015290565b8160005b811561327d578061326781613eeb565b91506132769050600a83613e20565b9150613257565b60008167ffffffffffffffff81111561329857613298613f65565b6040519080825280601f01601f1916602001820160405280156132c2576020820181803683370190505b5090505b841561117f576132d7600183613e53565b91506132e4600a86613f06565b6132ef906030613e08565b7f01000000000000000000000000000000000000000000000000000000000000000281838151811061332357613323613f4c565b60200101907effffffffffffffffffffffffffffffffffffffffffffffffffffffffffffff1916908160001a90535061335d600a86613e20565b94506132c6565b600160a060020a0382166133bd5760405160e560020a62461bcd02815260206004820181905260248201527f4552433732313a206d696e7420746f20746865207a65726f206164647265737360448201526064016108e9565b6133c68161293e565b156134165760405160e560020a62461bcd02815260206004820152601c60248201527f4552433732313a20746f6b656e20616c7265616479206d696e7465640000000060448201526064016108e9565b613422600083836134a9565b600160a060020a038216600090815260046020526040812080546001929061344b908490613e08565b90915550506000818152600360205260408082208054600160a060020a031916600160a060020a03861690811790915590518392907fddf252ad1be2c89b69c2b068fc378daa952ba7f163c4a11628f55a4df523b3ef908290a45050565b600160a060020a0383166000908152600a6020908152604080832080548251818502810185019093528083529192909190849084015b8282101561353457600084815260209081902060408051606081018252600386029092018054835260018082015484860152600290910154600160a060020a03169183019190915290835290920191016134df565b505050600160a060020a0386166000908152600a6020526040812092935061355d9291506137ae565b60005b81518110156136db578282828151811061357c5761357c613f4c565b6020026020010151600001511461361a57600160a060020a0385166000908152600a6020526040902082518390839081106135b9576135b9613f4c565b6020908102919091018101518254600180820185556000948552938390208251600390920201908155918101519282019290925560409091015160029091018054600160a060020a031916600160a060020a039092169190911790556136c9565b8382828151811061362d5761362d613f4c565b602090810291909101810151600160a060020a039283166040918201529186166000908152600a90915220825183908390811061366c5761366c613f4c565b6020908102919091018101518254600180820185556000948552938390208251600390920201908155918101519282019290925560409091015160029091018054600160a060020a031916600160a060020a039092169190911790555b806136d381613eeb565b915050613560565b50506000908152600c602052604090208054600160a060020a031916600160a060020a039290921691909117905550565b508054600082559060005260206000209081019061284c91906137cf565b82805461373690613ead565b90600052602060002090601f016020900481019282613758576000855561379e565b82601f1061377157805160ff191683800117855561379e565b8280016001018555821561379e579182015b8281111561379e578251825591602001919060010190613783565b506137aa9291506137cf565b5090565b508054600082556003029060005260206000209081019061284c91906137e4565b5b808211156137aa57600081556001016137d0565b5b808211156137aa5760008082556001820155600281018054600160a060020a03191690556003016137e5565b600067ffffffffffffffff8084111561382c5761382c613f65565b604051601f8501601f19908116603f0116810190828211818310171561385457613854613f65565b8160405280935085815286868601111561386d57600080fd5b858560208301376000602087830101525050509392505050565b8035600160a060020a03811681146124f357600080fd5b6000602082840312156138b057600080fd5b612d1982613887565b600080604083850312156138cc57600080fd5b6138d583613887565b91506138e360208401613887565b90509250929050565b60008060006060848603121561390157600080fd5b61390a84613887565b925061391860208501613887565b9150604084013590509250925092565b6000806000806080858703121561393e57600080fd5b61394785613887565b935061395560208601613887565b925060408501359150606085013567ffffffffffffffff81111561397857600080fd5b8501601f8101871361398957600080fd5b61399887823560208401613811565b91505092959194509250565b600080604083850312156139b757600080fd5b6139c083613887565b915060208301356139d081613f7e565b809150509250929050565b600080604083850312156139ee57600080fd5b6139f783613887565b946020939093013593505050565b600060208284031215613a1757600080fd5b8151612d1981613f7e565b60008060408385031215613a3557600080fd5b50508035926020909101359150565b600060208284031215613a5657600080fd5b8135612d1981613f8c565b600060208284031215613a7357600080fd5b8151612d1981613f8c565b600060208284031215613a9057600080fd5b5035919050565b600060208284031215613aa957600080fd5b5051919050565b60008060408385031215613ac357600080fd5b82359150602083013567ffffffffffffffff811115613ae157600080fd5b8301601f81018513613af257600080fd5b613b0185823560208401613811565b9150509250929050565b60008060008060808587031215613b2157600080fd5b8435935060208501359250604085013591506060850135613b4181613f7e565b939692955090935050565b600080600080600060a08688031215613b6457600080fd5b505083359560208501359550604085013594606081013594506080013592509050565b60008151808452613b9f816020860160208601613e6a565b601f01601f19169290920160200192915050565b60008351613bc5818460208801613e6a565b835190830190613bd9818360208801613e6a565b01949350505050565b6000600160a060020a03808716835280861660208401525083604083015260806060830152613c146080830184613b87565b9695505050505050565b600160a060020a0384168152826020820152606060408201526000613c466060830184613b87565b95945050505050565b602080825282518282018190526000919060409081850190868401855b82811015613ca4578151805185528681015187860152850151600160a060020a03168585015260609093019290850190600101613c6c565b5091979650505050505050565b6020808252825182820181905260009190848201906040850190845b81811015613ce957835183529284019291840191600101613ccd565b50909695505050505050565b602081526000612d196020830184613b87565b60208082526032908201527f4552433732313a207472616e7366657220746f206e6f6e20455243373231526560408201527f63656976657220696d706c656d656e7465720000000000000000000000000000606082015260800190565b6020808252818101527f4f776e61626c653a2063616c6c6572206973206e6f7420746865206f776e6572604082015260600190565b60208082526011908201527f506f6c69746963206e6f7420666f756e64000000000000000000000000000000604082015260600190565b60208082526010908201527f496e636f727265637420616d6f756e7400000000000000000000000000000000604082015260600190565b60008219821115613e1b57613e1b613f1a565b500190565b600082613e2f57613e2f613f33565b500490565b6000816000190483118215151615613e4e57613e4e613f1a565b500290565b600082821015613e6557613e65613f1a565b500390565b60005b83811015613e85578181015183820152602001613e6d565b838111156121105750506000910152565b600081613ea557613ea5613f1a565b506000190190565b600281046001821680613ec157607f821691505b60208210811415613ee55760e060020a634e487b7102600052602260045260246000fd5b50919050565b6000600019821415613eff57613eff613f1a565b5060010190565b600082613f1557613f15613f33565b500690565b60e060020a634e487b7102600052601160045260246000fd5b60e060020a634e487b7102600052601260045260246000fd5b60e060020a634e487b7102600052603260045260246000fd5b60e060020a634e487b7102600052604160045260246000fd5b801515811461284c57600080fd5b600160e060020a03198116811461284c57600080fdfea2646970667358221220b13b41a2cd7f51e6bb13eb6f0c52791c1d1848ea4aff20c13762c45769b793b464736f6c63430008070033",
  "immutableReferences": {
    "73": [
      {
        "length": 32,
        "start": 9069
      },
      {
        "length": 32,
        "start": 11556
      }
    ],
    "75": [
      {
        "length": 32,
        "start": 6975
      },
      {
        "length": 32,
        "start": 11603
      }
    ]
  },
  "source": "// SPDX-License-Identifier: MIT\n\npragma solidity ^0.8.0;\n\nimport \"./Lottery.sol\";\n\n/**\n* @title ERC721 Lottery utils methods\n* @author Youness Chetoui\n*/\ncontract LotteryUtils is Lottery {\n\n    /**\n    * @notice Get stats by lottery\n    * @param _id of lottery\n    * @return ticket_available, nb_player\n    */\n    function getlotteryAvailableStats(uint256 _id) public view onlyOwner returns(uint256, uint256) {\n        require(lotteryAvailable[_id].created, \"Lottery not found\");\n        return (lotteryAvailable[_id].ticket_available, lotteryAvailable[_id].nb_player);\n    }\n}\n",
  "sourcePath": "/home/youness/Crypto/PoliticsCollectible/contracts/LotteryUtils.sol",
  "compiler": {
    "name": "solc",
    "version": "0.8.7+commit.e28d00a7.Emscripten.clang"
  },
  "schemaVersion": "3.4.3",
  "updatedAt": "2021-09-03T13:36:17.371Z",
  "devdoc": {
    "author": "Youness Chetoui",
    "kind": "dev",
    "methods": {
      "addQty(uint256,uint256)": {
        "params": {
          "_id": "of PoliticsAvailable and _qty wished"
        }
      },
      "approve(address,uint256)": {
        "details": "See {IERC721-approve}."
      },
      "balanceOf(address)": {
        "details": "See {IERC721-balanceOf}."
      },
      "buy(uint256,string)": {
        "params": {
          "_id": ", _tokenUri of politician available"
        }
      },
      "buyPoliticsForSale(uint256)": {
        "params": {
          "_tokenId": "of politician for sale"
        }
      },
      "cancelSell(uint256)": {
        "params": {
          "_tokenId": "of politician for sale"
        }
      },
      "create(uint256,uint256,uint256,bool)": {
        "params": {
          "_id": ", _qty, _price and _lottery of politician available"
        }
      },
      "createLottery(uint256,uint256,uint256,uint256,uint256)": {
        "params": {
          "_id": ", _id_politics, _end_time, _price, _ticket_available"
        }
      },
      "forSale(uint256,uint256)": {
        "params": {
          "_tokenId": "of politician owned and _price wished"
        }
      },
      "getApproved(uint256)": {
        "details": "See {IERC721-getApproved}."
      },
      "getMyPolitics()": {
        "returns": {
          "_0": "array of struct PoliticsOwned"
        }
      },
      "getPoliticQty(uint256)": {
        "params": {
          "_id": "PoliticsAvailable"
        },
        "returns": {
          "_0": "uint256"
        }
      },
      "getlotteryAvailableStats(uint256)": {
        "params": {
          "_id": "of lottery"
        },
        "returns": {
          "_0": "ticket_available, nb_player"
        }
      },
      "isApprovedForAll(address,address)": {
        "details": "See {IERC721-isApprovedForAll}."
      },
      "name()": {
        "details": "See {IERC721Metadata-name}."
      },
      "onERC721Received(address,address,uint256,bytes)": {
        "details": "See {IERC721Receiver-onERC721Received}. Always returns `IERC721Receiver.onERC721Received.selector`."
      },
      "onEndLottery(uint256)": {
        "params": {
          "_id": "of lottery"
        }
      },
      "owner()": {
        "details": "Returns the address of the current owner."
      },
      "ownerOf(uint256)": {
        "details": "See {IERC721-ownerOf}."
      },
      "playLottery(uint256)": {
        "params": {
          "_id": "of lottery"
        }
      },
      "renounceOwnership()": {
        "details": "Leaves the contract without owner. It will not be possible to call `onlyOwner` functions anymore. Can only be called by the current owner. NOTE: Renouncing ownership will leave the contract without an owner, thereby removing any functionality that is only available to the owner."
      },
      "safeTransferFrom(address,address,uint256)": {
        "details": "See {IERC721-safeTransferFrom}."
      },
      "safeTransferFrom(address,address,uint256,bytes)": {
        "details": "See {IERC721-safeTransferFrom}."
      },
      "setApprovalForAll(address,bool)": {
        "details": "See {IERC721-setApprovalForAll}."
      },
      "supportsInterface(bytes4)": {
        "details": "See {IERC165-supportsInterface}."
      },
      "symbol()": {
        "details": "See {IERC721Metadata-symbol}."
      },
      "tokenURI(uint256)": {
        "details": "See {IERC721Metadata-tokenURI}."
      },
      "transferOwnership(address)": {
        "details": "Transfers ownership of the contract to a new account (`newOwner`). Can only be called by the current owner."
      }
    },
    "title": "ERC721 Lottery utils methods",
    "version": 1
  },
  "userdoc": {
    "kind": "user",
    "methods": {
      "addQty(uint256,uint256)": {
        "notice": "Add quantity for a PoliticsAvailable"
      },
      "buy(uint256,string)": {
        "notice": "Buy politician"
      },
      "buyPoliticsForSale(uint256)": {
        "notice": "Buy politician"
      },
      "cancelSell(uint256)": {
        "notice": "Cancel the sell of politician"
      },
      "create(uint256,uint256,uint256,bool)": {
        "notice": "Create politician"
      },
      "createLottery(uint256,uint256,uint256,uint256,uint256)": {
        "notice": "Create lottery"
      },
      "forSale(uint256,uint256)": {
        "notice": "Up for sale of owned politician"
      },
      "getMyPolitics()": {
        "notice": "Get politician by user"
      },
      "getPoliticQty(uint256)": {
        "notice": "get qty of politician available"
      },
      "getRandomNumber()": {
        "notice": "Requests randomness"
      },
      "getlotteryAvailableStats(uint256)": {
        "notice": "Get stats by lottery"
      },
      "onEndLottery(uint256)": {
        "notice": "End lottery"
      },
      "playLottery(uint256)": {
        "notice": "Play lottery"
      },
      "transferFrom(address,address,uint256)": {
        "notice": "Disabled not safe transform"
      }
    },
    "version": 1
  }
}