{
  "contractName": "Lottery",
  "abi": [
    {
      "anonymous": false,
      "inputs": [
        {
          "indexed": true,
          "internalType": "address",
          "name": "owner",
          "type": "address"
        },
        {
          "indexed": true,
          "internalType": "address",
          "name": "approved",
          "type": "address"
        },
        {
          "indexed": true,
          "internalType": "uint256",
          "name": "tokenId",
          "type": "uint256"
        }
      ],
      "name": "Approval",
      "type": "event"
    },
    {
      "anonymous": false,
      "inputs": [
        {
          "indexed": true,
          "internalType": "address",
          "name": "owner",
          "type": "address"
        },
        {
          "indexed": true,
          "internalType": "address",
          "name": "operator",
          "type": "address"
        },
        {
          "indexed": false,
          "internalType": "bool",
          "name": "approved",
          "type": "bool"
        }
      ],
      "name": "ApprovalForAll",
      "type": "event"
    },
    {
      "anonymous": false,
      "inputs": [
        {
          "indexed": true,
          "internalType": "address",
          "name": "previousOwner",
          "type": "address"
        },
        {
          "indexed": true,
          "internalType": "address",
          "name": "newOwner",
          "type": "address"
        }
      ],
      "name": "OwnershipTransferred",
      "type": "event"
    },
    {
      "anonymous": false,
      "inputs": [
        {
          "indexed": true,
          "internalType": "address",
          "name": "from",
          "type": "address"
        },
        {
          "indexed": true,
          "internalType": "address",
          "name": "to",
          "type": "address"
        },
        {
          "indexed": true,
          "internalType": "uint256",
          "name": "tokenId",
          "type": "uint256"
        }
      ],
      "name": "Transfer",
      "type": "event"
    },
    {
      "inputs": [
        {
          "internalType": "uint256",
          "name": "_id",
          "type": "uint256"
        },
        {
          "internalType": "uint256",
          "name": "_qty",
          "type": "uint256"
        }
      ],
      "name": "addQty",
      "outputs": [],
      "stateMutability": "nonpayable",
      "type": "function"
    },
    {
      "inputs": [
        {
          "internalType": "address",
          "name": "to",
          "type": "address"
        },
        {
          "internalType": "uint256",
          "name": "tokenId",
          "type": "uint256"
        }
      ],
      "name": "approve",
      "outputs": [],
      "stateMutability": "nonpayable",
      "type": "function"
    },
    {
      "inputs": [
        {
          "internalType": "uint256",
          "name": "",
          "type": "uint256"
        }
      ],
      "name": "arrayLotteryAvailable",
      "outputs": [
        {
          "internalType": "uint256",
          "name": "",
          "type": "uint256"
        }
      ],
      "stateMutability": "view",
      "type": "function"
    },
    {
      "inputs": [
        {
          "internalType": "uint256",
          "name": "",
          "type": "uint256"
        }
      ],
      "name": "arrayPoliticiansOnSale",
      "outputs": [
        {
          "internalType": "uint256",
          "name": "",
          "type": "uint256"
        }
      ],
      "stateMutability": "view",
      "type": "function"
    },
    {
      "inputs": [
        {
          "internalType": "address",
          "name": "owner",
          "type": "address"
        }
      ],
      "name": "balanceOf",
      "outputs": [
        {
          "internalType": "uint256",
          "name": "",
          "type": "uint256"
        }
      ],
      "stateMutability": "view",
      "type": "function"
    },
    {
      "inputs": [
        {
          "internalType": "uint256",
          "name": "_id",
          "type": "uint256"
        },
        {
          "internalType": "string",
          "name": "_tokenUri",
          "type": "string"
        }
      ],
      "name": "buy",
      "outputs": [],
      "stateMutability": "payable",
      "type": "function"
    },
    {
      "inputs": [
        {
          "internalType": "uint256",
          "name": "_tokenId",
          "type": "uint256"
        }
      ],
      "name": "buyPoliticsForSale",
      "outputs": [],
      "stateMutability": "payable",
      "type": "function"
    },
    {
      "inputs": [
        {
          "internalType": "uint256",
          "name": "_tokenId",
          "type": "uint256"
        }
      ],
      "name": "cancelSell",
      "outputs": [],
      "stateMutability": "payable",
      "type": "function"
    },
    {
      "inputs": [],
      "name": "contractAddress",
      "outputs": [
        {
          "internalType": "address payable",
          "name": "",
          "type": "address"
        }
      ],
      "stateMutability": "view",
      "type": "function"
    },
    {
      "inputs": [
        {
          "internalType": "string",
          "name": "_name",
          "type": "string"
        },
        {
          "internalType": "uint256",
          "name": "_id",
          "type": "uint256"
        },
        {
          "internalType": "uint256",
          "name": "_qty",
          "type": "uint256"
        },
        {
          "internalType": "uint256",
          "name": "_level",
          "type": "uint256"
        },
        {
          "internalType": "uint256",
          "name": "_price",
          "type": "uint256"
        },
        {
          "internalType": "bool",
          "name": "_lottery",
          "type": "bool"
        }
      ],
      "name": "create",
      "outputs": [
        {
          "components": [
            {
              "internalType": "uint256",
              "name": "id",
              "type": "uint256"
            },
            {
              "internalType": "uint256",
              "name": "qty",
              "type": "uint256"
            },
            {
              "internalType": "uint256",
              "name": "level",
              "type": "uint256"
            },
            {
              "internalType": "uint256",
              "name": "price",
              "type": "uint256"
            },
            {
              "internalType": "string",
              "name": "name",
              "type": "string"
            },
            {
              "internalType": "bool",
              "name": "lottery",
              "type": "bool"
            },
            {
              "internalType": "bool",
              "name": "created",
              "type": "bool"
            }
          ],
          "internalType": "struct Collectible.PoliticsAvailable",
          "name": "",
          "type": "tuple"
        }
      ],
      "stateMutability": "nonpayable",
      "type": "function"
    },
    {
      "inputs": [
        {
          "internalType": "uint256",
          "name": "_tokenId",
          "type": "uint256"
        },
        {
          "internalType": "uint256",
          "name": "_price",
          "type": "uint256"
        }
      ],
      "name": "forSale",
      "outputs": [],
      "stateMutability": "nonpayable",
      "type": "function"
    },
    {
      "inputs": [
        {
          "internalType": "uint256",
          "name": "tokenId",
          "type": "uint256"
        }
      ],
      "name": "getApproved",
      "outputs": [
        {
          "internalType": "address",
          "name": "",
          "type": "address"
        }
      ],
      "stateMutability": "view",
      "type": "function"
    },
    {
      "inputs": [],
      "name": "getMyPolitics",
      "outputs": [
        {
          "components": [
            {
              "internalType": "uint256",
              "name": "id",
              "type": "uint256"
            },
            {
              "internalType": "uint256",
              "name": "id_politic",
              "type": "uint256"
            },
            {
              "internalType": "address",
              "name": "owner",
              "type": "address"
            }
          ],
          "internalType": "struct Collectible.PoliticsOwned[]",
          "name": "",
          "type": "tuple[]"
        }
      ],
      "stateMutability": "view",
      "type": "function"
    },
    {
      "inputs": [],
      "name": "getPolitics",
      "outputs": [
        {
          "components": [
            {
              "internalType": "uint256",
              "name": "id",
              "type": "uint256"
            },
            {
              "internalType": "uint256",
              "name": "qty",
              "type": "uint256"
            },
            {
              "internalType": "uint256",
              "name": "level",
              "type": "uint256"
            },
            {
              "internalType": "uint256",
              "name": "price",
              "type": "uint256"
            },
            {
              "internalType": "string",
              "name": "name",
              "type": "string"
            },
            {
              "internalType": "bool",
              "name": "lottery",
              "type": "bool"
            },
            {
              "internalType": "bool",
              "name": "created",
              "type": "bool"
            }
          ],
          "internalType": "struct Collectible.PoliticsAvailable[]",
          "name": "",
          "type": "tuple[]"
        }
      ],
      "stateMutability": "view",
      "type": "function"
    },
    {
      "inputs": [
        {
          "internalType": "address",
          "name": "owner",
          "type": "address"
        },
        {
          "internalType": "address",
          "name": "operator",
          "type": "address"
        }
      ],
      "name": "isApprovedForAll",
      "outputs": [
        {
          "internalType": "bool",
          "name": "",
          "type": "bool"
        }
      ],
      "stateMutability": "view",
      "type": "function"
    },
    {
      "inputs": [],
      "name": "name",
      "outputs": [
        {
          "internalType": "string",
          "name": "",
          "type": "string"
        }
      ],
      "stateMutability": "view",
      "type": "function"
    },
    {
      "inputs": [
        {
          "internalType": "address",
          "name": "",
          "type": "address"
        },
        {
          "internalType": "address",
          "name": "",
          "type": "address"
        },
        {
          "internalType": "uint256",
          "name": "",
          "type": "uint256"
        },
        {
          "internalType": "bytes",
          "name": "",
          "type": "bytes"
        }
      ],
      "name": "onERC721Received",
      "outputs": [
        {
          "internalType": "bytes4",
          "name": "",
          "type": "bytes4"
        }
      ],
      "stateMutability": "nonpayable",
      "type": "function"
    },
    {
      "inputs": [],
      "name": "owner",
      "outputs": [
        {
          "internalType": "address",
          "name": "",
          "type": "address"
        }
      ],
      "stateMutability": "view",
      "type": "function"
    },
    {
      "inputs": [],
      "name": "ownerAddress",
      "outputs": [
        {
          "internalType": "address payable",
          "name": "",
          "type": "address"
        }
      ],
      "stateMutability": "view",
      "type": "function"
    },
    {
      "inputs": [
        {
          "internalType": "uint256",
          "name": "tokenId",
          "type": "uint256"
        }
      ],
      "name": "ownerOf",
      "outputs": [
        {
          "internalType": "address",
          "name": "",
          "type": "address"
        }
      ],
      "stateMutability": "view",
      "type": "function"
    },
    {
      "inputs": [],
      "name": "renounceOwnership",
      "outputs": [],
      "stateMutability": "nonpayable",
      "type": "function"
    },
    {
      "inputs": [
        {
          "internalType": "address",
          "name": "from",
          "type": "address"
        },
        {
          "internalType": "address",
          "name": "to",
          "type": "address"
        },
        {
          "internalType": "uint256",
          "name": "tokenId",
          "type": "uint256"
        }
      ],
      "name": "safeTransferFrom",
      "outputs": [],
      "stateMutability": "nonpayable",
      "type": "function"
    },
    {
      "inputs": [
        {
          "internalType": "address",
          "name": "from",
          "type": "address"
        },
        {
          "internalType": "address",
          "name": "to",
          "type": "address"
        },
        {
          "internalType": "uint256",
          "name": "tokenId",
          "type": "uint256"
        },
        {
          "internalType": "bytes",
          "name": "_data",
          "type": "bytes"
        }
      ],
      "name": "safeTransferFrom",
      "outputs": [],
      "stateMutability": "nonpayable",
      "type": "function"
    },
    {
      "inputs": [
        {
          "internalType": "address",
          "name": "operator",
          "type": "address"
        },
        {
          "internalType": "bool",
          "name": "approved",
          "type": "bool"
        }
      ],
      "name": "setApprovalForAll",
      "outputs": [],
      "stateMutability": "nonpayable",
      "type": "function"
    },
    {
      "inputs": [
        {
          "internalType": "bytes4",
          "name": "interfaceId",
          "type": "bytes4"
        }
      ],
      "name": "supportsInterface",
      "outputs": [
        {
          "internalType": "bool",
          "name": "",
          "type": "bool"
        }
      ],
      "stateMutability": "view",
      "type": "function"
    },
    {
      "inputs": [],
      "name": "symbol",
      "outputs": [
        {
          "internalType": "string",
          "name": "",
          "type": "string"
        }
      ],
      "stateMutability": "view",
      "type": "function"
    },
    {
      "inputs": [
        {
          "internalType": "uint256",
          "name": "tokenId",
          "type": "uint256"
        }
      ],
      "name": "tokenURI",
      "outputs": [
        {
          "internalType": "string",
          "name": "",
          "type": "string"
        }
      ],
      "stateMutability": "view",
      "type": "function"
    },
    {
      "inputs": [
        {
          "internalType": "address",
          "name": "from",
          "type": "address"
        },
        {
          "internalType": "address",
          "name": "to",
          "type": "address"
        },
        {
          "internalType": "uint256",
          "name": "tokenId",
          "type": "uint256"
        }
      ],
      "name": "transferFrom",
      "outputs": [],
      "stateMutability": "nonpayable",
      "type": "function"
    },
    {
      "inputs": [
        {
          "internalType": "address",
          "name": "newOwner",
          "type": "address"
        }
      ],
      "name": "transferOwnership",
      "outputs": [],
      "stateMutability": "nonpayable",
      "type": "function"
    },
    {
      "inputs": [
        {
          "internalType": "uint256",
          "name": "_id",
          "type": "uint256"
        },
        {
          "internalType": "uint256",
          "name": "_id_politics",
          "type": "uint256"
        },
        {
          "internalType": "uint256",
          "name": "_end_time",
          "type": "uint256"
        },
        {
          "internalType": "uint256",
          "name": "_price",
          "type": "uint256"
        },
        {
          "internalType": "uint256",
          "name": "_ticket_available",
          "type": "uint256"
        }
      ],
      "name": "createLottery",
      "outputs": [],
      "stateMutability": "nonpayable",
      "type": "function"
    },
    {
      "inputs": [
        {
          "internalType": "uint256",
          "name": "_id",
          "type": "uint256"
        }
      ],
      "name": "playLottery",
      "outputs": [],
      "stateMutability": "payable",
      "type": "function"
    },
    {
      "inputs": [
        {
          "internalType": "uint256",
          "name": "_id",
          "type": "uint256"
        }
      ],
      "name": "onEndLottery",
      "outputs": [],
      "stateMutability": "nonpayable",
      "type": "function"
    }
  ],
  "bytecode": "0x60806040526001600e5560056011553480156200001b57600080fd5b50604080518082018252600b81527f506f6c69746963734e667400000000000000000000000000000000000000000060208083019182528351808501909452600384527f504f4c0000000000000000000000000000000000000000000000000000000000908401528151919291620000969160009162000157565b508051620000ac90600190602084019062000157565b505050620000db620000cc62000101640100000000026401000000009004565b64010000000062000105810204565b600c8054600160a060020a03199081163317909155600d80549091163017905562000253565b3390565b60078054600160a060020a03838116600160a060020a0319831681179093556040519116919082907f8be0079c531659141344cd1fd0a4f28419497f9722a3daafe3b4186f6b6457e090600090a35050565b8280546200016590620001fd565b90600052602060002090601f016020900481019282620001895760008555620001d4565b82601f10620001a457805160ff1916838001178555620001d4565b82800160010185558215620001d4579182015b82811115620001d4578251825591602001919060010190620001b7565b50620001e2929150620001e6565b5090565b5b80821115620001e25760008155600101620001e7565b6002810460018216806200021257607f821691505b602082108114156200024d577f4e487b7100000000000000000000000000000000000000000000000000000000600052602260045260246000fd5b50919050565b61415080620002636000396000f3fe608060405260043610610200576000357c01000000000000000000000000000000000000000000000000000000009004806385d334361161011f578063b88d4fde116100b2578063e7e6c81c11610081578063e7e6c81c146105a2578063e985e9c5146105c2578063f2fde38b1461060b578063f6b4dfb41461062b57600080fd5b8063b88d4fde14610522578063b9db1c9814610542578063bf6e9bb214610562578063c87b56dd1461058257600080fd5b8063935b8d97116100ee578063935b8d97146104ba57806395d89b41146104da578063a22cb465146104ef578063b7dc3b181461050f57600080fd5b806385d334361461043a5780638da5cb5b1461045c5780638f84aa091461047a5780638fedc8641461049a57600080fd5b806323b872dd1161019757806354b3efa61161016657806354b3efa6146103b75780636352211e146103d757806370a08231146103f7578063715018a61461042557600080fd5b806323b872dd1461034257806330f105cd1461036257806342842e0e14610384578063546f9e67146103a457600080fd5b8063081812fc116101d3578063081812fc14610284578063095ea7b3146102bc57806311143277146102dc578063150b7a021461030957600080fd5b806301ffc9a71461020557806303ddcab81461023a57806306fdde031461024f57806307c9cd4514610271575b600080fd5b34801561021157600080fd5b50610225610220366004613b7a565b61064b565b60405190151581526020015b60405180910390f35b61024d610248366004613c27565b6106e8565b005b34801561025b57600080fd5b50610264610a1e565b6040516102319190613e9f565b61024d61027f366004613c27565b610ab0565b34801561029057600080fd5b506102a461029f366004613c27565b610c5b565b604051600160a060020a039091168152602001610231565b3480156102c857600080fd5b5061024d6102d7366004613b50565b610cf7565b3480156102e857600080fd5b506102fc6102f7366004613bb4565b610e2f565b6040516102319190613f7b565b34801561031557600080fd5b50610329610324366004613aaa565b6110a8565b604051600160e060020a03199091168152602001610231565b34801561034e57600080fd5b5061024d61035d366004613a6e565b6110d2565b34801561036e57600080fd5b506103776110ff565b6040516102319190613ddc565b34801561039057600080fd5b5061024d61039f366004613a6e565b61126f565b61024d6103b2366004613c27565b61128a565b3480156103c357600080fd5b5061024d6103d2366004613c87565b611502565b3480156103e357600080fd5b506102a46103f2366004613c27565b611646565b34801561040357600080fd5b50610417610412366004613a20565b6116d4565b604051908152602001610231565b34801561043157600080fd5b5061024d611771565b34801561044657600080fd5b5061044f6117aa565b6040516102319190613e3d565b34801561046857600080fd5b50600754600160a060020a03166102a4565b34801561048657600080fd5b50600c546102a490600160a060020a031681565b3480156104a657600080fd5b506104176104b5366004613c27565b61182e565b3480156104c657600080fd5b5061024d6104d5366004613c27565b61184f565b3480156104e657600080fd5b50610264611d8f565b3480156104fb57600080fd5b5061024d61050a366004613b26565b611d9e565b61024d61051d366004613c40565b611e66565b34801561052e57600080fd5b5061024d61053d366004613aaa565b6123c4565b34801561054e57600080fd5b5061024d61055d366004613c87565b612455565b34801561056e57600080fd5b5061041761057d366004613c27565b6125e6565b34801561058e57600080fd5b5061026461059d366004613c27565b6125f6565b3480156105ae57600080fd5b5061024d6105bd366004613ca9565b612774565b3480156105ce57600080fd5b506102256105dd366004613a3b565b600160a060020a03918216600090815260056020908152604080832093909416825291909152205460ff1690565b34801561061757600080fd5b5061024d610626366004613a20565b612a18565b34801561063757600080fd5b50600d546102a490600160a060020a031681565b6000600160e060020a031982167f80ac58cd0000000000000000000000000000000000000000000000000000000014806106ae5750600160e060020a031982167f5b5e139f00000000000000000000000000000000000000000000000000000000145b806106e257507f01ffc9a700000000000000000000000000000000000000000000000000000000600160e060020a03198316145b92915050565b6000818152601360205260409020600301546103e89061071090670de0b6b3a7640000613fba565b61071a9190613fa6565b34146107445760405160e560020a62461bcd02815260040161073b90613f44565b60405180910390fd5b60008181526013602052604090206006015460ff166107a85760405160e560020a62461bcd02815260206004820152601160248201527f4c6f7474657279206e6f7420666f756e64000000000000000000000000000000604482015260640161073b565b600081815260136020526040902060020154421061080b5760405160e560020a62461bcd02815260206004820152601560248201527f4c6f7474657279206e6f7420617661696c61626c650000000000000000000000604482015260640161073b565b60008181526013602052604090206005015461086c5760405160e560020a62461bcd02815260206004820152601860248201527f4e6f206d6f7265207469636b657420617661696c61626c650000000000000000604482015260640161073b565b6000818152601260209081526040808320805482518185028101850190935280835291929091908301828280156108cc57602002820191906000526020600020905b8154600160a060020a031681526001909101906020018083116108ae575b5050505050905060005b815181101561096f5733600160a060020a03168282815181106108fb576108fb6140d2565b6020026020010151600160a060020a0316141561095d5760405160e560020a62461bcd02815260206004820152601a60248201527f4f6e6c79206f6e65207469636b65742062792061646472657373000000000000604482015260640161073b565b8061096781614071565b9150506108d6565b50600c54604051600160a060020a03909116903480156108fc02916000818181858888f193505050501580156109a9573d6000803e3d6000fd5b5060008281526012602090815260408083208054600181018255908452828420018054600160a060020a03191633179055848352601390915281206004018054916109f383614071565b90915550506000828152601360205260408120600501805491610a158361401c565b91905055505050565b606060008054610a2d90614033565b80601f0160208091040260200160405190810160405280929190818152602001828054610a5990614033565b8015610aa65780601f10610a7b57610100808354040283529160200191610aa6565b820191906000526020600020905b815481529060010190602001808311610a8957829003601f168201915b5050505050905090565b6000818152600f6020526040902060020154600160a060020a03163314610b1c5760405160e560020a62461bcd02815260206004820152601360248201527f4e6f7420796f757220706f6c6974696369616e00000000000000000000000000604482015260640161073b565b6011546000828152600f602052604081206001015490916064916103e890610b4c90670de0b6b3a7640000613fba565b610b569190613fa6565b610b609190613fba565b610b6a9190613fa6565b9050803414610b8e5760405160e560020a62461bcd02815260040161073b90613f44565b600c54604051600160a060020a039091169082156108fc029083906000818181858888f19350505050158015610bc8573d6000803e3d6000fd5b50600d546040517f42842e0e000000000000000000000000000000000000000000000000000000008152600160a060020a0390911660048201523360248201526044810183905230906342842e0e90606401600060405180830381600087803b158015610c3457600080fd5b505af1158015610c48573d6000803e3d6000fd5b50505050610c57826001612ad0565b5050565b6000610c6682612ba4565b610cdb5760405160e560020a62461bcd02815260206004820152602c60248201527f4552433732313a20617070726f76656420717565727920666f72206e6f6e657860448201527f697374656e7420746f6b656e0000000000000000000000000000000000000000606482015260840161073b565b50600090815260046020526040902054600160a060020a031690565b6000610d0282611646565b905080600160a060020a031683600160a060020a03161415610d8f5760405160e560020a62461bcd02815260206004820152602160248201527f4552433732313a20617070726f76616c20746f2063757272656e74206f776e6560448201527f7200000000000000000000000000000000000000000000000000000000000000606482015260840161073b565b33600160a060020a0382161480610dab5750610dab81336105dd565b610e205760405160e560020a62461bcd02815260206004820152603860248201527f4552433732313a20617070726f76652063616c6c6572206973206e6f74206f7760448201527f6e6572206e6f7220617070726f76656420666f7220616c6c0000000000000000606482015260840161073b565b610e2a8383612bc1565b505050565b610e3761379d565b600754600160a060020a03163314610e645760405160e560020a62461bcd02815260040161073b90613f0f565b600086815260096020526040902060050154610100900460ff1615610ece5760405160e560020a62461bcd02815260206004820152601160248201527f696420616c726561647920696e20757365000000000000000000000000000000604482015260640161073b565b6040805160e081018252878152602080820188815292820187815260608301878152608084018c815287151560a0860152600160c0860181905260088054918201815560005285517ff3f7a9fe364faab93b216da50a3214154f22a0a2b415b23a84c8169e8b636ee3600690920291820190815596517ff3f7a9fe364faab93b216da50a3214154f22a0a2b415b23a84c8169e8b636ee482015592517ff3f7a9fe364faab93b216da50a3214154f22a0a2b415b23a84c8169e8b636ee584015590517ff3f7a9fe364faab93b216da50a3214154f22a0a2b415b23a84c8169e8b636ee6830155518051939485949093610feb937ff3f7a9fe364faab93b216da50a3214154f22a0a2b415b23a84c8169e8b636ee7019201906137de565b5060a08201516005909101805460c09093015115156101000261ff00199215159290921661ffff199093169290921717905560008781526009602090815260409182902083518155818401516001820155918301516002830155606083015160038301556080830151805184939261106a9260048501929101906137de565b5060a08201516005909101805460c09093015115156101000261ff00199215159290921661ffff199093169290921717905590509695505050505050565b7f150b7a02000000000000000000000000000000000000000000000000000000005b949350505050565b600754600160a060020a03163314610e2a5760405160e560020a62461bcd02815260040161073b90613f0f565b600754606090600160a060020a0316331461112f5760405160e560020a62461bcd02815260040161073b90613f0f565b6008805480602002602001604051908101604052809291908181526020016000905b8282101561126657838290600052602060002090600602016040518060e0016040529081600082015481526020016001820154815260200160028201548152602001600382015481526020016004820180546111ac90614033565b80601f01602080910402602001604051908101604052809291908181526020018280546111d890614033565b80156112255780601f106111fa57610100808354040283529160200191611225565b820191906000526020600020905b81548152906001019060200180831161120857829003601f168201915b50505091835250506005919091015460ff80821615156020808501919091526101009092041615156040909201919091529082526001929092019101611151565b50505050905090565b610e2a838383604051806020016040528060008152506123c4565b6000818152600f602052604090206002015474010000000000000000000000000000000000000000900460ff166113065760405160e560020a62461bcd02815260206004820152601760248201527f506f6c6974696369616e206e6f7420666f722073616c65000000000000000000604482015260640161073b565b6000818152600f6020526040902060020154600160a060020a03163314156113735760405160e560020a62461bcd02815260206004820152600f60248201527f596f757220706f6c6974696369616e0000000000000000000000000000000000604482015260640161073b565b6000818152600f60205260409020600101546103e89061139b90670de0b6b3a7640000613fba565b6113a59190613fa6565b34146113c65760405160e560020a62461bcd02815260040161073b90613f44565b60006064601154346113d89190613fba565b6113e29190613fa6565b905060006113f08234613fd9565b600c54604051919250600160a060020a03169083156108fc029084906000818181858888f1935050505015801561142b573d6000803e3d6000fd5b506000838152600f6020526040808220600201549051600160a060020a039091169183156108fc02918491818181858888f19350505050158015611473573d6000803e3d6000fd5b50600d546040517f42842e0e000000000000000000000000000000000000000000000000000000008152600160a060020a0390911660048201523360248201526044810184905230906342842e0e90606401600060405180830381600087803b1580156114df57600080fd5b505af11580156114f3573d6000803e3d6000fd5b50505050610e2a836001612ad0565b6000828152600b6020526040902054600160a060020a031633146115915760405160e560020a62461bcd02815260206004820152602260248201527f596f7520617265206e6f7420746865206f776e6572206f662074686520746f6b60448201527f656e000000000000000000000000000000000000000000000000000000000000606482015260840161073b565b600d546115a9903390600160a060020a03168461126f565b604080516080810182528381526020808201848152338385019081526001606085018181526000898152600f9095529590932084518155915182840155516002909101805494511515740100000000000000000000000000000000000000000274ffffffffffffffffffffffffffffffffffffffffff19909516600160a060020a0392909216919091179390931790925590610e2a908490612ad0565b600081815260026020526040812054600160a060020a0316806106e25760405160e560020a62461bcd02815260206004820152602960248201527f4552433732313a206f776e657220717565727920666f72206e6f6e657869737460448201527f656e7420746f6b656e0000000000000000000000000000000000000000000000606482015260840161073b565b6000600160a060020a0382166117555760405160e560020a62461bcd02815260206004820152602a60248201527f4552433732313a2062616c616e636520717565727920666f7220746865207a6560448201527f726f206164647265737300000000000000000000000000000000000000000000606482015260840161073b565b50600160a060020a031660009081526003602052604090205490565b600754600160a060020a0316331461179e5760405160e560020a62461bcd02815260040161073b90613f0f565b6117a86000612c2f565b565b336000908152600a60209081526040808320805482518185028101850190935280835260609492939192909184015b8282101561126657600084815260209081902060408051606081018252600386029092018054835260018082015484860152600290910154600160a060020a03169183019190915290835290920191016117d9565b6010818154811061183e57600080fd5b600091825260209091200154905081565b600754600160a060020a0316331461187c5760405160e560020a62461bcd02815260040161073b90613f0f565b60008181526013602052604090206006015460ff166118e05760405160e560020a62461bcd02815260206004820152601560248201527f4c6f7474657279206e6f7420617661696c61626c650000000000000000000000604482015260640161073b565b60008181526013602052604090206002015442116119435760405160e560020a62461bcd02815260206004820152601460248201527f4c6f7474657279206e6f742066696e6973686564000000000000000000000000604482015260640161073b565b60008181526013602090815260408083206001015460128352818420548251429481019490945291830185905260608301819052929160800160408051601f19818403018152919052805160209091012061199e919061408c565b600084815260126020526040812080549293509091839081106119c3576119c36140d2565b600091825260209091200154600160a060020a031690506119e261379d565b60005b600854811015611c30578460088281548110611a0357611a036140d2565b9060005260206000209060060201600001541415611c1e5760088181548110611a2e57611a2e6140d2565b90600052602060002090600602016040518060e001604052908160008201548152602001600182015481526020016002820154815260200160038201548152602001600482018054611a7f90614033565b80601f0160208091040260200160405190810160405280929190818152602001828054611aab90614033565b8015611af85780601f10611acd57610100808354040283529160200191611af8565b820191906000526020600020905b815481529060010190602001808311611adb57829003601f168201915b50505091835250506005919091015460ff80821615156020840152610100909104161515604090910152600880549193509082908110611b3a57611b3a6140d2565b600091825260208220600160069092020101805491611b588361401c565b919050555060088181548110611b7057611b706140d2565b906000526020600020906006020160096000878152602001908152602001600020600082015481600001556001820154816001015560028201548160020155600382015481600301556004820181600401908054611bcd90614033565b611bd8929190613862565b506005918201805491909201805460ff19811660ff93841615159081178355935461ffff1990911661ff0019909416939093176101009384900490921615159092021790555b80611c2881614071565b9150506119e5565b5060006402540be400600e5484604051602001611c6f929190918252600160a060020a03166c0100000000000000000000000002602082015260340190565b60408051601f198184030181529190528051602090910120611c91919061408c565b600e80549192506000611ca383614071565b9190505550611cb28382612c81565b604080516060810182528281526020808201888152600160a060020a038088168486018181526000828152600a86528781208054600181810183559183528783208951600392830290910190815596518783015592516002968701805491909616600160a060020a031991821617909555898252600b875288822080549095169093179093558c83526013855286832083815591820183905592810182905591820181905560048201819055600582018190556006909101805460ff1916905560129091529182209091611d8691906138dd565b50505050505050565b606060018054610a2d90614033565b600160a060020a038216331415611dfa5760405160e560020a62461bcd02815260206004820152601960248201527f4552433732313a20617070726f766520746f2063616c6c657200000000000000604482015260640161073b565b336000818152600560209081526040808320600160a060020a03871680855290835292819020805460ff191686151590811790915590519081529192917f17307eab39ab6107e8899845ad3d59bd9653f200f220920489ca2b5937696c31910160405180910390a35050565b600082815260096020526040902060050154610100900460ff16611ecf5760405160e560020a62461bcd02815260206004820152601160248201527f506f6c69746963206e6f7420666f756e64000000000000000000000000000000604482015260640161073b565b60008281526009602052604090206005015460ff1615611f5a5760405160e560020a62461bcd02815260206004820152602360248201527f506f6c69746963206f6e6c7920617661696c61626c652077697468206c6f747460448201527f6572790000000000000000000000000000000000000000000000000000000000606482015260840161073b565b600082815260096020526040902060010154611fe15760405160e560020a62461bcd02815260206004820152602260248201527f5468657265206973206e6f206d6f726520706f6c6974696320617661696c616260448201527f6c65000000000000000000000000000000000000000000000000000000000000606482015260840161073b565b6000828152600960205260409020600301546103e89061200990670de0b6b3a7640000613fba565b6120139190613fa6565b34146120345760405160e560020a62461bcd02815260040161073b90613f44565b61203c61379d565b60005b60085481101561228a57836008828154811061205d5761205d6140d2565b90600052602060002090600602016000015414156122785760088181548110612088576120886140d2565b90600052602060002090600602016040518060e0016040529081600082015481526020016001820154815260200160028201548152602001600382015481526020016004820180546120d990614033565b80601f016020809104026020016040519081016040528092919081815260200182805461210590614033565b80156121525780601f1061212757610100808354040283529160200191612152565b820191906000526020600020905b81548152906001019060200180831161213557829003601f168201915b50505091835250506005919091015460ff80821615156020840152610100909104161515604090910152600880549193509082908110612194576121946140d2565b6000918252602082206001600690920201018054916121b28361401c565b9190505550600881815481106121ca576121ca6140d2565b90600052602060002090600602016009600086815260200190815260200160002060008201548160000155600182015481600101556002820154816002015560038201548160030155600482018160040190805461222790614033565b612232929190613862565b506005918201805491909201805460ff19811660ff93841615159081178355935461ffff1990911661ff0019909416939093176101009384900490921615159092021790555b8061228281614071565b91505061203f565b50600e5460408051602080820193909352336c01000000000000000000000000028183015281516034818303018152605490910190915280519101206000906122d9906402540be4009061408c565b600e805491925060006122eb83614071565b9091555050600c54604051600160a060020a03909116903480156108fc02916000818181858888f19350505050158015612329573d6000803e3d6000fd5b506123343382612c81565b61233e8184612c9b565b6040805160608101825282815292516020808501918252338584018181526000828152600a8452858120805460018181018355918352858320995160039091029099019889559451948801949094555160029096018054600160a060020a0397909716600160a060020a0319978816179055938252600b90522080549092161790555050565b6123ce3383612d38565b6124435760405160e560020a62461bcd02815260206004820152603160248201527f4552433732313a207472616e736665722063616c6c6572206973206e6f74206f60448201527f776e6572206e6f7220617070726f766564000000000000000000000000000000606482015260840161073b565b61244f84848484612e32565b50505050565b600754600160a060020a031633146124825760405160e560020a62461bcd02815260040161073b90613f0f565b60005b600854811015610e2a5782600882815481106124a3576124a36140d2565b9060005260206000209060060201600001541480156124e5575081600882815481106124d1576124d16140d2565b906000526020600020906006020160010154105b156125d45781600882815481106124fe576124fe6140d2565b90600052602060002090600602016001018190555060088181548110612526576125266140d2565b90600052602060002090600602016009600085815260200190815260200160002060008201548160000155600182015481600101556002820154816002015560038201548160030155600482018160040190805461258390614033565b61258e929190613862565b506005918201805491909201805460ff19811660ff93841615159081178355935461ffff1990911661ff0019909416939093176101009384900490921615159092021790555b806125de81614071565b915050612485565b6014818154811061183e57600080fd5b606061260182612ba4565b6126765760405160e560020a62461bcd02815260206004820152603160248201527f45524337323155524953746f726167653a2055524920717565727920666f722060448201527f6e6f6e6578697374656e7420746f6b656e000000000000000000000000000000606482015260840161073b565b6000828152600660205260408120805461268f90614033565b80601f01602080910402602001604051908101604052809291908181526020018280546126bb90614033565b80156127085780601f106126dd57610100808354040283529160200191612708565b820191906000526020600020905b8154815290600101906020018083116126eb57829003601f168201915b50505050509050600061272660408051602081019091526000815290565b9050805160001415612739575092915050565b81511561276b578082604051602001612753929190613d71565b60405160208183030381529060405292505050919050565b6110ca84612e68565b600754600160a060020a031633146127a15760405160e560020a62461bcd02815260040161073b90613f0f565b60008481526009602052604090206005015460ff166128055760405160e560020a62461bcd02815260206004820181905260248201527f506f6c69746963206e6f7420617661696c61626c6520696e206c6f7474657279604482015260640161073b565b60008581526013602052604090206006015460ff161561286a5760405160e560020a62461bcd02815260206004820152601560248201527f4c6f747465727920616c72656164792065786973740000000000000000000000604482015260640161073b565b8242106128bc5760405160e560020a62461bcd02815260206004820152601360248201527f456e642074696d6520697320696e207061737400000000000000000000000000604482015260640161073b565b6000821161290f5760405160e560020a62461bcd02815260206004820152600a60248201527f5072696365206973203000000000000000000000000000000000000000000000604482015260640161073b565b60328110156129635760405160e560020a62461bcd02815260206004820152601960248201527f5469636b657420617661696c69626c6520756e64657220353000000000000000604482015260640161073b565b6040805160e08101825286815260208082019687528183019586526060820194855260006080830181815260a08401958652600160c08501818152601480548084019091557fce6d7b5282bd9a3661ae061feed1dbda4e52ab073b1f9285be6e155d9c38d4ec018c90559a835260139093529390209151825595519581019590955592516002850155905160038401559051600483015551600582015590516006909101805460ff1916911515919091179055565b600754600160a060020a03163314612a455760405160e560020a62461bcd02815260040161073b90613f0f565b600160a060020a038116612ac45760405160e560020a62461bcd02815260206004820152602660248201527f4f776e61626c653a206e6577206f776e657220697320746865207a65726f206160448201527f6464726573730000000000000000000000000000000000000000000000000000606482015260840161073b565b612acd81612c2f565b50565b8015612b6e576000828152600f6020526040812081815560018101829055600201805474ffffffffffffffffffffffffffffffffffffffffff191690555b601054811015610e2a578260108281548110612b2c57612b2c6140d2565b90600052602060002001541415612b5c5760108181548110612b5057612b506140d2565b60009182526020822001555b80612b6681614071565b915050612b0e565b50601080546001810182556000919091527f1b6847dc741a1b0cd08d278845f9d819d87b734759afb55fe2de5cb82a9ae6720155565b600090815260026020526040902054600160a060020a0316151590565b60008181526004602052604090208054600160a060020a031916600160a060020a0384169081179091558190612bf682611646565b600160a060020a03167f8c5be1e5ebec7d5bd14f71427d1e84f3dd0314c0f7b2291e5b200ac8c7c3b92560405160405180910390a45050565b60078054600160a060020a03838116600160a060020a0319831681179093556040519116919082907f8be0079c531659141344cd1fd0a4f28419497f9722a3daafe3b4186f6b6457e090600090a35050565b610c57828260405180602001604052806000815250612f51565b612ca482612ba4565b612d195760405160e560020a62461bcd02815260206004820152602e60248201527f45524337323155524953746f726167653a2055524920736574206f66206e6f6e60448201527f6578697374656e7420746f6b656e000000000000000000000000000000000000606482015260840161073b565b60008281526006602090815260409091208251610e2a928401906137de565b6000612d4382612ba4565b612db85760405160e560020a62461bcd02815260206004820152602c60248201527f4552433732313a206f70657261746f7220717565727920666f72206e6f6e657860448201527f697374656e7420746f6b656e0000000000000000000000000000000000000000606482015260840161073b565b6000612dc383611646565b905080600160a060020a031684600160a060020a03161480612dfe575083600160a060020a0316612df384610c5b565b600160a060020a0316145b806110ca5750600160a060020a0380821660009081526005602090815260408083209388168352929052205460ff166110ca565b612e3d848484612f87565b612e4984848484613165565b61244f5760405160e560020a62461bcd02815260040161073b90613eb2565b6060612e7382612ba4565b612ee85760405160e560020a62461bcd02815260206004820152602f60248201527f4552433732314d657461646174613a2055524920717565727920666f72206e6f60448201527f6e6578697374656e7420746f6b656e0000000000000000000000000000000000606482015260840161073b565b6000612eff60408051602081019091526000815290565b90506000815111612f1f5760405180602001604052806000815250612f4a565b80612f29846132a4565b604051602001612f3a929190613d71565b6040516020818303038152906040525b9392505050565b612f5b83836133f5565b612f686000848484613165565b610e2a5760405160e560020a62461bcd02815260040161073b90613eb2565b82600160a060020a0316612f9a82611646565b600160a060020a0316146130195760405160e560020a62461bcd02815260206004820152602960248201527f4552433732313a207472616e73666572206f6620746f6b656e2074686174206960448201527f73206e6f74206f776e0000000000000000000000000000000000000000000000606482015260840161073b565b600160a060020a0382166130975760405160e560020a62461bcd028152602060048201526024808201527f4552433732313a207472616e7366657220746f20746865207a65726f2061646460448201527f7265737300000000000000000000000000000000000000000000000000000000606482015260840161073b565b6130a283838361353a565b6130ad600082612bc1565b600160a060020a03831660009081526003602052604081208054600192906130d6908490613fd9565b9091555050600160a060020a0382166000908152600360205260408120805460019290613104908490613f8e565b90915550506000818152600260205260408082208054600160a060020a031916600160a060020a0386811691821790925591518493918716917fddf252ad1be2c89b69c2b068fc378daa952ba7f163c4a11628f55a4df523b3ef91a4505050565b6000600160a060020a0384163b1561329c576040517f150b7a02000000000000000000000000000000000000000000000000000000008152600160a060020a0385169063150b7a02906131c2903390899088908890600401613da0565b602060405180830381600087803b1580156131dc57600080fd5b505af192505050801561320c575060408051601f3d908101601f1916820190925261320991810190613b97565b60015b613269573d80801561323a576040519150601f19603f3d011682016040523d82523d6000602084013e61323f565b606091505b5080516132615760405160e560020a62461bcd02815260040161073b90613eb2565b805181602001fd5b600160e060020a0319167f150b7a02000000000000000000000000000000000000000000000000000000001490506110ca565b5060016110ca565b6060816132e457505060408051808201909152600181527f3000000000000000000000000000000000000000000000000000000000000000602082015290565b8160005b811561330e57806132f881614071565b91506133079050600a83613fa6565b91506132e8565b60008167ffffffffffffffff811115613329576133296140eb565b6040519080825280601f01601f191660200182016040528015613353576020820181803683370190505b5090505b84156110ca57613368600183613fd9565b9150613375600a8661408c565b613380906030613f8e565b7f0100000000000000000000000000000000000000000000000000000000000000028183815181106133b4576133b46140d2565b60200101907effffffffffffffffffffffffffffffffffffffffffffffffffffffffffffff1916908160001a9053506133ee600a86613fa6565b9450613357565b600160a060020a03821661344e5760405160e560020a62461bcd02815260206004820181905260248201527f4552433732313a206d696e7420746f20746865207a65726f2061646472657373604482015260640161073b565b61345781612ba4565b156134a75760405160e560020a62461bcd02815260206004820152601c60248201527f4552433732313a20746f6b656e20616c7265616479206d696e74656400000000604482015260640161073b565b6134b36000838361353a565b600160a060020a03821660009081526003602052604081208054600192906134dc908490613f8e565b90915550506000818152600260205260408082208054600160a060020a031916600160a060020a03861690811790915590518392907fddf252ad1be2c89b69c2b068fc378daa952ba7f163c4a11628f55a4df523b3ef908290a45050565b600160a060020a0383166000908152600a6020908152604080832080548251818502810185019093528083529192909190849084015b828210156135c557600084815260209081902060408051606081018252600386029092018054835260018082015484860152600290910154600160a060020a0316918301919091529083529092019101613570565b505050600160a060020a0386166000908152600a602052604081209293506135ee9291506138fb565b60005b815181101561376c578282828151811061360d5761360d6140d2565b602002602001015160000151146136ab57600160a060020a0385166000908152600a60205260409020825183908390811061364a5761364a6140d2565b6020908102919091018101518254600180820185556000948552938390208251600390920201908155918101519282019290925560409091015160029091018054600160a060020a031916600160a060020a0390921691909117905561375a565b838282815181106136be576136be6140d2565b602090810291909101810151600160a060020a039283166040918201529186166000908152600a9091522082518390839081106136fd576136fd6140d2565b6020908102919091018101518254600180820185556000948552938390208251600390920201908155918101519282019290925560409091015160029091018054600160a060020a031916600160a060020a039092169190911790555b8061376481614071565b9150506135f1565b50506000908152600b602052604090208054600160a060020a031916600160a060020a039290921691909117905550565b6040518060e0016040528060008152602001600081526020016000815260200160008152602001606081526020016000151581526020016000151581525090565b8280546137ea90614033565b90600052602060002090601f01602090048101928261380c5760008555613852565b82601f1061382557805160ff1916838001178555613852565b82800160010185558215613852579182015b82811115613852578251825591602001919060010190613837565b5061385e92915061391c565b5090565b82805461386e90614033565b90600052602060002090601f0160209004810192826138905760008555613852565b82601f106138a15780548555613852565b8280016001018555821561385257600052602060002091601f016020900482015b828111156138525782548255916001019190600101906138c2565b5080546000825590600052602060002090810190612acd919061391c565b5080546000825560030290600052602060002090810190612acd9190613931565b5b8082111561385e576000815560010161391d565b5b8082111561385e5760008082556001820155600281018054600160a060020a0319169055600301613932565b600067ffffffffffffffff80841115613979576139796140eb565b604051601f8501601f19908116603f011681019082821181831017156139a1576139a16140eb565b816040528093508581528686860111156139ba57600080fd5b858560208301376000602087830101525050509392505050565b8035600160a060020a03811681146139eb57600080fd5b919050565b803580151581146139eb57600080fd5b600082601f830112613a1157600080fd5b612f4a8383356020850161395e565b600060208284031215613a3257600080fd5b612f4a826139d4565b60008060408385031215613a4e57600080fd5b613a57836139d4565b9150613a65602084016139d4565b90509250929050565b600080600060608486031215613a8357600080fd5b613a8c846139d4565b9250613a9a602085016139d4565b9150604084013590509250925092565b60008060008060808587031215613ac057600080fd5b613ac9856139d4565b9350613ad7602086016139d4565b925060408501359150606085013567ffffffffffffffff811115613afa57600080fd5b8501601f81018713613b0b57600080fd5b613b1a8782356020840161395e565b91505092959194509250565b60008060408385031215613b3957600080fd5b613b42836139d4565b9150613a65602084016139f0565b60008060408385031215613b6357600080fd5b613b6c836139d4565b946020939093013593505050565b600060208284031215613b8c57600080fd5b8135612f4a81614104565b600060208284031215613ba957600080fd5b8151612f4a81614104565b60008060008060008060c08789031215613bcd57600080fd5b863567ffffffffffffffff811115613be457600080fd5b613bf089828a01613a00565b96505060208701359450604087013593506060870135925060808701359150613c1b60a088016139f0565b90509295509295509295565b600060208284031215613c3957600080fd5b5035919050565b60008060408385031215613c5357600080fd5b82359150602083013567ffffffffffffffff811115613c7157600080fd5b613c7d85828601613a00565b9150509250929050565b60008060408385031215613c9a57600080fd5b50508035926020909101359150565b600080600080600060a08688031215613cc157600080fd5b505083359560208501359550604085013594606081013594506080013592509050565b60008151808452613cfc816020860160208601613ff0565b601f01601f19169290920160200192915050565b805182526020810151602083015260408101516040830152606081015160608301526000608082015160e06080850152613d4d60e0850182613ce4565b905060a0830151151560a085015260c0830151151560c08501528091505092915050565b60008351613d83818460208801613ff0565b835190830190613d97818360208801613ff0565b01949350505050565b6000600160a060020a03808716835280861660208401525083604083015260806060830152613dd26080830184613ce4565b9695505050505050565b600060208083018184528085518083526040860191506040848202870101925083870160005b82811015613e3057603f19888603018452613e1e858351613d10565b94509285019290850190600101613e02565b5092979650505050505050565b602080825282518282018190526000919060409081850190868401855b82811015613e92578151805185528681015187860152850151600160a060020a03168585015260609093019290850190600101613e5a565b5091979650505050505050565b602081526000612f4a6020830184613ce4565b60208082526032908201527f4552433732313a207472616e7366657220746f206e6f6e20455243373231526560408201527f63656976657220696d706c656d656e7465720000000000000000000000000000606082015260800190565b6020808252818101527f4f776e61626c653a2063616c6c6572206973206e6f7420746865206f776e6572604082015260600190565b60208082526010908201527f496e636f727265637420616d6f756e7400000000000000000000000000000000604082015260600190565b602081526000612f4a6020830184613d10565b60008219821115613fa157613fa16140a0565b500190565b600082613fb557613fb56140b9565b500490565b6000816000190483118215151615613fd457613fd46140a0565b500290565b600082821015613feb57613feb6140a0565b500390565b60005b8381101561400b578181015183820152602001613ff3565b8381111561244f5750506000910152565b60008161402b5761402b6140a0565b506000190190565b60028104600182168061404757607f821691505b6020821081141561406b5760e060020a634e487b7102600052602260045260246000fd5b50919050565b6000600019821415614085576140856140a0565b5060010190565b60008261409b5761409b6140b9565b500690565b60e060020a634e487b7102600052601160045260246000fd5b60e060020a634e487b7102600052601260045260246000fd5b60e060020a634e487b7102600052603260045260246000fd5b60e060020a634e487b7102600052604160045260246000fd5b600160e060020a031981168114612acd57600080fdfea26469706673582212201bb3981511d9f11fc0f6392513fe53fe6abea8d000ce91644784fe9f4612d00a64736f6c63430008070033",
  "immutableReferences": {},
  "source": "// SPDX-License-Identifier: MIT\n\npragma solidity ^0.8.0;\nimport \"./Sell.sol\";\n\n/**\n* @title Base methode of lottery\n* @author Youness Chetoui\n*/\ncontract Lottery is Sell {\n    struct LotteryAvailable {\n        uint256 id;\n        uint256 id_politics;\n        uint256 end_time;\n        uint256 price;\n        uint256 nb_player;\n        uint256 ticket_available;\n        bool created;\n    }\n\n    mapping(uint256 => address[]) internal userPlayedLottery;\n    mapping(uint256 => LotteryAvailable) internal lotteryAvailable;\n\n    uint256[] public arrayLotteryAvailable;\n\n    /**\n    * @notice Create lottery\n    * @param _id, _id_politics, _end_time, _price, _ticket_available\n    */\n    function createLottery(\n        uint256 _id,\n        uint256 _id_politics,\n        uint256 _end_time,\n        uint256 _price,\n        uint256 _ticket_available\n    ) public onlyOwner {\n        require(politicsAvailable[_id_politics].lottery, \"Politic not available in lottery\");\n        require(!lotteryAvailable[_id].created, \"Lottery already exist\");\n        require(block.timestamp < _end_time, \"End time is in past\");\n        require(_price > 0, \"Price is 0\");\n        require(_ticket_available >= 50, \"Ticket availible under 50\");\n\n        LotteryAvailable memory lottery =\n            LotteryAvailable({id: _id, id_politics: _id_politics, end_time: _end_time, price: _price, ticket_available: _ticket_available, nb_player: 0, created: true});\n\n        arrayLotteryAvailable.push(lottery.id);\n        lotteryAvailable[_id] = lottery;\n    }\n\n    /**\n    * @notice Play lottery\n    * @param _id of lottery\n    */\n    function playLottery(uint256 _id) public payable {\n        require(msg.value == (lotteryAvailable[_id].price * 10**18) / 1000, \"Incorrect amount\");\n        require(lotteryAvailable[_id].created, \"Lottery not found\");\n        require(lotteryAvailable[_id].end_time > block.timestamp, \"Lottery not available\");\n        require(lotteryAvailable[_id].ticket_available > 0, \"No more ticket available\");\n\n        address[] memory users = userPlayedLottery[_id];\n        for (uint i = 0; i < users.length; i++) {\n            require(users[i] != msg.sender, \"Only one ticket by address\");\n        }\n\n        ownerAddress.transfer(msg.value);\n        userPlayedLottery[_id].push(msg.sender);\n        lotteryAvailable[_id].nb_player++;\n        lotteryAvailable[_id].ticket_available--;\n    }\n\n    /**\n    * @notice End lottery\n    * @param _id of lottery\n    */\n    function onEndLottery(uint256 _id) public onlyOwner {\n        require(lotteryAvailable[_id].created, \"Lottery not available\");\n        require(block.timestamp > lotteryAvailable[_id].end_time, \"Lottery not finished\");\n\n        uint256 id_politics = lotteryAvailable[_id].id_politics;\n        uint256 randomIndex = uint256(keccak256(abi.encodePacked(block.timestamp, _id, id_politics))) % userPlayedLottery[_id].length;\n        address winner = userPlayedLottery[_id][randomIndex];\n\n        PoliticsAvailable memory politic;\n\n        for (uint i = 0; i < politics.length; i++) {\n            if (politics[i].id == id_politics) {\n                politic = politics[i];\n                politics[i].qty--;\n                politicsAvailable[id_politics] = politics[i];\n            }\n        }\n\n        uint256 id = uint256(keccak256(abi.encodePacked(tokenCounter, winner))) % 10000000000;\n        tokenCounter++;\n\n        _safeMint(winner, id);\n\n        PoliticsOwned memory politicOwned =\n            PoliticsOwned({id: id, id_politic: id_politics, owner: winner});\n\n        userOwnedPolitics[winner].push(politicOwned);\n        politicToUser[id] = winner;\n\n        delete lotteryAvailable[_id];\n        delete userPlayedLottery[_id];\n    }\n\n}\n",
  "sourcePath": "/home/youness/Crypto/PoliticsCollectible/contracts/Lottery.sol",
  "compiler": {
    "name": "solc",
    "version": "0.8.7+commit.e28d00a7.Emscripten.clang"
  },
  "schemaVersion": "3.4.3",
  "updatedAt": "2021-09-02T13:41:26.718Z",
  "devdoc": {
    "author": "Youness Chetoui",
    "kind": "dev",
    "methods": {
      "addQty(uint256,uint256)": {
        "params": {
          "_id": "of PoliticsAvailable and _qty wished"
        }
      },
      "approve(address,uint256)": {
        "details": "See {IERC721-approve}."
      },
      "balanceOf(address)": {
        "details": "See {IERC721-balanceOf}."
      },
      "buy(uint256,string)": {
        "params": {
          "_id": ", _tokenUri of politician available"
        }
      },
      "buyPoliticsForSale(uint256)": {
        "params": {
          "_tokenId": "of politician for sale"
        }
      },
      "cancelSell(uint256)": {
        "params": {
          "_tokenId": "of politician for sale"
        }
      },
      "create(string,uint256,uint256,uint256,uint256,bool)": {
        "params": {
          "_name": ", _id, _qty, _level, _price and _lottery of politician available"
        },
        "returns": {
          "_0": "PoliticsAvailable created"
        }
      },
      "createLottery(uint256,uint256,uint256,uint256,uint256)": {
        "params": {
          "_id": ", _id_politics, _end_time, _price, _ticket_available"
        }
      },
      "forSale(uint256,uint256)": {
        "params": {
          "_tokenId": "of politician owned and _price wished"
        }
      },
      "getApproved(uint256)": {
        "details": "See {IERC721-getApproved}."
      },
      "getMyPolitics()": {
        "returns": {
          "_0": "array of struct PoliticsOwned"
        }
      },
      "getPolitics()": {
        "returns": {
          "_0": "Array of struct PoliticsAvailable"
        }
      },
      "isApprovedForAll(address,address)": {
        "details": "See {IERC721-isApprovedForAll}."
      },
      "name()": {
        "details": "See {IERC721Metadata-name}."
      },
      "onERC721Received(address,address,uint256,bytes)": {
        "details": "See {IERC721Receiver-onERC721Received}. Always returns `IERC721Receiver.onERC721Received.selector`."
      },
      "onEndLottery(uint256)": {
        "params": {
          "_id": "of lottery"
        }
      },
      "owner()": {
        "details": "Returns the address of the current owner."
      },
      "ownerOf(uint256)": {
        "details": "See {IERC721-ownerOf}."
      },
      "playLottery(uint256)": {
        "params": {
          "_id": "of lottery"
        }
      },
      "renounceOwnership()": {
        "details": "Leaves the contract without owner. It will not be possible to call `onlyOwner` functions anymore. Can only be called by the current owner. NOTE: Renouncing ownership will leave the contract without an owner, thereby removing any functionality that is only available to the owner."
      },
      "safeTransferFrom(address,address,uint256)": {
        "details": "See {IERC721-safeTransferFrom}."
      },
      "safeTransferFrom(address,address,uint256,bytes)": {
        "details": "See {IERC721-safeTransferFrom}."
      },
      "setApprovalForAll(address,bool)": {
        "details": "See {IERC721-setApprovalForAll}."
      },
      "supportsInterface(bytes4)": {
        "details": "See {IERC165-supportsInterface}."
      },
      "symbol()": {
        "details": "See {IERC721Metadata-symbol}."
      },
      "tokenURI(uint256)": {
        "details": "See {IERC721Metadata-tokenURI}."
      },
      "transferOwnership(address)": {
        "details": "Transfers ownership of the contract to a new account (`newOwner`). Can only be called by the current owner."
      }
    },
    "title": "Base methode of lottery",
    "version": 1
  },
  "userdoc": {
    "kind": "user",
    "methods": {
      "addQty(uint256,uint256)": {
        "notice": "Add quantity for a PoliticsAvailable"
      },
      "buy(uint256,string)": {
        "notice": "Buy politician"
      },
      "buyPoliticsForSale(uint256)": {
        "notice": "Buy politician"
      },
      "cancelSell(uint256)": {
        "notice": "Cancel the sell of politician"
      },
      "create(string,uint256,uint256,uint256,uint256,bool)": {
        "notice": "Create politician"
      },
      "createLottery(uint256,uint256,uint256,uint256,uint256)": {
        "notice": "Create lottery"
      },
      "forSale(uint256,uint256)": {
        "notice": "Up for sale of owned politician"
      },
      "getMyPolitics()": {
        "notice": "Get politician by user"
      },
      "getPolitics()": {
        "notice": "get list of all politician available"
      },
      "onEndLottery(uint256)": {
        "notice": "End lottery"
      },
      "playLottery(uint256)": {
        "notice": "Play lottery"
      },
      "transferFrom(address,address,uint256)": {
        "notice": "Disabled not safe transform"
      }
    },
    "version": 1
  }
}