{
  "contractName": "Lottery",
  "abi": [
    {
      "anonymous": false,
      "inputs": [
        {
          "indexed": true,
          "internalType": "address",
          "name": "owner",
          "type": "address"
        },
        {
          "indexed": true,
          "internalType": "address",
          "name": "approved",
          "type": "address"
        },
        {
          "indexed": true,
          "internalType": "uint256",
          "name": "tokenId",
          "type": "uint256"
        }
      ],
      "name": "Approval",
      "type": "event"
    },
    {
      "anonymous": false,
      "inputs": [
        {
          "indexed": true,
          "internalType": "address",
          "name": "owner",
          "type": "address"
        },
        {
          "indexed": true,
          "internalType": "address",
          "name": "operator",
          "type": "address"
        },
        {
          "indexed": false,
          "internalType": "bool",
          "name": "approved",
          "type": "bool"
        }
      ],
      "name": "ApprovalForAll",
      "type": "event"
    },
    {
      "anonymous": false,
      "inputs": [
        {
          "indexed": true,
          "internalType": "address",
          "name": "previousOwner",
          "type": "address"
        },
        {
          "indexed": true,
          "internalType": "address",
          "name": "newOwner",
          "type": "address"
        }
      ],
      "name": "OwnershipTransferred",
      "type": "event"
    },
    {
      "anonymous": false,
      "inputs": [
        {
          "indexed": true,
          "internalType": "address",
          "name": "from",
          "type": "address"
        },
        {
          "indexed": true,
          "internalType": "address",
          "name": "to",
          "type": "address"
        },
        {
          "indexed": true,
          "internalType": "uint256",
          "name": "tokenId",
          "type": "uint256"
        }
      ],
      "name": "Transfer",
      "type": "event"
    },
    {
      "inputs": [
        {
          "internalType": "uint256",
          "name": "_id",
          "type": "uint256"
        },
        {
          "internalType": "uint256",
          "name": "_qty",
          "type": "uint256"
        }
      ],
      "name": "addQty",
      "outputs": [],
      "stateMutability": "nonpayable",
      "type": "function"
    },
    {
      "inputs": [
        {
          "internalType": "address",
          "name": "to",
          "type": "address"
        },
        {
          "internalType": "uint256",
          "name": "tokenId",
          "type": "uint256"
        }
      ],
      "name": "approve",
      "outputs": [],
      "stateMutability": "nonpayable",
      "type": "function"
    },
    {
      "inputs": [
        {
          "internalType": "uint256",
          "name": "",
          "type": "uint256"
        }
      ],
      "name": "arrayPoliticiansOnSale",
      "outputs": [
        {
          "internalType": "uint256",
          "name": "",
          "type": "uint256"
        }
      ],
      "stateMutability": "view",
      "type": "function"
    },
    {
      "inputs": [
        {
          "internalType": "address",
          "name": "owner",
          "type": "address"
        }
      ],
      "name": "balanceOf",
      "outputs": [
        {
          "internalType": "uint256",
          "name": "",
          "type": "uint256"
        }
      ],
      "stateMutability": "view",
      "type": "function"
    },
    {
      "inputs": [
        {
          "internalType": "uint256",
          "name": "_id",
          "type": "uint256"
        }
      ],
      "name": "buy",
      "outputs": [],
      "stateMutability": "payable",
      "type": "function"
    },
    {
      "inputs": [
        {
          "internalType": "uint256",
          "name": "_tokenId",
          "type": "uint256"
        }
      ],
      "name": "buyPoliticsForSale",
      "outputs": [],
      "stateMutability": "payable",
      "type": "function"
    },
    {
      "inputs": [
        {
          "internalType": "uint256",
          "name": "_tokenId",
          "type": "uint256"
        }
      ],
      "name": "cancelSell",
      "outputs": [],
      "stateMutability": "nonpayable",
      "type": "function"
    },
    {
      "inputs": [],
      "name": "contractAddress",
      "outputs": [
        {
          "internalType": "address payable",
          "name": "",
          "type": "address"
        }
      ],
      "stateMutability": "view",
      "type": "function"
    },
    {
      "inputs": [
        {
          "internalType": "string",
          "name": "_name",
          "type": "string"
        },
        {
          "internalType": "uint256",
          "name": "_id",
          "type": "uint256"
        },
        {
          "internalType": "uint256",
          "name": "_qty",
          "type": "uint256"
        },
        {
          "internalType": "uint256",
          "name": "_level",
          "type": "uint256"
        },
        {
          "internalType": "uint256",
          "name": "_price",
          "type": "uint256"
        },
        {
          "internalType": "bool",
          "name": "_lottery",
          "type": "bool"
        }
      ],
      "name": "create",
      "outputs": [
        {
          "components": [
            {
              "internalType": "uint256",
              "name": "id",
              "type": "uint256"
            },
            {
              "internalType": "uint256",
              "name": "qty",
              "type": "uint256"
            },
            {
              "internalType": "uint256",
              "name": "level",
              "type": "uint256"
            },
            {
              "internalType": "uint256",
              "name": "price",
              "type": "uint256"
            },
            {
              "internalType": "string",
              "name": "name",
              "type": "string"
            },
            {
              "internalType": "bool",
              "name": "lottery",
              "type": "bool"
            },
            {
              "internalType": "bool",
              "name": "created",
              "type": "bool"
            }
          ],
          "internalType": "struct Collectible.PoliticsAvailable",
          "name": "",
          "type": "tuple"
        }
      ],
      "stateMutability": "nonpayable",
      "type": "function"
    },
    {
      "inputs": [
        {
          "internalType": "uint256",
          "name": "_tokenId",
          "type": "uint256"
        },
        {
          "internalType": "uint256",
          "name": "_price",
          "type": "uint256"
        }
      ],
      "name": "forSale",
      "outputs": [],
      "stateMutability": "nonpayable",
      "type": "function"
    },
    {
      "inputs": [
        {
          "internalType": "uint256",
          "name": "tokenId",
          "type": "uint256"
        }
      ],
      "name": "getApproved",
      "outputs": [
        {
          "internalType": "address",
          "name": "",
          "type": "address"
        }
      ],
      "stateMutability": "view",
      "type": "function"
    },
    {
      "inputs": [],
      "name": "getMyPolitics",
      "outputs": [
        {
          "components": [
            {
              "internalType": "uint256",
              "name": "id",
              "type": "uint256"
            },
            {
              "internalType": "uint256",
              "name": "id_politic",
              "type": "uint256"
            },
            {
              "internalType": "address",
              "name": "owner",
              "type": "address"
            }
          ],
          "internalType": "struct Collectible.PoliticsOwned[]",
          "name": "",
          "type": "tuple[]"
        }
      ],
      "stateMutability": "view",
      "type": "function"
    },
    {
      "inputs": [
        {
          "internalType": "uint256",
          "name": "_id",
          "type": "uint256"
        }
      ],
      "name": "getPolitic",
      "outputs": [
        {
          "components": [
            {
              "internalType": "uint256",
              "name": "id",
              "type": "uint256"
            },
            {
              "internalType": "uint256",
              "name": "qty",
              "type": "uint256"
            },
            {
              "internalType": "uint256",
              "name": "level",
              "type": "uint256"
            },
            {
              "internalType": "uint256",
              "name": "price",
              "type": "uint256"
            },
            {
              "internalType": "string",
              "name": "name",
              "type": "string"
            },
            {
              "internalType": "bool",
              "name": "lottery",
              "type": "bool"
            },
            {
              "internalType": "bool",
              "name": "created",
              "type": "bool"
            }
          ],
          "internalType": "struct Collectible.PoliticsAvailable",
          "name": "",
          "type": "tuple"
        }
      ],
      "stateMutability": "view",
      "type": "function"
    },
    {
      "inputs": [],
      "name": "getPolitics",
      "outputs": [
        {
          "components": [
            {
              "internalType": "uint256",
              "name": "id",
              "type": "uint256"
            },
            {
              "internalType": "uint256",
              "name": "qty",
              "type": "uint256"
            },
            {
              "internalType": "uint256",
              "name": "level",
              "type": "uint256"
            },
            {
              "internalType": "uint256",
              "name": "price",
              "type": "uint256"
            },
            {
              "internalType": "string",
              "name": "name",
              "type": "string"
            },
            {
              "internalType": "bool",
              "name": "lottery",
              "type": "bool"
            },
            {
              "internalType": "bool",
              "name": "created",
              "type": "bool"
            }
          ],
          "internalType": "struct Collectible.PoliticsAvailable[]",
          "name": "",
          "type": "tuple[]"
        }
      ],
      "stateMutability": "view",
      "type": "function"
    },
    {
      "inputs": [
        {
          "internalType": "address",
          "name": "owner",
          "type": "address"
        },
        {
          "internalType": "address",
          "name": "operator",
          "type": "address"
        }
      ],
      "name": "isApprovedForAll",
      "outputs": [
        {
          "internalType": "bool",
          "name": "",
          "type": "bool"
        }
      ],
      "stateMutability": "view",
      "type": "function"
    },
    {
      "inputs": [],
      "name": "name",
      "outputs": [
        {
          "internalType": "string",
          "name": "",
          "type": "string"
        }
      ],
      "stateMutability": "view",
      "type": "function"
    },
    {
      "inputs": [
        {
          "internalType": "address",
          "name": "",
          "type": "address"
        },
        {
          "internalType": "address",
          "name": "",
          "type": "address"
        },
        {
          "internalType": "uint256",
          "name": "",
          "type": "uint256"
        },
        {
          "internalType": "bytes",
          "name": "",
          "type": "bytes"
        }
      ],
      "name": "onERC721Received",
      "outputs": [
        {
          "internalType": "bytes4",
          "name": "",
          "type": "bytes4"
        }
      ],
      "stateMutability": "nonpayable",
      "type": "function"
    },
    {
      "inputs": [],
      "name": "owner",
      "outputs": [
        {
          "internalType": "address",
          "name": "",
          "type": "address"
        }
      ],
      "stateMutability": "view",
      "type": "function"
    },
    {
      "inputs": [],
      "name": "ownerAddress",
      "outputs": [
        {
          "internalType": "address payable",
          "name": "",
          "type": "address"
        }
      ],
      "stateMutability": "view",
      "type": "function"
    },
    {
      "inputs": [
        {
          "internalType": "uint256",
          "name": "tokenId",
          "type": "uint256"
        }
      ],
      "name": "ownerOf",
      "outputs": [
        {
          "internalType": "address",
          "name": "",
          "type": "address"
        }
      ],
      "stateMutability": "view",
      "type": "function"
    },
    {
      "inputs": [],
      "name": "renounceOwnership",
      "outputs": [],
      "stateMutability": "nonpayable",
      "type": "function"
    },
    {
      "inputs": [
        {
          "internalType": "address",
          "name": "from",
          "type": "address"
        },
        {
          "internalType": "address",
          "name": "to",
          "type": "address"
        },
        {
          "internalType": "uint256",
          "name": "tokenId",
          "type": "uint256"
        }
      ],
      "name": "safeTransferFrom",
      "outputs": [],
      "stateMutability": "nonpayable",
      "type": "function"
    },
    {
      "inputs": [
        {
          "internalType": "address",
          "name": "from",
          "type": "address"
        },
        {
          "internalType": "address",
          "name": "to",
          "type": "address"
        },
        {
          "internalType": "uint256",
          "name": "tokenId",
          "type": "uint256"
        },
        {
          "internalType": "bytes",
          "name": "_data",
          "type": "bytes"
        }
      ],
      "name": "safeTransferFrom",
      "outputs": [],
      "stateMutability": "nonpayable",
      "type": "function"
    },
    {
      "inputs": [
        {
          "internalType": "address",
          "name": "operator",
          "type": "address"
        },
        {
          "internalType": "bool",
          "name": "approved",
          "type": "bool"
        }
      ],
      "name": "setApprovalForAll",
      "outputs": [],
      "stateMutability": "nonpayable",
      "type": "function"
    },
    {
      "inputs": [
        {
          "internalType": "bytes4",
          "name": "interfaceId",
          "type": "bytes4"
        }
      ],
      "name": "supportsInterface",
      "outputs": [
        {
          "internalType": "bool",
          "name": "",
          "type": "bool"
        }
      ],
      "stateMutability": "view",
      "type": "function"
    },
    {
      "inputs": [],
      "name": "symbol",
      "outputs": [
        {
          "internalType": "string",
          "name": "",
          "type": "string"
        }
      ],
      "stateMutability": "view",
      "type": "function"
    },
    {
      "inputs": [
        {
          "internalType": "uint256",
          "name": "tokenId",
          "type": "uint256"
        }
      ],
      "name": "tokenURI",
      "outputs": [
        {
          "internalType": "string",
          "name": "",
          "type": "string"
        }
      ],
      "stateMutability": "view",
      "type": "function"
    },
    {
      "inputs": [
        {
          "internalType": "address",
          "name": "from",
          "type": "address"
        },
        {
          "internalType": "address",
          "name": "to",
          "type": "address"
        },
        {
          "internalType": "uint256",
          "name": "tokenId",
          "type": "uint256"
        }
      ],
      "name": "transferFrom",
      "outputs": [],
      "stateMutability": "nonpayable",
      "type": "function"
    },
    {
      "inputs": [
        {
          "internalType": "address",
          "name": "newOwner",
          "type": "address"
        }
      ],
      "name": "transferOwnership",
      "outputs": [],
      "stateMutability": "nonpayable",
      "type": "function"
    }
  ],
  "bytecode": "0x60806040526001600d5560056010553480156200001b57600080fd5b506040518060400160405280600b81526020017f506f6c69746963734e66740000000000000000000000000000000000000000008152506040518060400160405280600381526020017f504f4c00000000000000000000000000000000000000000000000000000000008152508160009080519060200190620000a092919062000232565b508060019080519060200190620000b992919062000232565b505050620000dc620000d06200016460201b60201c565b6200016c60201b60201c565b33600b60006101000a81548173ffffffffffffffffffffffffffffffffffffffff021916908373ffffffffffffffffffffffffffffffffffffffff16021790555030600c60006101000a81548173ffffffffffffffffffffffffffffffffffffffff021916908373ffffffffffffffffffffffffffffffffffffffff16021790555062000347565b600033905090565b6000600660009054906101000a900473ffffffffffffffffffffffffffffffffffffffff16905081600660006101000a81548173ffffffffffffffffffffffffffffffffffffffff021916908373ffffffffffffffffffffffffffffffffffffffff1602179055508173ffffffffffffffffffffffffffffffffffffffff168173ffffffffffffffffffffffffffffffffffffffff167f8be0079c531659141344cd1fd0a4f28419497f9722a3daafe3b4186f6b6457e060405160405180910390a35050565b8280546200024090620002e2565b90600052602060002090601f016020900481019282620002645760008555620002b0565b82601f106200027f57805160ff1916838001178555620002b0565b82800160010185558215620002b0579182015b82811115620002af57825182559160200191906001019062000292565b5b509050620002bf9190620002c3565b5090565b5b80821115620002de576000816000905550600101620002c4565b5090565b60006002820490506001821680620002fb57607f821691505b6020821081141562000312576200031162000318565b5b50919050565b7f4e487b7100000000000000000000000000000000000000000000000000000000600052602260045260246000fd5b615c5c80620003576000396000f3fe6080604052600436106101c25760003560e01c806370a08231116100f7578063a22cb46511610095578063d96a094a11610064578063d96a094a14610669578063e985e9c514610685578063f2fde38b146106c2578063f6b4dfb4146106eb576101c2565b8063a22cb465146105b1578063b88d4fde146105da578063b9db1c9814610603578063c87b56dd1461062c576101c2565b80638da5cb5b116100d15780638da5cb5b146104f35780638f84aa091461051e5780638fedc8641461054957806395d89b4114610586576101c2565b806370a0823114610474578063715018a6146104b157806385d33436146104c8576101c2565b806323b872dd11610164578063546f9e671161013e578063546f9e67146103b557806354b3efa6146103d15780635ad16b7f146103fa5780636352211e14610437576101c2565b806323b872dd1461033857806330f105cd1461036157806342842e0e1461038c576101c2565b8063081812fc116101a0578063081812fc14610258578063095ea7b31461029557806311143277146102be578063150b7a02146102fb576101c2565b806301ffc9a7146101c757806306fdde031461020457806307c9cd451461022f575b600080fd5b3480156101d357600080fd5b506101ee60048036038101906101e991906141f6565b610716565b6040516101fb9190614c28565b60405180910390f35b34801561021057600080fd5b506102196107f8565b6040516102269190614c5e565b60405180910390f35b34801561023b57600080fd5b50610256600480360381019061025191906142f9565b61088a565b005b34801561026457600080fd5b5061027f600480360381019061027a91906142f9565b610a52565b60405161028c9190614b2b565b60405180910390f35b3480156102a157600080fd5b506102bc60048036038101906102b791906141b6565b610ad7565b005b3480156102ca57600080fd5b506102e560048036038101906102e09190614250565b610bef565b6040516102f29190614fa0565b60405180910390f35b34801561030757600080fd5b50610322600480360381019061031d91906140f3565b610e70565b60405161032f9190614c43565b60405180910390f35b34801561034457600080fd5b5061035f600480360381019061035a91906140a0565b610e84565b005b34801561036d57600080fd5b50610376610f05565b6040516103839190614be4565b60405180910390f35b34801561039857600080fd5b506103b360048036038101906103ae91906140a0565b6110d0565b005b6103cf60048036038101906103ca91906142f9565b6110f0565b005b3480156103dd57600080fd5b506103f860048036038101906103f39190614326565b6114aa565b005b34801561040657600080fd5b50610421600480360381019061041c91906142f9565b61167c565b60405161042e9190614fa0565b60405180910390f35b34801561044357600080fd5b5061045e600480360381019061045991906142f9565b611878565b60405161046b9190614b2b565b60405180910390f35b34801561048057600080fd5b5061049b60048036038101906104969190614033565b61192a565b6040516104a89190614fc2565b60405180910390f35b3480156104bd57600080fd5b506104c66119e2565b005b3480156104d457600080fd5b506104dd611a6a565b6040516104ea9190614c06565b60405180910390f35b3480156104ff57600080fd5b50610508611b70565b6040516105159190614b2b565b60405180910390f35b34801561052a57600080fd5b50610533611b9a565b6040516105409190614b46565b60405180910390f35b34801561055557600080fd5b50610570600480360381019061056b91906142f9565b611bc0565b60405161057d9190614fc2565b60405180910390f35b34801561059257600080fd5b5061059b611be4565b6040516105a89190614c5e565b60405180910390f35b3480156105bd57600080fd5b506105d860048036038101906105d39190614176565b611c76565b005b3480156105e657600080fd5b5061060160048036038101906105fc91906140f3565b611df7565b005b34801561060f57600080fd5b5061062a60048036038101906106259190614326565b612257565b005b34801561063857600080fd5b50610653600480360381019061064e91906142f9565b61245d565b6040516106609190614c5e565b60405180910390f35b610683600480360381019061067e91906142f9565b612504565b005b34801561069157600080fd5b506106ac60048036038101906106a79190614060565b612b4e565b6040516106b99190614c28565b60405180910390f35b3480156106ce57600080fd5b506106e960048036038101906106e49190614033565b612be2565b005b3480156106f757600080fd5b50610700612cda565b60405161070d9190614b46565b60405180910390f35b60007f80ac58cd000000000000000000000000000000000000000000000000000000007bffffffffffffffffffffffffffffffffffffffffffffffffffffffff1916827bffffffffffffffffffffffffffffffffffffffffffffffffffffffff191614806107e157507f5b5e139f000000000000000000000000000000000000000000000000000000007bffffffffffffffffffffffffffffffffffffffffffffffffffffffff1916827bffffffffffffffffffffffffffffffffffffffffffffffffffffffff1916145b806107f157506107f082612d00565b5b9050919050565b60606000805461080790615367565b80601f016020809104026020016040519081016040528092919081815260200182805461083390615367565b80156108805780601f1061085557610100808354040283529160200191610880565b820191906000526020600020905b81548152906001019060200180831161086357829003601f168201915b5050505050905090565b600e600082815260200190815260200160002060020160009054906101000a900473ffffffffffffffffffffffffffffffffffffffff1673ffffffffffffffffffffffffffffffffffffffff163373ffffffffffffffffffffffffffffffffffffffff161461092e576040517f08c379a000000000000000000000000000000000000000000000000000000000815260040161092590614f60565b60405180910390fd5b3073ffffffffffffffffffffffffffffffffffffffff166342842e0e600c60009054906101000a900473ffffffffffffffffffffffffffffffffffffffff1633846040518463ffffffff1660e01b815260040161098d93929190614b61565b600060405180830381600087803b1580156109a757600080fd5b505af11580156109bb573d6000803e3d6000fd5b505050506109ee600c60009054906101000a900473ffffffffffffffffffffffffffffffffffffffff1633836001612d6a565b600e600082815260200190815260200160002060008082016000905560018201600090556002820160006101000a81549073ffffffffffffffffffffffffffffffffffffffff02191690556002820160146101000a81549060ff0219169055505050565b6000610a5d82613210565b610a9c576040517f08c379a0000000000000000000000000000000000000000000000000000000008152600401610a9390614e00565b60405180910390fd5b6004600083815260200190815260200160002060009054906101000a900473ffffffffffffffffffffffffffffffffffffffff169050919050565b6000610ae282611878565b90508073ffffffffffffffffffffffffffffffffffffffff168373ffffffffffffffffffffffffffffffffffffffff161415610b53576040517f08c379a0000000000000000000000000000000000000000000000000000000008152600401610b4a90614ea0565b60405180910390fd5b8073ffffffffffffffffffffffffffffffffffffffff16610b7261327c565b73ffffffffffffffffffffffffffffffffffffffff161480610ba15750610ba081610b9b61327c565b612b4e565b5b610be0576040517f08c379a0000000000000000000000000000000000000000000000000000000008152600401610bd790614d80565b60405180910390fd5b610bea8383613284565b505050565b610bf7613d07565b610bff61327c565b73ffffffffffffffffffffffffffffffffffffffff16610c1d611b70565b73ffffffffffffffffffffffffffffffffffffffff1614610c73576040517f08c379a0000000000000000000000000000000000000000000000000000000008152600401610c6a90614e20565b60405180910390fd5b6008600087815260200190815260200160002060050160019054906101000a900460ff1615610cd7576040517f08c379a0000000000000000000000000000000000000000000000000000000008152600401610cce90614f20565b60405180910390fd5b60006040518060e0016040528088815260200187815260200186815260200185815260200189815260200184151581526020016001151581525090506007819080600181540180825580915050600190039060005260206000209060060201600090919091909150600082015181600001556020820151816001015560408201518160020155606082015181600301556080820151816004019080519060200190610d83929190613d48565b5060a08201518160050160006101000a81548160ff02191690831515021790555060c08201518160050160016101000a81548160ff02191690831515021790555050508060086000898152602001908152602001600020600082015181600001556020820151816001015560408201518160020155606082015181600301556080820151816004019080519060200190610e1e929190613d48565b5060a08201518160050160006101000a81548160ff02191690831515021790555060c08201518160050160016101000a81548160ff021916908315150217905550905050809150509695505050505050565b600063150b7a0260e01b9050949350505050565b610e8c61327c565b73ffffffffffffffffffffffffffffffffffffffff16610eaa611b70565b73ffffffffffffffffffffffffffffffffffffffff1614610f00576040517f08c379a0000000000000000000000000000000000000000000000000000000008152600401610ef790614e20565b60405180910390fd5b505050565b6060610f0f61327c565b73ffffffffffffffffffffffffffffffffffffffff16610f2d611b70565b73ffffffffffffffffffffffffffffffffffffffff1614610f83576040517f08c379a0000000000000000000000000000000000000000000000000000000008152600401610f7a90614e20565b60405180910390fd5b6007805480602002602001604051908101604052809291908181526020016000905b828210156110c757838290600052602060002090600602016040518060e00160405290816000820154815260200160018201548152602001600282015481526020016003820154815260200160048201805461100090615367565b80601f016020809104026020016040519081016040528092919081815260200182805461102c90615367565b80156110795780601f1061104e57610100808354040283529160200191611079565b820191906000526020600020905b81548152906001019060200180831161105c57829003601f168201915b505050505081526020016005820160009054906101000a900460ff161515151581526020016005820160019054906101000a900460ff16151515158152505081526020019060010190610fa5565b50505050905090565b6110eb83838360405180602001604052806000815250611df7565b505050565b600e600082815260200190815260200160002060020160149054906101000a900460ff16611153576040517f08c379a000000000000000000000000000000000000000000000000000000000815260040161114a90614e80565b60405180910390fd5b600e600082815260200190815260200160002060020160009054906101000a900473ffffffffffffffffffffffffffffffffffffffff1673ffffffffffffffffffffffffffffffffffffffff163373ffffffffffffffffffffffffffffffffffffffff1614156111f8576040517f08c379a00000000000000000000000000000000000000000000000000000000081526004016111ef90614ee0565b60405180910390fd5b6103e8670de0b6b3a7640000600e60008481526020019081526020016000206001015461122591906151b1565b61122f9190615180565b3414611270576040517f08c379a000000000000000000000000000000000000000000000000000000000815260040161126790614f80565b60405180910390fd5b600060646010543461128291906151b1565b61128c9190615180565b90506000813461129c919061520b565b9050600b60009054906101000a900473ffffffffffffffffffffffffffffffffffffffff1673ffffffffffffffffffffffffffffffffffffffff166108fc839081150290604051600060405180830381858888f19350505050158015611306573d6000803e3d6000fd5b50600e600084815260200190815260200160002060020160009054906101000a900473ffffffffffffffffffffffffffffffffffffffff1673ffffffffffffffffffffffffffffffffffffffff166108fc829081150290604051600060405180830381858888f19350505050158015611383573d6000803e3d6000fd5b503073ffffffffffffffffffffffffffffffffffffffff166342842e0e600c60009054906101000a900473ffffffffffffffffffffffffffffffffffffffff1633866040518463ffffffff1660e01b81526004016113e393929190614b61565b600060405180830381600087803b1580156113fd57600080fd5b505af1158015611411573d6000803e3d6000fd5b50505050600e600084815260200190815260200160002060008082016000905560018201600090556002820160006101000a81549073ffffffffffffffffffffffffffffffffffffffff02191690556002820160146101000a81549060ff021916905550506114a5600c60009054906101000a900473ffffffffffffffffffffffffffffffffffffffff1633856001612d6a565b505050565b3373ffffffffffffffffffffffffffffffffffffffff16600a600084815260200190815260200160002060009054906101000a900473ffffffffffffffffffffffffffffffffffffffff1673ffffffffffffffffffffffffffffffffffffffff161461154b576040517f08c379a000000000000000000000000000000000000000000000000000000000815260040161154290614ec0565b60405180910390fd5b61157833600c60009054906101000a900473ffffffffffffffffffffffffffffffffffffffff16846110d0565b600060405180608001604052808481526020018381526020013373ffffffffffffffffffffffffffffffffffffffff16815260200160011515815250905080600e6000858152602001908152602001600020600082015181600001556020820151816001015560408201518160020160006101000a81548173ffffffffffffffffffffffffffffffffffffffff021916908373ffffffffffffffffffffffffffffffffffffffff16021790555060608201518160020160146101000a81548160ff02191690831515021790555090505061167733600c60009054906101000a900473ffffffffffffffffffffffffffffffffffffffff16856000612d6a565b505050565b611684613d07565b61168c61327c565b73ffffffffffffffffffffffffffffffffffffffff166116aa611b70565b73ffffffffffffffffffffffffffffffffffffffff1614611700576040517f08c379a00000000000000000000000000000000000000000000000000000000081526004016116f790614e20565b60405180910390fd5b6008600083815260200190815260200160002060050160019054906101000a900460ff16611763576040517f08c379a000000000000000000000000000000000000000000000000000000000815260040161175a90614f40565b60405180910390fd5b600860008381526020019081526020016000206040518060e0016040529081600082015481526020016001820154815260200160028201548152602001600382015481526020016004820180546117b990615367565b80601f01602080910402602001604051908101604052809291908181526020018280546117e590615367565b80156118325780601f1061180757610100808354040283529160200191611832565b820191906000526020600020905b81548152906001019060200180831161181557829003601f168201915b505050505081526020016005820160009054906101000a900460ff161515151581526020016005820160019054906101000a900460ff1615151515815250509050919050565b6000806002600084815260200190815260200160002060009054906101000a900473ffffffffffffffffffffffffffffffffffffffff169050600073ffffffffffffffffffffffffffffffffffffffff168173ffffffffffffffffffffffffffffffffffffffff161415611921576040517f08c379a000000000000000000000000000000000000000000000000000000000815260040161191890614dc0565b60405180910390fd5b80915050919050565b60008073ffffffffffffffffffffffffffffffffffffffff168273ffffffffffffffffffffffffffffffffffffffff16141561199b576040517f08c379a000000000000000000000000000000000000000000000000000000000815260040161199290614da0565b60405180910390fd5b600360008373ffffffffffffffffffffffffffffffffffffffff1673ffffffffffffffffffffffffffffffffffffffff168152602001908152602001600020549050919050565b6119ea61327c565b73ffffffffffffffffffffffffffffffffffffffff16611a08611b70565b73ffffffffffffffffffffffffffffffffffffffff1614611a5e576040517f08c379a0000000000000000000000000000000000000000000000000000000008152600401611a5590614e20565b60405180910390fd5b611a68600061333d565b565b6060600960003373ffffffffffffffffffffffffffffffffffffffff1673ffffffffffffffffffffffffffffffffffffffff168152602001908152602001600020805480602002602001604051908101604052809291908181526020016000905b82821015611b67578382906000526020600020906003020160405180606001604052908160008201548152602001600182015481526020016002820160009054906101000a900473ffffffffffffffffffffffffffffffffffffffff1673ffffffffffffffffffffffffffffffffffffffff1673ffffffffffffffffffffffffffffffffffffffff168152505081526020019060010190611acb565b50505050905090565b6000600660009054906101000a900473ffffffffffffffffffffffffffffffffffffffff16905090565b600b60009054906101000a900473ffffffffffffffffffffffffffffffffffffffff1681565b600f8181548110611bd057600080fd5b906000526020600020016000915090505481565b606060018054611bf390615367565b80601f0160208091040260200160405190810160405280929190818152602001828054611c1f90615367565b8015611c6c5780601f10611c4157610100808354040283529160200191611c6c565b820191906000526020600020905b815481529060010190602001808311611c4f57829003601f168201915b5050505050905090565b611c7e61327c565b73ffffffffffffffffffffffffffffffffffffffff168273ffffffffffffffffffffffffffffffffffffffff161415611cec576040517f08c379a0000000000000000000000000000000000000000000000000000000008152600401611ce390614d20565b60405180910390fd5b8060056000611cf961327c565b73ffffffffffffffffffffffffffffffffffffffff1673ffffffffffffffffffffffffffffffffffffffff16815260200190815260200160002060008473ffffffffffffffffffffffffffffffffffffffff1673ffffffffffffffffffffffffffffffffffffffff16815260200190815260200160002060006101000a81548160ff0219169083151502179055508173ffffffffffffffffffffffffffffffffffffffff16611da661327c565b73ffffffffffffffffffffffffffffffffffffffff167f17307eab39ab6107e8899845ad3d59bd9653f200f220920489ca2b5937696c3183604051611deb9190614c28565b60405180910390a35050565b611e08611e0261327c565b83613403565b611e47576040517f08c379a0000000000000000000000000000000000000000000000000000000008152600401611e3e90614f00565b60405180910390fd5b611e53848484846134e1565b6000600960008673ffffffffffffffffffffffffffffffffffffffff1673ffffffffffffffffffffffffffffffffffffffff168152602001908152602001600020805480602002602001604051908101604052809291908181526020016000905b82821015611f50578382906000526020600020906003020160405180606001604052908160008201548152602001600182015481526020016002820160009054906101000a900473ffffffffffffffffffffffffffffffffffffffff1673ffffffffffffffffffffffffffffffffffffffff1673ffffffffffffffffffffffffffffffffffffffff168152505081526020019060010190611eb4565b505050509050600960008673ffffffffffffffffffffffffffffffffffffffff1673ffffffffffffffffffffffffffffffffffffffff1681526020019081526020016000206000611fa19190613dce565b60005b81518110156121fd5783828281518110611fc157611fc06154ff565b5b602002602001015160000151146120b757600960008773ffffffffffffffffffffffffffffffffffffffff1673ffffffffffffffffffffffffffffffffffffffff168152602001908152602001600020828281518110612024576120236154ff565b5b60200260200101519080600181540180825580915050600190039060005260206000209060030201600090919091909150600082015181600001556020820151816001015560408201518160020160006101000a81548173ffffffffffffffffffffffffffffffffffffffff021916908373ffffffffffffffffffffffffffffffffffffffff16021790555050506121ea565b848282815181106120cb576120ca6154ff565b5b60200260200101516040019073ffffffffffffffffffffffffffffffffffffffff16908173ffffffffffffffffffffffffffffffffffffffff1681525050600960008673ffffffffffffffffffffffffffffffffffffffff1673ffffffffffffffffffffffffffffffffffffffff16815260200190815260200160002082828151811061215b5761215a6154ff565b5b60200260200101519080600181540180825580915050600190039060005260206000209060030201600090919091909150600082015181600001556020820151816001015560408201518160020160006101000a81548173ffffffffffffffffffffffffffffffffffffffff021916908373ffffffffffffffffffffffffffffffffffffffff16021790555050505b80806121f5906153ca565b915050611fa4565b5033600a600085815260200190815260200160002060006101000a81548173ffffffffffffffffffffffffffffffffffffffff021916908373ffffffffffffffffffffffffffffffffffffffff1602179055505050505050565b61225f61327c565b73ffffffffffffffffffffffffffffffffffffffff1661227d611b70565b73ffffffffffffffffffffffffffffffffffffffff16146122d3576040517f08c379a00000000000000000000000000000000000000000000000000000000081526004016122ca90614e20565b60405180910390fd5b60005b6007805490508110156124585782600782815481106122f8576122f76154ff565b5b90600052602060002090600602016000015414801561233b57508160078281548110612327576123266154ff565b5b906000526020600020906006020160010154105b15612445578160078281548110612355576123546154ff565b5b9060005260206000209060060201600101819055506007818154811061237e5761237d6154ff565b5b9060005260206000209060060201600860008581526020019081526020016000206000820154816000015560018201548160010155600282015481600201556003820154816003015560048201816004019080546123db90615367565b6123e6929190613df2565b506005820160009054906101000a900460ff168160050160006101000a81548160ff0219169083151502179055506005820160019054906101000a900460ff168160050160016101000a81548160ff0219169083151502179055509050505b8080612450906153ca565b9150506122d6565b505050565b606061246882613210565b6124a7576040517f08c379a000000000000000000000000000000000000000000000000000000000815260040161249e90614e60565b60405180910390fd5b60006124b161353d565b905060008151116124d157604051806020016040528060008152506124fc565b806124db84613554565b6040516020016124ec929190614adb565b6040516020818303038152906040525b915050919050565b6008600082815260200190815260200160002060050160019054906101000a900460ff16612567576040517f08c379a000000000000000000000000000000000000000000000000000000000815260040161255e90614f40565b60405180910390fd5b6008600082815260200190815260200160002060050160009054906101000a900460ff16156125cb576040517f08c379a00000000000000000000000000000000000000000000000000000000081526004016125c290614d60565b60405180910390fd5b6000600860008381526020019081526020016000206001015411612624576040517f08c379a000000000000000000000000000000000000000000000000000000000815260040161261b90614ce0565b60405180910390fd5b6103e8670de0b6b3a7640000600860008481526020019081526020016000206003015461265191906151b1565b61265b9190615180565b341461269c576040517f08c379a000000000000000000000000000000000000000000000000000000000815260040161269390614f80565b60405180910390fd5b6126a4613d07565b60005b6007805490508110156129295782600782815481106126c9576126c86154ff565b5b906000526020600020906006020160000154141561291657600781815481106126f5576126f46154ff565b5b90600052602060002090600602016040518060e00160405290816000820154815260200160018201548152602001600282015481526020016003820154815260200160048201805461274690615367565b80601f016020809104026020016040519081016040528092919081815260200182805461277290615367565b80156127bf5780601f10612794576101008083540402835291602001916127bf565b820191906000526020600020905b8154815290600101906020018083116127a257829003601f168201915b505050505081526020016005820160009054906101000a900460ff161515151581526020016005820160019054906101000a900460ff161515151581525050915060078181548110612814576128136154ff565b5b906000526020600020906006020160010160008154809291906128369061533d565b91905055506007818154811061284f5761284e6154ff565b5b9060005260206000209060060201600860008581526020019081526020016000206000820154816000015560018201548160010155600282015481600201556003820154816003015560048201816004019080546128ac90615367565b6128b7929190613df2565b506005820160009054906101000a900460ff168160050160006101000a81548160ff0219169083151502179055506005820160019054906101000a900460ff168160050160016101000a81548160ff0219169083151502179055509050505b8080612921906153ca565b9150506126a7565b5060006402540be400600d5433604051602001612947929190614aff565b6040516020818303038152906040528051906020012060001c61296a9190615441565b9050600d600081548092919061297f906153ca565b919050555061298e33826136b5565b600b60009054906101000a900473ffffffffffffffffffffffffffffffffffffffff1673ffffffffffffffffffffffffffffffffffffffff166108fc349081150290604051600060405180830381858888f193505050501580156129f6573d6000803e3d6000fd5b5060006040518060600160405280838152602001846000015181526020013373ffffffffffffffffffffffffffffffffffffffff168152509050600960003373ffffffffffffffffffffffffffffffffffffffff1673ffffffffffffffffffffffffffffffffffffffff168152602001908152602001600020819080600181540180825580915050600190039060005260206000209060030201600090919091909150600082015181600001556020820151816001015560408201518160020160006101000a81548173ffffffffffffffffffffffffffffffffffffffff021916908373ffffffffffffffffffffffffffffffffffffffff160217905550505033600a600084815260200190815260200160002060006101000a81548173ffffffffffffffffffffffffffffffffffffffff021916908373ffffffffffffffffffffffffffffffffffffffff16021790555050505050565b6000600560008473ffffffffffffffffffffffffffffffffffffffff1673ffffffffffffffffffffffffffffffffffffffff16815260200190815260200160002060008373ffffffffffffffffffffffffffffffffffffffff1673ffffffffffffffffffffffffffffffffffffffff16815260200190815260200160002060009054906101000a900460ff16905092915050565b612bea61327c565b73ffffffffffffffffffffffffffffffffffffffff16612c08611b70565b73ffffffffffffffffffffffffffffffffffffffff1614612c5e576040517f08c379a0000000000000000000000000000000000000000000000000000000008152600401612c5590614e20565b60405180910390fd5b600073ffffffffffffffffffffffffffffffffffffffff168173ffffffffffffffffffffffffffffffffffffffff161415612cce576040517f08c379a0000000000000000000000000000000000000000000000000000000008152600401612cc590614ca0565b60405180910390fd5b612cd78161333d565b50565b600c60009054906101000a900473ffffffffffffffffffffffffffffffffffffffff1681565b60007f01ffc9a7000000000000000000000000000000000000000000000000000000007bffffffffffffffffffffffffffffffffffffffffffffffffffffffff1916827bffffffffffffffffffffffffffffffffffffffffffffffffffffffff1916149050919050565b6000600960008673ffffffffffffffffffffffffffffffffffffffff1673ffffffffffffffffffffffffffffffffffffffff168152602001908152602001600020805480602002602001604051908101604052809291908181526020016000905b82821015612e67578382906000526020600020906003020160405180606001604052908160008201548152602001600182015481526020016002820160009054906101000a900473ffffffffffffffffffffffffffffffffffffffff1673ffffffffffffffffffffffffffffffffffffffff1673ffffffffffffffffffffffffffffffffffffffff168152505081526020019060010190612dcb565b505050509050600960008673ffffffffffffffffffffffffffffffffffffffff1673ffffffffffffffffffffffffffffffffffffffff1681526020019081526020016000206000612eb89190613dce565b60005b81518110156131145783828281518110612ed857612ed76154ff565b5b60200260200101516000015114612fce57600960008773ffffffffffffffffffffffffffffffffffffffff1673ffffffffffffffffffffffffffffffffffffffff168152602001908152602001600020828281518110612f3b57612f3a6154ff565b5b60200260200101519080600181540180825580915050600190039060005260206000209060030201600090919091909150600082015181600001556020820151816001015560408201518160020160006101000a81548173ffffffffffffffffffffffffffffffffffffffff021916908373ffffffffffffffffffffffffffffffffffffffff1602179055505050613101565b84828281518110612fe257612fe16154ff565b5b60200260200101516040019073ffffffffffffffffffffffffffffffffffffffff16908173ffffffffffffffffffffffffffffffffffffffff1681525050600960008673ffffffffffffffffffffffffffffffffffffffff1673ffffffffffffffffffffffffffffffffffffffff168152602001908152602001600020828281518110613072576130716154ff565b5b60200260200101519080600181540180825580915050600190039060005260206000209060030201600090919091909150600082015181600001556020820151816001015560408201518160020160006101000a81548173ffffffffffffffffffffffffffffffffffffffff021916908373ffffffffffffffffffffffffffffffffffffffff16021790555050505b808061310c906153ca565b915050612ebb565b50811561318d5760005b600f805490508110156131875783600f82815481106131405761313f6154ff565b5b9060005260206000200154141561317457600f8181548110613165576131646154ff565b5b90600052602060002001600090555b808061317f906153ca565b91505061311e565b506131b7565b600f8390806001815401808255809150506001900390600052602060002001600090919091909150555b83600a600085815260200190815260200160002060006101000a81548173ffffffffffffffffffffffffffffffffffffffff021916908373ffffffffffffffffffffffffffffffffffffffff1602179055505050505050565b60008073ffffffffffffffffffffffffffffffffffffffff166002600084815260200190815260200160002060009054906101000a900473ffffffffffffffffffffffffffffffffffffffff1673ffffffffffffffffffffffffffffffffffffffff1614159050919050565b600033905090565b816004600083815260200190815260200160002060006101000a81548173ffffffffffffffffffffffffffffffffffffffff021916908373ffffffffffffffffffffffffffffffffffffffff160217905550808273ffffffffffffffffffffffffffffffffffffffff166132f783611878565b73ffffffffffffffffffffffffffffffffffffffff167f8c5be1e5ebec7d5bd14f71427d1e84f3dd0314c0f7b2291e5b200ac8c7c3b92560405160405180910390a45050565b6000600660009054906101000a900473ffffffffffffffffffffffffffffffffffffffff16905081600660006101000a81548173ffffffffffffffffffffffffffffffffffffffff021916908373ffffffffffffffffffffffffffffffffffffffff1602179055508173ffffffffffffffffffffffffffffffffffffffff168173ffffffffffffffffffffffffffffffffffffffff167f8be0079c531659141344cd1fd0a4f28419497f9722a3daafe3b4186f6b6457e060405160405180910390a35050565b600061340e82613210565b61344d576040517f08c379a000000000000000000000000000000000000000000000000000000000815260040161344490614d40565b60405180910390fd5b600061345883611878565b90508073ffffffffffffffffffffffffffffffffffffffff168473ffffffffffffffffffffffffffffffffffffffff1614806134c757508373ffffffffffffffffffffffffffffffffffffffff166134af84610a52565b73ffffffffffffffffffffffffffffffffffffffff16145b806134d857506134d78185612b4e565b5b91505092915050565b6134ec8484846136d3565b6134f88484848461392f565b613537576040517f08c379a000000000000000000000000000000000000000000000000000000000815260040161352e90614c80565b60405180910390fd5b50505050565b606060405180602001604052806000815250905090565b6060600082141561359c576040518060400160405280600181526020017f300000000000000000000000000000000000000000000000000000000000000081525090506136b0565b600082905060005b600082146135ce5780806135b7906153ca565b915050600a826135c79190615180565b91506135a4565b60008167ffffffffffffffff8111156135ea576135e961552e565b5b6040519080825280601f01601f19166020018201604052801561361c5781602001600182028036833780820191505090505b5090505b600085146136a957600182613635919061520b565b9150600a856136449190615441565b6030613650919061512a565b60f81b818381518110613666576136656154ff565b5b60200101907effffffffffffffffffffffffffffffffffffffffffffffffffffffffffffff1916908160001a905350600a856136a29190615180565b9450613620565b8093505050505b919050565b6136cf828260405180602001604052806000815250613ac6565b5050565b8273ffffffffffffffffffffffffffffffffffffffff166136f382611878565b73ffffffffffffffffffffffffffffffffffffffff1614613749576040517f08c379a000000000000000000000000000000000000000000000000000000000815260040161374090614e40565b60405180910390fd5b600073ffffffffffffffffffffffffffffffffffffffff168273ffffffffffffffffffffffffffffffffffffffff1614156137b9576040517f08c379a00000000000000000000000000000000000000000000000000000000081526004016137b090614d00565b60405180910390fd5b6137c4838383613b21565b6137cf600082613284565b6001600360008573ffffffffffffffffffffffffffffffffffffffff1673ffffffffffffffffffffffffffffffffffffffff168152602001908152602001600020600082825461381f919061520b565b925050819055506001600360008473ffffffffffffffffffffffffffffffffffffffff1673ffffffffffffffffffffffffffffffffffffffff1681526020019081526020016000206000828254613876919061512a565b92505081905550816002600083815260200190815260200160002060006101000a81548173ffffffffffffffffffffffffffffffffffffffff021916908373ffffffffffffffffffffffffffffffffffffffff160217905550808273ffffffffffffffffffffffffffffffffffffffff168473ffffffffffffffffffffffffffffffffffffffff167fddf252ad1be2c89b69c2b068fc378daa952ba7f163c4a11628f55a4df523b3ef60405160405180910390a4505050565b60006139508473ffffffffffffffffffffffffffffffffffffffff16613b26565b15613ab9578373ffffffffffffffffffffffffffffffffffffffff1663150b7a0261397961327c565b8786866040518563ffffffff1660e01b815260040161399b9493929190614b98565b602060405180830381600087803b1580156139b557600080fd5b505af19250505080156139e657506040513d601f19601f820116820180604052508101906139e39190614223565b60015b613a69573d8060008114613a16576040519150601f19603f3d011682016040523d82523d6000602084013e613a1b565b606091505b50600081511415613a61576040517f08c379a0000000000000000000000000000000000000000000000000000000008152600401613a5890614c80565b60405180910390fd5b805181602001fd5b63150b7a0260e01b7bffffffffffffffffffffffffffffffffffffffffffffffffffffffff1916817bffffffffffffffffffffffffffffffffffffffffffffffffffffffff191614915050613abe565b600190505b949350505050565b613ad08383613b39565b613add600084848461392f565b613b1c576040517f08c379a0000000000000000000000000000000000000000000000000000000008152600401613b1390614c80565b60405180910390fd5b505050565b505050565b600080823b905060008111915050919050565b600073ffffffffffffffffffffffffffffffffffffffff168273ffffffffffffffffffffffffffffffffffffffff161415613ba9576040517f08c379a0000000000000000000000000000000000000000000000000000000008152600401613ba090614de0565b60405180910390fd5b613bb281613210565b15613bf2576040517f08c379a0000000000000000000000000000000000000000000000000000000008152600401613be990614cc0565b60405180910390fd5b613bfe60008383613b21565b6001600360008473ffffffffffffffffffffffffffffffffffffffff1673ffffffffffffffffffffffffffffffffffffffff1681526020019081526020016000206000828254613c4e919061512a565b92505081905550816002600083815260200190815260200160002060006101000a81548173ffffffffffffffffffffffffffffffffffffffff021916908373ffffffffffffffffffffffffffffffffffffffff160217905550808273ffffffffffffffffffffffffffffffffffffffff16600073ffffffffffffffffffffffffffffffffffffffff167fddf252ad1be2c89b69c2b068fc378daa952ba7f163c4a11628f55a4df523b3ef60405160405180910390a45050565b6040518060e0016040528060008152602001600081526020016000815260200160008152602001606081526020016000151581526020016000151581525090565b828054613d5490615367565b90600052602060002090601f016020900481019282613d765760008555613dbd565b82601f10613d8f57805160ff1916838001178555613dbd565b82800160010185558215613dbd579182015b82811115613dbc578251825591602001919060010190613da1565b5b509050613dca9190613e7f565b5090565b5080546000825560030290600052602060002090810190613def9190613e9c565b50565b828054613dfe90615367565b90600052602060002090601f016020900481019282613e205760008555613e6e565b82601f10613e315780548555613e6e565b82800160010185558215613e6e57600052602060002091601f016020900482015b82811115613e6d578254825591600101919060010190613e52565b5b509050613e7b9190613e7f565b5090565b5b80821115613e98576000816000905550600101613e80565b5090565b5b80821115613ee65760008082016000905560018201600090556002820160006101000a81549073ffffffffffffffffffffffffffffffffffffffff021916905550600301613e9d565b5090565b6000613efd613ef884615002565b614fdd565b905082815260208101848484011115613f1957613f18615562565b5b613f248482856152fb565b509392505050565b6000613f3f613f3a84615033565b614fdd565b905082815260208101848484011115613f5b57613f5a615562565b5b613f668482856152fb565b509392505050565b600081359050613f7d81615bca565b92915050565b600081359050613f9281615be1565b92915050565b600081359050613fa781615bf8565b92915050565b600081519050613fbc81615bf8565b92915050565b600082601f830112613fd757613fd661555d565b5b8135613fe7848260208601613eea565b91505092915050565b600082601f8301126140055761400461555d565b5b8135614015848260208601613f2c565b91505092915050565b60008135905061402d81615c0f565b92915050565b6000602082840312156140495761404861556c565b5b600061405784828501613f6e565b91505092915050565b600080604083850312156140775761407661556c565b5b600061408585828601613f6e565b925050602061409685828601613f6e565b9150509250929050565b6000806000606084860312156140b9576140b861556c565b5b60006140c786828701613f6e565b93505060206140d886828701613f6e565b92505060406140e98682870161401e565b9150509250925092565b6000806000806080858703121561410d5761410c61556c565b5b600061411b87828801613f6e565b945050602061412c87828801613f6e565b935050604061413d8782880161401e565b925050606085013567ffffffffffffffff81111561415e5761415d615567565b5b61416a87828801613fc2565b91505092959194509250565b6000806040838503121561418d5761418c61556c565b5b600061419b85828601613f6e565b92505060206141ac85828601613f83565b9150509250929050565b600080604083850312156141cd576141cc61556c565b5b60006141db85828601613f6e565b92505060206141ec8582860161401e565b9150509250929050565b60006020828403121561420c5761420b61556c565b5b600061421a84828501613f98565b91505092915050565b6000602082840312156142395761423861556c565b5b600061424784828501613fad565b91505092915050565b60008060008060008060c0878903121561426d5761426c61556c565b5b600087013567ffffffffffffffff81111561428b5761428a615567565b5b61429789828a01613ff0565b96505060206142a889828a0161401e565b95505060406142b989828a0161401e565b94505060606142ca89828a0161401e565b93505060806142db89828a0161401e565b92505060a06142ec89828a01613f83565b9150509295509295509295565b60006020828403121561430f5761430e61556c565b5b600061431d8482850161401e565b91505092915050565b6000806040838503121561433d5761433c61556c565b5b600061434b8582860161401e565b925050602061435c8582860161401e565b9150509250929050565b6000614372838361492c565b905092915050565b60006143868383614a64565b60608301905092915050565b61439b816152c5565b82525050565b6143aa81615251565b82525050565b6143b98161523f565b82525050565b6143c88161523f565b82525050565b6143df6143da8261523f565b615413565b82525050565b60006143f082615084565b6143fa81856150ca565b93508360208202850161440c85615064565b8060005b8581101561444857848403895281516144298582614366565b9450614434836150b0565b925060208a01995050600181019050614410565b50829750879550505050505092915050565b60006144658261508f565b61446f81856150db565b935061447a83615074565b8060005b838110156144ab578151614492888261437a565b975061449d836150bd565b92505060018101905061447e565b5085935050505092915050565b6144c181615263565b82525050565b6144d081615263565b82525050565b6144df8161526f565b82525050565b60006144f08261509a565b6144fa81856150ec565b935061450a81856020860161530a565b61451381615571565b840191505092915050565b6000614529826150a5565b61453381856150fd565b935061454381856020860161530a565b61454c81615571565b840191505092915050565b6000614562826150a5565b61456c818561510e565b935061457c81856020860161530a565b61458581615571565b840191505092915050565b600061459b826150a5565b6145a5818561511f565b93506145b581856020860161530a565b80840191505092915050565b60006145ce60328361510e565b91506145d98261558f565b604082019050919050565b60006145f160268361510e565b91506145fc826155de565b604082019050919050565b6000614614601c8361510e565b915061461f8261562d565b602082019050919050565b600061463760228361510e565b915061464282615656565b604082019050919050565b600061465a60248361510e565b9150614665826156a5565b604082019050919050565b600061467d60198361510e565b9150614688826156f4565b602082019050919050565b60006146a0602c8361510e565b91506146ab8261571d565b604082019050919050565b60006146c360238361510e565b91506146ce8261576c565b604082019050919050565b60006146e660388361510e565b91506146f1826157bb565b604082019050919050565b6000614709602a8361510e565b91506147148261580a565b604082019050919050565b600061472c60298361510e565b915061473782615859565b604082019050919050565b600061474f60208361510e565b915061475a826158a8565b602082019050919050565b6000614772602c8361510e565b915061477d826158d1565b604082019050919050565b600061479560208361510e565b91506147a082615920565b602082019050919050565b60006147b860298361510e565b91506147c382615949565b604082019050919050565b60006147db602f8361510e565b91506147e682615998565b604082019050919050565b60006147fe60178361510e565b9150614809826159e7565b602082019050919050565b600061482160218361510e565b915061482c82615a10565b604082019050919050565b600061484460228361510e565b915061484f82615a5f565b604082019050919050565b6000614867600f8361510e565b915061487282615aae565b602082019050919050565b600061488a60318361510e565b915061489582615ad7565b604082019050919050565b60006148ad60118361510e565b91506148b882615b26565b602082019050919050565b60006148d060118361510e565b91506148db82615b4f565b602082019050919050565b60006148f360138361510e565b91506148fe82615b78565b602082019050919050565b600061491660108361510e565b915061492182615ba1565b602082019050919050565b600060e0830160008301516149446000860182614aa6565b5060208301516149576020860182614aa6565b50604083015161496a6040860182614aa6565b50606083015161497d6060860182614aa6565b5060808301518482036080860152614995828261451e565b91505060a08301516149aa60a08601826144b8565b5060c08301516149bd60c08601826144b8565b508091505092915050565b600060e0830160008301516149e06000860182614aa6565b5060208301516149f36020860182614aa6565b506040830151614a066040860182614aa6565b506060830151614a196060860182614aa6565b5060808301518482036080860152614a31828261451e565b91505060a0830151614a4660a08601826144b8565b5060c0830151614a5960c08601826144b8565b508091505092915050565b606082016000820151614a7a6000850182614aa6565b506020820151614a8d6020850182614aa6565b506040820151614aa060408501826143b0565b50505050565b614aaf816152bb565b82525050565b614abe816152bb565b82525050565b614ad5614ad0826152bb565b615437565b82525050565b6000614ae78285614590565b9150614af38284614590565b91508190509392505050565b6000614b0b8285614ac4565b602082019150614b1b82846143ce565b6014820191508190509392505050565b6000602082019050614b4060008301846143bf565b92915050565b6000602082019050614b5b60008301846143a1565b92915050565b6000606082019050614b766000830186614392565b614b8360208301856143bf565b614b906040830184614ab5565b949350505050565b6000608082019050614bad60008301876143bf565b614bba60208301866143bf565b614bc76040830185614ab5565b8181036060830152614bd981846144e5565b905095945050505050565b60006020820190508181036000830152614bfe81846143e5565b905092915050565b60006020820190508181036000830152614c20818461445a565b905092915050565b6000602082019050614c3d60008301846144c7565b92915050565b6000602082019050614c5860008301846144d6565b92915050565b60006020820190508181036000830152614c788184614557565b905092915050565b60006020820190508181036000830152614c99816145c1565b9050919050565b60006020820190508181036000830152614cb9816145e4565b9050919050565b60006020820190508181036000830152614cd981614607565b9050919050565b60006020820190508181036000830152614cf98161462a565b9050919050565b60006020820190508181036000830152614d198161464d565b9050919050565b60006020820190508181036000830152614d3981614670565b9050919050565b60006020820190508181036000830152614d5981614693565b9050919050565b60006020820190508181036000830152614d79816146b6565b9050919050565b60006020820190508181036000830152614d99816146d9565b9050919050565b60006020820190508181036000830152614db9816146fc565b9050919050565b60006020820190508181036000830152614dd98161471f565b9050919050565b60006020820190508181036000830152614df981614742565b9050919050565b60006020820190508181036000830152614e1981614765565b9050919050565b60006020820190508181036000830152614e3981614788565b9050919050565b60006020820190508181036000830152614e59816147ab565b9050919050565b60006020820190508181036000830152614e79816147ce565b9050919050565b60006020820190508181036000830152614e99816147f1565b9050919050565b60006020820190508181036000830152614eb981614814565b9050919050565b60006020820190508181036000830152614ed981614837565b9050919050565b60006020820190508181036000830152614ef98161485a565b9050919050565b60006020820190508181036000830152614f198161487d565b9050919050565b60006020820190508181036000830152614f39816148a0565b9050919050565b60006020820190508181036000830152614f59816148c3565b9050919050565b60006020820190508181036000830152614f79816148e6565b9050919050565b60006020820190508181036000830152614f9981614909565b9050919050565b60006020820190508181036000830152614fba81846149c8565b905092915050565b6000602082019050614fd76000830184614ab5565b92915050565b6000614fe7614ff8565b9050614ff38282615399565b919050565b6000604051905090565b600067ffffffffffffffff82111561501d5761501c61552e565b5b61502682615571565b9050602081019050919050565b600067ffffffffffffffff82111561504e5761504d61552e565b5b61505782615571565b9050602081019050919050565b6000819050602082019050919050565b6000819050602082019050919050565b600081519050919050565b600081519050919050565b600081519050919050565b600081519050919050565b6000602082019050919050565b6000602082019050919050565b600082825260208201905092915050565b600082825260208201905092915050565b600082825260208201905092915050565b600082825260208201905092915050565b600082825260208201905092915050565b600081905092915050565b6000615135826152bb565b9150615140836152bb565b9250827fffffffffffffffffffffffffffffffffffffffffffffffffffffffffffffffff0382111561517557615174615472565b5b828201905092915050565b600061518b826152bb565b9150615196836152bb565b9250826151a6576151a56154a1565b5b828204905092915050565b60006151bc826152bb565b91506151c7836152bb565b9250817fffffffffffffffffffffffffffffffffffffffffffffffffffffffffffffffff0483118215151615615200576151ff615472565b5b828202905092915050565b6000615216826152bb565b9150615221836152bb565b92508282101561523457615233615472565b5b828203905092915050565b600061524a8261529b565b9050919050565b600061525c8261529b565b9050919050565b60008115159050919050565b60007fffffffff0000000000000000000000000000000000000000000000000000000082169050919050565b600073ffffffffffffffffffffffffffffffffffffffff82169050919050565b6000819050919050565b60006152d0826152d7565b9050919050565b60006152e2826152e9565b9050919050565b60006152f48261529b565b9050919050565b82818337600083830152505050565b60005b8381101561532857808201518184015260208101905061530d565b83811115615337576000848401525b50505050565b6000615348826152bb565b9150600082141561535c5761535b615472565b5b600182039050919050565b6000600282049050600182168061537f57607f821691505b60208210811415615393576153926154d0565b5b50919050565b6153a282615571565b810181811067ffffffffffffffff821117156153c1576153c061552e565b5b80604052505050565b60006153d5826152bb565b91507fffffffffffffffffffffffffffffffffffffffffffffffffffffffffffffffff82141561540857615407615472565b5b600182019050919050565b600061541e82615425565b9050919050565b600061543082615582565b9050919050565b6000819050919050565b600061544c826152bb565b9150615457836152bb565b925082615467576154666154a1565b5b828206905092915050565b7f4e487b7100000000000000000000000000000000000000000000000000000000600052601160045260246000fd5b7f4e487b7100000000000000000000000000000000000000000000000000000000600052601260045260246000fd5b7f4e487b7100000000000000000000000000000000000000000000000000000000600052602260045260246000fd5b7f4e487b7100000000000000000000000000000000000000000000000000000000600052603260045260246000fd5b7f4e487b7100000000000000000000000000000000000000000000000000000000600052604160045260246000fd5b600080fd5b600080fd5b600080fd5b600080fd5b6000601f19601f8301169050919050565b60008160601b9050919050565b7f4552433732313a207472616e7366657220746f206e6f6e20455243373231526560008201527f63656976657220696d706c656d656e7465720000000000000000000000000000602082015250565b7f4f776e61626c653a206e6577206f776e657220697320746865207a65726f206160008201527f6464726573730000000000000000000000000000000000000000000000000000602082015250565b7f4552433732313a20746f6b656e20616c7265616479206d696e74656400000000600082015250565b7f5468657265206973206e6f206d6f726520706f6c6974696320617661696c616260008201527f6c65000000000000000000000000000000000000000000000000000000000000602082015250565b7f4552433732313a207472616e7366657220746f20746865207a65726f2061646460008201527f7265737300000000000000000000000000000000000000000000000000000000602082015250565b7f4552433732313a20617070726f766520746f2063616c6c657200000000000000600082015250565b7f4552433732313a206f70657261746f7220717565727920666f72206e6f6e657860008201527f697374656e7420746f6b656e0000000000000000000000000000000000000000602082015250565b7f506f6c69746963206f6e6c7920617661696c61626c652077697468206c6f747460008201527f6572790000000000000000000000000000000000000000000000000000000000602082015250565b7f4552433732313a20617070726f76652063616c6c6572206973206e6f74206f7760008201527f6e6572206e6f7220617070726f76656420666f7220616c6c0000000000000000602082015250565b7f4552433732313a2062616c616e636520717565727920666f7220746865207a6560008201527f726f206164647265737300000000000000000000000000000000000000000000602082015250565b7f4552433732313a206f776e657220717565727920666f72206e6f6e657869737460008201527f656e7420746f6b656e0000000000000000000000000000000000000000000000602082015250565b7f4552433732313a206d696e7420746f20746865207a65726f2061646472657373600082015250565b7f4552433732313a20617070726f76656420717565727920666f72206e6f6e657860008201527f697374656e7420746f6b656e0000000000000000000000000000000000000000602082015250565b7f4f776e61626c653a2063616c6c6572206973206e6f7420746865206f776e6572600082015250565b7f4552433732313a207472616e73666572206f6620746f6b656e2074686174206960008201527f73206e6f74206f776e0000000000000000000000000000000000000000000000602082015250565b7f4552433732314d657461646174613a2055524920717565727920666f72206e6f60008201527f6e6578697374656e7420746f6b656e0000000000000000000000000000000000602082015250565b7f506f6c6974696369616e206e6f7420666f722073616c65000000000000000000600082015250565b7f4552433732313a20617070726f76616c20746f2063757272656e74206f776e6560008201527f7200000000000000000000000000000000000000000000000000000000000000602082015250565b7f596f7520617265206e6f7420746865206f776e6572206f662074686520746f6b60008201527f656e000000000000000000000000000000000000000000000000000000000000602082015250565b7f596f757220706f6c6974696369616e0000000000000000000000000000000000600082015250565b7f4552433732313a207472616e736665722063616c6c6572206973206e6f74206f60008201527f776e6572206e6f7220617070726f766564000000000000000000000000000000602082015250565b7f696420616c726561647920696e20757365000000000000000000000000000000600082015250565b7f506f6c69746963206e6f7420666f756e64000000000000000000000000000000600082015250565b7f4e6f7420796f757220706f6c6974696369616e00000000000000000000000000600082015250565b7f496e636f727265637420616d6f756e7400000000000000000000000000000000600082015250565b615bd38161523f565b8114615bde57600080fd5b50565b615bea81615263565b8114615bf557600080fd5b50565b615c018161526f565b8114615c0c57600080fd5b50565b615c18816152bb565b8114615c2357600080fd5b5056fea2646970667358221220093260f99501ff6310f0c15c6bf6a7d632d27959a91a686494a6c4889b79311464736f6c63430008070033",
  "immutableReferences": {},
  "source": "// SPDX-License-Identifier: MIT\n\npragma solidity ^0.8.0;\nimport \"./Sell.sol\";\n\n/**\n* @title Base methode of lottery\n* @author Youness Chetoui\n*/\ncontract Lottery is Sell {\n}\n",
  "sourcePath": "/home/youness/Crypto/PoliticsCollectible/contracts/Lottery.sol",
  "compiler": {
    "name": "solc",
    "version": "0.8.7+commit.e28d00a7.Emscripten.clang"
  },
  "schemaVersion": "3.4.3",
  "updatedAt": "2021-08-31T13:08:36.687Z",
  "devdoc": {
    "author": "Youness Chetoui",
    "kind": "dev",
    "methods": {
      "addQty(uint256,uint256)": {
        "params": {
          "_id": "of PoliticsAvailable and _qty wished"
        }
      },
      "approve(address,uint256)": {
        "details": "See {IERC721-approve}."
      },
      "balanceOf(address)": {
        "details": "See {IERC721-balanceOf}."
      },
      "buy(uint256)": {
        "params": {
          "_id": "of politician available"
        }
      },
      "buyPoliticsForSale(uint256)": {
        "params": {
          "_tokenId": "of politician for sale"
        }
      },
      "cancelSell(uint256)": {
        "params": {
          "_tokenId": "of politician for sale"
        }
      },
      "create(string,uint256,uint256,uint256,uint256,bool)": {
        "params": {
          "_name": ", _id, _qty, _level, _price and _lottery of politician available"
        },
        "returns": {
          "_0": "PoliticsAvailable created"
        }
      },
      "forSale(uint256,uint256)": {
        "params": {
          "_tokenId": "of politician owned and _price wished"
        }
      },
      "getApproved(uint256)": {
        "details": "See {IERC721-getApproved}."
      },
      "getMyPolitics()": {
        "returns": {
          "_0": "array of struct PoliticsOwned"
        }
      },
      "getPolitic(uint256)": {
        "params": {
          "_id": "of politician"
        },
        "returns": {
          "_0": "struct PoliticsAvailable"
        }
      },
      "getPolitics()": {
        "returns": {
          "_0": "Array of struct PoliticsAvailable"
        }
      },
      "isApprovedForAll(address,address)": {
        "details": "See {IERC721-isApprovedForAll}."
      },
      "name()": {
        "details": "See {IERC721Metadata-name}."
      },
      "onERC721Received(address,address,uint256,bytes)": {
        "details": "See {IERC721Receiver-onERC721Received}. Always returns `IERC721Receiver.onERC721Received.selector`."
      },
      "owner()": {
        "details": "Returns the address of the current owner."
      },
      "ownerOf(uint256)": {
        "details": "See {IERC721-ownerOf}."
      },
      "renounceOwnership()": {
        "details": "Leaves the contract without owner. It will not be possible to call `onlyOwner` functions anymore. Can only be called by the current owner. NOTE: Renouncing ownership will leave the contract without an owner, thereby removing any functionality that is only available to the owner."
      },
      "safeTransferFrom(address,address,uint256)": {
        "details": "See {IERC721-safeTransferFrom}."
      },
      "safeTransferFrom(address,address,uint256,bytes)": {
        "params": {
          "from": "politician wallet address, to wallet address of receiver, tokenId of politician to transfer, _data"
        }
      },
      "setApprovalForAll(address,bool)": {
        "details": "See {IERC721-setApprovalForAll}."
      },
      "supportsInterface(bytes4)": {
        "details": "See {IERC165-supportsInterface}."
      },
      "symbol()": {
        "details": "See {IERC721Metadata-symbol}."
      },
      "tokenURI(uint256)": {
        "details": "See {IERC721Metadata-tokenURI}."
      },
      "transferOwnership(address)": {
        "details": "Transfers ownership of the contract to a new account (`newOwner`). Can only be called by the current owner."
      }
    },
    "title": "Base methode of lottery",
    "version": 1
  },
  "userdoc": {
    "kind": "user",
    "methods": {
      "addQty(uint256,uint256)": {
        "notice": "Add quantity for a PoliticsAvailable"
      },
      "buy(uint256)": {
        "notice": "Buy politician"
      },
      "buyPoliticsForSale(uint256)": {
        "notice": "Buy politician"
      },
      "cancelSell(uint256)": {
        "notice": "Cancel the sell of politician"
      },
      "create(string,uint256,uint256,uint256,uint256,bool)": {
        "notice": "Create politician"
      },
      "forSale(uint256,uint256)": {
        "notice": "Up for sale of owned politician"
      },
      "getMyPolitics()": {
        "notice": "Get politician by user"
      },
      "getPolitic(uint256)": {
        "notice": "get politician available by id"
      },
      "getPolitics()": {
        "notice": "get list of all politician available"
      },
      "safeTransferFrom(address,address,uint256,bytes)": {
        "notice": "Transfer Politic"
      },
      "transferFrom(address,address,uint256)": {
        "notice": "Disabled not safe transform"
      }
    },
    "version": 1
  }
}