{
  "contractName": "LotteryFactory",
  "abi": [
    {
      "anonymous": false,
      "inputs": [
        {
          "indexed": true,
          "internalType": "address",
          "name": "owner",
          "type": "address"
        },
        {
          "indexed": true,
          "internalType": "address",
          "name": "approved",
          "type": "address"
        },
        {
          "indexed": true,
          "internalType": "uint256",
          "name": "tokenId",
          "type": "uint256"
        }
      ],
      "name": "Approval",
      "type": "event"
    },
    {
      "anonymous": false,
      "inputs": [
        {
          "indexed": true,
          "internalType": "address",
          "name": "owner",
          "type": "address"
        },
        {
          "indexed": true,
          "internalType": "address",
          "name": "operator",
          "type": "address"
        },
        {
          "indexed": false,
          "internalType": "bool",
          "name": "approved",
          "type": "bool"
        }
      ],
      "name": "ApprovalForAll",
      "type": "event"
    },
    {
      "anonymous": false,
      "inputs": [
        {
          "indexed": true,
          "internalType": "address",
          "name": "previousOwner",
          "type": "address"
        },
        {
          "indexed": true,
          "internalType": "address",
          "name": "newOwner",
          "type": "address"
        }
      ],
      "name": "OwnershipTransferred",
      "type": "event"
    },
    {
      "anonymous": false,
      "inputs": [
        {
          "indexed": true,
          "internalType": "address",
          "name": "from",
          "type": "address"
        },
        {
          "indexed": true,
          "internalType": "address",
          "name": "to",
          "type": "address"
        },
        {
          "indexed": true,
          "internalType": "uint256",
          "name": "tokenId",
          "type": "uint256"
        }
      ],
      "name": "Transfer",
      "type": "event"
    },
    {
      "inputs": [
        {
          "internalType": "uint256",
          "name": "_id",
          "type": "uint256"
        },
        {
          "internalType": "uint256",
          "name": "_qty",
          "type": "uint256"
        }
      ],
      "name": "addQty",
      "outputs": [],
      "stateMutability": "nonpayable",
      "type": "function"
    },
    {
      "inputs": [
        {
          "internalType": "address",
          "name": "to",
          "type": "address"
        },
        {
          "internalType": "uint256",
          "name": "tokenId",
          "type": "uint256"
        }
      ],
      "name": "approve",
      "outputs": [],
      "stateMutability": "nonpayable",
      "type": "function"
    },
    {
      "inputs": [
        {
          "internalType": "address",
          "name": "owner",
          "type": "address"
        }
      ],
      "name": "balanceOf",
      "outputs": [
        {
          "internalType": "uint256",
          "name": "",
          "type": "uint256"
        }
      ],
      "stateMutability": "view",
      "type": "function"
    },
    {
      "inputs": [
        {
          "internalType": "uint256",
          "name": "_id",
          "type": "uint256"
        }
      ],
      "name": "buy",
      "outputs": [],
      "stateMutability": "payable",
      "type": "function"
    },
    {
      "inputs": [
        {
          "internalType": "uint256",
          "name": "_decimal",
          "type": "uint256"
        }
      ],
      "name": "changeDecimal",
      "outputs": [],
      "stateMutability": "nonpayable",
      "type": "function"
    },
    {
      "inputs": [],
      "name": "contractAddress",
      "outputs": [
        {
          "internalType": "address payable",
          "name": "",
          "type": "address"
        }
      ],
      "stateMutability": "view",
      "type": "function"
    },
    {
      "inputs": [
        {
          "internalType": "string",
          "name": "_name",
          "type": "string"
        },
        {
          "internalType": "uint256",
          "name": "_id",
          "type": "uint256"
        },
        {
          "internalType": "uint256",
          "name": "_qty",
          "type": "uint256"
        },
        {
          "internalType": "uint256",
          "name": "_level",
          "type": "uint256"
        },
        {
          "internalType": "uint256",
          "name": "_price",
          "type": "uint256"
        }
      ],
      "name": "createType",
      "outputs": [
        {
          "components": [
            {
              "internalType": "uint256",
              "name": "id",
              "type": "uint256"
            },
            {
              "internalType": "uint256",
              "name": "qty",
              "type": "uint256"
            },
            {
              "internalType": "uint256",
              "name": "level",
              "type": "uint256"
            },
            {
              "internalType": "uint256",
              "name": "price",
              "type": "uint256"
            },
            {
              "internalType": "string",
              "name": "name",
              "type": "string"
            },
            {
              "internalType": "bool",
              "name": "created",
              "type": "bool"
            }
          ],
          "internalType": "struct Collectible.PoliticsAvailable",
          "name": "",
          "type": "tuple"
        }
      ],
      "stateMutability": "nonpayable",
      "type": "function"
    },
    {
      "inputs": [
        {
          "internalType": "uint256",
          "name": "tokenId",
          "type": "uint256"
        }
      ],
      "name": "getApproved",
      "outputs": [
        {
          "internalType": "address",
          "name": "",
          "type": "address"
        }
      ],
      "stateMutability": "view",
      "type": "function"
    },
    {
      "inputs": [],
      "name": "getMyPolitics",
      "outputs": [
        {
          "components": [
            {
              "internalType": "uint256",
              "name": "id",
              "type": "uint256"
            },
            {
              "internalType": "uint256",
              "name": "id_politic",
              "type": "uint256"
            },
            {
              "internalType": "address",
              "name": "owner",
              "type": "address"
            }
          ],
          "internalType": "struct Collectible.PoliticsOwned[]",
          "name": "",
          "type": "tuple[]"
        }
      ],
      "stateMutability": "view",
      "type": "function"
    },
    {
      "inputs": [
        {
          "internalType": "uint256",
          "name": "_id",
          "type": "uint256"
        }
      ],
      "name": "getPolitic",
      "outputs": [
        {
          "components": [
            {
              "internalType": "uint256",
              "name": "id",
              "type": "uint256"
            },
            {
              "internalType": "uint256",
              "name": "qty",
              "type": "uint256"
            },
            {
              "internalType": "uint256",
              "name": "level",
              "type": "uint256"
            },
            {
              "internalType": "uint256",
              "name": "price",
              "type": "uint256"
            },
            {
              "internalType": "string",
              "name": "name",
              "type": "string"
            },
            {
              "internalType": "bool",
              "name": "created",
              "type": "bool"
            }
          ],
          "internalType": "struct Collectible.PoliticsAvailable",
          "name": "",
          "type": "tuple"
        }
      ],
      "stateMutability": "view",
      "type": "function"
    },
    {
      "inputs": [],
      "name": "getPolitics",
      "outputs": [
        {
          "components": [
            {
              "internalType": "uint256",
              "name": "id",
              "type": "uint256"
            },
            {
              "internalType": "uint256",
              "name": "qty",
              "type": "uint256"
            },
            {
              "internalType": "uint256",
              "name": "level",
              "type": "uint256"
            },
            {
              "internalType": "uint256",
              "name": "price",
              "type": "uint256"
            },
            {
              "internalType": "string",
              "name": "name",
              "type": "string"
            },
            {
              "internalType": "bool",
              "name": "created",
              "type": "bool"
            }
          ],
          "internalType": "struct Collectible.PoliticsAvailable[]",
          "name": "",
          "type": "tuple[]"
        }
      ],
      "stateMutability": "view",
      "type": "function"
    },
    {
      "inputs": [
        {
          "internalType": "address",
          "name": "owner",
          "type": "address"
        },
        {
          "internalType": "address",
          "name": "operator",
          "type": "address"
        }
      ],
      "name": "isApprovedForAll",
      "outputs": [
        {
          "internalType": "bool",
          "name": "",
          "type": "bool"
        }
      ],
      "stateMutability": "view",
      "type": "function"
    },
    {
      "inputs": [],
      "name": "name",
      "outputs": [
        {
          "internalType": "string",
          "name": "",
          "type": "string"
        }
      ],
      "stateMutability": "view",
      "type": "function"
    },
    {
      "inputs": [],
      "name": "owner",
      "outputs": [
        {
          "internalType": "address",
          "name": "",
          "type": "address"
        }
      ],
      "stateMutability": "view",
      "type": "function"
    },
    {
      "inputs": [],
      "name": "ownerAddress",
      "outputs": [
        {
          "internalType": "address payable",
          "name": "",
          "type": "address"
        }
      ],
      "stateMutability": "view",
      "type": "function"
    },
    {
      "inputs": [
        {
          "internalType": "uint256",
          "name": "tokenId",
          "type": "uint256"
        }
      ],
      "name": "ownerOf",
      "outputs": [
        {
          "internalType": "address",
          "name": "",
          "type": "address"
        }
      ],
      "stateMutability": "view",
      "type": "function"
    },
    {
      "inputs": [],
      "name": "renounceOwnership",
      "outputs": [],
      "stateMutability": "nonpayable",
      "type": "function"
    },
    {
      "inputs": [
        {
          "internalType": "address",
          "name": "from",
          "type": "address"
        },
        {
          "internalType": "address",
          "name": "to",
          "type": "address"
        },
        {
          "internalType": "uint256",
          "name": "tokenId",
          "type": "uint256"
        }
      ],
      "name": "safeTransferFrom",
      "outputs": [],
      "stateMutability": "nonpayable",
      "type": "function"
    },
    {
      "inputs": [
        {
          "internalType": "address",
          "name": "from",
          "type": "address"
        },
        {
          "internalType": "address",
          "name": "to",
          "type": "address"
        },
        {
          "internalType": "uint256",
          "name": "tokenId",
          "type": "uint256"
        },
        {
          "internalType": "bytes",
          "name": "_data",
          "type": "bytes"
        }
      ],
      "name": "safeTransferFrom",
      "outputs": [],
      "stateMutability": "nonpayable",
      "type": "function"
    },
    {
      "inputs": [
        {
          "internalType": "address",
          "name": "operator",
          "type": "address"
        },
        {
          "internalType": "bool",
          "name": "approved",
          "type": "bool"
        }
      ],
      "name": "setApprovalForAll",
      "outputs": [],
      "stateMutability": "nonpayable",
      "type": "function"
    },
    {
      "inputs": [
        {
          "internalType": "bytes4",
          "name": "interfaceId",
          "type": "bytes4"
        }
      ],
      "name": "supportsInterface",
      "outputs": [
        {
          "internalType": "bool",
          "name": "",
          "type": "bool"
        }
      ],
      "stateMutability": "view",
      "type": "function"
    },
    {
      "inputs": [],
      "name": "symbol",
      "outputs": [
        {
          "internalType": "string",
          "name": "",
          "type": "string"
        }
      ],
      "stateMutability": "view",
      "type": "function"
    },
    {
      "inputs": [
        {
          "internalType": "uint256",
          "name": "tokenId",
          "type": "uint256"
        }
      ],
      "name": "tokenURI",
      "outputs": [
        {
          "internalType": "string",
          "name": "",
          "type": "string"
        }
      ],
      "stateMutability": "view",
      "type": "function"
    },
    {
      "inputs": [
        {
          "internalType": "address",
          "name": "from",
          "type": "address"
        },
        {
          "internalType": "address",
          "name": "to",
          "type": "address"
        },
        {
          "internalType": "uint256",
          "name": "tokenId",
          "type": "uint256"
        }
      ],
      "name": "transferFrom",
      "outputs": [],
      "stateMutability": "nonpayable",
      "type": "function"
    },
    {
      "inputs": [
        {
          "internalType": "address",
          "name": "newOwner",
          "type": "address"
        }
      ],
      "name": "transferOwnership",
      "outputs": [],
      "stateMutability": "nonpayable",
      "type": "function"
    }
  ],
  "bytecode": "0x60806040526001600d556103e8600e553480156200001c57600080fd5b506040518060400160405280600b81526020017f506f6c69746963734e66740000000000000000000000000000000000000000008152506040518060400160405280600381526020017f504f4c00000000000000000000000000000000000000000000000000000000008152508160009080519060200190620000a192919062000233565b508060019080519060200190620000ba92919062000233565b505050620000dd620000d16200016560201b60201c565b6200016d60201b60201c565b33600b60006101000a81548173ffffffffffffffffffffffffffffffffffffffff021916908373ffffffffffffffffffffffffffffffffffffffff16021790555030600c60006101000a81548173ffffffffffffffffffffffffffffffffffffffff021916908373ffffffffffffffffffffffffffffffffffffffff16021790555062000348565b600033905090565b6000600660009054906101000a900473ffffffffffffffffffffffffffffffffffffffff16905081600660006101000a81548173ffffffffffffffffffffffffffffffffffffffff021916908373ffffffffffffffffffffffffffffffffffffffff1602179055508173ffffffffffffffffffffffffffffffffffffffff168173ffffffffffffffffffffffffffffffffffffffff167f8be0079c531659141344cd1fd0a4f28419497f9722a3daafe3b4186f6b6457e060405160405180910390a35050565b8280546200024190620002e3565b90600052602060002090601f016020900481019282620002655760008555620002b1565b82601f106200028057805160ff1916838001178555620002b1565b82800160010185558215620002b1579182015b82811115620002b057825182559160200191906001019062000293565b5b509050620002c09190620002c4565b5090565b5b80821115620002df576000816000905550600101620002c5565b5090565b60006002820490506001821680620002fc57607f821691505b6020821081141562000313576200031262000319565b5b50919050565b7f4e487b7100000000000000000000000000000000000000000000000000000000600052602260045260246000fd5b614af080620003586000396000f3fe6080604052600436106101665760003560e01c806386bd5066116100d1578063b9db1c981161008a578063e985e9c511610064578063e985e9c514610541578063ef2335851461057e578063f2fde38b146105a7578063f6b4dfb4146105d057610166565b8063b9db1c98146104bf578063c87b56dd146104e8578063d96a094a1461052557610166565b806386bd5066146103af5780638da5cb5b146103ec5780638f84aa091461041757806395d89b4114610442578063a22cb4651461046d578063b88d4fde1461049657610166565b806342842e0e1161012357806342842e0e1461028d5780635ad16b7f146102b65780636352211e146102f357806370a0823114610330578063715018a61461036d57806385d334361461038457610166565b806301ffc9a71461016b57806306fdde03146101a8578063081812fc146101d3578063095ea7b31461021057806323b872dd1461023957806330f105cd14610262575b600080fd5b34801561017757600080fd5b50610192600480360381019061018d91906133d0565b6105fb565b60405161019f9190613cc6565b60405180910390f35b3480156101b457600080fd5b506101bd6106dd565b6040516101ca9190613ce1565b60405180910390f35b3480156101df57600080fd5b506101fa60048036038101906101f591906134c1565b61076f565b6040516102079190613c00565b60405180910390f35b34801561021c57600080fd5b5061023760048036038101906102329190613390565b6107f4565b005b34801561024557600080fd5b50610260600480360381019061025b919061327a565b61090c565b005b34801561026e57600080fd5b5061027761098d565b6040516102849190613c82565b60405180910390f35b34801561029957600080fd5b506102b460048036038101906102af919061327a565b610b3d565b005b3480156102c257600080fd5b506102dd60048036038101906102d891906134c1565b610b5d565b6040516102ea9190613f83565b60405180910390f35b3480156102ff57600080fd5b5061031a600480360381019061031591906134c1565b610d3e565b6040516103279190613c00565b60405180910390f35b34801561033c57600080fd5b506103576004803603810190610352919061320d565b610df0565b6040516103649190613fa5565b60405180910390f35b34801561037957600080fd5b50610382610ea8565b005b34801561039057600080fd5b50610399610f30565b6040516103a69190613ca4565b60405180910390f35b3480156103bb57600080fd5b506103d660048036038101906103d1919061342a565b611036565b6040516103e39190613f83565b60405180910390f35b3480156103f857600080fd5b5061040161126e565b60405161040e9190613c00565b60405180910390f35b34801561042357600080fd5b5061042c611298565b6040516104399190613c1b565b60405180910390f35b34801561044e57600080fd5b506104576112be565b6040516104649190613ce1565b60405180910390f35b34801561047957600080fd5b50610494600480360381019061048f9190613350565b611350565b005b3480156104a257600080fd5b506104bd60048036038101906104b891906132cd565b6114d1565b005b3480156104cb57600080fd5b506104e660048036038101906104e191906134ee565b611931565b005b3480156104f457600080fd5b5061050f600480360381019061050a91906134c1565b611b0a565b60405161051c9190613ce1565b60405180910390f35b61053f600480360381019061053a91906134c1565b611bb1565b005b34801561054d57600080fd5b506105686004803603810190610563919061323a565b612151565b6040516105759190613cc6565b60405180910390f35b34801561058a57600080fd5b506105a560048036038101906105a091906134c1565b6121e5565b005b3480156105b357600080fd5b506105ce60048036038101906105c9919061320d565b61226b565b005b3480156105dc57600080fd5b506105e5612363565b6040516105f29190613c1b565b60405180910390f35b60007f80ac58cd000000000000000000000000000000000000000000000000000000007bffffffffffffffffffffffffffffffffffffffffffffffffffffffff1916827bffffffffffffffffffffffffffffffffffffffffffffffffffffffff191614806106c657507f5b5e139f000000000000000000000000000000000000000000000000000000007bffffffffffffffffffffffffffffffffffffffffffffffffffffffff1916827bffffffffffffffffffffffffffffffffffffffffffffffffffffffff1916145b806106d657506106d582612389565b5b9050919050565b6060600080546106ec90614314565b80601f016020809104026020016040519081016040528092919081815260200182805461071890614314565b80156107655780601f1061073a57610100808354040283529160200191610765565b820191906000526020600020905b81548152906001019060200180831161074857829003601f168201915b5050505050905090565b600061077a826123f3565b6107b9576040517f08c379a00000000000000000000000000000000000000000000000000000000081526004016107b090613e63565b60405180910390fd5b6004600083815260200190815260200160002060009054906101000a900473ffffffffffffffffffffffffffffffffffffffff169050919050565b60006107ff82610d3e565b90508073ffffffffffffffffffffffffffffffffffffffff168373ffffffffffffffffffffffffffffffffffffffff161415610870576040517f08c379a000000000000000000000000000000000000000000000000000000000815260040161086790613ee3565b60405180910390fd5b8073ffffffffffffffffffffffffffffffffffffffff1661088f61245f565b73ffffffffffffffffffffffffffffffffffffffff1614806108be57506108bd816108b861245f565b612151565b5b6108fd576040517f08c379a00000000000000000000000000000000000000000000000000000000081526004016108f490613de3565b60405180910390fd5b6109078383612467565b505050565b61091461245f565b73ffffffffffffffffffffffffffffffffffffffff1661093261126e565b73ffffffffffffffffffffffffffffffffffffffff1614610988576040517f08c379a000000000000000000000000000000000000000000000000000000000815260040161097f90613e83565b60405180910390fd5b505050565b606061099761245f565b73ffffffffffffffffffffffffffffffffffffffff166109b561126e565b73ffffffffffffffffffffffffffffffffffffffff1614610a0b576040517f08c379a0000000000000000000000000000000000000000000000000000000008152600401610a0290613e83565b60405180910390fd5b6007805480602002602001604051908101604052809291908181526020016000905b82821015610b3457838290600052602060002090600602016040518060c001604052908160008201548152602001600182015481526020016002820154815260200160038201548152602001600482018054610a8890614314565b80601f0160208091040260200160405190810160405280929190818152602001828054610ab490614314565b8015610b015780601f10610ad657610100808354040283529160200191610b01565b820191906000526020600020905b815481529060010190602001808311610ae457829003601f168201915b505050505081526020016005820160009054906101000a900460ff16151515158152505081526020019060010190610a2d565b50505050905090565b610b58838383604051806020016040528060008152506114d1565b505050565b610b65612eea565b610b6d61245f565b73ffffffffffffffffffffffffffffffffffffffff16610b8b61126e565b73ffffffffffffffffffffffffffffffffffffffff1614610be1576040517f08c379a0000000000000000000000000000000000000000000000000000000008152600401610bd890613e83565b60405180910390fd5b6008600083815260200190815260200160002060050160009054906101000a900460ff16610c44576040517f08c379a0000000000000000000000000000000000000000000000000000000008152600401610c3b90613f43565b60405180910390fd5b600860008381526020019081526020016000206040518060c001604052908160008201548152602001600182015481526020016002820154815260200160038201548152602001600482018054610c9a90614314565b80601f0160208091040260200160405190810160405280929190818152602001828054610cc690614314565b8015610d135780601f10610ce857610100808354040283529160200191610d13565b820191906000526020600020905b815481529060010190602001808311610cf657829003601f168201915b505050505081526020016005820160009054906101000a900460ff1615151515815250509050919050565b6000806002600084815260200190815260200160002060009054906101000a900473ffffffffffffffffffffffffffffffffffffffff169050600073ffffffffffffffffffffffffffffffffffffffff168173ffffffffffffffffffffffffffffffffffffffff161415610de7576040517f08c379a0000000000000000000000000000000000000000000000000000000008152600401610dde90613e23565b60405180910390fd5b80915050919050565b60008073ffffffffffffffffffffffffffffffffffffffff168273ffffffffffffffffffffffffffffffffffffffff161415610e61576040517f08c379a0000000000000000000000000000000000000000000000000000000008152600401610e5890613e03565b60405180910390fd5b600360008373ffffffffffffffffffffffffffffffffffffffff1673ffffffffffffffffffffffffffffffffffffffff168152602001908152602001600020549050919050565b610eb061245f565b73ffffffffffffffffffffffffffffffffffffffff16610ece61126e565b73ffffffffffffffffffffffffffffffffffffffff1614610f24576040517f08c379a0000000000000000000000000000000000000000000000000000000008152600401610f1b90613e83565b60405180910390fd5b610f2e6000612520565b565b6060600960003373ffffffffffffffffffffffffffffffffffffffff1673ffffffffffffffffffffffffffffffffffffffff168152602001908152602001600020805480602002602001604051908101604052809291908181526020016000905b8282101561102d578382906000526020600020906003020160405180606001604052908160008201548152602001600182015481526020016002820160009054906101000a900473ffffffffffffffffffffffffffffffffffffffff1673ffffffffffffffffffffffffffffffffffffffff1673ffffffffffffffffffffffffffffffffffffffff168152505081526020019060010190610f91565b50505050905090565b61103e612eea565b61104661245f565b73ffffffffffffffffffffffffffffffffffffffff1661106461126e565b73ffffffffffffffffffffffffffffffffffffffff16146110ba576040517f08c379a00000000000000000000000000000000000000000000000000000000081526004016110b190613e83565b60405180910390fd5b6008600086815260200190815260200160002060050160009054906101000a900460ff161561111e576040517f08c379a000000000000000000000000000000000000000000000000000000000815260040161111590613f23565b60405180910390fd5b60006040518060c0016040528087815260200186815260200185815260200184815260200188815260200160011515815250905060078190806001815401808255809150506001900390600052602060002090600602016000909190919091506000820151816000015560208201518160010155604082015181600201556060820151816003015560808201518160040190805190602001906111c2929190612f22565b5060a08201518160050160006101000a81548160ff0219169083151502179055505050806008600088815260200190815260200160002060008201518160000155602082015181600101556040820151816002015560608201518160030155608082015181600401908051906020019061123d929190612f22565b5060a08201518160050160006101000a81548160ff0219169083151502179055509050508091505095945050505050565b6000600660009054906101000a900473ffffffffffffffffffffffffffffffffffffffff16905090565b600b60009054906101000a900473ffffffffffffffffffffffffffffffffffffffff1681565b6060600180546112cd90614314565b80601f01602080910402602001604051908101604052809291908181526020018280546112f990614314565b80156113465780601f1061131b57610100808354040283529160200191611346565b820191906000526020600020905b81548152906001019060200180831161132957829003601f168201915b5050505050905090565b61135861245f565b73ffffffffffffffffffffffffffffffffffffffff168273ffffffffffffffffffffffffffffffffffffffff1614156113c6576040517f08c379a00000000000000000000000000000000000000000000000000000000081526004016113bd90613da3565b60405180910390fd5b80600560006113d361245f565b73ffffffffffffffffffffffffffffffffffffffff1673ffffffffffffffffffffffffffffffffffffffff16815260200190815260200160002060008473ffffffffffffffffffffffffffffffffffffffff1673ffffffffffffffffffffffffffffffffffffffff16815260200190815260200160002060006101000a81548160ff0219169083151502179055508173ffffffffffffffffffffffffffffffffffffffff1661148061245f565b73ffffffffffffffffffffffffffffffffffffffff167f17307eab39ab6107e8899845ad3d59bd9653f200f220920489ca2b5937696c31836040516114c59190613cc6565b60405180910390a35050565b6114e26114dc61245f565b836125e6565b611521576040517f08c379a000000000000000000000000000000000000000000000000000000000815260040161151890613f03565b60405180910390fd5b61152d848484846126c4565b6000600960008673ffffffffffffffffffffffffffffffffffffffff1673ffffffffffffffffffffffffffffffffffffffff168152602001908152602001600020805480602002602001604051908101604052809291908181526020016000905b8282101561162a578382906000526020600020906003020160405180606001604052908160008201548152602001600182015481526020016002820160009054906101000a900473ffffffffffffffffffffffffffffffffffffffff1673ffffffffffffffffffffffffffffffffffffffff1673ffffffffffffffffffffffffffffffffffffffff16815250508152602001906001019061158e565b505050509050600960008673ffffffffffffffffffffffffffffffffffffffff1673ffffffffffffffffffffffffffffffffffffffff168152602001908152602001600020600061167b9190612fa8565b60005b81518110156118d7578382828151811061169b5761169a6144ac565b5b6020026020010151600001511461179157600960008773ffffffffffffffffffffffffffffffffffffffff1673ffffffffffffffffffffffffffffffffffffffff1681526020019081526020016000208282815181106116fe576116fd6144ac565b5b60200260200101519080600181540180825580915050600190039060005260206000209060030201600090919091909150600082015181600001556020820151816001015560408201518160020160006101000a81548173ffffffffffffffffffffffffffffffffffffffff021916908373ffffffffffffffffffffffffffffffffffffffff16021790555050506118c4565b848282815181106117a5576117a46144ac565b5b60200260200101516040019073ffffffffffffffffffffffffffffffffffffffff16908173ffffffffffffffffffffffffffffffffffffffff1681525050600960008673ffffffffffffffffffffffffffffffffffffffff1673ffffffffffffffffffffffffffffffffffffffff168152602001908152602001600020828281518110611835576118346144ac565b5b60200260200101519080600181540180825580915050600190039060005260206000209060030201600090919091909150600082015181600001556020820151816001015560408201518160020160006101000a81548173ffffffffffffffffffffffffffffffffffffffff021916908373ffffffffffffffffffffffffffffffffffffffff16021790555050505b80806118cf90614377565b91505061167e565b5033600a600085815260200190815260200160002060006101000a81548173ffffffffffffffffffffffffffffffffffffffff021916908373ffffffffffffffffffffffffffffffffffffffff1602179055505050505050565b61193961245f565b73ffffffffffffffffffffffffffffffffffffffff1661195761126e565b73ffffffffffffffffffffffffffffffffffffffff16146119ad576040517f08c379a00000000000000000000000000000000000000000000000000000000081526004016119a490613e83565b60405180910390fd5b60005b600780549050811015611b055782600782815481106119d2576119d16144ac565b5b906000526020600020906006020160000154148015611a1557508160078281548110611a0157611a006144ac565b5b906000526020600020906006020160010154105b15611af2578160078281548110611a2f57611a2e6144ac565b5b90600052602060002090600602016001018190555060078181548110611a5857611a576144ac565b5b906000526020600020906006020160086000858152602001908152602001600020600082015481600001556001820154816001015560028201548160020155600382015481600301556004820181600401908054611ab590614314565b611ac0929190612fcc565b506005820160009054906101000a900460ff168160050160006101000a81548160ff0219169083151502179055509050505b8080611afd90614377565b9150506119b0565b505050565b6060611b15826123f3565b611b54576040517f08c379a0000000000000000000000000000000000000000000000000000000008152600401611b4b90613ec3565b60405180910390fd5b6000611b5e612720565b90506000815111611b7e5760405180602001604052806000815250611ba9565b80611b8884612737565b604051602001611b99929190613bb0565b6040516020818303038152906040525b915050919050565b6008600082815260200190815260200160002060050160009054906101000a900460ff16611c14576040517f08c379a0000000000000000000000000000000000000000000000000000000008152600401611c0b90613f43565b60405180910390fd5b600060086000838152602001908152602001600020600101541015611c6e576040517f08c379a0000000000000000000000000000000000000000000000000000000008152600401611c6590613d63565b60405180910390fd5b678ac7230489e80000600e546008600084815260200190815260200160002060030154611c9b9190614163565b611ca59190614194565b341415611ce7576040517f08c379a0000000000000000000000000000000000000000000000000000000008152600401611cde90613f63565b60405180910390fd5b611cef612eea565b60005b600780549050811015611f2c578260078281548110611d1457611d136144ac565b5b9060005260206000209060060201600001541415611f195760078181548110611d4057611d3f6144ac565b5b90600052602060002090600602016040518060c001604052908160008201548152602001600182015481526020016002820154815260200160038201548152602001600482018054611d9190614314565b80601f0160208091040260200160405190810160405280929190818152602001828054611dbd90614314565b8015611e0a5780601f10611ddf57610100808354040283529160200191611e0a565b820191906000526020600020905b815481529060010190602001808311611ded57829003601f168201915b505050505081526020016005820160009054906101000a900460ff161515151581525050915060078181548110611e4457611e436144ac565b5b90600052602060002090600602016001016000815480929190611e66906142ea565b919050555060078181548110611e7f57611e7e6144ac565b5b906000526020600020906006020160086000858152602001908152602001600020600082015481600001556001820154816001015560028201548160020155600382015481600301556004820181600401908054611edc90614314565b611ee7929190612fcc565b506005820160009054906101000a900460ff168160050160006101000a81548160ff0219169083151502179055509050505b8080611f2490614377565b915050611cf2565b5060006402540be400600d5433604051602001611f4a929190613bd4565b6040516020818303038152906040528051906020012060001c611f6d91906143ee565b9050600d6000815480929190611f8290614377565b9190505550611f913382612898565b600b60009054906101000a900473ffffffffffffffffffffffffffffffffffffffff1673ffffffffffffffffffffffffffffffffffffffff166108fc349081150290604051600060405180830381858888f19350505050158015611ff9573d6000803e3d6000fd5b5060006040518060600160405280838152602001846000015181526020013373ffffffffffffffffffffffffffffffffffffffff168152509050600960003373ffffffffffffffffffffffffffffffffffffffff1673ffffffffffffffffffffffffffffffffffffffff168152602001908152602001600020819080600181540180825580915050600190039060005260206000209060030201600090919091909150600082015181600001556020820151816001015560408201518160020160006101000a81548173ffffffffffffffffffffffffffffffffffffffff021916908373ffffffffffffffffffffffffffffffffffffffff160217905550505033600a600084815260200190815260200160002060006101000a81548173ffffffffffffffffffffffffffffffffffffffff021916908373ffffffffffffffffffffffffffffffffffffffff16021790555050505050565b6000600560008473ffffffffffffffffffffffffffffffffffffffff1673ffffffffffffffffffffffffffffffffffffffff16815260200190815260200160002060008373ffffffffffffffffffffffffffffffffffffffff1673ffffffffffffffffffffffffffffffffffffffff16815260200190815260200160002060009054906101000a900460ff16905092915050565b6121ed61245f565b73ffffffffffffffffffffffffffffffffffffffff1661220b61126e565b73ffffffffffffffffffffffffffffffffffffffff1614612261576040517f08c379a000000000000000000000000000000000000000000000000000000000815260040161225890613e83565b60405180910390fd5b80600e8190555050565b61227361245f565b73ffffffffffffffffffffffffffffffffffffffff1661229161126e565b73ffffffffffffffffffffffffffffffffffffffff16146122e7576040517f08c379a00000000000000000000000000000000000000000000000000000000081526004016122de90613e83565b60405180910390fd5b600073ffffffffffffffffffffffffffffffffffffffff168173ffffffffffffffffffffffffffffffffffffffff161415612357576040517f08c379a000000000000000000000000000000000000000000000000000000000815260040161234e90613d23565b60405180910390fd5b61236081612520565b50565b600c60009054906101000a900473ffffffffffffffffffffffffffffffffffffffff1681565b60007f01ffc9a7000000000000000000000000000000000000000000000000000000007bffffffffffffffffffffffffffffffffffffffffffffffffffffffff1916827bffffffffffffffffffffffffffffffffffffffffffffffffffffffff1916149050919050565b60008073ffffffffffffffffffffffffffffffffffffffff166002600084815260200190815260200160002060009054906101000a900473ffffffffffffffffffffffffffffffffffffffff1673ffffffffffffffffffffffffffffffffffffffff1614159050919050565b600033905090565b816004600083815260200190815260200160002060006101000a81548173ffffffffffffffffffffffffffffffffffffffff021916908373ffffffffffffffffffffffffffffffffffffffff160217905550808273ffffffffffffffffffffffffffffffffffffffff166124da83610d3e565b73ffffffffffffffffffffffffffffffffffffffff167f8c5be1e5ebec7d5bd14f71427d1e84f3dd0314c0f7b2291e5b200ac8c7c3b92560405160405180910390a45050565b6000600660009054906101000a900473ffffffffffffffffffffffffffffffffffffffff16905081600660006101000a81548173ffffffffffffffffffffffffffffffffffffffff021916908373ffffffffffffffffffffffffffffffffffffffff1602179055508173ffffffffffffffffffffffffffffffffffffffff168173ffffffffffffffffffffffffffffffffffffffff167f8be0079c531659141344cd1fd0a4f28419497f9722a3daafe3b4186f6b6457e060405160405180910390a35050565b60006125f1826123f3565b612630576040517f08c379a000000000000000000000000000000000000000000000000000000000815260040161262790613dc3565b60405180910390fd5b600061263b83610d3e565b90508073ffffffffffffffffffffffffffffffffffffffff168473ffffffffffffffffffffffffffffffffffffffff1614806126aa57508373ffffffffffffffffffffffffffffffffffffffff166126928461076f565b73ffffffffffffffffffffffffffffffffffffffff16145b806126bb57506126ba8185612151565b5b91505092915050565b6126cf8484846128b6565b6126db84848484612b12565b61271a576040517f08c379a000000000000000000000000000000000000000000000000000000000815260040161271190613d03565b60405180910390fd5b50505050565b606060405180602001604052806000815250905090565b6060600082141561277f576040518060400160405280600181526020017f30000000000000000000000000000000000000000000000000000000000000008152509050612893565b600082905060005b600082146127b157808061279a90614377565b915050600a826127aa9190614163565b9150612787565b60008167ffffffffffffffff8111156127cd576127cc6144db565b5b6040519080825280601f01601f1916602001820160405280156127ff5781602001600182028036833780820191505090505b5090505b6000851461288c5760018261281891906141ee565b9150600a8561282791906143ee565b6030612833919061410d565b60f81b818381518110612849576128486144ac565b5b60200101907effffffffffffffffffffffffffffffffffffffffffffffffffffffffffffff1916908160001a905350600a856128859190614163565b9450612803565b8093505050505b919050565b6128b2828260405180602001604052806000815250612ca9565b5050565b8273ffffffffffffffffffffffffffffffffffffffff166128d682610d3e565b73ffffffffffffffffffffffffffffffffffffffff161461292c576040517f08c379a000000000000000000000000000000000000000000000000000000000815260040161292390613ea3565b60405180910390fd5b600073ffffffffffffffffffffffffffffffffffffffff168273ffffffffffffffffffffffffffffffffffffffff16141561299c576040517f08c379a000000000000000000000000000000000000000000000000000000000815260040161299390613d83565b60405180910390fd5b6129a7838383612d04565b6129b2600082612467565b6001600360008573ffffffffffffffffffffffffffffffffffffffff1673ffffffffffffffffffffffffffffffffffffffff1681526020019081526020016000206000828254612a0291906141ee565b925050819055506001600360008473ffffffffffffffffffffffffffffffffffffffff1673ffffffffffffffffffffffffffffffffffffffff1681526020019081526020016000206000828254612a59919061410d565b92505081905550816002600083815260200190815260200160002060006101000a81548173ffffffffffffffffffffffffffffffffffffffff021916908373ffffffffffffffffffffffffffffffffffffffff160217905550808273ffffffffffffffffffffffffffffffffffffffff168473ffffffffffffffffffffffffffffffffffffffff167fddf252ad1be2c89b69c2b068fc378daa952ba7f163c4a11628f55a4df523b3ef60405160405180910390a4505050565b6000612b338473ffffffffffffffffffffffffffffffffffffffff16612d09565b15612c9c578373ffffffffffffffffffffffffffffffffffffffff1663150b7a02612b5c61245f565b8786866040518563ffffffff1660e01b8152600401612b7e9493929190613c36565b602060405180830381600087803b158015612b9857600080fd5b505af1925050508015612bc957506040513d601f19601f82011682018060405250810190612bc691906133fd565b60015b612c4c573d8060008114612bf9576040519150601f19603f3d011682016040523d82523d6000602084013e612bfe565b606091505b50600081511415612c44576040517f08c379a0000000000000000000000000000000000000000000000000000000008152600401612c3b90613d03565b60405180910390fd5b805181602001fd5b63150b7a0260e01b7bffffffffffffffffffffffffffffffffffffffffffffffffffffffff1916817bffffffffffffffffffffffffffffffffffffffffffffffffffffffff191614915050612ca1565b600190505b949350505050565b612cb38383612d1c565b612cc06000848484612b12565b612cff576040517f08c379a0000000000000000000000000000000000000000000000000000000008152600401612cf690613d03565b60405180910390fd5b505050565b505050565b600080823b905060008111915050919050565b600073ffffffffffffffffffffffffffffffffffffffff168273ffffffffffffffffffffffffffffffffffffffff161415612d8c576040517f08c379a0000000000000000000000000000000000000000000000000000000008152600401612d8390613e43565b60405180910390fd5b612d95816123f3565b15612dd5576040517f08c379a0000000000000000000000000000000000000000000000000000000008152600401612dcc90613d43565b60405180910390fd5b612de160008383612d04565b6001600360008473ffffffffffffffffffffffffffffffffffffffff1673ffffffffffffffffffffffffffffffffffffffff1681526020019081526020016000206000828254612e31919061410d565b92505081905550816002600083815260200190815260200160002060006101000a81548173ffffffffffffffffffffffffffffffffffffffff021916908373ffffffffffffffffffffffffffffffffffffffff160217905550808273ffffffffffffffffffffffffffffffffffffffff16600073ffffffffffffffffffffffffffffffffffffffff167fddf252ad1be2c89b69c2b068fc378daa952ba7f163c4a11628f55a4df523b3ef60405160405180910390a45050565b6040518060c0016040528060008152602001600081526020016000815260200160008152602001606081526020016000151581525090565b828054612f2e90614314565b90600052602060002090601f016020900481019282612f505760008555612f97565b82601f10612f6957805160ff1916838001178555612f97565b82800160010185558215612f97579182015b82811115612f96578251825591602001919060010190612f7b565b5b509050612fa49190613059565b5090565b5080546000825560030290600052602060002090810190612fc99190613076565b50565b828054612fd890614314565b90600052602060002090601f016020900481019282612ffa5760008555613048565b82601f1061300b5780548555613048565b8280016001018555821561304857600052602060002091601f016020900482015b8281111561304757825482559160010191906001019061302c565b5b5090506130559190613059565b5090565b5b8082111561307257600081600090555060010161305a565b5090565b5b808211156130c05760008082016000905560018201600090556002820160006101000a81549073ffffffffffffffffffffffffffffffffffffffff021916905550600301613077565b5090565b60006130d76130d284613fe5565b613fc0565b9050828152602081018484840111156130f3576130f261450f565b5b6130fe8482856142a8565b509392505050565b600061311961311484614016565b613fc0565b9050828152602081018484840111156131355761313461450f565b5b6131408482856142a8565b509392505050565b60008135905061315781614a5e565b92915050565b60008135905061316c81614a75565b92915050565b60008135905061318181614a8c565b92915050565b60008151905061319681614a8c565b92915050565b600082601f8301126131b1576131b061450a565b5b81356131c18482602086016130c4565b91505092915050565b600082601f8301126131df576131de61450a565b5b81356131ef848260208601613106565b91505092915050565b60008135905061320781614aa3565b92915050565b60006020828403121561322357613222614519565b5b600061323184828501613148565b91505092915050565b6000806040838503121561325157613250614519565b5b600061325f85828601613148565b925050602061327085828601613148565b9150509250929050565b60008060006060848603121561329357613292614519565b5b60006132a186828701613148565b93505060206132b286828701613148565b92505060406132c3868287016131f8565b9150509250925092565b600080600080608085870312156132e7576132e6614519565b5b60006132f587828801613148565b945050602061330687828801613148565b9350506040613317878288016131f8565b925050606085013567ffffffffffffffff81111561333857613337614514565b5b6133448782880161319c565b91505092959194509250565b6000806040838503121561336757613366614519565b5b600061337585828601613148565b92505060206133868582860161315d565b9150509250929050565b600080604083850312156133a7576133a6614519565b5b60006133b585828601613148565b92505060206133c6858286016131f8565b9150509250929050565b6000602082840312156133e6576133e5614519565b5b60006133f484828501613172565b91505092915050565b60006020828403121561341357613412614519565b5b600061342184828501613187565b91505092915050565b600080600080600060a0868803121561344657613445614519565b5b600086013567ffffffffffffffff81111561346457613463614514565b5b613470888289016131ca565b9550506020613481888289016131f8565b9450506040613492888289016131f8565b93505060606134a3888289016131f8565b92505060806134b4888289016131f8565b9150509295509295909350565b6000602082840312156134d7576134d6614519565b5b60006134e5848285016131f8565b91505092915050565b6000806040838503121561350557613504614519565b5b6000613513858286016131f8565b9250506020613524858286016131f8565b9150509250929050565b600061353a8383613a27565b905092915050565b600061354e8383613b39565b60608301905092915050565b61356381614234565b82525050565b61357281614222565b82525050565b61358181614222565b82525050565b61359861359382614222565b6143c0565b82525050565b60006135a982614067565b6135b381856140ad565b9350836020820285016135c585614047565b8060005b8581101561360157848403895281516135e2858261352e565b94506135ed83614093565b925060208a019950506001810190506135c9565b50829750879550505050505092915050565b600061361e82614072565b61362881856140be565b935061363383614057565b8060005b8381101561366457815161364b8882613542565b9750613656836140a0565b925050600181019050613637565b5085935050505092915050565b61367a81614246565b82525050565b61368981614246565b82525050565b600061369a8261407d565b6136a481856140cf565b93506136b48185602086016142b7565b6136bd8161451e565b840191505092915050565b60006136d382614088565b6136dd81856140e0565b93506136ed8185602086016142b7565b6136f68161451e565b840191505092915050565b600061370c82614088565b61371681856140f1565b93506137268185602086016142b7565b61372f8161451e565b840191505092915050565b600061374582614088565b61374f8185614102565b935061375f8185602086016142b7565b80840191505092915050565b60006137786032836140f1565b91506137838261453c565b604082019050919050565b600061379b6026836140f1565b91506137a68261458b565b604082019050919050565b60006137be601c836140f1565b91506137c9826145da565b602082019050919050565b60006137e16022836140f1565b91506137ec82614603565b604082019050919050565b60006138046024836140f1565b915061380f82614652565b604082019050919050565b60006138276019836140f1565b9150613832826146a1565b602082019050919050565b600061384a602c836140f1565b9150613855826146ca565b604082019050919050565b600061386d6038836140f1565b915061387882614719565b604082019050919050565b6000613890602a836140f1565b915061389b82614768565b604082019050919050565b60006138b36029836140f1565b91506138be826147b7565b604082019050919050565b60006138d66020836140f1565b91506138e182614806565b602082019050919050565b60006138f9602c836140f1565b91506139048261482f565b604082019050919050565b600061391c6020836140f1565b91506139278261487e565b602082019050919050565b600061393f6029836140f1565b915061394a826148a7565b604082019050919050565b6000613962602f836140f1565b915061396d826148f6565b604082019050919050565b60006139856021836140f1565b915061399082614945565b604082019050919050565b60006139a86031836140f1565b91506139b382614994565b604082019050919050565b60006139cb6011836140f1565b91506139d6826149e3565b602082019050919050565b60006139ee6011836140f1565b91506139f982614a0c565b602082019050919050565b6000613a116010836140f1565b9150613a1c82614a35565b602082019050919050565b600060c083016000830151613a3f6000860182613b7b565b506020830151613a526020860182613b7b565b506040830151613a656040860182613b7b565b506060830151613a786060860182613b7b565b5060808301518482036080860152613a9082826136c8565b91505060a0830151613aa560a0860182613671565b508091505092915050565b600060c083016000830151613ac86000860182613b7b565b506020830151613adb6020860182613b7b565b506040830151613aee6040860182613b7b565b506060830151613b016060860182613b7b565b5060808301518482036080860152613b1982826136c8565b91505060a0830151613b2e60a0860182613671565b508091505092915050565b606082016000820151613b4f6000850182613b7b565b506020820151613b626020850182613b7b565b506040820151613b756040850182613569565b50505050565b613b848161429e565b82525050565b613b938161429e565b82525050565b613baa613ba58261429e565b6143e4565b82525050565b6000613bbc828561373a565b9150613bc8828461373a565b91508190509392505050565b6000613be08285613b99565b602082019150613bf08284613587565b6014820191508190509392505050565b6000602082019050613c156000830184613578565b92915050565b6000602082019050613c30600083018461355a565b92915050565b6000608082019050613c4b6000830187613578565b613c586020830186613578565b613c656040830185613b8a565b8181036060830152613c77818461368f565b905095945050505050565b60006020820190508181036000830152613c9c818461359e565b905092915050565b60006020820190508181036000830152613cbe8184613613565b905092915050565b6000602082019050613cdb6000830184613680565b92915050565b60006020820190508181036000830152613cfb8184613701565b905092915050565b60006020820190508181036000830152613d1c8161376b565b9050919050565b60006020820190508181036000830152613d3c8161378e565b9050919050565b60006020820190508181036000830152613d5c816137b1565b9050919050565b60006020820190508181036000830152613d7c816137d4565b9050919050565b60006020820190508181036000830152613d9c816137f7565b9050919050565b60006020820190508181036000830152613dbc8161381a565b9050919050565b60006020820190508181036000830152613ddc8161383d565b9050919050565b60006020820190508181036000830152613dfc81613860565b9050919050565b60006020820190508181036000830152613e1c81613883565b9050919050565b60006020820190508181036000830152613e3c816138a6565b9050919050565b60006020820190508181036000830152613e5c816138c9565b9050919050565b60006020820190508181036000830152613e7c816138ec565b9050919050565b60006020820190508181036000830152613e9c8161390f565b9050919050565b60006020820190508181036000830152613ebc81613932565b9050919050565b60006020820190508181036000830152613edc81613955565b9050919050565b60006020820190508181036000830152613efc81613978565b9050919050565b60006020820190508181036000830152613f1c8161399b565b9050919050565b60006020820190508181036000830152613f3c816139be565b9050919050565b60006020820190508181036000830152613f5c816139e1565b9050919050565b60006020820190508181036000830152613f7c81613a04565b9050919050565b60006020820190508181036000830152613f9d8184613ab0565b905092915050565b6000602082019050613fba6000830184613b8a565b92915050565b6000613fca613fdb565b9050613fd68282614346565b919050565b6000604051905090565b600067ffffffffffffffff82111561400057613fff6144db565b5b6140098261451e565b9050602081019050919050565b600067ffffffffffffffff821115614031576140306144db565b5b61403a8261451e565b9050602081019050919050565b6000819050602082019050919050565b6000819050602082019050919050565b600081519050919050565b600081519050919050565b600081519050919050565b600081519050919050565b6000602082019050919050565b6000602082019050919050565b600082825260208201905092915050565b600082825260208201905092915050565b600082825260208201905092915050565b600082825260208201905092915050565b600082825260208201905092915050565b600081905092915050565b60006141188261429e565b91506141238361429e565b9250827fffffffffffffffffffffffffffffffffffffffffffffffffffffffffffffffff038211156141585761415761441f565b5b828201905092915050565b600061416e8261429e565b91506141798361429e565b9250826141895761418861444e565b5b828204905092915050565b600061419f8261429e565b91506141aa8361429e565b9250817fffffffffffffffffffffffffffffffffffffffffffffffffffffffffffffffff04831182151516156141e3576141e261441f565b5b828202905092915050565b60006141f98261429e565b91506142048361429e565b9250828210156142175761421661441f565b5b828203905092915050565b600061422d8261427e565b9050919050565b600061423f8261427e565b9050919050565b60008115159050919050565b60007fffffffff0000000000000000000000000000000000000000000000000000000082169050919050565b600073ffffffffffffffffffffffffffffffffffffffff82169050919050565b6000819050919050565b82818337600083830152505050565b60005b838110156142d55780820151818401526020810190506142ba565b838111156142e4576000848401525b50505050565b60006142f58261429e565b915060008214156143095761430861441f565b5b600182039050919050565b6000600282049050600182168061432c57607f821691505b602082108114156143405761433f61447d565b5b50919050565b61434f8261451e565b810181811067ffffffffffffffff8211171561436e5761436d6144db565b5b80604052505050565b60006143828261429e565b91507fffffffffffffffffffffffffffffffffffffffffffffffffffffffffffffffff8214156143b5576143b461441f565b5b600182019050919050565b60006143cb826143d2565b9050919050565b60006143dd8261452f565b9050919050565b6000819050919050565b60006143f98261429e565b91506144048361429e565b9250826144145761441361444e565b5b828206905092915050565b7f4e487b7100000000000000000000000000000000000000000000000000000000600052601160045260246000fd5b7f4e487b7100000000000000000000000000000000000000000000000000000000600052601260045260246000fd5b7f4e487b7100000000000000000000000000000000000000000000000000000000600052602260045260246000fd5b7f4e487b7100000000000000000000000000000000000000000000000000000000600052603260045260246000fd5b7f4e487b7100000000000000000000000000000000000000000000000000000000600052604160045260246000fd5b600080fd5b600080fd5b600080fd5b600080fd5b6000601f19601f8301169050919050565b60008160601b9050919050565b7f4552433732313a207472616e7366657220746f206e6f6e20455243373231526560008201527f63656976657220696d706c656d656e7465720000000000000000000000000000602082015250565b7f4f776e61626c653a206e6577206f776e657220697320746865207a65726f206160008201527f6464726573730000000000000000000000000000000000000000000000000000602082015250565b7f4552433732313a20746f6b656e20616c7265616479206d696e74656400000000600082015250565b7f5468657265206973206e6f206d6f726520706f6c6974696320617661696c616260008201527f6c65000000000000000000000000000000000000000000000000000000000000602082015250565b7f4552433732313a207472616e7366657220746f20746865207a65726f2061646460008201527f7265737300000000000000000000000000000000000000000000000000000000602082015250565b7f4552433732313a20617070726f766520746f2063616c6c657200000000000000600082015250565b7f4552433732313a206f70657261746f7220717565727920666f72206e6f6e657860008201527f697374656e7420746f6b656e0000000000000000000000000000000000000000602082015250565b7f4552433732313a20617070726f76652063616c6c6572206973206e6f74206f7760008201527f6e6572206e6f7220617070726f76656420666f7220616c6c0000000000000000602082015250565b7f4552433732313a2062616c616e636520717565727920666f7220746865207a6560008201527f726f206164647265737300000000000000000000000000000000000000000000602082015250565b7f4552433732313a206f776e657220717565727920666f72206e6f6e657869737460008201527f656e7420746f6b656e0000000000000000000000000000000000000000000000602082015250565b7f4552433732313a206d696e7420746f20746865207a65726f2061646472657373600082015250565b7f4552433732313a20617070726f76656420717565727920666f72206e6f6e657860008201527f697374656e7420746f6b656e0000000000000000000000000000000000000000602082015250565b7f4f776e61626c653a2063616c6c6572206973206e6f7420746865206f776e6572600082015250565b7f4552433732313a207472616e73666572206f6620746f6b656e2074686174206960008201527f73206e6f74206f776e0000000000000000000000000000000000000000000000602082015250565b7f4552433732314d657461646174613a2055524920717565727920666f72206e6f60008201527f6e6578697374656e7420746f6b656e0000000000000000000000000000000000602082015250565b7f4552433732313a20617070726f76616c20746f2063757272656e74206f776e6560008201527f7200000000000000000000000000000000000000000000000000000000000000602082015250565b7f4552433732313a207472616e736665722063616c6c6572206973206e6f74206f60008201527f776e6572206e6f7220617070726f766564000000000000000000000000000000602082015250565b7f696420616c726561647920696e20757365000000000000000000000000000000600082015250565b7f506f6c69746963206e6f7420666f756e64000000000000000000000000000000600082015250565b7f496e636f727265637420616d6f756e7400000000000000000000000000000000600082015250565b614a6781614222565b8114614a7257600080fd5b50565b614a7e81614246565b8114614a8957600080fd5b50565b614a9581614252565b8114614aa057600080fd5b50565b614aac8161429e565b8114614ab757600080fd5b5056fea26469706673582212208984f9441ca887833e3972094f2b0d45b362ec298961bc03d003102423c2f3c964736f6c63430008070033",
  "immutableReferences": {},
  "source": "// SPDX-License-Identifier: MIT\n\npragma solidity ^0.8.0;\nimport \"./Lottery.sol\";\n\n\ncontract LotteryFactory is Lottery {\n}",
  "sourcePath": "/home/youness/Crypto/PoliticsCollectible/contracts/LotteryFactory.sol",
  "compiler": {
    "name": "solc",
    "version": "0.8.7+commit.e28d00a7.Emscripten.clang"
  },
  "schemaVersion": "3.4.3",
  "updatedAt": "2021-08-27T13:52:25.059Z",
  "devdoc": {
    "kind": "dev",
    "methods": {
      "approve(address,uint256)": {
        "details": "See {IERC721-approve}."
      },
      "balanceOf(address)": {
        "details": "See {IERC721-balanceOf}."
      },
      "getApproved(uint256)": {
        "details": "See {IERC721-getApproved}."
      },
      "isApprovedForAll(address,address)": {
        "details": "See {IERC721-isApprovedForAll}."
      },
      "name()": {
        "details": "See {IERC721Metadata-name}."
      },
      "owner()": {
        "details": "Returns the address of the current owner."
      },
      "ownerOf(uint256)": {
        "details": "See {IERC721-ownerOf}."
      },
      "renounceOwnership()": {
        "details": "Leaves the contract without owner. It will not be possible to call `onlyOwner` functions anymore. Can only be called by the current owner. NOTE: Renouncing ownership will leave the contract without an owner, thereby removing any functionality that is only available to the owner."
      },
      "safeTransferFrom(address,address,uint256)": {
        "details": "See {IERC721-safeTransferFrom}."
      },
      "safeTransferFrom(address,address,uint256,bytes)": {
        "details": "See {IERC721-safeTransferFrom}."
      },
      "setApprovalForAll(address,bool)": {
        "details": "See {IERC721-setApprovalForAll}."
      },
      "supportsInterface(bytes4)": {
        "details": "See {IERC165-supportsInterface}."
      },
      "symbol()": {
        "details": "See {IERC721Metadata-symbol}."
      },
      "tokenURI(uint256)": {
        "details": "See {IERC721Metadata-tokenURI}."
      },
      "transferFrom(address,address,uint256)": {
        "details": "See {IERC721-transferFrom}."
      },
      "transferOwnership(address)": {
        "details": "Transfers ownership of the contract to a new account (`newOwner`). Can only be called by the current owner."
      }
    },
    "version": 1
  },
  "userdoc": {
    "kind": "user",
    "methods": {},
    "version": 1
  }
}