{
  "contractName": "Lottery",
  "abi": [
    {
      "anonymous": false,
      "inputs": [
        {
          "indexed": true,
          "internalType": "address",
          "name": "owner",
          "type": "address"
        },
        {
          "indexed": true,
          "internalType": "address",
          "name": "approved",
          "type": "address"
        },
        {
          "indexed": true,
          "internalType": "uint256",
          "name": "tokenId",
          "type": "uint256"
        }
      ],
      "name": "Approval",
      "type": "event"
    },
    {
      "anonymous": false,
      "inputs": [
        {
          "indexed": true,
          "internalType": "address",
          "name": "owner",
          "type": "address"
        },
        {
          "indexed": true,
          "internalType": "address",
          "name": "operator",
          "type": "address"
        },
        {
          "indexed": false,
          "internalType": "bool",
          "name": "approved",
          "type": "bool"
        }
      ],
      "name": "ApprovalForAll",
      "type": "event"
    },
    {
      "anonymous": false,
      "inputs": [
        {
          "indexed": true,
          "internalType": "address",
          "name": "previousOwner",
          "type": "address"
        },
        {
          "indexed": true,
          "internalType": "address",
          "name": "newOwner",
          "type": "address"
        }
      ],
      "name": "OwnershipTransferred",
      "type": "event"
    },
    {
      "anonymous": false,
      "inputs": [
        {
          "indexed": true,
          "internalType": "address",
          "name": "from",
          "type": "address"
        },
        {
          "indexed": true,
          "internalType": "address",
          "name": "to",
          "type": "address"
        },
        {
          "indexed": true,
          "internalType": "uint256",
          "name": "tokenId",
          "type": "uint256"
        }
      ],
      "name": "Transfer",
      "type": "event"
    },
    {
      "inputs": [
        {
          "internalType": "uint256",
          "name": "_id",
          "type": "uint256"
        },
        {
          "internalType": "uint256",
          "name": "_qty",
          "type": "uint256"
        }
      ],
      "name": "addQty",
      "outputs": [],
      "stateMutability": "nonpayable",
      "type": "function"
    },
    {
      "inputs": [
        {
          "internalType": "address",
          "name": "to",
          "type": "address"
        },
        {
          "internalType": "uint256",
          "name": "tokenId",
          "type": "uint256"
        }
      ],
      "name": "approve",
      "outputs": [],
      "stateMutability": "nonpayable",
      "type": "function"
    },
    {
      "inputs": [
        {
          "internalType": "uint256",
          "name": "",
          "type": "uint256"
        }
      ],
      "name": "arrayLotteryAvailable",
      "outputs": [
        {
          "internalType": "uint256",
          "name": "",
          "type": "uint256"
        }
      ],
      "stateMutability": "view",
      "type": "function"
    },
    {
      "inputs": [
        {
          "internalType": "uint256",
          "name": "",
          "type": "uint256"
        }
      ],
      "name": "arrayPoliticiansOnSale",
      "outputs": [
        {
          "internalType": "uint256",
          "name": "",
          "type": "uint256"
        }
      ],
      "stateMutability": "view",
      "type": "function"
    },
    {
      "inputs": [
        {
          "internalType": "address",
          "name": "owner",
          "type": "address"
        }
      ],
      "name": "balanceOf",
      "outputs": [
        {
          "internalType": "uint256",
          "name": "",
          "type": "uint256"
        }
      ],
      "stateMutability": "view",
      "type": "function"
    },
    {
      "inputs": [
        {
          "internalType": "uint256",
          "name": "_id",
          "type": "uint256"
        }
      ],
      "name": "buy",
      "outputs": [],
      "stateMutability": "payable",
      "type": "function"
    },
    {
      "inputs": [
        {
          "internalType": "uint256",
          "name": "_tokenId",
          "type": "uint256"
        }
      ],
      "name": "buyPoliticsForSale",
      "outputs": [],
      "stateMutability": "payable",
      "type": "function"
    },
    {
      "inputs": [
        {
          "internalType": "uint256",
          "name": "_tokenId",
          "type": "uint256"
        }
      ],
      "name": "cancelSell",
      "outputs": [],
      "stateMutability": "nonpayable",
      "type": "function"
    },
    {
      "inputs": [],
      "name": "contractAddress",
      "outputs": [
        {
          "internalType": "address payable",
          "name": "",
          "type": "address"
        }
      ],
      "stateMutability": "view",
      "type": "function"
    },
    {
      "inputs": [
        {
          "internalType": "string",
          "name": "_name",
          "type": "string"
        },
        {
          "internalType": "uint256",
          "name": "_id",
          "type": "uint256"
        },
        {
          "internalType": "uint256",
          "name": "_qty",
          "type": "uint256"
        },
        {
          "internalType": "uint256",
          "name": "_level",
          "type": "uint256"
        },
        {
          "internalType": "uint256",
          "name": "_price",
          "type": "uint256"
        },
        {
          "internalType": "bool",
          "name": "_lottery",
          "type": "bool"
        }
      ],
      "name": "create",
      "outputs": [
        {
          "components": [
            {
              "internalType": "uint256",
              "name": "id",
              "type": "uint256"
            },
            {
              "internalType": "uint256",
              "name": "qty",
              "type": "uint256"
            },
            {
              "internalType": "uint256",
              "name": "level",
              "type": "uint256"
            },
            {
              "internalType": "uint256",
              "name": "price",
              "type": "uint256"
            },
            {
              "internalType": "string",
              "name": "name",
              "type": "string"
            },
            {
              "internalType": "bool",
              "name": "lottery",
              "type": "bool"
            },
            {
              "internalType": "bool",
              "name": "created",
              "type": "bool"
            }
          ],
          "internalType": "struct Collectible.PoliticsAvailable",
          "name": "",
          "type": "tuple"
        }
      ],
      "stateMutability": "nonpayable",
      "type": "function"
    },
    {
      "inputs": [
        {
          "internalType": "uint256",
          "name": "_tokenId",
          "type": "uint256"
        },
        {
          "internalType": "uint256",
          "name": "_price",
          "type": "uint256"
        }
      ],
      "name": "forSale",
      "outputs": [],
      "stateMutability": "nonpayable",
      "type": "function"
    },
    {
      "inputs": [
        {
          "internalType": "uint256",
          "name": "tokenId",
          "type": "uint256"
        }
      ],
      "name": "getApproved",
      "outputs": [
        {
          "internalType": "address",
          "name": "",
          "type": "address"
        }
      ],
      "stateMutability": "view",
      "type": "function"
    },
    {
      "inputs": [],
      "name": "getMyPolitics",
      "outputs": [
        {
          "components": [
            {
              "internalType": "uint256",
              "name": "id",
              "type": "uint256"
            },
            {
              "internalType": "uint256",
              "name": "id_politic",
              "type": "uint256"
            },
            {
              "internalType": "address",
              "name": "owner",
              "type": "address"
            }
          ],
          "internalType": "struct Collectible.PoliticsOwned[]",
          "name": "",
          "type": "tuple[]"
        }
      ],
      "stateMutability": "view",
      "type": "function"
    },
    {
      "inputs": [
        {
          "internalType": "uint256",
          "name": "_id",
          "type": "uint256"
        }
      ],
      "name": "getPolitic",
      "outputs": [
        {
          "components": [
            {
              "internalType": "uint256",
              "name": "id",
              "type": "uint256"
            },
            {
              "internalType": "uint256",
              "name": "qty",
              "type": "uint256"
            },
            {
              "internalType": "uint256",
              "name": "level",
              "type": "uint256"
            },
            {
              "internalType": "uint256",
              "name": "price",
              "type": "uint256"
            },
            {
              "internalType": "string",
              "name": "name",
              "type": "string"
            },
            {
              "internalType": "bool",
              "name": "lottery",
              "type": "bool"
            },
            {
              "internalType": "bool",
              "name": "created",
              "type": "bool"
            }
          ],
          "internalType": "struct Collectible.PoliticsAvailable",
          "name": "",
          "type": "tuple"
        }
      ],
      "stateMutability": "view",
      "type": "function"
    },
    {
      "inputs": [],
      "name": "getPolitics",
      "outputs": [
        {
          "components": [
            {
              "internalType": "uint256",
              "name": "id",
              "type": "uint256"
            },
            {
              "internalType": "uint256",
              "name": "qty",
              "type": "uint256"
            },
            {
              "internalType": "uint256",
              "name": "level",
              "type": "uint256"
            },
            {
              "internalType": "uint256",
              "name": "price",
              "type": "uint256"
            },
            {
              "internalType": "string",
              "name": "name",
              "type": "string"
            },
            {
              "internalType": "bool",
              "name": "lottery",
              "type": "bool"
            },
            {
              "internalType": "bool",
              "name": "created",
              "type": "bool"
            }
          ],
          "internalType": "struct Collectible.PoliticsAvailable[]",
          "name": "",
          "type": "tuple[]"
        }
      ],
      "stateMutability": "view",
      "type": "function"
    },
    {
      "inputs": [
        {
          "internalType": "address",
          "name": "owner",
          "type": "address"
        },
        {
          "internalType": "address",
          "name": "operator",
          "type": "address"
        }
      ],
      "name": "isApprovedForAll",
      "outputs": [
        {
          "internalType": "bool",
          "name": "",
          "type": "bool"
        }
      ],
      "stateMutability": "view",
      "type": "function"
    },
    {
      "inputs": [],
      "name": "name",
      "outputs": [
        {
          "internalType": "string",
          "name": "",
          "type": "string"
        }
      ],
      "stateMutability": "view",
      "type": "function"
    },
    {
      "inputs": [
        {
          "internalType": "address",
          "name": "",
          "type": "address"
        },
        {
          "internalType": "address",
          "name": "",
          "type": "address"
        },
        {
          "internalType": "uint256",
          "name": "",
          "type": "uint256"
        },
        {
          "internalType": "bytes",
          "name": "",
          "type": "bytes"
        }
      ],
      "name": "onERC721Received",
      "outputs": [
        {
          "internalType": "bytes4",
          "name": "",
          "type": "bytes4"
        }
      ],
      "stateMutability": "nonpayable",
      "type": "function"
    },
    {
      "inputs": [],
      "name": "owner",
      "outputs": [
        {
          "internalType": "address",
          "name": "",
          "type": "address"
        }
      ],
      "stateMutability": "view",
      "type": "function"
    },
    {
      "inputs": [],
      "name": "ownerAddress",
      "outputs": [
        {
          "internalType": "address payable",
          "name": "",
          "type": "address"
        }
      ],
      "stateMutability": "view",
      "type": "function"
    },
    {
      "inputs": [
        {
          "internalType": "uint256",
          "name": "tokenId",
          "type": "uint256"
        }
      ],
      "name": "ownerOf",
      "outputs": [
        {
          "internalType": "address",
          "name": "",
          "type": "address"
        }
      ],
      "stateMutability": "view",
      "type": "function"
    },
    {
      "inputs": [],
      "name": "renounceOwnership",
      "outputs": [],
      "stateMutability": "nonpayable",
      "type": "function"
    },
    {
      "inputs": [
        {
          "internalType": "address",
          "name": "from",
          "type": "address"
        },
        {
          "internalType": "address",
          "name": "to",
          "type": "address"
        },
        {
          "internalType": "uint256",
          "name": "tokenId",
          "type": "uint256"
        }
      ],
      "name": "safeTransferFrom",
      "outputs": [],
      "stateMutability": "nonpayable",
      "type": "function"
    },
    {
      "inputs": [
        {
          "internalType": "address",
          "name": "from",
          "type": "address"
        },
        {
          "internalType": "address",
          "name": "to",
          "type": "address"
        },
        {
          "internalType": "uint256",
          "name": "tokenId",
          "type": "uint256"
        },
        {
          "internalType": "bytes",
          "name": "_data",
          "type": "bytes"
        }
      ],
      "name": "safeTransferFrom",
      "outputs": [],
      "stateMutability": "nonpayable",
      "type": "function"
    },
    {
      "inputs": [
        {
          "internalType": "address",
          "name": "operator",
          "type": "address"
        },
        {
          "internalType": "bool",
          "name": "approved",
          "type": "bool"
        }
      ],
      "name": "setApprovalForAll",
      "outputs": [],
      "stateMutability": "nonpayable",
      "type": "function"
    },
    {
      "inputs": [
        {
          "internalType": "bytes4",
          "name": "interfaceId",
          "type": "bytes4"
        }
      ],
      "name": "supportsInterface",
      "outputs": [
        {
          "internalType": "bool",
          "name": "",
          "type": "bool"
        }
      ],
      "stateMutability": "view",
      "type": "function"
    },
    {
      "inputs": [],
      "name": "symbol",
      "outputs": [
        {
          "internalType": "string",
          "name": "",
          "type": "string"
        }
      ],
      "stateMutability": "view",
      "type": "function"
    },
    {
      "inputs": [
        {
          "internalType": "uint256",
          "name": "tokenId",
          "type": "uint256"
        }
      ],
      "name": "tokenURI",
      "outputs": [
        {
          "internalType": "string",
          "name": "",
          "type": "string"
        }
      ],
      "stateMutability": "view",
      "type": "function"
    },
    {
      "inputs": [
        {
          "internalType": "address",
          "name": "from",
          "type": "address"
        },
        {
          "internalType": "address",
          "name": "to",
          "type": "address"
        },
        {
          "internalType": "uint256",
          "name": "tokenId",
          "type": "uint256"
        }
      ],
      "name": "transferFrom",
      "outputs": [],
      "stateMutability": "nonpayable",
      "type": "function"
    },
    {
      "inputs": [
        {
          "internalType": "address",
          "name": "newOwner",
          "type": "address"
        }
      ],
      "name": "transferOwnership",
      "outputs": [],
      "stateMutability": "nonpayable",
      "type": "function"
    },
    {
      "inputs": [
        {
          "internalType": "uint256",
          "name": "",
          "type": "uint256"
        },
        {
          "internalType": "uint256",
          "name": "",
          "type": "uint256"
        }
      ],
      "name": "userPlayedLottery",
      "outputs": [
        {
          "internalType": "address",
          "name": "",
          "type": "address"
        }
      ],
      "stateMutability": "view",
      "type": "function"
    },
    {
      "inputs": [
        {
          "internalType": "uint256",
          "name": "_id",
          "type": "uint256"
        },
        {
          "internalType": "uint256",
          "name": "_id_politics",
          "type": "uint256"
        },
        {
          "internalType": "uint256",
          "name": "_end_time",
          "type": "uint256"
        },
        {
          "internalType": "uint256",
          "name": "_price",
          "type": "uint256"
        },
        {
          "internalType": "uint256",
          "name": "_ticket_available",
          "type": "uint256"
        }
      ],
      "name": "createLottery",
      "outputs": [],
      "stateMutability": "nonpayable",
      "type": "function"
    },
    {
      "inputs": [
        {
          "internalType": "uint256",
          "name": "_id",
          "type": "uint256"
        }
      ],
      "name": "playLottery",
      "outputs": [],
      "stateMutability": "payable",
      "type": "function"
    },
    {
      "inputs": [
        {
          "internalType": "uint256",
          "name": "_id",
          "type": "uint256"
        }
      ],
      "name": "onEndLottery",
      "outputs": [],
      "stateMutability": "nonpayable",
      "type": "function"
    }
  ],
  "bytecode": "0x60806040526001600d5560056010553480156200001b57600080fd5b506040518060400160405280600b81526020017f506f6c69746963734e66740000000000000000000000000000000000000000008152506040518060400160405280600381526020017f504f4c00000000000000000000000000000000000000000000000000000000008152508160009080519060200190620000a092919062000232565b508060019080519060200190620000b992919062000232565b505050620000dc620000d06200016460201b60201c565b6200016c60201b60201c565b33600b60006101000a81548173ffffffffffffffffffffffffffffffffffffffff021916908373ffffffffffffffffffffffffffffffffffffffff16021790555030600c60006101000a81548173ffffffffffffffffffffffffffffffffffffffff021916908373ffffffffffffffffffffffffffffffffffffffff16021790555062000347565b600033905090565b6000600660009054906101000a900473ffffffffffffffffffffffffffffffffffffffff16905081600660006101000a81548173ffffffffffffffffffffffffffffffffffffffff021916908373ffffffffffffffffffffffffffffffffffffffff1602179055508173ffffffffffffffffffffffffffffffffffffffff168173ffffffffffffffffffffffffffffffffffffffff167f8be0079c531659141344cd1fd0a4f28419497f9722a3daafe3b4186f6b6457e060405160405180910390a35050565b8280546200024090620002e2565b90600052602060002090601f016020900481019282620002645760008555620002b0565b82601f106200027f57805160ff1916838001178555620002b0565b82800160010185558215620002b0579182015b82811115620002af57825182559160200191906001019062000292565b5b509050620002bf9190620002c3565b5090565b5b80821115620002de576000816000905550600101620002c4565b5090565b60006002820490506001821680620002fb57607f821691505b6020821081141562000312576200031162000318565b5b50919050565b7f4e487b7100000000000000000000000000000000000000000000000000000000600052602260045260246000fd5b61666080620003576000396000f3fe6080604052600436106101f95760003560e01c806385d334361161010d578063b88d4fde116100a0578063d96a094a1161006f578063d96a094a1461075f578063e7e6c81c1461077b578063e985e9c5146107a4578063f2fde38b146107e1578063f6b4dfb41461080a576101f9565b8063b88d4fde14610693578063b9db1c98146106bc578063bf6e9bb2146106e5578063c87b56dd14610722576101f9565b80638fedc864116100dc5780638fedc864146105d9578063935b8d971461061657806395d89b411461063f578063a22cb4651461066a576101f9565b806385d334361461051b5780638cd61e21146105465780638da5cb5b146105835780638f84aa09146105ae576101f9565b806323b872dd1161019057806354b3efa61161015f57806354b3efa6146104245780635ad16b7f1461044d5780636352211e1461048a57806370a08231146104c7578063715018a614610504576101f9565b806323b872dd1461038b57806330f105cd146103b457806342842e0e146103df578063546f9e6714610408576101f9565b8063081812fc116101cc578063081812fc146102ab578063095ea7b3146102e85780631114327714610311578063150b7a021461034e576101f9565b806301ffc9a7146101fe57806303ddcab81461023b57806306fdde031461025757806307c9cd4514610282575b600080fd5b34801561020a57600080fd5b506102256004803603810190610220919061481f565b610835565b60405161023291906153e4565b60405180910390f35b61025560048036038101906102509190614922565b610917565b005b34801561026357600080fd5b5061026c610d21565b604051610279919061541a565b60405180910390f35b34801561028e57600080fd5b506102a960048036038101906102a49190614922565b610db3565b005b3480156102b757600080fd5b506102d260048036038101906102cd9190614922565b610f23565b6040516102df91906152e7565b60405180910390f35b3480156102f457600080fd5b5061030f600480360381019061030a91906147df565b610fa8565b005b34801561031d57600080fd5b5061033860048036038101906103339190614879565b6110c0565b604051610345919061585c565b60405180910390f35b34801561035a57600080fd5b506103756004803603810190610370919061471c565b611341565b60405161038291906153ff565b60405180910390f35b34801561039757600080fd5b506103b260048036038101906103ad91906146c9565b611355565b005b3480156103c057600080fd5b506103c96113d6565b6040516103d691906153a0565b60405180910390f35b3480156103eb57600080fd5b50610406600480360381019061040191906146c9565b6115a1565b005b610422600480360381019061041d9190614922565b6115c1565b005b34801561043057600080fd5b5061044b6004803603810190610446919061494f565b611923565b005b34801561045957600080fd5b50610474600480360381019061046f9190614922565b611afe565b604051610481919061585c565b60405180910390f35b34801561049657600080fd5b506104b160048036038101906104ac9190614922565b611cfa565b6040516104be91906152e7565b60405180910390f35b3480156104d357600080fd5b506104ee60048036038101906104e9919061465c565b611dac565b6040516104fb919061587e565b60405180910390f35b34801561051057600080fd5b50610519611e64565b005b34801561052757600080fd5b50610530611eec565b60405161053d91906153c2565b60405180910390f35b34801561055257600080fd5b5061056d6004803603810190610568919061494f565b611ff2565b60405161057a91906152e7565b60405180910390f35b34801561058f57600080fd5b50610598612040565b6040516105a591906152e7565b60405180910390f35b3480156105ba57600080fd5b506105c361206a565b6040516105d09190615302565b60405180910390f35b3480156105e557600080fd5b5061060060048036038101906105fb9190614922565b612090565b60405161060d919061587e565b60405180910390f35b34801561062257600080fd5b5061063d60048036038101906106389190614922565b6120b4565b005b34801561064b57600080fd5b50610654612268565b604051610661919061541a565b60405180910390f35b34801561067657600080fd5b50610691600480360381019061068c919061479f565b6122fa565b005b34801561069f57600080fd5b506106ba60048036038101906106b5919061471c565b61247b565b005b3480156106c857600080fd5b506106e360048036038101906106de919061494f565b6124e8565b005b3480156106f157600080fd5b5061070c60048036038101906107079190614922565b6126ee565b604051610719919061587e565b60405180910390f35b34801561072e57600080fd5b5061074960048036038101906107449190614922565b612712565b604051610756919061541a565b60405180910390f35b61077960048036038101906107749190614922565b6127b9565b005b34801561078757600080fd5b506107a2600480360381019061079d919061498f565b612e03565b005b3480156107b057600080fd5b506107cb60048036038101906107c69190614689565b6130f2565b6040516107d891906153e4565b60405180910390f35b3480156107ed57600080fd5b506108086004803603810190610803919061465c565b613186565b005b34801561081657600080fd5b5061081f61327e565b60405161082c9190615302565b60405180910390f35b60007f80ac58cd000000000000000000000000000000000000000000000000000000007bffffffffffffffffffffffffffffffffffffffffffffffffffffffff1916827bffffffffffffffffffffffffffffffffffffffffffffffffffffffff1916148061090057507f5b5e139f000000000000000000000000000000000000000000000000000000007bffffffffffffffffffffffffffffffffffffffffffffffffffffffff1916827bffffffffffffffffffffffffffffffffffffffffffffffffffffffff1916145b80610910575061090f826132a4565b5b9050919050565b6103e8670de0b6b3a764000060126000848152602001908152602001600020600301546109449190615a6d565b61094e9190615a3c565b341461098f576040517f08c379a00000000000000000000000000000000000000000000000000000000081526004016109869061583c565b60405180910390fd5b6012600082815260200190815260200160002060060160009054906101000a900460ff166109f2576040517f08c379a00000000000000000000000000000000000000000000000000000000081526004016109e9906157fc565b60405180910390fd5b42601260008381526020019081526020016000206002015411610a4a576040517f08c379a0000000000000000000000000000000000000000000000000000000008152600401610a41906157fc565b60405180910390fd5b6000601260008381526020019081526020016000206005015411610aa3576040517f08c379a0000000000000000000000000000000000000000000000000000000008152600401610a9a906157fc565b60405180910390fd5b600060116000838152602001908152602001600020805480602002602001604051908101604052809291908181526020018280548015610b3857602002820191906000526020600020905b8160009054906101000a900473ffffffffffffffffffffffffffffffffffffffff1673ffffffffffffffffffffffffffffffffffffffff1681526020019060010190808311610aee575b5050505050905060005b8151811015610be7573373ffffffffffffffffffffffffffffffffffffffff16828281518110610b7557610b74615dbb565b5b602002602001015173ffffffffffffffffffffffffffffffffffffffff161415610bd4576040517f08c379a0000000000000000000000000000000000000000000000000000000008152600401610bcb9061553c565b60405180910390fd5b8080610bdf90615c86565b915050610b42565b50600b60009054906101000a900473ffffffffffffffffffffffffffffffffffffffff1673ffffffffffffffffffffffffffffffffffffffff166108fc349081150290604051600060405180830381858888f19350505050158015610c50573d6000803e3d6000fd5b5060116000838152602001908152602001600020339080600181540180825580915050600190039060005260206000200160009091909190916101000a81548173ffffffffffffffffffffffffffffffffffffffff021916908373ffffffffffffffffffffffffffffffffffffffff160217905550601260008381526020019081526020016000206004016000815480929190610cec90615c86565b9190505550601260008381526020019081526020016000206005016000815480929190610d1890615bf9565b91905055505050565b606060008054610d3090615c23565b80601f0160208091040260200160405190810160405280929190818152602001828054610d5c90615c23565b8015610da95780601f10610d7e57610100808354040283529160200191610da9565b820191906000526020600020905b815481529060010190602001808311610d8c57829003601f168201915b5050505050905090565b600e600082815260200190815260200160002060020160009054906101000a900473ffffffffffffffffffffffffffffffffffffffff1673ffffffffffffffffffffffffffffffffffffffff163373ffffffffffffffffffffffffffffffffffffffff1614610e57576040517f08c379a0000000000000000000000000000000000000000000000000000000008152600401610e4e906157dc565b60405180910390fd5b3073ffffffffffffffffffffffffffffffffffffffff166342842e0e600c60009054906101000a900473ffffffffffffffffffffffffffffffffffffffff1633846040518463ffffffff1660e01b8152600401610eb69392919061531d565b600060405180830381600087803b158015610ed057600080fd5b505af1158015610ee4573d6000803e3d6000fd5b50505050610f15600c60009054906101000a900473ffffffffffffffffffffffffffffffffffffffff16338361330e565b610f20816001613711565b50565b6000610f2e82613818565b610f6d576040517f08c379a0000000000000000000000000000000000000000000000000000000008152600401610f649061561c565b60405180910390fd5b6004600083815260200190815260200160002060009054906101000a900473ffffffffffffffffffffffffffffffffffffffff169050919050565b6000610fb382611cfa565b90508073ffffffffffffffffffffffffffffffffffffffff168373ffffffffffffffffffffffffffffffffffffffff161415611024576040517f08c379a000000000000000000000000000000000000000000000000000000000815260040161101b906156dc565b60405180910390fd5b8073ffffffffffffffffffffffffffffffffffffffff16611043613884565b73ffffffffffffffffffffffffffffffffffffffff16148061107257506110718161106c613884565b6130f2565b5b6110b1576040517f08c379a00000000000000000000000000000000000000000000000000000000081526004016110a89061559c565b60405180910390fd5b6110bb838361388c565b505050565b6110c861430f565b6110d0613884565b73ffffffffffffffffffffffffffffffffffffffff166110ee612040565b73ffffffffffffffffffffffffffffffffffffffff1614611144576040517f08c379a000000000000000000000000000000000000000000000000000000000815260040161113b9061565c565b60405180910390fd5b6008600087815260200190815260200160002060050160019054906101000a900460ff16156111a8576040517f08c379a000000000000000000000000000000000000000000000000000000000815260040161119f9061577c565b60405180910390fd5b60006040518060e0016040528088815260200187815260200186815260200185815260200189815260200184151581526020016001151581525090506007819080600181540180825580915050600190039060005260206000209060060201600090919091909150600082015181600001556020820151816001015560408201518160020155606082015181600301556080820151816004019080519060200190611254929190614350565b5060a08201518160050160006101000a81548160ff02191690831515021790555060c08201518160050160016101000a81548160ff021916908315150217905550505080600860008981526020019081526020016000206000820151816000015560208201518160010155604082015181600201556060820151816003015560808201518160040190805190602001906112ef929190614350565b5060a08201518160050160006101000a81548160ff02191690831515021790555060c08201518160050160016101000a81548160ff021916908315150217905550905050809150509695505050505050565b600063150b7a0260e01b9050949350505050565b61135d613884565b73ffffffffffffffffffffffffffffffffffffffff1661137b612040565b73ffffffffffffffffffffffffffffffffffffffff16146113d1576040517f08c379a00000000000000000000000000000000000000000000000000000000081526004016113c89061565c565b60405180910390fd5b505050565b60606113e0613884565b73ffffffffffffffffffffffffffffffffffffffff166113fe612040565b73ffffffffffffffffffffffffffffffffffffffff1614611454576040517f08c379a000000000000000000000000000000000000000000000000000000000815260040161144b9061565c565b60405180910390fd5b6007805480602002602001604051908101604052809291908181526020016000905b8282101561159857838290600052602060002090600602016040518060e0016040529081600082015481526020016001820154815260200160028201548152602001600382015481526020016004820180546114d190615c23565b80601f01602080910402602001604051908101604052809291908181526020018280546114fd90615c23565b801561154a5780601f1061151f5761010080835404028352916020019161154a565b820191906000526020600020905b81548152906001019060200180831161152d57829003601f168201915b505050505081526020016005820160009054906101000a900460ff161515151581526020016005820160019054906101000a900460ff16151515158152505081526020019060010190611476565b50505050905090565b6115bc8383836040518060200160405280600081525061247b565b505050565b600e600082815260200190815260200160002060020160149054906101000a900460ff16611624576040517f08c379a000000000000000000000000000000000000000000000000000000000815260040161161b906156bc565b60405180910390fd5b600e600082815260200190815260200160002060020160009054906101000a900473ffffffffffffffffffffffffffffffffffffffff1673ffffffffffffffffffffffffffffffffffffffff163373ffffffffffffffffffffffffffffffffffffffff1614156116c9576040517f08c379a00000000000000000000000000000000000000000000000000000000081526004016116c09061573c565b60405180910390fd5b6103e8670de0b6b3a7640000600e6000848152602001908152602001600020600101546116f69190615a6d565b6117009190615a3c565b3414611741576040517f08c379a00000000000000000000000000000000000000000000000000000000081526004016117389061583c565b60405180910390fd5b60006064601054346117539190615a6d565b61175d9190615a3c565b90506000813461176d9190615ac7565b9050600b60009054906101000a900473ffffffffffffffffffffffffffffffffffffffff1673ffffffffffffffffffffffffffffffffffffffff166108fc839081150290604051600060405180830381858888f193505050501580156117d7573d6000803e3d6000fd5b50600e600084815260200190815260200160002060020160009054906101000a900473ffffffffffffffffffffffffffffffffffffffff1673ffffffffffffffffffffffffffffffffffffffff166108fc829081150290604051600060405180830381858888f19350505050158015611854573d6000803e3d6000fd5b503073ffffffffffffffffffffffffffffffffffffffff166342842e0e600c60009054906101000a900473ffffffffffffffffffffffffffffffffffffffff1633866040518463ffffffff1660e01b81526004016118b49392919061531d565b600060405180830381600087803b1580156118ce57600080fd5b505af11580156118e2573d6000803e3d6000fd5b50505050611913600c60009054906101000a900473ffffffffffffffffffffffffffffffffffffffff16338561330e565b61191e836001613711565b505050565b3373ffffffffffffffffffffffffffffffffffffffff16600a600084815260200190815260200160002060009054906101000a900473ffffffffffffffffffffffffffffffffffffffff1673ffffffffffffffffffffffffffffffffffffffff16146119c4576040517f08c379a00000000000000000000000000000000000000000000000000000000081526004016119bb906156fc565b60405180910390fd5b6119f133600c60009054906101000a900473ffffffffffffffffffffffffffffffffffffffff16846115a1565b600060405180608001604052808481526020018381526020013373ffffffffffffffffffffffffffffffffffffffff16815260200160011515815250905080600e6000858152602001908152602001600020600082015181600001556020820151816001015560408201518160020160006101000a81548173ffffffffffffffffffffffffffffffffffffffff021916908373ffffffffffffffffffffffffffffffffffffffff16021790555060608201518160020160146101000a81548160ff021916908315150217905550905050611aee33600c60009054906101000a900473ffffffffffffffffffffffffffffffffffffffff168561330e565b611af9836001613711565b505050565b611b0661430f565b611b0e613884565b73ffffffffffffffffffffffffffffffffffffffff16611b2c612040565b73ffffffffffffffffffffffffffffffffffffffff1614611b82576040517f08c379a0000000000000000000000000000000000000000000000000000000008152600401611b799061565c565b60405180910390fd5b6008600083815260200190815260200160002060050160019054906101000a900460ff16611be5576040517f08c379a0000000000000000000000000000000000000000000000000000000008152600401611bdc9061579c565b60405180910390fd5b600860008381526020019081526020016000206040518060e001604052908160008201548152602001600182015481526020016002820154815260200160038201548152602001600482018054611c3b90615c23565b80601f0160208091040260200160405190810160405280929190818152602001828054611c6790615c23565b8015611cb45780601f10611c8957610100808354040283529160200191611cb4565b820191906000526020600020905b815481529060010190602001808311611c9757829003601f168201915b505050505081526020016005820160009054906101000a900460ff161515151581526020016005820160019054906101000a900460ff1615151515815250509050919050565b6000806002600084815260200190815260200160002060009054906101000a900473ffffffffffffffffffffffffffffffffffffffff169050600073ffffffffffffffffffffffffffffffffffffffff168173ffffffffffffffffffffffffffffffffffffffff161415611da3576040517f08c379a0000000000000000000000000000000000000000000000000000000008152600401611d9a906155dc565b60405180910390fd5b80915050919050565b60008073ffffffffffffffffffffffffffffffffffffffff168273ffffffffffffffffffffffffffffffffffffffff161415611e1d576040517f08c379a0000000000000000000000000000000000000000000000000000000008152600401611e14906155bc565b60405180910390fd5b600360008373ffffffffffffffffffffffffffffffffffffffff1673ffffffffffffffffffffffffffffffffffffffff168152602001908152602001600020549050919050565b611e6c613884565b73ffffffffffffffffffffffffffffffffffffffff16611e8a612040565b73ffffffffffffffffffffffffffffffffffffffff1614611ee0576040517f08c379a0000000000000000000000000000000000000000000000000000000008152600401611ed79061565c565b60405180910390fd5b611eea6000613945565b565b6060600960003373ffffffffffffffffffffffffffffffffffffffff1673ffffffffffffffffffffffffffffffffffffffff168152602001908152602001600020805480602002602001604051908101604052809291908181526020016000905b82821015611fe9578382906000526020600020906003020160405180606001604052908160008201548152602001600182015481526020016002820160009054906101000a900473ffffffffffffffffffffffffffffffffffffffff1673ffffffffffffffffffffffffffffffffffffffff1673ffffffffffffffffffffffffffffffffffffffff168152505081526020019060010190611f4d565b50505050905090565b6011602052816000526040600020818154811061200e57600080fd5b906000526020600020016000915091509054906101000a900473ffffffffffffffffffffffffffffffffffffffff1681565b6000600660009054906101000a900473ffffffffffffffffffffffffffffffffffffffff16905090565b600b60009054906101000a900473ffffffffffffffffffffffffffffffffffffffff1681565b600f81815481106120a057600080fd5b906000526020600020016000915090505481565b6120bc613884565b73ffffffffffffffffffffffffffffffffffffffff166120da612040565b73ffffffffffffffffffffffffffffffffffffffff1614612130576040517f08c379a00000000000000000000000000000000000000000000000000000000081526004016121279061565c565b60405180910390fd5b6012600082815260200190815260200160002060060160009054906101000a900460ff16612193576040517f08c379a000000000000000000000000000000000000000000000000000000000815260040161218a906157fc565b60405180910390fd5b60126000828152602001908152602001600020600201544210156121ec576040517f08c379a00000000000000000000000000000000000000000000000000000000081526004016121e39061571c565b60405180910390fd5b60126000828152602001908152602001600020600080820160009055600182016000905560028201600090556003820160009055600482016000905560058201600090556006820160006101000a81549060ff0219169055505060116000828152602001908152602001600020600061226591906143d6565b50565b60606001805461227790615c23565b80601f01602080910402602001604051908101604052809291908181526020018280546122a390615c23565b80156122f05780601f106122c5576101008083540402835291602001916122f0565b820191906000526020600020905b8154815290600101906020018083116122d357829003601f168201915b5050505050905090565b612302613884565b73ffffffffffffffffffffffffffffffffffffffff168273ffffffffffffffffffffffffffffffffffffffff161415612370576040517f08c379a00000000000000000000000000000000000000000000000000000000081526004016123679061551c565b60405180910390fd5b806005600061237d613884565b73ffffffffffffffffffffffffffffffffffffffff1673ffffffffffffffffffffffffffffffffffffffff16815260200190815260200160002060008473ffffffffffffffffffffffffffffffffffffffff1673ffffffffffffffffffffffffffffffffffffffff16815260200190815260200160002060006101000a81548160ff0219169083151502179055508173ffffffffffffffffffffffffffffffffffffffff1661242a613884565b73ffffffffffffffffffffffffffffffffffffffff167f17307eab39ab6107e8899845ad3d59bd9653f200f220920489ca2b5937696c318360405161246f91906153e4565b60405180910390a35050565b61248c612486613884565b83613a0b565b6124cb576040517f08c379a00000000000000000000000000000000000000000000000000000000081526004016124c29061575c565b60405180910390fd5b6124d784848484613ae9565b6124e284848461330e565b50505050565b6124f0613884565b73ffffffffffffffffffffffffffffffffffffffff1661250e612040565b73ffffffffffffffffffffffffffffffffffffffff1614612564576040517f08c379a000000000000000000000000000000000000000000000000000000000815260040161255b9061565c565b60405180910390fd5b60005b6007805490508110156126e957826007828154811061258957612588615dbb565b5b9060005260206000209060060201600001541480156125cc575081600782815481106125b8576125b7615dbb565b5b906000526020600020906006020160010154105b156126d65781600782815481106125e6576125e5615dbb565b5b9060005260206000209060060201600101819055506007818154811061260f5761260e615dbb565b5b90600052602060002090600602016008600085815260200190815260200160002060008201548160000155600182015481600101556002820154816002015560038201548160030155600482018160040190805461266c90615c23565b6126779291906143f7565b506005820160009054906101000a900460ff168160050160006101000a81548160ff0219169083151502179055506005820160019054906101000a900460ff168160050160016101000a81548160ff0219169083151502179055509050505b80806126e190615c86565b915050612567565b505050565b601381815481106126fe57600080fd5b906000526020600020016000915090505481565b606061271d82613818565b61275c576040517f08c379a00000000000000000000000000000000000000000000000000000000081526004016127539061569c565b60405180910390fd5b6000612766613b45565b9050600081511161278657604051806020016040528060008152506127b1565b8061279084613b5c565b6040516020016127a1929190615297565b6040516020818303038152906040525b915050919050565b6008600082815260200190815260200160002060050160019054906101000a900460ff1661281c576040517f08c379a00000000000000000000000000000000000000000000000000000000081526004016128139061579c565b60405180910390fd5b6008600082815260200190815260200160002060050160009054906101000a900460ff1615612880576040517f08c379a00000000000000000000000000000000000000000000000000000000081526004016128779061557c565b60405180910390fd5b60006008600083815260200190815260200160002060010154116128d9576040517f08c379a00000000000000000000000000000000000000000000000000000000081526004016128d0906154dc565b60405180910390fd5b6103e8670de0b6b3a764000060086000848152602001908152602001600020600301546129069190615a6d565b6129109190615a3c565b3414612951576040517f08c379a00000000000000000000000000000000000000000000000000000000081526004016129489061583c565b60405180910390fd5b61295961430f565b60005b600780549050811015612bde57826007828154811061297e5761297d615dbb565b5b9060005260206000209060060201600001541415612bcb57600781815481106129aa576129a9615dbb565b5b90600052602060002090600602016040518060e0016040529081600082015481526020016001820154815260200160028201548152602001600382015481526020016004820180546129fb90615c23565b80601f0160208091040260200160405190810160405280929190818152602001828054612a2790615c23565b8015612a745780601f10612a4957610100808354040283529160200191612a74565b820191906000526020600020905b815481529060010190602001808311612a5757829003601f168201915b505050505081526020016005820160009054906101000a900460ff161515151581526020016005820160019054906101000a900460ff161515151581525050915060078181548110612ac957612ac8615dbb565b5b90600052602060002090600602016001016000815480929190612aeb90615bf9565b919050555060078181548110612b0457612b03615dbb565b5b906000526020600020906006020160086000858152602001908152602001600020600082015481600001556001820154816001015560028201548160020155600382015481600301556004820181600401908054612b6190615c23565b612b6c9291906143f7565b506005820160009054906101000a900460ff168160050160006101000a81548160ff0219169083151502179055506005820160019054906101000a900460ff168160050160016101000a81548160ff0219169083151502179055509050505b8080612bd690615c86565b91505061295c565b5060006402540be400600d5433604051602001612bfc9291906152bb565b6040516020818303038152906040528051906020012060001c612c1f9190615cfd565b9050600d6000815480929190612c3490615c86565b9190505550600b60009054906101000a900473ffffffffffffffffffffffffffffffffffffffff1673ffffffffffffffffffffffffffffffffffffffff166108fc349081150290604051600060405180830381858888f19350505050158015612ca1573d6000803e3d6000fd5b50612cac3382613cbd565b60006040518060600160405280838152602001846000015181526020013373ffffffffffffffffffffffffffffffffffffffff168152509050600960003373ffffffffffffffffffffffffffffffffffffffff1673ffffffffffffffffffffffffffffffffffffffff168152602001908152602001600020819080600181540180825580915050600190039060005260206000209060030201600090919091909150600082015181600001556020820151816001015560408201518160020160006101000a81548173ffffffffffffffffffffffffffffffffffffffff021916908373ffffffffffffffffffffffffffffffffffffffff160217905550505033600a600084815260200190815260200160002060006101000a81548173ffffffffffffffffffffffffffffffffffffffff021916908373ffffffffffffffffffffffffffffffffffffffff16021790555050505050565b612e0b613884565b73ffffffffffffffffffffffffffffffffffffffff16612e29612040565b73ffffffffffffffffffffffffffffffffffffffff1614612e7f576040517f08c379a0000000000000000000000000000000000000000000000000000000008152600401612e769061565c565b60405180910390fd5b6008600085815260200190815260200160002060050160009054906101000a900460ff16612ee2576040517f08c379a0000000000000000000000000000000000000000000000000000000008152600401612ed99061543c565b60405180910390fd5b6012600086815260200190815260200160002060060160009054906101000a900460ff1615612f46576040517f08c379a0000000000000000000000000000000000000000000000000000000008152600401612f3d906157bc565b60405180910390fd5b824211612f88576040517f08c379a0000000000000000000000000000000000000000000000000000000008152600401612f7f9061563c565b60405180910390fd5b60008211612fcb576040517f08c379a0000000000000000000000000000000000000000000000000000000008152600401612fc29061581c565b60405180910390fd5b603281101561300f576040517f08c379a00000000000000000000000000000000000000000000000000000000081526004016130069061545c565b60405180910390fd5b60006040518060e00160405280878152602001868152602001858152602001848152602001600081526020018381526020016001151581525090506013816000015190806001815401808255809150506001900390600052602060002001600090919091909150558060126000888152602001908152602001600020600082015181600001556020820151816001015560408201518160020155606082015181600301556080820151816004015560a0820151816005015560c08201518160060160006101000a81548160ff021916908315150217905550905050505050505050565b6000600560008473ffffffffffffffffffffffffffffffffffffffff1673ffffffffffffffffffffffffffffffffffffffff16815260200190815260200160002060008373ffffffffffffffffffffffffffffffffffffffff1673ffffffffffffffffffffffffffffffffffffffff16815260200190815260200160002060009054906101000a900460ff16905092915050565b61318e613884565b73ffffffffffffffffffffffffffffffffffffffff166131ac612040565b73ffffffffffffffffffffffffffffffffffffffff1614613202576040517f08c379a00000000000000000000000000000000000000000000000000000000081526004016131f99061565c565b60405180910390fd5b600073ffffffffffffffffffffffffffffffffffffffff168173ffffffffffffffffffffffffffffffffffffffff161415613272576040517f08c379a00000000000000000000000000000000000000000000000000000000081526004016132699061549c565b60405180910390fd5b61327b81613945565b50565b600c60009054906101000a900473ffffffffffffffffffffffffffffffffffffffff1681565b60007f01ffc9a7000000000000000000000000000000000000000000000000000000007bffffffffffffffffffffffffffffffffffffffffffffffffffffffff1916827bffffffffffffffffffffffffffffffffffffffffffffffffffffffff1916149050919050565b6000600960008573ffffffffffffffffffffffffffffffffffffffff1673ffffffffffffffffffffffffffffffffffffffff168152602001908152602001600020805480602002602001604051908101604052809291908181526020016000905b8282101561340b578382906000526020600020906003020160405180606001604052908160008201548152602001600182015481526020016002820160009054906101000a900473ffffffffffffffffffffffffffffffffffffffff1673ffffffffffffffffffffffffffffffffffffffff1673ffffffffffffffffffffffffffffffffffffffff16815250508152602001906001019061336f565b505050509050600960008573ffffffffffffffffffffffffffffffffffffffff1673ffffffffffffffffffffffffffffffffffffffff168152602001908152602001600020600061345c9190614484565b60005b81518110156136b8578282828151811061347c5761347b615dbb565b5b6020026020010151600001511461357257600960008673ffffffffffffffffffffffffffffffffffffffff1673ffffffffffffffffffffffffffffffffffffffff1681526020019081526020016000208282815181106134df576134de615dbb565b5b60200260200101519080600181540180825580915050600190039060005260206000209060030201600090919091909150600082015181600001556020820151816001015560408201518160020160006101000a81548173ffffffffffffffffffffffffffffffffffffffff021916908373ffffffffffffffffffffffffffffffffffffffff16021790555050506136a5565b8382828151811061358657613585615dbb565b5b60200260200101516040019073ffffffffffffffffffffffffffffffffffffffff16908173ffffffffffffffffffffffffffffffffffffffff1681525050600960008573ffffffffffffffffffffffffffffffffffffffff1673ffffffffffffffffffffffffffffffffffffffff16815260200190815260200160002082828151811061361657613615615dbb565b5b60200260200101519080600181540180825580915050600190039060005260206000209060030201600090919091909150600082015181600001556020820151816001015560408201518160020160006101000a81548173ffffffffffffffffffffffffffffffffffffffff021916908373ffffffffffffffffffffffffffffffffffffffff16021790555050505b80806136b090615c86565b91505061345f565b5082600a600084815260200190815260200160002060006101000a81548173ffffffffffffffffffffffffffffffffffffffff021916908373ffffffffffffffffffffffffffffffffffffffff16021790555050505050565b80156137ea57600e600083815260200190815260200160002060008082016000905560018201600090556002820160006101000a81549073ffffffffffffffffffffffffffffffffffffffff02191690556002820160146101000a81549060ff0219169055505060005b600f805490508110156137e45782600f828154811061379d5761379c615dbb565b5b906000526020600020015414156137d157600f81815481106137c2576137c1615dbb565b5b90600052602060002001600090555b80806137dc90615c86565b91505061377b565b50613814565b600f8290806001815401808255809150506001900390600052602060002001600090919091909150555b5050565b60008073ffffffffffffffffffffffffffffffffffffffff166002600084815260200190815260200160002060009054906101000a900473ffffffffffffffffffffffffffffffffffffffff1673ffffffffffffffffffffffffffffffffffffffff1614159050919050565b600033905090565b816004600083815260200190815260200160002060006101000a81548173ffffffffffffffffffffffffffffffffffffffff021916908373ffffffffffffffffffffffffffffffffffffffff160217905550808273ffffffffffffffffffffffffffffffffffffffff166138ff83611cfa565b73ffffffffffffffffffffffffffffffffffffffff167f8c5be1e5ebec7d5bd14f71427d1e84f3dd0314c0f7b2291e5b200ac8c7c3b92560405160405180910390a45050565b6000600660009054906101000a900473ffffffffffffffffffffffffffffffffffffffff16905081600660006101000a81548173ffffffffffffffffffffffffffffffffffffffff021916908373ffffffffffffffffffffffffffffffffffffffff1602179055508173ffffffffffffffffffffffffffffffffffffffff168173ffffffffffffffffffffffffffffffffffffffff167f8be0079c531659141344cd1fd0a4f28419497f9722a3daafe3b4186f6b6457e060405160405180910390a35050565b6000613a1682613818565b613a55576040517f08c379a0000000000000000000000000000000000000000000000000000000008152600401613a4c9061555c565b60405180910390fd5b6000613a6083611cfa565b90508073ffffffffffffffffffffffffffffffffffffffff168473ffffffffffffffffffffffffffffffffffffffff161480613acf57508373ffffffffffffffffffffffffffffffffffffffff16613ab784610f23565b73ffffffffffffffffffffffffffffffffffffffff16145b80613ae05750613adf81856130f2565b5b91505092915050565b613af4848484613cdb565b613b0084848484613f37565b613b3f576040517f08c379a0000000000000000000000000000000000000000000000000000000008152600401613b369061547c565b60405180910390fd5b50505050565b606060405180602001604052806000815250905090565b60606000821415613ba4576040518060400160405280600181526020017f30000000000000000000000000000000000000000000000000000000000000008152509050613cb8565b600082905060005b60008214613bd6578080613bbf90615c86565b915050600a82613bcf9190615a3c565b9150613bac565b60008167ffffffffffffffff811115613bf257613bf1615dea565b5b6040519080825280601f01601f191660200182016040528015613c245781602001600182028036833780820191505090505b5090505b60008514613cb157600182613c3d9190615ac7565b9150600a85613c4c9190615cfd565b6030613c5891906159e6565b60f81b818381518110613c6e57613c6d615dbb565b5b60200101907effffffffffffffffffffffffffffffffffffffffffffffffffffffffffffff1916908160001a905350600a85613caa9190615a3c565b9450613c28565b8093505050505b919050565b613cd78282604051806020016040528060008152506140ce565b5050565b8273ffffffffffffffffffffffffffffffffffffffff16613cfb82611cfa565b73ffffffffffffffffffffffffffffffffffffffff1614613d51576040517f08c379a0000000000000000000000000000000000000000000000000000000008152600401613d489061567c565b60405180910390fd5b600073ffffffffffffffffffffffffffffffffffffffff168273ffffffffffffffffffffffffffffffffffffffff161415613dc1576040517f08c379a0000000000000000000000000000000000000000000000000000000008152600401613db8906154fc565b60405180910390fd5b613dcc838383614129565b613dd760008261388c565b6001600360008573ffffffffffffffffffffffffffffffffffffffff1673ffffffffffffffffffffffffffffffffffffffff1681526020019081526020016000206000828254613e279190615ac7565b925050819055506001600360008473ffffffffffffffffffffffffffffffffffffffff1673ffffffffffffffffffffffffffffffffffffffff1681526020019081526020016000206000828254613e7e91906159e6565b92505081905550816002600083815260200190815260200160002060006101000a81548173ffffffffffffffffffffffffffffffffffffffff021916908373ffffffffffffffffffffffffffffffffffffffff160217905550808273ffffffffffffffffffffffffffffffffffffffff168473ffffffffffffffffffffffffffffffffffffffff167fddf252ad1be2c89b69c2b068fc378daa952ba7f163c4a11628f55a4df523b3ef60405160405180910390a4505050565b6000613f588473ffffffffffffffffffffffffffffffffffffffff1661412e565b156140c1578373ffffffffffffffffffffffffffffffffffffffff1663150b7a02613f81613884565b8786866040518563ffffffff1660e01b8152600401613fa39493929190615354565b602060405180830381600087803b158015613fbd57600080fd5b505af1925050508015613fee57506040513d601f19601f82011682018060405250810190613feb919061484c565b60015b614071573d806000811461401e576040519150601f19603f3d011682016040523d82523d6000602084013e614023565b606091505b50600081511415614069576040517f08c379a00000000000000000000000000000000000000000000000000000000081526004016140609061547c565b60405180910390fd5b805181602001fd5b63150b7a0260e01b7bffffffffffffffffffffffffffffffffffffffffffffffffffffffff1916817bffffffffffffffffffffffffffffffffffffffffffffffffffffffff1916149150506140c6565b600190505b949350505050565b6140d88383614141565b6140e56000848484613f37565b614124576040517f08c379a000000000000000000000000000000000000000000000000000000000815260040161411b9061547c565b60405180910390fd5b505050565b505050565b600080823b905060008111915050919050565b600073ffffffffffffffffffffffffffffffffffffffff168273ffffffffffffffffffffffffffffffffffffffff1614156141b1576040517f08c379a00000000000000000000000000000000000000000000000000000000081526004016141a8906155fc565b60405180910390fd5b6141ba81613818565b156141fa576040517f08c379a00000000000000000000000000000000000000000000000000000000081526004016141f1906154bc565b60405180910390fd5b61420660008383614129565b6001600360008473ffffffffffffffffffffffffffffffffffffffff1673ffffffffffffffffffffffffffffffffffffffff168152602001908152602001600020600082825461425691906159e6565b92505081905550816002600083815260200190815260200160002060006101000a81548173ffffffffffffffffffffffffffffffffffffffff021916908373ffffffffffffffffffffffffffffffffffffffff160217905550808273ffffffffffffffffffffffffffffffffffffffff16600073ffffffffffffffffffffffffffffffffffffffff167fddf252ad1be2c89b69c2b068fc378daa952ba7f163c4a11628f55a4df523b3ef60405160405180910390a45050565b6040518060e0016040528060008152602001600081526020016000815260200160008152602001606081526020016000151581526020016000151581525090565b82805461435c90615c23565b90600052602060002090601f01602090048101928261437e57600085556143c5565b82601f1061439757805160ff19168380011785556143c5565b828001600101855582156143c5579182015b828111156143c45782518255916020019190600101906143a9565b5b5090506143d291906144a8565b5090565b50805460008255906000526020600020908101906143f491906144a8565b50565b82805461440390615c23565b90600052602060002090601f0160209004810192826144255760008555614473565b82601f106144365780548555614473565b8280016001018555821561447357600052602060002091601f016020900482015b82811115614472578254825591600101919060010190614457565b5b50905061448091906144a8565b5090565b50805460008255600302906000526020600020908101906144a591906144c5565b50565b5b808211156144c15760008160009055506001016144a9565b5090565b5b8082111561450f5760008082016000905560018201600090556002820160006101000a81549073ffffffffffffffffffffffffffffffffffffffff0219169055506003016144c6565b5090565b6000614526614521846158be565b615899565b90508281526020810184848401111561454257614541615e1e565b5b61454d848285615bb7565b509392505050565b6000614568614563846158ef565b615899565b90508281526020810184848401111561458457614583615e1e565b5b61458f848285615bb7565b509392505050565b6000813590506145a6816165ce565b92915050565b6000813590506145bb816165e5565b92915050565b6000813590506145d0816165fc565b92915050565b6000815190506145e5816165fc565b92915050565b600082601f830112614600576145ff615e19565b5b8135614610848260208601614513565b91505092915050565b600082601f83011261462e5761462d615e19565b5b813561463e848260208601614555565b91505092915050565b60008135905061465681616613565b92915050565b60006020828403121561467257614671615e28565b5b600061468084828501614597565b91505092915050565b600080604083850312156146a05761469f615e28565b5b60006146ae85828601614597565b92505060206146bf85828601614597565b9150509250929050565b6000806000606084860312156146e2576146e1615e28565b5b60006146f086828701614597565b935050602061470186828701614597565b925050604061471286828701614647565b9150509250925092565b6000806000806080858703121561473657614735615e28565b5b600061474487828801614597565b945050602061475587828801614597565b935050604061476687828801614647565b925050606085013567ffffffffffffffff81111561478757614786615e23565b5b614793878288016145eb565b91505092959194509250565b600080604083850312156147b6576147b5615e28565b5b60006147c485828601614597565b92505060206147d5858286016145ac565b9150509250929050565b600080604083850312156147f6576147f5615e28565b5b600061480485828601614597565b925050602061481585828601614647565b9150509250929050565b60006020828403121561483557614834615e28565b5b6000614843848285016145c1565b91505092915050565b60006020828403121561486257614861615e28565b5b6000614870848285016145d6565b91505092915050565b60008060008060008060c0878903121561489657614895615e28565b5b600087013567ffffffffffffffff8111156148b4576148b3615e23565b5b6148c089828a01614619565b96505060206148d189828a01614647565b95505060406148e289828a01614647565b94505060606148f389828a01614647565b935050608061490489828a01614647565b92505060a061491589828a016145ac565b9150509295509295509295565b60006020828403121561493857614937615e28565b5b600061494684828501614647565b91505092915050565b6000806040838503121561496657614965615e28565b5b600061497485828601614647565b925050602061498585828601614647565b9150509250929050565b600080600080600060a086880312156149ab576149aa615e28565b5b60006149b988828901614647565b95505060206149ca88828901614647565b94505060406149db88828901614647565b93505060606149ec88828901614647565b92505060806149fd88828901614647565b9150509295509295909350565b6000614a1683836150e8565b905092915050565b6000614a2a8383615220565b60608301905092915050565b614a3f81615b81565b82525050565b614a4e81615b0d565b82525050565b614a5d81615afb565b82525050565b614a6c81615afb565b82525050565b614a83614a7e82615afb565b615ccf565b82525050565b6000614a9482615940565b614a9e8185615986565b935083602082028501614ab085615920565b8060005b85811015614aec5784840389528151614acd8582614a0a565b9450614ad88361596c565b925060208a01995050600181019050614ab4565b50829750879550505050505092915050565b6000614b098261594b565b614b138185615997565b9350614b1e83615930565b8060005b83811015614b4f578151614b368882614a1e565b9750614b4183615979565b925050600181019050614b22565b5085935050505092915050565b614b6581615b1f565b82525050565b614b7481615b1f565b82525050565b614b8381615b2b565b82525050565b6000614b9482615956565b614b9e81856159a8565b9350614bae818560208601615bc6565b614bb781615e2d565b840191505092915050565b6000614bcd82615961565b614bd781856159b9565b9350614be7818560208601615bc6565b614bf081615e2d565b840191505092915050565b6000614c0682615961565b614c1081856159ca565b9350614c20818560208601615bc6565b614c2981615e2d565b840191505092915050565b6000614c3f82615961565b614c4981856159db565b9350614c59818560208601615bc6565b80840191505092915050565b6000614c726020836159ca565b9150614c7d82615e4b565b602082019050919050565b6000614c956019836159ca565b9150614ca082615e74565b602082019050919050565b6000614cb86032836159ca565b9150614cc382615e9d565b604082019050919050565b6000614cdb6026836159ca565b9150614ce682615eec565b604082019050919050565b6000614cfe601c836159ca565b9150614d0982615f3b565b602082019050919050565b6000614d216022836159ca565b9150614d2c82615f64565b604082019050919050565b6000614d446024836159ca565b9150614d4f82615fb3565b604082019050919050565b6000614d676019836159ca565b9150614d7282616002565b602082019050919050565b6000614d8a601a836159ca565b9150614d958261602b565b602082019050919050565b6000614dad602c836159ca565b9150614db882616054565b604082019050919050565b6000614dd06023836159ca565b9150614ddb826160a3565b604082019050919050565b6000614df36038836159ca565b9150614dfe826160f2565b604082019050919050565b6000614e16602a836159ca565b9150614e2182616141565b604082019050919050565b6000614e396029836159ca565b9150614e4482616190565b604082019050919050565b6000614e5c6020836159ca565b9150614e67826161df565b602082019050919050565b6000614e7f602c836159ca565b9150614e8a82616208565b604082019050919050565b6000614ea26013836159ca565b9150614ead82616257565b602082019050919050565b6000614ec56020836159ca565b9150614ed082616280565b602082019050919050565b6000614ee86029836159ca565b9150614ef3826162a9565b604082019050919050565b6000614f0b602f836159ca565b9150614f16826162f8565b604082019050919050565b6000614f2e6017836159ca565b9150614f3982616347565b602082019050919050565b6000614f516021836159ca565b9150614f5c82616370565b604082019050919050565b6000614f746022836159ca565b9150614f7f826163bf565b604082019050919050565b6000614f976014836159ca565b9150614fa28261640e565b602082019050919050565b6000614fba600f836159ca565b9150614fc582616437565b602082019050919050565b6000614fdd6031836159ca565b9150614fe882616460565b604082019050919050565b60006150006011836159ca565b915061500b826164af565b602082019050919050565b60006150236011836159ca565b915061502e826164d8565b602082019050919050565b60006150466015836159ca565b915061505182616501565b602082019050919050565b60006150696013836159ca565b91506150748261652a565b602082019050919050565b600061508c6015836159ca565b915061509782616553565b602082019050919050565b60006150af600a836159ca565b91506150ba8261657c565b602082019050919050565b60006150d26010836159ca565b91506150dd826165a5565b602082019050919050565b600060e0830160008301516151006000860182615262565b5060208301516151136020860182615262565b5060408301516151266040860182615262565b5060608301516151396060860182615262565b50608083015184820360808601526151518282614bc2565b91505060a083015161516660a0860182614b5c565b5060c083015161517960c0860182614b5c565b508091505092915050565b600060e08301600083015161519c6000860182615262565b5060208301516151af6020860182615262565b5060408301516151c26040860182615262565b5060608301516151d56060860182615262565b50608083015184820360808601526151ed8282614bc2565b91505060a083015161520260a0860182614b5c565b5060c083015161521560c0860182614b5c565b508091505092915050565b6060820160008201516152366000850182615262565b5060208201516152496020850182615262565b50604082015161525c6040850182614a54565b50505050565b61526b81615b77565b82525050565b61527a81615b77565b82525050565b61529161528c82615b77565b615cf3565b82525050565b60006152a38285614c34565b91506152af8284614c34565b91508190509392505050565b60006152c78285615280565b6020820191506152d78284614a72565b6014820191508190509392505050565b60006020820190506152fc6000830184614a63565b92915050565b60006020820190506153176000830184614a45565b92915050565b60006060820190506153326000830186614a36565b61533f6020830185614a63565b61534c6040830184615271565b949350505050565b60006080820190506153696000830187614a63565b6153766020830186614a63565b6153836040830185615271565b81810360608301526153958184614b89565b905095945050505050565b600060208201905081810360008301526153ba8184614a89565b905092915050565b600060208201905081810360008301526153dc8184614afe565b905092915050565b60006020820190506153f96000830184614b6b565b92915050565b60006020820190506154146000830184614b7a565b92915050565b600060208201905081810360008301526154348184614bfb565b905092915050565b6000602082019050818103600083015261545581614c65565b9050919050565b6000602082019050818103600083015261547581614c88565b9050919050565b6000602082019050818103600083015261549581614cab565b9050919050565b600060208201905081810360008301526154b581614cce565b9050919050565b600060208201905081810360008301526154d581614cf1565b9050919050565b600060208201905081810360008301526154f581614d14565b9050919050565b6000602082019050818103600083015261551581614d37565b9050919050565b6000602082019050818103600083015261553581614d5a565b9050919050565b6000602082019050818103600083015261555581614d7d565b9050919050565b6000602082019050818103600083015261557581614da0565b9050919050565b6000602082019050818103600083015261559581614dc3565b9050919050565b600060208201905081810360008301526155b581614de6565b9050919050565b600060208201905081810360008301526155d581614e09565b9050919050565b600060208201905081810360008301526155f581614e2c565b9050919050565b6000602082019050818103600083015261561581614e4f565b9050919050565b6000602082019050818103600083015261563581614e72565b9050919050565b6000602082019050818103600083015261565581614e95565b9050919050565b6000602082019050818103600083015261567581614eb8565b9050919050565b6000602082019050818103600083015261569581614edb565b9050919050565b600060208201905081810360008301526156b581614efe565b9050919050565b600060208201905081810360008301526156d581614f21565b9050919050565b600060208201905081810360008301526156f581614f44565b9050919050565b6000602082019050818103600083015261571581614f67565b9050919050565b6000602082019050818103600083015261573581614f8a565b9050919050565b6000602082019050818103600083015261575581614fad565b9050919050565b6000602082019050818103600083015261577581614fd0565b9050919050565b6000602082019050818103600083015261579581614ff3565b9050919050565b600060208201905081810360008301526157b581615016565b9050919050565b600060208201905081810360008301526157d581615039565b9050919050565b600060208201905081810360008301526157f58161505c565b9050919050565b600060208201905081810360008301526158158161507f565b9050919050565b60006020820190508181036000830152615835816150a2565b9050919050565b60006020820190508181036000830152615855816150c5565b9050919050565b600060208201905081810360008301526158768184615184565b905092915050565b60006020820190506158936000830184615271565b92915050565b60006158a36158b4565b90506158af8282615c55565b919050565b6000604051905090565b600067ffffffffffffffff8211156158d9576158d8615dea565b5b6158e282615e2d565b9050602081019050919050565b600067ffffffffffffffff82111561590a57615909615dea565b5b61591382615e2d565b9050602081019050919050565b6000819050602082019050919050565b6000819050602082019050919050565b600081519050919050565b600081519050919050565b600081519050919050565b600081519050919050565b6000602082019050919050565b6000602082019050919050565b600082825260208201905092915050565b600082825260208201905092915050565b600082825260208201905092915050565b600082825260208201905092915050565b600082825260208201905092915050565b600081905092915050565b60006159f182615b77565b91506159fc83615b77565b9250827fffffffffffffffffffffffffffffffffffffffffffffffffffffffffffffffff03821115615a3157615a30615d2e565b5b828201905092915050565b6000615a4782615b77565b9150615a5283615b77565b925082615a6257615a61615d5d565b5b828204905092915050565b6000615a7882615b77565b9150615a8383615b77565b9250817fffffffffffffffffffffffffffffffffffffffffffffffffffffffffffffffff0483118215151615615abc57615abb615d2e565b5b828202905092915050565b6000615ad282615b77565b9150615add83615b77565b925082821015615af057615aef615d2e565b5b828203905092915050565b6000615b0682615b57565b9050919050565b6000615b1882615b57565b9050919050565b60008115159050919050565b60007fffffffff0000000000000000000000000000000000000000000000000000000082169050919050565b600073ffffffffffffffffffffffffffffffffffffffff82169050919050565b6000819050919050565b6000615b8c82615b93565b9050919050565b6000615b9e82615ba5565b9050919050565b6000615bb082615b57565b9050919050565b82818337600083830152505050565b60005b83811015615be4578082015181840152602081019050615bc9565b83811115615bf3576000848401525b50505050565b6000615c0482615b77565b91506000821415615c1857615c17615d2e565b5b600182039050919050565b60006002820490506001821680615c3b57607f821691505b60208210811415615c4f57615c4e615d8c565b5b50919050565b615c5e82615e2d565b810181811067ffffffffffffffff82111715615c7d57615c7c615dea565b5b80604052505050565b6000615c9182615b77565b91507fffffffffffffffffffffffffffffffffffffffffffffffffffffffffffffffff821415615cc457615cc3615d2e565b5b600182019050919050565b6000615cda82615ce1565b9050919050565b6000615cec82615e3e565b9050919050565b6000819050919050565b6000615d0882615b77565b9150615d1383615b77565b925082615d2357615d22615d5d565b5b828206905092915050565b7f4e487b7100000000000000000000000000000000000000000000000000000000600052601160045260246000fd5b7f4e487b7100000000000000000000000000000000000000000000000000000000600052601260045260246000fd5b7f4e487b7100000000000000000000000000000000000000000000000000000000600052602260045260246000fd5b7f4e487b7100000000000000000000000000000000000000000000000000000000600052603260045260246000fd5b7f4e487b7100000000000000000000000000000000000000000000000000000000600052604160045260246000fd5b600080fd5b600080fd5b600080fd5b600080fd5b6000601f19601f8301169050919050565b60008160601b9050919050565b7f506f6c69746963206e6f7420617661696c61626c6520696e206c6f7474657279600082015250565b7f5469636b657420617661696c69626c6520756e64657220353000000000000000600082015250565b7f4552433732313a207472616e7366657220746f206e6f6e20455243373231526560008201527f63656976657220696d706c656d656e7465720000000000000000000000000000602082015250565b7f4f776e61626c653a206e6577206f776e657220697320746865207a65726f206160008201527f6464726573730000000000000000000000000000000000000000000000000000602082015250565b7f4552433732313a20746f6b656e20616c7265616479206d696e74656400000000600082015250565b7f5468657265206973206e6f206d6f726520706f6c6974696320617661696c616260008201527f6c65000000000000000000000000000000000000000000000000000000000000602082015250565b7f4552433732313a207472616e7366657220746f20746865207a65726f2061646460008201527f7265737300000000000000000000000000000000000000000000000000000000602082015250565b7f4552433732313a20617070726f766520746f2063616c6c657200000000000000600082015250565b7f4f6e6c79206f6e65207469636b65742062792061646472657373000000000000600082015250565b7f4552433732313a206f70657261746f7220717565727920666f72206e6f6e657860008201527f697374656e7420746f6b656e0000000000000000000000000000000000000000602082015250565b7f506f6c69746963206f6e6c7920617661696c61626c652077697468206c6f747460008201527f6572790000000000000000000000000000000000000000000000000000000000602082015250565b7f4552433732313a20617070726f76652063616c6c6572206973206e6f74206f7760008201527f6e6572206e6f7220617070726f76656420666f7220616c6c0000000000000000602082015250565b7f4552433732313a2062616c616e636520717565727920666f7220746865207a6560008201527f726f206164647265737300000000000000000000000000000000000000000000602082015250565b7f4552433732313a206f776e657220717565727920666f72206e6f6e657869737460008201527f656e7420746f6b656e0000000000000000000000000000000000000000000000602082015250565b7f4552433732313a206d696e7420746f20746865207a65726f2061646472657373600082015250565b7f4552433732313a20617070726f76656420717565727920666f72206e6f6e657860008201527f697374656e7420746f6b656e0000000000000000000000000000000000000000602082015250565b7f456e642074696d6520697320696e207061737400000000000000000000000000600082015250565b7f4f776e61626c653a2063616c6c6572206973206e6f7420746865206f776e6572600082015250565b7f4552433732313a207472616e73666572206f6620746f6b656e2074686174206960008201527f73206e6f74206f776e0000000000000000000000000000000000000000000000602082015250565b7f4552433732314d657461646174613a2055524920717565727920666f72206e6f60008201527f6e6578697374656e7420746f6b656e0000000000000000000000000000000000602082015250565b7f506f6c6974696369616e206e6f7420666f722073616c65000000000000000000600082015250565b7f4552433732313a20617070726f76616c20746f2063757272656e74206f776e6560008201527f7200000000000000000000000000000000000000000000000000000000000000602082015250565b7f596f7520617265206e6f7420746865206f776e6572206f662074686520746f6b60008201527f656e000000000000000000000000000000000000000000000000000000000000602082015250565b7f4c6f7474657279206e6f742066696e6973686564000000000000000000000000600082015250565b7f596f757220706f6c6974696369616e0000000000000000000000000000000000600082015250565b7f4552433732313a207472616e736665722063616c6c6572206973206e6f74206f60008201527f776e6572206e6f7220617070726f766564000000000000000000000000000000602082015250565b7f696420616c726561647920696e20757365000000000000000000000000000000600082015250565b7f506f6c69746963206e6f7420666f756e64000000000000000000000000000000600082015250565b7f4c6f747465727920616c72656164792065786973740000000000000000000000600082015250565b7f4e6f7420796f757220706f6c6974696369616e00000000000000000000000000600082015250565b7f4c6f7474657279206e6f7420617661696c61626c650000000000000000000000600082015250565b7f5072696365206973203000000000000000000000000000000000000000000000600082015250565b7f496e636f727265637420616d6f756e7400000000000000000000000000000000600082015250565b6165d781615afb565b81146165e257600080fd5b50565b6165ee81615b1f565b81146165f957600080fd5b50565b61660581615b2b565b811461661057600080fd5b50565b61661c81615b77565b811461662757600080fd5b5056fea2646970667358221220c2cdf4ac3d8a62554792b62b4cd447ce071583681bc3b38aa9bf13009cc559df64736f6c63430008070033",
  "immutableReferences": {},
  "source": "// SPDX-License-Identifier: MIT\n\npragma solidity ^0.8.0;\nimport \"./Sell.sol\";\n\n/**\n* @title Base methode of lottery\n* @author Youness Chetoui\n*/\ncontract Lottery is Sell {\n    struct LotteryAvailable {\n        uint256 id;\n        uint256 id_politics;\n        uint256 end_time;\n        uint256 price;\n        uint256 nbPlayer;\n        uint256 ticket_available;\n        bool created;\n    }\n\n    mapping(uint256 => address[]) public userPlayedLottery;\n    mapping(uint256 => LotteryAvailable) internal lotteryAvailable;\n\n    uint256[] public arrayLotteryAvailable;\n\n    function createLottery(\n        uint256 _id,\n        uint256 _id_politics,\n        uint256 _end_time,\n        uint256 _price,\n        uint256 _ticket_available\n    ) public onlyOwner {\n        require(politicsAvailable[_id_politics].lottery, \"Politic not available in lottery\");\n        require(!lotteryAvailable[_id].created, \"Lottery already exist\");\n        require(block.timestamp > _end_time, \"End time is in past\");\n        require(_price > 0, \"Price is 0\");\n        require(_ticket_available >= 50, \"Ticket availible under 50\");\n\n        LotteryAvailable memory lottery =\n            LotteryAvailable({id: _id, id_politics: _id_politics, end_time: _end_time, price: _price, ticket_available: _ticket_available, nbPlayer: 0, created: true});\n\n        arrayLotteryAvailable.push(lottery.id);\n        lotteryAvailable[_id] = lottery;\n    }\n\n    function playLottery(uint256 _id) public payable {\n        require(msg.value == (lotteryAvailable[_id].price * 10**18) / 1000, \"Incorrect amount\");\n        require(lotteryAvailable[_id].created, \"Lottery not available\");\n        require(lotteryAvailable[_id].end_time > block.timestamp, \"Lottery not available\");\n        require(lotteryAvailable[_id].ticket_available > 0, \"Lottery not available\");\n        \n        address[] memory users = userPlayedLottery[_id];\n        for (uint i = 0; i < users.length; i++) {\n            require(users[i] != msg.sender, \"Only one ticket by address\");\n        }\n\n        ownerAddress.transfer(msg.value);\n        userPlayedLottery[_id].push(msg.sender);\n        lotteryAvailable[_id].nbPlayer++;\n        lotteryAvailable[_id].ticket_available--;\n    }\n\n    function onEndLottery(uint256 _id) public onlyOwner {\n        // prendre une address au hasard parmit les joeur\n        // lui miner et transferer le nft\n        require(lotteryAvailable[_id].created, \"Lottery not available\");\n        require(block.timestamp >= lotteryAvailable[_id].end_time, \"Lottery not finished\");\n\n        delete lotteryAvailable[_id];\n        delete userPlayedLottery[_id];\n    }\n\n}\n",
  "sourcePath": "/home/youness/Crypto/PoliticsCollectible/contracts/Lottery.sol",
  "compiler": {
    "name": "solc",
    "version": "0.8.7+commit.e28d00a7.Emscripten.clang"
  },
  "schemaVersion": "3.4.3",
  "updatedAt": "2021-08-31T14:41:04.651Z",
  "devdoc": {
    "author": "Youness Chetoui",
    "kind": "dev",
    "methods": {
      "addQty(uint256,uint256)": {
        "params": {
          "_id": "of PoliticsAvailable and _qty wished"
        }
      },
      "approve(address,uint256)": {
        "details": "See {IERC721-approve}."
      },
      "balanceOf(address)": {
        "details": "See {IERC721-balanceOf}."
      },
      "buy(uint256)": {
        "params": {
          "_id": "of politician available"
        }
      },
      "buyPoliticsForSale(uint256)": {
        "params": {
          "_tokenId": "of politician for sale"
        }
      },
      "cancelSell(uint256)": {
        "params": {
          "_tokenId": "of politician for sale"
        }
      },
      "create(string,uint256,uint256,uint256,uint256,bool)": {
        "params": {
          "_name": ", _id, _qty, _level, _price and _lottery of politician available"
        },
        "returns": {
          "_0": "PoliticsAvailable created"
        }
      },
      "forSale(uint256,uint256)": {
        "params": {
          "_tokenId": "of politician owned and _price wished"
        }
      },
      "getApproved(uint256)": {
        "details": "See {IERC721-getApproved}."
      },
      "getMyPolitics()": {
        "returns": {
          "_0": "array of struct PoliticsOwned"
        }
      },
      "getPolitic(uint256)": {
        "params": {
          "_id": "of politician"
        },
        "returns": {
          "_0": "struct PoliticsAvailable"
        }
      },
      "getPolitics()": {
        "returns": {
          "_0": "Array of struct PoliticsAvailable"
        }
      },
      "isApprovedForAll(address,address)": {
        "details": "See {IERC721-isApprovedForAll}."
      },
      "name()": {
        "details": "See {IERC721Metadata-name}."
      },
      "onERC721Received(address,address,uint256,bytes)": {
        "details": "See {IERC721Receiver-onERC721Received}. Always returns `IERC721Receiver.onERC721Received.selector`."
      },
      "owner()": {
        "details": "Returns the address of the current owner."
      },
      "ownerOf(uint256)": {
        "details": "See {IERC721-ownerOf}."
      },
      "renounceOwnership()": {
        "details": "Leaves the contract without owner. It will not be possible to call `onlyOwner` functions anymore. Can only be called by the current owner. NOTE: Renouncing ownership will leave the contract without an owner, thereby removing any functionality that is only available to the owner."
      },
      "safeTransferFrom(address,address,uint256)": {
        "details": "See {IERC721-safeTransferFrom}."
      },
      "safeTransferFrom(address,address,uint256,bytes)": {
        "params": {
          "from": "politician wallet address, to wallet address of receiver, tokenId of politician to transfer, _data"
        }
      },
      "setApprovalForAll(address,bool)": {
        "details": "See {IERC721-setApprovalForAll}."
      },
      "supportsInterface(bytes4)": {
        "details": "See {IERC165-supportsInterface}."
      },
      "symbol()": {
        "details": "See {IERC721Metadata-symbol}."
      },
      "tokenURI(uint256)": {
        "details": "See {IERC721Metadata-tokenURI}."
      },
      "transferOwnership(address)": {
        "details": "Transfers ownership of the contract to a new account (`newOwner`). Can only be called by the current owner."
      }
    },
    "title": "Base methode of lottery",
    "version": 1
  },
  "userdoc": {
    "kind": "user",
    "methods": {
      "addQty(uint256,uint256)": {
        "notice": "Add quantity for a PoliticsAvailable"
      },
      "buy(uint256)": {
        "notice": "Buy politician"
      },
      "buyPoliticsForSale(uint256)": {
        "notice": "Buy politician"
      },
      "cancelSell(uint256)": {
        "notice": "Cancel the sell of politician"
      },
      "create(string,uint256,uint256,uint256,uint256,bool)": {
        "notice": "Create politician"
      },
      "forSale(uint256,uint256)": {
        "notice": "Up for sale of owned politician"
      },
      "getMyPolitics()": {
        "notice": "Get politician by user"
      },
      "getPolitic(uint256)": {
        "notice": "get politician available by id"
      },
      "getPolitics()": {
        "notice": "get list of all politician available"
      },
      "safeTransferFrom(address,address,uint256,bytes)": {
        "notice": "Transfer Politic"
      },
      "transferFrom(address,address,uint256)": {
        "notice": "Disabled not safe transform"
      }
    },
    "version": 1
  }
}