{
  "contractName": "Lottery",
  "abi": [
    {
      "anonymous": false,
      "inputs": [
        {
          "indexed": true,
          "internalType": "address",
          "name": "owner",
          "type": "address"
        },
        {
          "indexed": true,
          "internalType": "address",
          "name": "approved",
          "type": "address"
        },
        {
          "indexed": true,
          "internalType": "uint256",
          "name": "tokenId",
          "type": "uint256"
        }
      ],
      "name": "Approval",
      "type": "event"
    },
    {
      "anonymous": false,
      "inputs": [
        {
          "indexed": true,
          "internalType": "address",
          "name": "owner",
          "type": "address"
        },
        {
          "indexed": true,
          "internalType": "address",
          "name": "operator",
          "type": "address"
        },
        {
          "indexed": false,
          "internalType": "bool",
          "name": "approved",
          "type": "bool"
        }
      ],
      "name": "ApprovalForAll",
      "type": "event"
    },
    {
      "anonymous": false,
      "inputs": [
        {
          "indexed": false,
          "internalType": "uint256",
          "name": "id",
          "type": "uint256"
        },
        {
          "indexed": false,
          "internalType": "address",
          "name": "buyer",
          "type": "address"
        }
      ],
      "name": "BuyOnSale",
      "type": "event"
    },
    {
      "anonymous": false,
      "inputs": [
        {
          "indexed": false,
          "internalType": "uint256",
          "name": "id",
          "type": "uint256"
        }
      ],
      "name": "CreateLottery",
      "type": "event"
    },
    {
      "anonymous": false,
      "inputs": [
        {
          "indexed": false,
          "internalType": "uint256",
          "name": "id",
          "type": "uint256"
        }
      ],
      "name": "CreatePolitician",
      "type": "event"
    },
    {
      "anonymous": false,
      "inputs": [
        {
          "indexed": false,
          "internalType": "uint256",
          "name": "id",
          "type": "uint256"
        },
        {
          "indexed": false,
          "internalType": "address",
          "name": "owner",
          "type": "address"
        }
      ],
      "name": "CreateSale",
      "type": "event"
    },
    {
      "anonymous": false,
      "inputs": [
        {
          "indexed": false,
          "internalType": "uint256",
          "name": "id",
          "type": "uint256"
        },
        {
          "indexed": false,
          "internalType": "address",
          "name": "winner",
          "type": "address"
        }
      ],
      "name": "EndLottery",
      "type": "event"
    },
    {
      "anonymous": false,
      "inputs": [
        {
          "indexed": true,
          "internalType": "address",
          "name": "previousOwner",
          "type": "address"
        },
        {
          "indexed": true,
          "internalType": "address",
          "name": "newOwner",
          "type": "address"
        }
      ],
      "name": "OwnershipTransferred",
      "type": "event"
    },
    {
      "anonymous": false,
      "inputs": [
        {
          "indexed": false,
          "internalType": "address",
          "name": "owner",
          "type": "address"
        },
        {
          "indexed": false,
          "internalType": "uint256",
          "name": "id",
          "type": "uint256"
        }
      ],
      "name": "PoliticianBuy",
      "type": "event"
    },
    {
      "anonymous": false,
      "inputs": [
        {
          "indexed": false,
          "internalType": "uint256",
          "name": "randomResult",
          "type": "uint256"
        }
      ],
      "name": "RandomNumberCreated",
      "type": "event"
    },
    {
      "anonymous": false,
      "inputs": [
        {
          "indexed": true,
          "internalType": "address",
          "name": "from",
          "type": "address"
        },
        {
          "indexed": true,
          "internalType": "address",
          "name": "to",
          "type": "address"
        },
        {
          "indexed": true,
          "internalType": "uint256",
          "name": "tokenId",
          "type": "uint256"
        }
      ],
      "name": "Transfer",
      "type": "event"
    },
    {
      "anonymous": false,
      "inputs": [
        {
          "indexed": false,
          "internalType": "uint256",
          "name": "id",
          "type": "uint256"
        },
        {
          "indexed": false,
          "internalType": "address",
          "name": "player",
          "type": "address"
        }
      ],
      "name": "UserPlayedLottery",
      "type": "event"
    },
    {
      "inputs": [
        {
          "internalType": "uint256",
          "name": "_id",
          "type": "uint256"
        },
        {
          "internalType": "uint256",
          "name": "_qty",
          "type": "uint256"
        }
      ],
      "name": "addQty",
      "outputs": [],
      "stateMutability": "nonpayable",
      "type": "function"
    },
    {
      "inputs": [
        {
          "internalType": "address",
          "name": "to",
          "type": "address"
        },
        {
          "internalType": "uint256",
          "name": "tokenId",
          "type": "uint256"
        }
      ],
      "name": "approve",
      "outputs": [],
      "stateMutability": "nonpayable",
      "type": "function"
    },
    {
      "inputs": [
        {
          "internalType": "uint256",
          "name": "",
          "type": "uint256"
        }
      ],
      "name": "arrayPoliticiansOnSale",
      "outputs": [
        {
          "internalType": "uint256",
          "name": "",
          "type": "uint256"
        }
      ],
      "stateMutability": "view",
      "type": "function"
    },
    {
      "inputs": [
        {
          "internalType": "address",
          "name": "owner",
          "type": "address"
        }
      ],
      "name": "balanceOf",
      "outputs": [
        {
          "internalType": "uint256",
          "name": "",
          "type": "uint256"
        }
      ],
      "stateMutability": "view",
      "type": "function"
    },
    {
      "inputs": [
        {
          "internalType": "uint256",
          "name": "_id",
          "type": "uint256"
        }
      ],
      "name": "buy",
      "outputs": [],
      "stateMutability": "payable",
      "type": "function"
    },
    {
      "inputs": [
        {
          "internalType": "uint256",
          "name": "_tokenId",
          "type": "uint256"
        }
      ],
      "name": "buyPoliticsForSale",
      "outputs": [],
      "stateMutability": "payable",
      "type": "function"
    },
    {
      "inputs": [
        {
          "internalType": "uint256",
          "name": "_tokenId",
          "type": "uint256"
        }
      ],
      "name": "cancelSell",
      "outputs": [],
      "stateMutability": "payable",
      "type": "function"
    },
    {
      "inputs": [],
      "name": "contractAddress",
      "outputs": [
        {
          "internalType": "address payable",
          "name": "",
          "type": "address"
        }
      ],
      "stateMutability": "view",
      "type": "function"
    },
    {
      "inputs": [
        {
          "internalType": "uint256",
          "name": "_id",
          "type": "uint256"
        },
        {
          "internalType": "uint256",
          "name": "_price",
          "type": "uint256"
        },
        {
          "internalType": "uint256",
          "name": "_qty",
          "type": "uint256"
        },
        {
          "internalType": "bool",
          "name": "_lottery",
          "type": "bool"
        },
        {
          "internalType": "string",
          "name": "_tokenUri",
          "type": "string"
        }
      ],
      "name": "create",
      "outputs": [],
      "stateMutability": "nonpayable",
      "type": "function"
    },
    {
      "inputs": [
        {
          "internalType": "uint256",
          "name": "_tokenId",
          "type": "uint256"
        },
        {
          "internalType": "uint256",
          "name": "_price",
          "type": "uint256"
        }
      ],
      "name": "forSale",
      "outputs": [],
      "stateMutability": "nonpayable",
      "type": "function"
    },
    {
      "inputs": [
        {
          "internalType": "uint256",
          "name": "tokenId",
          "type": "uint256"
        }
      ],
      "name": "getApproved",
      "outputs": [
        {
          "internalType": "address",
          "name": "",
          "type": "address"
        }
      ],
      "stateMutability": "view",
      "type": "function"
    },
    {
      "inputs": [],
      "name": "getMyPolitics",
      "outputs": [
        {
          "components": [
            {
              "internalType": "uint256",
              "name": "id",
              "type": "uint256"
            },
            {
              "internalType": "uint256",
              "name": "id_politic",
              "type": "uint256"
            },
            {
              "internalType": "address",
              "name": "owner",
              "type": "address"
            }
          ],
          "internalType": "struct Collectible.PoliticsOwned[]",
          "name": "",
          "type": "tuple[]"
        }
      ],
      "stateMutability": "view",
      "type": "function"
    },
    {
      "inputs": [
        {
          "internalType": "uint256",
          "name": "_id",
          "type": "uint256"
        }
      ],
      "name": "getPoliticQty",
      "outputs": [
        {
          "internalType": "uint256",
          "name": "",
          "type": "uint256"
        }
      ],
      "stateMutability": "view",
      "type": "function"
    },
    {
      "inputs": [],
      "name": "getRandomNumber",
      "outputs": [
        {
          "internalType": "bytes32",
          "name": "requestId",
          "type": "bytes32"
        }
      ],
      "stateMutability": "nonpayable",
      "type": "function"
    },
    {
      "inputs": [
        {
          "internalType": "address",
          "name": "owner",
          "type": "address"
        },
        {
          "internalType": "address",
          "name": "operator",
          "type": "address"
        }
      ],
      "name": "isApprovedForAll",
      "outputs": [
        {
          "internalType": "bool",
          "name": "",
          "type": "bool"
        }
      ],
      "stateMutability": "view",
      "type": "function"
    },
    {
      "inputs": [],
      "name": "name",
      "outputs": [
        {
          "internalType": "string",
          "name": "",
          "type": "string"
        }
      ],
      "stateMutability": "view",
      "type": "function"
    },
    {
      "inputs": [
        {
          "internalType": "address",
          "name": "",
          "type": "address"
        },
        {
          "internalType": "address",
          "name": "",
          "type": "address"
        },
        {
          "internalType": "uint256",
          "name": "",
          "type": "uint256"
        },
        {
          "internalType": "bytes",
          "name": "",
          "type": "bytes"
        }
      ],
      "name": "onERC721Received",
      "outputs": [
        {
          "internalType": "bytes4",
          "name": "",
          "type": "bytes4"
        }
      ],
      "stateMutability": "nonpayable",
      "type": "function"
    },
    {
      "inputs": [],
      "name": "owner",
      "outputs": [
        {
          "internalType": "address",
          "name": "",
          "type": "address"
        }
      ],
      "stateMutability": "view",
      "type": "function"
    },
    {
      "inputs": [],
      "name": "ownerAddress",
      "outputs": [
        {
          "internalType": "address payable",
          "name": "",
          "type": "address"
        }
      ],
      "stateMutability": "view",
      "type": "function"
    },
    {
      "inputs": [
        {
          "internalType": "uint256",
          "name": "tokenId",
          "type": "uint256"
        }
      ],
      "name": "ownerOf",
      "outputs": [
        {
          "internalType": "address",
          "name": "",
          "type": "address"
        }
      ],
      "stateMutability": "view",
      "type": "function"
    },
    {
      "inputs": [],
      "name": "randomResult",
      "outputs": [
        {
          "internalType": "uint256",
          "name": "",
          "type": "uint256"
        }
      ],
      "stateMutability": "view",
      "type": "function"
    },
    {
      "inputs": [
        {
          "internalType": "bytes32",
          "name": "requestId",
          "type": "bytes32"
        },
        {
          "internalType": "uint256",
          "name": "randomness",
          "type": "uint256"
        }
      ],
      "name": "rawFulfillRandomness",
      "outputs": [],
      "stateMutability": "nonpayable",
      "type": "function"
    },
    {
      "inputs": [],
      "name": "renounceOwnership",
      "outputs": [],
      "stateMutability": "nonpayable",
      "type": "function"
    },
    {
      "inputs": [
        {
          "internalType": "address",
          "name": "from",
          "type": "address"
        },
        {
          "internalType": "address",
          "name": "to",
          "type": "address"
        },
        {
          "internalType": "uint256",
          "name": "tokenId",
          "type": "uint256"
        }
      ],
      "name": "safeTransferFrom",
      "outputs": [],
      "stateMutability": "nonpayable",
      "type": "function"
    },
    {
      "inputs": [
        {
          "internalType": "address",
          "name": "from",
          "type": "address"
        },
        {
          "internalType": "address",
          "name": "to",
          "type": "address"
        },
        {
          "internalType": "uint256",
          "name": "tokenId",
          "type": "uint256"
        },
        {
          "internalType": "bytes",
          "name": "_data",
          "type": "bytes"
        }
      ],
      "name": "safeTransferFrom",
      "outputs": [],
      "stateMutability": "nonpayable",
      "type": "function"
    },
    {
      "inputs": [
        {
          "internalType": "address",
          "name": "operator",
          "type": "address"
        },
        {
          "internalType": "bool",
          "name": "approved",
          "type": "bool"
        }
      ],
      "name": "setApprovalForAll",
      "outputs": [],
      "stateMutability": "nonpayable",
      "type": "function"
    },
    {
      "inputs": [
        {
          "internalType": "bytes4",
          "name": "interfaceId",
          "type": "bytes4"
        }
      ],
      "name": "supportsInterface",
      "outputs": [
        {
          "internalType": "bool",
          "name": "",
          "type": "bool"
        }
      ],
      "stateMutability": "view",
      "type": "function"
    },
    {
      "inputs": [],
      "name": "symbol",
      "outputs": [
        {
          "internalType": "string",
          "name": "",
          "type": "string"
        }
      ],
      "stateMutability": "view",
      "type": "function"
    },
    {
      "inputs": [
        {
          "internalType": "uint256",
          "name": "tokenId",
          "type": "uint256"
        }
      ],
      "name": "tokenURI",
      "outputs": [
        {
          "internalType": "string",
          "name": "",
          "type": "string"
        }
      ],
      "stateMutability": "view",
      "type": "function"
    },
    {
      "inputs": [
        {
          "internalType": "address",
          "name": "from",
          "type": "address"
        },
        {
          "internalType": "address",
          "name": "to",
          "type": "address"
        },
        {
          "internalType": "uint256",
          "name": "tokenId",
          "type": "uint256"
        }
      ],
      "name": "transferFrom",
      "outputs": [],
      "stateMutability": "nonpayable",
      "type": "function"
    },
    {
      "inputs": [
        {
          "internalType": "address",
          "name": "newOwner",
          "type": "address"
        }
      ],
      "name": "transferOwnership",
      "outputs": [],
      "stateMutability": "nonpayable",
      "type": "function"
    },
    {
      "inputs": [
        {
          "internalType": "uint256",
          "name": "_id",
          "type": "uint256"
        },
        {
          "internalType": "uint256",
          "name": "_id_politics",
          "type": "uint256"
        },
        {
          "internalType": "uint256",
          "name": "_end_time",
          "type": "uint256"
        },
        {
          "internalType": "uint256",
          "name": "_price",
          "type": "uint256"
        },
        {
          "internalType": "uint256",
          "name": "_ticket_available",
          "type": "uint256"
        }
      ],
      "name": "createLottery",
      "outputs": [],
      "stateMutability": "nonpayable",
      "type": "function"
    },
    {
      "inputs": [
        {
          "internalType": "uint256",
          "name": "_id",
          "type": "uint256"
        }
      ],
      "name": "playLottery",
      "outputs": [],
      "stateMutability": "payable",
      "type": "function"
    },
    {
      "inputs": [
        {
          "internalType": "uint256",
          "name": "_id",
          "type": "uint256"
        }
      ],
      "name": "onEndLottery",
      "outputs": [],
      "stateMutability": "nonpayable",
      "type": "function"
    }
  ],
  "bytecode": "0x60c06040526001600f5560056012553480156200001b57600080fd5b50604080518082018252600b81527f506f6c69746963734e667400000000000000000000000000000000000000000060208083019182528351808501909452600384527f504f4c0000000000000000000000000000000000000000000000000000000000908401527fa555fc018435bef5a13c6c6870a9d4c11dec329c00000000000000000000000060a0527f84b9b910527ad5c03a9ca831909e21e236ea7b060000000000000000000000006080528151919291620000de91600191620001cf565b508051620000f4906002906020840190620001cf565b505050620001236200011462000179640100000000026401000000009004565b6401000000006200017d810204565b600d8054600160a060020a03199081163317909155600e8054909116301790557fcaf3c3727e033261d383b315559476f48034c13b18f8cafed4d871abe504918660135567016345785d8a0000601455620002cb565b3390565b60088054600160a060020a03838116600160a060020a0319831681179093556040519116919082907f8be0079c531659141344cd1fd0a4f28419497f9722a3daafe3b4186f6b6457e090600090a35050565b828054620001dd9062000275565b90600052602060002090601f0160209004810192826200020157600085556200024c565b82601f106200021c57805160ff19168380011785556200024c565b828001600101855582156200024c579182015b828111156200024c5782518255916020019190600101906200022f565b506200025a9291506200025e565b5090565b5b808211156200025a57600081556001016200025f565b6002810460018216806200028a57607f821691505b60208210811415620002c5577f4e487b7100000000000000000000000000000000000000000000000000000000600052602260045260246000fd5b50919050565b6080516c01000000000000000000000000900460a0516c010000000000000000000000009004613d736200031f600039600081816119d80152612b4d0152600081816121c30152612b1e0152613d736000f3fe608060405260043610610215576000357c0100000000000000000000000000000000000000000000000000000000900480638da5cb5b1161012a578063b9db1c98116100bd578063de7f55871161008c578063de7f5587146105b3578063e7e6c81c146105d3578063e985e9c5146105f3578063f2fde38b1461063c578063f6b4dfb41461065c57600080fd5b8063b9db1c981461054b578063c87b56dd1461056b578063d96a094a1461058b578063dbdff2c11461059e57600080fd5b806394985ddd116100f957806394985ddd146104d657806395d89b41146104f6578063a22cb4651461050b578063b88d4fde1461052b57600080fd5b80638da5cb5b146104585780638f84aa09146104765780638fedc86414610496578063935b8d97146104b657600080fd5b806323b872dd116101ad57806354b3efa61161017c57806354b3efa6146103c15780636352211e146103e157806370a0823114610401578063715018a61461042157806385d334361461043657600080fd5b806323b872dd1461034a57806342619f661461036a57806342842e0e1461038e578063546f9e67146103ae57600080fd5b806307c9cd45116101e957806307c9cd45146102a6578063081812fc146102b9578063095ea7b3146102f1578063150b7a021461031157600080fd5b80626954751461021a57806301ffc9a71461023c57806303ddcab81461027157806306fdde0314610284575b600080fd5b34801561022657600080fd5b5061023a6102353660046138aa565b61067c565b005b34801561024857600080fd5b5061025c61025736600461383e565b6107f0565b60405190151581526020015b60405180910390f35b61023a61027f366004613878565b61088d565b34801561029057600080fd5b50610299610bf3565b6040516102689190613a90565b61023a6102b4366004613878565b610c85565b3480156102c557600080fd5b506102d96102d4366004613878565b610e2e565b604051600160a060020a039091168152602001610268565b3480156102fd57600080fd5b5061023a61030c3660046137d5565b610eca565b34801561031d57600080fd5b5061033161032c366004613722565b611002565b604051600160e060020a03199091168152602001610268565b34801561035657600080fd5b5061023a6103653660046136e6565b61102c565b34801561037657600080fd5b5061038060155481565b604051908152602001610268565b34801561039a57600080fd5b5061023a6103a93660046136e6565b611059565b61023a6103bc366004613878565b611074565b3480156103cd57600080fd5b5061023a6103dc36600461381c565b611328565b3480156103ed57600080fd5b506102d96103fc366004613878565b6114c0565b34801561040d57600080fd5b5061038061041c366004613698565b61154e565b34801561042d57600080fd5b5061023a6115eb565b34801561044257600080fd5b5061044b611624565b6040516102689190613a2e565b34801561046457600080fd5b50600854600160a060020a03166102d9565b34801561048257600080fd5b50600d546102d990600160a060020a031681565b3480156104a257600080fd5b506103806104b1366004613878565b6116b1565b3480156104c257600080fd5b5061023a6104d1366004613878565b6116d2565b3480156104e257600080fd5b5061023a6104f136600461381c565b6119cd565b34801561050257600080fd5b50610299611a52565b34801561051757600080fd5b5061023a61052636600461379e565b611a61565b34801561053757600080fd5b5061023a610546366004613722565b611b29565b34801561055757600080fd5b5061023a61056636600461381c565b611bba565b34801561057757600080fd5b50610299610586366004613878565b611c2d565b61023a610599366004613878565b611dab565b3480156105aa57600080fd5b50610380612162565b3480156105bf57600080fd5b506103806105ce366004613878565b6122cf565b3480156105df57600080fd5b5061023a6105ee36600461392b565b612349565b3480156105ff57600080fd5b5061025c61060e3660046136b3565b600160a060020a03918216600090815260066020908152604080832093909416825291909152205460ff1690565b34801561064857600080fd5b5061023a610657366004613698565b6125e8565b34801561066857600080fd5b50600e546102d990600160a060020a031681565b600854600160a060020a031633146106b25760405160e560020a62461bcd0281526004016106a990613b00565b60405180910390fd5b60008581526009602052604090206004015460ff16156107175760405160e560020a62461bcd02815260206004820152601160248201527f696420616c726561647920696e2075736500000000000000000000000000000060448201526064016106a9565b6040805160a08101825286815260208082018781528515158385019081526060840186815260016080860181905260008c8152600b86528781208b90556009865296909620855181559251958301959095555160028201805460ff191691151591909117905592518051929384939092610798926003850192910190613506565b50608091909101516004909101805460ff19169115159190911790556040518681527ff00c522f13522af224c59f918a8375598b0362237c9cc8b4edb44f599cf0f3d6906020015b60405180910390a1505050505050565b6000600160e060020a031982167f80ac58cd0000000000000000000000000000000000000000000000000000000014806108535750600160e060020a031982167f5b5e139f00000000000000000000000000000000000000000000000000000000145b8061088757507f01ffc9a700000000000000000000000000000000000000000000000000000000600160e060020a03198316145b92915050565b6000818152601760205260409020600301546103e8906108b590670de0b6b3a7640000613bcf565b6108bf9190613bbb565b34146108e05760405160e560020a62461bcd0281526004016106a990613b6c565b60008181526017602052604090206006015460ff166109445760405160e560020a62461bcd02815260206004820152601160248201527f4c6f7474657279206e6f7420666f756e6400000000000000000000000000000060448201526064016106a9565b60008181526017602052604090206002015442106109a75760405160e560020a62461bcd02815260206004820152601560248201527f4c6f7474657279206e6f7420617661696c61626c65000000000000000000000060448201526064016106a9565b600081815260176020526040902060050154610a085760405160e560020a62461bcd02815260206004820152601860248201527f4e6f206d6f7265207469636b657420617661696c61626c65000000000000000060448201526064016106a9565b600081815260166020908152604080832080548251818502810185019093528083529192909190830182828015610a6857602002820191906000526020600020905b8154600160a060020a03168152600190910190602001808311610a4a575b5050505050905060005b8151811015610b0b5733600160a060020a0316828281518110610a9757610a97613ce7565b6020026020010151600160a060020a03161415610af95760405160e560020a62461bcd02815260206004820152601a60248201527f4f6e6c79206f6e65207469636b6574206279206164647265737300000000000060448201526064016106a9565b80610b0381613c86565b915050610a72565b50600d54604051600160a060020a03909116903480156108fc02916000818181858888f19350505050158015610b45573d6000803e3d6000fd5b5060008281526016602090815260408083208054600181018255908452828420018054600160a060020a0319163317905584835260179091528120600401805491610b8f83613c86565b90915550506000828152601760205260408120600501805491610bb183613c31565b9091555050604080518381523360208201527f9cc53c1a9ff48c4fe548325ee9a6f7bb7b2b2defb3183e546b6bfd540f286f8291015b60405180910390a15050565b606060018054610c0290613c48565b80601f0160208091040260200160405190810160405280929190818152602001828054610c2e90613c48565b8015610c7b5780601f10610c5057610100808354040283529160200191610c7b565b820191906000526020600020905b815481529060010190602001808311610c5e57829003601f168201915b5050505050905090565b600081815260106020526040902060020154600160a060020a03163314610cf15760405160e560020a62461bcd02815260206004820152601360248201527f4e6f7420796f757220706f6c6974696369616e0000000000000000000000000060448201526064016106a9565b60125460008281526010602052604081206001015490916064916103e890610d2190670de0b6b3a7640000613bcf565b610d2b9190613bbb565b610d359190613bcf565b610d3f9190613bbb565b9050803414610d635760405160e560020a62461bcd0281526004016106a990613b6c565b600d54604051600160a060020a039091169082156108fc029083906000818181858888f19350505050158015610d9d573d6000803e3d6000fd5b50600e546040517f42842e0e000000000000000000000000000000000000000000000000000000008152600160a060020a0390911660048201523360248201526044810183905230906342842e0e90606401600060405180830381600087803b158015610e0957600080fd5b505af1158015610e1d573d6000803e3d6000fd5b50505050610e2a826126a0565b5050565b6000610e3982612738565b610eae5760405160e560020a62461bcd02815260206004820152602c60248201527f4552433732313a20617070726f76656420717565727920666f72206e6f6e657860448201527f697374656e7420746f6b656e000000000000000000000000000000000000000060648201526084016106a9565b50600090815260056020526040902054600160a060020a031690565b6000610ed5826114c0565b905080600160a060020a031683600160a060020a03161415610f625760405160e560020a62461bcd02815260206004820152602160248201527f4552433732313a20617070726f76616c20746f2063757272656e74206f776e6560448201527f720000000000000000000000000000000000000000000000000000000000000060648201526084016106a9565b33600160a060020a0382161480610f7e5750610f7e813361060e565b610ff35760405160e560020a62461bcd02815260206004820152603860248201527f4552433732313a20617070726f76652063616c6c6572206973206e6f74206f7760448201527f6e6572206e6f7220617070726f76656420666f7220616c6c000000000000000060648201526084016106a9565b610ffd8383612755565b505050565b7f150b7a02000000000000000000000000000000000000000000000000000000005b949350505050565b600854600160a060020a03163314610ffd5760405160e560020a62461bcd0281526004016106a990613b00565b610ffd83838360405180602001604052806000815250611b29565b60008181526010602052604090206002015474010000000000000000000000000000000000000000900460ff166110f05760405160e560020a62461bcd02815260206004820152601760248201527f506f6c6974696369616e206e6f7420666f722073616c6500000000000000000060448201526064016106a9565b600081815260106020526040902060020154600160a060020a031633141561115d5760405160e560020a62461bcd02815260206004820152600f60248201527f596f757220706f6c6974696369616e000000000000000000000000000000000060448201526064016106a9565b6000818152601060205260409020600101546103e89061118590670de0b6b3a7640000613bcf565b61118f9190613bbb565b34146111b05760405160e560020a62461bcd0281526004016106a990613b6c565b60006064601254346111c29190613bcf565b6111cc9190613bbb565b905060006111da8234613bee565b600d54604051919250600160a060020a03169083156108fc029084906000818181858888f19350505050158015611215573d6000803e3d6000fd5b50600083815260106020526040808220600201549051600160a060020a039091169183156108fc02918491818181858888f1935050505015801561125d573d6000803e3d6000fd5b50600e546040517f42842e0e000000000000000000000000000000000000000000000000000000008152600160a060020a0390911660048201523360248201526044810184905230906342842e0e90606401600060405180830381600087803b1580156112c957600080fd5b505af11580156112dd573d6000803e3d6000fd5b505050506112ea836126a0565b604080518481523360208201527fba09fc575b06563e24ebda6a85ecaffa381143e05692b04d0439c33cb68261c591015b60405180910390a1505050565b6000828152600c6020526040902054600160a060020a031633146113b75760405160e560020a62461bcd02815260206004820152602260248201527f596f7520617265206e6f7420746865206f776e6572206f662074686520746f6b60448201527f656e00000000000000000000000000000000000000000000000000000000000060648201526084016106a9565b600e546113cf903390600160a060020a031684611059565b6040805160808101825283815260208082018481523383850181815260016060860181815260008a8152601087528881208851815595518684015592516002909501805491511515740100000000000000000000000000000000000000000274ffffffffffffffffffffffffffffffffffffffffff19909216600160a060020a03909616959095171790935560118054938401815590527f31ecc21a745e3968a04e9570e4425bc18fa8019c68028196b546d1669c200c6890910186905583518681529182015290917ffd49647dd00e6b295aa9844cad9611d0f189dc9ef85fb3a2c3df136694cf1547910161131b565b600081815260036020526040812054600160a060020a0316806108875760405160e560020a62461bcd02815260206004820152602960248201527f4552433732313a206f776e657220717565727920666f72206e6f6e657869737460448201527f656e7420746f6b656e000000000000000000000000000000000000000000000060648201526084016106a9565b6000600160a060020a0382166115cf5760405160e560020a62461bcd02815260206004820152602a60248201527f4552433732313a2062616c616e636520717565727920666f7220746865207a6560448201527f726f20616464726573730000000000000000000000000000000000000000000060648201526084016106a9565b50600160a060020a031660009081526004602052604090205490565b600854600160a060020a031633146116185760405160e560020a62461bcd0281526004016106a990613b00565b61162260006127c3565b565b336000908152600a60209081526040808320805482518185028101850190935280835260609492939192909184015b828210156116a857600084815260209081902060408051606081018252600386029092018054835260018082015484860152600290910154600160a060020a0316918301919091529083529092019101611653565b50505050905090565b601181815481106116c157600080fd5b600091825260209091200154905081565b600854600160a060020a031633146116ff5760405160e560020a62461bcd0281526004016106a990613b00565b60008181526017602052604090206006015460ff166117635760405160e560020a62461bcd02815260206004820152601560248201527f4c6f7474657279206e6f7420617661696c61626c65000000000000000000000060448201526064016106a9565b60008181526017602052604090206002015442116117c65760405160e560020a62461bcd02815260206004820152601460248201527f4c6f7474657279206e6f742066696e697368656400000000000000000000000060448201526064016106a9565b60008181526017602090815260408083206001015460169092528220546015549192916117f39190613ca1565b6117fe906001613ba3565b6000848152601660205260408120805492935090918390811061182357611823613ce7565b6000918252602080832090910154600f54604051600160a060020a0390921694506402540be4009261187892869101918252600160a060020a03166c0100000000000000000000000002602082015260340190565b60408051601f19818403018152919052805160209091012061189a9190613ca1565b600f805491925060006118ac83613c86565b91905055506118bb8282612815565b604080516060810182528281526020808201878152600160a060020a038087168486018181526000828152600a86528781208054600181810183559183528783208951600392830290910190815596518783015592516002968701805491909616600160a060020a031991821617909555898252600c875288822080549095169093179093558b83526017855286832083815591820183905592810182905591820181905560048201819055600582018190556006909101805460ff191690556016909152918220909161198f919061358a565b60408051878152600160a060020a03851660208201527fa1f5e94be44374b084108775ea10df484c59d9b341260f24da036cadb79db46691016107e0565b33600160a060020a037f00000000000000000000000000000000000000000000000000000000000000001614611a485760405160e560020a62461bcd02815260206004820152601f60248201527f4f6e6c7920565246436f6f7264696e61746f722063616e2066756c66696c6c0060448201526064016106a9565b610e2a828261282f565b606060028054610c0290613c48565b600160a060020a038216331415611abd5760405160e560020a62461bcd02815260206004820152601960248201527f4552433732313a20617070726f766520746f2063616c6c65720000000000000060448201526064016106a9565b336000818152600660209081526040808320600160a060020a03871680855290835292819020805460ff191686151590811790915590519081529192917f17307eab39ab6107e8899845ad3d59bd9653f200f220920489ca2b5937696c31910160405180910390a35050565b611b333383612864565b611ba85760405160e560020a62461bcd02815260206004820152603160248201527f4552433732313a207472616e736665722063616c6c6572206973206e6f74206f60448201527f776e6572206e6f7220617070726f76656400000000000000000000000000000060648201526084016106a9565b611bb48484848461295e565b50505050565b600854600160a060020a03163314611be75760405160e560020a62461bcd0281526004016106a990613b00565b60008281526009602052604090206004015460ff16611c1b5760405160e560020a62461bcd0281526004016106a990613b35565b6000918252600b602052604090912055565b6060611c3882612738565b611cad5760405160e560020a62461bcd02815260206004820152603160248201527f45524337323155524953746f726167653a2055524920717565727920666f722060448201527f6e6f6e6578697374656e7420746f6b656e00000000000000000000000000000060648201526084016106a9565b60008281526007602052604081208054611cc690613c48565b80601f0160208091040260200160405190810160405280929190818152602001828054611cf290613c48565b8015611d3f5780601f10611d1457610100808354040283529160200191611d3f565b820191906000526020600020905b815481529060010190602001808311611d2257829003601f168201915b505050505090506000611d5d60408051602081019091526000815290565b9050805160001415611d70575092915050565b815115611da2578082604051602001611d8a929190613992565b60405160208183030381529060405292505050919050565b61102484612994565b60008181526009602052604090206004015460ff16611ddf5760405160e560020a62461bcd0281526004016106a990613b35565b60008181526009602052604090206002015460ff1615611e6a5760405160e560020a62461bcd02815260206004820152602360248201527f506f6c69746963206f6e6c7920617661696c61626c652077697468206c6f747460448201527f657279000000000000000000000000000000000000000000000000000000000060648201526084016106a9565b6000818152600b6020526040902054611eee5760405160e560020a62461bcd02815260206004820152602260248201527f5468657265206973206e6f206d6f726520706f6c6974696320617661696c616260448201527f6c6500000000000000000000000000000000000000000000000000000000000060648201526084016106a9565b6000818152600960205260409020600101546103e890611f1690670de0b6b3a7640000613bcf565b611f209190613bbb565b3414611f415760405160e560020a62461bcd0281526004016106a990613b6c565b6000818152600b60205260408120805491611f5b83613c31565b9091555050600f5460408051602080820193909352336c0100000000000000000000000002818301528151603481830301815260549091019091528051910120600090611fae906402540be40090613ca1565b600f80549192506000611fc083613c86565b9091555050600d54604051600160a060020a03909116903480156108fc02916000818181858888f19350505050158015611ffe573d6000803e3d6000fd5b506120093382612815565b600082815260096020526040902060030180546120ae91839161202b90613c48565b80601f016020809104026020016040519081016040528092919081815260200182805461205790613c48565b80156120a45780601f10612079576101008083540402835291602001916120a4565b820191906000526020600020905b81548152906001019060200180831161208757829003601f168201915b5050505050612a7d565b604080516060810182528281526020808201858152338385018181526000828152600a85528681208054600180820183559183528683208851600390920201908155945190850155905160029093018054600160a060020a03909416600160a060020a0319948516179055868152600c845285902080549092168117909155835190815290810184905290917f0f1f73114dcf85af6f6506a86f3b42cdc8af0e4d37ca5130270465cd9c358223910161131b565b600854600090600160a060020a031633146121925760405160e560020a62461bcd0281526004016106a990613b00565b6014546040517f70a082310000000000000000000000000000000000000000000000000000000081523060048201527f0000000000000000000000000000000000000000000000000000000000000000600160a060020a0316906370a082319060240160206040518083038186803b15801561220d57600080fd5b505afa158015612221573d6000803e3d6000fd5b505050506040513d601f19601f820116820180604052508101906122459190613891565b10156122bc5760405160e560020a62461bcd02815260206004820152602b60248201527f4e6f7420656e6f756768204c494e4b202d2066696c6c20636f6e74726163742060448201527f776974682066617563657400000000000000000000000000000000000000000060648201526084016106a9565b6122ca601354601454612b1a565b905090565b600854600090600160a060020a031633146122ff5760405160e560020a62461bcd0281526004016106a990613b00565b60008281526009602052604090206004015460ff166123335760405160e560020a62461bcd0281526004016106a990613b35565b506000818152600b60205260409020545b919050565b600854600160a060020a031633146123765760405160e560020a62461bcd0281526004016106a990613b00565b60008481526009602052604090206002015460ff166123da5760405160e560020a62461bcd02815260206004820181905260248201527f506f6c69746963206e6f7420617661696c61626c6520696e206c6f747465727960448201526064016106a9565b60008581526017602052604090206006015460ff161561243f5760405160e560020a62461bcd02815260206004820152601560248201527f4c6f747465727920616c7265616479206578697374000000000000000000000060448201526064016106a9565b8242106124915760405160e560020a62461bcd02815260206004820152601360248201527f456e642074696d6520697320696e20706173740000000000000000000000000060448201526064016106a9565b600082116124e45760405160e560020a62461bcd02815260206004820152600a60248201527f507269636520697320300000000000000000000000000000000000000000000060448201526064016106a9565b60328110156125385760405160e560020a62461bcd02815260206004820152601960248201527f5469636b657420617661696c69626c6520756e6465722035300000000000000060448201526064016106a9565b6040805160e08101825286815260208082018781528284018781526060840187815260006080860181815260a08701898152600160c089018181528f855260178952938a90208951815596519087015593516002860155915160038501559051600484015590516005830155516006909101805460ff1916911515919091179055915187815290917f960f4fb18f2af9795686d97891dbd6534865353629cbda12afb278e61819766291016107e0565b600854600160a060020a031633146126155760405160e560020a62461bcd0281526004016106a990613b00565b600160a060020a0381166126945760405160e560020a62461bcd02815260206004820152602660248201527f4f776e61626c653a206e6577206f776e657220697320746865207a65726f206160448201527f646472657373000000000000000000000000000000000000000000000000000060648201526084016106a9565b61269d816127c3565b50565b600081815260106020526040812081815560018101829055600201805474ffffffffffffffffffffffffffffffffffffffffff191690555b601154811015610e2a5781601182815481106126f6576126f6613ce7565b90600052602060002001541415612726576011818154811061271a5761271a613ce7565b60009182526020822001555b8061273081613c86565b9150506126d8565b600090815260036020526040902054600160a060020a0316151590565b60008181526005602052604090208054600160a060020a031916600160a060020a038416908117909155819061278a826114c0565b600160a060020a03167f8c5be1e5ebec7d5bd14f71427d1e84f3dd0314c0f7b2291e5b200ac8c7c3b92560405160405180910390a45050565b60088054600160a060020a03838116600160a060020a0319831681179093556040519116919082907f8be0079c531659141344cd1fd0a4f28419497f9722a3daafe3b4186f6b6457e090600090a35050565b610e2a828260405180602001604052806000815250612cba565b60158190556040518181527f3e03d1f6db9c938103954d9053238ec024c7852bb15999ab2bd58960b2c1919d90602001610be7565b600061286f82612738565b6128e45760405160e560020a62461bcd02815260206004820152602c60248201527f4552433732313a206f70657261746f7220717565727920666f72206e6f6e657860448201527f697374656e7420746f6b656e000000000000000000000000000000000000000060648201526084016106a9565b60006128ef836114c0565b905080600160a060020a031684600160a060020a0316148061292a575083600160a060020a031661291f84610e2e565b600160a060020a0316145b806110245750600160a060020a0380821660009081526006602090815260408083209388168352929052205460ff16611024565b612969848484612cf0565b61297584848484612ece565b611bb45760405160e560020a62461bcd0281526004016106a990613aa3565b606061299f82612738565b612a145760405160e560020a62461bcd02815260206004820152602f60248201527f4552433732314d657461646174613a2055524920717565727920666f72206e6f60448201527f6e6578697374656e7420746f6b656e000000000000000000000000000000000060648201526084016106a9565b6000612a2b60408051602081019091526000815290565b90506000815111612a4b5760405180602001604052806000815250612a76565b80612a558461300d565b604051602001612a66929190613992565b6040516020818303038152906040525b9392505050565b612a8682612738565b612afb5760405160e560020a62461bcd02815260206004820152602e60248201527f45524337323155524953746f726167653a2055524920736574206f66206e6f6e60448201527f6578697374656e7420746f6b656e00000000000000000000000000000000000060648201526084016106a9565b60008281526007602090815260409091208251610ffd92840190613506565b60007f0000000000000000000000000000000000000000000000000000000000000000600160a060020a0316634000aea07f000000000000000000000000000000000000000000000000000000000000000084866000604051602001612b8a929190918252602082015260400190565b60408051601f19818403018152908290527c010000000000000000000000000000000000000000000000000000000063ffffffff8616028252612bd19392916004016139fd565b602060405180830381600087803b158015612beb57600080fd5b505af1158015612bff573d6000803e3d6000fd5b505050506040513d601f19601f82011682018060405250810190612c2391906137ff565b5060008381526020818152604080832054815180840188905280830185905230606082015260808082018390528351808303909101815260a090910190925281519183019190912086845292909152612c7d906001613ba3565b6000858152602081815260409182902092909255805180830187905280820184905281518082038301815260609091019091528051910120611024565b612cc4838361315e565b612cd16000848484612ece565b610ffd5760405160e560020a62461bcd0281526004016106a990613aa3565b82600160a060020a0316612d03826114c0565b600160a060020a031614612d825760405160e560020a62461bcd02815260206004820152602960248201527f4552433732313a207472616e73666572206f6620746f6b656e2074686174206960448201527f73206e6f74206f776e000000000000000000000000000000000000000000000060648201526084016106a9565b600160a060020a038216612e005760405160e560020a62461bcd028152602060048201526024808201527f4552433732313a207472616e7366657220746f20746865207a65726f2061646460448201527f726573730000000000000000000000000000000000000000000000000000000060648201526084016106a9565b612e0b8383836132a3565b612e16600082612755565b600160a060020a0383166000908152600460205260408120805460019290612e3f908490613bee565b9091555050600160a060020a0382166000908152600460205260408120805460019290612e6d908490613ba3565b90915550506000818152600360205260408082208054600160a060020a031916600160a060020a0386811691821790925591518493918716917fddf252ad1be2c89b69c2b068fc378daa952ba7f163c4a11628f55a4df523b3ef91a4505050565b6000600160a060020a0384163b15613005576040517f150b7a02000000000000000000000000000000000000000000000000000000008152600160a060020a0385169063150b7a0290612f2b9033908990889088906004016139c1565b602060405180830381600087803b158015612f4557600080fd5b505af1925050508015612f75575060408051601f3d908101601f19168201909252612f729181019061385b565b60015b612fd2573d808015612fa3576040519150601f19603f3d011682016040523d82523d6000602084013e612fa8565b606091505b508051612fca5760405160e560020a62461bcd0281526004016106a990613aa3565b805181602001fd5b600160e060020a0319167f150b7a0200000000000000000000000000000000000000000000000000000000149050611024565b506001611024565b60608161304d57505060408051808201909152600181527f3000000000000000000000000000000000000000000000000000000000000000602082015290565b8160005b8115613077578061306181613c86565b91506130709050600a83613bbb565b9150613051565b60008167ffffffffffffffff81111561309257613092613d00565b6040519080825280601f01601f1916602001820160405280156130bc576020820181803683370190505b5090505b8415611024576130d1600183613bee565b91506130de600a86613ca1565b6130e9906030613ba3565b7f01000000000000000000000000000000000000000000000000000000000000000281838151811061311d5761311d613ce7565b60200101907effffffffffffffffffffffffffffffffffffffffffffffffffffffffffffff1916908160001a905350613157600a86613bbb565b94506130c0565b600160a060020a0382166131b75760405160e560020a62461bcd02815260206004820181905260248201527f4552433732313a206d696e7420746f20746865207a65726f206164647265737360448201526064016106a9565b6131c081612738565b156132105760405160e560020a62461bcd02815260206004820152601c60248201527f4552433732313a20746f6b656e20616c7265616479206d696e7465640000000060448201526064016106a9565b61321c600083836132a3565b600160a060020a0382166000908152600460205260408120805460019290613245908490613ba3565b90915550506000818152600360205260408082208054600160a060020a031916600160a060020a03861690811790915590518392907fddf252ad1be2c89b69c2b068fc378daa952ba7f163c4a11628f55a4df523b3ef908290a45050565b600160a060020a0383166000908152600a6020908152604080832080548251818502810185019093528083529192909190849084015b8282101561332e57600084815260209081902060408051606081018252600386029092018054835260018082015484860152600290910154600160a060020a03169183019190915290835290920191016132d9565b505050600160a060020a0386166000908152600a602052604081209293506133579291506135a8565b60005b81518110156134d5578282828151811061337657613376613ce7565b6020026020010151600001511461341457600160a060020a0385166000908152600a6020526040902082518390839081106133b3576133b3613ce7565b6020908102919091018101518254600180820185556000948552938390208251600390920201908155918101519282019290925560409091015160029091018054600160a060020a031916600160a060020a039092169190911790556134c3565b8382828151811061342757613427613ce7565b602090810291909101810151600160a060020a039283166040918201529186166000908152600a90915220825183908390811061346657613466613ce7565b6020908102919091018101518254600180820185556000948552938390208251600390920201908155918101519282019290925560409091015160029091018054600160a060020a031916600160a060020a039092169190911790555b806134cd81613c86565b91505061335a565b50506000908152600c602052604090208054600160a060020a031916600160a060020a039290921691909117905550565b82805461351290613c48565b90600052602060002090601f016020900481019282613534576000855561357a565b82601f1061354d57805160ff191683800117855561357a565b8280016001018555821561357a579182015b8281111561357a57825182559160200191906001019061355f565b506135869291506135c9565b5090565b508054600082559060005260206000209081019061269d91906135c9565b508054600082556003029060005260206000209081019061269d91906135de565b5b8082111561358657600081556001016135ca565b5b808211156135865760008082556001820155600281018054600160a060020a03191690556003016135df565b600067ffffffffffffffff8084111561362657613626613d00565b604051601f8501601f19908116603f0116810190828211818310171561364e5761364e613d00565b8160405280935085815286868601111561366757600080fd5b858560208301376000602087830101525050509392505050565b8035600160a060020a038116811461234457600080fd5b6000602082840312156136aa57600080fd5b612a7682613681565b600080604083850312156136c657600080fd5b6136cf83613681565b91506136dd60208401613681565b90509250929050565b6000806000606084860312156136fb57600080fd5b61370484613681565b925061371260208501613681565b9150604084013590509250925092565b6000806000806080858703121561373857600080fd5b61374185613681565b935061374f60208601613681565b925060408501359150606085013567ffffffffffffffff81111561377257600080fd5b8501601f8101871361378357600080fd5b6137928782356020840161360b565b91505092959194509250565b600080604083850312156137b157600080fd5b6137ba83613681565b915060208301356137ca81613d19565b809150509250929050565b600080604083850312156137e857600080fd5b6137f183613681565b946020939093013593505050565b60006020828403121561381157600080fd5b8151612a7681613d19565b6000806040838503121561382f57600080fd5b50508035926020909101359150565b60006020828403121561385057600080fd5b8135612a7681613d27565b60006020828403121561386d57600080fd5b8151612a7681613d27565b60006020828403121561388a57600080fd5b5035919050565b6000602082840312156138a357600080fd5b5051919050565b600080600080600060a086880312156138c257600080fd5b85359450602086013593506040860135925060608601356138e281613d19565b9150608086013567ffffffffffffffff8111156138fe57600080fd5b8601601f8101881361390f57600080fd5b61391e8882356020840161360b565b9150509295509295909350565b600080600080600060a0868803121561394357600080fd5b505083359560208501359550604085013594606081013594506080013592509050565b6000815180845261397e816020860160208601613c05565b601f01601f19169290920160200192915050565b600083516139a4818460208801613c05565b8351908301906139b8818360208801613c05565b01949350505050565b6000600160a060020a038087168352808616602084015250836040830152608060608301526139f36080830184613966565b9695505050505050565b600160a060020a0384168152826020820152606060408201526000613a256060830184613966565b95945050505050565b602080825282518282018190526000919060409081850190868401855b82811015613a83578151805185528681015187860152850151600160a060020a03168585015260609093019290850190600101613a4b565b5091979650505050505050565b602081526000612a766020830184613966565b60208082526032908201527f4552433732313a207472616e7366657220746f206e6f6e20455243373231526560408201527f63656976657220696d706c656d656e7465720000000000000000000000000000606082015260800190565b6020808252818101527f4f776e61626c653a2063616c6c6572206973206e6f7420746865206f776e6572604082015260600190565b60208082526011908201527f506f6c69746963206e6f7420666f756e64000000000000000000000000000000604082015260600190565b60208082526010908201527f496e636f727265637420616d6f756e7400000000000000000000000000000000604082015260600190565b60008219821115613bb657613bb6613cb5565b500190565b600082613bca57613bca613cce565b500490565b6000816000190483118215151615613be957613be9613cb5565b500290565b600082821015613c0057613c00613cb5565b500390565b60005b83811015613c20578181015183820152602001613c08565b83811115611bb45750506000910152565b600081613c4057613c40613cb5565b506000190190565b600281046001821680613c5c57607f821691505b60208210811415613c805760e060020a634e487b7102600052602260045260246000fd5b50919050565b6000600019821415613c9a57613c9a613cb5565b5060010190565b600082613cb057613cb0613cce565b500690565b60e060020a634e487b7102600052601160045260246000fd5b60e060020a634e487b7102600052601260045260246000fd5b60e060020a634e487b7102600052603260045260246000fd5b60e060020a634e487b7102600052604160045260246000fd5b801515811461269d57600080fd5b600160e060020a03198116811461269d57600080fdfea26469706673582212203462a886210d4989f8cf6bcd19df61d2d2212cc79d71841f6ee771ee8e6ca38364736f6c63430008070033",
  "immutableReferences": {
    "73": [
      {
        "length": 32,
        "start": 8643
      },
      {
        "length": 32,
        "start": 11038
      }
    ],
    "75": [
      {
        "length": 32,
        "start": 6616
      },
      {
        "length": 32,
        "start": 11085
      }
    ]
  },
  "source": "// SPDX-License-Identifier: MIT\n\npragma solidity ^0.8.0;\nimport \"./Sell.sol\";\nimport \"./RandomNumberConsumer.sol\";\n\n/**\n* @title Base methode of lottery\n* @author Youness Chetoui\n*/\ncontract Lottery is Sell, RandomNumberConsumer {\n    struct LotteryAvailable {\n        uint256 id;\n        uint256 id_politics;\n        uint256 end_time;\n        uint256 price;\n        uint256 nb_player;\n        uint256 ticket_available;\n        bool created;\n    }\n\n    mapping(uint256 => address[]) internal userPlayedLottery;\n    mapping(uint256 => LotteryAvailable) internal lotteryAvailable;\n\n    event CreateLottery(uint256 id);\n    event UserPlayedLottery(uint256 id, address player);\n    event EndLottery(uint256 id, address winner);\n\n    /**\n    * @notice Create lottery\n    * @param _id, _id_politics, _end_time, _price, _ticket_available\n    */\n    function createLottery(\n        uint256 _id,\n        uint256 _id_politics,\n        uint256 _end_time,\n        uint256 _price,\n        uint256 _ticket_available\n    ) public onlyOwner {\n        require(politicsAvailable[_id_politics].lottery, \"Politic not available in lottery\");\n        require(!lotteryAvailable[_id].created, \"Lottery already exist\");\n        require(block.timestamp < _end_time, \"End time is in past\");\n        require(_price > 0, \"Price is 0\");\n        require(_ticket_available >= 50, \"Ticket availible under 50\");\n\n        LotteryAvailable memory lottery =\n            LotteryAvailable({id: _id, id_politics: _id_politics, end_time: _end_time, price: _price, ticket_available: _ticket_available, nb_player: 0, created: true});\n\n        lotteryAvailable[_id] = lottery;\n\n        emit CreateLottery(_id);\n    }\n\n    /**\n    * @notice Play lottery\n    * @param _id of lottery\n    */\n    function playLottery(uint256 _id) public payable {\n        require(msg.value == (lotteryAvailable[_id].price * 10**18) / 1000, \"Incorrect amount\");\n        require(lotteryAvailable[_id].created, \"Lottery not found\");\n        require(lotteryAvailable[_id].end_time > block.timestamp, \"Lottery not available\");\n        require(lotteryAvailable[_id].ticket_available > 0, \"No more ticket available\");\n\n        address[] memory users = userPlayedLottery[_id];\n        for (uint i = 0; i < users.length; i++) {\n            require(users[i] != msg.sender, \"Only one ticket by address\");\n        }\n\n        ownerAddress.transfer(msg.value);\n        userPlayedLottery[_id].push(msg.sender);\n        lotteryAvailable[_id].nb_player++;\n        lotteryAvailable[_id].ticket_available--;\n\n        emit UserPlayedLottery(_id, msg.sender);\n    }\n\n    /**\n    * @notice End lottery\n    * @param _id of lottery\n    */\n    function onEndLottery(uint256 _id) public onlyOwner {\n        require(lotteryAvailable[_id].created, \"Lottery not available\");\n        require(block.timestamp > lotteryAvailable[_id].end_time, \"Lottery not finished\");\n\n        uint256 id_politics = lotteryAvailable[_id].id_politics;\n        uint256 randomIndex =  (randomResult % userPlayedLottery[_id].length) + 1;\n        address winner = userPlayedLottery[_id][randomIndex];\n\n        uint256 id = uint256(keccak256(abi.encodePacked(tokenCounter, winner))) % 10000000000;\n        tokenCounter++;\n\n        _safeMint(winner, id);\n\n        PoliticsOwned memory politicOwned =\n            PoliticsOwned({id: id, id_politic: id_politics, owner: winner});\n\n        userOwnedPolitics[winner].push(politicOwned);\n        politicToUser[id] = winner;\n\n        delete lotteryAvailable[_id];\n        delete userPlayedLottery[_id];\n\n        emit EndLottery(_id, winner);\n    }\n\n}\n",
  "sourcePath": "/home/youness/Crypto/PoliticsCollectible/contracts/Lottery.sol",
  "compiler": {
    "name": "solc",
    "version": "0.8.7+commit.e28d00a7.Emscripten.clang"
  },
  "schemaVersion": "3.4.3",
  "updatedAt": "2021-09-07T08:49:39.378Z",
  "devdoc": {
    "author": "Youness Chetoui",
    "kind": "dev",
    "methods": {
      "addQty(uint256,uint256)": {
        "params": {
          "_id": "of PoliticsAvailable and _qty wished"
        }
      },
      "approve(address,uint256)": {
        "details": "See {IERC721-approve}."
      },
      "balanceOf(address)": {
        "details": "See {IERC721-balanceOf}."
      },
      "buy(uint256)": {
        "params": {
          "_id": ", _tokenUri of politician available"
        }
      },
      "buyPoliticsForSale(uint256)": {
        "params": {
          "_tokenId": "of politician for sale"
        }
      },
      "cancelSell(uint256)": {
        "params": {
          "_tokenId": "of politician for sale"
        }
      },
      "create(uint256,uint256,uint256,bool,string)": {
        "params": {
          "_id": ", _qty, _price and _lottery of politician available"
        }
      },
      "createLottery(uint256,uint256,uint256,uint256,uint256)": {
        "params": {
          "_id": ", _id_politics, _end_time, _price, _ticket_available"
        }
      },
      "forSale(uint256,uint256)": {
        "params": {
          "_tokenId": "of politician owned and _price wished"
        }
      },
      "getApproved(uint256)": {
        "details": "See {IERC721-getApproved}."
      },
      "getMyPolitics()": {
        "returns": {
          "_0": "array of struct PoliticsOwned"
        }
      },
      "getPoliticQty(uint256)": {
        "params": {
          "_id": "PoliticsAvailable"
        },
        "returns": {
          "_0": "uint256"
        }
      },
      "isApprovedForAll(address,address)": {
        "details": "See {IERC721-isApprovedForAll}."
      },
      "name()": {
        "details": "See {IERC721Metadata-name}."
      },
      "onERC721Received(address,address,uint256,bytes)": {
        "details": "See {IERC721Receiver-onERC721Received}. Always returns `IERC721Receiver.onERC721Received.selector`."
      },
      "onEndLottery(uint256)": {
        "params": {
          "_id": "of lottery"
        }
      },
      "owner()": {
        "details": "Returns the address of the current owner."
      },
      "ownerOf(uint256)": {
        "details": "See {IERC721-ownerOf}."
      },
      "playLottery(uint256)": {
        "params": {
          "_id": "of lottery"
        }
      },
      "renounceOwnership()": {
        "details": "Leaves the contract without owner. It will not be possible to call `onlyOwner` functions anymore. Can only be called by the current owner. NOTE: Renouncing ownership will leave the contract without an owner, thereby removing any functionality that is only available to the owner."
      },
      "safeTransferFrom(address,address,uint256)": {
        "details": "See {IERC721-safeTransferFrom}."
      },
      "safeTransferFrom(address,address,uint256,bytes)": {
        "details": "See {IERC721-safeTransferFrom}."
      },
      "setApprovalForAll(address,bool)": {
        "details": "See {IERC721-setApprovalForAll}."
      },
      "supportsInterface(bytes4)": {
        "details": "See {IERC165-supportsInterface}."
      },
      "symbol()": {
        "details": "See {IERC721Metadata-symbol}."
      },
      "tokenURI(uint256)": {
        "details": "See {IERC721Metadata-tokenURI}."
      },
      "transferOwnership(address)": {
        "details": "Transfers ownership of the contract to a new account (`newOwner`). Can only be called by the current owner."
      }
    },
    "title": "Base methode of lottery",
    "version": 1
  },
  "userdoc": {
    "kind": "user",
    "methods": {
      "addQty(uint256,uint256)": {
        "notice": "Add quantity for a PoliticsAvailable"
      },
      "buy(uint256)": {
        "notice": "Buy politician"
      },
      "buyPoliticsForSale(uint256)": {
        "notice": "Buy politician"
      },
      "cancelSell(uint256)": {
        "notice": "Cancel the sell of politician"
      },
      "create(uint256,uint256,uint256,bool,string)": {
        "notice": "Create politician"
      },
      "createLottery(uint256,uint256,uint256,uint256,uint256)": {
        "notice": "Create lottery"
      },
      "forSale(uint256,uint256)": {
        "notice": "Up for sale of owned politician"
      },
      "getMyPolitics()": {
        "notice": "Get politician by user"
      },
      "getPoliticQty(uint256)": {
        "notice": "get qty of politician available"
      },
      "getRandomNumber()": {
        "notice": "Requests randomness"
      },
      "onEndLottery(uint256)": {
        "notice": "End lottery"
      },
      "playLottery(uint256)": {
        "notice": "Play lottery"
      },
      "transferFrom(address,address,uint256)": {
        "notice": "Disabled not safe transform"
      }
    },
    "version": 1
  }
}