{
  "contractName": "LotteryUtils",
  "abi": [
    {
      "anonymous": false,
      "inputs": [
        {
          "indexed": true,
          "internalType": "address",
          "name": "owner",
          "type": "address"
        },
        {
          "indexed": true,
          "internalType": "address",
          "name": "approved",
          "type": "address"
        },
        {
          "indexed": true,
          "internalType": "uint256",
          "name": "tokenId",
          "type": "uint256"
        }
      ],
      "name": "Approval",
      "type": "event"
    },
    {
      "anonymous": false,
      "inputs": [
        {
          "indexed": true,
          "internalType": "address",
          "name": "owner",
          "type": "address"
        },
        {
          "indexed": true,
          "internalType": "address",
          "name": "operator",
          "type": "address"
        },
        {
          "indexed": false,
          "internalType": "bool",
          "name": "approved",
          "type": "bool"
        }
      ],
      "name": "ApprovalForAll",
      "type": "event"
    },
    {
      "anonymous": false,
      "inputs": [
        {
          "indexed": true,
          "internalType": "address",
          "name": "previousOwner",
          "type": "address"
        },
        {
          "indexed": true,
          "internalType": "address",
          "name": "newOwner",
          "type": "address"
        }
      ],
      "name": "OwnershipTransferred",
      "type": "event"
    },
    {
      "anonymous": false,
      "inputs": [
        {
          "indexed": true,
          "internalType": "address",
          "name": "from",
          "type": "address"
        },
        {
          "indexed": true,
          "internalType": "address",
          "name": "to",
          "type": "address"
        },
        {
          "indexed": true,
          "internalType": "uint256",
          "name": "tokenId",
          "type": "uint256"
        }
      ],
      "name": "Transfer",
      "type": "event"
    },
    {
      "inputs": [
        {
          "internalType": "uint256",
          "name": "_id",
          "type": "uint256"
        },
        {
          "internalType": "uint256",
          "name": "_qty",
          "type": "uint256"
        }
      ],
      "name": "addQty",
      "outputs": [],
      "stateMutability": "nonpayable",
      "type": "function"
    },
    {
      "inputs": [
        {
          "internalType": "address",
          "name": "to",
          "type": "address"
        },
        {
          "internalType": "uint256",
          "name": "tokenId",
          "type": "uint256"
        }
      ],
      "name": "approve",
      "outputs": [],
      "stateMutability": "nonpayable",
      "type": "function"
    },
    {
      "inputs": [
        {
          "internalType": "uint256",
          "name": "",
          "type": "uint256"
        }
      ],
      "name": "arrayLotteryAvailable",
      "outputs": [
        {
          "internalType": "uint256",
          "name": "",
          "type": "uint256"
        }
      ],
      "stateMutability": "view",
      "type": "function"
    },
    {
      "inputs": [
        {
          "internalType": "uint256",
          "name": "",
          "type": "uint256"
        }
      ],
      "name": "arrayPoliticiansOnSale",
      "outputs": [
        {
          "internalType": "uint256",
          "name": "",
          "type": "uint256"
        }
      ],
      "stateMutability": "view",
      "type": "function"
    },
    {
      "inputs": [
        {
          "internalType": "address",
          "name": "owner",
          "type": "address"
        }
      ],
      "name": "balanceOf",
      "outputs": [
        {
          "internalType": "uint256",
          "name": "",
          "type": "uint256"
        }
      ],
      "stateMutability": "view",
      "type": "function"
    },
    {
      "inputs": [
        {
          "internalType": "uint256",
          "name": "_id",
          "type": "uint256"
        },
        {
          "internalType": "string",
          "name": "_tokenUri",
          "type": "string"
        }
      ],
      "name": "buy",
      "outputs": [],
      "stateMutability": "payable",
      "type": "function"
    },
    {
      "inputs": [
        {
          "internalType": "uint256",
          "name": "_tokenId",
          "type": "uint256"
        }
      ],
      "name": "buyPoliticsForSale",
      "outputs": [],
      "stateMutability": "payable",
      "type": "function"
    },
    {
      "inputs": [
        {
          "internalType": "uint256",
          "name": "_tokenId",
          "type": "uint256"
        }
      ],
      "name": "cancelSell",
      "outputs": [],
      "stateMutability": "payable",
      "type": "function"
    },
    {
      "inputs": [],
      "name": "contractAddress",
      "outputs": [
        {
          "internalType": "address payable",
          "name": "",
          "type": "address"
        }
      ],
      "stateMutability": "view",
      "type": "function"
    },
    {
      "inputs": [
        {
          "internalType": "string",
          "name": "_name",
          "type": "string"
        },
        {
          "internalType": "uint256",
          "name": "_id",
          "type": "uint256"
        },
        {
          "internalType": "uint256",
          "name": "_qty",
          "type": "uint256"
        },
        {
          "internalType": "uint256",
          "name": "_level",
          "type": "uint256"
        },
        {
          "internalType": "uint256",
          "name": "_price",
          "type": "uint256"
        },
        {
          "internalType": "bool",
          "name": "_lottery",
          "type": "bool"
        }
      ],
      "name": "create",
      "outputs": [
        {
          "components": [
            {
              "internalType": "uint256",
              "name": "id",
              "type": "uint256"
            },
            {
              "internalType": "uint256",
              "name": "qty",
              "type": "uint256"
            },
            {
              "internalType": "uint256",
              "name": "level",
              "type": "uint256"
            },
            {
              "internalType": "uint256",
              "name": "price",
              "type": "uint256"
            },
            {
              "internalType": "string",
              "name": "name",
              "type": "string"
            },
            {
              "internalType": "bool",
              "name": "lottery",
              "type": "bool"
            },
            {
              "internalType": "bool",
              "name": "created",
              "type": "bool"
            }
          ],
          "internalType": "struct Collectible.PoliticsAvailable",
          "name": "",
          "type": "tuple"
        }
      ],
      "stateMutability": "nonpayable",
      "type": "function"
    },
    {
      "inputs": [
        {
          "internalType": "uint256",
          "name": "_id",
          "type": "uint256"
        },
        {
          "internalType": "uint256",
          "name": "_id_politics",
          "type": "uint256"
        },
        {
          "internalType": "uint256",
          "name": "_end_time",
          "type": "uint256"
        },
        {
          "internalType": "uint256",
          "name": "_price",
          "type": "uint256"
        },
        {
          "internalType": "uint256",
          "name": "_ticket_available",
          "type": "uint256"
        }
      ],
      "name": "createLottery",
      "outputs": [],
      "stateMutability": "nonpayable",
      "type": "function"
    },
    {
      "inputs": [
        {
          "internalType": "uint256",
          "name": "_tokenId",
          "type": "uint256"
        },
        {
          "internalType": "uint256",
          "name": "_price",
          "type": "uint256"
        }
      ],
      "name": "forSale",
      "outputs": [],
      "stateMutability": "nonpayable",
      "type": "function"
    },
    {
      "inputs": [
        {
          "internalType": "uint256",
          "name": "tokenId",
          "type": "uint256"
        }
      ],
      "name": "getApproved",
      "outputs": [
        {
          "internalType": "address",
          "name": "",
          "type": "address"
        }
      ],
      "stateMutability": "view",
      "type": "function"
    },
    {
      "inputs": [],
      "name": "getMyPolitics",
      "outputs": [
        {
          "components": [
            {
              "internalType": "uint256",
              "name": "id",
              "type": "uint256"
            },
            {
              "internalType": "uint256",
              "name": "id_politic",
              "type": "uint256"
            },
            {
              "internalType": "address",
              "name": "owner",
              "type": "address"
            }
          ],
          "internalType": "struct Collectible.PoliticsOwned[]",
          "name": "",
          "type": "tuple[]"
        }
      ],
      "stateMutability": "view",
      "type": "function"
    },
    {
      "inputs": [],
      "name": "getPolitics",
      "outputs": [
        {
          "components": [
            {
              "internalType": "uint256",
              "name": "id",
              "type": "uint256"
            },
            {
              "internalType": "uint256",
              "name": "qty",
              "type": "uint256"
            },
            {
              "internalType": "uint256",
              "name": "level",
              "type": "uint256"
            },
            {
              "internalType": "uint256",
              "name": "price",
              "type": "uint256"
            },
            {
              "internalType": "string",
              "name": "name",
              "type": "string"
            },
            {
              "internalType": "bool",
              "name": "lottery",
              "type": "bool"
            },
            {
              "internalType": "bool",
              "name": "created",
              "type": "bool"
            }
          ],
          "internalType": "struct Collectible.PoliticsAvailable[]",
          "name": "",
          "type": "tuple[]"
        }
      ],
      "stateMutability": "view",
      "type": "function"
    },
    {
      "inputs": [
        {
          "internalType": "address",
          "name": "owner",
          "type": "address"
        },
        {
          "internalType": "address",
          "name": "operator",
          "type": "address"
        }
      ],
      "name": "isApprovedForAll",
      "outputs": [
        {
          "internalType": "bool",
          "name": "",
          "type": "bool"
        }
      ],
      "stateMutability": "view",
      "type": "function"
    },
    {
      "inputs": [],
      "name": "name",
      "outputs": [
        {
          "internalType": "string",
          "name": "",
          "type": "string"
        }
      ],
      "stateMutability": "view",
      "type": "function"
    },
    {
      "inputs": [
        {
          "internalType": "address",
          "name": "",
          "type": "address"
        },
        {
          "internalType": "address",
          "name": "",
          "type": "address"
        },
        {
          "internalType": "uint256",
          "name": "",
          "type": "uint256"
        },
        {
          "internalType": "bytes",
          "name": "",
          "type": "bytes"
        }
      ],
      "name": "onERC721Received",
      "outputs": [
        {
          "internalType": "bytes4",
          "name": "",
          "type": "bytes4"
        }
      ],
      "stateMutability": "nonpayable",
      "type": "function"
    },
    {
      "inputs": [
        {
          "internalType": "uint256",
          "name": "_id",
          "type": "uint256"
        }
      ],
      "name": "onEndLottery",
      "outputs": [],
      "stateMutability": "nonpayable",
      "type": "function"
    },
    {
      "inputs": [],
      "name": "owner",
      "outputs": [
        {
          "internalType": "address",
          "name": "",
          "type": "address"
        }
      ],
      "stateMutability": "view",
      "type": "function"
    },
    {
      "inputs": [],
      "name": "ownerAddress",
      "outputs": [
        {
          "internalType": "address payable",
          "name": "",
          "type": "address"
        }
      ],
      "stateMutability": "view",
      "type": "function"
    },
    {
      "inputs": [
        {
          "internalType": "uint256",
          "name": "tokenId",
          "type": "uint256"
        }
      ],
      "name": "ownerOf",
      "outputs": [
        {
          "internalType": "address",
          "name": "",
          "type": "address"
        }
      ],
      "stateMutability": "view",
      "type": "function"
    },
    {
      "inputs": [
        {
          "internalType": "uint256",
          "name": "_id",
          "type": "uint256"
        }
      ],
      "name": "playLottery",
      "outputs": [],
      "stateMutability": "payable",
      "type": "function"
    },
    {
      "inputs": [],
      "name": "renounceOwnership",
      "outputs": [],
      "stateMutability": "nonpayable",
      "type": "function"
    },
    {
      "inputs": [
        {
          "internalType": "address",
          "name": "from",
          "type": "address"
        },
        {
          "internalType": "address",
          "name": "to",
          "type": "address"
        },
        {
          "internalType": "uint256",
          "name": "tokenId",
          "type": "uint256"
        }
      ],
      "name": "safeTransferFrom",
      "outputs": [],
      "stateMutability": "nonpayable",
      "type": "function"
    },
    {
      "inputs": [
        {
          "internalType": "address",
          "name": "from",
          "type": "address"
        },
        {
          "internalType": "address",
          "name": "to",
          "type": "address"
        },
        {
          "internalType": "uint256",
          "name": "tokenId",
          "type": "uint256"
        },
        {
          "internalType": "bytes",
          "name": "_data",
          "type": "bytes"
        }
      ],
      "name": "safeTransferFrom",
      "outputs": [],
      "stateMutability": "nonpayable",
      "type": "function"
    },
    {
      "inputs": [
        {
          "internalType": "address",
          "name": "operator",
          "type": "address"
        },
        {
          "internalType": "bool",
          "name": "approved",
          "type": "bool"
        }
      ],
      "name": "setApprovalForAll",
      "outputs": [],
      "stateMutability": "nonpayable",
      "type": "function"
    },
    {
      "inputs": [
        {
          "internalType": "bytes4",
          "name": "interfaceId",
          "type": "bytes4"
        }
      ],
      "name": "supportsInterface",
      "outputs": [
        {
          "internalType": "bool",
          "name": "",
          "type": "bool"
        }
      ],
      "stateMutability": "view",
      "type": "function"
    },
    {
      "inputs": [],
      "name": "symbol",
      "outputs": [
        {
          "internalType": "string",
          "name": "",
          "type": "string"
        }
      ],
      "stateMutability": "view",
      "type": "function"
    },
    {
      "inputs": [
        {
          "internalType": "uint256",
          "name": "tokenId",
          "type": "uint256"
        }
      ],
      "name": "tokenURI",
      "outputs": [
        {
          "internalType": "string",
          "name": "",
          "type": "string"
        }
      ],
      "stateMutability": "view",
      "type": "function"
    },
    {
      "inputs": [
        {
          "internalType": "address",
          "name": "from",
          "type": "address"
        },
        {
          "internalType": "address",
          "name": "to",
          "type": "address"
        },
        {
          "internalType": "uint256",
          "name": "tokenId",
          "type": "uint256"
        }
      ],
      "name": "transferFrom",
      "outputs": [],
      "stateMutability": "nonpayable",
      "type": "function"
    },
    {
      "inputs": [
        {
          "internalType": "address",
          "name": "newOwner",
          "type": "address"
        }
      ],
      "name": "transferOwnership",
      "outputs": [],
      "stateMutability": "nonpayable",
      "type": "function"
    },
    {
      "inputs": [],
      "name": "getlotteryAvailable",
      "outputs": [
        {
          "components": [
            {
              "internalType": "uint256",
              "name": "id",
              "type": "uint256"
            },
            {
              "internalType": "uint256",
              "name": "id_politics",
              "type": "uint256"
            },
            {
              "internalType": "uint256",
              "name": "end_time",
              "type": "uint256"
            },
            {
              "internalType": "uint256",
              "name": "price",
              "type": "uint256"
            },
            {
              "internalType": "uint256",
              "name": "nb_player",
              "type": "uint256"
            },
            {
              "internalType": "uint256",
              "name": "ticket_available",
              "type": "uint256"
            },
            {
              "internalType": "bool",
              "name": "created",
              "type": "bool"
            }
          ],
          "internalType": "struct Lottery.LotteryAvailable[]",
          "name": "",
          "type": "tuple[]"
        }
      ],
      "stateMutability": "view",
      "type": "function"
    }
  ],
  "bytecode": "0x60806040526001600e5560056011553480156200001b57600080fd5b50604080518082018252600b81527f506f6c69746963734e667400000000000000000000000000000000000000000060208083019182528351808501909452600384527f504f4c0000000000000000000000000000000000000000000000000000000000908401528151919291620000969160009162000157565b508051620000ac90600190602084019062000157565b505050620000db620000cc62000101640100000000026401000000009004565b64010000000062000105810204565b600c8054600160a060020a03199081163317909155600d80549091163017905562000253565b3390565b60078054600160a060020a03838116600160a060020a0319831681179093556040519116919082907f8be0079c531659141344cd1fd0a4f28419497f9722a3daafe3b4186f6b6457e090600090a35050565b8280546200016590620001fd565b90600052602060002090601f016020900481019282620001895760008555620001d4565b82601f10620001a457805160ff1916838001178555620001d4565b82800160010185558215620001d4579182015b82811115620001d4578251825591602001919060010190620001b7565b50620001e2929150620001e6565b5090565b5b80821115620001e25760008155600101620001e7565b6002810460018216806200021257607f821691505b602082108114156200024d577f4e487b7100000000000000000000000000000000000000000000000000000000600052602260045260246000fd5b50919050565b6142fb80620002636000396000f3fe60806040526004361061020b576000357c010000000000000000000000000000000000000000000000000000000090048063715018a61161012a578063b7dc3b18116100bd578063c87b56dd1161008c578063c87b56dd146105af578063e7e6c81c146105cf578063e985e9c5146105ef578063f2fde38b14610638578063f6b4dfb41461065857600080fd5b8063b7dc3b181461053c578063b88d4fde1461054f578063b9db1c981461056f578063bf6e9bb21461058f57600080fd5b80638fedc864116100f95780638fedc864146104c7578063935b8d97146104e757806395d89b4114610507578063a22cb4651461051c57600080fd5b8063715018a61461045257806385d33436146104675780638da5cb5b146104895780638f84aa09146104a757600080fd5b806323b872dd116101a2578063546f9e6711610171578063546f9e67146103d157806354b3efa6146103e45780636352211e1461040457806370a082311461042457600080fd5b806323b872dd1461034d57806330f105cd1461036d57806342842e0e1461038f578063493a1e7a146103af57600080fd5b8063081812fc116101de578063081812fc1461028f578063095ea7b3146102c757806311143277146102e7578063150b7a021461031457600080fd5b806301ffc9a71461021057806303ddcab81461024557806306fdde031461025a57806307c9cd451461027c575b600080fd5b34801561021c57600080fd5b5061023061022b366004613cae565b610678565b60405190151581526020015b60405180910390f35b610258610253366004613d5b565b610715565b005b34801561026657600080fd5b5061026f610a4b565b60405161023c919061404a565b61025861028a366004613d5b565b610add565b34801561029b57600080fd5b506102af6102aa366004613d5b565b610c88565b604051600160a060020a03909116815260200161023c565b3480156102d357600080fd5b506102586102e2366004613c84565b610d24565b3480156102f357600080fd5b50610307610302366004613ce8565b610e5c565b60405161023c9190614126565b34801561032057600080fd5b5061033461032f366004613bde565b6110d5565b604051600160e060020a0319909116815260200161023c565b34801561035957600080fd5b50610258610368366004613ba2565b6110ff565b34801561037957600080fd5b5061038261112c565b60405161023c9190613f94565b34801561039b57600080fd5b506102586103aa366004613ba2565b61129c565b3480156103bb57600080fd5b506103c46112b7565b60405161023c9190613f10565b6102586103df366004613d5b565b6113be565b3480156103f057600080fd5b506102586103ff366004613dbb565b611636565b34801561041057600080fd5b506102af61041f366004613d5b565b61177a565b34801561043057600080fd5b5061044461043f366004613b54565b611808565b60405190815260200161023c565b34801561045e57600080fd5b506102586118a5565b34801561047357600080fd5b5061047c6118de565b60405161023c9190613ff5565b34801561049557600080fd5b50600754600160a060020a03166102af565b3480156104b357600080fd5b50600c546102af90600160a060020a031681565b3480156104d357600080fd5b506104446104e2366004613d5b565b611962565b3480156104f357600080fd5b50610258610502366004613d5b565b611983565b34801561051357600080fd5b5061026f611ec3565b34801561052857600080fd5b50610258610537366004613c5a565b611ed2565b61025861054a366004613d74565b611f9a565b34801561055b57600080fd5b5061025861056a366004613bde565b6124f8565b34801561057b57600080fd5b5061025861058a366004613dbb565b612589565b34801561059b57600080fd5b506104446105aa366004613d5b565b61271a565b3480156105bb57600080fd5b5061026f6105ca366004613d5b565b61272a565b3480156105db57600080fd5b506102586105ea366004613ddd565b6128a8565b3480156105fb57600080fd5b5061023061060a366004613b6f565b600160a060020a03918216600090815260056020908152604080832093909416825291909152205460ff1690565b34801561064457600080fd5b50610258610653366004613b54565b612b4c565b34801561066457600080fd5b50600d546102af90600160a060020a031681565b6000600160e060020a031982167f80ac58cd0000000000000000000000000000000000000000000000000000000014806106db5750600160e060020a031982167f5b5e139f00000000000000000000000000000000000000000000000000000000145b8061070f57507f01ffc9a700000000000000000000000000000000000000000000000000000000600160e060020a03198316145b92915050565b6000818152601360205260409020600301546103e89061073d90670de0b6b3a7640000614165565b6107479190614151565b34146107715760405160e560020a62461bcd028152600401610768906140ef565b60405180910390fd5b60008181526013602052604090206006015460ff166107d55760405160e560020a62461bcd02815260206004820152601160248201527f4c6f7474657279206e6f7420666f756e640000000000000000000000000000006044820152606401610768565b60008181526013602052604090206002015442106108385760405160e560020a62461bcd02815260206004820152601560248201527f4c6f7474657279206e6f7420617661696c61626c6500000000000000000000006044820152606401610768565b6000818152601360205260409020600501546108995760405160e560020a62461bcd02815260206004820152601860248201527f4e6f206d6f7265207469636b657420617661696c61626c6500000000000000006044820152606401610768565b6000818152601260209081526040808320805482518185028101850190935280835291929091908301828280156108f957602002820191906000526020600020905b8154600160a060020a031681526001909101906020018083116108db575b5050505050905060005b815181101561099c5733600160a060020a03168282815181106109285761092861427d565b6020026020010151600160a060020a0316141561098a5760405160e560020a62461bcd02815260206004820152601a60248201527f4f6e6c79206f6e65207469636b657420627920616464726573730000000000006044820152606401610768565b806109948161421c565b915050610903565b50600c54604051600160a060020a03909116903480156108fc02916000818181858888f193505050501580156109d6573d6000803e3d6000fd5b5060008281526012602090815260408083208054600181018255908452828420018054600160a060020a0319163317905584835260139091528120600401805491610a208361421c565b90915550506000828152601360205260408120600501805491610a42836141c7565b91905055505050565b606060008054610a5a906141de565b80601f0160208091040260200160405190810160405280929190818152602001828054610a86906141de565b8015610ad35780601f10610aa857610100808354040283529160200191610ad3565b820191906000526020600020905b815481529060010190602001808311610ab657829003601f168201915b5050505050905090565b6000818152600f6020526040902060020154600160a060020a03163314610b495760405160e560020a62461bcd02815260206004820152601360248201527f4e6f7420796f757220706f6c6974696369616e000000000000000000000000006044820152606401610768565b6011546000828152600f602052604081206001015490916064916103e890610b7990670de0b6b3a7640000614165565b610b839190614151565b610b8d9190614165565b610b979190614151565b9050803414610bbb5760405160e560020a62461bcd028152600401610768906140ef565b600c54604051600160a060020a039091169082156108fc029083906000818181858888f19350505050158015610bf5573d6000803e3d6000fd5b50600d546040517f42842e0e000000000000000000000000000000000000000000000000000000008152600160a060020a0390911660048201523360248201526044810183905230906342842e0e90606401600060405180830381600087803b158015610c6157600080fd5b505af1158015610c75573d6000803e3d6000fd5b50505050610c84826001612c04565b5050565b6000610c9382612cd8565b610d085760405160e560020a62461bcd02815260206004820152602c60248201527f4552433732313a20617070726f76656420717565727920666f72206e6f6e657860448201527f697374656e7420746f6b656e00000000000000000000000000000000000000006064820152608401610768565b50600090815260046020526040902054600160a060020a031690565b6000610d2f8261177a565b905080600160a060020a031683600160a060020a03161415610dbc5760405160e560020a62461bcd02815260206004820152602160248201527f4552433732313a20617070726f76616c20746f2063757272656e74206f776e6560448201527f72000000000000000000000000000000000000000000000000000000000000006064820152608401610768565b33600160a060020a0382161480610dd85750610dd8813361060a565b610e4d5760405160e560020a62461bcd02815260206004820152603860248201527f4552433732313a20617070726f76652063616c6c6572206973206e6f74206f7760448201527f6e6572206e6f7220617070726f76656420666f7220616c6c00000000000000006064820152608401610768565b610e578383612cf5565b505050565b610e646138d1565b600754600160a060020a03163314610e915760405160e560020a62461bcd028152600401610768906140ba565b600086815260096020526040902060050154610100900460ff1615610efb5760405160e560020a62461bcd02815260206004820152601160248201527f696420616c726561647920696e207573650000000000000000000000000000006044820152606401610768565b6040805160e081018252878152602080820188815292820187815260608301878152608084018c815287151560a0860152600160c0860181905260088054918201815560005285517ff3f7a9fe364faab93b216da50a3214154f22a0a2b415b23a84c8169e8b636ee3600690920291820190815596517ff3f7a9fe364faab93b216da50a3214154f22a0a2b415b23a84c8169e8b636ee482015592517ff3f7a9fe364faab93b216da50a3214154f22a0a2b415b23a84c8169e8b636ee584015590517ff3f7a9fe364faab93b216da50a3214154f22a0a2b415b23a84c8169e8b636ee6830155518051939485949093611018937ff3f7a9fe364faab93b216da50a3214154f22a0a2b415b23a84c8169e8b636ee701920190613912565b5060a08201516005909101805460c09093015115156101000261ff00199215159290921661ffff1990931692909217179055600087815260096020908152604091829020835181558184015160018201559183015160028301556060830151600383015560808301518051849392611097926004850192910190613912565b5060a08201516005909101805460c09093015115156101000261ff00199215159290921661ffff199093169290921717905590509695505050505050565b7f150b7a02000000000000000000000000000000000000000000000000000000005b949350505050565b600754600160a060020a03163314610e575760405160e560020a62461bcd028152600401610768906140ba565b600754606090600160a060020a0316331461115c5760405160e560020a62461bcd028152600401610768906140ba565b6008805480602002602001604051908101604052809291908181526020016000905b8282101561129357838290600052602060002090600602016040518060e0016040529081600082015481526020016001820154815260200160028201548152602001600382015481526020016004820180546111d9906141de565b80601f0160208091040260200160405190810160405280929190818152602001828054611205906141de565b80156112525780601f1061122757610100808354040283529160200191611252565b820191906000526020600020905b81548152906001019060200180831161123557829003601f168201915b50505091835250506005919091015460ff8082161515602080850191909152610100909204161515604090920191909152908252600192909201910161117e565b50505050905090565b610e57838383604051806020016040528060008152506124f8565b600754606090600160a060020a031633146112e75760405160e560020a62461bcd028152600401610768906140ba565b606060005b6014548110156113b857601360006014838154811061130d5761130d61427d565b906000526020600020015481526020019081526020016000206040518060e00160405290816000820154815260200160018201548152602001600282015481526020016003820154815260200160048201548152602001600582015481526020016006820160009054906101000a900460ff16151515158152505082828151811061139a5761139a61427d565b602002602001018190525080806113b09061421c565b9150506112ec565b50905090565b6000818152600f602052604090206002015474010000000000000000000000000000000000000000900460ff1661143a5760405160e560020a62461bcd02815260206004820152601760248201527f506f6c6974696369616e206e6f7420666f722073616c650000000000000000006044820152606401610768565b6000818152600f6020526040902060020154600160a060020a03163314156114a75760405160e560020a62461bcd02815260206004820152600f60248201527f596f757220706f6c6974696369616e00000000000000000000000000000000006044820152606401610768565b6000818152600f60205260409020600101546103e8906114cf90670de0b6b3a7640000614165565b6114d99190614151565b34146114fa5760405160e560020a62461bcd028152600401610768906140ef565b600060646011543461150c9190614165565b6115169190614151565b905060006115248234614184565b600c54604051919250600160a060020a03169083156108fc029084906000818181858888f1935050505015801561155f573d6000803e3d6000fd5b506000838152600f6020526040808220600201549051600160a060020a039091169183156108fc02918491818181858888f193505050501580156115a7573d6000803e3d6000fd5b50600d546040517f42842e0e000000000000000000000000000000000000000000000000000000008152600160a060020a0390911660048201523360248201526044810184905230906342842e0e90606401600060405180830381600087803b15801561161357600080fd5b505af1158015611627573d6000803e3d6000fd5b50505050610e57836001612c04565b6000828152600b6020526040902054600160a060020a031633146116c55760405160e560020a62461bcd02815260206004820152602260248201527f596f7520617265206e6f7420746865206f776e6572206f662074686520746f6b60448201527f656e0000000000000000000000000000000000000000000000000000000000006064820152608401610768565b600d546116dd903390600160a060020a03168461129c565b604080516080810182528381526020808201848152338385019081526001606085018181526000898152600f9095529590932084518155915182840155516002909101805494511515740100000000000000000000000000000000000000000274ffffffffffffffffffffffffffffffffffffffffff19909516600160a060020a0392909216919091179390931790925590610e57908490612c04565b600081815260026020526040812054600160a060020a03168061070f5760405160e560020a62461bcd02815260206004820152602960248201527f4552433732313a206f776e657220717565727920666f72206e6f6e657869737460448201527f656e7420746f6b656e00000000000000000000000000000000000000000000006064820152608401610768565b6000600160a060020a0382166118895760405160e560020a62461bcd02815260206004820152602a60248201527f4552433732313a2062616c616e636520717565727920666f7220746865207a6560448201527f726f2061646472657373000000000000000000000000000000000000000000006064820152608401610768565b50600160a060020a031660009081526003602052604090205490565b600754600160a060020a031633146118d25760405160e560020a62461bcd028152600401610768906140ba565b6118dc6000612d63565b565b336000908152600a60209081526040808320805482518185028101850190935280835260609492939192909184015b8282101561129357600084815260209081902060408051606081018252600386029092018054835260018082015484860152600290910154600160a060020a031691830191909152908352909201910161190d565b6010818154811061197257600080fd5b600091825260209091200154905081565b600754600160a060020a031633146119b05760405160e560020a62461bcd028152600401610768906140ba565b60008181526013602052604090206006015460ff16611a145760405160e560020a62461bcd02815260206004820152601560248201527f4c6f7474657279206e6f7420617661696c61626c6500000000000000000000006044820152606401610768565b6000818152601360205260409020600201544211611a775760405160e560020a62461bcd02815260206004820152601460248201527f4c6f7474657279206e6f742066696e69736865640000000000000000000000006044820152606401610768565b60008181526013602090815260408083206001015460128352818420548251429481019490945291830185905260608301819052929160800160408051601f198184030181529190528051602090910120611ad29190614237565b60008481526012602052604081208054929350909183908110611af757611af761427d565b600091825260209091200154600160a060020a03169050611b166138d1565b60005b600854811015611d64578460088281548110611b3757611b3761427d565b9060005260206000209060060201600001541415611d525760088181548110611b6257611b6261427d565b90600052602060002090600602016040518060e001604052908160008201548152602001600182015481526020016002820154815260200160038201548152602001600482018054611bb3906141de565b80601f0160208091040260200160405190810160405280929190818152602001828054611bdf906141de565b8015611c2c5780601f10611c0157610100808354040283529160200191611c2c565b820191906000526020600020905b815481529060010190602001808311611c0f57829003601f168201915b50505091835250506005919091015460ff80821615156020840152610100909104161515604090910152600880549193509082908110611c6e57611c6e61427d565b600091825260208220600160069092020101805491611c8c836141c7565b919050555060088181548110611ca457611ca461427d565b906000526020600020906006020160096000878152602001908152602001600020600082015481600001556001820154816001015560028201548160020155600382015481600301556004820181600401908054611d01906141de565b611d0c929190613996565b506005918201805491909201805460ff19811660ff93841615159081178355935461ffff1990911661ff0019909416939093176101009384900490921615159092021790555b80611d5c8161421c565b915050611b19565b5060006402540be400600e5484604051602001611da3929190918252600160a060020a03166c0100000000000000000000000002602082015260340190565b60408051601f198184030181529190528051602090910120611dc59190614237565b600e80549192506000611dd78361421c565b9190505550611de68382612db5565b604080516060810182528281526020808201888152600160a060020a038088168486018181526000828152600a86528781208054600181810183559183528783208951600392830290910190815596518783015592516002968701805491909616600160a060020a031991821617909555898252600b875288822080549095169093179093558c83526013855286832083815591820183905592810182905591820181905560048201819055600582018190556006909101805460ff1916905560129091529182209091611eba9190613a11565b50505050505050565b606060018054610a5a906141de565b600160a060020a038216331415611f2e5760405160e560020a62461bcd02815260206004820152601960248201527f4552433732313a20617070726f766520746f2063616c6c6572000000000000006044820152606401610768565b336000818152600560209081526040808320600160a060020a03871680855290835292819020805460ff191686151590811790915590519081529192917f17307eab39ab6107e8899845ad3d59bd9653f200f220920489ca2b5937696c31910160405180910390a35050565b600082815260096020526040902060050154610100900460ff166120035760405160e560020a62461bcd02815260206004820152601160248201527f506f6c69746963206e6f7420666f756e640000000000000000000000000000006044820152606401610768565b60008281526009602052604090206005015460ff161561208e5760405160e560020a62461bcd02815260206004820152602360248201527f506f6c69746963206f6e6c7920617661696c61626c652077697468206c6f747460448201527f65727900000000000000000000000000000000000000000000000000000000006064820152608401610768565b6000828152600960205260409020600101546121155760405160e560020a62461bcd02815260206004820152602260248201527f5468657265206973206e6f206d6f726520706f6c6974696320617661696c616260448201527f6c650000000000000000000000000000000000000000000000000000000000006064820152608401610768565b6000828152600960205260409020600301546103e89061213d90670de0b6b3a7640000614165565b6121479190614151565b34146121685760405160e560020a62461bcd028152600401610768906140ef565b6121706138d1565b60005b6008548110156123be5783600882815481106121915761219161427d565b90600052602060002090600602016000015414156123ac57600881815481106121bc576121bc61427d565b90600052602060002090600602016040518060e00160405290816000820154815260200160018201548152602001600282015481526020016003820154815260200160048201805461220d906141de565b80601f0160208091040260200160405190810160405280929190818152602001828054612239906141de565b80156122865780601f1061225b57610100808354040283529160200191612286565b820191906000526020600020905b81548152906001019060200180831161226957829003601f168201915b50505091835250506005919091015460ff808216151560208401526101009091041615156040909101526008805491935090829081106122c8576122c861427d565b6000918252602082206001600690920201018054916122e6836141c7565b9190505550600881815481106122fe576122fe61427d565b90600052602060002090600602016009600086815260200190815260200160002060008201548160000155600182015481600101556002820154816002015560038201548160030155600482018160040190805461235b906141de565b612366929190613996565b506005918201805491909201805460ff19811660ff93841615159081178355935461ffff1990911661ff0019909416939093176101009384900490921615159092021790555b806123b68161421c565b915050612173565b50600e5460408051602080820193909352336c010000000000000000000000000281830152815160348183030181526054909101909152805191012060009061240d906402540be40090614237565b600e8054919250600061241f8361421c565b9091555050600c54604051600160a060020a03909116903480156108fc02916000818181858888f1935050505015801561245d573d6000803e3d6000fd5b506124683382612db5565b6124728184612dcf565b6040805160608101825282815292516020808501918252338584018181526000828152600a8452858120805460018181018355918352858320995160039091029099019889559451948801949094555160029096018054600160a060020a0397909716600160a060020a0319978816179055938252600b90522080549092161790555050565b6125023383612e6c565b6125775760405160e560020a62461bcd02815260206004820152603160248201527f4552433732313a207472616e736665722063616c6c6572206973206e6f74206f60448201527f776e6572206e6f7220617070726f7665640000000000000000000000000000006064820152608401610768565b61258384848484612f66565b50505050565b600754600160a060020a031633146125b65760405160e560020a62461bcd028152600401610768906140ba565b60005b600854811015610e575782600882815481106125d7576125d761427d565b906000526020600020906006020160000154148015612619575081600882815481106126055761260561427d565b906000526020600020906006020160010154105b156127085781600882815481106126325761263261427d565b9060005260206000209060060201600101819055506008818154811061265a5761265a61427d565b9060005260206000209060060201600960008581526020019081526020016000206000820154816000015560018201548160010155600282015481600201556003820154816003015560048201816004019080546126b7906141de565b6126c2929190613996565b506005918201805491909201805460ff19811660ff93841615159081178355935461ffff1990911661ff0019909416939093176101009384900490921615159092021790555b806127128161421c565b9150506125b9565b6014818154811061197257600080fd5b606061273582612cd8565b6127aa5760405160e560020a62461bcd02815260206004820152603160248201527f45524337323155524953746f726167653a2055524920717565727920666f722060448201527f6e6f6e6578697374656e7420746f6b656e0000000000000000000000000000006064820152608401610768565b600082815260066020526040812080546127c3906141de565b80601f01602080910402602001604051908101604052809291908181526020018280546127ef906141de565b801561283c5780601f106128115761010080835404028352916020019161283c565b820191906000526020600020905b81548152906001019060200180831161281f57829003601f168201915b50505050509050600061285a60408051602081019091526000815290565b905080516000141561286d575092915050565b81511561289f578082604051602001612887929190613ea5565b60405160208183030381529060405292505050919050565b6110f784612f9c565b600754600160a060020a031633146128d55760405160e560020a62461bcd028152600401610768906140ba565b60008481526009602052604090206005015460ff166129395760405160e560020a62461bcd02815260206004820181905260248201527f506f6c69746963206e6f7420617661696c61626c6520696e206c6f74746572796044820152606401610768565b60008581526013602052604090206006015460ff161561299e5760405160e560020a62461bcd02815260206004820152601560248201527f4c6f747465727920616c726561647920657869737400000000000000000000006044820152606401610768565b8242106129f05760405160e560020a62461bcd02815260206004820152601360248201527f456e642074696d6520697320696e2070617374000000000000000000000000006044820152606401610768565b60008211612a435760405160e560020a62461bcd02815260206004820152600a60248201527f50726963652069732030000000000000000000000000000000000000000000006044820152606401610768565b6032811015612a975760405160e560020a62461bcd02815260206004820152601960248201527f5469636b657420617661696c69626c6520756e646572203530000000000000006044820152606401610768565b6040805160e08101825286815260208082019687528183019586526060820194855260006080830181815260a08401958652600160c08501818152601480548084019091557fce6d7b5282bd9a3661ae061feed1dbda4e52ab073b1f9285be6e155d9c38d4ec018c90559a835260139093529390209151825595519581019590955592516002850155905160038401559051600483015551600582015590516006909101805460ff1916911515919091179055565b600754600160a060020a03163314612b795760405160e560020a62461bcd028152600401610768906140ba565b600160a060020a038116612bf85760405160e560020a62461bcd02815260206004820152602660248201527f4f776e61626c653a206e6577206f776e657220697320746865207a65726f206160448201527f64647265737300000000000000000000000000000000000000000000000000006064820152608401610768565b612c0181612d63565b50565b8015612ca2576000828152600f6020526040812081815560018101829055600201805474ffffffffffffffffffffffffffffffffffffffffff191690555b601054811015610e57578260108281548110612c6057612c6061427d565b90600052602060002001541415612c905760108181548110612c8457612c8461427d565b60009182526020822001555b80612c9a8161421c565b915050612c42565b50601080546001810182556000919091527f1b6847dc741a1b0cd08d278845f9d819d87b734759afb55fe2de5cb82a9ae6720155565b600090815260026020526040902054600160a060020a0316151590565b60008181526004602052604090208054600160a060020a031916600160a060020a0384169081179091558190612d2a8261177a565b600160a060020a03167f8c5be1e5ebec7d5bd14f71427d1e84f3dd0314c0f7b2291e5b200ac8c7c3b92560405160405180910390a45050565b60078054600160a060020a03838116600160a060020a0319831681179093556040519116919082907f8be0079c531659141344cd1fd0a4f28419497f9722a3daafe3b4186f6b6457e090600090a35050565b610c84828260405180602001604052806000815250613085565b612dd882612cd8565b612e4d5760405160e560020a62461bcd02815260206004820152602e60248201527f45524337323155524953746f726167653a2055524920736574206f66206e6f6e60448201527f6578697374656e7420746f6b656e0000000000000000000000000000000000006064820152608401610768565b60008281526006602090815260409091208251610e5792840190613912565b6000612e7782612cd8565b612eec5760405160e560020a62461bcd02815260206004820152602c60248201527f4552433732313a206f70657261746f7220717565727920666f72206e6f6e657860448201527f697374656e7420746f6b656e00000000000000000000000000000000000000006064820152608401610768565b6000612ef78361177a565b905080600160a060020a031684600160a060020a03161480612f32575083600160a060020a0316612f2784610c88565b600160a060020a0316145b806110f75750600160a060020a0380821660009081526005602090815260408083209388168352929052205460ff166110f7565b612f718484846130bb565b612f7d84848484613299565b6125835760405160e560020a62461bcd0281526004016107689061405d565b6060612fa782612cd8565b61301c5760405160e560020a62461bcd02815260206004820152602f60248201527f4552433732314d657461646174613a2055524920717565727920666f72206e6f60448201527f6e6578697374656e7420746f6b656e00000000000000000000000000000000006064820152608401610768565b600061303360408051602081019091526000815290565b90506000815111613053576040518060200160405280600081525061307e565b8061305d846133d8565b60405160200161306e929190613ea5565b6040516020818303038152906040525b9392505050565b61308f8383613529565b61309c6000848484613299565b610e575760405160e560020a62461bcd0281526004016107689061405d565b82600160a060020a03166130ce8261177a565b600160a060020a03161461314d5760405160e560020a62461bcd02815260206004820152602960248201527f4552433732313a207472616e73666572206f6620746f6b656e2074686174206960448201527f73206e6f74206f776e00000000000000000000000000000000000000000000006064820152608401610768565b600160a060020a0382166131cb5760405160e560020a62461bcd028152602060048201526024808201527f4552433732313a207472616e7366657220746f20746865207a65726f2061646460448201527f72657373000000000000000000000000000000000000000000000000000000006064820152608401610768565b6131d683838361366e565b6131e1600082612cf5565b600160a060020a038316600090815260036020526040812080546001929061320a908490614184565b9091555050600160a060020a0382166000908152600360205260408120805460019290613238908490614139565b90915550506000818152600260205260408082208054600160a060020a031916600160a060020a0386811691821790925591518493918716917fddf252ad1be2c89b69c2b068fc378daa952ba7f163c4a11628f55a4df523b3ef91a4505050565b6000600160a060020a0384163b156133d0576040517f150b7a02000000000000000000000000000000000000000000000000000000008152600160a060020a0385169063150b7a02906132f6903390899088908890600401613ed4565b602060405180830381600087803b15801561331057600080fd5b505af1925050508015613340575060408051601f3d908101601f1916820190925261333d91810190613ccb565b60015b61339d573d80801561336e576040519150601f19603f3d011682016040523d82523d6000602084013e613373565b606091505b5080516133955760405160e560020a62461bcd0281526004016107689061405d565b805181602001fd5b600160e060020a0319167f150b7a02000000000000000000000000000000000000000000000000000000001490506110f7565b5060016110f7565b60608161341857505060408051808201909152600181527f3000000000000000000000000000000000000000000000000000000000000000602082015290565b8160005b8115613442578061342c8161421c565b915061343b9050600a83614151565b915061341c565b60008167ffffffffffffffff81111561345d5761345d614296565b6040519080825280601f01601f191660200182016040528015613487576020820181803683370190505b5090505b84156110f75761349c600183614184565b91506134a9600a86614237565b6134b4906030614139565b7f0100000000000000000000000000000000000000000000000000000000000000028183815181106134e8576134e861427d565b60200101907effffffffffffffffffffffffffffffffffffffffffffffffffffffffffffff1916908160001a905350613522600a86614151565b945061348b565b600160a060020a0382166135825760405160e560020a62461bcd02815260206004820181905260248201527f4552433732313a206d696e7420746f20746865207a65726f20616464726573736044820152606401610768565b61358b81612cd8565b156135db5760405160e560020a62461bcd02815260206004820152601c60248201527f4552433732313a20746f6b656e20616c7265616479206d696e746564000000006044820152606401610768565b6135e76000838361366e565b600160a060020a0382166000908152600360205260408120805460019290613610908490614139565b90915550506000818152600260205260408082208054600160a060020a031916600160a060020a03861690811790915590518392907fddf252ad1be2c89b69c2b068fc378daa952ba7f163c4a11628f55a4df523b3ef908290a45050565b600160a060020a0383166000908152600a6020908152604080832080548251818502810185019093528083529192909190849084015b828210156136f957600084815260209081902060408051606081018252600386029092018054835260018082015484860152600290910154600160a060020a03169183019190915290835290920191016136a4565b505050600160a060020a0386166000908152600a60205260408120929350613722929150613a2f565b60005b81518110156138a057828282815181106137415761374161427d565b602002602001015160000151146137df57600160a060020a0385166000908152600a60205260409020825183908390811061377e5761377e61427d565b6020908102919091018101518254600180820185556000948552938390208251600390920201908155918101519282019290925560409091015160029091018054600160a060020a031916600160a060020a0390921691909117905561388e565b838282815181106137f2576137f261427d565b602090810291909101810151600160a060020a039283166040918201529186166000908152600a9091522082518390839081106138315761383161427d565b6020908102919091018101518254600180820185556000948552938390208251600390920201908155918101519282019290925560409091015160029091018054600160a060020a031916600160a060020a039092169190911790555b806138988161421c565b915050613725565b50506000908152600b602052604090208054600160a060020a031916600160a060020a039290921691909117905550565b6040518060e0016040528060008152602001600081526020016000815260200160008152602001606081526020016000151581526020016000151581525090565b82805461391e906141de565b90600052602060002090601f0160209004810192826139405760008555613986565b82601f1061395957805160ff1916838001178555613986565b82800160010185558215613986579182015b8281111561398657825182559160200191906001019061396b565b50613992929150613a50565b5090565b8280546139a2906141de565b90600052602060002090601f0160209004810192826139c45760008555613986565b82601f106139d55780548555613986565b8280016001018555821561398657600052602060002091601f016020900482015b828111156139865782548255916001019190600101906139f6565b5080546000825590600052602060002090810190612c019190613a50565b5080546000825560030290600052602060002090810190612c019190613a65565b5b808211156139925760008155600101613a51565b5b808211156139925760008082556001820155600281018054600160a060020a0319169055600301613a66565b600067ffffffffffffffff80841115613aad57613aad614296565b604051601f8501601f19908116603f01168101908282118183101715613ad557613ad5614296565b81604052809350858152868686011115613aee57600080fd5b858560208301376000602087830101525050509392505050565b8035600160a060020a0381168114613b1f57600080fd5b919050565b80358015158114613b1f57600080fd5b600082601f830112613b4557600080fd5b61307e83833560208501613a92565b600060208284031215613b6657600080fd5b61307e82613b08565b60008060408385031215613b8257600080fd5b613b8b83613b08565b9150613b9960208401613b08565b90509250929050565b600080600060608486031215613bb757600080fd5b613bc084613b08565b9250613bce60208501613b08565b9150604084013590509250925092565b60008060008060808587031215613bf457600080fd5b613bfd85613b08565b9350613c0b60208601613b08565b925060408501359150606085013567ffffffffffffffff811115613c2e57600080fd5b8501601f81018713613c3f57600080fd5b613c4e87823560208401613a92565b91505092959194509250565b60008060408385031215613c6d57600080fd5b613c7683613b08565b9150613b9960208401613b24565b60008060408385031215613c9757600080fd5b613ca083613b08565b946020939093013593505050565b600060208284031215613cc057600080fd5b813561307e816142af565b600060208284031215613cdd57600080fd5b815161307e816142af565b60008060008060008060c08789031215613d0157600080fd5b863567ffffffffffffffff811115613d1857600080fd5b613d2489828a01613b34565b96505060208701359450604087013593506060870135925060808701359150613d4f60a08801613b24565b90509295509295509295565b600060208284031215613d6d57600080fd5b5035919050565b60008060408385031215613d8757600080fd5b82359150602083013567ffffffffffffffff811115613da557600080fd5b613db185828601613b34565b9150509250929050565b60008060408385031215613dce57600080fd5b50508035926020909101359150565b600080600080600060a08688031215613df557600080fd5b505083359560208501359550604085013594606081013594506080013592509050565b60008151808452613e3081602086016020860161419b565b601f01601f19169290920160200192915050565b805182526020810151602083015260408101516040830152606081015160608301526000608082015160e06080850152613e8160e0850182613e18565b905060a0830151151560a085015260c0830151151560c08501528091505092915050565b60008351613eb781846020880161419b565b835190830190613ecb81836020880161419b565b01949350505050565b6000600160a060020a03808716835280861660208401525083604083015260806060830152613f066080830184613e18565b9695505050505050565b602080825282518282018190526000919060409081850190868401855b82811015613f875781518051855286810151878601528581015186860152606080820151908601526080808201519086015260a0808201519086015260c09081015115159085015260e09093019290850190600101613f2d565b5091979650505050505050565b600060208083018184528085518083526040860191506040848202870101925083870160005b82811015613fe857603f19888603018452613fd6858351613e44565b94509285019290850190600101613fba565b5092979650505050505050565b602080825282518282018190526000919060409081850190868401855b82811015613f87578151805185528681015187860152850151600160a060020a03168585015260609093019290850190600101614012565b60208152600061307e6020830184613e18565b60208082526032908201527f4552433732313a207472616e7366657220746f206e6f6e20455243373231526560408201527f63656976657220696d706c656d656e7465720000000000000000000000000000606082015260800190565b6020808252818101527f4f776e61626c653a2063616c6c6572206973206e6f7420746865206f776e6572604082015260600190565b60208082526010908201527f496e636f727265637420616d6f756e7400000000000000000000000000000000604082015260600190565b60208152600061307e6020830184613e44565b6000821982111561414c5761414c61424b565b500190565b60008261416057614160614264565b500490565b600081600019048311821515161561417f5761417f61424b565b500290565b6000828210156141965761419661424b565b500390565b60005b838110156141b657818101518382015260200161419e565b838111156125835750506000910152565b6000816141d6576141d661424b565b506000190190565b6002810460018216806141f257607f821691505b602082108114156142165760e060020a634e487b7102600052602260045260246000fd5b50919050565b60006000198214156142305761423061424b565b5060010190565b60008261424657614246614264565b500690565b60e060020a634e487b7102600052601160045260246000fd5b60e060020a634e487b7102600052601260045260246000fd5b60e060020a634e487b7102600052603260045260246000fd5b60e060020a634e487b7102600052604160045260246000fd5b600160e060020a031981168114612c0157600080fdfea26469706673582212201460cb0ccc93d514ffcc5b7f7d9ed97d1513b4c0b8b3e4774a0f4252b6b31bc464736f6c63430008070033",
  "immutableReferences": {},
  "source": "// SPDX-License-Identifier: MIT\n\npragma solidity ^0.8.0;\n\nimport \"./Lottery.sol\";\n\n/**\n* @title ERC721 Lottery utils methods\n* @author Youness Chetoui\n*/\ncontract LotteryUtils is Lottery {\n\n    /**\n    * @notice Get all lottery available\n    * @return LotteryAvailable[] lottery\n    */\n    function getlotteryAvailable() public view onlyOwner returns(LotteryAvailable[] memory) {\n        LotteryAvailable[] memory lotterys;\n        for(uint256 i; i < arrayLotteryAvailable.length; i++) {\n            lotterys[i] = lotteryAvailable[arrayLotteryAvailable[i]];\n        }\n\n        return lotterys;\n    }\n}\n",
  "sourcePath": "/home/youness/Crypto/PoliticsCollectible/contracts/LotteryUtils.sol",
  "compiler": {
    "name": "solc",
    "version": "0.8.7+commit.e28d00a7.Emscripten.clang"
  },
  "schemaVersion": "3.4.3",
  "updatedAt": "2021-09-02T13:41:26.735Z",
  "devdoc": {
    "author": "Youness Chetoui",
    "kind": "dev",
    "methods": {
      "addQty(uint256,uint256)": {
        "params": {
          "_id": "of PoliticsAvailable and _qty wished"
        }
      },
      "approve(address,uint256)": {
        "details": "See {IERC721-approve}."
      },
      "balanceOf(address)": {
        "details": "See {IERC721-balanceOf}."
      },
      "buy(uint256,string)": {
        "params": {
          "_id": ", _tokenUri of politician available"
        }
      },
      "buyPoliticsForSale(uint256)": {
        "params": {
          "_tokenId": "of politician for sale"
        }
      },
      "cancelSell(uint256)": {
        "params": {
          "_tokenId": "of politician for sale"
        }
      },
      "create(string,uint256,uint256,uint256,uint256,bool)": {
        "params": {
          "_name": ", _id, _qty, _level, _price and _lottery of politician available"
        },
        "returns": {
          "_0": "PoliticsAvailable created"
        }
      },
      "createLottery(uint256,uint256,uint256,uint256,uint256)": {
        "params": {
          "_id": ", _id_politics, _end_time, _price, _ticket_available"
        }
      },
      "forSale(uint256,uint256)": {
        "params": {
          "_tokenId": "of politician owned and _price wished"
        }
      },
      "getApproved(uint256)": {
        "details": "See {IERC721-getApproved}."
      },
      "getMyPolitics()": {
        "returns": {
          "_0": "array of struct PoliticsOwned"
        }
      },
      "getPolitics()": {
        "returns": {
          "_0": "Array of struct PoliticsAvailable"
        }
      },
      "getlotteryAvailable()": {
        "returns": {
          "_0": "LotteryAvailable[] lottery"
        }
      },
      "isApprovedForAll(address,address)": {
        "details": "See {IERC721-isApprovedForAll}."
      },
      "name()": {
        "details": "See {IERC721Metadata-name}."
      },
      "onERC721Received(address,address,uint256,bytes)": {
        "details": "See {IERC721Receiver-onERC721Received}. Always returns `IERC721Receiver.onERC721Received.selector`."
      },
      "onEndLottery(uint256)": {
        "params": {
          "_id": "of lottery"
        }
      },
      "owner()": {
        "details": "Returns the address of the current owner."
      },
      "ownerOf(uint256)": {
        "details": "See {IERC721-ownerOf}."
      },
      "playLottery(uint256)": {
        "params": {
          "_id": "of lottery"
        }
      },
      "renounceOwnership()": {
        "details": "Leaves the contract without owner. It will not be possible to call `onlyOwner` functions anymore. Can only be called by the current owner. NOTE: Renouncing ownership will leave the contract without an owner, thereby removing any functionality that is only available to the owner."
      },
      "safeTransferFrom(address,address,uint256)": {
        "details": "See {IERC721-safeTransferFrom}."
      },
      "safeTransferFrom(address,address,uint256,bytes)": {
        "details": "See {IERC721-safeTransferFrom}."
      },
      "setApprovalForAll(address,bool)": {
        "details": "See {IERC721-setApprovalForAll}."
      },
      "supportsInterface(bytes4)": {
        "details": "See {IERC165-supportsInterface}."
      },
      "symbol()": {
        "details": "See {IERC721Metadata-symbol}."
      },
      "tokenURI(uint256)": {
        "details": "See {IERC721Metadata-tokenURI}."
      },
      "transferOwnership(address)": {
        "details": "Transfers ownership of the contract to a new account (`newOwner`). Can only be called by the current owner."
      }
    },
    "title": "ERC721 Lottery utils methods",
    "version": 1
  },
  "userdoc": {
    "kind": "user",
    "methods": {
      "addQty(uint256,uint256)": {
        "notice": "Add quantity for a PoliticsAvailable"
      },
      "buy(uint256,string)": {
        "notice": "Buy politician"
      },
      "buyPoliticsForSale(uint256)": {
        "notice": "Buy politician"
      },
      "cancelSell(uint256)": {
        "notice": "Cancel the sell of politician"
      },
      "create(string,uint256,uint256,uint256,uint256,bool)": {
        "notice": "Create politician"
      },
      "createLottery(uint256,uint256,uint256,uint256,uint256)": {
        "notice": "Create lottery"
      },
      "forSale(uint256,uint256)": {
        "notice": "Up for sale of owned politician"
      },
      "getMyPolitics()": {
        "notice": "Get politician by user"
      },
      "getPolitics()": {
        "notice": "get list of all politician available"
      },
      "getlotteryAvailable()": {
        "notice": "Get all lottery available"
      },
      "onEndLottery(uint256)": {
        "notice": "End lottery"
      },
      "playLottery(uint256)": {
        "notice": "Play lottery"
      },
      "transferFrom(address,address,uint256)": {
        "notice": "Disabled not safe transform"
      }
    },
    "version": 1
  }
}