{
  "contractName": "Lottery",
  "abi": [
    {
      "anonymous": false,
      "inputs": [
        {
          "indexed": true,
          "internalType": "address",
          "name": "owner",
          "type": "address"
        },
        {
          "indexed": true,
          "internalType": "address",
          "name": "approved",
          "type": "address"
        },
        {
          "indexed": true,
          "internalType": "uint256",
          "name": "tokenId",
          "type": "uint256"
        }
      ],
      "name": "Approval",
      "type": "event"
    },
    {
      "anonymous": false,
      "inputs": [
        {
          "indexed": true,
          "internalType": "address",
          "name": "owner",
          "type": "address"
        },
        {
          "indexed": true,
          "internalType": "address",
          "name": "operator",
          "type": "address"
        },
        {
          "indexed": false,
          "internalType": "bool",
          "name": "approved",
          "type": "bool"
        }
      ],
      "name": "ApprovalForAll",
      "type": "event"
    },
    {
      "anonymous": false,
      "inputs": [
        {
          "indexed": true,
          "internalType": "address",
          "name": "previousOwner",
          "type": "address"
        },
        {
          "indexed": true,
          "internalType": "address",
          "name": "newOwner",
          "type": "address"
        }
      ],
      "name": "OwnershipTransferred",
      "type": "event"
    },
    {
      "anonymous": false,
      "inputs": [
        {
          "indexed": true,
          "internalType": "address",
          "name": "from",
          "type": "address"
        },
        {
          "indexed": true,
          "internalType": "address",
          "name": "to",
          "type": "address"
        },
        {
          "indexed": true,
          "internalType": "uint256",
          "name": "tokenId",
          "type": "uint256"
        }
      ],
      "name": "Transfer",
      "type": "event"
    },
    {
      "inputs": [
        {
          "internalType": "uint256",
          "name": "_id",
          "type": "uint256"
        },
        {
          "internalType": "uint256",
          "name": "_qty",
          "type": "uint256"
        }
      ],
      "name": "addQty",
      "outputs": [],
      "stateMutability": "nonpayable",
      "type": "function"
    },
    {
      "inputs": [
        {
          "internalType": "address",
          "name": "to",
          "type": "address"
        },
        {
          "internalType": "uint256",
          "name": "tokenId",
          "type": "uint256"
        }
      ],
      "name": "approve",
      "outputs": [],
      "stateMutability": "nonpayable",
      "type": "function"
    },
    {
      "inputs": [
        {
          "internalType": "address",
          "name": "owner",
          "type": "address"
        }
      ],
      "name": "balanceOf",
      "outputs": [
        {
          "internalType": "uint256",
          "name": "",
          "type": "uint256"
        }
      ],
      "stateMutability": "view",
      "type": "function"
    },
    {
      "inputs": [
        {
          "internalType": "uint256",
          "name": "_id",
          "type": "uint256"
        }
      ],
      "name": "buy",
      "outputs": [],
      "stateMutability": "payable",
      "type": "function"
    },
    {
      "inputs": [],
      "name": "contractAddress",
      "outputs": [
        {
          "internalType": "address payable",
          "name": "",
          "type": "address"
        }
      ],
      "stateMutability": "view",
      "type": "function"
    },
    {
      "inputs": [
        {
          "internalType": "string",
          "name": "_name",
          "type": "string"
        },
        {
          "internalType": "uint256",
          "name": "_id",
          "type": "uint256"
        },
        {
          "internalType": "uint256",
          "name": "_qty",
          "type": "uint256"
        },
        {
          "internalType": "uint256",
          "name": "_level",
          "type": "uint256"
        },
        {
          "internalType": "uint256",
          "name": "_price",
          "type": "uint256"
        },
        {
          "internalType": "bool",
          "name": "_lottery",
          "type": "bool"
        }
      ],
      "name": "create",
      "outputs": [
        {
          "components": [
            {
              "internalType": "uint256",
              "name": "id",
              "type": "uint256"
            },
            {
              "internalType": "uint256",
              "name": "qty",
              "type": "uint256"
            },
            {
              "internalType": "uint256",
              "name": "level",
              "type": "uint256"
            },
            {
              "internalType": "uint256",
              "name": "price",
              "type": "uint256"
            },
            {
              "internalType": "string",
              "name": "name",
              "type": "string"
            },
            {
              "internalType": "bool",
              "name": "lottery",
              "type": "bool"
            },
            {
              "internalType": "bool",
              "name": "created",
              "type": "bool"
            }
          ],
          "internalType": "struct Collectible.PoliticsAvailable",
          "name": "",
          "type": "tuple"
        }
      ],
      "stateMutability": "nonpayable",
      "type": "function"
    },
    {
      "inputs": [
        {
          "internalType": "uint256",
          "name": "tokenId",
          "type": "uint256"
        }
      ],
      "name": "getApproved",
      "outputs": [
        {
          "internalType": "address",
          "name": "",
          "type": "address"
        }
      ],
      "stateMutability": "view",
      "type": "function"
    },
    {
      "inputs": [],
      "name": "getMyPolitics",
      "outputs": [
        {
          "components": [
            {
              "internalType": "uint256",
              "name": "id",
              "type": "uint256"
            },
            {
              "internalType": "uint256",
              "name": "id_politic",
              "type": "uint256"
            },
            {
              "internalType": "address",
              "name": "owner",
              "type": "address"
            }
          ],
          "internalType": "struct Collectible.PoliticsOwned[]",
          "name": "",
          "type": "tuple[]"
        }
      ],
      "stateMutability": "view",
      "type": "function"
    },
    {
      "inputs": [
        {
          "internalType": "uint256",
          "name": "_id",
          "type": "uint256"
        }
      ],
      "name": "getPolitic",
      "outputs": [
        {
          "components": [
            {
              "internalType": "uint256",
              "name": "id",
              "type": "uint256"
            },
            {
              "internalType": "uint256",
              "name": "qty",
              "type": "uint256"
            },
            {
              "internalType": "uint256",
              "name": "level",
              "type": "uint256"
            },
            {
              "internalType": "uint256",
              "name": "price",
              "type": "uint256"
            },
            {
              "internalType": "string",
              "name": "name",
              "type": "string"
            },
            {
              "internalType": "bool",
              "name": "lottery",
              "type": "bool"
            },
            {
              "internalType": "bool",
              "name": "created",
              "type": "bool"
            }
          ],
          "internalType": "struct Collectible.PoliticsAvailable",
          "name": "",
          "type": "tuple"
        }
      ],
      "stateMutability": "view",
      "type": "function"
    },
    {
      "inputs": [],
      "name": "getPolitics",
      "outputs": [
        {
          "components": [
            {
              "internalType": "uint256",
              "name": "id",
              "type": "uint256"
            },
            {
              "internalType": "uint256",
              "name": "qty",
              "type": "uint256"
            },
            {
              "internalType": "uint256",
              "name": "level",
              "type": "uint256"
            },
            {
              "internalType": "uint256",
              "name": "price",
              "type": "uint256"
            },
            {
              "internalType": "string",
              "name": "name",
              "type": "string"
            },
            {
              "internalType": "bool",
              "name": "lottery",
              "type": "bool"
            },
            {
              "internalType": "bool",
              "name": "created",
              "type": "bool"
            }
          ],
          "internalType": "struct Collectible.PoliticsAvailable[]",
          "name": "",
          "type": "tuple[]"
        }
      ],
      "stateMutability": "view",
      "type": "function"
    },
    {
      "inputs": [
        {
          "internalType": "address",
          "name": "owner",
          "type": "address"
        },
        {
          "internalType": "address",
          "name": "operator",
          "type": "address"
        }
      ],
      "name": "isApprovedForAll",
      "outputs": [
        {
          "internalType": "bool",
          "name": "",
          "type": "bool"
        }
      ],
      "stateMutability": "view",
      "type": "function"
    },
    {
      "inputs": [],
      "name": "name",
      "outputs": [
        {
          "internalType": "string",
          "name": "",
          "type": "string"
        }
      ],
      "stateMutability": "view",
      "type": "function"
    },
    {
      "inputs": [],
      "name": "owner",
      "outputs": [
        {
          "internalType": "address",
          "name": "",
          "type": "address"
        }
      ],
      "stateMutability": "view",
      "type": "function"
    },
    {
      "inputs": [],
      "name": "ownerAddress",
      "outputs": [
        {
          "internalType": "address payable",
          "name": "",
          "type": "address"
        }
      ],
      "stateMutability": "view",
      "type": "function"
    },
    {
      "inputs": [
        {
          "internalType": "uint256",
          "name": "tokenId",
          "type": "uint256"
        }
      ],
      "name": "ownerOf",
      "outputs": [
        {
          "internalType": "address",
          "name": "",
          "type": "address"
        }
      ],
      "stateMutability": "view",
      "type": "function"
    },
    {
      "inputs": [],
      "name": "renounceOwnership",
      "outputs": [],
      "stateMutability": "nonpayable",
      "type": "function"
    },
    {
      "inputs": [
        {
          "internalType": "address",
          "name": "from",
          "type": "address"
        },
        {
          "internalType": "address",
          "name": "to",
          "type": "address"
        },
        {
          "internalType": "uint256",
          "name": "tokenId",
          "type": "uint256"
        }
      ],
      "name": "safeTransferFrom",
      "outputs": [],
      "stateMutability": "nonpayable",
      "type": "function"
    },
    {
      "inputs": [
        {
          "internalType": "address",
          "name": "from",
          "type": "address"
        },
        {
          "internalType": "address",
          "name": "to",
          "type": "address"
        },
        {
          "internalType": "uint256",
          "name": "tokenId",
          "type": "uint256"
        },
        {
          "internalType": "bytes",
          "name": "_data",
          "type": "bytes"
        }
      ],
      "name": "safeTransferFrom",
      "outputs": [],
      "stateMutability": "nonpayable",
      "type": "function"
    },
    {
      "inputs": [
        {
          "internalType": "address",
          "name": "operator",
          "type": "address"
        },
        {
          "internalType": "bool",
          "name": "approved",
          "type": "bool"
        }
      ],
      "name": "setApprovalForAll",
      "outputs": [],
      "stateMutability": "nonpayable",
      "type": "function"
    },
    {
      "inputs": [
        {
          "internalType": "bytes4",
          "name": "interfaceId",
          "type": "bytes4"
        }
      ],
      "name": "supportsInterface",
      "outputs": [
        {
          "internalType": "bool",
          "name": "",
          "type": "bool"
        }
      ],
      "stateMutability": "view",
      "type": "function"
    },
    {
      "inputs": [],
      "name": "symbol",
      "outputs": [
        {
          "internalType": "string",
          "name": "",
          "type": "string"
        }
      ],
      "stateMutability": "view",
      "type": "function"
    },
    {
      "inputs": [
        {
          "internalType": "uint256",
          "name": "tokenId",
          "type": "uint256"
        }
      ],
      "name": "tokenURI",
      "outputs": [
        {
          "internalType": "string",
          "name": "",
          "type": "string"
        }
      ],
      "stateMutability": "view",
      "type": "function"
    },
    {
      "inputs": [
        {
          "internalType": "address",
          "name": "from",
          "type": "address"
        },
        {
          "internalType": "address",
          "name": "to",
          "type": "address"
        },
        {
          "internalType": "uint256",
          "name": "tokenId",
          "type": "uint256"
        }
      ],
      "name": "transferFrom",
      "outputs": [],
      "stateMutability": "nonpayable",
      "type": "function"
    },
    {
      "inputs": [
        {
          "internalType": "address",
          "name": "newOwner",
          "type": "address"
        }
      ],
      "name": "transferOwnership",
      "outputs": [],
      "stateMutability": "nonpayable",
      "type": "function"
    }
  ],
  "bytecode": "0x60806040526001600d553480156200001657600080fd5b506040518060400160405280600b81526020017f506f6c69746963734e66740000000000000000000000000000000000000000008152506040518060400160405280600381526020017f504f4c000000000000000000000000000000000000000000000000000000000081525081600090805190602001906200009b9291906200022d565b508060019080519060200190620000b49291906200022d565b505050620000d7620000cb6200015f60201b60201c565b6200016760201b60201c565b33600b60006101000a81548173ffffffffffffffffffffffffffffffffffffffff021916908373ffffffffffffffffffffffffffffffffffffffff16021790555030600c60006101000a81548173ffffffffffffffffffffffffffffffffffffffff021916908373ffffffffffffffffffffffffffffffffffffffff16021790555062000342565b600033905090565b6000600660009054906101000a900473ffffffffffffffffffffffffffffffffffffffff16905081600660006101000a81548173ffffffffffffffffffffffffffffffffffffffff021916908373ffffffffffffffffffffffffffffffffffffffff1602179055508173ffffffffffffffffffffffffffffffffffffffff168173ffffffffffffffffffffffffffffffffffffffff167f8be0079c531659141344cd1fd0a4f28419497f9722a3daafe3b4186f6b6457e060405160405180910390a35050565b8280546200023b90620002dd565b90600052602060002090601f0160209004810192826200025f5760008555620002ab565b82601f106200027a57805160ff1916838001178555620002ab565b82800160010185558215620002ab579182015b82811115620002aa5782518255916020019190600101906200028d565b5b509050620002ba9190620002be565b5090565b5b80821115620002d9576000816000905550600101620002bf565b5090565b60006002820490506001821680620002f657607f821691505b602082108114156200030d576200030c62000313565b5b50919050565b7f4e487b7100000000000000000000000000000000000000000000000000000000600052602260045260246000fd5b614c4f80620003526000396000f3fe60806040526004361061014b5760003560e01c806385d33436116100b6578063b9db1c981161006f578063b9db1c98146104a4578063c87b56dd146104cd578063d96a094a1461050a578063e985e9c514610526578063f2fde38b14610563578063f6b4dfb41461058c5761014b565b806385d33436146103a65780638da5cb5b146103d15780638f84aa09146103fc57806395d89b4114610427578063a22cb46514610452578063b88d4fde1461047b5761014b565b806330f105cd1161010857806330f105cd1461028457806342842e0e146102af5780635ad16b7f146102d85780636352211e1461031557806370a0823114610352578063715018a61461038f5761014b565b806301ffc9a71461015057806306fdde031461018d578063081812fc146101b8578063095ea7b3146101f5578063111432771461021e57806323b872dd1461025b575b600080fd5b34801561015c57600080fd5b5061017760048036038101906101729190613465565b6105b7565b6040516101849190613db6565b60405180910390f35b34801561019957600080fd5b506101a2610699565b6040516101af9190613dd1565b60405180910390f35b3480156101c457600080fd5b506101df60048036038101906101da9190613568565b61072b565b6040516101ec9190613cf0565b60405180910390f35b34801561020157600080fd5b5061021c60048036038101906102179190613425565b6107b0565b005b34801561022a57600080fd5b50610245600480360381019061024091906134bf565b6108c8565b6040516102529190614093565b60405180910390f35b34801561026757600080fd5b50610282600480360381019061027d919061330f565b610b49565b005b34801561029057600080fd5b50610299610bca565b6040516102a69190613d72565b60405180910390f35b3480156102bb57600080fd5b506102d660048036038101906102d1919061330f565b610d95565b005b3480156102e457600080fd5b506102ff60048036038101906102fa9190613568565b610db5565b60405161030c9190614093565b60405180910390f35b34801561032157600080fd5b5061033c60048036038101906103379190613568565b610fb1565b6040516103499190613cf0565b60405180910390f35b34801561035e57600080fd5b50610379600480360381019061037491906132a2565b611063565b60405161038691906140b5565b60405180910390f35b34801561039b57600080fd5b506103a461111b565b005b3480156103b257600080fd5b506103bb6111a3565b6040516103c89190613d94565b60405180910390f35b3480156103dd57600080fd5b506103e66112a9565b6040516103f39190613cf0565b60405180910390f35b34801561040857600080fd5b506104116112d3565b60405161041e9190613d0b565b60405180910390f35b34801561043357600080fd5b5061043c6112f9565b6040516104499190613dd1565b60405180910390f35b34801561045e57600080fd5b50610479600480360381019061047491906133e5565b61138b565b005b34801561048757600080fd5b506104a2600480360381019061049d9190613362565b61150c565b005b3480156104b057600080fd5b506104cb60048036038101906104c69190613595565b61196c565b005b3480156104d957600080fd5b506104f460048036038101906104ef9190613568565b611b72565b6040516105019190613dd1565b60405180910390f35b610524600480360381019061051f9190613568565b611c19565b005b34801561053257600080fd5b5061054d600480360381019061054891906132cf565b612263565b60405161055a9190613db6565b60405180910390f35b34801561056f57600080fd5b5061058a600480360381019061058591906132a2565b6122f7565b005b34801561059857600080fd5b506105a16123ef565b6040516105ae9190613d0b565b60405180910390f35b60007f80ac58cd000000000000000000000000000000000000000000000000000000007bffffffffffffffffffffffffffffffffffffffffffffffffffffffff1916827bffffffffffffffffffffffffffffffffffffffffffffffffffffffff1916148061068257507f5b5e139f000000000000000000000000000000000000000000000000000000007bffffffffffffffffffffffffffffffffffffffffffffffffffffffff1916827bffffffffffffffffffffffffffffffffffffffffffffffffffffffff1916145b80610692575061069182612415565b5b9050919050565b6060600080546106a890614424565b80601f01602080910402602001604051908101604052809291908181526020018280546106d490614424565b80156107215780601f106106f657610100808354040283529160200191610721565b820191906000526020600020905b81548152906001019060200180831161070457829003601f168201915b5050505050905090565b60006107368261247f565b610775576040517f08c379a000000000000000000000000000000000000000000000000000000000815260040161076c90613f73565b60405180910390fd5b6004600083815260200190815260200160002060009054906101000a900473ffffffffffffffffffffffffffffffffffffffff169050919050565b60006107bb82610fb1565b90508073ffffffffffffffffffffffffffffffffffffffff168373ffffffffffffffffffffffffffffffffffffffff16141561082c576040517f08c379a000000000000000000000000000000000000000000000000000000000815260040161082390613ff3565b60405180910390fd5b8073ffffffffffffffffffffffffffffffffffffffff1661084b6124eb565b73ffffffffffffffffffffffffffffffffffffffff16148061087a5750610879816108746124eb565b612263565b5b6108b9576040517f08c379a00000000000000000000000000000000000000000000000000000000081526004016108b090613ef3565b60405180910390fd5b6108c383836124f3565b505050565b6108d0612f76565b6108d86124eb565b73ffffffffffffffffffffffffffffffffffffffff166108f66112a9565b73ffffffffffffffffffffffffffffffffffffffff161461094c576040517f08c379a000000000000000000000000000000000000000000000000000000000815260040161094390613f93565b60405180910390fd5b6008600087815260200190815260200160002060050160019054906101000a900460ff16156109b0576040517f08c379a00000000000000000000000000000000000000000000000000000000081526004016109a790614033565b60405180910390fd5b60006040518060e0016040528088815260200187815260200186815260200185815260200189815260200184151581526020016001151581525090506007819080600181540180825580915050600190039060005260206000209060060201600090919091909150600082015181600001556020820151816001015560408201518160020155606082015181600301556080820151816004019080519060200190610a5c929190612fb7565b5060a08201518160050160006101000a81548160ff02191690831515021790555060c08201518160050160016101000a81548160ff02191690831515021790555050508060086000898152602001908152602001600020600082015181600001556020820151816001015560408201518160020155606082015181600301556080820151816004019080519060200190610af7929190612fb7565b5060a08201518160050160006101000a81548160ff02191690831515021790555060c08201518160050160016101000a81548160ff021916908315150217905550905050809150509695505050505050565b610b516124eb565b73ffffffffffffffffffffffffffffffffffffffff16610b6f6112a9565b73ffffffffffffffffffffffffffffffffffffffff1614610bc5576040517f08c379a0000000000000000000000000000000000000000000000000000000008152600401610bbc90613f93565b60405180910390fd5b505050565b6060610bd46124eb565b73ffffffffffffffffffffffffffffffffffffffff16610bf26112a9565b73ffffffffffffffffffffffffffffffffffffffff1614610c48576040517f08c379a0000000000000000000000000000000000000000000000000000000008152600401610c3f90613f93565b60405180910390fd5b6007805480602002602001604051908101604052809291908181526020016000905b82821015610d8c57838290600052602060002090600602016040518060e001604052908160008201548152602001600182015481526020016002820154815260200160038201548152602001600482018054610cc590614424565b80601f0160208091040260200160405190810160405280929190818152602001828054610cf190614424565b8015610d3e5780601f10610d1357610100808354040283529160200191610d3e565b820191906000526020600020905b815481529060010190602001808311610d2157829003601f168201915b505050505081526020016005820160009054906101000a900460ff161515151581526020016005820160019054906101000a900460ff16151515158152505081526020019060010190610c6a565b50505050905090565b610db08383836040518060200160405280600081525061150c565b505050565b610dbd612f76565b610dc56124eb565b73ffffffffffffffffffffffffffffffffffffffff16610de36112a9565b73ffffffffffffffffffffffffffffffffffffffff1614610e39576040517f08c379a0000000000000000000000000000000000000000000000000000000008152600401610e3090613f93565b60405180910390fd5b6008600083815260200190815260200160002060050160019054906101000a900460ff16610e9c576040517f08c379a0000000000000000000000000000000000000000000000000000000008152600401610e9390614053565b60405180910390fd5b600860008381526020019081526020016000206040518060e001604052908160008201548152602001600182015481526020016002820154815260200160038201548152602001600482018054610ef290614424565b80601f0160208091040260200160405190810160405280929190818152602001828054610f1e90614424565b8015610f6b5780601f10610f4057610100808354040283529160200191610f6b565b820191906000526020600020905b815481529060010190602001808311610f4e57829003601f168201915b505050505081526020016005820160009054906101000a900460ff161515151581526020016005820160019054906101000a900460ff1615151515815250509050919050565b6000806002600084815260200190815260200160002060009054906101000a900473ffffffffffffffffffffffffffffffffffffffff169050600073ffffffffffffffffffffffffffffffffffffffff168173ffffffffffffffffffffffffffffffffffffffff16141561105a576040517f08c379a000000000000000000000000000000000000000000000000000000000815260040161105190613f33565b60405180910390fd5b80915050919050565b60008073ffffffffffffffffffffffffffffffffffffffff168273ffffffffffffffffffffffffffffffffffffffff1614156110d4576040517f08c379a00000000000000000000000000000000000000000000000000000000081526004016110cb90613f13565b60405180910390fd5b600360008373ffffffffffffffffffffffffffffffffffffffff1673ffffffffffffffffffffffffffffffffffffffff168152602001908152602001600020549050919050565b6111236124eb565b73ffffffffffffffffffffffffffffffffffffffff166111416112a9565b73ffffffffffffffffffffffffffffffffffffffff1614611197576040517f08c379a000000000000000000000000000000000000000000000000000000000815260040161118e90613f93565b60405180910390fd5b6111a160006125ac565b565b6060600960003373ffffffffffffffffffffffffffffffffffffffff1673ffffffffffffffffffffffffffffffffffffffff168152602001908152602001600020805480602002602001604051908101604052809291908181526020016000905b828210156112a0578382906000526020600020906003020160405180606001604052908160008201548152602001600182015481526020016002820160009054906101000a900473ffffffffffffffffffffffffffffffffffffffff1673ffffffffffffffffffffffffffffffffffffffff1673ffffffffffffffffffffffffffffffffffffffff168152505081526020019060010190611204565b50505050905090565b6000600660009054906101000a900473ffffffffffffffffffffffffffffffffffffffff16905090565b600b60009054906101000a900473ffffffffffffffffffffffffffffffffffffffff1681565b60606001805461130890614424565b80601f016020809104026020016040519081016040528092919081815260200182805461133490614424565b80156113815780601f1061135657610100808354040283529160200191611381565b820191906000526020600020905b81548152906001019060200180831161136457829003601f168201915b5050505050905090565b6113936124eb565b73ffffffffffffffffffffffffffffffffffffffff168273ffffffffffffffffffffffffffffffffffffffff161415611401576040517f08c379a00000000000000000000000000000000000000000000000000000000081526004016113f890613e93565b60405180910390fd5b806005600061140e6124eb565b73ffffffffffffffffffffffffffffffffffffffff1673ffffffffffffffffffffffffffffffffffffffff16815260200190815260200160002060008473ffffffffffffffffffffffffffffffffffffffff1673ffffffffffffffffffffffffffffffffffffffff16815260200190815260200160002060006101000a81548160ff0219169083151502179055508173ffffffffffffffffffffffffffffffffffffffff166114bb6124eb565b73ffffffffffffffffffffffffffffffffffffffff167f17307eab39ab6107e8899845ad3d59bd9653f200f220920489ca2b5937696c31836040516115009190613db6565b60405180910390a35050565b61151d6115176124eb565b83612672565b61155c576040517f08c379a000000000000000000000000000000000000000000000000000000000815260040161155390614013565b60405180910390fd5b61156884848484612750565b6000600960008673ffffffffffffffffffffffffffffffffffffffff1673ffffffffffffffffffffffffffffffffffffffff168152602001908152602001600020805480602002602001604051908101604052809291908181526020016000905b82821015611665578382906000526020600020906003020160405180606001604052908160008201548152602001600182015481526020016002820160009054906101000a900473ffffffffffffffffffffffffffffffffffffffff1673ffffffffffffffffffffffffffffffffffffffff1673ffffffffffffffffffffffffffffffffffffffff1681525050815260200190600101906115c9565b505050509050600960008673ffffffffffffffffffffffffffffffffffffffff1673ffffffffffffffffffffffffffffffffffffffff16815260200190815260200160002060006116b6919061303d565b60005b815181101561191257838282815181106116d6576116d56145bc565b5b602002602001015160000151146117cc57600960008773ffffffffffffffffffffffffffffffffffffffff1673ffffffffffffffffffffffffffffffffffffffff168152602001908152602001600020828281518110611739576117386145bc565b5b60200260200101519080600181540180825580915050600190039060005260206000209060030201600090919091909150600082015181600001556020820151816001015560408201518160020160006101000a81548173ffffffffffffffffffffffffffffffffffffffff021916908373ffffffffffffffffffffffffffffffffffffffff16021790555050506118ff565b848282815181106117e0576117df6145bc565b5b60200260200101516040019073ffffffffffffffffffffffffffffffffffffffff16908173ffffffffffffffffffffffffffffffffffffffff1681525050600960008673ffffffffffffffffffffffffffffffffffffffff1673ffffffffffffffffffffffffffffffffffffffff1681526020019081526020016000208282815181106118705761186f6145bc565b5b60200260200101519080600181540180825580915050600190039060005260206000209060030201600090919091909150600082015181600001556020820151816001015560408201518160020160006101000a81548173ffffffffffffffffffffffffffffffffffffffff021916908373ffffffffffffffffffffffffffffffffffffffff16021790555050505b808061190a90614487565b9150506116b9565b5033600a600085815260200190815260200160002060006101000a81548173ffffffffffffffffffffffffffffffffffffffff021916908373ffffffffffffffffffffffffffffffffffffffff1602179055505050505050565b6119746124eb565b73ffffffffffffffffffffffffffffffffffffffff166119926112a9565b73ffffffffffffffffffffffffffffffffffffffff16146119e8576040517f08c379a00000000000000000000000000000000000000000000000000000000081526004016119df90613f93565b60405180910390fd5b60005b600780549050811015611b6d578260078281548110611a0d57611a0c6145bc565b5b906000526020600020906006020160000154148015611a5057508160078281548110611a3c57611a3b6145bc565b5b906000526020600020906006020160010154105b15611b5a578160078281548110611a6a57611a696145bc565b5b90600052602060002090600602016001018190555060078181548110611a9357611a926145bc565b5b906000526020600020906006020160086000858152602001908152602001600020600082015481600001556001820154816001015560028201548160020155600382015481600301556004820181600401908054611af090614424565b611afb929190613061565b506005820160009054906101000a900460ff168160050160006101000a81548160ff0219169083151502179055506005820160019054906101000a900460ff168160050160016101000a81548160ff0219169083151502179055509050505b8080611b6590614487565b9150506119eb565b505050565b6060611b7d8261247f565b611bbc576040517f08c379a0000000000000000000000000000000000000000000000000000000008152600401611bb390613fd3565b60405180910390fd5b6000611bc66127ac565b90506000815111611be65760405180602001604052806000815250611c11565b80611bf0846127c3565b604051602001611c01929190613ca0565b6040516020818303038152906040525b915050919050565b6008600082815260200190815260200160002060050160019054906101000a900460ff16611c7c576040517f08c379a0000000000000000000000000000000000000000000000000000000008152600401611c7390614053565b60405180910390fd5b6008600082815260200190815260200160002060050160009054906101000a900460ff1615611ce0576040517f08c379a0000000000000000000000000000000000000000000000000000000008152600401611cd790613ed3565b60405180910390fd5b6000600860008381526020019081526020016000206001015411611d39576040517f08c379a0000000000000000000000000000000000000000000000000000000008152600401611d3090613e53565b60405180910390fd5b6103e8670de0b6b3a76400006008600084815260200190815260200160002060030154611d6691906142a4565b611d709190614273565b3414611db1576040517f08c379a0000000000000000000000000000000000000000000000000000000008152600401611da890614073565b60405180910390fd5b611db9612f76565b60005b60078054905081101561203e578260078281548110611dde57611ddd6145bc565b5b906000526020600020906006020160000154141561202b5760078181548110611e0a57611e096145bc565b5b90600052602060002090600602016040518060e001604052908160008201548152602001600182015481526020016002820154815260200160038201548152602001600482018054611e5b90614424565b80601f0160208091040260200160405190810160405280929190818152602001828054611e8790614424565b8015611ed45780601f10611ea957610100808354040283529160200191611ed4565b820191906000526020600020905b815481529060010190602001808311611eb757829003601f168201915b505050505081526020016005820160009054906101000a900460ff161515151581526020016005820160019054906101000a900460ff161515151581525050915060078181548110611f2957611f286145bc565b5b90600052602060002090600602016001016000815480929190611f4b906143fa565b919050555060078181548110611f6457611f636145bc565b5b906000526020600020906006020160086000858152602001908152602001600020600082015481600001556001820154816001015560028201548160020155600382015481600301556004820181600401908054611fc190614424565b611fcc929190613061565b506005820160009054906101000a900460ff168160050160006101000a81548160ff0219169083151502179055506005820160019054906101000a900460ff168160050160016101000a81548160ff0219169083151502179055509050505b808061203690614487565b915050611dbc565b5060006402540be400600d543360405160200161205c929190613cc4565b6040516020818303038152906040528051906020012060001c61207f91906144fe565b9050600d600081548092919061209490614487565b91905055506120a33382612924565b600b60009054906101000a900473ffffffffffffffffffffffffffffffffffffffff1673ffffffffffffffffffffffffffffffffffffffff166108fc349081150290604051600060405180830381858888f1935050505015801561210b573d6000803e3d6000fd5b5060006040518060600160405280838152602001846000015181526020013373ffffffffffffffffffffffffffffffffffffffff168152509050600960003373ffffffffffffffffffffffffffffffffffffffff1673ffffffffffffffffffffffffffffffffffffffff168152602001908152602001600020819080600181540180825580915050600190039060005260206000209060030201600090919091909150600082015181600001556020820151816001015560408201518160020160006101000a81548173ffffffffffffffffffffffffffffffffffffffff021916908373ffffffffffffffffffffffffffffffffffffffff160217905550505033600a600084815260200190815260200160002060006101000a81548173ffffffffffffffffffffffffffffffffffffffff021916908373ffffffffffffffffffffffffffffffffffffffff16021790555050505050565b6000600560008473ffffffffffffffffffffffffffffffffffffffff1673ffffffffffffffffffffffffffffffffffffffff16815260200190815260200160002060008373ffffffffffffffffffffffffffffffffffffffff1673ffffffffffffffffffffffffffffffffffffffff16815260200190815260200160002060009054906101000a900460ff16905092915050565b6122ff6124eb565b73ffffffffffffffffffffffffffffffffffffffff1661231d6112a9565b73ffffffffffffffffffffffffffffffffffffffff1614612373576040517f08c379a000000000000000000000000000000000000000000000000000000000815260040161236a90613f93565b60405180910390fd5b600073ffffffffffffffffffffffffffffffffffffffff168173ffffffffffffffffffffffffffffffffffffffff1614156123e3576040517f08c379a00000000000000000000000000000000000000000000000000000000081526004016123da90613e13565b60405180910390fd5b6123ec816125ac565b50565b600c60009054906101000a900473ffffffffffffffffffffffffffffffffffffffff1681565b60007f01ffc9a7000000000000000000000000000000000000000000000000000000007bffffffffffffffffffffffffffffffffffffffffffffffffffffffff1916827bffffffffffffffffffffffffffffffffffffffffffffffffffffffff1916149050919050565b60008073ffffffffffffffffffffffffffffffffffffffff166002600084815260200190815260200160002060009054906101000a900473ffffffffffffffffffffffffffffffffffffffff1673ffffffffffffffffffffffffffffffffffffffff1614159050919050565b600033905090565b816004600083815260200190815260200160002060006101000a81548173ffffffffffffffffffffffffffffffffffffffff021916908373ffffffffffffffffffffffffffffffffffffffff160217905550808273ffffffffffffffffffffffffffffffffffffffff1661256683610fb1565b73ffffffffffffffffffffffffffffffffffffffff167f8c5be1e5ebec7d5bd14f71427d1e84f3dd0314c0f7b2291e5b200ac8c7c3b92560405160405180910390a45050565b6000600660009054906101000a900473ffffffffffffffffffffffffffffffffffffffff16905081600660006101000a81548173ffffffffffffffffffffffffffffffffffffffff021916908373ffffffffffffffffffffffffffffffffffffffff1602179055508173ffffffffffffffffffffffffffffffffffffffff168173ffffffffffffffffffffffffffffffffffffffff167f8be0079c531659141344cd1fd0a4f28419497f9722a3daafe3b4186f6b6457e060405160405180910390a35050565b600061267d8261247f565b6126bc576040517f08c379a00000000000000000000000000000000000000000000000000000000081526004016126b390613eb3565b60405180910390fd5b60006126c783610fb1565b90508073ffffffffffffffffffffffffffffffffffffffff168473ffffffffffffffffffffffffffffffffffffffff16148061273657508373ffffffffffffffffffffffffffffffffffffffff1661271e8461072b565b73ffffffffffffffffffffffffffffffffffffffff16145b8061274757506127468185612263565b5b91505092915050565b61275b848484612942565b61276784848484612b9e565b6127a6576040517f08c379a000000000000000000000000000000000000000000000000000000000815260040161279d90613df3565b60405180910390fd5b50505050565b606060405180602001604052806000815250905090565b6060600082141561280b576040518060400160405280600181526020017f3000000000000000000000000000000000000000000000000000000000000000815250905061291f565b600082905060005b6000821461283d57808061282690614487565b915050600a826128369190614273565b9150612813565b60008167ffffffffffffffff811115612859576128586145eb565b5b6040519080825280601f01601f19166020018201604052801561288b5781602001600182028036833780820191505090505b5090505b60008514612918576001826128a491906142fe565b9150600a856128b391906144fe565b60306128bf919061421d565b60f81b8183815181106128d5576128d46145bc565b5b60200101907effffffffffffffffffffffffffffffffffffffffffffffffffffffffffffff1916908160001a905350600a856129119190614273565b945061288f565b8093505050505b919050565b61293e828260405180602001604052806000815250612d35565b5050565b8273ffffffffffffffffffffffffffffffffffffffff1661296282610fb1565b73ffffffffffffffffffffffffffffffffffffffff16146129b8576040517f08c379a00000000000000000000000000000000000000000000000000000000081526004016129af90613fb3565b60405180910390fd5b600073ffffffffffffffffffffffffffffffffffffffff168273ffffffffffffffffffffffffffffffffffffffff161415612a28576040517f08c379a0000000000000000000000000000000000000000000000000000000008152600401612a1f90613e73565b60405180910390fd5b612a33838383612d90565b612a3e6000826124f3565b6001600360008573ffffffffffffffffffffffffffffffffffffffff1673ffffffffffffffffffffffffffffffffffffffff1681526020019081526020016000206000828254612a8e91906142fe565b925050819055506001600360008473ffffffffffffffffffffffffffffffffffffffff1673ffffffffffffffffffffffffffffffffffffffff1681526020019081526020016000206000828254612ae5919061421d565b92505081905550816002600083815260200190815260200160002060006101000a81548173ffffffffffffffffffffffffffffffffffffffff021916908373ffffffffffffffffffffffffffffffffffffffff160217905550808273ffffffffffffffffffffffffffffffffffffffff168473ffffffffffffffffffffffffffffffffffffffff167fddf252ad1be2c89b69c2b068fc378daa952ba7f163c4a11628f55a4df523b3ef60405160405180910390a4505050565b6000612bbf8473ffffffffffffffffffffffffffffffffffffffff16612d95565b15612d28578373ffffffffffffffffffffffffffffffffffffffff1663150b7a02612be86124eb565b8786866040518563ffffffff1660e01b8152600401612c0a9493929190613d26565b602060405180830381600087803b158015612c2457600080fd5b505af1925050508015612c5557506040513d601f19601f82011682018060405250810190612c529190613492565b60015b612cd8573d8060008114612c85576040519150601f19603f3d011682016040523d82523d6000602084013e612c8a565b606091505b50600081511415612cd0576040517f08c379a0000000000000000000000000000000000000000000000000000000008152600401612cc790613df3565b60405180910390fd5b805181602001fd5b63150b7a0260e01b7bffffffffffffffffffffffffffffffffffffffffffffffffffffffff1916817bffffffffffffffffffffffffffffffffffffffffffffffffffffffff191614915050612d2d565b600190505b949350505050565b612d3f8383612da8565b612d4c6000848484612b9e565b612d8b576040517f08c379a0000000000000000000000000000000000000000000000000000000008152600401612d8290613df3565b60405180910390fd5b505050565b505050565b600080823b905060008111915050919050565b600073ffffffffffffffffffffffffffffffffffffffff168273ffffffffffffffffffffffffffffffffffffffff161415612e18576040517f08c379a0000000000000000000000000000000000000000000000000000000008152600401612e0f90613f53565b60405180910390fd5b612e218161247f565b15612e61576040517f08c379a0000000000000000000000000000000000000000000000000000000008152600401612e5890613e33565b60405180910390fd5b612e6d60008383612d90565b6001600360008473ffffffffffffffffffffffffffffffffffffffff1673ffffffffffffffffffffffffffffffffffffffff1681526020019081526020016000206000828254612ebd919061421d565b92505081905550816002600083815260200190815260200160002060006101000a81548173ffffffffffffffffffffffffffffffffffffffff021916908373ffffffffffffffffffffffffffffffffffffffff160217905550808273ffffffffffffffffffffffffffffffffffffffff16600073ffffffffffffffffffffffffffffffffffffffff167fddf252ad1be2c89b69c2b068fc378daa952ba7f163c4a11628f55a4df523b3ef60405160405180910390a45050565b6040518060e0016040528060008152602001600081526020016000815260200160008152602001606081526020016000151581526020016000151581525090565b828054612fc390614424565b90600052602060002090601f016020900481019282612fe5576000855561302c565b82601f10612ffe57805160ff191683800117855561302c565b8280016001018555821561302c579182015b8281111561302b578251825591602001919060010190613010565b5b50905061303991906130ee565b5090565b508054600082556003029060005260206000209081019061305e919061310b565b50565b82805461306d90614424565b90600052602060002090601f01602090048101928261308f57600085556130dd565b82601f106130a057805485556130dd565b828001600101855582156130dd57600052602060002091601f016020900482015b828111156130dc5782548255916001019190600101906130c1565b5b5090506130ea91906130ee565b5090565b5b808211156131075760008160009055506001016130ef565b5090565b5b808211156131555760008082016000905560018201600090556002820160006101000a81549073ffffffffffffffffffffffffffffffffffffffff02191690555060030161310c565b5090565b600061316c613167846140f5565b6140d0565b9050828152602081018484840111156131885761318761461f565b5b6131938482856143b8565b509392505050565b60006131ae6131a984614126565b6140d0565b9050828152602081018484840111156131ca576131c961461f565b5b6131d58482856143b8565b509392505050565b6000813590506131ec81614bbd565b92915050565b60008135905061320181614bd4565b92915050565b60008135905061321681614beb565b92915050565b60008151905061322b81614beb565b92915050565b600082601f8301126132465761324561461a565b5b8135613256848260208601613159565b91505092915050565b600082601f8301126132745761327361461a565b5b813561328484826020860161319b565b91505092915050565b60008135905061329c81614c02565b92915050565b6000602082840312156132b8576132b7614629565b5b60006132c6848285016131dd565b91505092915050565b600080604083850312156132e6576132e5614629565b5b60006132f4858286016131dd565b9250506020613305858286016131dd565b9150509250929050565b60008060006060848603121561332857613327614629565b5b6000613336868287016131dd565b9350506020613347868287016131dd565b92505060406133588682870161328d565b9150509250925092565b6000806000806080858703121561337c5761337b614629565b5b600061338a878288016131dd565b945050602061339b878288016131dd565b93505060406133ac8782880161328d565b925050606085013567ffffffffffffffff8111156133cd576133cc614624565b5b6133d987828801613231565b91505092959194509250565b600080604083850312156133fc576133fb614629565b5b600061340a858286016131dd565b925050602061341b858286016131f2565b9150509250929050565b6000806040838503121561343c5761343b614629565b5b600061344a858286016131dd565b925050602061345b8582860161328d565b9150509250929050565b60006020828403121561347b5761347a614629565b5b600061348984828501613207565b91505092915050565b6000602082840312156134a8576134a7614629565b5b60006134b68482850161321c565b91505092915050565b60008060008060008060c087890312156134dc576134db614629565b5b600087013567ffffffffffffffff8111156134fa576134f9614624565b5b61350689828a0161325f565b965050602061351789828a0161328d565b955050604061352889828a0161328d565b945050606061353989828a0161328d565b935050608061354a89828a0161328d565b92505060a061355b89828a016131f2565b9150509295509295509295565b60006020828403121561357e5761357d614629565b5b600061358c8482850161328d565b91505092915050565b600080604083850312156135ac576135ab614629565b5b60006135ba8582860161328d565b92505060206135cb8582860161328d565b9150509250929050565b60006135e18383613af1565b905092915050565b60006135f58383613c29565b60608301905092915050565b61360a81614344565b82525050565b61361981614332565b82525050565b61362881614332565b82525050565b61363f61363a82614332565b6144d0565b82525050565b600061365082614177565b61365a81856141bd565b93508360208202850161366c85614157565b8060005b858110156136a8578484038952815161368985826135d5565b9450613694836141a3565b925060208a01995050600181019050613670565b50829750879550505050505092915050565b60006136c582614182565b6136cf81856141ce565b93506136da83614167565b8060005b8381101561370b5781516136f288826135e9565b97506136fd836141b0565b9250506001810190506136de565b5085935050505092915050565b61372181614356565b82525050565b61373081614356565b82525050565b60006137418261418d565b61374b81856141df565b935061375b8185602086016143c7565b6137648161462e565b840191505092915050565b600061377a82614198565b61378481856141f0565b93506137948185602086016143c7565b61379d8161462e565b840191505092915050565b60006137b382614198565b6137bd8185614201565b93506137cd8185602086016143c7565b6137d68161462e565b840191505092915050565b60006137ec82614198565b6137f68185614212565b93506138068185602086016143c7565b80840191505092915050565b600061381f603283614201565b915061382a8261464c565b604082019050919050565b6000613842602683614201565b915061384d8261469b565b604082019050919050565b6000613865601c83614201565b9150613870826146ea565b602082019050919050565b6000613888602283614201565b915061389382614713565b604082019050919050565b60006138ab602483614201565b91506138b682614762565b604082019050919050565b60006138ce601983614201565b91506138d9826147b1565b602082019050919050565b60006138f1602c83614201565b91506138fc826147da565b604082019050919050565b6000613914602383614201565b915061391f82614829565b604082019050919050565b6000613937603883614201565b915061394282614878565b604082019050919050565b600061395a602a83614201565b9150613965826148c7565b604082019050919050565b600061397d602983614201565b915061398882614916565b604082019050919050565b60006139a0602083614201565b91506139ab82614965565b602082019050919050565b60006139c3602c83614201565b91506139ce8261498e565b604082019050919050565b60006139e6602083614201565b91506139f1826149dd565b602082019050919050565b6000613a09602983614201565b9150613a1482614a06565b604082019050919050565b6000613a2c602f83614201565b9150613a3782614a55565b604082019050919050565b6000613a4f602183614201565b9150613a5a82614aa4565b604082019050919050565b6000613a72603183614201565b9150613a7d82614af3565b604082019050919050565b6000613a95601183614201565b9150613aa082614b42565b602082019050919050565b6000613ab8601183614201565b9150613ac382614b6b565b602082019050919050565b6000613adb601083614201565b9150613ae682614b94565b602082019050919050565b600060e083016000830151613b096000860182613c6b565b506020830151613b1c6020860182613c6b565b506040830151613b2f6040860182613c6b565b506060830151613b426060860182613c6b565b5060808301518482036080860152613b5a828261376f565b91505060a0830151613b6f60a0860182613718565b5060c0830151613b8260c0860182613718565b508091505092915050565b600060e083016000830151613ba56000860182613c6b565b506020830151613bb86020860182613c6b565b506040830151613bcb6040860182613c6b565b506060830151613bde6060860182613c6b565b5060808301518482036080860152613bf6828261376f565b91505060a0830151613c0b60a0860182613718565b5060c0830151613c1e60c0860182613718565b508091505092915050565b606082016000820151613c3f6000850182613c6b565b506020820151613c526020850182613c6b565b506040820151613c656040850182613610565b50505050565b613c74816143ae565b82525050565b613c83816143ae565b82525050565b613c9a613c95826143ae565b6144f4565b82525050565b6000613cac82856137e1565b9150613cb882846137e1565b91508190509392505050565b6000613cd08285613c89565b602082019150613ce0828461362e565b6014820191508190509392505050565b6000602082019050613d05600083018461361f565b92915050565b6000602082019050613d206000830184613601565b92915050565b6000608082019050613d3b600083018761361f565b613d48602083018661361f565b613d556040830185613c7a565b8181036060830152613d678184613736565b905095945050505050565b60006020820190508181036000830152613d8c8184613645565b905092915050565b60006020820190508181036000830152613dae81846136ba565b905092915050565b6000602082019050613dcb6000830184613727565b92915050565b60006020820190508181036000830152613deb81846137a8565b905092915050565b60006020820190508181036000830152613e0c81613812565b9050919050565b60006020820190508181036000830152613e2c81613835565b9050919050565b60006020820190508181036000830152613e4c81613858565b9050919050565b60006020820190508181036000830152613e6c8161387b565b9050919050565b60006020820190508181036000830152613e8c8161389e565b9050919050565b60006020820190508181036000830152613eac816138c1565b9050919050565b60006020820190508181036000830152613ecc816138e4565b9050919050565b60006020820190508181036000830152613eec81613907565b9050919050565b60006020820190508181036000830152613f0c8161392a565b9050919050565b60006020820190508181036000830152613f2c8161394d565b9050919050565b60006020820190508181036000830152613f4c81613970565b9050919050565b60006020820190508181036000830152613f6c81613993565b9050919050565b60006020820190508181036000830152613f8c816139b6565b9050919050565b60006020820190508181036000830152613fac816139d9565b9050919050565b60006020820190508181036000830152613fcc816139fc565b9050919050565b60006020820190508181036000830152613fec81613a1f565b9050919050565b6000602082019050818103600083015261400c81613a42565b9050919050565b6000602082019050818103600083015261402c81613a65565b9050919050565b6000602082019050818103600083015261404c81613a88565b9050919050565b6000602082019050818103600083015261406c81613aab565b9050919050565b6000602082019050818103600083015261408c81613ace565b9050919050565b600060208201905081810360008301526140ad8184613b8d565b905092915050565b60006020820190506140ca6000830184613c7a565b92915050565b60006140da6140eb565b90506140e68282614456565b919050565b6000604051905090565b600067ffffffffffffffff8211156141105761410f6145eb565b5b6141198261462e565b9050602081019050919050565b600067ffffffffffffffff821115614141576141406145eb565b5b61414a8261462e565b9050602081019050919050565b6000819050602082019050919050565b6000819050602082019050919050565b600081519050919050565b600081519050919050565b600081519050919050565b600081519050919050565b6000602082019050919050565b6000602082019050919050565b600082825260208201905092915050565b600082825260208201905092915050565b600082825260208201905092915050565b600082825260208201905092915050565b600082825260208201905092915050565b600081905092915050565b6000614228826143ae565b9150614233836143ae565b9250827fffffffffffffffffffffffffffffffffffffffffffffffffffffffffffffffff038211156142685761426761452f565b5b828201905092915050565b600061427e826143ae565b9150614289836143ae565b9250826142995761429861455e565b5b828204905092915050565b60006142af826143ae565b91506142ba836143ae565b9250817fffffffffffffffffffffffffffffffffffffffffffffffffffffffffffffffff04831182151516156142f3576142f261452f565b5b828202905092915050565b6000614309826143ae565b9150614314836143ae565b9250828210156143275761432661452f565b5b828203905092915050565b600061433d8261438e565b9050919050565b600061434f8261438e565b9050919050565b60008115159050919050565b60007fffffffff0000000000000000000000000000000000000000000000000000000082169050919050565b600073ffffffffffffffffffffffffffffffffffffffff82169050919050565b6000819050919050565b82818337600083830152505050565b60005b838110156143e55780820151818401526020810190506143ca565b838111156143f4576000848401525b50505050565b6000614405826143ae565b915060008214156144195761441861452f565b5b600182039050919050565b6000600282049050600182168061443c57607f821691505b602082108114156144505761444f61458d565b5b50919050565b61445f8261462e565b810181811067ffffffffffffffff8211171561447e5761447d6145eb565b5b80604052505050565b6000614492826143ae565b91507fffffffffffffffffffffffffffffffffffffffffffffffffffffffffffffffff8214156144c5576144c461452f565b5b600182019050919050565b60006144db826144e2565b9050919050565b60006144ed8261463f565b9050919050565b6000819050919050565b6000614509826143ae565b9150614514836143ae565b9250826145245761452361455e565b5b828206905092915050565b7f4e487b7100000000000000000000000000000000000000000000000000000000600052601160045260246000fd5b7f4e487b7100000000000000000000000000000000000000000000000000000000600052601260045260246000fd5b7f4e487b7100000000000000000000000000000000000000000000000000000000600052602260045260246000fd5b7f4e487b7100000000000000000000000000000000000000000000000000000000600052603260045260246000fd5b7f4e487b7100000000000000000000000000000000000000000000000000000000600052604160045260246000fd5b600080fd5b600080fd5b600080fd5b600080fd5b6000601f19601f8301169050919050565b60008160601b9050919050565b7f4552433732313a207472616e7366657220746f206e6f6e20455243373231526560008201527f63656976657220696d706c656d656e7465720000000000000000000000000000602082015250565b7f4f776e61626c653a206e6577206f776e657220697320746865207a65726f206160008201527f6464726573730000000000000000000000000000000000000000000000000000602082015250565b7f4552433732313a20746f6b656e20616c7265616479206d696e74656400000000600082015250565b7f5468657265206973206e6f206d6f726520706f6c6974696320617661696c616260008201527f6c65000000000000000000000000000000000000000000000000000000000000602082015250565b7f4552433732313a207472616e7366657220746f20746865207a65726f2061646460008201527f7265737300000000000000000000000000000000000000000000000000000000602082015250565b7f4552433732313a20617070726f766520746f2063616c6c657200000000000000600082015250565b7f4552433732313a206f70657261746f7220717565727920666f72206e6f6e657860008201527f697374656e7420746f6b656e0000000000000000000000000000000000000000602082015250565b7f506f6c69746963206f6e6c7920617661696c61626c652077697468206c6f747460008201527f6572790000000000000000000000000000000000000000000000000000000000602082015250565b7f4552433732313a20617070726f76652063616c6c6572206973206e6f74206f7760008201527f6e6572206e6f7220617070726f76656420666f7220616c6c0000000000000000602082015250565b7f4552433732313a2062616c616e636520717565727920666f7220746865207a6560008201527f726f206164647265737300000000000000000000000000000000000000000000602082015250565b7f4552433732313a206f776e657220717565727920666f72206e6f6e657869737460008201527f656e7420746f6b656e0000000000000000000000000000000000000000000000602082015250565b7f4552433732313a206d696e7420746f20746865207a65726f2061646472657373600082015250565b7f4552433732313a20617070726f76656420717565727920666f72206e6f6e657860008201527f697374656e7420746f6b656e0000000000000000000000000000000000000000602082015250565b7f4f776e61626c653a2063616c6c6572206973206e6f7420746865206f776e6572600082015250565b7f4552433732313a207472616e73666572206f6620746f6b656e2074686174206960008201527f73206e6f74206f776e0000000000000000000000000000000000000000000000602082015250565b7f4552433732314d657461646174613a2055524920717565727920666f72206e6f60008201527f6e6578697374656e7420746f6b656e0000000000000000000000000000000000602082015250565b7f4552433732313a20617070726f76616c20746f2063757272656e74206f776e6560008201527f7200000000000000000000000000000000000000000000000000000000000000602082015250565b7f4552433732313a207472616e736665722063616c6c6572206973206e6f74206f60008201527f776e6572206e6f7220617070726f766564000000000000000000000000000000602082015250565b7f696420616c726561647920696e20757365000000000000000000000000000000600082015250565b7f506f6c69746963206e6f7420666f756e64000000000000000000000000000000600082015250565b7f496e636f727265637420616d6f756e7400000000000000000000000000000000600082015250565b614bc681614332565b8114614bd157600080fd5b50565b614bdd81614356565b8114614be857600080fd5b50565b614bf481614362565b8114614bff57600080fd5b50565b614c0b816143ae565b8114614c1657600080fd5b5056fea26469706673582212203d06ffedc1521ab932e4d13e875b1f938e07ee1bb3fde879df60ddc94eadef2064736f6c63430008070033",
  "immutableReferences": {},
  "source": "// SPDX-License-Identifier: MIT\n\npragma solidity ^0.8.0;\nimport \"./Collectible.sol\";\n\n/**\n* @title Base methode of lottery\n* @author Youness Chetoui\n*/\ncontract Lottery is Collectible {\n}\n",
  "sourcePath": "/home/youness/Crypto/PoliticsCollectible/contracts/Lottery.sol",
  "compiler": {
    "name": "solc",
    "version": "0.8.7+commit.e28d00a7.Emscripten.clang"
  },
  "schemaVersion": "3.4.3",
  "updatedAt": "2021-08-31T08:32:41.769Z",
  "devdoc": {
    "author": "Youness Chetoui",
    "kind": "dev",
    "methods": {
      "addQty(uint256,uint256)": {
        "params": {
          "_id": "of PoliticsAvailable and _qty wished"
        }
      },
      "approve(address,uint256)": {
        "details": "See {IERC721-approve}."
      },
      "balanceOf(address)": {
        "details": "See {IERC721-balanceOf}."
      },
      "buy(uint256)": {
        "params": {
          "_id": "of politician available"
        }
      },
      "create(string,uint256,uint256,uint256,uint256,bool)": {
        "params": {
          "_name": ", _id, _qty, _level, _price and _lottery of politician available"
        },
        "returns": {
          "_0": "PoliticsAvailable created"
        }
      },
      "getApproved(uint256)": {
        "details": "See {IERC721-getApproved}."
      },
      "getMyPolitics()": {
        "returns": {
          "_0": "array of struct PoliticsOwned"
        }
      },
      "getPolitic(uint256)": {
        "params": {
          "_id": "of politician"
        },
        "returns": {
          "_0": "struct PoliticsAvailable"
        }
      },
      "getPolitics()": {
        "returns": {
          "_0": "Array of struct PoliticsAvailable"
        }
      },
      "isApprovedForAll(address,address)": {
        "details": "See {IERC721-isApprovedForAll}."
      },
      "name()": {
        "details": "See {IERC721Metadata-name}."
      },
      "owner()": {
        "details": "Returns the address of the current owner."
      },
      "ownerOf(uint256)": {
        "details": "See {IERC721-ownerOf}."
      },
      "renounceOwnership()": {
        "details": "Leaves the contract without owner. It will not be possible to call `onlyOwner` functions anymore. Can only be called by the current owner. NOTE: Renouncing ownership will leave the contract without an owner, thereby removing any functionality that is only available to the owner."
      },
      "safeTransferFrom(address,address,uint256)": {
        "details": "See {IERC721-safeTransferFrom}."
      },
      "safeTransferFrom(address,address,uint256,bytes)": {
        "params": {
          "from": "politician wallet address, to wallet address of receiver, tokenId of politician to transfer, _data"
        }
      },
      "setApprovalForAll(address,bool)": {
        "details": "See {IERC721-setApprovalForAll}."
      },
      "supportsInterface(bytes4)": {
        "details": "See {IERC165-supportsInterface}."
      },
      "symbol()": {
        "details": "See {IERC721Metadata-symbol}."
      },
      "tokenURI(uint256)": {
        "details": "See {IERC721Metadata-tokenURI}."
      },
      "transferOwnership(address)": {
        "details": "Transfers ownership of the contract to a new account (`newOwner`). Can only be called by the current owner."
      }
    },
    "title": "Base methode of lottery",
    "version": 1
  },
  "userdoc": {
    "kind": "user",
    "methods": {
      "addQty(uint256,uint256)": {
        "notice": "Add quantity for a PoliticsAvailable"
      },
      "buy(uint256)": {
        "notice": "Buy politician"
      },
      "create(string,uint256,uint256,uint256,uint256,bool)": {
        "notice": "Create politician"
      },
      "getMyPolitics()": {
        "notice": "Get politician by user"
      },
      "getPolitic(uint256)": {
        "notice": "get politician available by id"
      },
      "getPolitics()": {
        "notice": "get list of all politician available"
      },
      "safeTransferFrom(address,address,uint256,bytes)": {
        "notice": "Transfer Politic"
      },
      "transferFrom(address,address,uint256)": {
        "notice": "Disabled not safe transform"
      }
    },
    "version": 1
  }
}