{
  "contractName": "Lottery",
  "abi": [
    {
      "anonymous": false,
      "inputs": [
        {
          "indexed": true,
          "internalType": "address",
          "name": "owner",
          "type": "address"
        },
        {
          "indexed": true,
          "internalType": "address",
          "name": "approved",
          "type": "address"
        },
        {
          "indexed": true,
          "internalType": "uint256",
          "name": "tokenId",
          "type": "uint256"
        }
      ],
      "name": "Approval",
      "type": "event"
    },
    {
      "anonymous": false,
      "inputs": [
        {
          "indexed": true,
          "internalType": "address",
          "name": "owner",
          "type": "address"
        },
        {
          "indexed": true,
          "internalType": "address",
          "name": "operator",
          "type": "address"
        },
        {
          "indexed": false,
          "internalType": "bool",
          "name": "approved",
          "type": "bool"
        }
      ],
      "name": "ApprovalForAll",
      "type": "event"
    },
    {
      "anonymous": false,
      "inputs": [
        {
          "indexed": false,
          "internalType": "uint256",
          "name": "id",
          "type": "uint256"
        },
        {
          "indexed": false,
          "internalType": "address",
          "name": "buyer",
          "type": "address"
        }
      ],
      "name": "BuyOnSale",
      "type": "event"
    },
    {
      "anonymous": false,
      "inputs": [
        {
          "indexed": false,
          "internalType": "uint256",
          "name": "id",
          "type": "uint256"
        }
      ],
      "name": "CreateLottery",
      "type": "event"
    },
    {
      "anonymous": false,
      "inputs": [
        {
          "indexed": false,
          "internalType": "uint256",
          "name": "id",
          "type": "uint256"
        }
      ],
      "name": "CreatePolitician",
      "type": "event"
    },
    {
      "anonymous": false,
      "inputs": [
        {
          "indexed": false,
          "internalType": "uint256",
          "name": "id",
          "type": "uint256"
        },
        {
          "indexed": false,
          "internalType": "address",
          "name": "owner",
          "type": "address"
        }
      ],
      "name": "CreateSale",
      "type": "event"
    },
    {
      "anonymous": false,
      "inputs": [
        {
          "indexed": false,
          "internalType": "uint256",
          "name": "id",
          "type": "uint256"
        },
        {
          "indexed": false,
          "internalType": "address",
          "name": "winner",
          "type": "address"
        }
      ],
      "name": "EndLottery",
      "type": "event"
    },
    {
      "anonymous": false,
      "inputs": [
        {
          "indexed": true,
          "internalType": "address",
          "name": "previousOwner",
          "type": "address"
        },
        {
          "indexed": true,
          "internalType": "address",
          "name": "newOwner",
          "type": "address"
        }
      ],
      "name": "OwnershipTransferred",
      "type": "event"
    },
    {
      "anonymous": false,
      "inputs": [
        {
          "indexed": false,
          "internalType": "address",
          "name": "owner",
          "type": "address"
        },
        {
          "indexed": false,
          "internalType": "uint256",
          "name": "id",
          "type": "uint256"
        }
      ],
      "name": "PoliticianBuy",
      "type": "event"
    },
    {
      "anonymous": false,
      "inputs": [
        {
          "indexed": false,
          "internalType": "uint256",
          "name": "randomResult",
          "type": "uint256"
        }
      ],
      "name": "RandomNumberCreated",
      "type": "event"
    },
    {
      "anonymous": false,
      "inputs": [
        {
          "indexed": true,
          "internalType": "address",
          "name": "from",
          "type": "address"
        },
        {
          "indexed": true,
          "internalType": "address",
          "name": "to",
          "type": "address"
        },
        {
          "indexed": true,
          "internalType": "uint256",
          "name": "tokenId",
          "type": "uint256"
        }
      ],
      "name": "Transfer",
      "type": "event"
    },
    {
      "anonymous": false,
      "inputs": [
        {
          "indexed": false,
          "internalType": "uint256",
          "name": "id",
          "type": "uint256"
        },
        {
          "indexed": false,
          "internalType": "address",
          "name": "player",
          "type": "address"
        }
      ],
      "name": "UserPlayedLottery",
      "type": "event"
    },
    {
      "inputs": [
        {
          "internalType": "uint256",
          "name": "_id",
          "type": "uint256"
        },
        {
          "internalType": "uint256",
          "name": "_qty",
          "type": "uint256"
        }
      ],
      "name": "addQty",
      "outputs": [],
      "stateMutability": "nonpayable",
      "type": "function"
    },
    {
      "inputs": [
        {
          "internalType": "address",
          "name": "to",
          "type": "address"
        },
        {
          "internalType": "uint256",
          "name": "tokenId",
          "type": "uint256"
        }
      ],
      "name": "approve",
      "outputs": [],
      "stateMutability": "nonpayable",
      "type": "function"
    },
    {
      "inputs": [
        {
          "internalType": "uint256",
          "name": "",
          "type": "uint256"
        }
      ],
      "name": "arrayPoliticiansOnSale",
      "outputs": [
        {
          "internalType": "uint256",
          "name": "",
          "type": "uint256"
        }
      ],
      "stateMutability": "view",
      "type": "function"
    },
    {
      "inputs": [
        {
          "internalType": "address",
          "name": "owner",
          "type": "address"
        }
      ],
      "name": "balanceOf",
      "outputs": [
        {
          "internalType": "uint256",
          "name": "",
          "type": "uint256"
        }
      ],
      "stateMutability": "view",
      "type": "function"
    },
    {
      "inputs": [
        {
          "internalType": "uint256",
          "name": "_id",
          "type": "uint256"
        },
        {
          "internalType": "string",
          "name": "_tokenUri",
          "type": "string"
        }
      ],
      "name": "buy",
      "outputs": [],
      "stateMutability": "payable",
      "type": "function"
    },
    {
      "inputs": [
        {
          "internalType": "uint256",
          "name": "_tokenId",
          "type": "uint256"
        }
      ],
      "name": "buyPoliticsForSale",
      "outputs": [],
      "stateMutability": "payable",
      "type": "function"
    },
    {
      "inputs": [
        {
          "internalType": "uint256",
          "name": "_tokenId",
          "type": "uint256"
        }
      ],
      "name": "cancelSell",
      "outputs": [],
      "stateMutability": "payable",
      "type": "function"
    },
    {
      "inputs": [],
      "name": "contractAddress",
      "outputs": [
        {
          "internalType": "address payable",
          "name": "",
          "type": "address"
        }
      ],
      "stateMutability": "view",
      "type": "function"
    },
    {
      "inputs": [
        {
          "internalType": "uint256",
          "name": "_id",
          "type": "uint256"
        },
        {
          "internalType": "uint256",
          "name": "_price",
          "type": "uint256"
        },
        {
          "internalType": "uint256",
          "name": "_qty",
          "type": "uint256"
        },
        {
          "internalType": "bool",
          "name": "_lottery",
          "type": "bool"
        }
      ],
      "name": "create",
      "outputs": [],
      "stateMutability": "nonpayable",
      "type": "function"
    },
    {
      "inputs": [
        {
          "internalType": "uint256",
          "name": "_tokenId",
          "type": "uint256"
        },
        {
          "internalType": "uint256",
          "name": "_price",
          "type": "uint256"
        }
      ],
      "name": "forSale",
      "outputs": [],
      "stateMutability": "nonpayable",
      "type": "function"
    },
    {
      "inputs": [
        {
          "internalType": "uint256",
          "name": "tokenId",
          "type": "uint256"
        }
      ],
      "name": "getApproved",
      "outputs": [
        {
          "internalType": "address",
          "name": "",
          "type": "address"
        }
      ],
      "stateMutability": "view",
      "type": "function"
    },
    {
      "inputs": [],
      "name": "getMyPolitics",
      "outputs": [
        {
          "components": [
            {
              "internalType": "uint256",
              "name": "id",
              "type": "uint256"
            },
            {
              "internalType": "uint256",
              "name": "id_politic",
              "type": "uint256"
            },
            {
              "internalType": "address",
              "name": "owner",
              "type": "address"
            }
          ],
          "internalType": "struct Collectible.PoliticsOwned[]",
          "name": "",
          "type": "tuple[]"
        }
      ],
      "stateMutability": "view",
      "type": "function"
    },
    {
      "inputs": [
        {
          "internalType": "uint256",
          "name": "_id",
          "type": "uint256"
        }
      ],
      "name": "getPoliticQty",
      "outputs": [
        {
          "internalType": "uint256",
          "name": "",
          "type": "uint256"
        }
      ],
      "stateMutability": "view",
      "type": "function"
    },
    {
      "inputs": [],
      "name": "getRandomNumber",
      "outputs": [
        {
          "internalType": "bytes32",
          "name": "requestId",
          "type": "bytes32"
        }
      ],
      "stateMutability": "nonpayable",
      "type": "function"
    },
    {
      "inputs": [
        {
          "internalType": "address",
          "name": "owner",
          "type": "address"
        },
        {
          "internalType": "address",
          "name": "operator",
          "type": "address"
        }
      ],
      "name": "isApprovedForAll",
      "outputs": [
        {
          "internalType": "bool",
          "name": "",
          "type": "bool"
        }
      ],
      "stateMutability": "view",
      "type": "function"
    },
    {
      "inputs": [],
      "name": "name",
      "outputs": [
        {
          "internalType": "string",
          "name": "",
          "type": "string"
        }
      ],
      "stateMutability": "view",
      "type": "function"
    },
    {
      "inputs": [
        {
          "internalType": "address",
          "name": "",
          "type": "address"
        },
        {
          "internalType": "address",
          "name": "",
          "type": "address"
        },
        {
          "internalType": "uint256",
          "name": "",
          "type": "uint256"
        },
        {
          "internalType": "bytes",
          "name": "",
          "type": "bytes"
        }
      ],
      "name": "onERC721Received",
      "outputs": [
        {
          "internalType": "bytes4",
          "name": "",
          "type": "bytes4"
        }
      ],
      "stateMutability": "nonpayable",
      "type": "function"
    },
    {
      "inputs": [],
      "name": "owner",
      "outputs": [
        {
          "internalType": "address",
          "name": "",
          "type": "address"
        }
      ],
      "stateMutability": "view",
      "type": "function"
    },
    {
      "inputs": [],
      "name": "ownerAddress",
      "outputs": [
        {
          "internalType": "address payable",
          "name": "",
          "type": "address"
        }
      ],
      "stateMutability": "view",
      "type": "function"
    },
    {
      "inputs": [
        {
          "internalType": "uint256",
          "name": "tokenId",
          "type": "uint256"
        }
      ],
      "name": "ownerOf",
      "outputs": [
        {
          "internalType": "address",
          "name": "",
          "type": "address"
        }
      ],
      "stateMutability": "view",
      "type": "function"
    },
    {
      "inputs": [],
      "name": "rand",
      "outputs": [
        {
          "internalType": "bytes32",
          "name": "",
          "type": "bytes32"
        }
      ],
      "stateMutability": "view",
      "type": "function"
    },
    {
      "inputs": [],
      "name": "randomResult",
      "outputs": [
        {
          "internalType": "uint256",
          "name": "",
          "type": "uint256"
        }
      ],
      "stateMutability": "view",
      "type": "function"
    },
    {
      "inputs": [
        {
          "internalType": "bytes32",
          "name": "requestId",
          "type": "bytes32"
        },
        {
          "internalType": "uint256",
          "name": "randomness",
          "type": "uint256"
        }
      ],
      "name": "rawFulfillRandomness",
      "outputs": [],
      "stateMutability": "nonpayable",
      "type": "function"
    },
    {
      "inputs": [],
      "name": "renounceOwnership",
      "outputs": [],
      "stateMutability": "nonpayable",
      "type": "function"
    },
    {
      "inputs": [
        {
          "internalType": "address",
          "name": "from",
          "type": "address"
        },
        {
          "internalType": "address",
          "name": "to",
          "type": "address"
        },
        {
          "internalType": "uint256",
          "name": "tokenId",
          "type": "uint256"
        }
      ],
      "name": "safeTransferFrom",
      "outputs": [],
      "stateMutability": "nonpayable",
      "type": "function"
    },
    {
      "inputs": [
        {
          "internalType": "address",
          "name": "from",
          "type": "address"
        },
        {
          "internalType": "address",
          "name": "to",
          "type": "address"
        },
        {
          "internalType": "uint256",
          "name": "tokenId",
          "type": "uint256"
        },
        {
          "internalType": "bytes",
          "name": "_data",
          "type": "bytes"
        }
      ],
      "name": "safeTransferFrom",
      "outputs": [],
      "stateMutability": "nonpayable",
      "type": "function"
    },
    {
      "inputs": [
        {
          "internalType": "address",
          "name": "operator",
          "type": "address"
        },
        {
          "internalType": "bool",
          "name": "approved",
          "type": "bool"
        }
      ],
      "name": "setApprovalForAll",
      "outputs": [],
      "stateMutability": "nonpayable",
      "type": "function"
    },
    {
      "inputs": [
        {
          "internalType": "bytes4",
          "name": "interfaceId",
          "type": "bytes4"
        }
      ],
      "name": "supportsInterface",
      "outputs": [
        {
          "internalType": "bool",
          "name": "",
          "type": "bool"
        }
      ],
      "stateMutability": "view",
      "type": "function"
    },
    {
      "inputs": [],
      "name": "symbol",
      "outputs": [
        {
          "internalType": "string",
          "name": "",
          "type": "string"
        }
      ],
      "stateMutability": "view",
      "type": "function"
    },
    {
      "inputs": [
        {
          "internalType": "uint256",
          "name": "tokenId",
          "type": "uint256"
        }
      ],
      "name": "tokenURI",
      "outputs": [
        {
          "internalType": "string",
          "name": "",
          "type": "string"
        }
      ],
      "stateMutability": "view",
      "type": "function"
    },
    {
      "inputs": [
        {
          "internalType": "address",
          "name": "from",
          "type": "address"
        },
        {
          "internalType": "address",
          "name": "to",
          "type": "address"
        },
        {
          "internalType": "uint256",
          "name": "tokenId",
          "type": "uint256"
        }
      ],
      "name": "transferFrom",
      "outputs": [],
      "stateMutability": "nonpayable",
      "type": "function"
    },
    {
      "inputs": [
        {
          "internalType": "address",
          "name": "newOwner",
          "type": "address"
        }
      ],
      "name": "transferOwnership",
      "outputs": [],
      "stateMutability": "nonpayable",
      "type": "function"
    },
    {
      "inputs": [
        {
          "internalType": "uint256",
          "name": "_id",
          "type": "uint256"
        },
        {
          "internalType": "uint256",
          "name": "_id_politics",
          "type": "uint256"
        },
        {
          "internalType": "uint256",
          "name": "_end_time",
          "type": "uint256"
        },
        {
          "internalType": "uint256",
          "name": "_price",
          "type": "uint256"
        },
        {
          "internalType": "uint256",
          "name": "_ticket_available",
          "type": "uint256"
        }
      ],
      "name": "createLottery",
      "outputs": [],
      "stateMutability": "nonpayable",
      "type": "function"
    },
    {
      "inputs": [
        {
          "internalType": "uint256",
          "name": "_id",
          "type": "uint256"
        }
      ],
      "name": "playLottery",
      "outputs": [],
      "stateMutability": "payable",
      "type": "function"
    },
    {
      "inputs": [
        {
          "internalType": "uint256",
          "name": "_id",
          "type": "uint256"
        }
      ],
      "name": "onEndLottery",
      "outputs": [],
      "stateMutability": "nonpayable",
      "type": "function"
    }
  ],
  "bytecode": "0x60c06040526001600f5560056012553480156200001b57600080fd5b50604080518082018252600b81527f506f6c69746963734e667400000000000000000000000000000000000000000060208083019182528351808501909452600384527f504f4c0000000000000000000000000000000000000000000000000000000000908401527fb3dccb4cf7a26f6cf6b120cf5a73875b7bbc655b00000000000000000000000060a0527f01be23585060835e02b77ef475b0cc51aa1e07090000000000000000000000006080528151919291620000de91600191620001cf565b508051620000f4906002906020840190620001cf565b505050620001236200011462000179640100000000026401000000009004565b6401000000006200017d810204565b600d8054600160a060020a03199081163317909155600e8054909116301790557f2ed0feb3e7fd2022120aa84fab1945545a9f2ffc9076fd6156fa96eaff4c131160135567016345785d8a0000601455620002cb565b3390565b60088054600160a060020a03838116600160a060020a0319831681179093556040519116919082907f8be0079c531659141344cd1fd0a4f28419497f9722a3daafe3b4186f6b6457e090600090a35050565b828054620001dd9062000275565b90600052602060002090601f0160209004810192826200020157600085556200024c565b82601f106200021c57805160ff19168380011785556200024c565b828001600101855582156200024c579182015b828111156200024c5782518255916020019190600101906200022f565b506200025a9291506200025e565b5090565b5b808211156200025a57600081556001016200025f565b6002810460018216806200028a57607f821691505b60208210811415620002c5577f4e487b7100000000000000000000000000000000000000000000000000000000600052602260045260246000fd5b50919050565b6080516c01000000000000000000000000900460a0516c010000000000000000000000009004613d1e6200031f600039600081816119930152612add0152600081816121120152612aae0152613d1e6000f3fe608060405260043610610221576000357c01000000000000000000000000000000000000000000000000000000009004806385d3343611610135578063b88d4fde116100bd578063de7f55871161008c578063de7f5587146105d5578063e7e6c81c146105f5578063e985e9c514610615578063f2fde38b1461065e578063f6b4dfb41461067e57600080fd5b8063b88d4fde14610560578063b9db1c9814610580578063c87b56dd146105a0578063dbdff2c1146105c057600080fd5b8063935b8d9711610104578063935b8d97146104d857806394985ddd146104f857806395d89b4114610518578063a22cb4651461052d578063b7dc3b181461054d57600080fd5b806385d33436146104585780638da5cb5b1461047a5780638f84aa09146104985780638fedc864146104b857600080fd5b806323b872dd116101b8578063546f9e6711610187578063546f9e67146103d057806354b3efa6146103e35780636352211e1461040357806370a0823114610423578063715018a61461044357600080fd5b806323b872dd146103565780633b3dca761461037657806342619f661461039a57806342842e0e146103b057600080fd5b8063081812fc116101f4578063081812fc146102a5578063095ea7b3146102dd5780630b2ee7e9146102fd578063150b7a021461031d57600080fd5b806301ffc9a71461022657806303ddcab81461025b57806306fdde031461027057806307c9cd4514610292575b600080fd5b34801561023257600080fd5b506102466102413660046137ce565b61069e565b60405190151581526020015b60405180910390f35b61026e610269366004613808565b61073b565b005b34801561027c57600080fd5b50610285610aaa565b6040516102529190613a3b565b61026e6102a0366004613808565b610b3c565b3480156102b157600080fd5b506102c56102c0366004613808565b610ce7565b604051600160a060020a039091168152602001610252565b3480156102e957600080fd5b5061026e6102f8366004613765565b610d83565b34801561030957600080fd5b5061026e610318366004613895565b610ebb565b34801561032957600080fd5b5061033d6103383660046136b2565b611004565b604051600160e060020a03199091168152602001610252565b34801561036257600080fd5b5061026e610371366004613676565b61102e565b34801561038257600080fd5b5061038c60165481565b604051908152602001610252565b3480156103a657600080fd5b5061038c60155481565b3480156103bc57600080fd5b5061026e6103cb366004613676565b61105b565b61026e6103de366004613808565b611076565b3480156103ef57600080fd5b5061026e6103fe3660046137ac565b61132b565b34801561040f57600080fd5b506102c561041e366004613808565b61146f565b34801561042f57600080fd5b5061038c61043e366004613628565b6114fd565b34801561044f57600080fd5b5061026e61159a565b34801561046457600080fd5b5061046d6115d3565b60405161025291906139d9565b34801561048657600080fd5b50600854600160a060020a03166102c5565b3480156104a457600080fd5b50600d546102c590600160a060020a031681565b3480156104c457600080fd5b5061038c6104d3366004613808565b611660565b3480156104e457600080fd5b5061026e6104f3366004613808565b611681565b34801561050457600080fd5b5061026e6105133660046137ac565b611988565b34801561052457600080fd5b50610285611a0d565b34801561053957600080fd5b5061026e61054836600461372e565b611a1c565b61026e61055b36600461383a565b611ae4565b34801561056c57600080fd5b5061026e61057b3660046136b2565b611e2a565b34801561058c57600080fd5b5061026e61059b3660046137ac565b611ebb565b3480156105ac57600080fd5b506102856105bb366004613808565b611f33565b3480156105cc57600080fd5b5061038c6120b1565b3480156105e157600080fd5b5061038c6105f0366004613808565b61221e565b34801561060157600080fd5b5061026e6106103660046138d6565b61229d565b34801561062157600080fd5b50610246610630366004613643565b600160a060020a03918216600090815260066020908152604080832093909416825291909152205460ff1690565b34801561066a57600080fd5b5061026e610679366004613628565b61253c565b34801561068a57600080fd5b50600e546102c590600160a060020a031681565b6000600160e060020a031982167f80ac58cd0000000000000000000000000000000000000000000000000000000014806107015750600160e060020a031982167f5b5e139f00000000000000000000000000000000000000000000000000000000145b8061073557507f01ffc9a700000000000000000000000000000000000000000000000000000000600160e060020a03198316145b92915050565b6000818152601860205260409020600301546103e89061076390670de0b6b3a7640000613b7a565b61076d9190613b66565b34146107975760405160e560020a62461bcd02815260040161078e90613b17565b60405180910390fd5b60008181526018602052604090206006015460ff166107fb5760405160e560020a62461bcd02815260206004820152601160248201527f4c6f7474657279206e6f7420666f756e64000000000000000000000000000000604482015260640161078e565b600081815260186020526040902060020154421061085e5760405160e560020a62461bcd02815260206004820152601560248201527f4c6f7474657279206e6f7420617661696c61626c650000000000000000000000604482015260640161078e565b6000818152601860205260409020600501546108bf5760405160e560020a62461bcd02815260206004820152601860248201527f4e6f206d6f7265207469636b657420617661696c61626c650000000000000000604482015260640161078e565b60008181526017602090815260408083208054825181850281018501909352808352919290919083018282801561091f57602002820191906000526020600020905b8154600160a060020a03168152600190910190602001808311610901575b5050505050905060005b81518110156109c25733600160a060020a031682828151811061094e5761094e613c92565b6020026020010151600160a060020a031614156109b05760405160e560020a62461bcd02815260206004820152601a60248201527f4f6e6c79206f6e65207469636b65742062792061646472657373000000000000604482015260640161078e565b806109ba81613c31565b915050610929565b50600d54604051600160a060020a03909116903480156108fc02916000818181858888f193505050501580156109fc573d6000803e3d6000fd5b5060008281526017602090815260408083208054600181018255908452828420018054600160a060020a0319163317905584835260189091528120600401805491610a4683613c31565b90915550506000828152601860205260408120600501805491610a6883613bdc565b9091555050604080518381523360208201527f9cc53c1a9ff48c4fe548325ee9a6f7bb7b2b2defb3183e546b6bfd540f286f8291015b60405180910390a15050565b606060018054610ab990613bf3565b80601f0160208091040260200160405190810160405280929190818152602001828054610ae590613bf3565b8015610b325780601f10610b0757610100808354040283529160200191610b32565b820191906000526020600020905b815481529060010190602001808311610b1557829003601f168201915b5050505050905090565b600081815260106020526040902060020154600160a060020a03163314610ba85760405160e560020a62461bcd02815260206004820152601360248201527f4e6f7420796f757220706f6c6974696369616e00000000000000000000000000604482015260640161078e565b60125460008281526010602052604081206001015490916064916103e890610bd890670de0b6b3a7640000613b7a565b610be29190613b66565b610bec9190613b7a565b610bf69190613b66565b9050803414610c1a5760405160e560020a62461bcd02815260040161078e90613b17565b600d54604051600160a060020a039091169082156108fc029083906000818181858888f19350505050158015610c54573d6000803e3d6000fd5b50600e546040517f42842e0e000000000000000000000000000000000000000000000000000000008152600160a060020a0390911660048201523360248201526044810183905230906342842e0e90606401600060405180830381600087803b158015610cc057600080fd5b505af1158015610cd4573d6000803e3d6000fd5b50505050610ce38260016125f4565b5050565b6000610cf2826126c8565b610d675760405160e560020a62461bcd02815260206004820152602c60248201527f4552433732313a20617070726f76656420717565727920666f72206e6f6e657860448201527f697374656e7420746f6b656e0000000000000000000000000000000000000000606482015260840161078e565b50600090815260056020526040902054600160a060020a031690565b6000610d8e8261146f565b905080600160a060020a031683600160a060020a03161415610e1b5760405160e560020a62461bcd02815260206004820152602160248201527f4552433732313a20617070726f76616c20746f2063757272656e74206f776e6560448201527f7200000000000000000000000000000000000000000000000000000000000000606482015260840161078e565b33600160a060020a0382161480610e375750610e378133610630565b610eac5760405160e560020a62461bcd02815260206004820152603860248201527f4552433732313a20617070726f76652063616c6c6572206973206e6f74206f7760448201527f6e6572206e6f7220617070726f76656420666f7220616c6c0000000000000000606482015260840161078e565b610eb683836126e5565b505050565b600854600160a060020a03163314610ee85760405160e560020a62461bcd02815260040161078e90613aab565b600084815260096020526040902060020154610100900460ff1615610f525760405160e560020a62461bcd02815260206004820152601160248201527f696420616c726561647920696e20757365000000000000000000000000000000604482015260640161078e565b60408051608081018252858152602080820186815284151583850190815260016060850181815260008b8152600b86528781208a9055600990955293869020855181559251908301555160029091018054925115156101000261ff00199215159290921661ffff199093169290921717905590517ff00c522f13522af224c59f918a8375598b0362237c9cc8b4edb44f599cf0f3d690610ff59087815260200190565b60405180910390a15050505050565b7f150b7a02000000000000000000000000000000000000000000000000000000005b949350505050565b600854600160a060020a03163314610eb65760405160e560020a62461bcd02815260040161078e90613aab565b610eb683838360405180602001604052806000815250611e2a565b60008181526010602052604090206002015474010000000000000000000000000000000000000000900460ff166110f25760405160e560020a62461bcd02815260206004820152601760248201527f506f6c6974696369616e206e6f7420666f722073616c65000000000000000000604482015260640161078e565b600081815260106020526040902060020154600160a060020a031633141561115f5760405160e560020a62461bcd02815260206004820152600f60248201527f596f757220706f6c6974696369616e0000000000000000000000000000000000604482015260640161078e565b6000818152601060205260409020600101546103e89061118790670de0b6b3a7640000613b7a565b6111919190613b66565b34146111b25760405160e560020a62461bcd02815260040161078e90613b17565b60006064601254346111c49190613b7a565b6111ce9190613b66565b905060006111dc8234613b99565b600d54604051919250600160a060020a03169083156108fc029084906000818181858888f19350505050158015611217573d6000803e3d6000fd5b50600083815260106020526040808220600201549051600160a060020a039091169183156108fc02918491818181858888f1935050505015801561125f573d6000803e3d6000fd5b50600e546040517f42842e0e000000000000000000000000000000000000000000000000000000008152600160a060020a0390911660048201523360248201526044810184905230906342842e0e90606401600060405180830381600087803b1580156112cb57600080fd5b505af11580156112df573d6000803e3d6000fd5b505050506112ee8360016125f4565b604080518481523360208201527fba09fc575b06563e24ebda6a85ecaffa381143e05692b04d0439c33cb68261c5910160405180910390a1505050565b6000828152600c6020526040902054600160a060020a031633146113ba5760405160e560020a62461bcd02815260206004820152602260248201527f596f7520617265206e6f7420746865206f776e6572206f662074686520746f6b60448201527f656e000000000000000000000000000000000000000000000000000000000000606482015260840161078e565b600e546113d2903390600160a060020a03168461105b565b60408051608081018252838152602080820184815233838501908152600160608501818152600089815260109095529590932084518155915182840155516002909101805494511515740100000000000000000000000000000000000000000274ffffffffffffffffffffffffffffffffffffffffff19909516600160a060020a03929092169190911793909317909255906112ee9084906125f4565b600081815260036020526040812054600160a060020a0316806107355760405160e560020a62461bcd02815260206004820152602960248201527f4552433732313a206f776e657220717565727920666f72206e6f6e657869737460448201527f656e7420746f6b656e0000000000000000000000000000000000000000000000606482015260840161078e565b6000600160a060020a03821661157e5760405160e560020a62461bcd02815260206004820152602a60248201527f4552433732313a2062616c616e636520717565727920666f7220746865207a6560448201527f726f206164647265737300000000000000000000000000000000000000000000606482015260840161078e565b50600160a060020a031660009081526004602052604090205490565b600854600160a060020a031633146115c75760405160e560020a62461bcd02815260040161078e90613aab565b6115d16000612753565b565b336000908152600a60209081526040808320805482518185028101850190935280835260609492939192909184015b8282101561165757600084815260209081902060408051606081018252600386029092018054835260018082015484860152600290910154600160a060020a0316918301919091529083529092019101611602565b50505050905090565b6011818154811061167057600080fd5b600091825260209091200154905081565b600854600160a060020a031633146116ae5760405160e560020a62461bcd02815260040161078e90613aab565b60008181526018602052604090206006015460ff166117125760405160e560020a62461bcd02815260206004820152601560248201527f4c6f7474657279206e6f7420617661696c61626c650000000000000000000000604482015260640161078e565b60008181526018602052604090206002015442116117755760405160e560020a62461bcd02815260206004820152601460248201527f4c6f7474657279206e6f742066696e6973686564000000000000000000000000604482015260640161078e565b60008181526018602090815260408083206001015460179092528220546015549192916117a29190613c4c565b6117ad906001613b4e565b600084815260176020526040812080549293509091839081106117d2576117d2613c92565b6000918252602080832090910154600f54604051600160a060020a0390921694506402540be4009261182792869101918252600160a060020a03166c0100000000000000000000000002602082015260340190565b60408051601f1981840301815291905280516020909101206118499190613c4c565b600f8054919250600061185b83613c31565b919050555061186a82826127a5565b604080516060810182528281526020808201878152600160a060020a038087168486018181526000828152600a86528781208054600181810183559183528783208951600392830290910190815596518783015592516002968701805491909616600160a060020a031991821617909555898252600c875288822080549095169093179093558b83526018855286832083815591820183905592810182905591820181905560048201819055600582018190556006909101805460ff191690556017909152918220909161193e9190613496565b60408051878152600160a060020a03851660208201527fa1f5e94be44374b084108775ea10df484c59d9b341260f24da036cadb79db46691015b60405180910390a1505050505050565b33600160a060020a037f00000000000000000000000000000000000000000000000000000000000000001614611a035760405160e560020a62461bcd02815260206004820152601f60248201527f4f6e6c7920565246436f6f7264696e61746f722063616e2066756c66696c6c00604482015260640161078e565b610ce382826127bf565b606060028054610ab990613bf3565b600160a060020a038216331415611a785760405160e560020a62461bcd02815260206004820152601960248201527f4552433732313a20617070726f766520746f2063616c6c657200000000000000604482015260640161078e565b336000818152600660209081526040808320600160a060020a03871680855290835292819020805460ff191686151590811790915590519081529192917f17307eab39ab6107e8899845ad3d59bd9653f200f220920489ca2b5937696c31910160405180910390a35050565b600082815260096020526040902060020154610100900460ff16611b1d5760405160e560020a62461bcd02815260040161078e90613ae0565b60008281526009602052604090206002015460ff1615611ba85760405160e560020a62461bcd02815260206004820152602360248201527f506f6c69746963206f6e6c7920617661696c61626c652077697468206c6f747460448201527f6572790000000000000000000000000000000000000000000000000000000000606482015260840161078e565b6000828152600b6020526040902054611c2c5760405160e560020a62461bcd02815260206004820152602260248201527f5468657265206973206e6f206d6f726520706f6c6974696320617661696c616260448201527f6c65000000000000000000000000000000000000000000000000000000000000606482015260840161078e565b6000828152600960205260409020600101546103e890611c5490670de0b6b3a7640000613b7a565b611c5e9190613b66565b3414611c7f5760405160e560020a62461bcd02815260040161078e90613b17565b6040805160808101825260008082526020820181905291810182905260608101919091526000838152600b60205260408120805491611cbd83613bdc565b9091555050600f5460408051602080820193909352336c0100000000000000000000000002818301528151603481830301815260549091019091528051910120600090611d10906402540be40090613c4c565b600f80549192506000611d2283613c31565b9091555050600d54604051600160a060020a03909116903480156108fc02916000818181858888f19350505050158015611d60573d6000803e3d6000fd5b50611d6b33826127a5565b611d7581846127f4565b6040805160608101825282815283516020808301918252338385018181526000828152600a84528681208054600180820183559183528583208851600390920201908155955190860155905160029094018054600160a060020a03909516600160a060020a0319958616179055868152600c8352859020805490931681179092558351918252810184905290917f0f1f73114dcf85af6f6506a86f3b42cdc8af0e4d37ca5130270465cd9c3582239101610ff5565b611e343383612891565b611ea95760405160e560020a62461bcd02815260206004820152603160248201527f4552433732313a207472616e736665722063616c6c6572206973206e6f74206f60448201527f776e6572206e6f7220617070726f766564000000000000000000000000000000606482015260840161078e565b611eb58484848461298b565b50505050565b600854600160a060020a03163314611ee85760405160e560020a62461bcd02815260040161078e90613aab565b600082815260096020526040902060020154610100900460ff16611f215760405160e560020a62461bcd02815260040161078e90613ae0565b6000918252600b602052604090912055565b6060611f3e826126c8565b611fb35760405160e560020a62461bcd02815260206004820152603160248201527f45524337323155524953746f726167653a2055524920717565727920666f722060448201527f6e6f6e6578697374656e7420746f6b656e000000000000000000000000000000606482015260840161078e565b60008281526007602052604081208054611fcc90613bf3565b80601f0160208091040260200160405190810160405280929190818152602001828054611ff890613bf3565b80156120455780601f1061201a57610100808354040283529160200191612045565b820191906000526020600020905b81548152906001019060200180831161202857829003601f168201915b50505050509050600061206360408051602081019091526000815290565b9050805160001415612076575092915050565b8151156120a857808260405160200161209092919061393d565b60405160208183030381529060405292505050919050565b611026846129c1565b600854600090600160a060020a031633146120e15760405160e560020a62461bcd02815260040161078e90613aab565b6014546040517f70a082310000000000000000000000000000000000000000000000000000000081523060048201527f0000000000000000000000000000000000000000000000000000000000000000600160a060020a0316906370a082319060240160206040518083038186803b15801561215c57600080fd5b505afa158015612170573d6000803e3d6000fd5b505050506040513d601f19601f820116820180604052508101906121949190613821565b101561220b5760405160e560020a62461bcd02815260206004820152602b60248201527f4e6f7420656e6f756768204c494e4b202d2066696c6c20636f6e74726163742060448201527f7769746820666175636574000000000000000000000000000000000000000000606482015260840161078e565b612219601354601454612aaa565b905090565b600854600090600160a060020a0316331461224e5760405160e560020a62461bcd02815260040161078e90613aab565b600082815260096020526040902060020154610100900460ff166122875760405160e560020a62461bcd02815260040161078e90613ae0565b506000818152600b60205260409020545b919050565b600854600160a060020a031633146122ca5760405160e560020a62461bcd02815260040161078e90613aab565b60008481526009602052604090206002015460ff1661232e5760405160e560020a62461bcd02815260206004820181905260248201527f506f6c69746963206e6f7420617661696c61626c6520696e206c6f7474657279604482015260640161078e565b60008581526018602052604090206006015460ff16156123935760405160e560020a62461bcd02815260206004820152601560248201527f4c6f747465727920616c72656164792065786973740000000000000000000000604482015260640161078e565b8242106123e55760405160e560020a62461bcd02815260206004820152601360248201527f456e642074696d6520697320696e207061737400000000000000000000000000604482015260640161078e565b600082116124385760405160e560020a62461bcd02815260206004820152600a60248201527f5072696365206973203000000000000000000000000000000000000000000000604482015260640161078e565b603281101561248c5760405160e560020a62461bcd02815260206004820152601960248201527f5469636b657420617661696c69626c6520756e64657220353000000000000000604482015260640161078e565b6040805160e08101825286815260208082018781528284018781526060840187815260006080860181815260a08701898152600160c089018181528f855260188952938a90208951815596519087015593516002860155915160038501559051600484015590516005830155516006909101805460ff1916911515919091179055915187815290917f960f4fb18f2af9795686d97891dbd6534865353629cbda12afb278e6181976629101611978565b600854600160a060020a031633146125695760405160e560020a62461bcd02815260040161078e90613aab565b600160a060020a0381166125e85760405160e560020a62461bcd02815260206004820152602660248201527f4f776e61626c653a206e6577206f776e657220697320746865207a65726f206160448201527f6464726573730000000000000000000000000000000000000000000000000000606482015260840161078e565b6125f181612753565b50565b801561269257600082815260106020526040812081815560018101829055600201805474ffffffffffffffffffffffffffffffffffffffffff191690555b601154811015610eb657826011828154811061265057612650613c92565b90600052602060002001541415612680576011818154811061267457612674613c92565b60009182526020822001555b8061268a81613c31565b915050612632565b50601180546001810182556000919091527f31ecc21a745e3968a04e9570e4425bc18fa8019c68028196b546d1669c200c680155565b600090815260036020526040902054600160a060020a0316151590565b60008181526005602052604090208054600160a060020a031916600160a060020a038416908117909155819061271a8261146f565b600160a060020a03167f8c5be1e5ebec7d5bd14f71427d1e84f3dd0314c0f7b2291e5b200ac8c7c3b92560405160405180910390a45050565b60088054600160a060020a03838116600160a060020a0319831681179093556040519116919082907f8be0079c531659141344cd1fd0a4f28419497f9722a3daafe3b4186f6b6457e090600090a35050565b610ce3828260405180602001604052806000815250612c4a565b60158190556040518181527f3e03d1f6db9c938103954d9053238ec024c7852bb15999ab2bd58960b2c1919d90602001610a9e565b6127fd826126c8565b6128725760405160e560020a62461bcd02815260206004820152602e60248201527f45524337323155524953746f726167653a2055524920736574206f66206e6f6e60448201527f6578697374656e7420746f6b656e000000000000000000000000000000000000606482015260840161078e565b60008281526007602090815260409091208251610eb6928401906134b4565b600061289c826126c8565b6129115760405160e560020a62461bcd02815260206004820152602c60248201527f4552433732313a206f70657261746f7220717565727920666f72206e6f6e657860448201527f697374656e7420746f6b656e0000000000000000000000000000000000000000606482015260840161078e565b600061291c8361146f565b905080600160a060020a031684600160a060020a03161480612957575083600160a060020a031661294c84610ce7565b600160a060020a0316145b806110265750600160a060020a0380821660009081526006602090815260408083209388168352929052205460ff16611026565b612996848484612c80565b6129a284848484612e5e565b611eb55760405160e560020a62461bcd02815260040161078e90613a4e565b60606129cc826126c8565b612a415760405160e560020a62461bcd02815260206004820152602f60248201527f4552433732314d657461646174613a2055524920717565727920666f72206e6f60448201527f6e6578697374656e7420746f6b656e0000000000000000000000000000000000606482015260840161078e565b6000612a5860408051602081019091526000815290565b90506000815111612a785760405180602001604052806000815250612aa3565b80612a8284612f9d565b604051602001612a9392919061393d565b6040516020818303038152906040525b9392505050565b60007f0000000000000000000000000000000000000000000000000000000000000000600160a060020a0316634000aea07f000000000000000000000000000000000000000000000000000000000000000084866000604051602001612b1a929190918252602082015260400190565b60408051601f19818403018152908290527c010000000000000000000000000000000000000000000000000000000063ffffffff8616028252612b619392916004016139a8565b602060405180830381600087803b158015612b7b57600080fd5b505af1158015612b8f573d6000803e3d6000fd5b505050506040513d601f19601f82011682018060405250810190612bb3919061378f565b5060008381526020818152604080832054815180840188905280830185905230606082015260808082018390528351808303909101815260a090910190925281519183019190912086845292909152612c0d906001613b4e565b6000858152602081815260409182902092909255805180830187905280820184905281518082038301815260609091019091528051910120611026565b612c5483836130ee565b612c616000848484612e5e565b610eb65760405160e560020a62461bcd02815260040161078e90613a4e565b82600160a060020a0316612c938261146f565b600160a060020a031614612d125760405160e560020a62461bcd02815260206004820152602960248201527f4552433732313a207472616e73666572206f6620746f6b656e2074686174206960448201527f73206e6f74206f776e0000000000000000000000000000000000000000000000606482015260840161078e565b600160a060020a038216612d905760405160e560020a62461bcd028152602060048201526024808201527f4552433732313a207472616e7366657220746f20746865207a65726f2061646460448201527f7265737300000000000000000000000000000000000000000000000000000000606482015260840161078e565b612d9b838383613233565b612da66000826126e5565b600160a060020a0383166000908152600460205260408120805460019290612dcf908490613b99565b9091555050600160a060020a0382166000908152600460205260408120805460019290612dfd908490613b4e565b90915550506000818152600360205260408082208054600160a060020a031916600160a060020a0386811691821790925591518493918716917fddf252ad1be2c89b69c2b068fc378daa952ba7f163c4a11628f55a4df523b3ef91a4505050565b6000600160a060020a0384163b15612f95576040517f150b7a02000000000000000000000000000000000000000000000000000000008152600160a060020a0385169063150b7a0290612ebb90339089908890889060040161396c565b602060405180830381600087803b158015612ed557600080fd5b505af1925050508015612f05575060408051601f3d908101601f19168201909252612f02918101906137eb565b60015b612f62573d808015612f33576040519150601f19603f3d011682016040523d82523d6000602084013e612f38565b606091505b508051612f5a5760405160e560020a62461bcd02815260040161078e90613a4e565b805181602001fd5b600160e060020a0319167f150b7a0200000000000000000000000000000000000000000000000000000000149050611026565b506001611026565b606081612fdd57505060408051808201909152600181527f3000000000000000000000000000000000000000000000000000000000000000602082015290565b8160005b81156130075780612ff181613c31565b91506130009050600a83613b66565b9150612fe1565b60008167ffffffffffffffff81111561302257613022613cab565b6040519080825280601f01601f19166020018201604052801561304c576020820181803683370190505b5090505b841561102657613061600183613b99565b915061306e600a86613c4c565b613079906030613b4e565b7f0100000000000000000000000000000000000000000000000000000000000000028183815181106130ad576130ad613c92565b60200101907effffffffffffffffffffffffffffffffffffffffffffffffffffffffffffff1916908160001a9053506130e7600a86613b66565b9450613050565b600160a060020a0382166131475760405160e560020a62461bcd02815260206004820181905260248201527f4552433732313a206d696e7420746f20746865207a65726f2061646472657373604482015260640161078e565b613150816126c8565b156131a05760405160e560020a62461bcd02815260206004820152601c60248201527f4552433732313a20746f6b656e20616c7265616479206d696e74656400000000604482015260640161078e565b6131ac60008383613233565b600160a060020a03821660009081526004602052604081208054600192906131d5908490613b4e565b90915550506000818152600360205260408082208054600160a060020a031916600160a060020a03861690811790915590518392907fddf252ad1be2c89b69c2b068fc378daa952ba7f163c4a11628f55a4df523b3ef908290a45050565b600160a060020a0383166000908152600a6020908152604080832080548251818502810185019093528083529192909190849084015b828210156132be57600084815260209081902060408051606081018252600386029092018054835260018082015484860152600290910154600160a060020a0316918301919091529083529092019101613269565b505050600160a060020a0386166000908152600a602052604081209293506132e7929150613538565b60005b8151811015613465578282828151811061330657613306613c92565b602002602001015160000151146133a457600160a060020a0385166000908152600a60205260409020825183908390811061334357613343613c92565b6020908102919091018101518254600180820185556000948552938390208251600390920201908155918101519282019290925560409091015160029091018054600160a060020a031916600160a060020a03909216919091179055613453565b838282815181106133b7576133b7613c92565b602090810291909101810151600160a060020a039283166040918201529186166000908152600a9091522082518390839081106133f6576133f6613c92565b6020908102919091018101518254600180820185556000948552938390208251600390920201908155918101519282019290925560409091015160029091018054600160a060020a031916600160a060020a039092169190911790555b8061345d81613c31565b9150506132ea565b50506000908152600c602052604090208054600160a060020a031916600160a060020a039290921691909117905550565b50805460008255906000526020600020908101906125f19190613559565b8280546134c090613bf3565b90600052602060002090601f0160209004810192826134e25760008555613528565b82601f106134fb57805160ff1916838001178555613528565b82800160010185558215613528579182015b8281111561352857825182559160200191906001019061350d565b50613534929150613559565b5090565b50805460008255600302906000526020600020908101906125f1919061356e565b5b80821115613534576000815560010161355a565b5b808211156135345760008082556001820155600281018054600160a060020a031916905560030161356f565b600067ffffffffffffffff808411156135b6576135b6613cab565b604051601f8501601f19908116603f011681019082821181831017156135de576135de613cab565b816040528093508581528686860111156135f757600080fd5b858560208301376000602087830101525050509392505050565b8035600160a060020a038116811461229857600080fd5b60006020828403121561363a57600080fd5b612aa382613611565b6000806040838503121561365657600080fd5b61365f83613611565b915061366d60208401613611565b90509250929050565b60008060006060848603121561368b57600080fd5b61369484613611565b92506136a260208501613611565b9150604084013590509250925092565b600080600080608085870312156136c857600080fd5b6136d185613611565b93506136df60208601613611565b925060408501359150606085013567ffffffffffffffff81111561370257600080fd5b8501601f8101871361371357600080fd5b6137228782356020840161359b565b91505092959194509250565b6000806040838503121561374157600080fd5b61374a83613611565b9150602083013561375a81613cc4565b809150509250929050565b6000806040838503121561377857600080fd5b61378183613611565b946020939093013593505050565b6000602082840312156137a157600080fd5b8151612aa381613cc4565b600080604083850312156137bf57600080fd5b50508035926020909101359150565b6000602082840312156137e057600080fd5b8135612aa381613cd2565b6000602082840312156137fd57600080fd5b8151612aa381613cd2565b60006020828403121561381a57600080fd5b5035919050565b60006020828403121561383357600080fd5b5051919050565b6000806040838503121561384d57600080fd5b82359150602083013567ffffffffffffffff81111561386b57600080fd5b8301601f8101851361387c57600080fd5b61388b8582356020840161359b565b9150509250929050565b600080600080608085870312156138ab57600080fd5b84359350602085013592506040850135915060608501356138cb81613cc4565b939692955090935050565b600080600080600060a086880312156138ee57600080fd5b505083359560208501359550604085013594606081013594506080013592509050565b60008151808452613929816020860160208601613bb0565b601f01601f19169290920160200192915050565b6000835161394f818460208801613bb0565b835190830190613963818360208801613bb0565b01949350505050565b6000600160a060020a0380871683528086166020840152508360408301526080606083015261399e6080830184613911565b9695505050505050565b600160a060020a03841681528260208201526060604082015260006139d06060830184613911565b95945050505050565b602080825282518282018190526000919060409081850190868401855b82811015613a2e578151805185528681015187860152850151600160a060020a031685850152606090930192908501906001016139f6565b5091979650505050505050565b602081526000612aa36020830184613911565b60208082526032908201527f4552433732313a207472616e7366657220746f206e6f6e20455243373231526560408201527f63656976657220696d706c656d656e7465720000000000000000000000000000606082015260800190565b6020808252818101527f4f776e61626c653a2063616c6c6572206973206e6f7420746865206f776e6572604082015260600190565b60208082526011908201527f506f6c69746963206e6f7420666f756e64000000000000000000000000000000604082015260600190565b60208082526010908201527f496e636f727265637420616d6f756e7400000000000000000000000000000000604082015260600190565b60008219821115613b6157613b61613c60565b500190565b600082613b7557613b75613c79565b500490565b6000816000190483118215151615613b9457613b94613c60565b500290565b600082821015613bab57613bab613c60565b500390565b60005b83811015613bcb578181015183820152602001613bb3565b83811115611eb55750506000910152565b600081613beb57613beb613c60565b506000190190565b600281046001821680613c0757607f821691505b60208210811415613c2b5760e060020a634e487b7102600052602260045260246000fd5b50919050565b6000600019821415613c4557613c45613c60565b5060010190565b600082613c5b57613c5b613c79565b500690565b60e060020a634e487b7102600052601160045260246000fd5b60e060020a634e487b7102600052601260045260246000fd5b60e060020a634e487b7102600052603260045260246000fd5b60e060020a634e487b7102600052604160045260246000fd5b80151581146125f157600080fd5b600160e060020a0319811681146125f157600080fdfea2646970667358221220b56e37ed86dd1176dbb0ded2110cbd0e7e5d69942024763a1017c1ded308afdc64736f6c63430008070033",
  "immutableReferences": {
    "73": [
      {
        "length": 32,
        "start": 8466
      },
      {
        "length": 32,
        "start": 10926
      }
    ],
    "75": [
      {
        "length": 32,
        "start": 6547
      },
      {
        "length": 32,
        "start": 10973
      }
    ]
  },
  "source": "// SPDX-License-Identifier: MIT\n\npragma solidity ^0.8.0;\nimport \"./Sell.sol\";\nimport \"./RandomNumberConsumer.sol\";\n\n/**\n* @title Base methode of lottery\n* @author Youness Chetoui\n*/\ncontract Lottery is Sell, RandomNumberConsumer {\n    struct LotteryAvailable {\n        uint256 id;\n        uint256 id_politics;\n        uint256 end_time;\n        uint256 price;\n        uint256 nb_player;\n        uint256 ticket_available;\n        bool created;\n    }\n\n    mapping(uint256 => address[]) internal userPlayedLottery;\n    mapping(uint256 => LotteryAvailable) internal lotteryAvailable;\n\n    event CreateLottery(uint256 id);\n    event UserPlayedLottery(uint256 id, address player);\n    event EndLottery(uint256 id, address winner);\n\n    /**\n    * @notice Create lottery\n    * @param _id, _id_politics, _end_time, _price, _ticket_available\n    */\n    function createLottery(\n        uint256 _id,\n        uint256 _id_politics,\n        uint256 _end_time,\n        uint256 _price,\n        uint256 _ticket_available\n    ) public onlyOwner {\n        require(politicsAvailable[_id_politics].lottery, \"Politic not available in lottery\");\n        require(!lotteryAvailable[_id].created, \"Lottery already exist\");\n        require(block.timestamp < _end_time, \"End time is in past\");\n        require(_price > 0, \"Price is 0\");\n        require(_ticket_available >= 50, \"Ticket availible under 50\");\n\n        LotteryAvailable memory lottery =\n            LotteryAvailable({id: _id, id_politics: _id_politics, end_time: _end_time, price: _price, ticket_available: _ticket_available, nb_player: 0, created: true});\n\n        lotteryAvailable[_id] = lottery;\n\n        emit CreateLottery(_id);\n    }\n\n    /**\n    * @notice Play lottery\n    * @param _id of lottery\n    */\n    function playLottery(uint256 _id) public payable {\n        require(msg.value == (lotteryAvailable[_id].price * 10**18) / 1000, \"Incorrect amount\");\n        require(lotteryAvailable[_id].created, \"Lottery not found\");\n        require(lotteryAvailable[_id].end_time > block.timestamp, \"Lottery not available\");\n        require(lotteryAvailable[_id].ticket_available > 0, \"No more ticket available\");\n\n        address[] memory users = userPlayedLottery[_id];\n        for (uint i = 0; i < users.length; i++) {\n            require(users[i] != msg.sender, \"Only one ticket by address\");\n        }\n\n        ownerAddress.transfer(msg.value);\n        userPlayedLottery[_id].push(msg.sender);\n        lotteryAvailable[_id].nb_player++;\n        lotteryAvailable[_id].ticket_available--;\n\n        emit UserPlayedLottery(_id, msg.sender);\n    }\n\n    /**\n    * @notice End lottery\n    * @param _id of lottery\n    */\n    function onEndLottery(uint256 _id) public onlyOwner {\n        require(lotteryAvailable[_id].created, \"Lottery not available\");\n        require(block.timestamp > lotteryAvailable[_id].end_time, \"Lottery not finished\");\n\n        uint256 id_politics = lotteryAvailable[_id].id_politics;\n        uint256 randomIndex =  (randomResult % userPlayedLottery[_id].length) + 1;\n        address winner = userPlayedLottery[_id][randomIndex];\n\n        uint256 id = uint256(keccak256(abi.encodePacked(tokenCounter, winner))) % 10000000000;\n        tokenCounter++;\n\n        _safeMint(winner, id);\n\n        PoliticsOwned memory politicOwned =\n            PoliticsOwned({id: id, id_politic: id_politics, owner: winner});\n\n        userOwnedPolitics[winner].push(politicOwned);\n        politicToUser[id] = winner;\n\n        delete lotteryAvailable[_id];\n        delete userPlayedLottery[_id];\n\n        emit EndLottery(_id, winner);\n    }\n\n}\n",
  "sourcePath": "/home/youness/Crypto/PoliticsCollectible/contracts/Lottery.sol",
  "compiler": {
    "name": "solc",
    "version": "0.8.7+commit.e28d00a7.Emscripten.clang"
  },
  "schemaVersion": "3.4.3",
  "updatedAt": "2021-09-03T09:53:27.903Z",
  "devdoc": {
    "author": "Youness Chetoui",
    "kind": "dev",
    "methods": {
      "addQty(uint256,uint256)": {
        "params": {
          "_id": "of PoliticsAvailable and _qty wished"
        }
      },
      "approve(address,uint256)": {
        "details": "See {IERC721-approve}."
      },
      "balanceOf(address)": {
        "details": "See {IERC721-balanceOf}."
      },
      "buy(uint256,string)": {
        "params": {
          "_id": ", _tokenUri of politician available"
        }
      },
      "buyPoliticsForSale(uint256)": {
        "params": {
          "_tokenId": "of politician for sale"
        }
      },
      "cancelSell(uint256)": {
        "params": {
          "_tokenId": "of politician for sale"
        }
      },
      "create(uint256,uint256,uint256,bool)": {
        "params": {
          "_id": ", _qty, _price and _lottery of politician available"
        }
      },
      "createLottery(uint256,uint256,uint256,uint256,uint256)": {
        "params": {
          "_id": ", _id_politics, _end_time, _price, _ticket_available"
        }
      },
      "forSale(uint256,uint256)": {
        "params": {
          "_tokenId": "of politician owned and _price wished"
        }
      },
      "getApproved(uint256)": {
        "details": "See {IERC721-getApproved}."
      },
      "getMyPolitics()": {
        "returns": {
          "_0": "array of struct PoliticsOwned"
        }
      },
      "getPoliticQty(uint256)": {
        "params": {
          "_id": "PoliticsAvailable"
        },
        "returns": {
          "_0": "uint256"
        }
      },
      "isApprovedForAll(address,address)": {
        "details": "See {IERC721-isApprovedForAll}."
      },
      "name()": {
        "details": "See {IERC721Metadata-name}."
      },
      "onERC721Received(address,address,uint256,bytes)": {
        "details": "See {IERC721Receiver-onERC721Received}. Always returns `IERC721Receiver.onERC721Received.selector`."
      },
      "onEndLottery(uint256)": {
        "params": {
          "_id": "of lottery"
        }
      },
      "owner()": {
        "details": "Returns the address of the current owner."
      },
      "ownerOf(uint256)": {
        "details": "See {IERC721-ownerOf}."
      },
      "playLottery(uint256)": {
        "params": {
          "_id": "of lottery"
        }
      },
      "renounceOwnership()": {
        "details": "Leaves the contract without owner. It will not be possible to call `onlyOwner` functions anymore. Can only be called by the current owner. NOTE: Renouncing ownership will leave the contract without an owner, thereby removing any functionality that is only available to the owner."
      },
      "safeTransferFrom(address,address,uint256)": {
        "details": "See {IERC721-safeTransferFrom}."
      },
      "safeTransferFrom(address,address,uint256,bytes)": {
        "details": "See {IERC721-safeTransferFrom}."
      },
      "setApprovalForAll(address,bool)": {
        "details": "See {IERC721-setApprovalForAll}."
      },
      "supportsInterface(bytes4)": {
        "details": "See {IERC165-supportsInterface}."
      },
      "symbol()": {
        "details": "See {IERC721Metadata-symbol}."
      },
      "tokenURI(uint256)": {
        "details": "See {IERC721Metadata-tokenURI}."
      },
      "transferOwnership(address)": {
        "details": "Transfers ownership of the contract to a new account (`newOwner`). Can only be called by the current owner."
      }
    },
    "title": "Base methode of lottery",
    "version": 1
  },
  "userdoc": {
    "kind": "user",
    "methods": {
      "addQty(uint256,uint256)": {
        "notice": "Add quantity for a PoliticsAvailable"
      },
      "buy(uint256,string)": {
        "notice": "Buy politician"
      },
      "buyPoliticsForSale(uint256)": {
        "notice": "Buy politician"
      },
      "cancelSell(uint256)": {
        "notice": "Cancel the sell of politician"
      },
      "create(uint256,uint256,uint256,bool)": {
        "notice": "Create politician"
      },
      "createLottery(uint256,uint256,uint256,uint256,uint256)": {
        "notice": "Create lottery"
      },
      "forSale(uint256,uint256)": {
        "notice": "Up for sale of owned politician"
      },
      "getMyPolitics()": {
        "notice": "Get politician by user"
      },
      "getPoliticQty(uint256)": {
        "notice": "get qty of politician available"
      },
      "getRandomNumber()": {
        "notice": "Requests randomness"
      },
      "onEndLottery(uint256)": {
        "notice": "End lottery"
      },
      "playLottery(uint256)": {
        "notice": "Play lottery"
      },
      "transferFrom(address,address,uint256)": {
        "notice": "Disabled not safe transform"
      }
    },
    "version": 1
  }
}