{
  "contractName": "LotteryFactory",
  "abi": [
    {
      "anonymous": false,
      "inputs": [
        {
          "indexed": true,
          "internalType": "address",
          "name": "owner",
          "type": "address"
        },
        {
          "indexed": true,
          "internalType": "address",
          "name": "approved",
          "type": "address"
        },
        {
          "indexed": true,
          "internalType": "uint256",
          "name": "tokenId",
          "type": "uint256"
        }
      ],
      "name": "Approval",
      "type": "event"
    },
    {
      "anonymous": false,
      "inputs": [
        {
          "indexed": true,
          "internalType": "address",
          "name": "owner",
          "type": "address"
        },
        {
          "indexed": true,
          "internalType": "address",
          "name": "operator",
          "type": "address"
        },
        {
          "indexed": false,
          "internalType": "bool",
          "name": "approved",
          "type": "bool"
        }
      ],
      "name": "ApprovalForAll",
      "type": "event"
    },
    {
      "anonymous": false,
      "inputs": [
        {
          "indexed": true,
          "internalType": "address",
          "name": "previousOwner",
          "type": "address"
        },
        {
          "indexed": true,
          "internalType": "address",
          "name": "newOwner",
          "type": "address"
        }
      ],
      "name": "OwnershipTransferred",
      "type": "event"
    },
    {
      "anonymous": false,
      "inputs": [
        {
          "indexed": true,
          "internalType": "address",
          "name": "from",
          "type": "address"
        },
        {
          "indexed": true,
          "internalType": "address",
          "name": "to",
          "type": "address"
        },
        {
          "indexed": true,
          "internalType": "uint256",
          "name": "tokenId",
          "type": "uint256"
        }
      ],
      "name": "Transfer",
      "type": "event"
    },
    {
      "inputs": [
        {
          "internalType": "uint256",
          "name": "_id",
          "type": "uint256"
        },
        {
          "internalType": "uint256",
          "name": "_qty",
          "type": "uint256"
        }
      ],
      "name": "addQty",
      "outputs": [],
      "stateMutability": "nonpayable",
      "type": "function"
    },
    {
      "inputs": [
        {
          "internalType": "address",
          "name": "to",
          "type": "address"
        },
        {
          "internalType": "uint256",
          "name": "tokenId",
          "type": "uint256"
        }
      ],
      "name": "approve",
      "outputs": [],
      "stateMutability": "nonpayable",
      "type": "function"
    },
    {
      "inputs": [
        {
          "internalType": "address",
          "name": "owner",
          "type": "address"
        }
      ],
      "name": "balanceOf",
      "outputs": [
        {
          "internalType": "uint256",
          "name": "",
          "type": "uint256"
        }
      ],
      "stateMutability": "view",
      "type": "function"
    },
    {
      "inputs": [
        {
          "internalType": "uint256",
          "name": "_id",
          "type": "uint256"
        }
      ],
      "name": "buy",
      "outputs": [],
      "stateMutability": "payable",
      "type": "function"
    },
    {
      "inputs": [
        {
          "internalType": "string",
          "name": "_name",
          "type": "string"
        },
        {
          "internalType": "uint256",
          "name": "_id",
          "type": "uint256"
        },
        {
          "internalType": "uint256",
          "name": "_qty",
          "type": "uint256"
        },
        {
          "internalType": "uint256",
          "name": "_level",
          "type": "uint256"
        },
        {
          "internalType": "uint256",
          "name": "_price",
          "type": "uint256"
        }
      ],
      "name": "createType",
      "outputs": [
        {
          "components": [
            {
              "internalType": "uint256",
              "name": "id",
              "type": "uint256"
            },
            {
              "internalType": "uint256",
              "name": "qty",
              "type": "uint256"
            },
            {
              "internalType": "uint256",
              "name": "level",
              "type": "uint256"
            },
            {
              "internalType": "uint256",
              "name": "price",
              "type": "uint256"
            },
            {
              "internalType": "string",
              "name": "name",
              "type": "string"
            },
            {
              "internalType": "bool",
              "name": "created",
              "type": "bool"
            }
          ],
          "internalType": "struct Collectible.PoliticsAvailable",
          "name": "",
          "type": "tuple"
        }
      ],
      "stateMutability": "nonpayable",
      "type": "function"
    },
    {
      "inputs": [
        {
          "internalType": "uint256",
          "name": "tokenId",
          "type": "uint256"
        }
      ],
      "name": "getApproved",
      "outputs": [
        {
          "internalType": "address",
          "name": "",
          "type": "address"
        }
      ],
      "stateMutability": "view",
      "type": "function"
    },
    {
      "inputs": [],
      "name": "getMyPolitics",
      "outputs": [
        {
          "components": [
            {
              "internalType": "uint256",
              "name": "id",
              "type": "uint256"
            },
            {
              "internalType": "uint256",
              "name": "id_politic",
              "type": "uint256"
            },
            {
              "internalType": "address",
              "name": "owner",
              "type": "address"
            }
          ],
          "internalType": "struct Collectible.PoliticsOwned[]",
          "name": "",
          "type": "tuple[]"
        }
      ],
      "stateMutability": "view",
      "type": "function"
    },
    {
      "inputs": [
        {
          "internalType": "uint256",
          "name": "_id",
          "type": "uint256"
        }
      ],
      "name": "getPolitic",
      "outputs": [
        {
          "components": [
            {
              "internalType": "uint256",
              "name": "id",
              "type": "uint256"
            },
            {
              "internalType": "uint256",
              "name": "qty",
              "type": "uint256"
            },
            {
              "internalType": "uint256",
              "name": "level",
              "type": "uint256"
            },
            {
              "internalType": "uint256",
              "name": "price",
              "type": "uint256"
            },
            {
              "internalType": "string",
              "name": "name",
              "type": "string"
            },
            {
              "internalType": "bool",
              "name": "created",
              "type": "bool"
            }
          ],
          "internalType": "struct Collectible.PoliticsAvailable",
          "name": "",
          "type": "tuple"
        }
      ],
      "stateMutability": "view",
      "type": "function"
    },
    {
      "inputs": [],
      "name": "getPolitics",
      "outputs": [
        {
          "components": [
            {
              "internalType": "uint256",
              "name": "id",
              "type": "uint256"
            },
            {
              "internalType": "uint256",
              "name": "qty",
              "type": "uint256"
            },
            {
              "internalType": "uint256",
              "name": "level",
              "type": "uint256"
            },
            {
              "internalType": "uint256",
              "name": "price",
              "type": "uint256"
            },
            {
              "internalType": "string",
              "name": "name",
              "type": "string"
            },
            {
              "internalType": "bool",
              "name": "created",
              "type": "bool"
            }
          ],
          "internalType": "struct Collectible.PoliticsAvailable[]",
          "name": "",
          "type": "tuple[]"
        }
      ],
      "stateMutability": "view",
      "type": "function"
    },
    {
      "inputs": [
        {
          "internalType": "address",
          "name": "owner",
          "type": "address"
        },
        {
          "internalType": "address",
          "name": "operator",
          "type": "address"
        }
      ],
      "name": "isApprovedForAll",
      "outputs": [
        {
          "internalType": "bool",
          "name": "",
          "type": "bool"
        }
      ],
      "stateMutability": "view",
      "type": "function"
    },
    {
      "inputs": [],
      "name": "name",
      "outputs": [
        {
          "internalType": "string",
          "name": "",
          "type": "string"
        }
      ],
      "stateMutability": "view",
      "type": "function"
    },
    {
      "inputs": [],
      "name": "owner",
      "outputs": [
        {
          "internalType": "address",
          "name": "",
          "type": "address"
        }
      ],
      "stateMutability": "view",
      "type": "function"
    },
    {
      "inputs": [],
      "name": "ownerAddress",
      "outputs": [
        {
          "internalType": "address payable",
          "name": "",
          "type": "address"
        }
      ],
      "stateMutability": "view",
      "type": "function"
    },
    {
      "inputs": [
        {
          "internalType": "uint256",
          "name": "tokenId",
          "type": "uint256"
        }
      ],
      "name": "ownerOf",
      "outputs": [
        {
          "internalType": "address",
          "name": "",
          "type": "address"
        }
      ],
      "stateMutability": "view",
      "type": "function"
    },
    {
      "inputs": [],
      "name": "renounceOwnership",
      "outputs": [],
      "stateMutability": "nonpayable",
      "type": "function"
    },
    {
      "inputs": [
        {
          "internalType": "address",
          "name": "from",
          "type": "address"
        },
        {
          "internalType": "address",
          "name": "to",
          "type": "address"
        },
        {
          "internalType": "uint256",
          "name": "tokenId",
          "type": "uint256"
        }
      ],
      "name": "safeTransferFrom",
      "outputs": [],
      "stateMutability": "nonpayable",
      "type": "function"
    },
    {
      "inputs": [
        {
          "internalType": "address",
          "name": "from",
          "type": "address"
        },
        {
          "internalType": "address",
          "name": "to",
          "type": "address"
        },
        {
          "internalType": "uint256",
          "name": "tokenId",
          "type": "uint256"
        },
        {
          "internalType": "bytes",
          "name": "_data",
          "type": "bytes"
        }
      ],
      "name": "safeTransferFrom",
      "outputs": [],
      "stateMutability": "nonpayable",
      "type": "function"
    },
    {
      "inputs": [
        {
          "internalType": "address",
          "name": "operator",
          "type": "address"
        },
        {
          "internalType": "bool",
          "name": "approved",
          "type": "bool"
        }
      ],
      "name": "setApprovalForAll",
      "outputs": [],
      "stateMutability": "nonpayable",
      "type": "function"
    },
    {
      "inputs": [
        {
          "internalType": "bytes4",
          "name": "interfaceId",
          "type": "bytes4"
        }
      ],
      "name": "supportsInterface",
      "outputs": [
        {
          "internalType": "bool",
          "name": "",
          "type": "bool"
        }
      ],
      "stateMutability": "view",
      "type": "function"
    },
    {
      "inputs": [],
      "name": "symbol",
      "outputs": [
        {
          "internalType": "string",
          "name": "",
          "type": "string"
        }
      ],
      "stateMutability": "view",
      "type": "function"
    },
    {
      "inputs": [
        {
          "internalType": "uint256",
          "name": "tokenId",
          "type": "uint256"
        }
      ],
      "name": "tokenURI",
      "outputs": [
        {
          "internalType": "string",
          "name": "",
          "type": "string"
        }
      ],
      "stateMutability": "view",
      "type": "function"
    },
    {
      "inputs": [
        {
          "internalType": "address",
          "name": "from",
          "type": "address"
        },
        {
          "internalType": "address",
          "name": "to",
          "type": "address"
        },
        {
          "internalType": "uint256",
          "name": "tokenId",
          "type": "uint256"
        }
      ],
      "name": "transferFrom",
      "outputs": [],
      "stateMutability": "nonpayable",
      "type": "function"
    },
    {
      "inputs": [
        {
          "internalType": "address",
          "name": "newOwner",
          "type": "address"
        }
      ],
      "name": "transferOwnership",
      "outputs": [],
      "stateMutability": "nonpayable",
      "type": "function"
    }
  ],
  "bytecode": "0x60806040526001600b553480156200001657600080fd5b506040518060400160405280600b81526020017f506f6c69746963734e66740000000000000000000000000000000000000000008152506040518060400160405280600381526020017f504f4c000000000000000000000000000000000000000000000000000000000081525081600090805190602001906200009b929190620001ec565b508060019080519060200190620000b4929190620001ec565b505050620000d7620000cb6200011e60201b60201c565b6200012660201b60201c565b33600a60006101000a81548173ffffffffffffffffffffffffffffffffffffffff021916908373ffffffffffffffffffffffffffffffffffffffff16021790555062000301565b600033905090565b6000600660009054906101000a900473ffffffffffffffffffffffffffffffffffffffff16905081600660006101000a81548173ffffffffffffffffffffffffffffffffffffffff021916908373ffffffffffffffffffffffffffffffffffffffff1602179055508173ffffffffffffffffffffffffffffffffffffffff168173ffffffffffffffffffffffffffffffffffffffff167f8be0079c531659141344cd1fd0a4f28419497f9722a3daafe3b4186f6b6457e060405160405180910390a35050565b828054620001fa906200029c565b90600052602060002090601f0160209004810192826200021e57600085556200026a565b82601f106200023957805160ff19168380011785556200026a565b828001600101855582156200026a579182015b82811115620002695782518255916020019190600101906200024c565b5b5090506200027991906200027d565b5090565b5b80821115620002985760008160009055506001016200027e565b5090565b60006002820490506001821680620002b557607f821691505b60208210811415620002cc57620002cb620002d2565b5b50919050565b7f4e487b7100000000000000000000000000000000000000000000000000000000600052602260045260246000fd5b61491a80620003116000396000f3fe6080604052600436106101405760003560e01c806385d33436116100b6578063b88d4fde1161006f578063b88d4fde14610470578063b9db1c9814610499578063c87b56dd146104c2578063d96a094a146104ff578063e985e9c51461051b578063f2fde38b1461055857610140565b806385d334361461035e57806386bd5066146103895780638da5cb5b146103c65780638f84aa09146103f157806395d89b411461041c578063a22cb4651461044757610140565b806330f105cd1161010857806330f105cd1461023c57806342842e0e146102675780635ad16b7f146102905780636352211e146102cd57806370a082311461030a578063715018a61461034757610140565b806301ffc9a71461014557806306fdde0314610182578063081812fc146101ad578063095ea7b3146101ea57806323b872dd14610213575b600080fd5b34801561015157600080fd5b5061016c6004803603810190610167919061318e565b610581565b6040516101799190613aa7565b60405180910390f35b34801561018e57600080fd5b50610197610663565b6040516101a49190613ac2565b60405180910390f35b3480156101b957600080fd5b506101d460048036038101906101cf919061327f565b6106f5565b6040516101e191906139e1565b60405180910390f35b3480156101f657600080fd5b50610211600480360381019061020c919061314e565b61077a565b005b34801561021f57600080fd5b5061023a60048036038101906102359190613038565b610892565b005b34801561024857600080fd5b50610251610913565b60405161025e9190613a63565b60405180910390f35b34801561027357600080fd5b5061028e60048036038101906102899190613038565b610ac3565b005b34801561029c57600080fd5b506102b760048036038101906102b2919061327f565b610ae3565b6040516102c49190613d84565b60405180910390f35b3480156102d957600080fd5b506102f460048036038101906102ef919061327f565b610cc4565b60405161030191906139e1565b60405180910390f35b34801561031657600080fd5b50610331600480360381019061032c9190612fcb565b610d76565b60405161033e9190613da6565b60405180910390f35b34801561035357600080fd5b5061035c610e2e565b005b34801561036a57600080fd5b50610373610eb6565b6040516103809190613a85565b60405180910390f35b34801561039557600080fd5b506103b060048036038101906103ab91906131e8565b610fbc565b6040516103bd9190613d84565b60405180910390f35b3480156103d257600080fd5b506103db6111f4565b6040516103e891906139e1565b60405180910390f35b3480156103fd57600080fd5b5061040661121e565b60405161041391906139fc565b60405180910390f35b34801561042857600080fd5b50610431611244565b60405161043e9190613ac2565b60405180910390f35b34801561045357600080fd5b5061046e6004803603810190610469919061310e565b6112d6565b005b34801561047c57600080fd5b506104976004803603810190610492919061308b565b611457565b005b3480156104a557600080fd5b506104c060048036038101906104bb91906132ac565b611865565b005b3480156104ce57600080fd5b506104e960048036038101906104e4919061327f565b611a3e565b6040516104f69190613ac2565b60405180910390f35b6105196004803603810190610514919061327f565b611ae5565b005b34801561052757600080fd5b50610542600480360381019061053d9190612ff8565b611fbb565b60405161054f9190613aa7565b60405180910390f35b34801561056457600080fd5b5061057f600480360381019061057a9190612fcb565b61204f565b005b60007f80ac58cd000000000000000000000000000000000000000000000000000000007bffffffffffffffffffffffffffffffffffffffffffffffffffffffff1916827bffffffffffffffffffffffffffffffffffffffffffffffffffffffff1916148061064c57507f5b5e139f000000000000000000000000000000000000000000000000000000007bffffffffffffffffffffffffffffffffffffffffffffffffffffffff1916827bffffffffffffffffffffffffffffffffffffffffffffffffffffffff1916145b8061065c575061065b82612147565b5b9050919050565b60606000805461067290614115565b80601f016020809104026020016040519081016040528092919081815260200182805461069e90614115565b80156106eb5780601f106106c0576101008083540402835291602001916106eb565b820191906000526020600020905b8154815290600101906020018083116106ce57829003601f168201915b5050505050905090565b6000610700826121b1565b61073f576040517f08c379a000000000000000000000000000000000000000000000000000000000815260040161073690613c64565b60405180910390fd5b6004600083815260200190815260200160002060009054906101000a900473ffffffffffffffffffffffffffffffffffffffff169050919050565b600061078582610cc4565b90508073ffffffffffffffffffffffffffffffffffffffff168373ffffffffffffffffffffffffffffffffffffffff1614156107f6576040517f08c379a00000000000000000000000000000000000000000000000000000000081526004016107ed90613ce4565b60405180910390fd5b8073ffffffffffffffffffffffffffffffffffffffff1661081561221d565b73ffffffffffffffffffffffffffffffffffffffff16148061084457506108438161083e61221d565b611fbb565b5b610883576040517f08c379a000000000000000000000000000000000000000000000000000000000815260040161087a90613bc4565b60405180910390fd5b61088d8383612225565b505050565b61089a61221d565b73ffffffffffffffffffffffffffffffffffffffff166108b86111f4565b73ffffffffffffffffffffffffffffffffffffffff161461090e576040517f08c379a000000000000000000000000000000000000000000000000000000000815260040161090590613c84565b60405180910390fd5b505050565b606061091d61221d565b73ffffffffffffffffffffffffffffffffffffffff1661093b6111f4565b73ffffffffffffffffffffffffffffffffffffffff1614610991576040517f08c379a000000000000000000000000000000000000000000000000000000000815260040161098890613c84565b60405180910390fd5b6007805480602002602001604051908101604052809291908181526020016000905b82821015610aba57838290600052602060002090600602016040518060c001604052908160008201548152602001600182015481526020016002820154815260200160038201548152602001600482018054610a0e90614115565b80601f0160208091040260200160405190810160405280929190818152602001828054610a3a90614115565b8015610a875780601f10610a5c57610100808354040283529160200191610a87565b820191906000526020600020905b815481529060010190602001808311610a6a57829003601f168201915b505050505081526020016005820160009054906101000a900460ff161515151581525050815260200190600101906109b3565b50505050905090565b610ade83838360405180602001604052806000815250611457565b505050565b610aeb612ca8565b610af361221d565b73ffffffffffffffffffffffffffffffffffffffff16610b116111f4565b73ffffffffffffffffffffffffffffffffffffffff1614610b67576040517f08c379a0000000000000000000000000000000000000000000000000000000008152600401610b5e90613c84565b60405180910390fd5b6008600083815260200190815260200160002060050160009054906101000a900460ff16610bca576040517f08c379a0000000000000000000000000000000000000000000000000000000008152600401610bc190613c24565b60405180910390fd5b600860008381526020019081526020016000206040518060c001604052908160008201548152602001600182015481526020016002820154815260200160038201548152602001600482018054610c2090614115565b80601f0160208091040260200160405190810160405280929190818152602001828054610c4c90614115565b8015610c995780601f10610c6e57610100808354040283529160200191610c99565b820191906000526020600020905b815481529060010190602001808311610c7c57829003601f168201915b505050505081526020016005820160009054906101000a900460ff1615151515815250509050919050565b6000806002600084815260200190815260200160002060009054906101000a900473ffffffffffffffffffffffffffffffffffffffff169050600073ffffffffffffffffffffffffffffffffffffffff168173ffffffffffffffffffffffffffffffffffffffff161415610d6d576040517f08c379a0000000000000000000000000000000000000000000000000000000008152600401610d6490613c04565b60405180910390fd5b80915050919050565b60008073ffffffffffffffffffffffffffffffffffffffff168273ffffffffffffffffffffffffffffffffffffffff161415610de7576040517f08c379a0000000000000000000000000000000000000000000000000000000008152600401610dde90613be4565b60405180910390fd5b600360008373ffffffffffffffffffffffffffffffffffffffff1673ffffffffffffffffffffffffffffffffffffffff168152602001908152602001600020549050919050565b610e3661221d565b73ffffffffffffffffffffffffffffffffffffffff16610e546111f4565b73ffffffffffffffffffffffffffffffffffffffff1614610eaa576040517f08c379a0000000000000000000000000000000000000000000000000000000008152600401610ea190613c84565b60405180910390fd5b610eb460006122de565b565b6060600960003373ffffffffffffffffffffffffffffffffffffffff1673ffffffffffffffffffffffffffffffffffffffff168152602001908152602001600020805480602002602001604051908101604052809291908181526020016000905b82821015610fb3578382906000526020600020906003020160405180606001604052908160008201548152602001600182015481526020016002820160009054906101000a900473ffffffffffffffffffffffffffffffffffffffff1673ffffffffffffffffffffffffffffffffffffffff1673ffffffffffffffffffffffffffffffffffffffff168152505081526020019060010190610f17565b50505050905090565b610fc4612ca8565b610fcc61221d565b73ffffffffffffffffffffffffffffffffffffffff16610fea6111f4565b73ffffffffffffffffffffffffffffffffffffffff1614611040576040517f08c379a000000000000000000000000000000000000000000000000000000000815260040161103790613c84565b60405180910390fd5b6008600086815260200190815260200160002060050160009054906101000a900460ff16156110a4576040517f08c379a000000000000000000000000000000000000000000000000000000000815260040161109b90613d24565b60405180910390fd5b60006040518060c001604052808781526020018681526020018581526020018481526020018881526020016001151581525090506007819080600181540180825580915050600190039060005260206000209060060201600090919091909150600082015181600001556020820151816001015560408201518160020155606082015181600301556080820151816004019080519060200190611148929190612ce0565b5060a08201518160050160006101000a81548160ff021916908315150217905550505080600860008881526020019081526020016000206000820151816000015560208201518160010155604082015181600201556060820151816003015560808201518160040190805190602001906111c3929190612ce0565b5060a08201518160050160006101000a81548160ff0219169083151502179055509050508091505095945050505050565b6000600660009054906101000a900473ffffffffffffffffffffffffffffffffffffffff16905090565b600a60009054906101000a900473ffffffffffffffffffffffffffffffffffffffff1681565b60606001805461125390614115565b80601f016020809104026020016040519081016040528092919081815260200182805461127f90614115565b80156112cc5780601f106112a1576101008083540402835291602001916112cc565b820191906000526020600020905b8154815290600101906020018083116112af57829003601f168201915b5050505050905090565b6112de61221d565b73ffffffffffffffffffffffffffffffffffffffff168273ffffffffffffffffffffffffffffffffffffffff16141561134c576040517f08c379a000000000000000000000000000000000000000000000000000000000815260040161134390613b84565b60405180910390fd5b806005600061135961221d565b73ffffffffffffffffffffffffffffffffffffffff1673ffffffffffffffffffffffffffffffffffffffff16815260200190815260200160002060008473ffffffffffffffffffffffffffffffffffffffff1673ffffffffffffffffffffffffffffffffffffffff16815260200190815260200160002060006101000a81548160ff0219169083151502179055508173ffffffffffffffffffffffffffffffffffffffff1661140661221d565b73ffffffffffffffffffffffffffffffffffffffff167f17307eab39ab6107e8899845ad3d59bd9653f200f220920489ca2b5937696c318360405161144b9190613aa7565b60405180910390a35050565b61146861146261221d565b836123a4565b6114a7576040517f08c379a000000000000000000000000000000000000000000000000000000000815260040161149e90613d04565b60405180910390fd5b6114b384848484612482565b6000600960008673ffffffffffffffffffffffffffffffffffffffff1673ffffffffffffffffffffffffffffffffffffffff168152602001908152602001600020805480602002602001604051908101604052809291908181526020016000905b828210156115b0578382906000526020600020906003020160405180606001604052908160008201548152602001600182015481526020016002820160009054906101000a900473ffffffffffffffffffffffffffffffffffffffff1673ffffffffffffffffffffffffffffffffffffffff1673ffffffffffffffffffffffffffffffffffffffff168152505081526020019060010190611514565b505050509050600960008673ffffffffffffffffffffffffffffffffffffffff1673ffffffffffffffffffffffffffffffffffffffff16815260200190815260200160002060006116019190612d66565b60005b815181101561185d5783828281518110611621576116206142ad565b5b6020026020010151600001511461171757600960008773ffffffffffffffffffffffffffffffffffffffff1673ffffffffffffffffffffffffffffffffffffffff168152602001908152602001600020828281518110611684576116836142ad565b5b60200260200101519080600181540180825580915050600190039060005260206000209060030201600090919091909150600082015181600001556020820151816001015560408201518160020160006101000a81548173ffffffffffffffffffffffffffffffffffffffff021916908373ffffffffffffffffffffffffffffffffffffffff160217905550505061184a565b8482828151811061172b5761172a6142ad565b5b60200260200101516040019073ffffffffffffffffffffffffffffffffffffffff16908173ffffffffffffffffffffffffffffffffffffffff1681525050600960008673ffffffffffffffffffffffffffffffffffffffff1673ffffffffffffffffffffffffffffffffffffffff1681526020019081526020016000208282815181106117bb576117ba6142ad565b5b60200260200101519080600181540180825580915050600190039060005260206000209060030201600090919091909150600082015181600001556020820151816001015560408201518160020160006101000a81548173ffffffffffffffffffffffffffffffffffffffff021916908373ffffffffffffffffffffffffffffffffffffffff16021790555050505b808061185590614178565b915050611604565b505050505050565b61186d61221d565b73ffffffffffffffffffffffffffffffffffffffff1661188b6111f4565b73ffffffffffffffffffffffffffffffffffffffff16146118e1576040517f08c379a00000000000000000000000000000000000000000000000000000000081526004016118d890613c84565b60405180910390fd5b60005b600780549050811015611a39578260078281548110611906576119056142ad565b5b90600052602060002090600602016000015414801561194957508160078281548110611935576119346142ad565b5b906000526020600020906006020160010154105b15611a26578160078281548110611963576119626142ad565b5b9060005260206000209060060201600101819055506007818154811061198c5761198b6142ad565b5b9060005260206000209060060201600860008581526020019081526020016000206000820154816000015560018201548160010155600282015481600201556003820154816003015560048201816004019080546119e990614115565b6119f4929190612d8a565b506005820160009054906101000a900460ff168160050160006101000a81548160ff0219169083151502179055509050505b8080611a3190614178565b9150506118e4565b505050565b6060611a49826121b1565b611a88576040517f08c379a0000000000000000000000000000000000000000000000000000000008152600401611a7f90613cc4565b60405180910390fd5b6000611a926124de565b90506000815111611ab25760405180602001604052806000815250611add565b80611abc846124f5565b604051602001611acd929190613991565b6040516020818303038152906040525b915050919050565b6008600082815260200190815260200160002060050160009054906101000a900460ff16611b48576040517f08c379a0000000000000000000000000000000000000000000000000000000008152600401611b3f90613d44565b60405180910390fd5b6000600860008381526020019081526020016000206001015411611ba1576040517f08c379a0000000000000000000000000000000000000000000000000000000008152600401611b9890613b44565b60405180910390fd5b6008600082815260200190815260200160002060030154670de0b6b3a7640000611bcb9190613f95565b3414611c0c576040517f08c379a0000000000000000000000000000000000000000000000000000000008152600401611c0390613d64565b60405180910390fd5b611c14612ca8565b60005b600780549050811015611e51578260078281548110611c3957611c386142ad565b5b9060005260206000209060060201600001541415611e3e5760078181548110611c6557611c646142ad565b5b90600052602060002090600602016040518060c001604052908160008201548152602001600182015481526020016002820154815260200160038201548152602001600482018054611cb690614115565b80601f0160208091040260200160405190810160405280929190818152602001828054611ce290614115565b8015611d2f5780601f10611d0457610100808354040283529160200191611d2f565b820191906000526020600020905b815481529060010190602001808311611d1257829003601f168201915b505050505081526020016005820160009054906101000a900460ff161515151581525050915060078181548110611d6957611d686142ad565b5b90600052602060002090600602016001016000815480929190611d8b906140eb565b919050555060078181548110611da457611da36142ad565b5b906000526020600020906006020160086000858152602001908152602001600020600082015481600001556001820154816001015560028201548160020155600382015481600301556004820181600401908054611e0190614115565b611e0c929190612d8a565b506005820160009054906101000a900460ff168160050160006101000a81548160ff0219169083151502179055509050505b8080611e4990614178565b915050611c17565b5060006402540be400600b5433604051602001611e6f9291906139b5565b6040516020818303038152906040528051906020012060001c611e9291906141ef565b9050600b6000815480929190611ea790614178565b9190505550611eb63382612656565b60006040518060600160405280838152602001846000015181526020013373ffffffffffffffffffffffffffffffffffffffff168152509050600960003373ffffffffffffffffffffffffffffffffffffffff1673ffffffffffffffffffffffffffffffffffffffff168152602001908152602001600020819080600181540180825580915050600190039060005260206000209060030201600090919091909150600082015181600001556020820151816001015560408201518160020160006101000a81548173ffffffffffffffffffffffffffffffffffffffff021916908373ffffffffffffffffffffffffffffffffffffffff160217905550505050505050565b6000600560008473ffffffffffffffffffffffffffffffffffffffff1673ffffffffffffffffffffffffffffffffffffffff16815260200190815260200160002060008373ffffffffffffffffffffffffffffffffffffffff1673ffffffffffffffffffffffffffffffffffffffff16815260200190815260200160002060009054906101000a900460ff16905092915050565b61205761221d565b73ffffffffffffffffffffffffffffffffffffffff166120756111f4565b73ffffffffffffffffffffffffffffffffffffffff16146120cb576040517f08c379a00000000000000000000000000000000000000000000000000000000081526004016120c290613c84565b60405180910390fd5b600073ffffffffffffffffffffffffffffffffffffffff168173ffffffffffffffffffffffffffffffffffffffff16141561213b576040517f08c379a000000000000000000000000000000000000000000000000000000000815260040161213290613b04565b60405180910390fd5b612144816122de565b50565b60007f01ffc9a7000000000000000000000000000000000000000000000000000000007bffffffffffffffffffffffffffffffffffffffffffffffffffffffff1916827bffffffffffffffffffffffffffffffffffffffffffffffffffffffff1916149050919050565b60008073ffffffffffffffffffffffffffffffffffffffff166002600084815260200190815260200160002060009054906101000a900473ffffffffffffffffffffffffffffffffffffffff1673ffffffffffffffffffffffffffffffffffffffff1614159050919050565b600033905090565b816004600083815260200190815260200160002060006101000a81548173ffffffffffffffffffffffffffffffffffffffff021916908373ffffffffffffffffffffffffffffffffffffffff160217905550808273ffffffffffffffffffffffffffffffffffffffff1661229883610cc4565b73ffffffffffffffffffffffffffffffffffffffff167f8c5be1e5ebec7d5bd14f71427d1e84f3dd0314c0f7b2291e5b200ac8c7c3b92560405160405180910390a45050565b6000600660009054906101000a900473ffffffffffffffffffffffffffffffffffffffff16905081600660006101000a81548173ffffffffffffffffffffffffffffffffffffffff021916908373ffffffffffffffffffffffffffffffffffffffff1602179055508173ffffffffffffffffffffffffffffffffffffffff168173ffffffffffffffffffffffffffffffffffffffff167f8be0079c531659141344cd1fd0a4f28419497f9722a3daafe3b4186f6b6457e060405160405180910390a35050565b60006123af826121b1565b6123ee576040517f08c379a00000000000000000000000000000000000000000000000000000000081526004016123e590613ba4565b60405180910390fd5b60006123f983610cc4565b90508073ffffffffffffffffffffffffffffffffffffffff168473ffffffffffffffffffffffffffffffffffffffff16148061246857508373ffffffffffffffffffffffffffffffffffffffff16612450846106f5565b73ffffffffffffffffffffffffffffffffffffffff16145b8061247957506124788185611fbb565b5b91505092915050565b61248d848484612674565b612499848484846128d0565b6124d8576040517f08c379a00000000000000000000000000000000000000000000000000000000081526004016124cf90613ae4565b60405180910390fd5b50505050565b606060405180602001604052806000815250905090565b6060600082141561253d576040518060400160405280600181526020017f30000000000000000000000000000000000000000000000000000000000000008152509050612651565b600082905060005b6000821461256f57808061255890614178565b915050600a826125689190613f64565b9150612545565b60008167ffffffffffffffff81111561258b5761258a6142dc565b5b6040519080825280601f01601f1916602001820160405280156125bd5781602001600182028036833780820191505090505b5090505b6000851461264a576001826125d69190613fef565b9150600a856125e591906141ef565b60306125f19190613f0e565b60f81b818381518110612607576126066142ad565b5b60200101907effffffffffffffffffffffffffffffffffffffffffffffffffffffffffffff1916908160001a905350600a856126439190613f64565b94506125c1565b8093505050505b919050565b612670828260405180602001604052806000815250612a67565b5050565b8273ffffffffffffffffffffffffffffffffffffffff1661269482610cc4565b73ffffffffffffffffffffffffffffffffffffffff16146126ea576040517f08c379a00000000000000000000000000000000000000000000000000000000081526004016126e190613ca4565b60405180910390fd5b600073ffffffffffffffffffffffffffffffffffffffff168273ffffffffffffffffffffffffffffffffffffffff16141561275a576040517f08c379a000000000000000000000000000000000000000000000000000000000815260040161275190613b64565b60405180910390fd5b612765838383612ac2565b612770600082612225565b6001600360008573ffffffffffffffffffffffffffffffffffffffff1673ffffffffffffffffffffffffffffffffffffffff16815260200190815260200160002060008282546127c09190613fef565b925050819055506001600360008473ffffffffffffffffffffffffffffffffffffffff1673ffffffffffffffffffffffffffffffffffffffff16815260200190815260200160002060008282546128179190613f0e565b92505081905550816002600083815260200190815260200160002060006101000a81548173ffffffffffffffffffffffffffffffffffffffff021916908373ffffffffffffffffffffffffffffffffffffffff160217905550808273ffffffffffffffffffffffffffffffffffffffff168473ffffffffffffffffffffffffffffffffffffffff167fddf252ad1be2c89b69c2b068fc378daa952ba7f163c4a11628f55a4df523b3ef60405160405180910390a4505050565b60006128f18473ffffffffffffffffffffffffffffffffffffffff16612ac7565b15612a5a578373ffffffffffffffffffffffffffffffffffffffff1663150b7a0261291a61221d565b8786866040518563ffffffff1660e01b815260040161293c9493929190613a17565b602060405180830381600087803b15801561295657600080fd5b505af192505050801561298757506040513d601f19601f8201168201806040525081019061298491906131bb565b60015b612a0a573d80600081146129b7576040519150601f19603f3d011682016040523d82523d6000602084013e6129bc565b606091505b50600081511415612a02576040517f08c379a00000000000000000000000000000000000000000000000000000000081526004016129f990613ae4565b60405180910390fd5b805181602001fd5b63150b7a0260e01b7bffffffffffffffffffffffffffffffffffffffffffffffffffffffff1916817bffffffffffffffffffffffffffffffffffffffffffffffffffffffff191614915050612a5f565b600190505b949350505050565b612a718383612ada565b612a7e60008484846128d0565b612abd576040517f08c379a0000000000000000000000000000000000000000000000000000000008152600401612ab490613ae4565b60405180910390fd5b505050565b505050565b600080823b905060008111915050919050565b600073ffffffffffffffffffffffffffffffffffffffff168273ffffffffffffffffffffffffffffffffffffffff161415612b4a576040517f08c379a0000000000000000000000000000000000000000000000000000000008152600401612b4190613c44565b60405180910390fd5b612b53816121b1565b15612b93576040517f08c379a0000000000000000000000000000000000000000000000000000000008152600401612b8a90613b24565b60405180910390fd5b612b9f60008383612ac2565b6001600360008473ffffffffffffffffffffffffffffffffffffffff1673ffffffffffffffffffffffffffffffffffffffff1681526020019081526020016000206000828254612bef9190613f0e565b92505081905550816002600083815260200190815260200160002060006101000a81548173ffffffffffffffffffffffffffffffffffffffff021916908373ffffffffffffffffffffffffffffffffffffffff160217905550808273ffffffffffffffffffffffffffffffffffffffff16600073ffffffffffffffffffffffffffffffffffffffff167fddf252ad1be2c89b69c2b068fc378daa952ba7f163c4a11628f55a4df523b3ef60405160405180910390a45050565b6040518060c0016040528060008152602001600081526020016000815260200160008152602001606081526020016000151581525090565b828054612cec90614115565b90600052602060002090601f016020900481019282612d0e5760008555612d55565b82601f10612d2757805160ff1916838001178555612d55565b82800160010185558215612d55579182015b82811115612d54578251825591602001919060010190612d39565b5b509050612d629190612e17565b5090565b5080546000825560030290600052602060002090810190612d879190612e34565b50565b828054612d9690614115565b90600052602060002090601f016020900481019282612db85760008555612e06565b82601f10612dc95780548555612e06565b82800160010185558215612e0657600052602060002091601f016020900482015b82811115612e05578254825591600101919060010190612dea565b5b509050612e139190612e17565b5090565b5b80821115612e30576000816000905550600101612e18565b5090565b5b80821115612e7e5760008082016000905560018201600090556002820160006101000a81549073ffffffffffffffffffffffffffffffffffffffff021916905550600301612e35565b5090565b6000612e95612e9084613de6565b613dc1565b905082815260208101848484011115612eb157612eb0614310565b5b612ebc8482856140a9565b509392505050565b6000612ed7612ed284613e17565b613dc1565b905082815260208101848484011115612ef357612ef2614310565b5b612efe8482856140a9565b509392505050565b600081359050612f1581614888565b92915050565b600081359050612f2a8161489f565b92915050565b600081359050612f3f816148b6565b92915050565b600081519050612f54816148b6565b92915050565b600082601f830112612f6f57612f6e61430b565b5b8135612f7f848260208601612e82565b91505092915050565b600082601f830112612f9d57612f9c61430b565b5b8135612fad848260208601612ec4565b91505092915050565b600081359050612fc5816148cd565b92915050565b600060208284031215612fe157612fe061431a565b5b6000612fef84828501612f06565b91505092915050565b6000806040838503121561300f5761300e61431a565b5b600061301d85828601612f06565b925050602061302e85828601612f06565b9150509250929050565b6000806000606084860312156130515761305061431a565b5b600061305f86828701612f06565b935050602061307086828701612f06565b925050604061308186828701612fb6565b9150509250925092565b600080600080608085870312156130a5576130a461431a565b5b60006130b387828801612f06565b94505060206130c487828801612f06565b93505060406130d587828801612fb6565b925050606085013567ffffffffffffffff8111156130f6576130f5614315565b5b61310287828801612f5a565b91505092959194509250565b600080604083850312156131255761312461431a565b5b600061313385828601612f06565b925050602061314485828601612f1b565b9150509250929050565b600080604083850312156131655761316461431a565b5b600061317385828601612f06565b925050602061318485828601612fb6565b9150509250929050565b6000602082840312156131a4576131a361431a565b5b60006131b284828501612f30565b91505092915050565b6000602082840312156131d1576131d061431a565b5b60006131df84828501612f45565b91505092915050565b600080600080600060a086880312156132045761320361431a565b5b600086013567ffffffffffffffff81111561322257613221614315565b5b61322e88828901612f88565b955050602061323f88828901612fb6565b945050604061325088828901612fb6565b935050606061326188828901612fb6565b925050608061327288828901612fb6565b9150509295509295909350565b6000602082840312156132955761329461431a565b5b60006132a384828501612fb6565b91505092915050565b600080604083850312156132c3576132c261431a565b5b60006132d185828601612fb6565b92505060206132e285828601612fb6565b9150509250929050565b60006132f88383613808565b905092915050565b600061330c838361391a565b60608301905092915050565b61332181614035565b82525050565b61333081614023565b82525050565b61333f81614023565b82525050565b61335661335182614023565b6141c1565b82525050565b600061336782613e68565b6133718185613eae565b93508360208202850161338385613e48565b8060005b858110156133bf57848403895281516133a085826132ec565b94506133ab83613e94565b925060208a01995050600181019050613387565b50829750879550505050505092915050565b60006133dc82613e73565b6133e68185613ebf565b93506133f183613e58565b8060005b838110156134225781516134098882613300565b975061341483613ea1565b9250506001810190506133f5565b5085935050505092915050565b61343881614047565b82525050565b61344781614047565b82525050565b600061345882613e7e565b6134628185613ed0565b93506134728185602086016140b8565b61347b8161431f565b840191505092915050565b600061349182613e89565b61349b8185613ee1565b93506134ab8185602086016140b8565b6134b48161431f565b840191505092915050565b60006134ca82613e89565b6134d48185613ef2565b93506134e48185602086016140b8565b6134ed8161431f565b840191505092915050565b600061350382613e89565b61350d8185613f03565b935061351d8185602086016140b8565b80840191505092915050565b6000613536603283613ef2565b91506135418261433d565b604082019050919050565b6000613559602683613ef2565b91506135648261438c565b604082019050919050565b600061357c601c83613ef2565b9150613587826143db565b602082019050919050565b600061359f602283613ef2565b91506135aa82614404565b604082019050919050565b60006135c2602483613ef2565b91506135cd82614453565b604082019050919050565b60006135e5601983613ef2565b91506135f0826144a2565b602082019050919050565b6000613608602c83613ef2565b9150613613826144cb565b604082019050919050565b600061362b603883613ef2565b91506136368261451a565b604082019050919050565b600061364e602a83613ef2565b915061365982614569565b604082019050919050565b6000613671602983613ef2565b915061367c826145b8565b604082019050919050565b6000613694600d83613ef2565b915061369f82614607565b602082019050919050565b60006136b7602083613ef2565b91506136c282614630565b602082019050919050565b60006136da602c83613ef2565b91506136e582614659565b604082019050919050565b60006136fd602083613ef2565b9150613708826146a8565b602082019050919050565b6000613720602983613ef2565b915061372b826146d1565b604082019050919050565b6000613743602f83613ef2565b915061374e82614720565b604082019050919050565b6000613766602183613ef2565b91506137718261476f565b604082019050919050565b6000613789603183613ef2565b9150613794826147be565b604082019050919050565b60006137ac601183613ef2565b91506137b78261480d565b602082019050919050565b60006137cf601183613ef2565b91506137da82614836565b602082019050919050565b60006137f2601083613ef2565b91506137fd8261485f565b602082019050919050565b600060c083016000830151613820600086018261395c565b506020830151613833602086018261395c565b506040830151613846604086018261395c565b506060830151613859606086018261395c565b50608083015184820360808601526138718282613486565b91505060a083015161388660a086018261342f565b508091505092915050565b600060c0830160008301516138a9600086018261395c565b5060208301516138bc602086018261395c565b5060408301516138cf604086018261395c565b5060608301516138e2606086018261395c565b50608083015184820360808601526138fa8282613486565b91505060a083015161390f60a086018261342f565b508091505092915050565b606082016000820151613930600085018261395c565b506020820151613943602085018261395c565b5060408201516139566040850182613327565b50505050565b6139658161409f565b82525050565b6139748161409f565b82525050565b61398b6139868261409f565b6141e5565b82525050565b600061399d82856134f8565b91506139a982846134f8565b91508190509392505050565b60006139c1828561397a565b6020820191506139d18284613345565b6014820191508190509392505050565b60006020820190506139f66000830184613336565b92915050565b6000602082019050613a116000830184613318565b92915050565b6000608082019050613a2c6000830187613336565b613a396020830186613336565b613a46604083018561396b565b8181036060830152613a58818461344d565b905095945050505050565b60006020820190508181036000830152613a7d818461335c565b905092915050565b60006020820190508181036000830152613a9f81846133d1565b905092915050565b6000602082019050613abc600083018461343e565b92915050565b60006020820190508181036000830152613adc81846134bf565b905092915050565b60006020820190508181036000830152613afd81613529565b9050919050565b60006020820190508181036000830152613b1d8161354c565b9050919050565b60006020820190508181036000830152613b3d8161356f565b9050919050565b60006020820190508181036000830152613b5d81613592565b9050919050565b60006020820190508181036000830152613b7d816135b5565b9050919050565b60006020820190508181036000830152613b9d816135d8565b9050919050565b60006020820190508181036000830152613bbd816135fb565b9050919050565b60006020820190508181036000830152613bdd8161361e565b9050919050565b60006020820190508181036000830152613bfd81613641565b9050919050565b60006020820190508181036000830152613c1d81613664565b9050919050565b60006020820190508181036000830152613c3d81613687565b9050919050565b60006020820190508181036000830152613c5d816136aa565b9050919050565b60006020820190508181036000830152613c7d816136cd565b9050919050565b60006020820190508181036000830152613c9d816136f0565b9050919050565b60006020820190508181036000830152613cbd81613713565b9050919050565b60006020820190508181036000830152613cdd81613736565b9050919050565b60006020820190508181036000830152613cfd81613759565b9050919050565b60006020820190508181036000830152613d1d8161377c565b9050919050565b60006020820190508181036000830152613d3d8161379f565b9050919050565b60006020820190508181036000830152613d5d816137c2565b9050919050565b60006020820190508181036000830152613d7d816137e5565b9050919050565b60006020820190508181036000830152613d9e8184613891565b905092915050565b6000602082019050613dbb600083018461396b565b92915050565b6000613dcb613ddc565b9050613dd78282614147565b919050565b6000604051905090565b600067ffffffffffffffff821115613e0157613e006142dc565b5b613e0a8261431f565b9050602081019050919050565b600067ffffffffffffffff821115613e3257613e316142dc565b5b613e3b8261431f565b9050602081019050919050565b6000819050602082019050919050565b6000819050602082019050919050565b600081519050919050565b600081519050919050565b600081519050919050565b600081519050919050565b6000602082019050919050565b6000602082019050919050565b600082825260208201905092915050565b600082825260208201905092915050565b600082825260208201905092915050565b600082825260208201905092915050565b600082825260208201905092915050565b600081905092915050565b6000613f198261409f565b9150613f248361409f565b9250827fffffffffffffffffffffffffffffffffffffffffffffffffffffffffffffffff03821115613f5957613f58614220565b5b828201905092915050565b6000613f6f8261409f565b9150613f7a8361409f565b925082613f8a57613f8961424f565b5b828204905092915050565b6000613fa08261409f565b9150613fab8361409f565b9250817fffffffffffffffffffffffffffffffffffffffffffffffffffffffffffffffff0483118215151615613fe457613fe3614220565b5b828202905092915050565b6000613ffa8261409f565b91506140058361409f565b92508282101561401857614017614220565b5b828203905092915050565b600061402e8261407f565b9050919050565b60006140408261407f565b9050919050565b60008115159050919050565b60007fffffffff0000000000000000000000000000000000000000000000000000000082169050919050565b600073ffffffffffffffffffffffffffffffffffffffff82169050919050565b6000819050919050565b82818337600083830152505050565b60005b838110156140d65780820151818401526020810190506140bb565b838111156140e5576000848401525b50505050565b60006140f68261409f565b9150600082141561410a57614109614220565b5b600182039050919050565b6000600282049050600182168061412d57607f821691505b602082108114156141415761414061427e565b5b50919050565b6141508261431f565b810181811067ffffffffffffffff8211171561416f5761416e6142dc565b5b80604052505050565b60006141838261409f565b91507fffffffffffffffffffffffffffffffffffffffffffffffffffffffffffffffff8214156141b6576141b5614220565b5b600182019050919050565b60006141cc826141d3565b9050919050565b60006141de82614330565b9050919050565b6000819050919050565b60006141fa8261409f565b91506142058361409f565b9250826142155761421461424f565b5b828206905092915050565b7f4e487b7100000000000000000000000000000000000000000000000000000000600052601160045260246000fd5b7f4e487b7100000000000000000000000000000000000000000000000000000000600052601260045260246000fd5b7f4e487b7100000000000000000000000000000000000000000000000000000000600052602260045260246000fd5b7f4e487b7100000000000000000000000000000000000000000000000000000000600052603260045260246000fd5b7f4e487b7100000000000000000000000000000000000000000000000000000000600052604160045260246000fd5b600080fd5b600080fd5b600080fd5b600080fd5b6000601f19601f8301169050919050565b60008160601b9050919050565b7f4552433732313a207472616e7366657220746f206e6f6e20455243373231526560008201527f63656976657220696d706c656d656e7465720000000000000000000000000000602082015250565b7f4f776e61626c653a206e6577206f776e657220697320746865207a65726f206160008201527f6464726573730000000000000000000000000000000000000000000000000000602082015250565b7f4552433732313a20746f6b656e20616c7265616479206d696e74656400000000600082015250565b7f5468657265206973206e6f206d6f726520706f6c6974696320617661696c616260008201527f6c65000000000000000000000000000000000000000000000000000000000000602082015250565b7f4552433732313a207472616e7366657220746f20746865207a65726f2061646460008201527f7265737300000000000000000000000000000000000000000000000000000000602082015250565b7f4552433732313a20617070726f766520746f2063616c6c657200000000000000600082015250565b7f4552433732313a206f70657261746f7220717565727920666f72206e6f6e657860008201527f697374656e7420746f6b656e0000000000000000000000000000000000000000602082015250565b7f4552433732313a20617070726f76652063616c6c6572206973206e6f74206f7760008201527f6e6572206e6f7220617070726f76656420666f7220616c6c0000000000000000602082015250565b7f4552433732313a2062616c616e636520717565727920666f7220746865207a6560008201527f726f206164647265737300000000000000000000000000000000000000000000602082015250565b7f4552433732313a206f776e657220717565727920666f72206e6f6e657869737460008201527f656e7420746f6b656e0000000000000000000000000000000000000000000000602082015250565b7f436174206e6f7420666f756e6400000000000000000000000000000000000000600082015250565b7f4552433732313a206d696e7420746f20746865207a65726f2061646472657373600082015250565b7f4552433732313a20617070726f76656420717565727920666f72206e6f6e657860008201527f697374656e7420746f6b656e0000000000000000000000000000000000000000602082015250565b7f4f776e61626c653a2063616c6c6572206973206e6f7420746865206f776e6572600082015250565b7f4552433732313a207472616e73666572206f6620746f6b656e2074686174206960008201527f73206e6f74206f776e0000000000000000000000000000000000000000000000602082015250565b7f4552433732314d657461646174613a2055524920717565727920666f72206e6f60008201527f6e6578697374656e7420746f6b656e0000000000000000000000000000000000602082015250565b7f4552433732313a20617070726f76616c20746f2063757272656e74206f776e6560008201527f7200000000000000000000000000000000000000000000000000000000000000602082015250565b7f4552433732313a207472616e736665722063616c6c6572206973206e6f74206f60008201527f776e6572206e6f7220617070726f766564000000000000000000000000000000602082015250565b7f696420616c726561647920696e20757365000000000000000000000000000000600082015250565b7f506f6c69746963206e6f7420666f756e64000000000000000000000000000000600082015250565b7f496e636f727265637420616d6f756e7400000000000000000000000000000000600082015250565b61489181614023565b811461489c57600080fd5b50565b6148a881614047565b81146148b357600080fd5b50565b6148bf81614053565b81146148ca57600080fd5b50565b6148d68161409f565b81146148e157600080fd5b5056fea26469706673582212202f6b7b6b4c140bdbb6b743c1b316e1e83913e7ecd6aba6c89c50e3a1bf5252c264736f6c63430008070033",
  "immutableReferences": {},
  "source": "// SPDX-License-Identifier: MIT\n\npragma solidity ^0.8.0;\nimport \"./Lottery.sol\";\n\n\ncontract LotteryFactory is Lottery {\n}",
  "sourcePath": "/home/youness/Crypto/PoliticsCollectible/contracts/LotteryFactory.sol",
  "compiler": {
    "name": "solc",
    "version": "0.8.7+commit.e28d00a7.Emscripten.clang"
  },
  "schemaVersion": "3.4.3",
  "updatedAt": "2021-08-26T15:36:50.744Z",
  "devdoc": {
    "kind": "dev",
    "methods": {
      "approve(address,uint256)": {
        "details": "See {IERC721-approve}."
      },
      "balanceOf(address)": {
        "details": "See {IERC721-balanceOf}."
      },
      "getApproved(uint256)": {
        "details": "See {IERC721-getApproved}."
      },
      "isApprovedForAll(address,address)": {
        "details": "See {IERC721-isApprovedForAll}."
      },
      "name()": {
        "details": "See {IERC721Metadata-name}."
      },
      "owner()": {
        "details": "Returns the address of the current owner."
      },
      "ownerOf(uint256)": {
        "details": "See {IERC721-ownerOf}."
      },
      "renounceOwnership()": {
        "details": "Leaves the contract without owner. It will not be possible to call `onlyOwner` functions anymore. Can only be called by the current owner. NOTE: Renouncing ownership will leave the contract without an owner, thereby removing any functionality that is only available to the owner."
      },
      "safeTransferFrom(address,address,uint256)": {
        "details": "See {IERC721-safeTransferFrom}."
      },
      "safeTransferFrom(address,address,uint256,bytes)": {
        "details": "See {IERC721-safeTransferFrom}."
      },
      "setApprovalForAll(address,bool)": {
        "details": "See {IERC721-setApprovalForAll}."
      },
      "supportsInterface(bytes4)": {
        "details": "See {IERC165-supportsInterface}."
      },
      "symbol()": {
        "details": "See {IERC721Metadata-symbol}."
      },
      "tokenURI(uint256)": {
        "details": "See {IERC721Metadata-tokenURI}."
      },
      "transferFrom(address,address,uint256)": {
        "details": "See {IERC721-transferFrom}."
      },
      "transferOwnership(address)": {
        "details": "Transfers ownership of the contract to a new account (`newOwner`). Can only be called by the current owner."
      }
    },
    "version": 1
  },
  "userdoc": {
    "kind": "user",
    "methods": {},
    "version": 1
  }
}