{
  "contractName": "PoliticsCollectible",
  "abi": [
    {
      "anonymous": false,
      "inputs": [
        {
          "indexed": true,
          "internalType": "address",
          "name": "owner",
          "type": "address"
        },
        {
          "indexed": true,
          "internalType": "address",
          "name": "approved",
          "type": "address"
        },
        {
          "indexed": true,
          "internalType": "uint256",
          "name": "tokenId",
          "type": "uint256"
        }
      ],
      "name": "Approval",
      "type": "event"
    },
    {
      "anonymous": false,
      "inputs": [
        {
          "indexed": true,
          "internalType": "address",
          "name": "owner",
          "type": "address"
        },
        {
          "indexed": true,
          "internalType": "address",
          "name": "operator",
          "type": "address"
        },
        {
          "indexed": false,
          "internalType": "bool",
          "name": "approved",
          "type": "bool"
        }
      ],
      "name": "ApprovalForAll",
      "type": "event"
    },
    {
      "anonymous": false,
      "inputs": [
        {
          "indexed": false,
          "internalType": "uint256",
          "name": "id",
          "type": "uint256"
        },
        {
          "indexed": false,
          "internalType": "address",
          "name": "buyer",
          "type": "address"
        }
      ],
      "name": "BuyOnSale",
      "type": "event"
    },
    {
      "anonymous": false,
      "inputs": [
        {
          "indexed": false,
          "internalType": "uint256",
          "name": "id",
          "type": "uint256"
        }
      ],
      "name": "CreateLottery",
      "type": "event"
    },
    {
      "anonymous": false,
      "inputs": [
        {
          "indexed": false,
          "internalType": "uint256",
          "name": "id",
          "type": "uint256"
        }
      ],
      "name": "CreatePolitician",
      "type": "event"
    },
    {
      "anonymous": false,
      "inputs": [
        {
          "indexed": false,
          "internalType": "uint256",
          "name": "id",
          "type": "uint256"
        },
        {
          "indexed": false,
          "internalType": "address",
          "name": "owner",
          "type": "address"
        }
      ],
      "name": "CreateSale",
      "type": "event"
    },
    {
      "anonymous": false,
      "inputs": [
        {
          "indexed": false,
          "internalType": "uint256",
          "name": "id",
          "type": "uint256"
        },
        {
          "indexed": false,
          "internalType": "address",
          "name": "winner",
          "type": "address"
        }
      ],
      "name": "EndLottery",
      "type": "event"
    },
    {
      "anonymous": false,
      "inputs": [
        {
          "indexed": true,
          "internalType": "address",
          "name": "previousOwner",
          "type": "address"
        },
        {
          "indexed": true,
          "internalType": "address",
          "name": "newOwner",
          "type": "address"
        }
      ],
      "name": "OwnershipTransferred",
      "type": "event"
    },
    {
      "anonymous": false,
      "inputs": [
        {
          "indexed": false,
          "internalType": "address",
          "name": "owner",
          "type": "address"
        },
        {
          "indexed": false,
          "internalType": "uint256",
          "name": "id",
          "type": "uint256"
        }
      ],
      "name": "PoliticianBuy",
      "type": "event"
    },
    {
      "anonymous": false,
      "inputs": [
        {
          "indexed": false,
          "internalType": "uint256",
          "name": "randomResult",
          "type": "uint256"
        }
      ],
      "name": "RandomNumberCreated",
      "type": "event"
    },
    {
      "anonymous": false,
      "inputs": [
        {
          "indexed": true,
          "internalType": "address",
          "name": "from",
          "type": "address"
        },
        {
          "indexed": true,
          "internalType": "address",
          "name": "to",
          "type": "address"
        },
        {
          "indexed": true,
          "internalType": "uint256",
          "name": "tokenId",
          "type": "uint256"
        }
      ],
      "name": "Transfer",
      "type": "event"
    },
    {
      "anonymous": false,
      "inputs": [
        {
          "indexed": false,
          "internalType": "uint256",
          "name": "id",
          "type": "uint256"
        },
        {
          "indexed": false,
          "internalType": "address",
          "name": "player",
          "type": "address"
        }
      ],
      "name": "UserPlayedLottery",
      "type": "event"
    },
    {
      "inputs": [
        {
          "internalType": "uint256",
          "name": "_id",
          "type": "uint256"
        },
        {
          "internalType": "uint256",
          "name": "_qty",
          "type": "uint256"
        }
      ],
      "name": "addQty",
      "outputs": [],
      "stateMutability": "nonpayable",
      "type": "function"
    },
    {
      "inputs": [
        {
          "internalType": "address",
          "name": "to",
          "type": "address"
        },
        {
          "internalType": "uint256",
          "name": "tokenId",
          "type": "uint256"
        }
      ],
      "name": "approve",
      "outputs": [],
      "stateMutability": "nonpayable",
      "type": "function"
    },
    {
      "inputs": [
        {
          "internalType": "uint256",
          "name": "",
          "type": "uint256"
        }
      ],
      "name": "arrayPoliticiansOnSale",
      "outputs": [
        {
          "internalType": "uint256",
          "name": "",
          "type": "uint256"
        }
      ],
      "stateMutability": "view",
      "type": "function"
    },
    {
      "inputs": [
        {
          "internalType": "address",
          "name": "owner",
          "type": "address"
        }
      ],
      "name": "balanceOf",
      "outputs": [
        {
          "internalType": "uint256",
          "name": "",
          "type": "uint256"
        }
      ],
      "stateMutability": "view",
      "type": "function"
    },
    {
      "inputs": [
        {
          "internalType": "uint256",
          "name": "_id",
          "type": "uint256"
        },
        {
          "internalType": "string",
          "name": "_tokenUri",
          "type": "string"
        }
      ],
      "name": "buy",
      "outputs": [],
      "stateMutability": "payable",
      "type": "function"
    },
    {
      "inputs": [
        {
          "internalType": "uint256",
          "name": "_tokenId",
          "type": "uint256"
        }
      ],
      "name": "buyPoliticsForSale",
      "outputs": [],
      "stateMutability": "payable",
      "type": "function"
    },
    {
      "inputs": [
        {
          "internalType": "uint256",
          "name": "_tokenId",
          "type": "uint256"
        }
      ],
      "name": "cancelSell",
      "outputs": [],
      "stateMutability": "payable",
      "type": "function"
    },
    {
      "inputs": [],
      "name": "contractAddress",
      "outputs": [
        {
          "internalType": "address payable",
          "name": "",
          "type": "address"
        }
      ],
      "stateMutability": "view",
      "type": "function"
    },
    {
      "inputs": [
        {
          "internalType": "uint256",
          "name": "_id",
          "type": "uint256"
        },
        {
          "internalType": "uint256",
          "name": "_price",
          "type": "uint256"
        },
        {
          "internalType": "uint256",
          "name": "_qty",
          "type": "uint256"
        },
        {
          "internalType": "bool",
          "name": "_lottery",
          "type": "bool"
        }
      ],
      "name": "create",
      "outputs": [],
      "stateMutability": "nonpayable",
      "type": "function"
    },
    {
      "inputs": [
        {
          "internalType": "uint256",
          "name": "_id",
          "type": "uint256"
        },
        {
          "internalType": "uint256",
          "name": "_id_politics",
          "type": "uint256"
        },
        {
          "internalType": "uint256",
          "name": "_end_time",
          "type": "uint256"
        },
        {
          "internalType": "uint256",
          "name": "_price",
          "type": "uint256"
        },
        {
          "internalType": "uint256",
          "name": "_ticket_available",
          "type": "uint256"
        }
      ],
      "name": "createLottery",
      "outputs": [],
      "stateMutability": "nonpayable",
      "type": "function"
    },
    {
      "inputs": [
        {
          "internalType": "uint256",
          "name": "_tokenId",
          "type": "uint256"
        },
        {
          "internalType": "uint256",
          "name": "_price",
          "type": "uint256"
        }
      ],
      "name": "forSale",
      "outputs": [],
      "stateMutability": "nonpayable",
      "type": "function"
    },
    {
      "inputs": [
        {
          "internalType": "uint256",
          "name": "tokenId",
          "type": "uint256"
        }
      ],
      "name": "getApproved",
      "outputs": [
        {
          "internalType": "address",
          "name": "",
          "type": "address"
        }
      ],
      "stateMutability": "view",
      "type": "function"
    },
    {
      "inputs": [],
      "name": "getMyPolitics",
      "outputs": [
        {
          "components": [
            {
              "internalType": "uint256",
              "name": "id",
              "type": "uint256"
            },
            {
              "internalType": "uint256",
              "name": "id_politic",
              "type": "uint256"
            },
            {
              "internalType": "address",
              "name": "owner",
              "type": "address"
            }
          ],
          "internalType": "struct Collectible.PoliticsOwned[]",
          "name": "",
          "type": "tuple[]"
        }
      ],
      "stateMutability": "view",
      "type": "function"
    },
    {
      "inputs": [
        {
          "internalType": "uint256",
          "name": "_id",
          "type": "uint256"
        }
      ],
      "name": "getPoliticQty",
      "outputs": [
        {
          "internalType": "uint256",
          "name": "",
          "type": "uint256"
        }
      ],
      "stateMutability": "view",
      "type": "function"
    },
    {
      "inputs": [],
      "name": "getRandomNumber",
      "outputs": [
        {
          "internalType": "bytes32",
          "name": "requestId",
          "type": "bytes32"
        }
      ],
      "stateMutability": "nonpayable",
      "type": "function"
    },
    {
      "inputs": [
        {
          "internalType": "uint256",
          "name": "_id",
          "type": "uint256"
        }
      ],
      "name": "getlotteryAvailableStats",
      "outputs": [
        {
          "internalType": "uint256",
          "name": "",
          "type": "uint256"
        },
        {
          "internalType": "uint256",
          "name": "",
          "type": "uint256"
        }
      ],
      "stateMutability": "view",
      "type": "function"
    },
    {
      "inputs": [
        {
          "internalType": "address",
          "name": "owner",
          "type": "address"
        },
        {
          "internalType": "address",
          "name": "operator",
          "type": "address"
        }
      ],
      "name": "isApprovedForAll",
      "outputs": [
        {
          "internalType": "bool",
          "name": "",
          "type": "bool"
        }
      ],
      "stateMutability": "view",
      "type": "function"
    },
    {
      "inputs": [],
      "name": "name",
      "outputs": [
        {
          "internalType": "string",
          "name": "",
          "type": "string"
        }
      ],
      "stateMutability": "view",
      "type": "function"
    },
    {
      "inputs": [
        {
          "internalType": "address",
          "name": "",
          "type": "address"
        },
        {
          "internalType": "address",
          "name": "",
          "type": "address"
        },
        {
          "internalType": "uint256",
          "name": "",
          "type": "uint256"
        },
        {
          "internalType": "bytes",
          "name": "",
          "type": "bytes"
        }
      ],
      "name": "onERC721Received",
      "outputs": [
        {
          "internalType": "bytes4",
          "name": "",
          "type": "bytes4"
        }
      ],
      "stateMutability": "nonpayable",
      "type": "function"
    },
    {
      "inputs": [
        {
          "internalType": "uint256",
          "name": "_id",
          "type": "uint256"
        }
      ],
      "name": "onEndLottery",
      "outputs": [],
      "stateMutability": "nonpayable",
      "type": "function"
    },
    {
      "inputs": [],
      "name": "owner",
      "outputs": [
        {
          "internalType": "address",
          "name": "",
          "type": "address"
        }
      ],
      "stateMutability": "view",
      "type": "function"
    },
    {
      "inputs": [],
      "name": "ownerAddress",
      "outputs": [
        {
          "internalType": "address payable",
          "name": "",
          "type": "address"
        }
      ],
      "stateMutability": "view",
      "type": "function"
    },
    {
      "inputs": [
        {
          "internalType": "uint256",
          "name": "tokenId",
          "type": "uint256"
        }
      ],
      "name": "ownerOf",
      "outputs": [
        {
          "internalType": "address",
          "name": "",
          "type": "address"
        }
      ],
      "stateMutability": "view",
      "type": "function"
    },
    {
      "inputs": [
        {
          "internalType": "uint256",
          "name": "_id",
          "type": "uint256"
        }
      ],
      "name": "playLottery",
      "outputs": [],
      "stateMutability": "payable",
      "type": "function"
    },
    {
      "inputs": [],
      "name": "rand",
      "outputs": [
        {
          "internalType": "bytes32",
          "name": "",
          "type": "bytes32"
        }
      ],
      "stateMutability": "view",
      "type": "function"
    },
    {
      "inputs": [],
      "name": "randomResult",
      "outputs": [
        {
          "internalType": "uint256",
          "name": "",
          "type": "uint256"
        }
      ],
      "stateMutability": "view",
      "type": "function"
    },
    {
      "inputs": [
        {
          "internalType": "bytes32",
          "name": "requestId",
          "type": "bytes32"
        },
        {
          "internalType": "uint256",
          "name": "randomness",
          "type": "uint256"
        }
      ],
      "name": "rawFulfillRandomness",
      "outputs": [],
      "stateMutability": "nonpayable",
      "type": "function"
    },
    {
      "inputs": [],
      "name": "renounceOwnership",
      "outputs": [],
      "stateMutability": "nonpayable",
      "type": "function"
    },
    {
      "inputs": [
        {
          "internalType": "address",
          "name": "from",
          "type": "address"
        },
        {
          "internalType": "address",
          "name": "to",
          "type": "address"
        },
        {
          "internalType": "uint256",
          "name": "tokenId",
          "type": "uint256"
        }
      ],
      "name": "safeTransferFrom",
      "outputs": [],
      "stateMutability": "nonpayable",
      "type": "function"
    },
    {
      "inputs": [
        {
          "internalType": "address",
          "name": "from",
          "type": "address"
        },
        {
          "internalType": "address",
          "name": "to",
          "type": "address"
        },
        {
          "internalType": "uint256",
          "name": "tokenId",
          "type": "uint256"
        },
        {
          "internalType": "bytes",
          "name": "_data",
          "type": "bytes"
        }
      ],
      "name": "safeTransferFrom",
      "outputs": [],
      "stateMutability": "nonpayable",
      "type": "function"
    },
    {
      "inputs": [
        {
          "internalType": "address",
          "name": "operator",
          "type": "address"
        },
        {
          "internalType": "bool",
          "name": "approved",
          "type": "bool"
        }
      ],
      "name": "setApprovalForAll",
      "outputs": [],
      "stateMutability": "nonpayable",
      "type": "function"
    },
    {
      "inputs": [
        {
          "internalType": "bytes4",
          "name": "interfaceId",
          "type": "bytes4"
        }
      ],
      "name": "supportsInterface",
      "outputs": [
        {
          "internalType": "bool",
          "name": "",
          "type": "bool"
        }
      ],
      "stateMutability": "view",
      "type": "function"
    },
    {
      "inputs": [],
      "name": "symbol",
      "outputs": [
        {
          "internalType": "string",
          "name": "",
          "type": "string"
        }
      ],
      "stateMutability": "view",
      "type": "function"
    },
    {
      "inputs": [
        {
          "internalType": "uint256",
          "name": "tokenId",
          "type": "uint256"
        }
      ],
      "name": "tokenURI",
      "outputs": [
        {
          "internalType": "string",
          "name": "",
          "type": "string"
        }
      ],
      "stateMutability": "view",
      "type": "function"
    },
    {
      "inputs": [
        {
          "internalType": "address",
          "name": "from",
          "type": "address"
        },
        {
          "internalType": "address",
          "name": "to",
          "type": "address"
        },
        {
          "internalType": "uint256",
          "name": "tokenId",
          "type": "uint256"
        }
      ],
      "name": "transferFrom",
      "outputs": [],
      "stateMutability": "nonpayable",
      "type": "function"
    },
    {
      "inputs": [
        {
          "internalType": "address",
          "name": "newOwner",
          "type": "address"
        }
      ],
      "name": "transferOwnership",
      "outputs": [],
      "stateMutability": "nonpayable",
      "type": "function"
    }
  ],
  "bytecode": "0x60c06040526001600f5560056012553480156200001b57600080fd5b50604080518082018252600b81527f506f6c69746963734e667400000000000000000000000000000000000000000060208083019182528351808501909452600384527f504f4c0000000000000000000000000000000000000000000000000000000000908401527fb3dccb4cf7a26f6cf6b120cf5a73875b7bbc655b00000000000000000000000060a0527f01be23585060835e02b77ef475b0cc51aa1e07090000000000000000000000006080528151919291620000de91600191620001cf565b508051620000f4906002906020840190620001cf565b505050620001236200011462000179640100000000026401000000009004565b6401000000006200017d810204565b600d8054600160a060020a03199081163317909155600e8054909116301790557f2ed0feb3e7fd2022120aa84fab1945545a9f2ffc9076fd6156fa96eaff4c131160135567016345785d8a0000601455620002cb565b3390565b60088054600160a060020a03838116600160a060020a0319831681179093556040519116919082907f8be0079c531659141344cd1fd0a4f28419497f9722a3daafe3b4186f6b6457e090600090a35050565b828054620001dd9062000275565b90600052602060002090601f0160209004810192826200020157600085556200024c565b82601f106200021c57805160ff19168380011785556200024c565b828001600101855582156200024c579182015b828111156200024c5782518255916020019190600101906200022f565b506200025a9291506200025e565b5090565b5b808211156200025a57600081556001016200025f565b6002810460018216806200028a57607f821691505b60208210811415620002c5577f4e487b7100000000000000000000000000000000000000000000000000000000600052602260045260246000fd5b50919050565b6080516c01000000000000000000000000900460a0516c010000000000000000000000009004613e296200031f600039600081816119d30152612be801526000818161221d0152612bb90152613e296000f3fe60806040526004361061022c576000357c0100000000000000000000000000000000000000000000000000000000900480638da5cb5b11610135578063b88d4fde116100bd578063de7f55871161008c578063de7f558714610615578063e7e6c81c14610635578063e985e9c514610655578063f2fde38b1461069e578063f6b4dfb4146106be57600080fd5b8063b88d4fde146105a0578063b9db1c98146105c0578063c87b56dd146105e0578063dbdff2c11461060057600080fd5b806394985ddd1161010457806394985ddd1461050357806395d89b4114610523578063a22cb46514610538578063a70fd4d714610558578063b7dc3b181461058d57600080fd5b80638da5cb5b146104855780638f84aa09146104a35780638fedc864146104c3578063935b8d97146104e357600080fd5b80633b3dca76116101b857806354b3efa61161018757806354b3efa6146103ee5780636352211e1461040e57806370a082311461042e578063715018a61461044e57806385d334361461046357600080fd5b80633b3dca761461038157806342619f66146103a557806342842e0e146103bb578063546f9e67146103db57600080fd5b8063081812fc116101ff578063081812fc146102b0578063095ea7b3146102e85780630b2ee7e914610308578063150b7a021461032857806323b872dd1461036157600080fd5b806301ffc9a71461023157806303ddcab81461026657806306fdde031461027b57806307c9cd451461029d575b600080fd5b34801561023d57600080fd5b5061025161024c3660046138d9565b6106de565b60405190151581526020015b60405180910390f35b610279610274366004613913565b61077b565b005b34801561028757600080fd5b50610290610aea565b60405161025d9190613b46565b6102796102ab366004613913565b610b7c565b3480156102bc57600080fd5b506102d06102cb366004613913565b610d27565b604051600160a060020a03909116815260200161025d565b3480156102f457600080fd5b50610279610303366004613870565b610dc3565b34801561031457600080fd5b506102796103233660046139a0565b610efb565b34801561033457600080fd5b506103486103433660046137bd565b611044565b604051600160e060020a0319909116815260200161025d565b34801561036d57600080fd5b5061027961037c366004613781565b61106e565b34801561038d57600080fd5b5061039760165481565b60405190815260200161025d565b3480156103b157600080fd5b5061039760155481565b3480156103c757600080fd5b506102796103d6366004613781565b61109b565b6102796103e9366004613913565b6110b6565b3480156103fa57600080fd5b506102796104093660046138b7565b61136b565b34801561041a57600080fd5b506102d0610429366004613913565b6114af565b34801561043a57600080fd5b50610397610449366004613733565b61153d565b34801561045a57600080fd5b506102796115da565b34801561046f57600080fd5b50610478611613565b60405161025d9190613ae4565b34801561049157600080fd5b50600854600160a060020a03166102d0565b3480156104af57600080fd5b50600d546102d090600160a060020a031681565b3480156104cf57600080fd5b506103976104de366004613913565b6116a0565b3480156104ef57600080fd5b506102796104fe366004613913565b6116c1565b34801561050f57600080fd5b5061027961051e3660046138b7565b6119c8565b34801561052f57600080fd5b50610290611a4d565b34801561054457600080fd5b50610279610553366004613839565b611a5c565b34801561056457600080fd5b50610578610573366004613913565b611b24565b6040805192835260208301919091520161025d565b61027961059b366004613945565b611bef565b3480156105ac57600080fd5b506102796105bb3660046137bd565b611f35565b3480156105cc57600080fd5b506102796105db3660046138b7565b611fc6565b3480156105ec57600080fd5b506102906105fb366004613913565b61203e565b34801561060c57600080fd5b506103976121bc565b34801561062157600080fd5b50610397610630366004613913565b612329565b34801561064157600080fd5b506102796106503660046139e1565b6123a8565b34801561066157600080fd5b5061025161067036600461374e565b600160a060020a03918216600090815260066020908152604080832093909416825291909152205460ff1690565b3480156106aa57600080fd5b506102796106b9366004613733565b612647565b3480156106ca57600080fd5b50600e546102d090600160a060020a031681565b6000600160e060020a031982167f80ac58cd0000000000000000000000000000000000000000000000000000000014806107415750600160e060020a031982167f5b5e139f00000000000000000000000000000000000000000000000000000000145b8061077557507f01ffc9a700000000000000000000000000000000000000000000000000000000600160e060020a03198316145b92915050565b6000818152601860205260409020600301546103e8906107a390670de0b6b3a7640000613c85565b6107ad9190613c71565b34146107d75760405160e560020a62461bcd0281526004016107ce90613c22565b60405180910390fd5b60008181526018602052604090206006015460ff1661083b5760405160e560020a62461bcd02815260206004820152601160248201527f4c6f7474657279206e6f7420666f756e6400000000000000000000000000000060448201526064016107ce565b600081815260186020526040902060020154421061089e5760405160e560020a62461bcd02815260206004820152601560248201527f4c6f7474657279206e6f7420617661696c61626c65000000000000000000000060448201526064016107ce565b6000818152601860205260409020600501546108ff5760405160e560020a62461bcd02815260206004820152601860248201527f4e6f206d6f7265207469636b657420617661696c61626c65000000000000000060448201526064016107ce565b60008181526017602090815260408083208054825181850281018501909352808352919290919083018282801561095f57602002820191906000526020600020905b8154600160a060020a03168152600190910190602001808311610941575b5050505050905060005b8151811015610a025733600160a060020a031682828151811061098e5761098e613d9d565b6020026020010151600160a060020a031614156109f05760405160e560020a62461bcd02815260206004820152601a60248201527f4f6e6c79206f6e65207469636b6574206279206164647265737300000000000060448201526064016107ce565b806109fa81613d3c565b915050610969565b50600d54604051600160a060020a03909116903480156108fc02916000818181858888f19350505050158015610a3c573d6000803e3d6000fd5b5060008281526017602090815260408083208054600181018255908452828420018054600160a060020a0319163317905584835260189091528120600401805491610a8683613d3c565b90915550506000828152601860205260408120600501805491610aa883613ce7565b9091555050604080518381523360208201527f9cc53c1a9ff48c4fe548325ee9a6f7bb7b2b2defb3183e546b6bfd540f286f8291015b60405180910390a15050565b606060018054610af990613cfe565b80601f0160208091040260200160405190810160405280929190818152602001828054610b2590613cfe565b8015610b725780601f10610b4757610100808354040283529160200191610b72565b820191906000526020600020905b815481529060010190602001808311610b5557829003601f168201915b5050505050905090565b600081815260106020526040902060020154600160a060020a03163314610be85760405160e560020a62461bcd02815260206004820152601360248201527f4e6f7420796f757220706f6c6974696369616e0000000000000000000000000060448201526064016107ce565b60125460008281526010602052604081206001015490916064916103e890610c1890670de0b6b3a7640000613c85565b610c229190613c71565b610c2c9190613c85565b610c369190613c71565b9050803414610c5a5760405160e560020a62461bcd0281526004016107ce90613c22565b600d54604051600160a060020a039091169082156108fc029083906000818181858888f19350505050158015610c94573d6000803e3d6000fd5b50600e546040517f42842e0e000000000000000000000000000000000000000000000000000000008152600160a060020a0390911660048201523360248201526044810183905230906342842e0e90606401600060405180830381600087803b158015610d0057600080fd5b505af1158015610d14573d6000803e3d6000fd5b50505050610d238260016126ff565b5050565b6000610d32826127d3565b610da75760405160e560020a62461bcd02815260206004820152602c60248201527f4552433732313a20617070726f76656420717565727920666f72206e6f6e657860448201527f697374656e7420746f6b656e000000000000000000000000000000000000000060648201526084016107ce565b50600090815260056020526040902054600160a060020a031690565b6000610dce826114af565b905080600160a060020a031683600160a060020a03161415610e5b5760405160e560020a62461bcd02815260206004820152602160248201527f4552433732313a20617070726f76616c20746f2063757272656e74206f776e6560448201527f720000000000000000000000000000000000000000000000000000000000000060648201526084016107ce565b33600160a060020a0382161480610e775750610e778133610670565b610eec5760405160e560020a62461bcd02815260206004820152603860248201527f4552433732313a20617070726f76652063616c6c6572206973206e6f74206f7760448201527f6e6572206e6f7220617070726f76656420666f7220616c6c000000000000000060648201526084016107ce565b610ef683836127f0565b505050565b600854600160a060020a03163314610f285760405160e560020a62461bcd0281526004016107ce90613bb6565b600084815260096020526040902060020154610100900460ff1615610f925760405160e560020a62461bcd02815260206004820152601160248201527f696420616c726561647920696e2075736500000000000000000000000000000060448201526064016107ce565b60408051608081018252858152602080820186815284151583850190815260016060850181815260008b8152600b86528781208a9055600990955293869020855181559251908301555160029091018054925115156101000261ff00199215159290921661ffff199093169290921717905590517ff00c522f13522af224c59f918a8375598b0362237c9cc8b4edb44f599cf0f3d6906110359087815260200190565b60405180910390a15050505050565b7f150b7a02000000000000000000000000000000000000000000000000000000005b949350505050565b600854600160a060020a03163314610ef65760405160e560020a62461bcd0281526004016107ce90613bb6565b610ef683838360405180602001604052806000815250611f35565b60008181526010602052604090206002015474010000000000000000000000000000000000000000900460ff166111325760405160e560020a62461bcd02815260206004820152601760248201527f506f6c6974696369616e206e6f7420666f722073616c6500000000000000000060448201526064016107ce565b600081815260106020526040902060020154600160a060020a031633141561119f5760405160e560020a62461bcd02815260206004820152600f60248201527f596f757220706f6c6974696369616e000000000000000000000000000000000060448201526064016107ce565b6000818152601060205260409020600101546103e8906111c790670de0b6b3a7640000613c85565b6111d19190613c71565b34146111f25760405160e560020a62461bcd0281526004016107ce90613c22565b60006064601254346112049190613c85565b61120e9190613c71565b9050600061121c8234613ca4565b600d54604051919250600160a060020a03169083156108fc029084906000818181858888f19350505050158015611257573d6000803e3d6000fd5b50600083815260106020526040808220600201549051600160a060020a039091169183156108fc02918491818181858888f1935050505015801561129f573d6000803e3d6000fd5b50600e546040517f42842e0e000000000000000000000000000000000000000000000000000000008152600160a060020a0390911660048201523360248201526044810184905230906342842e0e90606401600060405180830381600087803b15801561130b57600080fd5b505af115801561131f573d6000803e3d6000fd5b5050505061132e8360016126ff565b604080518481523360208201527fba09fc575b06563e24ebda6a85ecaffa381143e05692b04d0439c33cb68261c5910160405180910390a1505050565b6000828152600c6020526040902054600160a060020a031633146113fa5760405160e560020a62461bcd02815260206004820152602260248201527f596f7520617265206e6f7420746865206f776e6572206f662074686520746f6b60448201527f656e00000000000000000000000000000000000000000000000000000000000060648201526084016107ce565b600e54611412903390600160a060020a03168461109b565b60408051608081018252838152602080820184815233838501908152600160608501818152600089815260109095529590932084518155915182840155516002909101805494511515740100000000000000000000000000000000000000000274ffffffffffffffffffffffffffffffffffffffffff19909516600160a060020a039290921691909117939093179092559061132e9084906126ff565b600081815260036020526040812054600160a060020a0316806107755760405160e560020a62461bcd02815260206004820152602960248201527f4552433732313a206f776e657220717565727920666f72206e6f6e657869737460448201527f656e7420746f6b656e000000000000000000000000000000000000000000000060648201526084016107ce565b6000600160a060020a0382166115be5760405160e560020a62461bcd02815260206004820152602a60248201527f4552433732313a2062616c616e636520717565727920666f7220746865207a6560448201527f726f20616464726573730000000000000000000000000000000000000000000060648201526084016107ce565b50600160a060020a031660009081526004602052604090205490565b600854600160a060020a031633146116075760405160e560020a62461bcd0281526004016107ce90613bb6565b611611600061285e565b565b336000908152600a60209081526040808320805482518185028101850190935280835260609492939192909184015b8282101561169757600084815260209081902060408051606081018252600386029092018054835260018082015484860152600290910154600160a060020a0316918301919091529083529092019101611642565b50505050905090565b601181815481106116b057600080fd5b600091825260209091200154905081565b600854600160a060020a031633146116ee5760405160e560020a62461bcd0281526004016107ce90613bb6565b60008181526018602052604090206006015460ff166117525760405160e560020a62461bcd02815260206004820152601560248201527f4c6f7474657279206e6f7420617661696c61626c65000000000000000000000060448201526064016107ce565b60008181526018602052604090206002015442116117b55760405160e560020a62461bcd02815260206004820152601460248201527f4c6f7474657279206e6f742066696e697368656400000000000000000000000060448201526064016107ce565b60008181526018602090815260408083206001015460179092528220546015549192916117e29190613d57565b6117ed906001613c59565b6000848152601760205260408120805492935090918390811061181257611812613d9d565b6000918252602080832090910154600f54604051600160a060020a0390921694506402540be4009261186792869101918252600160a060020a03166c0100000000000000000000000002602082015260340190565b60408051601f1981840301815291905280516020909101206118899190613d57565b600f8054919250600061189b83613d3c565b91905055506118aa82826128b0565b604080516060810182528281526020808201878152600160a060020a038087168486018181526000828152600a86528781208054600181810183559183528783208951600392830290910190815596518783015592516002968701805491909616600160a060020a031991821617909555898252600c875288822080549095169093179093558b83526018855286832083815591820183905592810182905591820181905560048201819055600582018190556006909101805460ff191690556017909152918220909161197e91906135a1565b60408051878152600160a060020a03851660208201527fa1f5e94be44374b084108775ea10df484c59d9b341260f24da036cadb79db46691015b60405180910390a1505050505050565b33600160a060020a037f00000000000000000000000000000000000000000000000000000000000000001614611a435760405160e560020a62461bcd02815260206004820152601f60248201527f4f6e6c7920565246436f6f7264696e61746f722063616e2066756c66696c6c0060448201526064016107ce565b610d2382826128ca565b606060028054610af990613cfe565b600160a060020a038216331415611ab85760405160e560020a62461bcd02815260206004820152601960248201527f4552433732313a20617070726f766520746f2063616c6c65720000000000000060448201526064016107ce565b336000818152600660209081526040808320600160a060020a03871680855290835292819020805460ff191686151590811790915590519081529192917f17307eab39ab6107e8899845ad3d59bd9653f200f220920489ca2b5937696c31910160405180910390a35050565b60008033600160a060020a0316611b43600854600160a060020a031690565b600160a060020a031614611b6c5760405160e560020a62461bcd0281526004016107ce90613bb6565b60008381526018602052604090206006015460ff16611bd05760405160e560020a62461bcd02815260206004820152601160248201527f4c6f7474657279206e6f7420666f756e6400000000000000000000000000000060448201526064016107ce565b5050600090815260186020526040902060058101546004909101549091565b600082815260096020526040902060020154610100900460ff16611c285760405160e560020a62461bcd0281526004016107ce90613beb565b60008281526009602052604090206002015460ff1615611cb35760405160e560020a62461bcd02815260206004820152602360248201527f506f6c69746963206f6e6c7920617661696c61626c652077697468206c6f747460448201527f657279000000000000000000000000000000000000000000000000000000000060648201526084016107ce565b6000828152600b6020526040902054611d375760405160e560020a62461bcd02815260206004820152602260248201527f5468657265206973206e6f206d6f726520706f6c6974696320617661696c616260448201527f6c6500000000000000000000000000000000000000000000000000000000000060648201526084016107ce565b6000828152600960205260409020600101546103e890611d5f90670de0b6b3a7640000613c85565b611d699190613c71565b3414611d8a5760405160e560020a62461bcd0281526004016107ce90613c22565b6040805160808101825260008082526020820181905291810182905260608101919091526000838152600b60205260408120805491611dc883613ce7565b9091555050600f5460408051602080820193909352336c0100000000000000000000000002818301528151603481830301815260549091019091528051910120600090611e1b906402540be40090613d57565b600f80549192506000611e2d83613d3c565b9091555050600d54604051600160a060020a03909116903480156108fc02916000818181858888f19350505050158015611e6b573d6000803e3d6000fd5b50611e7633826128b0565b611e8081846128ff565b6040805160608101825282815283516020808301918252338385018181526000828152600a84528681208054600180820183559183528583208851600390920201908155955190860155905160029094018054600160a060020a03909516600160a060020a0319958616179055868152600c8352859020805490931681179092558351918252810184905290917f0f1f73114dcf85af6f6506a86f3b42cdc8af0e4d37ca5130270465cd9c3582239101611035565b611f3f338361299c565b611fb45760405160e560020a62461bcd02815260206004820152603160248201527f4552433732313a207472616e736665722063616c6c6572206973206e6f74206f60448201527f776e6572206e6f7220617070726f76656400000000000000000000000000000060648201526084016107ce565b611fc084848484612a96565b50505050565b600854600160a060020a03163314611ff35760405160e560020a62461bcd0281526004016107ce90613bb6565b600082815260096020526040902060020154610100900460ff1661202c5760405160e560020a62461bcd0281526004016107ce90613beb565b6000918252600b602052604090912055565b6060612049826127d3565b6120be5760405160e560020a62461bcd02815260206004820152603160248201527f45524337323155524953746f726167653a2055524920717565727920666f722060448201527f6e6f6e6578697374656e7420746f6b656e00000000000000000000000000000060648201526084016107ce565b600082815260076020526040812080546120d790613cfe565b80601f016020809104026020016040519081016040528092919081815260200182805461210390613cfe565b80156121505780601f1061212557610100808354040283529160200191612150565b820191906000526020600020905b81548152906001019060200180831161213357829003601f168201915b50505050509050600061216e60408051602081019091526000815290565b9050805160001415612181575092915050565b8151156121b357808260405160200161219b929190613a48565b60405160208183030381529060405292505050919050565b61106684612acc565b600854600090600160a060020a031633146121ec5760405160e560020a62461bcd0281526004016107ce90613bb6565b6014546040517f70a082310000000000000000000000000000000000000000000000000000000081523060048201527f0000000000000000000000000000000000000000000000000000000000000000600160a060020a0316906370a082319060240160206040518083038186803b15801561226757600080fd5b505afa15801561227b573d6000803e3d6000fd5b505050506040513d601f19601f8201168201806040525081019061229f919061392c565b10156123165760405160e560020a62461bcd02815260206004820152602b60248201527f4e6f7420656e6f756768204c494e4b202d2066696c6c20636f6e74726163742060448201527f776974682066617563657400000000000000000000000000000000000000000060648201526084016107ce565b612324601354601454612bb5565b905090565b600854600090600160a060020a031633146123595760405160e560020a62461bcd0281526004016107ce90613bb6565b600082815260096020526040902060020154610100900460ff166123925760405160e560020a62461bcd0281526004016107ce90613beb565b506000818152600b60205260409020545b919050565b600854600160a060020a031633146123d55760405160e560020a62461bcd0281526004016107ce90613bb6565b60008481526009602052604090206002015460ff166124395760405160e560020a62461bcd02815260206004820181905260248201527f506f6c69746963206e6f7420617661696c61626c6520696e206c6f747465727960448201526064016107ce565b60008581526018602052604090206006015460ff161561249e5760405160e560020a62461bcd02815260206004820152601560248201527f4c6f747465727920616c7265616479206578697374000000000000000000000060448201526064016107ce565b8242106124f05760405160e560020a62461bcd02815260206004820152601360248201527f456e642074696d6520697320696e20706173740000000000000000000000000060448201526064016107ce565b600082116125435760405160e560020a62461bcd02815260206004820152600a60248201527f507269636520697320300000000000000000000000000000000000000000000060448201526064016107ce565b60328110156125975760405160e560020a62461bcd02815260206004820152601960248201527f5469636b657420617661696c69626c6520756e6465722035300000000000000060448201526064016107ce565b6040805160e08101825286815260208082018781528284018781526060840187815260006080860181815260a08701898152600160c089018181528f855260188952938a90208951815596519087015593516002860155915160038501559051600484015590516005830155516006909101805460ff1916911515919091179055915187815290917f960f4fb18f2af9795686d97891dbd6534865353629cbda12afb278e61819766291016119b8565b600854600160a060020a031633146126745760405160e560020a62461bcd0281526004016107ce90613bb6565b600160a060020a0381166126f35760405160e560020a62461bcd02815260206004820152602660248201527f4f776e61626c653a206e6577206f776e657220697320746865207a65726f206160448201527f646472657373000000000000000000000000000000000000000000000000000060648201526084016107ce565b6126fc8161285e565b50565b801561279d57600082815260106020526040812081815560018101829055600201805474ffffffffffffffffffffffffffffffffffffffffff191690555b601154811015610ef657826011828154811061275b5761275b613d9d565b9060005260206000200154141561278b576011818154811061277f5761277f613d9d565b60009182526020822001555b8061279581613d3c565b91505061273d565b50601180546001810182556000919091527f31ecc21a745e3968a04e9570e4425bc18fa8019c68028196b546d1669c200c680155565b600090815260036020526040902054600160a060020a0316151590565b60008181526005602052604090208054600160a060020a031916600160a060020a0384169081179091558190612825826114af565b600160a060020a03167f8c5be1e5ebec7d5bd14f71427d1e84f3dd0314c0f7b2291e5b200ac8c7c3b92560405160405180910390a45050565b60088054600160a060020a03838116600160a060020a0319831681179093556040519116919082907f8be0079c531659141344cd1fd0a4f28419497f9722a3daafe3b4186f6b6457e090600090a35050565b610d23828260405180602001604052806000815250612d55565b60158190556040518181527f3e03d1f6db9c938103954d9053238ec024c7852bb15999ab2bd58960b2c1919d90602001610ade565b612908826127d3565b61297d5760405160e560020a62461bcd02815260206004820152602e60248201527f45524337323155524953746f726167653a2055524920736574206f66206e6f6e60448201527f6578697374656e7420746f6b656e00000000000000000000000000000000000060648201526084016107ce565b60008281526007602090815260409091208251610ef6928401906135bf565b60006129a7826127d3565b612a1c5760405160e560020a62461bcd02815260206004820152602c60248201527f4552433732313a206f70657261746f7220717565727920666f72206e6f6e657860448201527f697374656e7420746f6b656e000000000000000000000000000000000000000060648201526084016107ce565b6000612a27836114af565b905080600160a060020a031684600160a060020a03161480612a62575083600160a060020a0316612a5784610d27565b600160a060020a0316145b806110665750600160a060020a0380821660009081526006602090815260408083209388168352929052205460ff16611066565b612aa1848484612d8b565b612aad84848484612f69565b611fc05760405160e560020a62461bcd0281526004016107ce90613b59565b6060612ad7826127d3565b612b4c5760405160e560020a62461bcd02815260206004820152602f60248201527f4552433732314d657461646174613a2055524920717565727920666f72206e6f60448201527f6e6578697374656e7420746f6b656e000000000000000000000000000000000060648201526084016107ce565b6000612b6360408051602081019091526000815290565b90506000815111612b835760405180602001604052806000815250612bae565b80612b8d846130a8565b604051602001612b9e929190613a48565b6040516020818303038152906040525b9392505050565b60007f0000000000000000000000000000000000000000000000000000000000000000600160a060020a0316634000aea07f000000000000000000000000000000000000000000000000000000000000000084866000604051602001612c25929190918252602082015260400190565b60408051601f19818403018152908290527c010000000000000000000000000000000000000000000000000000000063ffffffff8616028252612c6c939291600401613ab3565b602060405180830381600087803b158015612c8657600080fd5b505af1158015612c9a573d6000803e3d6000fd5b505050506040513d601f19601f82011682018060405250810190612cbe919061389a565b5060008381526020818152604080832054815180840188905280830185905230606082015260808082018390528351808303909101815260a090910190925281519183019190912086845292909152612d18906001613c59565b6000858152602081815260409182902092909255805180830187905280820184905281518082038301815260609091019091528051910120611066565b612d5f83836131f9565b612d6c6000848484612f69565b610ef65760405160e560020a62461bcd0281526004016107ce90613b59565b82600160a060020a0316612d9e826114af565b600160a060020a031614612e1d5760405160e560020a62461bcd02815260206004820152602960248201527f4552433732313a207472616e73666572206f6620746f6b656e2074686174206960448201527f73206e6f74206f776e000000000000000000000000000000000000000000000060648201526084016107ce565b600160a060020a038216612e9b5760405160e560020a62461bcd028152602060048201526024808201527f4552433732313a207472616e7366657220746f20746865207a65726f2061646460448201527f726573730000000000000000000000000000000000000000000000000000000060648201526084016107ce565b612ea683838361333e565b612eb16000826127f0565b600160a060020a0383166000908152600460205260408120805460019290612eda908490613ca4565b9091555050600160a060020a0382166000908152600460205260408120805460019290612f08908490613c59565b90915550506000818152600360205260408082208054600160a060020a031916600160a060020a0386811691821790925591518493918716917fddf252ad1be2c89b69c2b068fc378daa952ba7f163c4a11628f55a4df523b3ef91a4505050565b6000600160a060020a0384163b156130a0576040517f150b7a02000000000000000000000000000000000000000000000000000000008152600160a060020a0385169063150b7a0290612fc6903390899088908890600401613a77565b602060405180830381600087803b158015612fe057600080fd5b505af1925050508015613010575060408051601f3d908101601f1916820190925261300d918101906138f6565b60015b61306d573d80801561303e576040519150601f19603f3d011682016040523d82523d6000602084013e613043565b606091505b5080516130655760405160e560020a62461bcd0281526004016107ce90613b59565b805181602001fd5b600160e060020a0319167f150b7a0200000000000000000000000000000000000000000000000000000000149050611066565b506001611066565b6060816130e857505060408051808201909152600181527f3000000000000000000000000000000000000000000000000000000000000000602082015290565b8160005b811561311257806130fc81613d3c565b915061310b9050600a83613c71565b91506130ec565b60008167ffffffffffffffff81111561312d5761312d613db6565b6040519080825280601f01601f191660200182016040528015613157576020820181803683370190505b5090505b84156110665761316c600183613ca4565b9150613179600a86613d57565b613184906030613c59565b7f0100000000000000000000000000000000000000000000000000000000000000028183815181106131b8576131b8613d9d565b60200101907effffffffffffffffffffffffffffffffffffffffffffffffffffffffffffff1916908160001a9053506131f2600a86613c71565b945061315b565b600160a060020a0382166132525760405160e560020a62461bcd02815260206004820181905260248201527f4552433732313a206d696e7420746f20746865207a65726f206164647265737360448201526064016107ce565b61325b816127d3565b156132ab5760405160e560020a62461bcd02815260206004820152601c60248201527f4552433732313a20746f6b656e20616c7265616479206d696e7465640000000060448201526064016107ce565b6132b76000838361333e565b600160a060020a03821660009081526004602052604081208054600192906132e0908490613c59565b90915550506000818152600360205260408082208054600160a060020a031916600160a060020a03861690811790915590518392907fddf252ad1be2c89b69c2b068fc378daa952ba7f163c4a11628f55a4df523b3ef908290a45050565b600160a060020a0383166000908152600a6020908152604080832080548251818502810185019093528083529192909190849084015b828210156133c957600084815260209081902060408051606081018252600386029092018054835260018082015484860152600290910154600160a060020a0316918301919091529083529092019101613374565b505050600160a060020a0386166000908152600a602052604081209293506133f2929150613643565b60005b8151811015613570578282828151811061341157613411613d9d565b602002602001015160000151146134af57600160a060020a0385166000908152600a60205260409020825183908390811061344e5761344e613d9d565b6020908102919091018101518254600180820185556000948552938390208251600390920201908155918101519282019290925560409091015160029091018054600160a060020a031916600160a060020a0390921691909117905561355e565b838282815181106134c2576134c2613d9d565b602090810291909101810151600160a060020a039283166040918201529186166000908152600a90915220825183908390811061350157613501613d9d565b6020908102919091018101518254600180820185556000948552938390208251600390920201908155918101519282019290925560409091015160029091018054600160a060020a031916600160a060020a039092169190911790555b8061356881613d3c565b9150506133f5565b50506000908152600c602052604090208054600160a060020a031916600160a060020a039290921691909117905550565b50805460008255906000526020600020908101906126fc9190613664565b8280546135cb90613cfe565b90600052602060002090601f0160209004810192826135ed5760008555613633565b82601f1061360657805160ff1916838001178555613633565b82800160010185558215613633579182015b82811115613633578251825591602001919060010190613618565b5061363f929150613664565b5090565b50805460008255600302906000526020600020908101906126fc9190613679565b5b8082111561363f5760008155600101613665565b5b8082111561363f5760008082556001820155600281018054600160a060020a031916905560030161367a565b600067ffffffffffffffff808411156136c1576136c1613db6565b604051601f8501601f19908116603f011681019082821181831017156136e9576136e9613db6565b8160405280935085815286868601111561370257600080fd5b858560208301376000602087830101525050509392505050565b8035600160a060020a03811681146123a357600080fd5b60006020828403121561374557600080fd5b612bae8261371c565b6000806040838503121561376157600080fd5b61376a8361371c565b91506137786020840161371c565b90509250929050565b60008060006060848603121561379657600080fd5b61379f8461371c565b92506137ad6020850161371c565b9150604084013590509250925092565b600080600080608085870312156137d357600080fd5b6137dc8561371c565b93506137ea6020860161371c565b925060408501359150606085013567ffffffffffffffff81111561380d57600080fd5b8501601f8101871361381e57600080fd5b61382d878235602084016136a6565b91505092959194509250565b6000806040838503121561384c57600080fd5b6138558361371c565b9150602083013561386581613dcf565b809150509250929050565b6000806040838503121561388357600080fd5b61388c8361371c565b946020939093013593505050565b6000602082840312156138ac57600080fd5b8151612bae81613dcf565b600080604083850312156138ca57600080fd5b50508035926020909101359150565b6000602082840312156138eb57600080fd5b8135612bae81613ddd565b60006020828403121561390857600080fd5b8151612bae81613ddd565b60006020828403121561392557600080fd5b5035919050565b60006020828403121561393e57600080fd5b5051919050565b6000806040838503121561395857600080fd5b82359150602083013567ffffffffffffffff81111561397657600080fd5b8301601f8101851361398757600080fd5b613996858235602084016136a6565b9150509250929050565b600080600080608085870312156139b657600080fd5b84359350602085013592506040850135915060608501356139d681613dcf565b939692955090935050565b600080600080600060a086880312156139f957600080fd5b505083359560208501359550604085013594606081013594506080013592509050565b60008151808452613a34816020860160208601613cbb565b601f01601f19169290920160200192915050565b60008351613a5a818460208801613cbb565b835190830190613a6e818360208801613cbb565b01949350505050565b6000600160a060020a03808716835280861660208401525083604083015260806060830152613aa96080830184613a1c565b9695505050505050565b600160a060020a0384168152826020820152606060408201526000613adb6060830184613a1c565b95945050505050565b602080825282518282018190526000919060409081850190868401855b82811015613b39578151805185528681015187860152850151600160a060020a03168585015260609093019290850190600101613b01565b5091979650505050505050565b602081526000612bae6020830184613a1c565b60208082526032908201527f4552433732313a207472616e7366657220746f206e6f6e20455243373231526560408201527f63656976657220696d706c656d656e7465720000000000000000000000000000606082015260800190565b6020808252818101527f4f776e61626c653a2063616c6c6572206973206e6f7420746865206f776e6572604082015260600190565b60208082526011908201527f506f6c69746963206e6f7420666f756e64000000000000000000000000000000604082015260600190565b60208082526010908201527f496e636f727265637420616d6f756e7400000000000000000000000000000000604082015260600190565b60008219821115613c6c57613c6c613d6b565b500190565b600082613c8057613c80613d84565b500490565b6000816000190483118215151615613c9f57613c9f613d6b565b500290565b600082821015613cb657613cb6613d6b565b500390565b60005b83811015613cd6578181015183820152602001613cbe565b83811115611fc05750506000910152565b600081613cf657613cf6613d6b565b506000190190565b600281046001821680613d1257607f821691505b60208210811415613d365760e060020a634e487b7102600052602260045260246000fd5b50919050565b6000600019821415613d5057613d50613d6b565b5060010190565b600082613d6657613d66613d84565b500690565b60e060020a634e487b7102600052601160045260246000fd5b60e060020a634e487b7102600052601260045260246000fd5b60e060020a634e487b7102600052603260045260246000fd5b60e060020a634e487b7102600052604160045260246000fd5b80151581146126fc57600080fd5b600160e060020a0319811681146126fc57600080fdfea264697066735822122040b6653e2d96353d67aea00672f5609eed0f9900e6de13f26ed10d713cc1769664736f6c63430008070033",
  "immutableReferences": {
    "73": [
      {
        "length": 32,
        "start": 8733
      },
      {
        "length": 32,
        "start": 11193
      }
    ],
    "75": [
      {
        "length": 32,
        "start": 6611
      },
      {
        "length": 32,
        "start": 11240
      }
    ]
  },
  "source": "// SPDX-License-Identifier: MIT\n\npragma solidity ^0.8.0;\nimport \"./LotteryUtils.sol\";\n\n/**\n* @title ERC721 collectible based on politicians\n* @author Youness Chetoui\n*/\ncontract PoliticsCollectible is LotteryUtils {\n}\n",
  "sourcePath": "/home/youness/Crypto/PoliticsCollectible/contracts/PoliticsCollectible.sol",
  "compiler": {
    "name": "solc",
    "version": "0.8.7+commit.e28d00a7.Emscripten.clang"
  },
  "schemaVersion": "3.4.3",
  "updatedAt": "2021-09-03T09:53:27.983Z",
  "devdoc": {
    "author": "Youness Chetoui",
    "kind": "dev",
    "methods": {
      "addQty(uint256,uint256)": {
        "params": {
          "_id": "of PoliticsAvailable and _qty wished"
        }
      },
      "approve(address,uint256)": {
        "details": "See {IERC721-approve}."
      },
      "balanceOf(address)": {
        "details": "See {IERC721-balanceOf}."
      },
      "buy(uint256,string)": {
        "params": {
          "_id": ", _tokenUri of politician available"
        }
      },
      "buyPoliticsForSale(uint256)": {
        "params": {
          "_tokenId": "of politician for sale"
        }
      },
      "cancelSell(uint256)": {
        "params": {
          "_tokenId": "of politician for sale"
        }
      },
      "create(uint256,uint256,uint256,bool)": {
        "params": {
          "_id": ", _qty, _price and _lottery of politician available"
        }
      },
      "createLottery(uint256,uint256,uint256,uint256,uint256)": {
        "params": {
          "_id": ", _id_politics, _end_time, _price, _ticket_available"
        }
      },
      "forSale(uint256,uint256)": {
        "params": {
          "_tokenId": "of politician owned and _price wished"
        }
      },
      "getApproved(uint256)": {
        "details": "See {IERC721-getApproved}."
      },
      "getMyPolitics()": {
        "returns": {
          "_0": "array of struct PoliticsOwned"
        }
      },
      "getPoliticQty(uint256)": {
        "params": {
          "_id": "PoliticsAvailable"
        },
        "returns": {
          "_0": "uint256"
        }
      },
      "getlotteryAvailableStats(uint256)": {
        "params": {
          "_id": "of lottery"
        },
        "returns": {
          "_0": "ticket_available, nb_player"
        }
      },
      "isApprovedForAll(address,address)": {
        "details": "See {IERC721-isApprovedForAll}."
      },
      "name()": {
        "details": "See {IERC721Metadata-name}."
      },
      "onERC721Received(address,address,uint256,bytes)": {
        "details": "See {IERC721Receiver-onERC721Received}. Always returns `IERC721Receiver.onERC721Received.selector`."
      },
      "onEndLottery(uint256)": {
        "params": {
          "_id": "of lottery"
        }
      },
      "owner()": {
        "details": "Returns the address of the current owner."
      },
      "ownerOf(uint256)": {
        "details": "See {IERC721-ownerOf}."
      },
      "playLottery(uint256)": {
        "params": {
          "_id": "of lottery"
        }
      },
      "renounceOwnership()": {
        "details": "Leaves the contract without owner. It will not be possible to call `onlyOwner` functions anymore. Can only be called by the current owner. NOTE: Renouncing ownership will leave the contract without an owner, thereby removing any functionality that is only available to the owner."
      },
      "safeTransferFrom(address,address,uint256)": {
        "details": "See {IERC721-safeTransferFrom}."
      },
      "safeTransferFrom(address,address,uint256,bytes)": {
        "details": "See {IERC721-safeTransferFrom}."
      },
      "setApprovalForAll(address,bool)": {
        "details": "See {IERC721-setApprovalForAll}."
      },
      "supportsInterface(bytes4)": {
        "details": "See {IERC165-supportsInterface}."
      },
      "symbol()": {
        "details": "See {IERC721Metadata-symbol}."
      },
      "tokenURI(uint256)": {
        "details": "See {IERC721Metadata-tokenURI}."
      },
      "transferOwnership(address)": {
        "details": "Transfers ownership of the contract to a new account (`newOwner`). Can only be called by the current owner."
      }
    },
    "title": "ERC721 collectible based on politicians",
    "version": 1
  },
  "userdoc": {
    "kind": "user",
    "methods": {
      "addQty(uint256,uint256)": {
        "notice": "Add quantity for a PoliticsAvailable"
      },
      "buy(uint256,string)": {
        "notice": "Buy politician"
      },
      "buyPoliticsForSale(uint256)": {
        "notice": "Buy politician"
      },
      "cancelSell(uint256)": {
        "notice": "Cancel the sell of politician"
      },
      "create(uint256,uint256,uint256,bool)": {
        "notice": "Create politician"
      },
      "createLottery(uint256,uint256,uint256,uint256,uint256)": {
        "notice": "Create lottery"
      },
      "forSale(uint256,uint256)": {
        "notice": "Up for sale of owned politician"
      },
      "getMyPolitics()": {
        "notice": "Get politician by user"
      },
      "getPoliticQty(uint256)": {
        "notice": "get qty of politician available"
      },
      "getRandomNumber()": {
        "notice": "Requests randomness"
      },
      "getlotteryAvailableStats(uint256)": {
        "notice": "Get stats by lottery"
      },
      "onEndLottery(uint256)": {
        "notice": "End lottery"
      },
      "playLottery(uint256)": {
        "notice": "Play lottery"
      },
      "transferFrom(address,address,uint256)": {
        "notice": "Disabled not safe transform"
      }
    },
    "version": 1
  }
}