{
  "contractName": "PoliticsCollectible",
  "abi": [
    {
      "anonymous": false,
      "inputs": [
        {
          "indexed": true,
          "internalType": "address",
          "name": "owner",
          "type": "address"
        },
        {
          "indexed": true,
          "internalType": "address",
          "name": "approved",
          "type": "address"
        },
        {
          "indexed": true,
          "internalType": "uint256",
          "name": "tokenId",
          "type": "uint256"
        }
      ],
      "name": "Approval",
      "type": "event"
    },
    {
      "anonymous": false,
      "inputs": [
        {
          "indexed": true,
          "internalType": "address",
          "name": "owner",
          "type": "address"
        },
        {
          "indexed": true,
          "internalType": "address",
          "name": "operator",
          "type": "address"
        },
        {
          "indexed": false,
          "internalType": "bool",
          "name": "approved",
          "type": "bool"
        }
      ],
      "name": "ApprovalForAll",
      "type": "event"
    },
    {
      "anonymous": false,
      "inputs": [
        {
          "indexed": true,
          "internalType": "address",
          "name": "previousOwner",
          "type": "address"
        },
        {
          "indexed": true,
          "internalType": "address",
          "name": "newOwner",
          "type": "address"
        }
      ],
      "name": "OwnershipTransferred",
      "type": "event"
    },
    {
      "anonymous": false,
      "inputs": [
        {
          "indexed": true,
          "internalType": "address",
          "name": "from",
          "type": "address"
        },
        {
          "indexed": true,
          "internalType": "address",
          "name": "to",
          "type": "address"
        },
        {
          "indexed": true,
          "internalType": "uint256",
          "name": "tokenId",
          "type": "uint256"
        }
      ],
      "name": "Transfer",
      "type": "event"
    },
    {
      "inputs": [
        {
          "internalType": "uint256",
          "name": "_id",
          "type": "uint256"
        },
        {
          "internalType": "uint256",
          "name": "_qty",
          "type": "uint256"
        }
      ],
      "name": "addQty",
      "outputs": [],
      "stateMutability": "nonpayable",
      "type": "function"
    },
    {
      "inputs": [
        {
          "internalType": "address",
          "name": "to",
          "type": "address"
        },
        {
          "internalType": "uint256",
          "name": "tokenId",
          "type": "uint256"
        }
      ],
      "name": "approve",
      "outputs": [],
      "stateMutability": "nonpayable",
      "type": "function"
    },
    {
      "inputs": [
        {
          "internalType": "address",
          "name": "owner",
          "type": "address"
        }
      ],
      "name": "balanceOf",
      "outputs": [
        {
          "internalType": "uint256",
          "name": "",
          "type": "uint256"
        }
      ],
      "stateMutability": "view",
      "type": "function"
    },
    {
      "inputs": [
        {
          "internalType": "uint256",
          "name": "_id",
          "type": "uint256"
        }
      ],
      "name": "buy",
      "outputs": [],
      "stateMutability": "payable",
      "type": "function"
    },
    {
      "inputs": [
        {
          "internalType": "uint256",
          "name": "_tokenId",
          "type": "uint256"
        }
      ],
      "name": "buyPoliticsForSale",
      "outputs": [],
      "stateMutability": "payable",
      "type": "function"
    },
    {
      "inputs": [],
      "name": "contractAddress",
      "outputs": [
        {
          "internalType": "address payable",
          "name": "",
          "type": "address"
        }
      ],
      "stateMutability": "view",
      "type": "function"
    },
    {
      "inputs": [
        {
          "internalType": "string",
          "name": "_name",
          "type": "string"
        },
        {
          "internalType": "uint256",
          "name": "_id",
          "type": "uint256"
        },
        {
          "internalType": "uint256",
          "name": "_qty",
          "type": "uint256"
        },
        {
          "internalType": "uint256",
          "name": "_level",
          "type": "uint256"
        },
        {
          "internalType": "uint256",
          "name": "_price",
          "type": "uint256"
        },
        {
          "internalType": "bool",
          "name": "_lottery",
          "type": "bool"
        }
      ],
      "name": "createType",
      "outputs": [
        {
          "components": [
            {
              "internalType": "uint256",
              "name": "id",
              "type": "uint256"
            },
            {
              "internalType": "uint256",
              "name": "qty",
              "type": "uint256"
            },
            {
              "internalType": "uint256",
              "name": "level",
              "type": "uint256"
            },
            {
              "internalType": "uint256",
              "name": "price",
              "type": "uint256"
            },
            {
              "internalType": "string",
              "name": "name",
              "type": "string"
            },
            {
              "internalType": "bool",
              "name": "lottery",
              "type": "bool"
            },
            {
              "internalType": "bool",
              "name": "created",
              "type": "bool"
            }
          ],
          "internalType": "struct Collectible.PoliticsAvailable",
          "name": "",
          "type": "tuple"
        }
      ],
      "stateMutability": "nonpayable",
      "type": "function"
    },
    {
      "inputs": [
        {
          "internalType": "uint256",
          "name": "_tokenId",
          "type": "uint256"
        },
        {
          "internalType": "uint256",
          "name": "_price",
          "type": "uint256"
        }
      ],
      "name": "forSale",
      "outputs": [],
      "stateMutability": "nonpayable",
      "type": "function"
    },
    {
      "inputs": [
        {
          "internalType": "uint256",
          "name": "tokenId",
          "type": "uint256"
        }
      ],
      "name": "getApproved",
      "outputs": [
        {
          "internalType": "address",
          "name": "",
          "type": "address"
        }
      ],
      "stateMutability": "view",
      "type": "function"
    },
    {
      "inputs": [],
      "name": "getMyPolitics",
      "outputs": [
        {
          "components": [
            {
              "internalType": "uint256",
              "name": "id",
              "type": "uint256"
            },
            {
              "internalType": "uint256",
              "name": "id_politic",
              "type": "uint256"
            },
            {
              "internalType": "address",
              "name": "owner",
              "type": "address"
            }
          ],
          "internalType": "struct Collectible.PoliticsOwned[]",
          "name": "",
          "type": "tuple[]"
        }
      ],
      "stateMutability": "view",
      "type": "function"
    },
    {
      "inputs": [
        {
          "internalType": "uint256",
          "name": "_id",
          "type": "uint256"
        }
      ],
      "name": "getPolitic",
      "outputs": [
        {
          "components": [
            {
              "internalType": "uint256",
              "name": "id",
              "type": "uint256"
            },
            {
              "internalType": "uint256",
              "name": "qty",
              "type": "uint256"
            },
            {
              "internalType": "uint256",
              "name": "level",
              "type": "uint256"
            },
            {
              "internalType": "uint256",
              "name": "price",
              "type": "uint256"
            },
            {
              "internalType": "string",
              "name": "name",
              "type": "string"
            },
            {
              "internalType": "bool",
              "name": "lottery",
              "type": "bool"
            },
            {
              "internalType": "bool",
              "name": "created",
              "type": "bool"
            }
          ],
          "internalType": "struct Collectible.PoliticsAvailable",
          "name": "",
          "type": "tuple"
        }
      ],
      "stateMutability": "view",
      "type": "function"
    },
    {
      "inputs": [],
      "name": "getPolitics",
      "outputs": [
        {
          "components": [
            {
              "internalType": "uint256",
              "name": "id",
              "type": "uint256"
            },
            {
              "internalType": "uint256",
              "name": "qty",
              "type": "uint256"
            },
            {
              "internalType": "uint256",
              "name": "level",
              "type": "uint256"
            },
            {
              "internalType": "uint256",
              "name": "price",
              "type": "uint256"
            },
            {
              "internalType": "string",
              "name": "name",
              "type": "string"
            },
            {
              "internalType": "bool",
              "name": "lottery",
              "type": "bool"
            },
            {
              "internalType": "bool",
              "name": "created",
              "type": "bool"
            }
          ],
          "internalType": "struct Collectible.PoliticsAvailable[]",
          "name": "",
          "type": "tuple[]"
        }
      ],
      "stateMutability": "view",
      "type": "function"
    },
    {
      "inputs": [
        {
          "internalType": "address",
          "name": "owner",
          "type": "address"
        },
        {
          "internalType": "address",
          "name": "operator",
          "type": "address"
        }
      ],
      "name": "isApprovedForAll",
      "outputs": [
        {
          "internalType": "bool",
          "name": "",
          "type": "bool"
        }
      ],
      "stateMutability": "view",
      "type": "function"
    },
    {
      "inputs": [],
      "name": "name",
      "outputs": [
        {
          "internalType": "string",
          "name": "",
          "type": "string"
        }
      ],
      "stateMutability": "view",
      "type": "function"
    },
    {
      "inputs": [],
      "name": "owner",
      "outputs": [
        {
          "internalType": "address",
          "name": "",
          "type": "address"
        }
      ],
      "stateMutability": "view",
      "type": "function"
    },
    {
      "inputs": [],
      "name": "ownerAddress",
      "outputs": [
        {
          "internalType": "address payable",
          "name": "",
          "type": "address"
        }
      ],
      "stateMutability": "view",
      "type": "function"
    },
    {
      "inputs": [
        {
          "internalType": "uint256",
          "name": "tokenId",
          "type": "uint256"
        }
      ],
      "name": "ownerOf",
      "outputs": [
        {
          "internalType": "address",
          "name": "",
          "type": "address"
        }
      ],
      "stateMutability": "view",
      "type": "function"
    },
    {
      "inputs": [],
      "name": "renounceOwnership",
      "outputs": [],
      "stateMutability": "nonpayable",
      "type": "function"
    },
    {
      "inputs": [
        {
          "internalType": "address",
          "name": "from",
          "type": "address"
        },
        {
          "internalType": "address",
          "name": "to",
          "type": "address"
        },
        {
          "internalType": "uint256",
          "name": "tokenId",
          "type": "uint256"
        }
      ],
      "name": "safeTransferFrom",
      "outputs": [],
      "stateMutability": "nonpayable",
      "type": "function"
    },
    {
      "inputs": [
        {
          "internalType": "address",
          "name": "from",
          "type": "address"
        },
        {
          "internalType": "address",
          "name": "to",
          "type": "address"
        },
        {
          "internalType": "uint256",
          "name": "tokenId",
          "type": "uint256"
        },
        {
          "internalType": "bytes",
          "name": "_data",
          "type": "bytes"
        }
      ],
      "name": "safeTransferFrom",
      "outputs": [],
      "stateMutability": "nonpayable",
      "type": "function"
    },
    {
      "inputs": [
        {
          "internalType": "address",
          "name": "operator",
          "type": "address"
        },
        {
          "internalType": "bool",
          "name": "approved",
          "type": "bool"
        }
      ],
      "name": "setApprovalForAll",
      "outputs": [],
      "stateMutability": "nonpayable",
      "type": "function"
    },
    {
      "inputs": [
        {
          "internalType": "bytes4",
          "name": "interfaceId",
          "type": "bytes4"
        }
      ],
      "name": "supportsInterface",
      "outputs": [
        {
          "internalType": "bool",
          "name": "",
          "type": "bool"
        }
      ],
      "stateMutability": "view",
      "type": "function"
    },
    {
      "inputs": [],
      "name": "symbol",
      "outputs": [
        {
          "internalType": "string",
          "name": "",
          "type": "string"
        }
      ],
      "stateMutability": "view",
      "type": "function"
    },
    {
      "inputs": [
        {
          "internalType": "uint256",
          "name": "tokenId",
          "type": "uint256"
        }
      ],
      "name": "tokenURI",
      "outputs": [
        {
          "internalType": "string",
          "name": "",
          "type": "string"
        }
      ],
      "stateMutability": "view",
      "type": "function"
    },
    {
      "inputs": [
        {
          "internalType": "address",
          "name": "from",
          "type": "address"
        },
        {
          "internalType": "address",
          "name": "to",
          "type": "address"
        },
        {
          "internalType": "uint256",
          "name": "tokenId",
          "type": "uint256"
        }
      ],
      "name": "transferFrom",
      "outputs": [],
      "stateMutability": "nonpayable",
      "type": "function"
    },
    {
      "inputs": [
        {
          "internalType": "address",
          "name": "newOwner",
          "type": "address"
        }
      ],
      "name": "transferOwnership",
      "outputs": [],
      "stateMutability": "nonpayable",
      "type": "function"
    },
    {
      "inputs": [
        {
          "internalType": "uint256",
          "name": "_id",
          "type": "uint256"
        }
      ],
      "name": "you",
      "outputs": [
        {
          "internalType": "uint256",
          "name": "",
          "type": "uint256"
        }
      ],
      "stateMutability": "view",
      "type": "function"
    }
  ],
  "bytecode": "0x60806040526001600d556005600f553480156200001b57600080fd5b506040518060400160405280600b81526020017f506f6c69746963734e66740000000000000000000000000000000000000000008152506040518060400160405280600381526020017f504f4c00000000000000000000000000000000000000000000000000000000008152508160009080519060200190620000a092919062000232565b508060019080519060200190620000b992919062000232565b505050620000dc620000d06200016460201b60201c565b6200016c60201b60201c565b33600b60006101000a81548173ffffffffffffffffffffffffffffffffffffffff021916908373ffffffffffffffffffffffffffffffffffffffff16021790555030600c60006101000a81548173ffffffffffffffffffffffffffffffffffffffff021916908373ffffffffffffffffffffffffffffffffffffffff16021790555062000347565b600033905090565b6000600660009054906101000a900473ffffffffffffffffffffffffffffffffffffffff16905081600660006101000a81548173ffffffffffffffffffffffffffffffffffffffff021916908373ffffffffffffffffffffffffffffffffffffffff1602179055508173ffffffffffffffffffffffffffffffffffffffff168173ffffffffffffffffffffffffffffffffffffffff167f8be0079c531659141344cd1fd0a4f28419497f9722a3daafe3b4186f6b6457e060405160405180910390a35050565b8280546200024090620002e2565b90600052602060002090601f016020900481019282620002645760008555620002b0565b82601f106200027f57805160ff1916838001178555620002b0565b82800160010185558215620002b0579182015b82811115620002af57825182559160200191906001019062000292565b5b509050620002bf9190620002c3565b5090565b5b80821115620002de576000816000905550600101620002c4565b5090565b60006002820490506001821680620002fb57607f821691505b6020821081141562000312576200031162000318565b5b50919050565b7f4e487b7100000000000000000000000000000000000000000000000000000000600052602260045260246000fd5b615b6b80620003576000396000f3fe60806040526004361061019c5760003560e01c8063715018a6116100ec578063b88d4fde1161008a578063d96a094a11610064578063d96a094a146105dd578063e985e9c5146105f9578063f2fde38b14610636578063f6b4dfb41461065f5761019c565b8063b88d4fde1461054e578063b9db1c9814610577578063c87b56dd146105a05761019c565b80638f84aa09116100c65780638f84aa091461049257806395d89b41146104bd578063a22cb465146104e8578063b87f0cd2146105115761019c565b8063715018a61461042557806385d334361461043c5780638da5cb5b146104675761019c565b80633b27f0821161015957806354b3efa61161013357806354b3efa6146103455780635ad16b7f1461036e5780636352211e146103ab57806370a08231146103e85761019c565b80633b27f082146102c357806342842e0e14610300578063546f9e67146103295761019c565b806301ffc9a7146101a157806306fdde03146101de578063081812fc14610209578063095ea7b31461024657806323b872dd1461026f57806330f105cd14610298575b600080fd5b3480156101ad57600080fd5b506101c860048036038101906101c39190614283565b61068a565b6040516101d59190614c1a565b60405180910390f35b3480156101ea57600080fd5b506101f361076c565b6040516102009190614c35565b60405180910390f35b34801561021557600080fd5b50610230600480360381019061022b9190614386565b6107fe565b60405161023d9190614b54565b60405180910390f35b34801561025257600080fd5b5061026d60048036038101906102689190614243565b610883565b005b34801561027b57600080fd5b506102966004803603810190610291919061412d565b61099b565b005b3480156102a457600080fd5b506102ad610a1c565b6040516102ba9190614bd6565b60405180910390f35b3480156102cf57600080fd5b506102ea60048036038101906102e59190614386565b610be7565b6040516102f79190614f59565b60405180910390f35b34801561030c57600080fd5b506103276004803603810190610322919061412d565b610c27565b005b610343600480360381019061033e9190614386565b610c47565b005b34801561035157600080fd5b5061036c600480360381019061036791906143b3565b61130b565b005b34801561037a57600080fd5b5061039560048036038101906103909190614386565b611952565b6040516103a29190614f37565b60405180910390f35b3480156103b757600080fd5b506103d260048036038101906103cd9190614386565b611b4e565b6040516103df9190614b54565b60405180910390f35b3480156103f457600080fd5b5061040f600480360381019061040a91906140c0565b611c00565b60405161041c9190614f59565b60405180910390f35b34801561043157600080fd5b5061043a611cb8565b005b34801561044857600080fd5b50610451611d40565b60405161045e9190614bf8565b60405180910390f35b34801561047357600080fd5b5061047c611e46565b6040516104899190614b54565b60405180910390f35b34801561049e57600080fd5b506104a7611e70565b6040516104b49190614b6f565b60405180910390f35b3480156104c957600080fd5b506104d2611e96565b6040516104df9190614c35565b60405180910390f35b3480156104f457600080fd5b5061050f600480360381019061050a9190614203565b611f28565b005b34801561051d57600080fd5b50610538600480360381019061053391906142dd565b6120a9565b6040516105459190614f37565b60405180910390f35b34801561055a57600080fd5b5061057560048036038101906105709190614180565b61232a565b005b34801561058357600080fd5b5061059e600480360381019061059991906143b3565b61278a565b005b3480156105ac57600080fd5b506105c760048036038101906105c29190614386565b612990565b6040516105d49190614c35565b60405180910390f35b6105f760048036038101906105f29190614386565b612a37565b005b34801561060557600080fd5b50610620600480360381019061061b91906140ed565b613081565b60405161062d9190614c1a565b60405180910390f35b34801561064257600080fd5b5061065d600480360381019061065891906140c0565b613115565b005b34801561066b57600080fd5b5061067461320d565b6040516106819190614b6f565b60405180910390f35b60007f80ac58cd000000000000000000000000000000000000000000000000000000007bffffffffffffffffffffffffffffffffffffffffffffffffffffffff1916827bffffffffffffffffffffffffffffffffffffffffffffffffffffffff1916148061075557507f5b5e139f000000000000000000000000000000000000000000000000000000007bffffffffffffffffffffffffffffffffffffffffffffffffffffffff1916827bffffffffffffffffffffffffffffffffffffffffffffffffffffffff1916145b80610765575061076482613233565b5b9050919050565b60606000805461077b906152c8565b80601f01602080910402602001604051908101604052809291908181526020018280546107a7906152c8565b80156107f45780601f106107c9576101008083540402835291602001916107f4565b820191906000526020600020905b8154815290600101906020018083116107d757829003601f168201915b5050505050905090565b60006108098261329d565b610848576040517f08c379a000000000000000000000000000000000000000000000000000000000815260040161083f90614df7565b60405180910390fd5b6004600083815260200190815260200160002060009054906101000a900473ffffffffffffffffffffffffffffffffffffffff169050919050565b600061088e82611b4e565b90508073ffffffffffffffffffffffffffffffffffffffff168373ffffffffffffffffffffffffffffffffffffffff1614156108ff576040517f08c379a00000000000000000000000000000000000000000000000000000000081526004016108f690614e77565b60405180910390fd5b8073ffffffffffffffffffffffffffffffffffffffff1661091e613309565b73ffffffffffffffffffffffffffffffffffffffff16148061094d575061094c81610947613309565b613081565b5b61098c576040517f08c379a000000000000000000000000000000000000000000000000000000000815260040161098390614d77565b60405180910390fd5b6109968383613311565b505050565b6109a3613309565b73ffffffffffffffffffffffffffffffffffffffff166109c1611e46565b73ffffffffffffffffffffffffffffffffffffffff1614610a17576040517f08c379a0000000000000000000000000000000000000000000000000000000008152600401610a0e90614e17565b60405180910390fd5b505050565b6060610a26613309565b73ffffffffffffffffffffffffffffffffffffffff16610a44611e46565b73ffffffffffffffffffffffffffffffffffffffff1614610a9a576040517f08c379a0000000000000000000000000000000000000000000000000000000008152600401610a9190614e17565b60405180910390fd5b6007805480602002602001604051908101604052809291908181526020016000905b82821015610bde57838290600052602060002090600602016040518060e001604052908160008201548152602001600182015481526020016002820154815260200160038201548152602001600482018054610b17906152c8565b80601f0160208091040260200160405190810160405280929190818152602001828054610b43906152c8565b8015610b905780601f10610b6557610100808354040283529160200191610b90565b820191906000526020600020905b815481529060010190602001808311610b7357829003601f168201915b505050505081526020016005820160009054906101000a900460ff161515151581526020016005820160019054906101000a900460ff16151515158152505081526020019060010190610abc565b50505050905090565b6000678ac7230489e800006127106008600085815260200190815260200160002060030154610c169190615117565b610c209190615148565b9050919050565b610c428383836040518060200160405280600081525061232a565b505050565b600e600082815260200190815260200160002060020160149054906101000a900460ff16610caa576040517f08c379a0000000000000000000000000000000000000000000000000000000008152600401610ca190614c97565b60405180910390fd5b678ac7230489e80000612710600e600084815260200190815260200160002060010154610cd79190615117565b610ce19190615148565b3414610d22576040517f08c379a0000000000000000000000000000000000000000000000000000000008152600401610d1990614f17565b60405180910390fd5b60006064600f5434610d349190615148565b610d3e9190615117565b905060008134610d4e91906151a2565b9050600b60009054906101000a900473ffffffffffffffffffffffffffffffffffffffff1673ffffffffffffffffffffffffffffffffffffffff166108fc839081150290604051600060405180830381858888f19350505050158015610db8573d6000803e3d6000fd5b50600e600084815260200190815260200160002060020160009054906101000a900473ffffffffffffffffffffffffffffffffffffffff1673ffffffffffffffffffffffffffffffffffffffff166108fc829081150290604051600060405180830381858888f19350505050158015610e35573d6000803e3d6000fd5b50610e63600c60009054906101000a900473ffffffffffffffffffffffffffffffffffffffff163385610c27565b600e600084815260200190815260200160002060008082016000905560018201600090556002820160006101000a81549073ffffffffffffffffffffffffffffffffffffffff02191690556002820160146101000a81549060ff02191690555050600060096000600c60009054906101000a900473ffffffffffffffffffffffffffffffffffffffff1673ffffffffffffffffffffffffffffffffffffffff1673ffffffffffffffffffffffffffffffffffffffff168152602001908152602001600020805480602002602001604051908101604052809291908181526020016000905b82821015610fe3578382906000526020600020906003020160405180606001604052908160008201548152602001600182015481526020016002820160009054906101000a900473ffffffffffffffffffffffffffffffffffffffff1673ffffffffffffffffffffffffffffffffffffffff1673ffffffffffffffffffffffffffffffffffffffff168152505081526020019060010190610f47565b50505050905060096000600c60009054906101000a900473ffffffffffffffffffffffffffffffffffffffff1673ffffffffffffffffffffffffffffffffffffffff1673ffffffffffffffffffffffffffffffffffffffff16815260200190815260200160002060006110569190613d94565b60005b81518110156112b2578482828151811061107657611075615460565b5b6020026020010151600001511461116c57600960003373ffffffffffffffffffffffffffffffffffffffff1673ffffffffffffffffffffffffffffffffffffffff1681526020019081526020016000208282815181106110d9576110d8615460565b5b60200260200101519080600181540180825580915050600190039060005260206000209060030201600090919091909150600082015181600001556020820151816001015560408201518160020160006101000a81548173ffffffffffffffffffffffffffffffffffffffff021916908373ffffffffffffffffffffffffffffffffffffffff160217905550505061129f565b338282815181106111805761117f615460565b5b60200260200101516040019073ffffffffffffffffffffffffffffffffffffffff16908173ffffffffffffffffffffffffffffffffffffffff1681525050600960003373ffffffffffffffffffffffffffffffffffffffff1673ffffffffffffffffffffffffffffffffffffffff1681526020019081526020016000208282815181106112105761120f615460565b5b60200260200101519080600181540180825580915050600190039060005260206000209060030201600090919091909150600082015181600001556020820151816001015560408201518160020160006101000a81548173ffffffffffffffffffffffffffffffffffffffff021916908373ffffffffffffffffffffffffffffffffffffffff16021790555050505b80806112aa9061532b565b915050611059565b5033600a600086815260200190815260200160002060006101000a81548173ffffffffffffffffffffffffffffffffffffffff021916908373ffffffffffffffffffffffffffffffffffffffff16021790555050505050565b3373ffffffffffffffffffffffffffffffffffffffff16600a600084815260200190815260200160002060009054906101000a900473ffffffffffffffffffffffffffffffffffffffff1673ffffffffffffffffffffffffffffffffffffffff16146113ac576040517f08c379a00000000000000000000000000000000000000000000000000000000081526004016113a390614e97565b60405180910390fd5b6113d933600c60009054906101000a900473ffffffffffffffffffffffffffffffffffffffff1684610c27565b600060405180608001604052808481526020018381526020013373ffffffffffffffffffffffffffffffffffffffff16815260200160011515815250905080600e6000858152602001908152602001600020600082015181600001556020820151816001015560408201518160020160006101000a81548173ffffffffffffffffffffffffffffffffffffffff021916908373ffffffffffffffffffffffffffffffffffffffff16021790555060608201518160020160146101000a81548160ff0219169083151502179055509050506000600960003373ffffffffffffffffffffffffffffffffffffffff1673ffffffffffffffffffffffffffffffffffffffff168152602001908152602001600020805480602002602001604051908101604052809291908181526020016000905b828210156115a6578382906000526020600020906003020160405180606001604052908160008201548152602001600182015481526020016002820160009054906101000a900473ffffffffffffffffffffffffffffffffffffffff1673ffffffffffffffffffffffffffffffffffffffff1673ffffffffffffffffffffffffffffffffffffffff16815250508152602001906001019061150a565b505050509050600960003373ffffffffffffffffffffffffffffffffffffffff1673ffffffffffffffffffffffffffffffffffffffff16815260200190815260200160002060006115f79190613d94565b60005b8151811015611897578482828151811061161757611616615460565b5b6020026020010151600001511461170d57600960003373ffffffffffffffffffffffffffffffffffffffff1673ffffffffffffffffffffffffffffffffffffffff16815260200190815260200160002082828151811061167a57611679615460565b5b60200260200101519080600181540180825580915050600190039060005260206000209060030201600090919091909150600082015181600001556020820151816001015560408201518160020160006101000a81548173ffffffffffffffffffffffffffffffffffffffff021916908373ffffffffffffffffffffffffffffffffffffffff1602179055505050611884565b600c60009054906101000a900473ffffffffffffffffffffffffffffffffffffffff1682828151811061174357611742615460565b5b60200260200101516040019073ffffffffffffffffffffffffffffffffffffffff16908173ffffffffffffffffffffffffffffffffffffffff168152505060096000600c60009054906101000a900473ffffffffffffffffffffffffffffffffffffffff1673ffffffffffffffffffffffffffffffffffffffff1673ffffffffffffffffffffffffffffffffffffffff1681526020019081526020016000208282815181106117f5576117f4615460565b5b60200260200101519080600181540180825580915050600190039060005260206000209060030201600090919091909150600082015181600001556020820151816001015560408201518160020160006101000a81548173ffffffffffffffffffffffffffffffffffffffff021916908373ffffffffffffffffffffffffffffffffffffffff16021790555050505b808061188f9061532b565b9150506115fa565b5060096000600a600087815260200190815260200160002060009054906101000a900473ffffffffffffffffffffffffffffffffffffffff1673ffffffffffffffffffffffffffffffffffffffff1673ffffffffffffffffffffffffffffffffffffffff16815260200190815260200160002060006119169190613d94565b600a600085815260200190815260200160002060006101000a81549073ffffffffffffffffffffffffffffffffffffffff021916905550505050565b61195a613db8565b611962613309565b73ffffffffffffffffffffffffffffffffffffffff16611980611e46565b73ffffffffffffffffffffffffffffffffffffffff16146119d6576040517f08c379a00000000000000000000000000000000000000000000000000000000081526004016119cd90614e17565b60405180910390fd5b6008600083815260200190815260200160002060050160019054906101000a900460ff16611a39576040517f08c379a0000000000000000000000000000000000000000000000000000000008152600401611a3090614ef7565b60405180910390fd5b600860008381526020019081526020016000206040518060e001604052908160008201548152602001600182015481526020016002820154815260200160038201548152602001600482018054611a8f906152c8565b80601f0160208091040260200160405190810160405280929190818152602001828054611abb906152c8565b8015611b085780601f10611add57610100808354040283529160200191611b08565b820191906000526020600020905b815481529060010190602001808311611aeb57829003601f168201915b505050505081526020016005820160009054906101000a900460ff161515151581526020016005820160019054906101000a900460ff1615151515815250509050919050565b6000806002600084815260200190815260200160002060009054906101000a900473ffffffffffffffffffffffffffffffffffffffff169050600073ffffffffffffffffffffffffffffffffffffffff168173ffffffffffffffffffffffffffffffffffffffff161415611bf7576040517f08c379a0000000000000000000000000000000000000000000000000000000008152600401611bee90614db7565b60405180910390fd5b80915050919050565b60008073ffffffffffffffffffffffffffffffffffffffff168273ffffffffffffffffffffffffffffffffffffffff161415611c71576040517f08c379a0000000000000000000000000000000000000000000000000000000008152600401611c6890614d97565b60405180910390fd5b600360008373ffffffffffffffffffffffffffffffffffffffff1673ffffffffffffffffffffffffffffffffffffffff168152602001908152602001600020549050919050565b611cc0613309565b73ffffffffffffffffffffffffffffffffffffffff16611cde611e46565b73ffffffffffffffffffffffffffffffffffffffff1614611d34576040517f08c379a0000000000000000000000000000000000000000000000000000000008152600401611d2b90614e17565b60405180910390fd5b611d3e60006133ca565b565b6060600960003373ffffffffffffffffffffffffffffffffffffffff1673ffffffffffffffffffffffffffffffffffffffff168152602001908152602001600020805480602002602001604051908101604052809291908181526020016000905b82821015611e3d578382906000526020600020906003020160405180606001604052908160008201548152602001600182015481526020016002820160009054906101000a900473ffffffffffffffffffffffffffffffffffffffff1673ffffffffffffffffffffffffffffffffffffffff1673ffffffffffffffffffffffffffffffffffffffff168152505081526020019060010190611da1565b50505050905090565b6000600660009054906101000a900473ffffffffffffffffffffffffffffffffffffffff16905090565b600b60009054906101000a900473ffffffffffffffffffffffffffffffffffffffff1681565b606060018054611ea5906152c8565b80601f0160208091040260200160405190810160405280929190818152602001828054611ed1906152c8565b8015611f1e5780601f10611ef357610100808354040283529160200191611f1e565b820191906000526020600020905b815481529060010190602001808311611f0157829003601f168201915b5050505050905090565b611f30613309565b73ffffffffffffffffffffffffffffffffffffffff168273ffffffffffffffffffffffffffffffffffffffff161415611f9e576040517f08c379a0000000000000000000000000000000000000000000000000000000008152600401611f9590614d17565b60405180910390fd5b8060056000611fab613309565b73ffffffffffffffffffffffffffffffffffffffff1673ffffffffffffffffffffffffffffffffffffffff16815260200190815260200160002060008473ffffffffffffffffffffffffffffffffffffffff1673ffffffffffffffffffffffffffffffffffffffff16815260200190815260200160002060006101000a81548160ff0219169083151502179055508173ffffffffffffffffffffffffffffffffffffffff16612058613309565b73ffffffffffffffffffffffffffffffffffffffff167f17307eab39ab6107e8899845ad3d59bd9653f200f220920489ca2b5937696c318360405161209d9190614c1a565b60405180910390a35050565b6120b1613db8565b6120b9613309565b73ffffffffffffffffffffffffffffffffffffffff166120d7611e46565b73ffffffffffffffffffffffffffffffffffffffff161461212d576040517f08c379a000000000000000000000000000000000000000000000000000000000815260040161212490614e17565b60405180910390fd5b6008600087815260200190815260200160002060050160019054906101000a900460ff1615612191576040517f08c379a000000000000000000000000000000000000000000000000000000000815260040161218890614ed7565b60405180910390fd5b60006040518060e001604052808881526020018781526020018681526020018581526020018981526020018415158152602001600115158152509050600781908060018154018082558091505060019003906000526020600020906006020160009091909190915060008201518160000155602082015181600101556040820151816002015560608201518160030155608082015181600401908051906020019061223d929190613df9565b5060a08201518160050160006101000a81548160ff02191690831515021790555060c08201518160050160016101000a81548160ff021916908315150217905550505080600860008981526020019081526020016000206000820151816000015560208201518160010155604082015181600201556060820151816003015560808201518160040190805190602001906122d8929190613df9565b5060a08201518160050160006101000a81548160ff02191690831515021790555060c08201518160050160016101000a81548160ff021916908315150217905550905050809150509695505050505050565b61233b612335613309565b83613490565b61237a576040517f08c379a000000000000000000000000000000000000000000000000000000000815260040161237190614eb7565b60405180910390fd5b6123868484848461356e565b6000600960008673ffffffffffffffffffffffffffffffffffffffff1673ffffffffffffffffffffffffffffffffffffffff168152602001908152602001600020805480602002602001604051908101604052809291908181526020016000905b82821015612483578382906000526020600020906003020160405180606001604052908160008201548152602001600182015481526020016002820160009054906101000a900473ffffffffffffffffffffffffffffffffffffffff1673ffffffffffffffffffffffffffffffffffffffff1673ffffffffffffffffffffffffffffffffffffffff1681525050815260200190600101906123e7565b505050509050600960008673ffffffffffffffffffffffffffffffffffffffff1673ffffffffffffffffffffffffffffffffffffffff16815260200190815260200160002060006124d49190613d94565b60005b815181101561273057838282815181106124f4576124f3615460565b5b602002602001015160000151146125ea57600960008773ffffffffffffffffffffffffffffffffffffffff1673ffffffffffffffffffffffffffffffffffffffff16815260200190815260200160002082828151811061255757612556615460565b5b60200260200101519080600181540180825580915050600190039060005260206000209060030201600090919091909150600082015181600001556020820151816001015560408201518160020160006101000a81548173ffffffffffffffffffffffffffffffffffffffff021916908373ffffffffffffffffffffffffffffffffffffffff160217905550505061271d565b848282815181106125fe576125fd615460565b5b60200260200101516040019073ffffffffffffffffffffffffffffffffffffffff16908173ffffffffffffffffffffffffffffffffffffffff1681525050600960008673ffffffffffffffffffffffffffffffffffffffff1673ffffffffffffffffffffffffffffffffffffffff16815260200190815260200160002082828151811061268e5761268d615460565b5b60200260200101519080600181540180825580915050600190039060005260206000209060030201600090919091909150600082015181600001556020820151816001015560408201518160020160006101000a81548173ffffffffffffffffffffffffffffffffffffffff021916908373ffffffffffffffffffffffffffffffffffffffff16021790555050505b80806127289061532b565b9150506124d7565b5033600a600085815260200190815260200160002060006101000a81548173ffffffffffffffffffffffffffffffffffffffff021916908373ffffffffffffffffffffffffffffffffffffffff1602179055505050505050565b612792613309565b73ffffffffffffffffffffffffffffffffffffffff166127b0611e46565b73ffffffffffffffffffffffffffffffffffffffff1614612806576040517f08c379a00000000000000000000000000000000000000000000000000000000081526004016127fd90614e17565b60405180910390fd5b60005b60078054905081101561298b57826007828154811061282b5761282a615460565b5b90600052602060002090600602016000015414801561286e5750816007828154811061285a57612859615460565b5b906000526020600020906006020160010154105b1561297857816007828154811061288857612887615460565b5b906000526020600020906006020160010181905550600781815481106128b1576128b0615460565b5b90600052602060002090600602016008600085815260200190815260200160002060008201548160000155600182015481600101556002820154816002015560038201548160030155600482018160040190805461290e906152c8565b612919929190613e7f565b506005820160009054906101000a900460ff168160050160006101000a81548160ff0219169083151502179055506005820160019054906101000a900460ff168160050160016101000a81548160ff0219169083151502179055509050505b80806129839061532b565b915050612809565b505050565b606061299b8261329d565b6129da576040517f08c379a00000000000000000000000000000000000000000000000000000000081526004016129d190614e57565b60405180910390fd5b60006129e46135ca565b90506000815111612a045760405180602001604052806000815250612a2f565b80612a0e846135e1565b604051602001612a1f929190614b04565b6040516020818303038152906040525b915050919050565b6008600082815260200190815260200160002060050160019054906101000a900460ff16612a9a576040517f08c379a0000000000000000000000000000000000000000000000000000000008152600401612a9190614ef7565b60405180910390fd5b6008600082815260200190815260200160002060050160009054906101000a900460ff1615612afe576040517f08c379a0000000000000000000000000000000000000000000000000000000008152600401612af590614d57565b60405180910390fd5b6000600860008381526020019081526020016000206001015411612b57576040517f08c379a0000000000000000000000000000000000000000000000000000000008152600401612b4e90614cd7565b60405180910390fd5b678ac7230489e800006127106008600084815260200190815260200160002060030154612b849190615117565b612b8e9190615148565b3414612bcf576040517f08c379a0000000000000000000000000000000000000000000000000000000008152600401612bc690614f17565b60405180910390fd5b612bd7613db8565b60005b600780549050811015612e5c578260078281548110612bfc57612bfb615460565b5b9060005260206000209060060201600001541415612e495760078181548110612c2857612c27615460565b5b90600052602060002090600602016040518060e001604052908160008201548152602001600182015481526020016002820154815260200160038201548152602001600482018054612c79906152c8565b80601f0160208091040260200160405190810160405280929190818152602001828054612ca5906152c8565b8015612cf25780601f10612cc757610100808354040283529160200191612cf2565b820191906000526020600020905b815481529060010190602001808311612cd557829003601f168201915b505050505081526020016005820160009054906101000a900460ff161515151581526020016005820160019054906101000a900460ff161515151581525050915060078181548110612d4757612d46615460565b5b90600052602060002090600602016001016000815480929190612d699061529e565b919050555060078181548110612d8257612d81615460565b5b906000526020600020906006020160086000858152602001908152602001600020600082015481600001556001820154816001015560028201548160020155600382015481600301556004820181600401908054612ddf906152c8565b612dea929190613e7f565b506005820160009054906101000a900460ff168160050160006101000a81548160ff0219169083151502179055506005820160019054906101000a900460ff168160050160016101000a81548160ff0219169083151502179055509050505b8080612e549061532b565b915050612bda565b5060006402540be400600d5433604051602001612e7a929190614b28565b6040516020818303038152906040528051906020012060001c612e9d91906153a2565b9050600d6000815480929190612eb29061532b565b9190505550612ec13382613742565b600b60009054906101000a900473ffffffffffffffffffffffffffffffffffffffff1673ffffffffffffffffffffffffffffffffffffffff166108fc349081150290604051600060405180830381858888f19350505050158015612f29573d6000803e3d6000fd5b5060006040518060600160405280838152602001846000015181526020013373ffffffffffffffffffffffffffffffffffffffff168152509050600960003373ffffffffffffffffffffffffffffffffffffffff1673ffffffffffffffffffffffffffffffffffffffff168152602001908152602001600020819080600181540180825580915050600190039060005260206000209060030201600090919091909150600082015181600001556020820151816001015560408201518160020160006101000a81548173ffffffffffffffffffffffffffffffffffffffff021916908373ffffffffffffffffffffffffffffffffffffffff160217905550505033600a600084815260200190815260200160002060006101000a81548173ffffffffffffffffffffffffffffffffffffffff021916908373ffffffffffffffffffffffffffffffffffffffff16021790555050505050565b6000600560008473ffffffffffffffffffffffffffffffffffffffff1673ffffffffffffffffffffffffffffffffffffffff16815260200190815260200160002060008373ffffffffffffffffffffffffffffffffffffffff1673ffffffffffffffffffffffffffffffffffffffff16815260200190815260200160002060009054906101000a900460ff16905092915050565b61311d613309565b73ffffffffffffffffffffffffffffffffffffffff1661313b611e46565b73ffffffffffffffffffffffffffffffffffffffff1614613191576040517f08c379a000000000000000000000000000000000000000000000000000000000815260040161318890614e17565b60405180910390fd5b600073ffffffffffffffffffffffffffffffffffffffff168173ffffffffffffffffffffffffffffffffffffffff161415613201576040517f08c379a00000000000000000000000000000000000000000000000000000000081526004016131f890614c77565b60405180910390fd5b61320a816133ca565b50565b600c60009054906101000a900473ffffffffffffffffffffffffffffffffffffffff1681565b60007f01ffc9a7000000000000000000000000000000000000000000000000000000007bffffffffffffffffffffffffffffffffffffffffffffffffffffffff1916827bffffffffffffffffffffffffffffffffffffffffffffffffffffffff1916149050919050565b60008073ffffffffffffffffffffffffffffffffffffffff166002600084815260200190815260200160002060009054906101000a900473ffffffffffffffffffffffffffffffffffffffff1673ffffffffffffffffffffffffffffffffffffffff1614159050919050565b600033905090565b816004600083815260200190815260200160002060006101000a81548173ffffffffffffffffffffffffffffffffffffffff021916908373ffffffffffffffffffffffffffffffffffffffff160217905550808273ffffffffffffffffffffffffffffffffffffffff1661338483611b4e565b73ffffffffffffffffffffffffffffffffffffffff167f8c5be1e5ebec7d5bd14f71427d1e84f3dd0314c0f7b2291e5b200ac8c7c3b92560405160405180910390a45050565b6000600660009054906101000a900473ffffffffffffffffffffffffffffffffffffffff16905081600660006101000a81548173ffffffffffffffffffffffffffffffffffffffff021916908373ffffffffffffffffffffffffffffffffffffffff1602179055508173ffffffffffffffffffffffffffffffffffffffff168173ffffffffffffffffffffffffffffffffffffffff167f8be0079c531659141344cd1fd0a4f28419497f9722a3daafe3b4186f6b6457e060405160405180910390a35050565b600061349b8261329d565b6134da576040517f08c379a00000000000000000000000000000000000000000000000000000000081526004016134d190614d37565b60405180910390fd5b60006134e583611b4e565b90508073ffffffffffffffffffffffffffffffffffffffff168473ffffffffffffffffffffffffffffffffffffffff16148061355457508373ffffffffffffffffffffffffffffffffffffffff1661353c846107fe565b73ffffffffffffffffffffffffffffffffffffffff16145b8061356557506135648185613081565b5b91505092915050565b613579848484613760565b613585848484846139bc565b6135c4576040517f08c379a00000000000000000000000000000000000000000000000000000000081526004016135bb90614c57565b60405180910390fd5b50505050565b606060405180602001604052806000815250905090565b60606000821415613629576040518060400160405280600181526020017f3000000000000000000000000000000000000000000000000000000000000000815250905061373d565b600082905060005b6000821461365b5780806136449061532b565b915050600a826136549190615117565b9150613631565b60008167ffffffffffffffff8111156136775761367661548f565b5b6040519080825280601f01601f1916602001820160405280156136a95781602001600182028036833780820191505090505b5090505b60008514613736576001826136c291906151a2565b9150600a856136d191906153a2565b60306136dd91906150c1565b60f81b8183815181106136f3576136f2615460565b5b60200101907effffffffffffffffffffffffffffffffffffffffffffffffffffffffffffff1916908160001a905350600a8561372f9190615117565b94506136ad565b8093505050505b919050565b61375c828260405180602001604052806000815250613b53565b5050565b8273ffffffffffffffffffffffffffffffffffffffff1661378082611b4e565b73ffffffffffffffffffffffffffffffffffffffff16146137d6576040517f08c379a00000000000000000000000000000000000000000000000000000000081526004016137cd90614e37565b60405180910390fd5b600073ffffffffffffffffffffffffffffffffffffffff168273ffffffffffffffffffffffffffffffffffffffff161415613846576040517f08c379a000000000000000000000000000000000000000000000000000000000815260040161383d90614cf7565b60405180910390fd5b613851838383613bae565b61385c600082613311565b6001600360008573ffffffffffffffffffffffffffffffffffffffff1673ffffffffffffffffffffffffffffffffffffffff16815260200190815260200160002060008282546138ac91906151a2565b925050819055506001600360008473ffffffffffffffffffffffffffffffffffffffff1673ffffffffffffffffffffffffffffffffffffffff168152602001908152602001600020600082825461390391906150c1565b92505081905550816002600083815260200190815260200160002060006101000a81548173ffffffffffffffffffffffffffffffffffffffff021916908373ffffffffffffffffffffffffffffffffffffffff160217905550808273ffffffffffffffffffffffffffffffffffffffff168473ffffffffffffffffffffffffffffffffffffffff167fddf252ad1be2c89b69c2b068fc378daa952ba7f163c4a11628f55a4df523b3ef60405160405180910390a4505050565b60006139dd8473ffffffffffffffffffffffffffffffffffffffff16613bb3565b15613b46578373ffffffffffffffffffffffffffffffffffffffff1663150b7a02613a06613309565b8786866040518563ffffffff1660e01b8152600401613a289493929190614b8a565b602060405180830381600087803b158015613a4257600080fd5b505af1925050508015613a7357506040513d601f19601f82011682018060405250810190613a7091906142b0565b60015b613af6573d8060008114613aa3576040519150601f19603f3d011682016040523d82523d6000602084013e613aa8565b606091505b50600081511415613aee576040517f08c379a0000000000000000000000000000000000000000000000000000000008152600401613ae590614c57565b60405180910390fd5b805181602001fd5b63150b7a0260e01b7bffffffffffffffffffffffffffffffffffffffffffffffffffffffff1916817bffffffffffffffffffffffffffffffffffffffffffffffffffffffff191614915050613b4b565b600190505b949350505050565b613b5d8383613bc6565b613b6a60008484846139bc565b613ba9576040517f08c379a0000000000000000000000000000000000000000000000000000000008152600401613ba090614c57565b60405180910390fd5b505050565b505050565b600080823b905060008111915050919050565b600073ffffffffffffffffffffffffffffffffffffffff168273ffffffffffffffffffffffffffffffffffffffff161415613c36576040517f08c379a0000000000000000000000000000000000000000000000000000000008152600401613c2d90614dd7565b60405180910390fd5b613c3f8161329d565b15613c7f576040517f08c379a0000000000000000000000000000000000000000000000000000000008152600401613c7690614cb7565b60405180910390fd5b613c8b60008383613bae565b6001600360008473ffffffffffffffffffffffffffffffffffffffff1673ffffffffffffffffffffffffffffffffffffffff1681526020019081526020016000206000828254613cdb91906150c1565b92505081905550816002600083815260200190815260200160002060006101000a81548173ffffffffffffffffffffffffffffffffffffffff021916908373ffffffffffffffffffffffffffffffffffffffff160217905550808273ffffffffffffffffffffffffffffffffffffffff16600073ffffffffffffffffffffffffffffffffffffffff167fddf252ad1be2c89b69c2b068fc378daa952ba7f163c4a11628f55a4df523b3ef60405160405180910390a45050565b5080546000825560030290600052602060002090810190613db59190613f0c565b50565b6040518060e0016040528060008152602001600081526020016000815260200160008152602001606081526020016000151581526020016000151581525090565b828054613e05906152c8565b90600052602060002090601f016020900481019282613e275760008555613e6e565b82601f10613e4057805160ff1916838001178555613e6e565b82800160010185558215613e6e579182015b82811115613e6d578251825591602001919060010190613e52565b5b509050613e7b9190613f5a565b5090565b828054613e8b906152c8565b90600052602060002090601f016020900481019282613ead5760008555613efb565b82601f10613ebe5780548555613efb565b82800160010185558215613efb57600052602060002091601f016020900482015b82811115613efa578254825591600101919060010190613edf565b5b509050613f089190613f5a565b5090565b5b80821115613f565760008082016000905560018201600090556002820160006101000a81549073ffffffffffffffffffffffffffffffffffffffff021916905550600301613f0d565b5090565b5b80821115613f73576000816000905550600101613f5b565b5090565b6000613f8a613f8584614f99565b614f74565b905082815260208101848484011115613fa657613fa56154c3565b5b613fb184828561525c565b509392505050565b6000613fcc613fc784614fca565b614f74565b905082815260208101848484011115613fe857613fe76154c3565b5b613ff384828561525c565b509392505050565b60008135905061400a81615ad9565b92915050565b60008135905061401f81615af0565b92915050565b60008135905061403481615b07565b92915050565b60008151905061404981615b07565b92915050565b600082601f830112614064576140636154be565b5b8135614074848260208601613f77565b91505092915050565b600082601f830112614092576140916154be565b5b81356140a2848260208601613fb9565b91505092915050565b6000813590506140ba81615b1e565b92915050565b6000602082840312156140d6576140d56154cd565b5b60006140e484828501613ffb565b91505092915050565b60008060408385031215614104576141036154cd565b5b600061411285828601613ffb565b925050602061412385828601613ffb565b9150509250929050565b600080600060608486031215614146576141456154cd565b5b600061415486828701613ffb565b935050602061416586828701613ffb565b9250506040614176868287016140ab565b9150509250925092565b6000806000806080858703121561419a576141996154cd565b5b60006141a887828801613ffb565b94505060206141b987828801613ffb565b93505060406141ca878288016140ab565b925050606085013567ffffffffffffffff8111156141eb576141ea6154c8565b5b6141f78782880161404f565b91505092959194509250565b6000806040838503121561421a576142196154cd565b5b600061422885828601613ffb565b925050602061423985828601614010565b9150509250929050565b6000806040838503121561425a576142596154cd565b5b600061426885828601613ffb565b9250506020614279858286016140ab565b9150509250929050565b600060208284031215614299576142986154cd565b5b60006142a784828501614025565b91505092915050565b6000602082840312156142c6576142c56154cd565b5b60006142d48482850161403a565b91505092915050565b60008060008060008060c087890312156142fa576142f96154cd565b5b600087013567ffffffffffffffff811115614318576143176154c8565b5b61432489828a0161407d565b965050602061433589828a016140ab565b955050604061434689828a016140ab565b945050606061435789828a016140ab565b935050608061436889828a016140ab565b92505060a061437989828a01614010565b9150509295509295509295565b60006020828403121561439c5761439b6154cd565b5b60006143aa848285016140ab565b91505092915050565b600080604083850312156143ca576143c96154cd565b5b60006143d8858286016140ab565b92505060206143e9858286016140ab565b9150509250929050565b60006143ff8383614955565b905092915050565b60006144138383614a8d565b60608301905092915050565b614428816151e8565b82525050565b614437816151d6565b82525050565b614446816151d6565b82525050565b61445d614458826151d6565b615374565b82525050565b600061446e8261501b565b6144788185615061565b93508360208202850161448a85614ffb565b8060005b858110156144c657848403895281516144a785826143f3565b94506144b283615047565b925060208a0199505060018101905061448e565b50829750879550505050505092915050565b60006144e382615026565b6144ed8185615072565b93506144f88361500b565b8060005b838110156145295781516145108882614407565b975061451b83615054565b9250506001810190506144fc565b5085935050505092915050565b61453f816151fa565b82525050565b61454e816151fa565b82525050565b600061455f82615031565b6145698185615083565b935061457981856020860161526b565b614582816154d2565b840191505092915050565b60006145988261503c565b6145a28185615094565b93506145b281856020860161526b565b6145bb816154d2565b840191505092915050565b60006145d18261503c565b6145db81856150a5565b93506145eb81856020860161526b565b6145f4816154d2565b840191505092915050565b600061460a8261503c565b61461481856150b6565b935061462481856020860161526b565b80840191505092915050565b600061463d6032836150a5565b9150614648826154f0565b604082019050919050565b60006146606026836150a5565b915061466b8261553f565b604082019050919050565b60006146836014836150a5565b915061468e8261558e565b602082019050919050565b60006146a6601c836150a5565b91506146b1826155b7565b602082019050919050565b60006146c96022836150a5565b91506146d4826155e0565b604082019050919050565b60006146ec6024836150a5565b91506146f78261562f565b604082019050919050565b600061470f6019836150a5565b915061471a8261567e565b602082019050919050565b6000614732602c836150a5565b915061473d826156a7565b604082019050919050565b60006147556023836150a5565b9150614760826156f6565b604082019050919050565b60006147786038836150a5565b915061478382615745565b604082019050919050565b600061479b602a836150a5565b91506147a682615794565b604082019050919050565b60006147be6029836150a5565b91506147c9826157e3565b604082019050919050565b60006147e16020836150a5565b91506147ec82615832565b602082019050919050565b6000614804602c836150a5565b915061480f8261585b565b604082019050919050565b60006148276020836150a5565b9150614832826158aa565b602082019050919050565b600061484a6029836150a5565b9150614855826158d3565b604082019050919050565b600061486d602f836150a5565b915061487882615922565b604082019050919050565b60006148906021836150a5565b915061489b82615971565b604082019050919050565b60006148b36022836150a5565b91506148be826159c0565b604082019050919050565b60006148d66031836150a5565b91506148e182615a0f565b604082019050919050565b60006148f96011836150a5565b915061490482615a5e565b602082019050919050565b600061491c6011836150a5565b915061492782615a87565b602082019050919050565b600061493f6010836150a5565b915061494a82615ab0565b602082019050919050565b600060e08301600083015161496d6000860182614acf565b5060208301516149806020860182614acf565b5060408301516149936040860182614acf565b5060608301516149a66060860182614acf565b50608083015184820360808601526149be828261458d565b91505060a08301516149d360a0860182614536565b5060c08301516149e660c0860182614536565b508091505092915050565b600060e083016000830151614a096000860182614acf565b506020830151614a1c6020860182614acf565b506040830151614a2f6040860182614acf565b506060830151614a426060860182614acf565b5060808301518482036080860152614a5a828261458d565b91505060a0830151614a6f60a0860182614536565b5060c0830151614a8260c0860182614536565b508091505092915050565b606082016000820151614aa36000850182614acf565b506020820151614ab66020850182614acf565b506040820151614ac9604085018261442e565b50505050565b614ad881615252565b82525050565b614ae781615252565b82525050565b614afe614af982615252565b615398565b82525050565b6000614b1082856145ff565b9150614b1c82846145ff565b91508190509392505050565b6000614b348285614aed565b602082019150614b44828461444c565b6014820191508190509392505050565b6000602082019050614b69600083018461443d565b92915050565b6000602082019050614b84600083018461441f565b92915050565b6000608082019050614b9f600083018761443d565b614bac602083018661443d565b614bb96040830185614ade565b8181036060830152614bcb8184614554565b905095945050505050565b60006020820190508181036000830152614bf08184614463565b905092915050565b60006020820190508181036000830152614c1281846144d8565b905092915050565b6000602082019050614c2f6000830184614545565b92915050565b60006020820190508181036000830152614c4f81846145c6565b905092915050565b60006020820190508181036000830152614c7081614630565b9050919050565b60006020820190508181036000830152614c9081614653565b9050919050565b60006020820190508181036000830152614cb081614676565b9050919050565b60006020820190508181036000830152614cd081614699565b9050919050565b60006020820190508181036000830152614cf0816146bc565b9050919050565b60006020820190508181036000830152614d10816146df565b9050919050565b60006020820190508181036000830152614d3081614702565b9050919050565b60006020820190508181036000830152614d5081614725565b9050919050565b60006020820190508181036000830152614d7081614748565b9050919050565b60006020820190508181036000830152614d908161476b565b9050919050565b60006020820190508181036000830152614db08161478e565b9050919050565b60006020820190508181036000830152614dd0816147b1565b9050919050565b60006020820190508181036000830152614df0816147d4565b9050919050565b60006020820190508181036000830152614e10816147f7565b9050919050565b60006020820190508181036000830152614e308161481a565b9050919050565b60006020820190508181036000830152614e508161483d565b9050919050565b60006020820190508181036000830152614e7081614860565b9050919050565b60006020820190508181036000830152614e9081614883565b9050919050565b60006020820190508181036000830152614eb0816148a6565b9050919050565b60006020820190508181036000830152614ed0816148c9565b9050919050565b60006020820190508181036000830152614ef0816148ec565b9050919050565b60006020820190508181036000830152614f108161490f565b9050919050565b60006020820190508181036000830152614f3081614932565b9050919050565b60006020820190508181036000830152614f5181846149f1565b905092915050565b6000602082019050614f6e6000830184614ade565b92915050565b6000614f7e614f8f565b9050614f8a82826152fa565b919050565b6000604051905090565b600067ffffffffffffffff821115614fb457614fb361548f565b5b614fbd826154d2565b9050602081019050919050565b600067ffffffffffffffff821115614fe557614fe461548f565b5b614fee826154d2565b9050602081019050919050565b6000819050602082019050919050565b6000819050602082019050919050565b600081519050919050565b600081519050919050565b600081519050919050565b600081519050919050565b6000602082019050919050565b6000602082019050919050565b600082825260208201905092915050565b600082825260208201905092915050565b600082825260208201905092915050565b600082825260208201905092915050565b600082825260208201905092915050565b600081905092915050565b60006150cc82615252565b91506150d783615252565b9250827fffffffffffffffffffffffffffffffffffffffffffffffffffffffffffffffff0382111561510c5761510b6153d3565b5b828201905092915050565b600061512282615252565b915061512d83615252565b92508261513d5761513c615402565b5b828204905092915050565b600061515382615252565b915061515e83615252565b9250817fffffffffffffffffffffffffffffffffffffffffffffffffffffffffffffffff0483118215151615615197576151966153d3565b5b828202905092915050565b60006151ad82615252565b91506151b883615252565b9250828210156151cb576151ca6153d3565b5b828203905092915050565b60006151e182615232565b9050919050565b60006151f382615232565b9050919050565b60008115159050919050565b60007fffffffff0000000000000000000000000000000000000000000000000000000082169050919050565b600073ffffffffffffffffffffffffffffffffffffffff82169050919050565b6000819050919050565b82818337600083830152505050565b60005b8381101561528957808201518184015260208101905061526e565b83811115615298576000848401525b50505050565b60006152a982615252565b915060008214156152bd576152bc6153d3565b5b600182039050919050565b600060028204905060018216806152e057607f821691505b602082108114156152f4576152f3615431565b5b50919050565b615303826154d2565b810181811067ffffffffffffffff821117156153225761532161548f565b5b80604052505050565b600061533682615252565b91507fffffffffffffffffffffffffffffffffffffffffffffffffffffffffffffffff821415615369576153686153d3565b5b600182019050919050565b600061537f82615386565b9050919050565b6000615391826154e3565b9050919050565b6000819050919050565b60006153ad82615252565b91506153b883615252565b9250826153c8576153c7615402565b5b828206905092915050565b7f4e487b7100000000000000000000000000000000000000000000000000000000600052601160045260246000fd5b7f4e487b7100000000000000000000000000000000000000000000000000000000600052601260045260246000fd5b7f4e487b7100000000000000000000000000000000000000000000000000000000600052602260045260246000fd5b7f4e487b7100000000000000000000000000000000000000000000000000000000600052603260045260246000fd5b7f4e487b7100000000000000000000000000000000000000000000000000000000600052604160045260246000fd5b600080fd5b600080fd5b600080fd5b600080fd5b6000601f19601f8301169050919050565b60008160601b9050919050565b7f4552433732313a207472616e7366657220746f206e6f6e20455243373231526560008201527f63656976657220696d706c656d656e7465720000000000000000000000000000602082015250565b7f4f776e61626c653a206e6577206f776e657220697320746865207a65726f206160008201527f6464726573730000000000000000000000000000000000000000000000000000602082015250565b7f506f6c69746963206e6f7420666f722073616c65000000000000000000000000600082015250565b7f4552433732313a20746f6b656e20616c7265616479206d696e74656400000000600082015250565b7f5468657265206973206e6f206d6f726520706f6c6974696320617661696c616260008201527f6c65000000000000000000000000000000000000000000000000000000000000602082015250565b7f4552433732313a207472616e7366657220746f20746865207a65726f2061646460008201527f7265737300000000000000000000000000000000000000000000000000000000602082015250565b7f4552433732313a20617070726f766520746f2063616c6c657200000000000000600082015250565b7f4552433732313a206f70657261746f7220717565727920666f72206e6f6e657860008201527f697374656e7420746f6b656e0000000000000000000000000000000000000000602082015250565b7f506f6c69746963206f6e6c7920617661696c61626c652077697468206c6f747460008201527f6572790000000000000000000000000000000000000000000000000000000000602082015250565b7f4552433732313a20617070726f76652063616c6c6572206973206e6f74206f7760008201527f6e6572206e6f7220617070726f76656420666f7220616c6c0000000000000000602082015250565b7f4552433732313a2062616c616e636520717565727920666f7220746865207a6560008201527f726f206164647265737300000000000000000000000000000000000000000000602082015250565b7f4552433732313a206f776e657220717565727920666f72206e6f6e657869737460008201527f656e7420746f6b656e0000000000000000000000000000000000000000000000602082015250565b7f4552433732313a206d696e7420746f20746865207a65726f2061646472657373600082015250565b7f4552433732313a20617070726f76656420717565727920666f72206e6f6e657860008201527f697374656e7420746f6b656e0000000000000000000000000000000000000000602082015250565b7f4f776e61626c653a2063616c6c6572206973206e6f7420746865206f776e6572600082015250565b7f4552433732313a207472616e73666572206f6620746f6b656e2074686174206960008201527f73206e6f74206f776e0000000000000000000000000000000000000000000000602082015250565b7f4552433732314d657461646174613a2055524920717565727920666f72206e6f60008201527f6e6578697374656e7420746f6b656e0000000000000000000000000000000000602082015250565b7f4552433732313a20617070726f76616c20746f2063757272656e74206f776e6560008201527f7200000000000000000000000000000000000000000000000000000000000000602082015250565b7f596f7520617265206e6f7420746865206f776e6572206f662074686520746f6b60008201527f656e000000000000000000000000000000000000000000000000000000000000602082015250565b7f4552433732313a207472616e736665722063616c6c6572206973206e6f74206f60008201527f776e6572206e6f7220617070726f766564000000000000000000000000000000602082015250565b7f696420616c726561647920696e20757365000000000000000000000000000000600082015250565b7f506f6c69746963206e6f7420666f756e64000000000000000000000000000000600082015250565b7f496e636f727265637420616d6f756e7400000000000000000000000000000000600082015250565b615ae2816151d6565b8114615aed57600080fd5b50565b615af9816151fa565b8114615b0457600080fd5b50565b615b1081615206565b8114615b1b57600080fd5b50565b615b2781615252565b8114615b3257600080fd5b5056fea2646970667358221220578760ac3bf79584eca6bb59a8f5b1b49f5fc2e5bd26a46b2bb0987c33135b5064736f6c63430008070033",
  "immutableReferences": {},
  "source": "// SPDX-License-Identifier: MIT\n\npragma solidity ^0.8.0;\nimport \"./Sell.sol\";\n\n\ncontract PoliticsCollectible is Sell {\n}",
  "sourcePath": "/home/youness/Crypto/PoliticsCollectible/contracts/PoliticsCollectible.sol",
  "compiler": {
    "name": "solc",
    "version": "0.8.7+commit.e28d00a7.Emscripten.clang"
  },
  "schemaVersion": "3.4.3",
  "updatedAt": "2021-08-27T14:57:45.006Z",
  "devdoc": {
    "kind": "dev",
    "methods": {
      "approve(address,uint256)": {
        "details": "See {IERC721-approve}."
      },
      "balanceOf(address)": {
        "details": "See {IERC721-balanceOf}."
      },
      "getApproved(uint256)": {
        "details": "See {IERC721-getApproved}."
      },
      "isApprovedForAll(address,address)": {
        "details": "See {IERC721-isApprovedForAll}."
      },
      "name()": {
        "details": "See {IERC721Metadata-name}."
      },
      "owner()": {
        "details": "Returns the address of the current owner."
      },
      "ownerOf(uint256)": {
        "details": "See {IERC721-ownerOf}."
      },
      "renounceOwnership()": {
        "details": "Leaves the contract without owner. It will not be possible to call `onlyOwner` functions anymore. Can only be called by the current owner. NOTE: Renouncing ownership will leave the contract without an owner, thereby removing any functionality that is only available to the owner."
      },
      "safeTransferFrom(address,address,uint256)": {
        "details": "See {IERC721-safeTransferFrom}."
      },
      "safeTransferFrom(address,address,uint256,bytes)": {
        "details": "See {IERC721-safeTransferFrom}."
      },
      "setApprovalForAll(address,bool)": {
        "details": "See {IERC721-setApprovalForAll}."
      },
      "supportsInterface(bytes4)": {
        "details": "See {IERC165-supportsInterface}."
      },
      "symbol()": {
        "details": "See {IERC721Metadata-symbol}."
      },
      "tokenURI(uint256)": {
        "details": "See {IERC721Metadata-tokenURI}."
      },
      "transferFrom(address,address,uint256)": {
        "details": "See {IERC721-transferFrom}."
      },
      "transferOwnership(address)": {
        "details": "Transfers ownership of the contract to a new account (`newOwner`). Can only be called by the current owner."
      }
    },
    "version": 1
  },
  "userdoc": {
    "kind": "user",
    "methods": {},
    "version": 1
  }
}