{
  "contractName": "PoliticsCollectible",
  "abi": [
    {
      "anonymous": false,
      "inputs": [
        {
          "indexed": true,
          "internalType": "address",
          "name": "owner",
          "type": "address"
        },
        {
          "indexed": true,
          "internalType": "address",
          "name": "approved",
          "type": "address"
        },
        {
          "indexed": true,
          "internalType": "uint256",
          "name": "tokenId",
          "type": "uint256"
        }
      ],
      "name": "Approval",
      "type": "event"
    },
    {
      "anonymous": false,
      "inputs": [
        {
          "indexed": true,
          "internalType": "address",
          "name": "owner",
          "type": "address"
        },
        {
          "indexed": true,
          "internalType": "address",
          "name": "operator",
          "type": "address"
        },
        {
          "indexed": false,
          "internalType": "bool",
          "name": "approved",
          "type": "bool"
        }
      ],
      "name": "ApprovalForAll",
      "type": "event"
    },
    {
      "anonymous": false,
      "inputs": [
        {
          "indexed": true,
          "internalType": "address",
          "name": "previousOwner",
          "type": "address"
        },
        {
          "indexed": true,
          "internalType": "address",
          "name": "newOwner",
          "type": "address"
        }
      ],
      "name": "OwnershipTransferred",
      "type": "event"
    },
    {
      "anonymous": false,
      "inputs": [
        {
          "indexed": true,
          "internalType": "address",
          "name": "from",
          "type": "address"
        },
        {
          "indexed": true,
          "internalType": "address",
          "name": "to",
          "type": "address"
        },
        {
          "indexed": true,
          "internalType": "uint256",
          "name": "tokenId",
          "type": "uint256"
        }
      ],
      "name": "Transfer",
      "type": "event"
    },
    {
      "inputs": [
        {
          "internalType": "uint256",
          "name": "_id",
          "type": "uint256"
        },
        {
          "internalType": "uint256",
          "name": "_qty",
          "type": "uint256"
        }
      ],
      "name": "addQty",
      "outputs": [],
      "stateMutability": "nonpayable",
      "type": "function"
    },
    {
      "inputs": [
        {
          "internalType": "address",
          "name": "to",
          "type": "address"
        },
        {
          "internalType": "uint256",
          "name": "tokenId",
          "type": "uint256"
        }
      ],
      "name": "approve",
      "outputs": [],
      "stateMutability": "nonpayable",
      "type": "function"
    },
    {
      "inputs": [
        {
          "internalType": "address",
          "name": "owner",
          "type": "address"
        }
      ],
      "name": "balanceOf",
      "outputs": [
        {
          "internalType": "uint256",
          "name": "",
          "type": "uint256"
        }
      ],
      "stateMutability": "view",
      "type": "function"
    },
    {
      "inputs": [
        {
          "internalType": "uint256",
          "name": "_id",
          "type": "uint256"
        }
      ],
      "name": "buy",
      "outputs": [],
      "stateMutability": "payable",
      "type": "function"
    },
    {
      "inputs": [
        {
          "internalType": "uint256",
          "name": "_tokenId",
          "type": "uint256"
        }
      ],
      "name": "buyPoliticsForSale",
      "outputs": [],
      "stateMutability": "payable",
      "type": "function"
    },
    {
      "inputs": [
        {
          "internalType": "uint256",
          "name": "_tokenId",
          "type": "uint256"
        }
      ],
      "name": "cancelSell",
      "outputs": [],
      "stateMutability": "nonpayable",
      "type": "function"
    },
    {
      "inputs": [],
      "name": "contractAddress",
      "outputs": [
        {
          "internalType": "address payable",
          "name": "",
          "type": "address"
        }
      ],
      "stateMutability": "view",
      "type": "function"
    },
    {
      "inputs": [
        {
          "internalType": "string",
          "name": "_name",
          "type": "string"
        },
        {
          "internalType": "uint256",
          "name": "_id",
          "type": "uint256"
        },
        {
          "internalType": "uint256",
          "name": "_qty",
          "type": "uint256"
        },
        {
          "internalType": "uint256",
          "name": "_level",
          "type": "uint256"
        },
        {
          "internalType": "uint256",
          "name": "_price",
          "type": "uint256"
        },
        {
          "internalType": "bool",
          "name": "_lottery",
          "type": "bool"
        }
      ],
      "name": "create",
      "outputs": [
        {
          "components": [
            {
              "internalType": "uint256",
              "name": "id",
              "type": "uint256"
            },
            {
              "internalType": "uint256",
              "name": "qty",
              "type": "uint256"
            },
            {
              "internalType": "uint256",
              "name": "level",
              "type": "uint256"
            },
            {
              "internalType": "uint256",
              "name": "price",
              "type": "uint256"
            },
            {
              "internalType": "string",
              "name": "name",
              "type": "string"
            },
            {
              "internalType": "bool",
              "name": "lottery",
              "type": "bool"
            },
            {
              "internalType": "bool",
              "name": "created",
              "type": "bool"
            }
          ],
          "internalType": "struct Collectible.PoliticsAvailable",
          "name": "",
          "type": "tuple"
        }
      ],
      "stateMutability": "nonpayable",
      "type": "function"
    },
    {
      "inputs": [
        {
          "internalType": "uint256",
          "name": "_tokenId",
          "type": "uint256"
        },
        {
          "internalType": "uint256",
          "name": "_price",
          "type": "uint256"
        }
      ],
      "name": "forSale",
      "outputs": [],
      "stateMutability": "nonpayable",
      "type": "function"
    },
    {
      "inputs": [
        {
          "internalType": "uint256",
          "name": "tokenId",
          "type": "uint256"
        }
      ],
      "name": "getApproved",
      "outputs": [
        {
          "internalType": "address",
          "name": "",
          "type": "address"
        }
      ],
      "stateMutability": "view",
      "type": "function"
    },
    {
      "inputs": [],
      "name": "getMyPolitics",
      "outputs": [
        {
          "components": [
            {
              "internalType": "uint256",
              "name": "id",
              "type": "uint256"
            },
            {
              "internalType": "uint256",
              "name": "id_politic",
              "type": "uint256"
            },
            {
              "internalType": "address",
              "name": "owner",
              "type": "address"
            }
          ],
          "internalType": "struct Collectible.PoliticsOwned[]",
          "name": "",
          "type": "tuple[]"
        }
      ],
      "stateMutability": "view",
      "type": "function"
    },
    {
      "inputs": [
        {
          "internalType": "uint256",
          "name": "_id",
          "type": "uint256"
        }
      ],
      "name": "getPolitic",
      "outputs": [
        {
          "components": [
            {
              "internalType": "uint256",
              "name": "id",
              "type": "uint256"
            },
            {
              "internalType": "uint256",
              "name": "qty",
              "type": "uint256"
            },
            {
              "internalType": "uint256",
              "name": "level",
              "type": "uint256"
            },
            {
              "internalType": "uint256",
              "name": "price",
              "type": "uint256"
            },
            {
              "internalType": "string",
              "name": "name",
              "type": "string"
            },
            {
              "internalType": "bool",
              "name": "lottery",
              "type": "bool"
            },
            {
              "internalType": "bool",
              "name": "created",
              "type": "bool"
            }
          ],
          "internalType": "struct Collectible.PoliticsAvailable",
          "name": "",
          "type": "tuple"
        }
      ],
      "stateMutability": "view",
      "type": "function"
    },
    {
      "inputs": [],
      "name": "getPolitics",
      "outputs": [
        {
          "components": [
            {
              "internalType": "uint256",
              "name": "id",
              "type": "uint256"
            },
            {
              "internalType": "uint256",
              "name": "qty",
              "type": "uint256"
            },
            {
              "internalType": "uint256",
              "name": "level",
              "type": "uint256"
            },
            {
              "internalType": "uint256",
              "name": "price",
              "type": "uint256"
            },
            {
              "internalType": "string",
              "name": "name",
              "type": "string"
            },
            {
              "internalType": "bool",
              "name": "lottery",
              "type": "bool"
            },
            {
              "internalType": "bool",
              "name": "created",
              "type": "bool"
            }
          ],
          "internalType": "struct Collectible.PoliticsAvailable[]",
          "name": "",
          "type": "tuple[]"
        }
      ],
      "stateMutability": "view",
      "type": "function"
    },
    {
      "inputs": [
        {
          "internalType": "address",
          "name": "owner",
          "type": "address"
        },
        {
          "internalType": "address",
          "name": "operator",
          "type": "address"
        }
      ],
      "name": "isApprovedForAll",
      "outputs": [
        {
          "internalType": "bool",
          "name": "",
          "type": "bool"
        }
      ],
      "stateMutability": "view",
      "type": "function"
    },
    {
      "inputs": [],
      "name": "name",
      "outputs": [
        {
          "internalType": "string",
          "name": "",
          "type": "string"
        }
      ],
      "stateMutability": "view",
      "type": "function"
    },
    {
      "inputs": [
        {
          "internalType": "address",
          "name": "",
          "type": "address"
        },
        {
          "internalType": "address",
          "name": "",
          "type": "address"
        },
        {
          "internalType": "uint256",
          "name": "",
          "type": "uint256"
        },
        {
          "internalType": "bytes",
          "name": "",
          "type": "bytes"
        }
      ],
      "name": "onERC721Received",
      "outputs": [
        {
          "internalType": "bytes4",
          "name": "",
          "type": "bytes4"
        }
      ],
      "stateMutability": "nonpayable",
      "type": "function"
    },
    {
      "inputs": [],
      "name": "owner",
      "outputs": [
        {
          "internalType": "address",
          "name": "",
          "type": "address"
        }
      ],
      "stateMutability": "view",
      "type": "function"
    },
    {
      "inputs": [],
      "name": "ownerAddress",
      "outputs": [
        {
          "internalType": "address payable",
          "name": "",
          "type": "address"
        }
      ],
      "stateMutability": "view",
      "type": "function"
    },
    {
      "inputs": [
        {
          "internalType": "uint256",
          "name": "tokenId",
          "type": "uint256"
        }
      ],
      "name": "ownerOf",
      "outputs": [
        {
          "internalType": "address",
          "name": "",
          "type": "address"
        }
      ],
      "stateMutability": "view",
      "type": "function"
    },
    {
      "inputs": [],
      "name": "renounceOwnership",
      "outputs": [],
      "stateMutability": "nonpayable",
      "type": "function"
    },
    {
      "inputs": [
        {
          "internalType": "address",
          "name": "from",
          "type": "address"
        },
        {
          "internalType": "address",
          "name": "to",
          "type": "address"
        },
        {
          "internalType": "uint256",
          "name": "tokenId",
          "type": "uint256"
        }
      ],
      "name": "safeTransferFrom",
      "outputs": [],
      "stateMutability": "nonpayable",
      "type": "function"
    },
    {
      "inputs": [
        {
          "internalType": "address",
          "name": "from",
          "type": "address"
        },
        {
          "internalType": "address",
          "name": "to",
          "type": "address"
        },
        {
          "internalType": "uint256",
          "name": "tokenId",
          "type": "uint256"
        },
        {
          "internalType": "bytes",
          "name": "_data",
          "type": "bytes"
        }
      ],
      "name": "safeTransferFrom",
      "outputs": [],
      "stateMutability": "nonpayable",
      "type": "function"
    },
    {
      "inputs": [
        {
          "internalType": "address",
          "name": "operator",
          "type": "address"
        },
        {
          "internalType": "bool",
          "name": "approved",
          "type": "bool"
        }
      ],
      "name": "setApprovalForAll",
      "outputs": [],
      "stateMutability": "nonpayable",
      "type": "function"
    },
    {
      "inputs": [
        {
          "internalType": "bytes4",
          "name": "interfaceId",
          "type": "bytes4"
        }
      ],
      "name": "supportsInterface",
      "outputs": [
        {
          "internalType": "bool",
          "name": "",
          "type": "bool"
        }
      ],
      "stateMutability": "view",
      "type": "function"
    },
    {
      "inputs": [],
      "name": "symbol",
      "outputs": [
        {
          "internalType": "string",
          "name": "",
          "type": "string"
        }
      ],
      "stateMutability": "view",
      "type": "function"
    },
    {
      "inputs": [
        {
          "internalType": "uint256",
          "name": "tokenId",
          "type": "uint256"
        }
      ],
      "name": "tokenURI",
      "outputs": [
        {
          "internalType": "string",
          "name": "",
          "type": "string"
        }
      ],
      "stateMutability": "view",
      "type": "function"
    },
    {
      "inputs": [
        {
          "internalType": "address",
          "name": "from",
          "type": "address"
        },
        {
          "internalType": "address",
          "name": "to",
          "type": "address"
        },
        {
          "internalType": "uint256",
          "name": "tokenId",
          "type": "uint256"
        }
      ],
      "name": "transferFrom",
      "outputs": [],
      "stateMutability": "nonpayable",
      "type": "function"
    },
    {
      "inputs": [
        {
          "internalType": "address",
          "name": "newOwner",
          "type": "address"
        }
      ],
      "name": "transferOwnership",
      "outputs": [],
      "stateMutability": "nonpayable",
      "type": "function"
    }
  ],
  "bytecode": "0x60806040526001600d556005600f553480156200001b57600080fd5b506040518060400160405280600b81526020017f506f6c69746963734e66740000000000000000000000000000000000000000008152506040518060400160405280600381526020017f504f4c00000000000000000000000000000000000000000000000000000000008152508160009080519060200190620000a092919062000232565b508060019080519060200190620000b992919062000232565b505050620000dc620000d06200016460201b60201c565b6200016c60201b60201c565b33600b60006101000a81548173ffffffffffffffffffffffffffffffffffffffff021916908373ffffffffffffffffffffffffffffffffffffffff16021790555030600c60006101000a81548173ffffffffffffffffffffffffffffffffffffffff021916908373ffffffffffffffffffffffffffffffffffffffff16021790555062000347565b600033905090565b6000600660009054906101000a900473ffffffffffffffffffffffffffffffffffffffff16905081600660006101000a81548173ffffffffffffffffffffffffffffffffffffffff021916908373ffffffffffffffffffffffffffffffffffffffff1602179055508173ffffffffffffffffffffffffffffffffffffffff168173ffffffffffffffffffffffffffffffffffffffff167f8be0079c531659141344cd1fd0a4f28419497f9722a3daafe3b4186f6b6457e060405160405180910390a35050565b8280546200024090620002e2565b90600052602060002090601f016020900481019282620002645760008555620002b0565b82601f106200027f57805160ff1916838001178555620002b0565b82800160010185558215620002b0579182015b82811115620002af57825182559160200191906001019062000292565b5b509050620002bf9190620002c3565b5090565b5b80821115620002de576000816000905550600101620002c4565b5090565b60006002820490506001821680620002fb57607f821691505b6020821081141562000312576200031162000318565b5b50919050565b7f4e487b7100000000000000000000000000000000000000000000000000000000600052602260045260246000fd5b615b4780620003576000396000f3fe6080604052600436106101b75760003560e01c806370a08231116100ec578063b88d4fde1161008a578063d96a094a11610064578063d96a094a14610621578063e985e9c51461063d578063f2fde38b1461067a578063f6b4dfb4146106a3576101b7565b8063b88d4fde14610592578063b9db1c98146105bb578063c87b56dd146105e4576101b7565b80638da5cb5b116100c65780638da5cb5b146104e85780638f84aa091461051357806395d89b411461053e578063a22cb46514610569576101b7565b806370a0823114610469578063715018a6146104a657806385d33436146104bd576101b7565b806323b872dd11610159578063546f9e6711610133578063546f9e67146103aa57806354b3efa6146103c65780635ad16b7f146103ef5780636352211e1461042c576101b7565b806323b872dd1461032d57806330f105cd1461035657806342842e0e14610381576101b7565b8063081812fc11610195578063081812fc1461024d578063095ea7b31461028a57806311143277146102b3578063150b7a02146102f0576101b7565b806301ffc9a7146101bc57806306fdde03146101f957806307c9cd4514610224575b600080fd5b3480156101c857600080fd5b506101e360048036038101906101de91906140e1565b6106ce565b6040516101f09190614b13565b60405180910390f35b34801561020557600080fd5b5061020e6107b0565b60405161021b9190614b49565b60405180910390f35b34801561023057600080fd5b5061024b600480360381019061024691906141e4565b610842565b005b34801561025957600080fd5b50610274600480360381019061026f91906141e4565b610a08565b6040516102819190614a16565b60405180910390f35b34801561029657600080fd5b506102b160048036038101906102ac91906140a1565b610a8d565b005b3480156102bf57600080fd5b506102da60048036038101906102d5919061413b565b610ba5565b6040516102e79190614e8b565b60405180910390f35b3480156102fc57600080fd5b5061031760048036038101906103129190613fde565b610e26565b6040516103249190614b2e565b60405180910390f35b34801561033957600080fd5b50610354600480360381019061034f9190613f8b565b610e3a565b005b34801561036257600080fd5b5061036b610ebb565b6040516103789190614acf565b60405180910390f35b34801561038d57600080fd5b506103a860048036038101906103a39190613f8b565b611086565b005b6103c460048036038101906103bf91906141e4565b6110a6565b005b3480156103d257600080fd5b506103ed60048036038101906103e89190614211565b61145e565b005b3480156103fb57600080fd5b50610416600480360381019061041191906141e4565b61162e565b6040516104239190614e8b565b60405180910390f35b34801561043857600080fd5b50610453600480360381019061044e91906141e4565b61182a565b6040516104609190614a16565b60405180910390f35b34801561047557600080fd5b50610490600480360381019061048b9190613f1e565b6118dc565b60405161049d9190614ead565b60405180910390f35b3480156104b257600080fd5b506104bb611994565b005b3480156104c957600080fd5b506104d2611a1c565b6040516104df9190614af1565b60405180910390f35b3480156104f457600080fd5b506104fd611b22565b60405161050a9190614a16565b60405180910390f35b34801561051f57600080fd5b50610528611b4c565b6040516105359190614a31565b60405180910390f35b34801561054a57600080fd5b50610553611b72565b6040516105609190614b49565b60405180910390f35b34801561057557600080fd5b50610590600480360381019061058b9190614061565b611c04565b005b34801561059e57600080fd5b506105b960048036038101906105b49190613fde565b611d85565b005b3480156105c757600080fd5b506105e260048036038101906105dd9190614211565b6121e5565b005b3480156105f057600080fd5b5061060b600480360381019061060691906141e4565b6123eb565b6040516106189190614b49565b60405180910390f35b61063b600480360381019061063691906141e4565b612492565b005b34801561064957600080fd5b50610664600480360381019061065f9190613f4b565b612adc565b6040516106719190614b13565b60405180910390f35b34801561068657600080fd5b506106a1600480360381019061069c9190613f1e565b612b70565b005b3480156106af57600080fd5b506106b8612c68565b6040516106c59190614a31565b60405180910390f35b60007f80ac58cd000000000000000000000000000000000000000000000000000000007bffffffffffffffffffffffffffffffffffffffffffffffffffffffff1916827bffffffffffffffffffffffffffffffffffffffffffffffffffffffff1916148061079957507f5b5e139f000000000000000000000000000000000000000000000000000000007bffffffffffffffffffffffffffffffffffffffffffffffffffffffff1916827bffffffffffffffffffffffffffffffffffffffffffffffffffffffff1916145b806107a957506107a882612c8e565b5b9050919050565b6060600080546107bf90615252565b80601f01602080910402602001604051908101604052809291908181526020018280546107eb90615252565b80156108385780601f1061080d57610100808354040283529160200191610838565b820191906000526020600020905b81548152906001019060200180831161081b57829003601f168201915b5050505050905090565b600e600082815260200190815260200160002060020160009054906101000a900473ffffffffffffffffffffffffffffffffffffffff1673ffffffffffffffffffffffffffffffffffffffff163373ffffffffffffffffffffffffffffffffffffffff16146108e6576040517f08c379a00000000000000000000000000000000000000000000000000000000081526004016108dd90614e4b565b60405180910390fd5b3073ffffffffffffffffffffffffffffffffffffffff166342842e0e600c60009054906101000a900473ffffffffffffffffffffffffffffffffffffffff1633846040518463ffffffff1660e01b815260040161094593929190614a4c565b600060405180830381600087803b15801561095f57600080fd5b505af1158015610973573d6000803e3d6000fd5b505050506109a4600c60009054906101000a900473ffffffffffffffffffffffffffffffffffffffff163383612cf8565b600e600082815260200190815260200160002060008082016000905560018201600090556002820160006101000a81549073ffffffffffffffffffffffffffffffffffffffff02191690556002820160146101000a81549060ff0219169055505050565b6000610a13826130fb565b610a52576040517f08c379a0000000000000000000000000000000000000000000000000000000008152600401610a4990614ceb565b60405180910390fd5b6004600083815260200190815260200160002060009054906101000a900473ffffffffffffffffffffffffffffffffffffffff169050919050565b6000610a988261182a565b90508073ffffffffffffffffffffffffffffffffffffffff168373ffffffffffffffffffffffffffffffffffffffff161415610b09576040517f08c379a0000000000000000000000000000000000000000000000000000000008152600401610b0090614d8b565b60405180910390fd5b8073ffffffffffffffffffffffffffffffffffffffff16610b28613167565b73ffffffffffffffffffffffffffffffffffffffff161480610b575750610b5681610b51613167565b612adc565b5b610b96576040517f08c379a0000000000000000000000000000000000000000000000000000000008152600401610b8d90614c6b565b60405180910390fd5b610ba0838361316f565b505050565b610bad613bf2565b610bb5613167565b73ffffffffffffffffffffffffffffffffffffffff16610bd3611b22565b73ffffffffffffffffffffffffffffffffffffffff1614610c29576040517f08c379a0000000000000000000000000000000000000000000000000000000008152600401610c2090614d0b565b60405180910390fd5b6008600087815260200190815260200160002060050160019054906101000a900460ff1615610c8d576040517f08c379a0000000000000000000000000000000000000000000000000000000008152600401610c8490614e0b565b60405180910390fd5b60006040518060e0016040528088815260200187815260200186815260200185815260200189815260200184151581526020016001151581525090506007819080600181540180825580915050600190039060005260206000209060060201600090919091909150600082015181600001556020820151816001015560408201518160020155606082015181600301556080820151816004019080519060200190610d39929190613c33565b5060a08201518160050160006101000a81548160ff02191690831515021790555060c08201518160050160016101000a81548160ff02191690831515021790555050508060086000898152602001908152602001600020600082015181600001556020820151816001015560408201518160020155606082015181600301556080820151816004019080519060200190610dd4929190613c33565b5060a08201518160050160006101000a81548160ff02191690831515021790555060c08201518160050160016101000a81548160ff021916908315150217905550905050809150509695505050505050565b600063150b7a0260e01b9050949350505050565b610e42613167565b73ffffffffffffffffffffffffffffffffffffffff16610e60611b22565b73ffffffffffffffffffffffffffffffffffffffff1614610eb6576040517f08c379a0000000000000000000000000000000000000000000000000000000008152600401610ead90614d0b565b60405180910390fd5b505050565b6060610ec5613167565b73ffffffffffffffffffffffffffffffffffffffff16610ee3611b22565b73ffffffffffffffffffffffffffffffffffffffff1614610f39576040517f08c379a0000000000000000000000000000000000000000000000000000000008152600401610f3090614d0b565b60405180910390fd5b6007805480602002602001604051908101604052809291908181526020016000905b8282101561107d57838290600052602060002090600602016040518060e001604052908160008201548152602001600182015481526020016002820154815260200160038201548152602001600482018054610fb690615252565b80601f0160208091040260200160405190810160405280929190818152602001828054610fe290615252565b801561102f5780601f106110045761010080835404028352916020019161102f565b820191906000526020600020905b81548152906001019060200180831161101257829003601f168201915b505050505081526020016005820160009054906101000a900460ff161515151581526020016005820160019054906101000a900460ff16151515158152505081526020019060010190610f5b565b50505050905090565b6110a183838360405180602001604052806000815250611d85565b505050565b600e600082815260200190815260200160002060020160149054906101000a900460ff16611109576040517f08c379a000000000000000000000000000000000000000000000000000000000815260040161110090614d6b565b60405180910390fd5b600e600082815260200190815260200160002060020160009054906101000a900473ffffffffffffffffffffffffffffffffffffffff1673ffffffffffffffffffffffffffffffffffffffff163373ffffffffffffffffffffffffffffffffffffffff1614156111ae576040517f08c379a00000000000000000000000000000000000000000000000000000000081526004016111a590614dcb565b60405180910390fd5b6103e8670de0b6b3a7640000600e6000848152602001908152602001600020600101546111db919061509c565b6111e5919061506b565b3414611226576040517f08c379a000000000000000000000000000000000000000000000000000000000815260040161121d90614e6b565b60405180910390fd5b60006064600f5434611238919061509c565b611242919061506b565b90506000813461125291906150f6565b9050600b60009054906101000a900473ffffffffffffffffffffffffffffffffffffffff1673ffffffffffffffffffffffffffffffffffffffff166108fc839081150290604051600060405180830381858888f193505050501580156112bc573d6000803e3d6000fd5b50600e600084815260200190815260200160002060020160009054906101000a900473ffffffffffffffffffffffffffffffffffffffff1673ffffffffffffffffffffffffffffffffffffffff166108fc829081150290604051600060405180830381858888f19350505050158015611339573d6000803e3d6000fd5b503073ffffffffffffffffffffffffffffffffffffffff166342842e0e600c60009054906101000a900473ffffffffffffffffffffffffffffffffffffffff1633866040518463ffffffff1660e01b815260040161139993929190614a4c565b600060405180830381600087803b1580156113b357600080fd5b505af11580156113c7573d6000803e3d6000fd5b50505050600e600084815260200190815260200160002060008082016000905560018201600090556002820160006101000a81549073ffffffffffffffffffffffffffffffffffffffff02191690556002820160146101000a81549060ff02191690555050611459600c60009054906101000a900473ffffffffffffffffffffffffffffffffffffffff163385612cf8565b505050565b3373ffffffffffffffffffffffffffffffffffffffff16600a600084815260200190815260200160002060009054906101000a900473ffffffffffffffffffffffffffffffffffffffff1673ffffffffffffffffffffffffffffffffffffffff16146114ff576040517f08c379a00000000000000000000000000000000000000000000000000000000081526004016114f690614dab565b60405180910390fd5b61152c33600c60009054906101000a900473ffffffffffffffffffffffffffffffffffffffff1684611086565b600060405180608001604052808481526020018381526020013373ffffffffffffffffffffffffffffffffffffffff16815260200160011515815250905080600e6000858152602001908152602001600020600082015181600001556020820151816001015560408201518160020160006101000a81548173ffffffffffffffffffffffffffffffffffffffff021916908373ffffffffffffffffffffffffffffffffffffffff16021790555060608201518160020160146101000a81548160ff02191690831515021790555090505061162933600c60009054906101000a900473ffffffffffffffffffffffffffffffffffffffff1685612cf8565b505050565b611636613bf2565b61163e613167565b73ffffffffffffffffffffffffffffffffffffffff1661165c611b22565b73ffffffffffffffffffffffffffffffffffffffff16146116b2576040517f08c379a00000000000000000000000000000000000000000000000000000000081526004016116a990614d0b565b60405180910390fd5b6008600083815260200190815260200160002060050160019054906101000a900460ff16611715576040517f08c379a000000000000000000000000000000000000000000000000000000000815260040161170c90614e2b565b60405180910390fd5b600860008381526020019081526020016000206040518060e00160405290816000820154815260200160018201548152602001600282015481526020016003820154815260200160048201805461176b90615252565b80601f016020809104026020016040519081016040528092919081815260200182805461179790615252565b80156117e45780601f106117b9576101008083540402835291602001916117e4565b820191906000526020600020905b8154815290600101906020018083116117c757829003601f168201915b505050505081526020016005820160009054906101000a900460ff161515151581526020016005820160019054906101000a900460ff1615151515815250509050919050565b6000806002600084815260200190815260200160002060009054906101000a900473ffffffffffffffffffffffffffffffffffffffff169050600073ffffffffffffffffffffffffffffffffffffffff168173ffffffffffffffffffffffffffffffffffffffff1614156118d3576040517f08c379a00000000000000000000000000000000000000000000000000000000081526004016118ca90614cab565b60405180910390fd5b80915050919050565b60008073ffffffffffffffffffffffffffffffffffffffff168273ffffffffffffffffffffffffffffffffffffffff16141561194d576040517f08c379a000000000000000000000000000000000000000000000000000000000815260040161194490614c8b565b60405180910390fd5b600360008373ffffffffffffffffffffffffffffffffffffffff1673ffffffffffffffffffffffffffffffffffffffff168152602001908152602001600020549050919050565b61199c613167565b73ffffffffffffffffffffffffffffffffffffffff166119ba611b22565b73ffffffffffffffffffffffffffffffffffffffff1614611a10576040517f08c379a0000000000000000000000000000000000000000000000000000000008152600401611a0790614d0b565b60405180910390fd5b611a1a6000613228565b565b6060600960003373ffffffffffffffffffffffffffffffffffffffff1673ffffffffffffffffffffffffffffffffffffffff168152602001908152602001600020805480602002602001604051908101604052809291908181526020016000905b82821015611b19578382906000526020600020906003020160405180606001604052908160008201548152602001600182015481526020016002820160009054906101000a900473ffffffffffffffffffffffffffffffffffffffff1673ffffffffffffffffffffffffffffffffffffffff1673ffffffffffffffffffffffffffffffffffffffff168152505081526020019060010190611a7d565b50505050905090565b6000600660009054906101000a900473ffffffffffffffffffffffffffffffffffffffff16905090565b600b60009054906101000a900473ffffffffffffffffffffffffffffffffffffffff1681565b606060018054611b8190615252565b80601f0160208091040260200160405190810160405280929190818152602001828054611bad90615252565b8015611bfa5780601f10611bcf57610100808354040283529160200191611bfa565b820191906000526020600020905b815481529060010190602001808311611bdd57829003601f168201915b5050505050905090565b611c0c613167565b73ffffffffffffffffffffffffffffffffffffffff168273ffffffffffffffffffffffffffffffffffffffff161415611c7a576040517f08c379a0000000000000000000000000000000000000000000000000000000008152600401611c7190614c0b565b60405180910390fd5b8060056000611c87613167565b73ffffffffffffffffffffffffffffffffffffffff1673ffffffffffffffffffffffffffffffffffffffff16815260200190815260200160002060008473ffffffffffffffffffffffffffffffffffffffff1673ffffffffffffffffffffffffffffffffffffffff16815260200190815260200160002060006101000a81548160ff0219169083151502179055508173ffffffffffffffffffffffffffffffffffffffff16611d34613167565b73ffffffffffffffffffffffffffffffffffffffff167f17307eab39ab6107e8899845ad3d59bd9653f200f220920489ca2b5937696c3183604051611d799190614b13565b60405180910390a35050565b611d96611d90613167565b836132ee565b611dd5576040517f08c379a0000000000000000000000000000000000000000000000000000000008152600401611dcc90614deb565b60405180910390fd5b611de1848484846133cc565b6000600960008673ffffffffffffffffffffffffffffffffffffffff1673ffffffffffffffffffffffffffffffffffffffff168152602001908152602001600020805480602002602001604051908101604052809291908181526020016000905b82821015611ede578382906000526020600020906003020160405180606001604052908160008201548152602001600182015481526020016002820160009054906101000a900473ffffffffffffffffffffffffffffffffffffffff1673ffffffffffffffffffffffffffffffffffffffff1673ffffffffffffffffffffffffffffffffffffffff168152505081526020019060010190611e42565b505050509050600960008673ffffffffffffffffffffffffffffffffffffffff1673ffffffffffffffffffffffffffffffffffffffff1681526020019081526020016000206000611f2f9190613cb9565b60005b815181101561218b5783828281518110611f4f57611f4e6153ea565b5b6020026020010151600001511461204557600960008773ffffffffffffffffffffffffffffffffffffffff1673ffffffffffffffffffffffffffffffffffffffff168152602001908152602001600020828281518110611fb257611fb16153ea565b5b60200260200101519080600181540180825580915050600190039060005260206000209060030201600090919091909150600082015181600001556020820151816001015560408201518160020160006101000a81548173ffffffffffffffffffffffffffffffffffffffff021916908373ffffffffffffffffffffffffffffffffffffffff1602179055505050612178565b84828281518110612059576120586153ea565b5b60200260200101516040019073ffffffffffffffffffffffffffffffffffffffff16908173ffffffffffffffffffffffffffffffffffffffff1681525050600960008673ffffffffffffffffffffffffffffffffffffffff1673ffffffffffffffffffffffffffffffffffffffff1681526020019081526020016000208282815181106120e9576120e86153ea565b5b60200260200101519080600181540180825580915050600190039060005260206000209060030201600090919091909150600082015181600001556020820151816001015560408201518160020160006101000a81548173ffffffffffffffffffffffffffffffffffffffff021916908373ffffffffffffffffffffffffffffffffffffffff16021790555050505b8080612183906152b5565b915050611f32565b5033600a600085815260200190815260200160002060006101000a81548173ffffffffffffffffffffffffffffffffffffffff021916908373ffffffffffffffffffffffffffffffffffffffff1602179055505050505050565b6121ed613167565b73ffffffffffffffffffffffffffffffffffffffff1661220b611b22565b73ffffffffffffffffffffffffffffffffffffffff1614612261576040517f08c379a000000000000000000000000000000000000000000000000000000000815260040161225890614d0b565b60405180910390fd5b60005b6007805490508110156123e6578260078281548110612286576122856153ea565b5b9060005260206000209060060201600001541480156122c9575081600782815481106122b5576122b46153ea565b5b906000526020600020906006020160010154105b156123d35781600782815481106122e3576122e26153ea565b5b9060005260206000209060060201600101819055506007818154811061230c5761230b6153ea565b5b90600052602060002090600602016008600085815260200190815260200160002060008201548160000155600182015481600101556002820154816002015560038201548160030155600482018160040190805461236990615252565b612374929190613cdd565b506005820160009054906101000a900460ff168160050160006101000a81548160ff0219169083151502179055506005820160019054906101000a900460ff168160050160016101000a81548160ff0219169083151502179055509050505b80806123de906152b5565b915050612264565b505050565b60606123f6826130fb565b612435576040517f08c379a000000000000000000000000000000000000000000000000000000000815260040161242c90614d4b565b60405180910390fd5b600061243f613428565b9050600081511161245f576040518060200160405280600081525061248a565b806124698461343f565b60405160200161247a9291906149c6565b6040516020818303038152906040525b915050919050565b6008600082815260200190815260200160002060050160019054906101000a900460ff166124f5576040517f08c379a00000000000000000000000000000000000000000000000000000000081526004016124ec90614e2b565b60405180910390fd5b6008600082815260200190815260200160002060050160009054906101000a900460ff1615612559576040517f08c379a000000000000000000000000000000000000000000000000000000000815260040161255090614c4b565b60405180910390fd5b60006008600083815260200190815260200160002060010154116125b2576040517f08c379a00000000000000000000000000000000000000000000000000000000081526004016125a990614bcb565b60405180910390fd5b6103e8670de0b6b3a764000060086000848152602001908152602001600020600301546125df919061509c565b6125e9919061506b565b341461262a576040517f08c379a000000000000000000000000000000000000000000000000000000000815260040161262190614e6b565b60405180910390fd5b612632613bf2565b60005b6007805490508110156128b7578260078281548110612657576126566153ea565b5b90600052602060002090600602016000015414156128a45760078181548110612683576126826153ea565b5b90600052602060002090600602016040518060e0016040529081600082015481526020016001820154815260200160028201548152602001600382015481526020016004820180546126d490615252565b80601f016020809104026020016040519081016040528092919081815260200182805461270090615252565b801561274d5780601f106127225761010080835404028352916020019161274d565b820191906000526020600020905b81548152906001019060200180831161273057829003601f168201915b505050505081526020016005820160009054906101000a900460ff161515151581526020016005820160019054906101000a900460ff1615151515815250509150600781815481106127a2576127a16153ea565b5b906000526020600020906006020160010160008154809291906127c490615228565b9190505550600781815481106127dd576127dc6153ea565b5b90600052602060002090600602016008600085815260200190815260200160002060008201548160000155600182015481600101556002820154816002015560038201548160030155600482018160040190805461283a90615252565b612845929190613cdd565b506005820160009054906101000a900460ff168160050160006101000a81548160ff0219169083151502179055506005820160019054906101000a900460ff168160050160016101000a81548160ff0219169083151502179055509050505b80806128af906152b5565b915050612635565b5060006402540be400600d54336040516020016128d59291906149ea565b6040516020818303038152906040528051906020012060001c6128f8919061532c565b9050600d600081548092919061290d906152b5565b919050555061291c33826135a0565b600b60009054906101000a900473ffffffffffffffffffffffffffffffffffffffff1673ffffffffffffffffffffffffffffffffffffffff166108fc349081150290604051600060405180830381858888f19350505050158015612984573d6000803e3d6000fd5b5060006040518060600160405280838152602001846000015181526020013373ffffffffffffffffffffffffffffffffffffffff168152509050600960003373ffffffffffffffffffffffffffffffffffffffff1673ffffffffffffffffffffffffffffffffffffffff168152602001908152602001600020819080600181540180825580915050600190039060005260206000209060030201600090919091909150600082015181600001556020820151816001015560408201518160020160006101000a81548173ffffffffffffffffffffffffffffffffffffffff021916908373ffffffffffffffffffffffffffffffffffffffff160217905550505033600a600084815260200190815260200160002060006101000a81548173ffffffffffffffffffffffffffffffffffffffff021916908373ffffffffffffffffffffffffffffffffffffffff16021790555050505050565b6000600560008473ffffffffffffffffffffffffffffffffffffffff1673ffffffffffffffffffffffffffffffffffffffff16815260200190815260200160002060008373ffffffffffffffffffffffffffffffffffffffff1673ffffffffffffffffffffffffffffffffffffffff16815260200190815260200160002060009054906101000a900460ff16905092915050565b612b78613167565b73ffffffffffffffffffffffffffffffffffffffff16612b96611b22565b73ffffffffffffffffffffffffffffffffffffffff1614612bec576040517f08c379a0000000000000000000000000000000000000000000000000000000008152600401612be390614d0b565b60405180910390fd5b600073ffffffffffffffffffffffffffffffffffffffff168173ffffffffffffffffffffffffffffffffffffffff161415612c5c576040517f08c379a0000000000000000000000000000000000000000000000000000000008152600401612c5390614b8b565b60405180910390fd5b612c6581613228565b50565b600c60009054906101000a900473ffffffffffffffffffffffffffffffffffffffff1681565b60007f01ffc9a7000000000000000000000000000000000000000000000000000000007bffffffffffffffffffffffffffffffffffffffffffffffffffffffff1916827bffffffffffffffffffffffffffffffffffffffffffffffffffffffff1916149050919050565b6000600960008573ffffffffffffffffffffffffffffffffffffffff1673ffffffffffffffffffffffffffffffffffffffff168152602001908152602001600020805480602002602001604051908101604052809291908181526020016000905b82821015612df5578382906000526020600020906003020160405180606001604052908160008201548152602001600182015481526020016002820160009054906101000a900473ffffffffffffffffffffffffffffffffffffffff1673ffffffffffffffffffffffffffffffffffffffff1673ffffffffffffffffffffffffffffffffffffffff168152505081526020019060010190612d59565b505050509050600960008573ffffffffffffffffffffffffffffffffffffffff1673ffffffffffffffffffffffffffffffffffffffff1681526020019081526020016000206000612e469190613cb9565b60005b81518110156130a25782828281518110612e6657612e656153ea565b5b60200260200101516000015114612f5c57600960008673ffffffffffffffffffffffffffffffffffffffff1673ffffffffffffffffffffffffffffffffffffffff168152602001908152602001600020828281518110612ec957612ec86153ea565b5b60200260200101519080600181540180825580915050600190039060005260206000209060030201600090919091909150600082015181600001556020820151816001015560408201518160020160006101000a81548173ffffffffffffffffffffffffffffffffffffffff021916908373ffffffffffffffffffffffffffffffffffffffff160217905550505061308f565b83828281518110612f7057612f6f6153ea565b5b60200260200101516040019073ffffffffffffffffffffffffffffffffffffffff16908173ffffffffffffffffffffffffffffffffffffffff1681525050600960008573ffffffffffffffffffffffffffffffffffffffff1673ffffffffffffffffffffffffffffffffffffffff16815260200190815260200160002082828151811061300057612fff6153ea565b5b60200260200101519080600181540180825580915050600190039060005260206000209060030201600090919091909150600082015181600001556020820151816001015560408201518160020160006101000a81548173ffffffffffffffffffffffffffffffffffffffff021916908373ffffffffffffffffffffffffffffffffffffffff16021790555050505b808061309a906152b5565b915050612e49565b5082600a600084815260200190815260200160002060006101000a81548173ffffffffffffffffffffffffffffffffffffffff021916908373ffffffffffffffffffffffffffffffffffffffff16021790555050505050565b60008073ffffffffffffffffffffffffffffffffffffffff166002600084815260200190815260200160002060009054906101000a900473ffffffffffffffffffffffffffffffffffffffff1673ffffffffffffffffffffffffffffffffffffffff1614159050919050565b600033905090565b816004600083815260200190815260200160002060006101000a81548173ffffffffffffffffffffffffffffffffffffffff021916908373ffffffffffffffffffffffffffffffffffffffff160217905550808273ffffffffffffffffffffffffffffffffffffffff166131e28361182a565b73ffffffffffffffffffffffffffffffffffffffff167f8c5be1e5ebec7d5bd14f71427d1e84f3dd0314c0f7b2291e5b200ac8c7c3b92560405160405180910390a45050565b6000600660009054906101000a900473ffffffffffffffffffffffffffffffffffffffff16905081600660006101000a81548173ffffffffffffffffffffffffffffffffffffffff021916908373ffffffffffffffffffffffffffffffffffffffff1602179055508173ffffffffffffffffffffffffffffffffffffffff168173ffffffffffffffffffffffffffffffffffffffff167f8be0079c531659141344cd1fd0a4f28419497f9722a3daafe3b4186f6b6457e060405160405180910390a35050565b60006132f9826130fb565b613338576040517f08c379a000000000000000000000000000000000000000000000000000000000815260040161332f90614c2b565b60405180910390fd5b60006133438361182a565b90508073ffffffffffffffffffffffffffffffffffffffff168473ffffffffffffffffffffffffffffffffffffffff1614806133b257508373ffffffffffffffffffffffffffffffffffffffff1661339a84610a08565b73ffffffffffffffffffffffffffffffffffffffff16145b806133c357506133c28185612adc565b5b91505092915050565b6133d78484846135be565b6133e38484848461381a565b613422576040517f08c379a000000000000000000000000000000000000000000000000000000000815260040161341990614b6b565b60405180910390fd5b50505050565b606060405180602001604052806000815250905090565b60606000821415613487576040518060400160405280600181526020017f3000000000000000000000000000000000000000000000000000000000000000815250905061359b565b600082905060005b600082146134b95780806134a2906152b5565b915050600a826134b2919061506b565b915061348f565b60008167ffffffffffffffff8111156134d5576134d4615419565b5b6040519080825280601f01601f1916602001820160405280156135075781602001600182028036833780820191505090505b5090505b600085146135945760018261352091906150f6565b9150600a8561352f919061532c565b603061353b9190615015565b60f81b818381518110613551576135506153ea565b5b60200101907effffffffffffffffffffffffffffffffffffffffffffffffffffffffffffff1916908160001a905350600a8561358d919061506b565b945061350b565b8093505050505b919050565b6135ba8282604051806020016040528060008152506139b1565b5050565b8273ffffffffffffffffffffffffffffffffffffffff166135de8261182a565b73ffffffffffffffffffffffffffffffffffffffff1614613634576040517f08c379a000000000000000000000000000000000000000000000000000000000815260040161362b90614d2b565b60405180910390fd5b600073ffffffffffffffffffffffffffffffffffffffff168273ffffffffffffffffffffffffffffffffffffffff1614156136a4576040517f08c379a000000000000000000000000000000000000000000000000000000000815260040161369b90614beb565b60405180910390fd5b6136af838383613a0c565b6136ba60008261316f565b6001600360008573ffffffffffffffffffffffffffffffffffffffff1673ffffffffffffffffffffffffffffffffffffffff168152602001908152602001600020600082825461370a91906150f6565b925050819055506001600360008473ffffffffffffffffffffffffffffffffffffffff1673ffffffffffffffffffffffffffffffffffffffff16815260200190815260200160002060008282546137619190615015565b92505081905550816002600083815260200190815260200160002060006101000a81548173ffffffffffffffffffffffffffffffffffffffff021916908373ffffffffffffffffffffffffffffffffffffffff160217905550808273ffffffffffffffffffffffffffffffffffffffff168473ffffffffffffffffffffffffffffffffffffffff167fddf252ad1be2c89b69c2b068fc378daa952ba7f163c4a11628f55a4df523b3ef60405160405180910390a4505050565b600061383b8473ffffffffffffffffffffffffffffffffffffffff16613a11565b156139a4578373ffffffffffffffffffffffffffffffffffffffff1663150b7a02613864613167565b8786866040518563ffffffff1660e01b81526004016138869493929190614a83565b602060405180830381600087803b1580156138a057600080fd5b505af19250505080156138d157506040513d601f19601f820116820180604052508101906138ce919061410e565b60015b613954573d8060008114613901576040519150601f19603f3d011682016040523d82523d6000602084013e613906565b606091505b5060008151141561394c576040517f08c379a000000000000000000000000000000000000000000000000000000000815260040161394390614b6b565b60405180910390fd5b805181602001fd5b63150b7a0260e01b7bffffffffffffffffffffffffffffffffffffffffffffffffffffffff1916817bffffffffffffffffffffffffffffffffffffffffffffffffffffffff1916149150506139a9565b600190505b949350505050565b6139bb8383613a24565b6139c8600084848461381a565b613a07576040517f08c379a00000000000000000000000000000000000000000000000000000000081526004016139fe90614b6b565b60405180910390fd5b505050565b505050565b600080823b905060008111915050919050565b600073ffffffffffffffffffffffffffffffffffffffff168273ffffffffffffffffffffffffffffffffffffffff161415613a94576040517f08c379a0000000000000000000000000000000000000000000000000000000008152600401613a8b90614ccb565b60405180910390fd5b613a9d816130fb565b15613add576040517f08c379a0000000000000000000000000000000000000000000000000000000008152600401613ad490614bab565b60405180910390fd5b613ae960008383613a0c565b6001600360008473ffffffffffffffffffffffffffffffffffffffff1673ffffffffffffffffffffffffffffffffffffffff1681526020019081526020016000206000828254613b399190615015565b92505081905550816002600083815260200190815260200160002060006101000a81548173ffffffffffffffffffffffffffffffffffffffff021916908373ffffffffffffffffffffffffffffffffffffffff160217905550808273ffffffffffffffffffffffffffffffffffffffff16600073ffffffffffffffffffffffffffffffffffffffff167fddf252ad1be2c89b69c2b068fc378daa952ba7f163c4a11628f55a4df523b3ef60405160405180910390a45050565b6040518060e0016040528060008152602001600081526020016000815260200160008152602001606081526020016000151581526020016000151581525090565b828054613c3f90615252565b90600052602060002090601f016020900481019282613c615760008555613ca8565b82601f10613c7a57805160ff1916838001178555613ca8565b82800160010185558215613ca8579182015b82811115613ca7578251825591602001919060010190613c8c565b5b509050613cb59190613d6a565b5090565b5080546000825560030290600052602060002090810190613cda9190613d87565b50565b828054613ce990615252565b90600052602060002090601f016020900481019282613d0b5760008555613d59565b82601f10613d1c5780548555613d59565b82800160010185558215613d5957600052602060002091601f016020900482015b82811115613d58578254825591600101919060010190613d3d565b5b509050613d669190613d6a565b5090565b5b80821115613d83576000816000905550600101613d6b565b5090565b5b80821115613dd15760008082016000905560018201600090556002820160006101000a81549073ffffffffffffffffffffffffffffffffffffffff021916905550600301613d88565b5090565b6000613de8613de384614eed565b614ec8565b905082815260208101848484011115613e0457613e0361544d565b5b613e0f8482856151e6565b509392505050565b6000613e2a613e2584614f1e565b614ec8565b905082815260208101848484011115613e4657613e4561544d565b5b613e518482856151e6565b509392505050565b600081359050613e6881615ab5565b92915050565b600081359050613e7d81615acc565b92915050565b600081359050613e9281615ae3565b92915050565b600081519050613ea781615ae3565b92915050565b600082601f830112613ec257613ec1615448565b5b8135613ed2848260208601613dd5565b91505092915050565b600082601f830112613ef057613eef615448565b5b8135613f00848260208601613e17565b91505092915050565b600081359050613f1881615afa565b92915050565b600060208284031215613f3457613f33615457565b5b6000613f4284828501613e59565b91505092915050565b60008060408385031215613f6257613f61615457565b5b6000613f7085828601613e59565b9250506020613f8185828601613e59565b9150509250929050565b600080600060608486031215613fa457613fa3615457565b5b6000613fb286828701613e59565b9350506020613fc386828701613e59565b9250506040613fd486828701613f09565b9150509250925092565b60008060008060808587031215613ff857613ff7615457565b5b600061400687828801613e59565b945050602061401787828801613e59565b935050604061402887828801613f09565b925050606085013567ffffffffffffffff81111561404957614048615452565b5b61405587828801613ead565b91505092959194509250565b6000806040838503121561407857614077615457565b5b600061408685828601613e59565b925050602061409785828601613e6e565b9150509250929050565b600080604083850312156140b8576140b7615457565b5b60006140c685828601613e59565b92505060206140d785828601613f09565b9150509250929050565b6000602082840312156140f7576140f6615457565b5b600061410584828501613e83565b91505092915050565b60006020828403121561412457614123615457565b5b600061413284828501613e98565b91505092915050565b60008060008060008060c0878903121561415857614157615457565b5b600087013567ffffffffffffffff81111561417657614175615452565b5b61418289828a01613edb565b965050602061419389828a01613f09565b95505060406141a489828a01613f09565b94505060606141b589828a01613f09565b93505060806141c689828a01613f09565b92505060a06141d789828a01613e6e565b9150509295509295509295565b6000602082840312156141fa576141f9615457565b5b600061420884828501613f09565b91505092915050565b6000806040838503121561422857614227615457565b5b600061423685828601613f09565b925050602061424785828601613f09565b9150509250929050565b600061425d8383614817565b905092915050565b6000614271838361494f565b60608301905092915050565b614286816151b0565b82525050565b6142958161513c565b82525050565b6142a48161512a565b82525050565b6142b38161512a565b82525050565b6142ca6142c58261512a565b6152fe565b82525050565b60006142db82614f6f565b6142e58185614fb5565b9350836020820285016142f785614f4f565b8060005b8581101561433357848403895281516143148582614251565b945061431f83614f9b565b925060208a019950506001810190506142fb565b50829750879550505050505092915050565b600061435082614f7a565b61435a8185614fc6565b935061436583614f5f565b8060005b8381101561439657815161437d8882614265565b975061438883614fa8565b925050600181019050614369565b5085935050505092915050565b6143ac8161514e565b82525050565b6143bb8161514e565b82525050565b6143ca8161515a565b82525050565b60006143db82614f85565b6143e58185614fd7565b93506143f58185602086016151f5565b6143fe8161545c565b840191505092915050565b600061441482614f90565b61441e8185614fe8565b935061442e8185602086016151f5565b6144378161545c565b840191505092915050565b600061444d82614f90565b6144578185614ff9565b93506144678185602086016151f5565b6144708161545c565b840191505092915050565b600061448682614f90565b614490818561500a565b93506144a08185602086016151f5565b80840191505092915050565b60006144b9603283614ff9565b91506144c48261547a565b604082019050919050565b60006144dc602683614ff9565b91506144e7826154c9565b604082019050919050565b60006144ff601c83614ff9565b915061450a82615518565b602082019050919050565b6000614522602283614ff9565b915061452d82615541565b604082019050919050565b6000614545602483614ff9565b915061455082615590565b604082019050919050565b6000614568601983614ff9565b9150614573826155df565b602082019050919050565b600061458b602c83614ff9565b915061459682615608565b604082019050919050565b60006145ae602383614ff9565b91506145b982615657565b604082019050919050565b60006145d1603883614ff9565b91506145dc826156a6565b604082019050919050565b60006145f4602a83614ff9565b91506145ff826156f5565b604082019050919050565b6000614617602983614ff9565b915061462282615744565b604082019050919050565b600061463a602083614ff9565b915061464582615793565b602082019050919050565b600061465d602c83614ff9565b9150614668826157bc565b604082019050919050565b6000614680602083614ff9565b915061468b8261580b565b602082019050919050565b60006146a3602983614ff9565b91506146ae82615834565b604082019050919050565b60006146c6602f83614ff9565b91506146d182615883565b604082019050919050565b60006146e9601783614ff9565b91506146f4826158d2565b602082019050919050565b600061470c602183614ff9565b9150614717826158fb565b604082019050919050565b600061472f602283614ff9565b915061473a8261594a565b604082019050919050565b6000614752600f83614ff9565b915061475d82615999565b602082019050919050565b6000614775603183614ff9565b9150614780826159c2565b604082019050919050565b6000614798601183614ff9565b91506147a382615a11565b602082019050919050565b60006147bb601183614ff9565b91506147c682615a3a565b602082019050919050565b60006147de601383614ff9565b91506147e982615a63565b602082019050919050565b6000614801601083614ff9565b915061480c82615a8c565b602082019050919050565b600060e08301600083015161482f6000860182614991565b5060208301516148426020860182614991565b5060408301516148556040860182614991565b5060608301516148686060860182614991565b50608083015184820360808601526148808282614409565b91505060a083015161489560a08601826143a3565b5060c08301516148a860c08601826143a3565b508091505092915050565b600060e0830160008301516148cb6000860182614991565b5060208301516148de6020860182614991565b5060408301516148f16040860182614991565b5060608301516149046060860182614991565b506080830151848203608086015261491c8282614409565b91505060a083015161493160a08601826143a3565b5060c083015161494460c08601826143a3565b508091505092915050565b6060820160008201516149656000850182614991565b5060208201516149786020850182614991565b50604082015161498b604085018261429b565b50505050565b61499a816151a6565b82525050565b6149a9816151a6565b82525050565b6149c06149bb826151a6565b615322565b82525050565b60006149d2828561447b565b91506149de828461447b565b91508190509392505050565b60006149f682856149af565b602082019150614a0682846142b9565b6014820191508190509392505050565b6000602082019050614a2b60008301846142aa565b92915050565b6000602082019050614a46600083018461428c565b92915050565b6000606082019050614a61600083018661427d565b614a6e60208301856142aa565b614a7b60408301846149a0565b949350505050565b6000608082019050614a9860008301876142aa565b614aa560208301866142aa565b614ab260408301856149a0565b8181036060830152614ac481846143d0565b905095945050505050565b60006020820190508181036000830152614ae981846142d0565b905092915050565b60006020820190508181036000830152614b0b8184614345565b905092915050565b6000602082019050614b2860008301846143b2565b92915050565b6000602082019050614b4360008301846143c1565b92915050565b60006020820190508181036000830152614b638184614442565b905092915050565b60006020820190508181036000830152614b84816144ac565b9050919050565b60006020820190508181036000830152614ba4816144cf565b9050919050565b60006020820190508181036000830152614bc4816144f2565b9050919050565b60006020820190508181036000830152614be481614515565b9050919050565b60006020820190508181036000830152614c0481614538565b9050919050565b60006020820190508181036000830152614c248161455b565b9050919050565b60006020820190508181036000830152614c448161457e565b9050919050565b60006020820190508181036000830152614c64816145a1565b9050919050565b60006020820190508181036000830152614c84816145c4565b9050919050565b60006020820190508181036000830152614ca4816145e7565b9050919050565b60006020820190508181036000830152614cc48161460a565b9050919050565b60006020820190508181036000830152614ce48161462d565b9050919050565b60006020820190508181036000830152614d0481614650565b9050919050565b60006020820190508181036000830152614d2481614673565b9050919050565b60006020820190508181036000830152614d4481614696565b9050919050565b60006020820190508181036000830152614d64816146b9565b9050919050565b60006020820190508181036000830152614d84816146dc565b9050919050565b60006020820190508181036000830152614da4816146ff565b9050919050565b60006020820190508181036000830152614dc481614722565b9050919050565b60006020820190508181036000830152614de481614745565b9050919050565b60006020820190508181036000830152614e0481614768565b9050919050565b60006020820190508181036000830152614e248161478b565b9050919050565b60006020820190508181036000830152614e44816147ae565b9050919050565b60006020820190508181036000830152614e64816147d1565b9050919050565b60006020820190508181036000830152614e84816147f4565b9050919050565b60006020820190508181036000830152614ea581846148b3565b905092915050565b6000602082019050614ec260008301846149a0565b92915050565b6000614ed2614ee3565b9050614ede8282615284565b919050565b6000604051905090565b600067ffffffffffffffff821115614f0857614f07615419565b5b614f118261545c565b9050602081019050919050565b600067ffffffffffffffff821115614f3957614f38615419565b5b614f428261545c565b9050602081019050919050565b6000819050602082019050919050565b6000819050602082019050919050565b600081519050919050565b600081519050919050565b600081519050919050565b600081519050919050565b6000602082019050919050565b6000602082019050919050565b600082825260208201905092915050565b600082825260208201905092915050565b600082825260208201905092915050565b600082825260208201905092915050565b600082825260208201905092915050565b600081905092915050565b6000615020826151a6565b915061502b836151a6565b9250827fffffffffffffffffffffffffffffffffffffffffffffffffffffffffffffffff038211156150605761505f61535d565b5b828201905092915050565b6000615076826151a6565b9150615081836151a6565b9250826150915761509061538c565b5b828204905092915050565b60006150a7826151a6565b91506150b2836151a6565b9250817fffffffffffffffffffffffffffffffffffffffffffffffffffffffffffffffff04831182151516156150eb576150ea61535d565b5b828202905092915050565b6000615101826151a6565b915061510c836151a6565b92508282101561511f5761511e61535d565b5b828203905092915050565b600061513582615186565b9050919050565b600061514782615186565b9050919050565b60008115159050919050565b60007fffffffff0000000000000000000000000000000000000000000000000000000082169050919050565b600073ffffffffffffffffffffffffffffffffffffffff82169050919050565b6000819050919050565b60006151bb826151c2565b9050919050565b60006151cd826151d4565b9050919050565b60006151df82615186565b9050919050565b82818337600083830152505050565b60005b838110156152135780820151818401526020810190506151f8565b83811115615222576000848401525b50505050565b6000615233826151a6565b915060008214156152475761524661535d565b5b600182039050919050565b6000600282049050600182168061526a57607f821691505b6020821081141561527e5761527d6153bb565b5b50919050565b61528d8261545c565b810181811067ffffffffffffffff821117156152ac576152ab615419565b5b80604052505050565b60006152c0826151a6565b91507fffffffffffffffffffffffffffffffffffffffffffffffffffffffffffffffff8214156152f3576152f261535d565b5b600182019050919050565b600061530982615310565b9050919050565b600061531b8261546d565b9050919050565b6000819050919050565b6000615337826151a6565b9150615342836151a6565b9250826153525761535161538c565b5b828206905092915050565b7f4e487b7100000000000000000000000000000000000000000000000000000000600052601160045260246000fd5b7f4e487b7100000000000000000000000000000000000000000000000000000000600052601260045260246000fd5b7f4e487b7100000000000000000000000000000000000000000000000000000000600052602260045260246000fd5b7f4e487b7100000000000000000000000000000000000000000000000000000000600052603260045260246000fd5b7f4e487b7100000000000000000000000000000000000000000000000000000000600052604160045260246000fd5b600080fd5b600080fd5b600080fd5b600080fd5b6000601f19601f8301169050919050565b60008160601b9050919050565b7f4552433732313a207472616e7366657220746f206e6f6e20455243373231526560008201527f63656976657220696d706c656d656e7465720000000000000000000000000000602082015250565b7f4f776e61626c653a206e6577206f776e657220697320746865207a65726f206160008201527f6464726573730000000000000000000000000000000000000000000000000000602082015250565b7f4552433732313a20746f6b656e20616c7265616479206d696e74656400000000600082015250565b7f5468657265206973206e6f206d6f726520706f6c6974696320617661696c616260008201527f6c65000000000000000000000000000000000000000000000000000000000000602082015250565b7f4552433732313a207472616e7366657220746f20746865207a65726f2061646460008201527f7265737300000000000000000000000000000000000000000000000000000000602082015250565b7f4552433732313a20617070726f766520746f2063616c6c657200000000000000600082015250565b7f4552433732313a206f70657261746f7220717565727920666f72206e6f6e657860008201527f697374656e7420746f6b656e0000000000000000000000000000000000000000602082015250565b7f506f6c69746963206f6e6c7920617661696c61626c652077697468206c6f747460008201527f6572790000000000000000000000000000000000000000000000000000000000602082015250565b7f4552433732313a20617070726f76652063616c6c6572206973206e6f74206f7760008201527f6e6572206e6f7220617070726f76656420666f7220616c6c0000000000000000602082015250565b7f4552433732313a2062616c616e636520717565727920666f7220746865207a6560008201527f726f206164647265737300000000000000000000000000000000000000000000602082015250565b7f4552433732313a206f776e657220717565727920666f72206e6f6e657869737460008201527f656e7420746f6b656e0000000000000000000000000000000000000000000000602082015250565b7f4552433732313a206d696e7420746f20746865207a65726f2061646472657373600082015250565b7f4552433732313a20617070726f76656420717565727920666f72206e6f6e657860008201527f697374656e7420746f6b656e0000000000000000000000000000000000000000602082015250565b7f4f776e61626c653a2063616c6c6572206973206e6f7420746865206f776e6572600082015250565b7f4552433732313a207472616e73666572206f6620746f6b656e2074686174206960008201527f73206e6f74206f776e0000000000000000000000000000000000000000000000602082015250565b7f4552433732314d657461646174613a2055524920717565727920666f72206e6f60008201527f6e6578697374656e7420746f6b656e0000000000000000000000000000000000602082015250565b7f506f6c6974696369616e206e6f7420666f722073616c65000000000000000000600082015250565b7f4552433732313a20617070726f76616c20746f2063757272656e74206f776e6560008201527f7200000000000000000000000000000000000000000000000000000000000000602082015250565b7f596f7520617265206e6f7420746865206f776e6572206f662074686520746f6b60008201527f656e000000000000000000000000000000000000000000000000000000000000602082015250565b7f596f757220706f6c6974696369616e0000000000000000000000000000000000600082015250565b7f4552433732313a207472616e736665722063616c6c6572206973206e6f74206f60008201527f776e6572206e6f7220617070726f766564000000000000000000000000000000602082015250565b7f696420616c726561647920696e20757365000000000000000000000000000000600082015250565b7f506f6c69746963206e6f7420666f756e64000000000000000000000000000000600082015250565b7f4e6f7420796f757220706f6c6974696369616e00000000000000000000000000600082015250565b7f496e636f727265637420616d6f756e7400000000000000000000000000000000600082015250565b615abe8161512a565b8114615ac957600080fd5b50565b615ad58161514e565b8114615ae057600080fd5b50565b615aec8161515a565b8114615af757600080fd5b50565b615b03816151a6565b8114615b0e57600080fd5b5056fea2646970667358221220710c961ea11a51cb6c1fd52185780eb05d8b92ca947154903246ce03a8ba3fe864736f6c63430008070033",
  "immutableReferences": {},
  "source": "// SPDX-License-Identifier: MIT\n\npragma solidity ^0.8.0;\nimport \"./LotteryFactory.sol\";\n\n/**\n* @title ERC721 collectible based on politicians\n* @author Youness Chetoui\n*/\ncontract PoliticsCollectible is LotteryFactory {\n}\n",
  "sourcePath": "/home/youness/Crypto/PoliticsCollectible/contracts/PoliticsCollectible.sol",
  "compiler": {
    "name": "solc",
    "version": "0.8.7+commit.e28d00a7.Emscripten.clang"
  },
  "schemaVersion": "3.4.3",
  "updatedAt": "2021-08-31T12:53:22.489Z",
  "devdoc": {
    "author": "Youness Chetoui",
    "kind": "dev",
    "methods": {
      "addQty(uint256,uint256)": {
        "params": {
          "_id": "of PoliticsAvailable and _qty wished"
        }
      },
      "approve(address,uint256)": {
        "details": "See {IERC721-approve}."
      },
      "balanceOf(address)": {
        "details": "See {IERC721-balanceOf}."
      },
      "buy(uint256)": {
        "params": {
          "_id": "of politician available"
        }
      },
      "buyPoliticsForSale(uint256)": {
        "params": {
          "_tokenId": "of politician for sale"
        }
      },
      "cancelSell(uint256)": {
        "params": {
          "_tokenId": "of politician for sale"
        }
      },
      "create(string,uint256,uint256,uint256,uint256,bool)": {
        "params": {
          "_name": ", _id, _qty, _level, _price and _lottery of politician available"
        },
        "returns": {
          "_0": "PoliticsAvailable created"
        }
      },
      "forSale(uint256,uint256)": {
        "params": {
          "_tokenId": "of politician owned and _price wished"
        }
      },
      "getApproved(uint256)": {
        "details": "See {IERC721-getApproved}."
      },
      "getMyPolitics()": {
        "returns": {
          "_0": "array of struct PoliticsOwned"
        }
      },
      "getPolitic(uint256)": {
        "params": {
          "_id": "of politician"
        },
        "returns": {
          "_0": "struct PoliticsAvailable"
        }
      },
      "getPolitics()": {
        "returns": {
          "_0": "Array of struct PoliticsAvailable"
        }
      },
      "isApprovedForAll(address,address)": {
        "details": "See {IERC721-isApprovedForAll}."
      },
      "name()": {
        "details": "See {IERC721Metadata-name}."
      },
      "onERC721Received(address,address,uint256,bytes)": {
        "details": "See {IERC721Receiver-onERC721Received}. Always returns `IERC721Receiver.onERC721Received.selector`."
      },
      "owner()": {
        "details": "Returns the address of the current owner."
      },
      "ownerOf(uint256)": {
        "details": "See {IERC721-ownerOf}."
      },
      "renounceOwnership()": {
        "details": "Leaves the contract without owner. It will not be possible to call `onlyOwner` functions anymore. Can only be called by the current owner. NOTE: Renouncing ownership will leave the contract without an owner, thereby removing any functionality that is only available to the owner."
      },
      "safeTransferFrom(address,address,uint256)": {
        "details": "See {IERC721-safeTransferFrom}."
      },
      "safeTransferFrom(address,address,uint256,bytes)": {
        "params": {
          "from": "politician wallet address, to wallet address of receiver, tokenId of politician to transfer, _data"
        }
      },
      "setApprovalForAll(address,bool)": {
        "details": "See {IERC721-setApprovalForAll}."
      },
      "supportsInterface(bytes4)": {
        "details": "See {IERC165-supportsInterface}."
      },
      "symbol()": {
        "details": "See {IERC721Metadata-symbol}."
      },
      "tokenURI(uint256)": {
        "details": "See {IERC721Metadata-tokenURI}."
      },
      "transferOwnership(address)": {
        "details": "Transfers ownership of the contract to a new account (`newOwner`). Can only be called by the current owner."
      }
    },
    "title": "ERC721 collectible based on politicians",
    "version": 1
  },
  "userdoc": {
    "kind": "user",
    "methods": {
      "addQty(uint256,uint256)": {
        "notice": "Add quantity for a PoliticsAvailable"
      },
      "buy(uint256)": {
        "notice": "Buy politician"
      },
      "buyPoliticsForSale(uint256)": {
        "notice": "Buy politician"
      },
      "cancelSell(uint256)": {
        "notice": "Cancel the sell of politician"
      },
      "create(string,uint256,uint256,uint256,uint256,bool)": {
        "notice": "Create politician"
      },
      "forSale(uint256,uint256)": {
        "notice": "Up for sale of owned politician"
      },
      "getMyPolitics()": {
        "notice": "Get politician by user"
      },
      "getPolitic(uint256)": {
        "notice": "get politician available by id"
      },
      "getPolitics()": {
        "notice": "get list of all politician available"
      },
      "safeTransferFrom(address,address,uint256,bytes)": {
        "notice": "Transfer Politic"
      },
      "transferFrom(address,address,uint256)": {
        "notice": "Disabled not safe transform"
      }
    },
    "version": 1
  }
}