{
  "contractName": "PoliticsCollectible",
  "abi": [
    {
      "anonymous": false,
      "inputs": [
        {
          "indexed": true,
          "internalType": "address",
          "name": "owner",
          "type": "address"
        },
        {
          "indexed": true,
          "internalType": "address",
          "name": "approved",
          "type": "address"
        },
        {
          "indexed": true,
          "internalType": "uint256",
          "name": "tokenId",
          "type": "uint256"
        }
      ],
      "name": "Approval",
      "type": "event"
    },
    {
      "anonymous": false,
      "inputs": [
        {
          "indexed": true,
          "internalType": "address",
          "name": "owner",
          "type": "address"
        },
        {
          "indexed": true,
          "internalType": "address",
          "name": "operator",
          "type": "address"
        },
        {
          "indexed": false,
          "internalType": "bool",
          "name": "approved",
          "type": "bool"
        }
      ],
      "name": "ApprovalForAll",
      "type": "event"
    },
    {
      "anonymous": false,
      "inputs": [
        {
          "indexed": true,
          "internalType": "address",
          "name": "previousOwner",
          "type": "address"
        },
        {
          "indexed": true,
          "internalType": "address",
          "name": "newOwner",
          "type": "address"
        }
      ],
      "name": "OwnershipTransferred",
      "type": "event"
    },
    {
      "anonymous": false,
      "inputs": [
        {
          "indexed": true,
          "internalType": "address",
          "name": "from",
          "type": "address"
        },
        {
          "indexed": true,
          "internalType": "address",
          "name": "to",
          "type": "address"
        },
        {
          "indexed": true,
          "internalType": "uint256",
          "name": "tokenId",
          "type": "uint256"
        }
      ],
      "name": "Transfer",
      "type": "event"
    },
    {
      "inputs": [
        {
          "internalType": "uint256",
          "name": "_id",
          "type": "uint256"
        },
        {
          "internalType": "uint256",
          "name": "_qty",
          "type": "uint256"
        }
      ],
      "name": "addQty",
      "outputs": [],
      "stateMutability": "nonpayable",
      "type": "function"
    },
    {
      "inputs": [
        {
          "internalType": "address",
          "name": "to",
          "type": "address"
        },
        {
          "internalType": "uint256",
          "name": "tokenId",
          "type": "uint256"
        }
      ],
      "name": "approve",
      "outputs": [],
      "stateMutability": "nonpayable",
      "type": "function"
    },
    {
      "inputs": [
        {
          "internalType": "address",
          "name": "owner",
          "type": "address"
        }
      ],
      "name": "balanceOf",
      "outputs": [
        {
          "internalType": "uint256",
          "name": "",
          "type": "uint256"
        }
      ],
      "stateMutability": "view",
      "type": "function"
    },
    {
      "inputs": [
        {
          "internalType": "uint256",
          "name": "_id",
          "type": "uint256"
        }
      ],
      "name": "buy",
      "outputs": [],
      "stateMutability": "payable",
      "type": "function"
    },
    {
      "inputs": [
        {
          "internalType": "uint256",
          "name": "_tokenId",
          "type": "uint256"
        }
      ],
      "name": "buyPoliticsForSale",
      "outputs": [],
      "stateMutability": "payable",
      "type": "function"
    },
    {
      "inputs": [],
      "name": "contractAddress",
      "outputs": [
        {
          "internalType": "address payable",
          "name": "",
          "type": "address"
        }
      ],
      "stateMutability": "view",
      "type": "function"
    },
    {
      "inputs": [
        {
          "internalType": "string",
          "name": "_name",
          "type": "string"
        },
        {
          "internalType": "uint256",
          "name": "_id",
          "type": "uint256"
        },
        {
          "internalType": "uint256",
          "name": "_qty",
          "type": "uint256"
        },
        {
          "internalType": "uint256",
          "name": "_level",
          "type": "uint256"
        },
        {
          "internalType": "uint256",
          "name": "_price",
          "type": "uint256"
        },
        {
          "internalType": "bool",
          "name": "_lottery",
          "type": "bool"
        }
      ],
      "name": "createType",
      "outputs": [
        {
          "components": [
            {
              "internalType": "uint256",
              "name": "id",
              "type": "uint256"
            },
            {
              "internalType": "uint256",
              "name": "qty",
              "type": "uint256"
            },
            {
              "internalType": "uint256",
              "name": "level",
              "type": "uint256"
            },
            {
              "internalType": "uint256",
              "name": "price",
              "type": "uint256"
            },
            {
              "internalType": "string",
              "name": "name",
              "type": "string"
            },
            {
              "internalType": "bool",
              "name": "lottery",
              "type": "bool"
            },
            {
              "internalType": "bool",
              "name": "created",
              "type": "bool"
            }
          ],
          "internalType": "struct Collectible.PoliticsAvailable",
          "name": "",
          "type": "tuple"
        }
      ],
      "stateMutability": "nonpayable",
      "type": "function"
    },
    {
      "inputs": [
        {
          "internalType": "uint256",
          "name": "_tokenId",
          "type": "uint256"
        },
        {
          "internalType": "uint256",
          "name": "_price",
          "type": "uint256"
        }
      ],
      "name": "forSale",
      "outputs": [],
      "stateMutability": "nonpayable",
      "type": "function"
    },
    {
      "inputs": [
        {
          "internalType": "uint256",
          "name": "tokenId",
          "type": "uint256"
        }
      ],
      "name": "getApproved",
      "outputs": [
        {
          "internalType": "address",
          "name": "",
          "type": "address"
        }
      ],
      "stateMutability": "view",
      "type": "function"
    },
    {
      "inputs": [],
      "name": "getMyPolitics",
      "outputs": [
        {
          "components": [
            {
              "internalType": "uint256",
              "name": "id",
              "type": "uint256"
            },
            {
              "internalType": "uint256",
              "name": "id_politic",
              "type": "uint256"
            },
            {
              "internalType": "address",
              "name": "owner",
              "type": "address"
            }
          ],
          "internalType": "struct Collectible.PoliticsOwned[]",
          "name": "",
          "type": "tuple[]"
        }
      ],
      "stateMutability": "view",
      "type": "function"
    },
    {
      "inputs": [
        {
          "internalType": "uint256",
          "name": "_id",
          "type": "uint256"
        }
      ],
      "name": "getPolitic",
      "outputs": [
        {
          "components": [
            {
              "internalType": "uint256",
              "name": "id",
              "type": "uint256"
            },
            {
              "internalType": "uint256",
              "name": "qty",
              "type": "uint256"
            },
            {
              "internalType": "uint256",
              "name": "level",
              "type": "uint256"
            },
            {
              "internalType": "uint256",
              "name": "price",
              "type": "uint256"
            },
            {
              "internalType": "string",
              "name": "name",
              "type": "string"
            },
            {
              "internalType": "bool",
              "name": "lottery",
              "type": "bool"
            },
            {
              "internalType": "bool",
              "name": "created",
              "type": "bool"
            }
          ],
          "internalType": "struct Collectible.PoliticsAvailable",
          "name": "",
          "type": "tuple"
        }
      ],
      "stateMutability": "view",
      "type": "function"
    },
    {
      "inputs": [],
      "name": "getPolitics",
      "outputs": [
        {
          "components": [
            {
              "internalType": "uint256",
              "name": "id",
              "type": "uint256"
            },
            {
              "internalType": "uint256",
              "name": "qty",
              "type": "uint256"
            },
            {
              "internalType": "uint256",
              "name": "level",
              "type": "uint256"
            },
            {
              "internalType": "uint256",
              "name": "price",
              "type": "uint256"
            },
            {
              "internalType": "string",
              "name": "name",
              "type": "string"
            },
            {
              "internalType": "bool",
              "name": "lottery",
              "type": "bool"
            },
            {
              "internalType": "bool",
              "name": "created",
              "type": "bool"
            }
          ],
          "internalType": "struct Collectible.PoliticsAvailable[]",
          "name": "",
          "type": "tuple[]"
        }
      ],
      "stateMutability": "view",
      "type": "function"
    },
    {
      "inputs": [
        {
          "internalType": "address",
          "name": "owner",
          "type": "address"
        },
        {
          "internalType": "address",
          "name": "operator",
          "type": "address"
        }
      ],
      "name": "isApprovedForAll",
      "outputs": [
        {
          "internalType": "bool",
          "name": "",
          "type": "bool"
        }
      ],
      "stateMutability": "view",
      "type": "function"
    },
    {
      "inputs": [],
      "name": "name",
      "outputs": [
        {
          "internalType": "string",
          "name": "",
          "type": "string"
        }
      ],
      "stateMutability": "view",
      "type": "function"
    },
    {
      "inputs": [],
      "name": "owner",
      "outputs": [
        {
          "internalType": "address",
          "name": "",
          "type": "address"
        }
      ],
      "stateMutability": "view",
      "type": "function"
    },
    {
      "inputs": [],
      "name": "ownerAddress",
      "outputs": [
        {
          "internalType": "address payable",
          "name": "",
          "type": "address"
        }
      ],
      "stateMutability": "view",
      "type": "function"
    },
    {
      "inputs": [
        {
          "internalType": "uint256",
          "name": "tokenId",
          "type": "uint256"
        }
      ],
      "name": "ownerOf",
      "outputs": [
        {
          "internalType": "address",
          "name": "",
          "type": "address"
        }
      ],
      "stateMutability": "view",
      "type": "function"
    },
    {
      "inputs": [],
      "name": "renounceOwnership",
      "outputs": [],
      "stateMutability": "nonpayable",
      "type": "function"
    },
    {
      "inputs": [
        {
          "internalType": "address",
          "name": "from",
          "type": "address"
        },
        {
          "internalType": "address",
          "name": "to",
          "type": "address"
        },
        {
          "internalType": "uint256",
          "name": "tokenId",
          "type": "uint256"
        }
      ],
      "name": "safeTransferFrom",
      "outputs": [],
      "stateMutability": "nonpayable",
      "type": "function"
    },
    {
      "inputs": [
        {
          "internalType": "address",
          "name": "from",
          "type": "address"
        },
        {
          "internalType": "address",
          "name": "to",
          "type": "address"
        },
        {
          "internalType": "uint256",
          "name": "tokenId",
          "type": "uint256"
        },
        {
          "internalType": "bytes",
          "name": "_data",
          "type": "bytes"
        }
      ],
      "name": "safeTransferFrom",
      "outputs": [],
      "stateMutability": "nonpayable",
      "type": "function"
    },
    {
      "inputs": [
        {
          "internalType": "address",
          "name": "operator",
          "type": "address"
        },
        {
          "internalType": "bool",
          "name": "approved",
          "type": "bool"
        }
      ],
      "name": "setApprovalForAll",
      "outputs": [],
      "stateMutability": "nonpayable",
      "type": "function"
    },
    {
      "inputs": [
        {
          "internalType": "bytes4",
          "name": "interfaceId",
          "type": "bytes4"
        }
      ],
      "name": "supportsInterface",
      "outputs": [
        {
          "internalType": "bool",
          "name": "",
          "type": "bool"
        }
      ],
      "stateMutability": "view",
      "type": "function"
    },
    {
      "inputs": [],
      "name": "symbol",
      "outputs": [
        {
          "internalType": "string",
          "name": "",
          "type": "string"
        }
      ],
      "stateMutability": "view",
      "type": "function"
    },
    {
      "inputs": [
        {
          "internalType": "uint256",
          "name": "tokenId",
          "type": "uint256"
        }
      ],
      "name": "tokenURI",
      "outputs": [
        {
          "internalType": "string",
          "name": "",
          "type": "string"
        }
      ],
      "stateMutability": "view",
      "type": "function"
    },
    {
      "inputs": [
        {
          "internalType": "address",
          "name": "from",
          "type": "address"
        },
        {
          "internalType": "address",
          "name": "to",
          "type": "address"
        },
        {
          "internalType": "uint256",
          "name": "tokenId",
          "type": "uint256"
        }
      ],
      "name": "transferFrom",
      "outputs": [],
      "stateMutability": "nonpayable",
      "type": "function"
    },
    {
      "inputs": [
        {
          "internalType": "address",
          "name": "newOwner",
          "type": "address"
        }
      ],
      "name": "transferOwnership",
      "outputs": [],
      "stateMutability": "nonpayable",
      "type": "function"
    },
    {
      "inputs": [
        {
          "internalType": "uint256",
          "name": "_id",
          "type": "uint256"
        }
      ],
      "name": "you",
      "outputs": [
        {
          "internalType": "uint256",
          "name": "",
          "type": "uint256"
        }
      ],
      "stateMutability": "view",
      "type": "function"
    },
    {
      "inputs": [
        {
          "internalType": "uint256",
          "name": "_id",
          "type": "uint256"
        }
      ],
      "name": "youn",
      "outputs": [
        {
          "internalType": "uint256",
          "name": "",
          "type": "uint256"
        }
      ],
      "stateMutability": "view",
      "type": "function"
    }
  ],
  "bytecode": "0x60806040526001600d556005600f553480156200001b57600080fd5b506040518060400160405280600b81526020017f506f6c69746963734e66740000000000000000000000000000000000000000008152506040518060400160405280600381526020017f504f4c00000000000000000000000000000000000000000000000000000000008152508160009080519060200190620000a092919062000232565b508060019080519060200190620000b992919062000232565b505050620000dc620000d06200016460201b60201c565b6200016c60201b60201c565b33600b60006101000a81548173ffffffffffffffffffffffffffffffffffffffff021916908373ffffffffffffffffffffffffffffffffffffffff16021790555030600c60006101000a81548173ffffffffffffffffffffffffffffffffffffffff021916908373ffffffffffffffffffffffffffffffffffffffff16021790555062000347565b600033905090565b6000600660009054906101000a900473ffffffffffffffffffffffffffffffffffffffff16905081600660006101000a81548173ffffffffffffffffffffffffffffffffffffffff021916908373ffffffffffffffffffffffffffffffffffffffff1602179055508173ffffffffffffffffffffffffffffffffffffffff168173ffffffffffffffffffffffffffffffffffffffff167f8be0079c531659141344cd1fd0a4f28419497f9722a3daafe3b4186f6b6457e060405160405180910390a35050565b8280546200024090620002e2565b90600052602060002090601f016020900481019282620002645760008555620002b0565b82601f106200027f57805160ff1916838001178555620002b0565b82800160010185558215620002b0579182015b82811115620002af57825182559160200191906001019062000292565b5b509050620002bf9190620002c3565b5090565b5b80821115620002de576000816000905550600101620002c4565b5090565b60006002820490506001821680620002fb57607f821691505b6020821081141562000312576200031162000318565b5b50919050565b7f4e487b7100000000000000000000000000000000000000000000000000000000600052602260045260246000fd5b615bd480620003576000396000f3fe6080604052600436106101b75760003560e01c806385d33436116100ec578063b9db1c981161008a578063d96a094a11610064578063d96a094a14610635578063e985e9c514610651578063f2fde38b1461068e578063f6b4dfb4146106b7576101b7565b8063b9db1c9814610592578063c3d64ec9146105bb578063c87b56dd146105f8576101b7565b806395d89b41116100c657806395d89b41146104d8578063a22cb46514610503578063b87f0cd21461052c578063b88d4fde14610569576101b7565b806385d33436146104575780638da5cb5b146104825780638f84aa09146104ad576101b7565b806342842e0e116101595780635ad16b7f116101335780635ad16b7f146103895780636352211e146103c657806370a0823114610403578063715018a614610440576101b7565b806342842e0e1461031b578063546f9e671461034457806354b3efa614610360576101b7565b8063095ea7b311610195578063095ea7b31461026157806323b872dd1461028a57806330f105cd146102b35780633b27f082146102de576101b7565b806301ffc9a7146101bc57806306fdde03146101f9578063081812fc14610224575b600080fd5b3480156101c857600080fd5b506101e360048036038101906101de91906142ec565b6106e2565b6040516101f09190614c83565b60405180910390f35b34801561020557600080fd5b5061020e6107c4565b60405161021b9190614c9e565b60405180910390f35b34801561023057600080fd5b5061024b600480360381019061024691906143ef565b610856565b6040516102589190614bbd565b60405180910390f35b34801561026d57600080fd5b50610288600480360381019061028391906142ac565b6108db565b005b34801561029657600080fd5b506102b160048036038101906102ac9190614196565b6109f3565b005b3480156102bf57600080fd5b506102c8610a74565b6040516102d59190614c3f565b60405180910390f35b3480156102ea57600080fd5b50610305600480360381019061030091906143ef565b610c3f565b6040516103129190614fc2565b60405180910390f35b34801561032757600080fd5b50610342600480360381019061033d9190614196565b610c50565b005b61035e600480360381019061035991906143ef565b610c70565b005b34801561036c57600080fd5b506103876004803603810190610382919061441c565b611334565b005b34801561039557600080fd5b506103b060048036038101906103ab91906143ef565b61197b565b6040516103bd9190614fa0565b60405180910390f35b3480156103d257600080fd5b506103ed60048036038101906103e891906143ef565b611b77565b6040516103fa9190614bbd565b60405180910390f35b34801561040f57600080fd5b5061042a60048036038101906104259190614129565b611c29565b6040516104379190614fc2565b60405180910390f35b34801561044c57600080fd5b50610455611ce1565b005b34801561046357600080fd5b5061046c611d69565b6040516104799190614c61565b60405180910390f35b34801561048e57600080fd5b50610497611e6f565b6040516104a49190614bbd565b60405180910390f35b3480156104b957600080fd5b506104c2611e99565b6040516104cf9190614bd8565b60405180910390f35b3480156104e457600080fd5b506104ed611ebf565b6040516104fa9190614c9e565b60405180910390f35b34801561050f57600080fd5b5061052a6004803603810190610525919061426c565b611f51565b005b34801561053857600080fd5b50610553600480360381019061054e9190614346565b6120d2565b6040516105609190614fa0565b60405180910390f35b34801561057557600080fd5b50610590600480360381019061058b91906141e9565b612353565b005b34801561059e57600080fd5b506105b960048036038101906105b4919061441c565b6127b3565b005b3480156105c757600080fd5b506105e260048036038101906105dd91906143ef565b6129b9565b6040516105ef9190614fc2565b60405180910390f35b34801561060457600080fd5b5061061f600480360381019061061a91906143ef565b6129f9565b60405161062c9190614c9e565b60405180910390f35b61064f600480360381019061064a91906143ef565b612aa0565b005b34801561065d57600080fd5b5061067860048036038101906106739190614156565b6130ea565b6040516106859190614c83565b60405180910390f35b34801561069a57600080fd5b506106b560048036038101906106b09190614129565b61317e565b005b3480156106c357600080fd5b506106cc613276565b6040516106d99190614bd8565b60405180910390f35b60007f80ac58cd000000000000000000000000000000000000000000000000000000007bffffffffffffffffffffffffffffffffffffffffffffffffffffffff1916827bffffffffffffffffffffffffffffffffffffffffffffffffffffffff191614806107ad57507f5b5e139f000000000000000000000000000000000000000000000000000000007bffffffffffffffffffffffffffffffffffffffffffffffffffffffff1916827bffffffffffffffffffffffffffffffffffffffffffffffffffffffff1916145b806107bd57506107bc8261329c565b5b9050919050565b6060600080546107d390615331565b80601f01602080910402602001604051908101604052809291908181526020018280546107ff90615331565b801561084c5780601f106108215761010080835404028352916020019161084c565b820191906000526020600020905b81548152906001019060200180831161082f57829003601f168201915b5050505050905090565b600061086182613306565b6108a0576040517f08c379a000000000000000000000000000000000000000000000000000000000815260040161089790614e60565b60405180910390fd5b6004600083815260200190815260200160002060009054906101000a900473ffffffffffffffffffffffffffffffffffffffff169050919050565b60006108e682611b77565b90508073ffffffffffffffffffffffffffffffffffffffff168373ffffffffffffffffffffffffffffffffffffffff161415610957576040517f08c379a000000000000000000000000000000000000000000000000000000000815260040161094e90614ee0565b60405180910390fd5b8073ffffffffffffffffffffffffffffffffffffffff16610976613372565b73ffffffffffffffffffffffffffffffffffffffff1614806109a557506109a48161099f613372565b6130ea565b5b6109e4576040517f08c379a00000000000000000000000000000000000000000000000000000000081526004016109db90614de0565b60405180910390fd5b6109ee838361337a565b505050565b6109fb613372565b73ffffffffffffffffffffffffffffffffffffffff16610a19611e6f565b73ffffffffffffffffffffffffffffffffffffffff1614610a6f576040517f08c379a0000000000000000000000000000000000000000000000000000000008152600401610a6690614e80565b60405180910390fd5b505050565b6060610a7e613372565b73ffffffffffffffffffffffffffffffffffffffff16610a9c611e6f565b73ffffffffffffffffffffffffffffffffffffffff1614610af2576040517f08c379a0000000000000000000000000000000000000000000000000000000008152600401610ae990614e80565b60405180910390fd5b6007805480602002602001604051908101604052809291908181526020016000905b82821015610c3657838290600052602060002090600602016040518060e001604052908160008201548152602001600182015481526020016002820154815260200160038201548152602001600482018054610b6f90615331565b80601f0160208091040260200160405190810160405280929190818152602001828054610b9b90615331565b8015610be85780601f10610bbd57610100808354040283529160200191610be8565b820191906000526020600020905b815481529060010190602001808311610bcb57829003601f168201915b505050505081526020016005820160009054906101000a900460ff161515151581526020016005820160019054906101000a900460ff16151515158152505081526020019060010190610b14565b50505050905090565b600066038d7ea4c680009050919050565b610c6b83838360405180602001604052806000815250612353565b505050565b600e600082815260200190815260200160002060020160149054906101000a900460ff16610cd3576040517f08c379a0000000000000000000000000000000000000000000000000000000008152600401610cca90614d00565b60405180910390fd5b678ac7230489e80000612710600e600084815260200190815260200160002060010154610d009190615180565b610d0a91906151b1565b3414610d4b576040517f08c379a0000000000000000000000000000000000000000000000000000000008152600401610d4290614f80565b60405180910390fd5b60006064600f5434610d5d91906151b1565b610d679190615180565b905060008134610d77919061520b565b9050600b60009054906101000a900473ffffffffffffffffffffffffffffffffffffffff1673ffffffffffffffffffffffffffffffffffffffff166108fc839081150290604051600060405180830381858888f19350505050158015610de1573d6000803e3d6000fd5b50600e600084815260200190815260200160002060020160009054906101000a900473ffffffffffffffffffffffffffffffffffffffff1673ffffffffffffffffffffffffffffffffffffffff166108fc829081150290604051600060405180830381858888f19350505050158015610e5e573d6000803e3d6000fd5b50610e8c600c60009054906101000a900473ffffffffffffffffffffffffffffffffffffffff163385610c50565b600e600084815260200190815260200160002060008082016000905560018201600090556002820160006101000a81549073ffffffffffffffffffffffffffffffffffffffff02191690556002820160146101000a81549060ff02191690555050600060096000600c60009054906101000a900473ffffffffffffffffffffffffffffffffffffffff1673ffffffffffffffffffffffffffffffffffffffff1673ffffffffffffffffffffffffffffffffffffffff168152602001908152602001600020805480602002602001604051908101604052809291908181526020016000905b8282101561100c578382906000526020600020906003020160405180606001604052908160008201548152602001600182015481526020016002820160009054906101000a900473ffffffffffffffffffffffffffffffffffffffff1673ffffffffffffffffffffffffffffffffffffffff1673ffffffffffffffffffffffffffffffffffffffff168152505081526020019060010190610f70565b50505050905060096000600c60009054906101000a900473ffffffffffffffffffffffffffffffffffffffff1673ffffffffffffffffffffffffffffffffffffffff1673ffffffffffffffffffffffffffffffffffffffff168152602001908152602001600020600061107f9190613dfd565b60005b81518110156112db578482828151811061109f5761109e6154c9565b5b6020026020010151600001511461119557600960003373ffffffffffffffffffffffffffffffffffffffff1673ffffffffffffffffffffffffffffffffffffffff168152602001908152602001600020828281518110611102576111016154c9565b5b60200260200101519080600181540180825580915050600190039060005260206000209060030201600090919091909150600082015181600001556020820151816001015560408201518160020160006101000a81548173ffffffffffffffffffffffffffffffffffffffff021916908373ffffffffffffffffffffffffffffffffffffffff16021790555050506112c8565b338282815181106111a9576111a86154c9565b5b60200260200101516040019073ffffffffffffffffffffffffffffffffffffffff16908173ffffffffffffffffffffffffffffffffffffffff1681525050600960003373ffffffffffffffffffffffffffffffffffffffff1673ffffffffffffffffffffffffffffffffffffffff168152602001908152602001600020828281518110611239576112386154c9565b5b60200260200101519080600181540180825580915050600190039060005260206000209060030201600090919091909150600082015181600001556020820151816001015560408201518160020160006101000a81548173ffffffffffffffffffffffffffffffffffffffff021916908373ffffffffffffffffffffffffffffffffffffffff16021790555050505b80806112d390615394565b915050611082565b5033600a600086815260200190815260200160002060006101000a81548173ffffffffffffffffffffffffffffffffffffffff021916908373ffffffffffffffffffffffffffffffffffffffff16021790555050505050565b3373ffffffffffffffffffffffffffffffffffffffff16600a600084815260200190815260200160002060009054906101000a900473ffffffffffffffffffffffffffffffffffffffff1673ffffffffffffffffffffffffffffffffffffffff16146113d5576040517f08c379a00000000000000000000000000000000000000000000000000000000081526004016113cc90614f00565b60405180910390fd5b61140233600c60009054906101000a900473ffffffffffffffffffffffffffffffffffffffff1684610c50565b600060405180608001604052808481526020018381526020013373ffffffffffffffffffffffffffffffffffffffff16815260200160011515815250905080600e6000858152602001908152602001600020600082015181600001556020820151816001015560408201518160020160006101000a81548173ffffffffffffffffffffffffffffffffffffffff021916908373ffffffffffffffffffffffffffffffffffffffff16021790555060608201518160020160146101000a81548160ff0219169083151502179055509050506000600960003373ffffffffffffffffffffffffffffffffffffffff1673ffffffffffffffffffffffffffffffffffffffff168152602001908152602001600020805480602002602001604051908101604052809291908181526020016000905b828210156115cf578382906000526020600020906003020160405180606001604052908160008201548152602001600182015481526020016002820160009054906101000a900473ffffffffffffffffffffffffffffffffffffffff1673ffffffffffffffffffffffffffffffffffffffff1673ffffffffffffffffffffffffffffffffffffffff168152505081526020019060010190611533565b505050509050600960003373ffffffffffffffffffffffffffffffffffffffff1673ffffffffffffffffffffffffffffffffffffffff16815260200190815260200160002060006116209190613dfd565b60005b81518110156118c057848282815181106116405761163f6154c9565b5b6020026020010151600001511461173657600960003373ffffffffffffffffffffffffffffffffffffffff1673ffffffffffffffffffffffffffffffffffffffff1681526020019081526020016000208282815181106116a3576116a26154c9565b5b60200260200101519080600181540180825580915050600190039060005260206000209060030201600090919091909150600082015181600001556020820151816001015560408201518160020160006101000a81548173ffffffffffffffffffffffffffffffffffffffff021916908373ffffffffffffffffffffffffffffffffffffffff16021790555050506118ad565b600c60009054906101000a900473ffffffffffffffffffffffffffffffffffffffff1682828151811061176c5761176b6154c9565b5b60200260200101516040019073ffffffffffffffffffffffffffffffffffffffff16908173ffffffffffffffffffffffffffffffffffffffff168152505060096000600c60009054906101000a900473ffffffffffffffffffffffffffffffffffffffff1673ffffffffffffffffffffffffffffffffffffffff1673ffffffffffffffffffffffffffffffffffffffff16815260200190815260200160002082828151811061181e5761181d6154c9565b5b60200260200101519080600181540180825580915050600190039060005260206000209060030201600090919091909150600082015181600001556020820151816001015560408201518160020160006101000a81548173ffffffffffffffffffffffffffffffffffffffff021916908373ffffffffffffffffffffffffffffffffffffffff16021790555050505b80806118b890615394565b915050611623565b5060096000600a600087815260200190815260200160002060009054906101000a900473ffffffffffffffffffffffffffffffffffffffff1673ffffffffffffffffffffffffffffffffffffffff1673ffffffffffffffffffffffffffffffffffffffff168152602001908152602001600020600061193f9190613dfd565b600a600085815260200190815260200160002060006101000a81549073ffffffffffffffffffffffffffffffffffffffff021916905550505050565b611983613e21565b61198b613372565b73ffffffffffffffffffffffffffffffffffffffff166119a9611e6f565b73ffffffffffffffffffffffffffffffffffffffff16146119ff576040517f08c379a00000000000000000000000000000000000000000000000000000000081526004016119f690614e80565b60405180910390fd5b6008600083815260200190815260200160002060050160019054906101000a900460ff16611a62576040517f08c379a0000000000000000000000000000000000000000000000000000000008152600401611a5990614f60565b60405180910390fd5b600860008381526020019081526020016000206040518060e001604052908160008201548152602001600182015481526020016002820154815260200160038201548152602001600482018054611ab890615331565b80601f0160208091040260200160405190810160405280929190818152602001828054611ae490615331565b8015611b315780601f10611b0657610100808354040283529160200191611b31565b820191906000526020600020905b815481529060010190602001808311611b1457829003601f168201915b505050505081526020016005820160009054906101000a900460ff161515151581526020016005820160019054906101000a900460ff1615151515815250509050919050565b6000806002600084815260200190815260200160002060009054906101000a900473ffffffffffffffffffffffffffffffffffffffff169050600073ffffffffffffffffffffffffffffffffffffffff168173ffffffffffffffffffffffffffffffffffffffff161415611c20576040517f08c379a0000000000000000000000000000000000000000000000000000000008152600401611c1790614e20565b60405180910390fd5b80915050919050565b60008073ffffffffffffffffffffffffffffffffffffffff168273ffffffffffffffffffffffffffffffffffffffff161415611c9a576040517f08c379a0000000000000000000000000000000000000000000000000000000008152600401611c9190614e00565b60405180910390fd5b600360008373ffffffffffffffffffffffffffffffffffffffff1673ffffffffffffffffffffffffffffffffffffffff168152602001908152602001600020549050919050565b611ce9613372565b73ffffffffffffffffffffffffffffffffffffffff16611d07611e6f565b73ffffffffffffffffffffffffffffffffffffffff1614611d5d576040517f08c379a0000000000000000000000000000000000000000000000000000000008152600401611d5490614e80565b60405180910390fd5b611d676000613433565b565b6060600960003373ffffffffffffffffffffffffffffffffffffffff1673ffffffffffffffffffffffffffffffffffffffff168152602001908152602001600020805480602002602001604051908101604052809291908181526020016000905b82821015611e66578382906000526020600020906003020160405180606001604052908160008201548152602001600182015481526020016002820160009054906101000a900473ffffffffffffffffffffffffffffffffffffffff1673ffffffffffffffffffffffffffffffffffffffff1673ffffffffffffffffffffffffffffffffffffffff168152505081526020019060010190611dca565b50505050905090565b6000600660009054906101000a900473ffffffffffffffffffffffffffffffffffffffff16905090565b600b60009054906101000a900473ffffffffffffffffffffffffffffffffffffffff1681565b606060018054611ece90615331565b80601f0160208091040260200160405190810160405280929190818152602001828054611efa90615331565b8015611f475780601f10611f1c57610100808354040283529160200191611f47565b820191906000526020600020905b815481529060010190602001808311611f2a57829003601f168201915b5050505050905090565b611f59613372565b73ffffffffffffffffffffffffffffffffffffffff168273ffffffffffffffffffffffffffffffffffffffff161415611fc7576040517f08c379a0000000000000000000000000000000000000000000000000000000008152600401611fbe90614d80565b60405180910390fd5b8060056000611fd4613372565b73ffffffffffffffffffffffffffffffffffffffff1673ffffffffffffffffffffffffffffffffffffffff16815260200190815260200160002060008473ffffffffffffffffffffffffffffffffffffffff1673ffffffffffffffffffffffffffffffffffffffff16815260200190815260200160002060006101000a81548160ff0219169083151502179055508173ffffffffffffffffffffffffffffffffffffffff16612081613372565b73ffffffffffffffffffffffffffffffffffffffff167f17307eab39ab6107e8899845ad3d59bd9653f200f220920489ca2b5937696c31836040516120c69190614c83565b60405180910390a35050565b6120da613e21565b6120e2613372565b73ffffffffffffffffffffffffffffffffffffffff16612100611e6f565b73ffffffffffffffffffffffffffffffffffffffff1614612156576040517f08c379a000000000000000000000000000000000000000000000000000000000815260040161214d90614e80565b60405180910390fd5b6008600087815260200190815260200160002060050160019054906101000a900460ff16156121ba576040517f08c379a00000000000000000000000000000000000000000000000000000000081526004016121b190614f40565b60405180910390fd5b60006040518060e0016040528088815260200187815260200186815260200185815260200189815260200184151581526020016001151581525090506007819080600181540180825580915050600190039060005260206000209060060201600090919091909150600082015181600001556020820151816001015560408201518160020155606082015181600301556080820151816004019080519060200190612266929190613e62565b5060a08201518160050160006101000a81548160ff02191690831515021790555060c08201518160050160016101000a81548160ff02191690831515021790555050508060086000898152602001908152602001600020600082015181600001556020820151816001015560408201518160020155606082015181600301556080820151816004019080519060200190612301929190613e62565b5060a08201518160050160006101000a81548160ff02191690831515021790555060c08201518160050160016101000a81548160ff021916908315150217905550905050809150509695505050505050565b61236461235e613372565b836134f9565b6123a3576040517f08c379a000000000000000000000000000000000000000000000000000000000815260040161239a90614f20565b60405180910390fd5b6123af848484846135d7565b6000600960008673ffffffffffffffffffffffffffffffffffffffff1673ffffffffffffffffffffffffffffffffffffffff168152602001908152602001600020805480602002602001604051908101604052809291908181526020016000905b828210156124ac578382906000526020600020906003020160405180606001604052908160008201548152602001600182015481526020016002820160009054906101000a900473ffffffffffffffffffffffffffffffffffffffff1673ffffffffffffffffffffffffffffffffffffffff1673ffffffffffffffffffffffffffffffffffffffff168152505081526020019060010190612410565b505050509050600960008673ffffffffffffffffffffffffffffffffffffffff1673ffffffffffffffffffffffffffffffffffffffff16815260200190815260200160002060006124fd9190613dfd565b60005b8151811015612759578382828151811061251d5761251c6154c9565b5b6020026020010151600001511461261357600960008773ffffffffffffffffffffffffffffffffffffffff1673ffffffffffffffffffffffffffffffffffffffff1681526020019081526020016000208282815181106125805761257f6154c9565b5b60200260200101519080600181540180825580915050600190039060005260206000209060030201600090919091909150600082015181600001556020820151816001015560408201518160020160006101000a81548173ffffffffffffffffffffffffffffffffffffffff021916908373ffffffffffffffffffffffffffffffffffffffff1602179055505050612746565b84828281518110612627576126266154c9565b5b60200260200101516040019073ffffffffffffffffffffffffffffffffffffffff16908173ffffffffffffffffffffffffffffffffffffffff1681525050600960008673ffffffffffffffffffffffffffffffffffffffff1673ffffffffffffffffffffffffffffffffffffffff1681526020019081526020016000208282815181106126b7576126b66154c9565b5b60200260200101519080600181540180825580915050600190039060005260206000209060030201600090919091909150600082015181600001556020820151816001015560408201518160020160006101000a81548173ffffffffffffffffffffffffffffffffffffffff021916908373ffffffffffffffffffffffffffffffffffffffff16021790555050505b808061275190615394565b915050612500565b5033600a600085815260200190815260200160002060006101000a81548173ffffffffffffffffffffffffffffffffffffffff021916908373ffffffffffffffffffffffffffffffffffffffff1602179055505050505050565b6127bb613372565b73ffffffffffffffffffffffffffffffffffffffff166127d9611e6f565b73ffffffffffffffffffffffffffffffffffffffff161461282f576040517f08c379a000000000000000000000000000000000000000000000000000000000815260040161282690614e80565b60405180910390fd5b60005b6007805490508110156129b4578260078281548110612854576128536154c9565b5b90600052602060002090600602016000015414801561289757508160078281548110612883576128826154c9565b5b906000526020600020906006020160010154105b156129a15781600782815481106128b1576128b06154c9565b5b906000526020600020906006020160010181905550600781815481106128da576128d96154c9565b5b90600052602060002090600602016008600085815260200190815260200160002060008201548160000155600182015481600101556002820154816002015560038201548160030155600482018160040190805461293790615331565b612942929190613ee8565b506005820160009054906101000a900460ff168160050160006101000a81548160ff0219169083151502179055506005820160019054906101000a900460ff168160050160016101000a81548160ff0219169083151502179055509050505b80806129ac90615394565b915050612832565b505050565b60006103e8678ac7230489e8000060086000858152602001908152602001600020600301546129e891906151b1565b6129f29190615180565b9050919050565b6060612a0482613306565b612a43576040517f08c379a0000000000000000000000000000000000000000000000000000000008152600401612a3a90614ec0565b60405180910390fd5b6000612a4d613633565b90506000815111612a6d5760405180602001604052806000815250612a98565b80612a778461364a565b604051602001612a88929190614b6d565b6040516020818303038152906040525b915050919050565b6008600082815260200190815260200160002060050160019054906101000a900460ff16612b03576040517f08c379a0000000000000000000000000000000000000000000000000000000008152600401612afa90614f60565b60405180910390fd5b6008600082815260200190815260200160002060050160009054906101000a900460ff1615612b67576040517f08c379a0000000000000000000000000000000000000000000000000000000008152600401612b5e90614dc0565b60405180910390fd5b6000600860008381526020019081526020016000206001015411612bc0576040517f08c379a0000000000000000000000000000000000000000000000000000000008152600401612bb790614d40565b60405180910390fd5b678ac7230489e800006127106008600084815260200190815260200160002060030154612bed9190615180565b612bf791906151b1565b3414612c38576040517f08c379a0000000000000000000000000000000000000000000000000000000008152600401612c2f90614f80565b60405180910390fd5b612c40613e21565b60005b600780549050811015612ec5578260078281548110612c6557612c646154c9565b5b9060005260206000209060060201600001541415612eb25760078181548110612c9157612c906154c9565b5b90600052602060002090600602016040518060e001604052908160008201548152602001600182015481526020016002820154815260200160038201548152602001600482018054612ce290615331565b80601f0160208091040260200160405190810160405280929190818152602001828054612d0e90615331565b8015612d5b5780601f10612d3057610100808354040283529160200191612d5b565b820191906000526020600020905b815481529060010190602001808311612d3e57829003601f168201915b505050505081526020016005820160009054906101000a900460ff161515151581526020016005820160019054906101000a900460ff161515151581525050915060078181548110612db057612daf6154c9565b5b90600052602060002090600602016001016000815480929190612dd290615307565b919050555060078181548110612deb57612dea6154c9565b5b906000526020600020906006020160086000858152602001908152602001600020600082015481600001556001820154816001015560028201548160020155600382015481600301556004820181600401908054612e4890615331565b612e53929190613ee8565b506005820160009054906101000a900460ff168160050160006101000a81548160ff0219169083151502179055506005820160019054906101000a900460ff168160050160016101000a81548160ff0219169083151502179055509050505b8080612ebd90615394565b915050612c43565b5060006402540be400600d5433604051602001612ee3929190614b91565b6040516020818303038152906040528051906020012060001c612f06919061540b565b9050600d6000815480929190612f1b90615394565b9190505550612f2a33826137ab565b600b60009054906101000a900473ffffffffffffffffffffffffffffffffffffffff1673ffffffffffffffffffffffffffffffffffffffff166108fc349081150290604051600060405180830381858888f19350505050158015612f92573d6000803e3d6000fd5b5060006040518060600160405280838152602001846000015181526020013373ffffffffffffffffffffffffffffffffffffffff168152509050600960003373ffffffffffffffffffffffffffffffffffffffff1673ffffffffffffffffffffffffffffffffffffffff168152602001908152602001600020819080600181540180825580915050600190039060005260206000209060030201600090919091909150600082015181600001556020820151816001015560408201518160020160006101000a81548173ffffffffffffffffffffffffffffffffffffffff021916908373ffffffffffffffffffffffffffffffffffffffff160217905550505033600a600084815260200190815260200160002060006101000a81548173ffffffffffffffffffffffffffffffffffffffff021916908373ffffffffffffffffffffffffffffffffffffffff16021790555050505050565b6000600560008473ffffffffffffffffffffffffffffffffffffffff1673ffffffffffffffffffffffffffffffffffffffff16815260200190815260200160002060008373ffffffffffffffffffffffffffffffffffffffff1673ffffffffffffffffffffffffffffffffffffffff16815260200190815260200160002060009054906101000a900460ff16905092915050565b613186613372565b73ffffffffffffffffffffffffffffffffffffffff166131a4611e6f565b73ffffffffffffffffffffffffffffffffffffffff16146131fa576040517f08c379a00000000000000000000000000000000000000000000000000000000081526004016131f190614e80565b60405180910390fd5b600073ffffffffffffffffffffffffffffffffffffffff168173ffffffffffffffffffffffffffffffffffffffff16141561326a576040517f08c379a000000000000000000000000000000000000000000000000000000000815260040161326190614ce0565b60405180910390fd5b61327381613433565b50565b600c60009054906101000a900473ffffffffffffffffffffffffffffffffffffffff1681565b60007f01ffc9a7000000000000000000000000000000000000000000000000000000007bffffffffffffffffffffffffffffffffffffffffffffffffffffffff1916827bffffffffffffffffffffffffffffffffffffffffffffffffffffffff1916149050919050565b60008073ffffffffffffffffffffffffffffffffffffffff166002600084815260200190815260200160002060009054906101000a900473ffffffffffffffffffffffffffffffffffffffff1673ffffffffffffffffffffffffffffffffffffffff1614159050919050565b600033905090565b816004600083815260200190815260200160002060006101000a81548173ffffffffffffffffffffffffffffffffffffffff021916908373ffffffffffffffffffffffffffffffffffffffff160217905550808273ffffffffffffffffffffffffffffffffffffffff166133ed83611b77565b73ffffffffffffffffffffffffffffffffffffffff167f8c5be1e5ebec7d5bd14f71427d1e84f3dd0314c0f7b2291e5b200ac8c7c3b92560405160405180910390a45050565b6000600660009054906101000a900473ffffffffffffffffffffffffffffffffffffffff16905081600660006101000a81548173ffffffffffffffffffffffffffffffffffffffff021916908373ffffffffffffffffffffffffffffffffffffffff1602179055508173ffffffffffffffffffffffffffffffffffffffff168173ffffffffffffffffffffffffffffffffffffffff167f8be0079c531659141344cd1fd0a4f28419497f9722a3daafe3b4186f6b6457e060405160405180910390a35050565b600061350482613306565b613543576040517f08c379a000000000000000000000000000000000000000000000000000000000815260040161353a90614da0565b60405180910390fd5b600061354e83611b77565b90508073ffffffffffffffffffffffffffffffffffffffff168473ffffffffffffffffffffffffffffffffffffffff1614806135bd57508373ffffffffffffffffffffffffffffffffffffffff166135a584610856565b73ffffffffffffffffffffffffffffffffffffffff16145b806135ce57506135cd81856130ea565b5b91505092915050565b6135e28484846137c9565b6135ee84848484613a25565b61362d576040517f08c379a000000000000000000000000000000000000000000000000000000000815260040161362490614cc0565b60405180910390fd5b50505050565b606060405180602001604052806000815250905090565b60606000821415613692576040518060400160405280600181526020017f300000000000000000000000000000000000000000000000000000000000000081525090506137a6565b600082905060005b600082146136c45780806136ad90615394565b915050600a826136bd9190615180565b915061369a565b60008167ffffffffffffffff8111156136e0576136df6154f8565b5b6040519080825280601f01601f1916602001820160405280156137125781602001600182028036833780820191505090505b5090505b6000851461379f5760018261372b919061520b565b9150600a8561373a919061540b565b6030613746919061512a565b60f81b81838151811061375c5761375b6154c9565b5b60200101907effffffffffffffffffffffffffffffffffffffffffffffffffffffffffffff1916908160001a905350600a856137989190615180565b9450613716565b8093505050505b919050565b6137c5828260405180602001604052806000815250613bbc565b5050565b8273ffffffffffffffffffffffffffffffffffffffff166137e982611b77565b73ffffffffffffffffffffffffffffffffffffffff161461383f576040517f08c379a000000000000000000000000000000000000000000000000000000000815260040161383690614ea0565b60405180910390fd5b600073ffffffffffffffffffffffffffffffffffffffff168273ffffffffffffffffffffffffffffffffffffffff1614156138af576040517f08c379a00000000000000000000000000000000000000000000000000000000081526004016138a690614d60565b60405180910390fd5b6138ba838383613c17565b6138c560008261337a565b6001600360008573ffffffffffffffffffffffffffffffffffffffff1673ffffffffffffffffffffffffffffffffffffffff1681526020019081526020016000206000828254613915919061520b565b925050819055506001600360008473ffffffffffffffffffffffffffffffffffffffff1673ffffffffffffffffffffffffffffffffffffffff168152602001908152602001600020600082825461396c919061512a565b92505081905550816002600083815260200190815260200160002060006101000a81548173ffffffffffffffffffffffffffffffffffffffff021916908373ffffffffffffffffffffffffffffffffffffffff160217905550808273ffffffffffffffffffffffffffffffffffffffff168473ffffffffffffffffffffffffffffffffffffffff167fddf252ad1be2c89b69c2b068fc378daa952ba7f163c4a11628f55a4df523b3ef60405160405180910390a4505050565b6000613a468473ffffffffffffffffffffffffffffffffffffffff16613c1c565b15613baf578373ffffffffffffffffffffffffffffffffffffffff1663150b7a02613a6f613372565b8786866040518563ffffffff1660e01b8152600401613a919493929190614bf3565b602060405180830381600087803b158015613aab57600080fd5b505af1925050508015613adc57506040513d601f19601f82011682018060405250810190613ad99190614319565b60015b613b5f573d8060008114613b0c576040519150601f19603f3d011682016040523d82523d6000602084013e613b11565b606091505b50600081511415613b57576040517f08c379a0000000000000000000000000000000000000000000000000000000008152600401613b4e90614cc0565b60405180910390fd5b805181602001fd5b63150b7a0260e01b7bffffffffffffffffffffffffffffffffffffffffffffffffffffffff1916817bffffffffffffffffffffffffffffffffffffffffffffffffffffffff191614915050613bb4565b600190505b949350505050565b613bc68383613c2f565b613bd36000848484613a25565b613c12576040517f08c379a0000000000000000000000000000000000000000000000000000000008152600401613c0990614cc0565b60405180910390fd5b505050565b505050565b600080823b905060008111915050919050565b600073ffffffffffffffffffffffffffffffffffffffff168273ffffffffffffffffffffffffffffffffffffffff161415613c9f576040517f08c379a0000000000000000000000000000000000000000000000000000000008152600401613c9690614e40565b60405180910390fd5b613ca881613306565b15613ce8576040517f08c379a0000000000000000000000000000000000000000000000000000000008152600401613cdf90614d20565b60405180910390fd5b613cf460008383613c17565b6001600360008473ffffffffffffffffffffffffffffffffffffffff1673ffffffffffffffffffffffffffffffffffffffff1681526020019081526020016000206000828254613d44919061512a565b92505081905550816002600083815260200190815260200160002060006101000a81548173ffffffffffffffffffffffffffffffffffffffff021916908373ffffffffffffffffffffffffffffffffffffffff160217905550808273ffffffffffffffffffffffffffffffffffffffff16600073ffffffffffffffffffffffffffffffffffffffff167fddf252ad1be2c89b69c2b068fc378daa952ba7f163c4a11628f55a4df523b3ef60405160405180910390a45050565b5080546000825560030290600052602060002090810190613e1e9190613f75565b50565b6040518060e0016040528060008152602001600081526020016000815260200160008152602001606081526020016000151581526020016000151581525090565b828054613e6e90615331565b90600052602060002090601f016020900481019282613e905760008555613ed7565b82601f10613ea957805160ff1916838001178555613ed7565b82800160010185558215613ed7579182015b82811115613ed6578251825591602001919060010190613ebb565b5b509050613ee49190613fc3565b5090565b828054613ef490615331565b90600052602060002090601f016020900481019282613f165760008555613f64565b82601f10613f275780548555613f64565b82800160010185558215613f6457600052602060002091601f016020900482015b82811115613f63578254825591600101919060010190613f48565b5b509050613f719190613fc3565b5090565b5b80821115613fbf5760008082016000905560018201600090556002820160006101000a81549073ffffffffffffffffffffffffffffffffffffffff021916905550600301613f76565b5090565b5b80821115613fdc576000816000905550600101613fc4565b5090565b6000613ff3613fee84615002565b614fdd565b90508281526020810184848401111561400f5761400e61552c565b5b61401a8482856152c5565b509392505050565b600061403561403084615033565b614fdd565b9050828152602081018484840111156140515761405061552c565b5b61405c8482856152c5565b509392505050565b60008135905061407381615b42565b92915050565b60008135905061408881615b59565b92915050565b60008135905061409d81615b70565b92915050565b6000815190506140b281615b70565b92915050565b600082601f8301126140cd576140cc615527565b5b81356140dd848260208601613fe0565b91505092915050565b600082601f8301126140fb576140fa615527565b5b813561410b848260208601614022565b91505092915050565b60008135905061412381615b87565b92915050565b60006020828403121561413f5761413e615536565b5b600061414d84828501614064565b91505092915050565b6000806040838503121561416d5761416c615536565b5b600061417b85828601614064565b925050602061418c85828601614064565b9150509250929050565b6000806000606084860312156141af576141ae615536565b5b60006141bd86828701614064565b93505060206141ce86828701614064565b92505060406141df86828701614114565b9150509250925092565b6000806000806080858703121561420357614202615536565b5b600061421187828801614064565b945050602061422287828801614064565b935050604061423387828801614114565b925050606085013567ffffffffffffffff81111561425457614253615531565b5b614260878288016140b8565b91505092959194509250565b6000806040838503121561428357614282615536565b5b600061429185828601614064565b92505060206142a285828601614079565b9150509250929050565b600080604083850312156142c3576142c2615536565b5b60006142d185828601614064565b92505060206142e285828601614114565b9150509250929050565b60006020828403121561430257614301615536565b5b60006143108482850161408e565b91505092915050565b60006020828403121561432f5761432e615536565b5b600061433d848285016140a3565b91505092915050565b60008060008060008060c0878903121561436357614362615536565b5b600087013567ffffffffffffffff81111561438157614380615531565b5b61438d89828a016140e6565b965050602061439e89828a01614114565b95505060406143af89828a01614114565b94505060606143c089828a01614114565b93505060806143d189828a01614114565b92505060a06143e289828a01614079565b9150509295509295509295565b60006020828403121561440557614404615536565b5b600061441384828501614114565b91505092915050565b6000806040838503121561443357614432615536565b5b600061444185828601614114565b925050602061445285828601614114565b9150509250929050565b600061446883836149be565b905092915050565b600061447c8383614af6565b60608301905092915050565b61449181615251565b82525050565b6144a08161523f565b82525050565b6144af8161523f565b82525050565b6144c66144c18261523f565b6153dd565b82525050565b60006144d782615084565b6144e181856150ca565b9350836020820285016144f385615064565b8060005b8581101561452f5784840389528151614510858261445c565b945061451b836150b0565b925060208a019950506001810190506144f7565b50829750879550505050505092915050565b600061454c8261508f565b61455681856150db565b935061456183615074565b8060005b838110156145925781516145798882614470565b9750614584836150bd565b925050600181019050614565565b5085935050505092915050565b6145a881615263565b82525050565b6145b781615263565b82525050565b60006145c88261509a565b6145d281856150ec565b93506145e28185602086016152d4565b6145eb8161553b565b840191505092915050565b6000614601826150a5565b61460b81856150fd565b935061461b8185602086016152d4565b6146248161553b565b840191505092915050565b600061463a826150a5565b614644818561510e565b93506146548185602086016152d4565b61465d8161553b565b840191505092915050565b6000614673826150a5565b61467d818561511f565b935061468d8185602086016152d4565b80840191505092915050565b60006146a660328361510e565b91506146b182615559565b604082019050919050565b60006146c960268361510e565b91506146d4826155a8565b604082019050919050565b60006146ec60148361510e565b91506146f7826155f7565b602082019050919050565b600061470f601c8361510e565b915061471a82615620565b602082019050919050565b600061473260228361510e565b915061473d82615649565b604082019050919050565b600061475560248361510e565b915061476082615698565b604082019050919050565b600061477860198361510e565b9150614783826156e7565b602082019050919050565b600061479b602c8361510e565b91506147a682615710565b604082019050919050565b60006147be60238361510e565b91506147c98261575f565b604082019050919050565b60006147e160388361510e565b91506147ec826157ae565b604082019050919050565b6000614804602a8361510e565b915061480f826157fd565b604082019050919050565b600061482760298361510e565b91506148328261584c565b604082019050919050565b600061484a60208361510e565b91506148558261589b565b602082019050919050565b600061486d602c8361510e565b9150614878826158c4565b604082019050919050565b600061489060208361510e565b915061489b82615913565b602082019050919050565b60006148b360298361510e565b91506148be8261593c565b604082019050919050565b60006148d6602f8361510e565b91506148e18261598b565b604082019050919050565b60006148f960218361510e565b9150614904826159da565b604082019050919050565b600061491c60228361510e565b915061492782615a29565b604082019050919050565b600061493f60318361510e565b915061494a82615a78565b604082019050919050565b600061496260118361510e565b915061496d82615ac7565b602082019050919050565b600061498560118361510e565b915061499082615af0565b602082019050919050565b60006149a860108361510e565b91506149b382615b19565b602082019050919050565b600060e0830160008301516149d66000860182614b38565b5060208301516149e96020860182614b38565b5060408301516149fc6040860182614b38565b506060830151614a0f6060860182614b38565b5060808301518482036080860152614a2782826145f6565b91505060a0830151614a3c60a086018261459f565b5060c0830151614a4f60c086018261459f565b508091505092915050565b600060e083016000830151614a726000860182614b38565b506020830151614a856020860182614b38565b506040830151614a986040860182614b38565b506060830151614aab6060860182614b38565b5060808301518482036080860152614ac382826145f6565b91505060a0830151614ad860a086018261459f565b5060c0830151614aeb60c086018261459f565b508091505092915050565b606082016000820151614b0c6000850182614b38565b506020820151614b1f6020850182614b38565b506040820151614b326040850182614497565b50505050565b614b41816152bb565b82525050565b614b50816152bb565b82525050565b614b67614b62826152bb565b615401565b82525050565b6000614b798285614668565b9150614b858284614668565b91508190509392505050565b6000614b9d8285614b56565b602082019150614bad82846144b5565b6014820191508190509392505050565b6000602082019050614bd260008301846144a6565b92915050565b6000602082019050614bed6000830184614488565b92915050565b6000608082019050614c0860008301876144a6565b614c1560208301866144a6565b614c226040830185614b47565b8181036060830152614c3481846145bd565b905095945050505050565b60006020820190508181036000830152614c5981846144cc565b905092915050565b60006020820190508181036000830152614c7b8184614541565b905092915050565b6000602082019050614c9860008301846145ae565b92915050565b60006020820190508181036000830152614cb8818461462f565b905092915050565b60006020820190508181036000830152614cd981614699565b9050919050565b60006020820190508181036000830152614cf9816146bc565b9050919050565b60006020820190508181036000830152614d19816146df565b9050919050565b60006020820190508181036000830152614d3981614702565b9050919050565b60006020820190508181036000830152614d5981614725565b9050919050565b60006020820190508181036000830152614d7981614748565b9050919050565b60006020820190508181036000830152614d998161476b565b9050919050565b60006020820190508181036000830152614db98161478e565b9050919050565b60006020820190508181036000830152614dd9816147b1565b9050919050565b60006020820190508181036000830152614df9816147d4565b9050919050565b60006020820190508181036000830152614e19816147f7565b9050919050565b60006020820190508181036000830152614e398161481a565b9050919050565b60006020820190508181036000830152614e598161483d565b9050919050565b60006020820190508181036000830152614e7981614860565b9050919050565b60006020820190508181036000830152614e9981614883565b9050919050565b60006020820190508181036000830152614eb9816148a6565b9050919050565b60006020820190508181036000830152614ed9816148c9565b9050919050565b60006020820190508181036000830152614ef9816148ec565b9050919050565b60006020820190508181036000830152614f198161490f565b9050919050565b60006020820190508181036000830152614f3981614932565b9050919050565b60006020820190508181036000830152614f5981614955565b9050919050565b60006020820190508181036000830152614f7981614978565b9050919050565b60006020820190508181036000830152614f998161499b565b9050919050565b60006020820190508181036000830152614fba8184614a5a565b905092915050565b6000602082019050614fd76000830184614b47565b92915050565b6000614fe7614ff8565b9050614ff38282615363565b919050565b6000604051905090565b600067ffffffffffffffff82111561501d5761501c6154f8565b5b6150268261553b565b9050602081019050919050565b600067ffffffffffffffff82111561504e5761504d6154f8565b5b6150578261553b565b9050602081019050919050565b6000819050602082019050919050565b6000819050602082019050919050565b600081519050919050565b600081519050919050565b600081519050919050565b600081519050919050565b6000602082019050919050565b6000602082019050919050565b600082825260208201905092915050565b600082825260208201905092915050565b600082825260208201905092915050565b600082825260208201905092915050565b600082825260208201905092915050565b600081905092915050565b6000615135826152bb565b9150615140836152bb565b9250827fffffffffffffffffffffffffffffffffffffffffffffffffffffffffffffffff038211156151755761517461543c565b5b828201905092915050565b600061518b826152bb565b9150615196836152bb565b9250826151a6576151a561546b565b5b828204905092915050565b60006151bc826152bb565b91506151c7836152bb565b9250817fffffffffffffffffffffffffffffffffffffffffffffffffffffffffffffffff0483118215151615615200576151ff61543c565b5b828202905092915050565b6000615216826152bb565b9150615221836152bb565b9250828210156152345761523361543c565b5b828203905092915050565b600061524a8261529b565b9050919050565b600061525c8261529b565b9050919050565b60008115159050919050565b60007fffffffff0000000000000000000000000000000000000000000000000000000082169050919050565b600073ffffffffffffffffffffffffffffffffffffffff82169050919050565b6000819050919050565b82818337600083830152505050565b60005b838110156152f25780820151818401526020810190506152d7565b83811115615301576000848401525b50505050565b6000615312826152bb565b915060008214156153265761532561543c565b5b600182039050919050565b6000600282049050600182168061534957607f821691505b6020821081141561535d5761535c61549a565b5b50919050565b61536c8261553b565b810181811067ffffffffffffffff8211171561538b5761538a6154f8565b5b80604052505050565b600061539f826152bb565b91507fffffffffffffffffffffffffffffffffffffffffffffffffffffffffffffffff8214156153d2576153d161543c565b5b600182019050919050565b60006153e8826153ef565b9050919050565b60006153fa8261554c565b9050919050565b6000819050919050565b6000615416826152bb565b9150615421836152bb565b9250826154315761543061546b565b5b828206905092915050565b7f4e487b7100000000000000000000000000000000000000000000000000000000600052601160045260246000fd5b7f4e487b7100000000000000000000000000000000000000000000000000000000600052601260045260246000fd5b7f4e487b7100000000000000000000000000000000000000000000000000000000600052602260045260246000fd5b7f4e487b7100000000000000000000000000000000000000000000000000000000600052603260045260246000fd5b7f4e487b7100000000000000000000000000000000000000000000000000000000600052604160045260246000fd5b600080fd5b600080fd5b600080fd5b600080fd5b6000601f19601f8301169050919050565b60008160601b9050919050565b7f4552433732313a207472616e7366657220746f206e6f6e20455243373231526560008201527f63656976657220696d706c656d656e7465720000000000000000000000000000602082015250565b7f4f776e61626c653a206e6577206f776e657220697320746865207a65726f206160008201527f6464726573730000000000000000000000000000000000000000000000000000602082015250565b7f506f6c69746963206e6f7420666f722073616c65000000000000000000000000600082015250565b7f4552433732313a20746f6b656e20616c7265616479206d696e74656400000000600082015250565b7f5468657265206973206e6f206d6f726520706f6c6974696320617661696c616260008201527f6c65000000000000000000000000000000000000000000000000000000000000602082015250565b7f4552433732313a207472616e7366657220746f20746865207a65726f2061646460008201527f7265737300000000000000000000000000000000000000000000000000000000602082015250565b7f4552433732313a20617070726f766520746f2063616c6c657200000000000000600082015250565b7f4552433732313a206f70657261746f7220717565727920666f72206e6f6e657860008201527f697374656e7420746f6b656e0000000000000000000000000000000000000000602082015250565b7f506f6c69746963206f6e6c7920617661696c61626c652077697468206c6f747460008201527f6572790000000000000000000000000000000000000000000000000000000000602082015250565b7f4552433732313a20617070726f76652063616c6c6572206973206e6f74206f7760008201527f6e6572206e6f7220617070726f76656420666f7220616c6c0000000000000000602082015250565b7f4552433732313a2062616c616e636520717565727920666f7220746865207a6560008201527f726f206164647265737300000000000000000000000000000000000000000000602082015250565b7f4552433732313a206f776e657220717565727920666f72206e6f6e657869737460008201527f656e7420746f6b656e0000000000000000000000000000000000000000000000602082015250565b7f4552433732313a206d696e7420746f20746865207a65726f2061646472657373600082015250565b7f4552433732313a20617070726f76656420717565727920666f72206e6f6e657860008201527f697374656e7420746f6b656e0000000000000000000000000000000000000000602082015250565b7f4f776e61626c653a2063616c6c6572206973206e6f7420746865206f776e6572600082015250565b7f4552433732313a207472616e73666572206f6620746f6b656e2074686174206960008201527f73206e6f74206f776e0000000000000000000000000000000000000000000000602082015250565b7f4552433732314d657461646174613a2055524920717565727920666f72206e6f60008201527f6e6578697374656e7420746f6b656e0000000000000000000000000000000000602082015250565b7f4552433732313a20617070726f76616c20746f2063757272656e74206f776e6560008201527f7200000000000000000000000000000000000000000000000000000000000000602082015250565b7f596f7520617265206e6f7420746865206f776e6572206f662074686520746f6b60008201527f656e000000000000000000000000000000000000000000000000000000000000602082015250565b7f4552433732313a207472616e736665722063616c6c6572206973206e6f74206f60008201527f776e6572206e6f7220617070726f766564000000000000000000000000000000602082015250565b7f696420616c726561647920696e20757365000000000000000000000000000000600082015250565b7f506f6c69746963206e6f7420666f756e64000000000000000000000000000000600082015250565b7f496e636f727265637420616d6f756e7400000000000000000000000000000000600082015250565b615b4b8161523f565b8114615b5657600080fd5b50565b615b6281615263565b8114615b6d57600080fd5b50565b615b798161526f565b8114615b8457600080fd5b50565b615b90816152bb565b8114615b9b57600080fd5b5056fea2646970667358221220f05db422c47f2d114328d5871279e15425b11edb08c22e79f60bbbd613b2077864736f6c63430008070033",
  "immutableReferences": {},
  "source": "// SPDX-License-Identifier: MIT\n\npragma solidity ^0.8.0;\nimport \"./Sell.sol\";\n\n\ncontract PoliticsCollectible is Sell {\n}",
  "sourcePath": "/home/youness/Crypto/PoliticsCollectible/contracts/PoliticsCollectible.sol",
  "compiler": {
    "name": "solc",
    "version": "0.8.7+commit.e28d00a7.Emscripten.clang"
  },
  "schemaVersion": "3.4.3",
  "updatedAt": "2021-08-30T15:19:47.289Z",
  "devdoc": {
    "kind": "dev",
    "methods": {
      "approve(address,uint256)": {
        "details": "See {IERC721-approve}."
      },
      "balanceOf(address)": {
        "details": "See {IERC721-balanceOf}."
      },
      "getApproved(uint256)": {
        "details": "See {IERC721-getApproved}."
      },
      "isApprovedForAll(address,address)": {
        "details": "See {IERC721-isApprovedForAll}."
      },
      "name()": {
        "details": "See {IERC721Metadata-name}."
      },
      "owner()": {
        "details": "Returns the address of the current owner."
      },
      "ownerOf(uint256)": {
        "details": "See {IERC721-ownerOf}."
      },
      "renounceOwnership()": {
        "details": "Leaves the contract without owner. It will not be possible to call `onlyOwner` functions anymore. Can only be called by the current owner. NOTE: Renouncing ownership will leave the contract without an owner, thereby removing any functionality that is only available to the owner."
      },
      "safeTransferFrom(address,address,uint256)": {
        "details": "See {IERC721-safeTransferFrom}."
      },
      "safeTransferFrom(address,address,uint256,bytes)": {
        "details": "See {IERC721-safeTransferFrom}."
      },
      "setApprovalForAll(address,bool)": {
        "details": "See {IERC721-setApprovalForAll}."
      },
      "supportsInterface(bytes4)": {
        "details": "See {IERC165-supportsInterface}."
      },
      "symbol()": {
        "details": "See {IERC721Metadata-symbol}."
      },
      "tokenURI(uint256)": {
        "details": "See {IERC721Metadata-tokenURI}."
      },
      "transferFrom(address,address,uint256)": {
        "details": "See {IERC721-transferFrom}."
      },
      "transferOwnership(address)": {
        "details": "Transfers ownership of the contract to a new account (`newOwner`). Can only be called by the current owner."
      }
    },
    "version": 1
  },
  "userdoc": {
    "kind": "user",
    "methods": {},
    "version": 1
  }
}