{
  "contractName": "RandomNumberConsumer",
  "abi": [
    {
      "inputs": [],
      "stateMutability": "nonpayable",
      "type": "constructor"
    },
    {
      "anonymous": false,
      "inputs": [
        {
          "indexed": true,
          "internalType": "address",
          "name": "previousOwner",
          "type": "address"
        },
        {
          "indexed": true,
          "internalType": "address",
          "name": "newOwner",
          "type": "address"
        }
      ],
      "name": "OwnershipTransferred",
      "type": "event"
    },
    {
      "anonymous": false,
      "inputs": [
        {
          "indexed": false,
          "internalType": "uint256",
          "name": "randomResult",
          "type": "uint256"
        }
      ],
      "name": "RandomNumberCreated",
      "type": "event"
    },
    {
      "inputs": [],
      "name": "owner",
      "outputs": [
        {
          "internalType": "address",
          "name": "",
          "type": "address"
        }
      ],
      "stateMutability": "view",
      "type": "function"
    },
    {
      "inputs": [],
      "name": "randomResult",
      "outputs": [
        {
          "internalType": "uint256",
          "name": "",
          "type": "uint256"
        }
      ],
      "stateMutability": "view",
      "type": "function"
    },
    {
      "inputs": [
        {
          "internalType": "bytes32",
          "name": "requestId",
          "type": "bytes32"
        },
        {
          "internalType": "uint256",
          "name": "randomness",
          "type": "uint256"
        }
      ],
      "name": "rawFulfillRandomness",
      "outputs": [],
      "stateMutability": "nonpayable",
      "type": "function"
    },
    {
      "inputs": [],
      "name": "renounceOwnership",
      "outputs": [],
      "stateMutability": "nonpayable",
      "type": "function"
    },
    {
      "inputs": [
        {
          "internalType": "address",
          "name": "newOwner",
          "type": "address"
        }
      ],
      "name": "transferOwnership",
      "outputs": [],
      "stateMutability": "nonpayable",
      "type": "function"
    },
    {
      "inputs": [],
      "name": "getRandomNumber",
      "outputs": [
        {
          "internalType": "bytes32",
          "name": "requestId",
          "type": "bytes32"
        }
      ],
      "stateMutability": "nonpayable",
      "type": "function"
    }
  ],
  "bytecode": "0x60c060405234801561001057600080fd5b507fa555fc018435bef5a13c6c6870a9d4c11dec329c00000000000000000000000060a0527f84b9b910527ad5c03a9ca831909e21e236ea7b0600000000000000000000000060805261007b61006d6401000000006100b0810204565b6401000000006100b4810204565b7fcaf3c3727e033261d383b315559476f48034c13b18f8cafed4d871abe504918660025567016345785d8a0000600355610106565b3390565b60018054600160a060020a03838116600160a060020a0319831681179093556040519116919082907f8be0079c531659141344cd1fd0a4f28419497f9722a3daafe3b4186f6b6457e090600090a35050565b6080516c01000000000000000000000000900460a0516c0100000000000000000000000090046107c46101596000396000818161013f01526104b001526000818161021e015261048101526107c46000f3fe608060405234801561001057600080fd5b506004361061007e577c0100000000000000000000000000000000000000000000000000000000600035046342619f668114610083578063715018a61461009f5780638da5cb5b146100a957806394985ddd146100c4578063dbdff2c1146100d7578063f2fde38b146100df575b600080fd5b61008c60045481565b6040519081526020015b60405180910390f35b6100a76100f2565b005b600154604051600160a060020a039091168152602001610096565b6100a76100d2366004610672565b610134565b61008c6101bd565b6100a76100ed366004610620565b61032a565b600154600160a060020a031633146101285760405160e560020a62461bcd02815260040161011f9061071a565b60405180910390fd5b61013260006103e2565b565b33600160a060020a037f000000000000000000000000000000000000000000000000000000000000000016146101af5760405160e560020a62461bcd02815260206004820152601f60248201527f4f6e6c7920565246436f6f7264696e61746f722063616e2066756c66696c6c00604482015260640161011f565b6101b98282610441565b5050565b600154600090600160a060020a031633146101ed5760405160e560020a62461bcd02815260040161011f9061071a565b6003546040517f70a082310000000000000000000000000000000000000000000000000000000081523060048201527f0000000000000000000000000000000000000000000000000000000000000000600160a060020a0316906370a082319060240160206040518083038186803b15801561026857600080fd5b505afa15801561027c573d6000803e3d6000fd5b505050506040513d601f19601f820116820180604052508101906102a09190610694565b10156103175760405160e560020a62461bcd02815260206004820152602b60248201527f4e6f7420656e6f756768204c494e4b202d2066696c6c20636f6e74726163742060448201527f7769746820666175636574000000000000000000000000000000000000000000606482015260840161011f565b61032560025460035461047d565b905090565b600154600160a060020a031633146103575760405160e560020a62461bcd02815260040161011f9061071a565b600160a060020a0381166103d65760405160e560020a62461bcd02815260206004820152602660248201527f4f776e61626c653a206e6577206f776e657220697320746865207a65726f206160448201527f6464726573730000000000000000000000000000000000000000000000000000606482015260840161011f565b6103df816103e2565b50565b60018054600160a060020a0383811673ffffffffffffffffffffffffffffffffffffffff19831681179093556040519116919082907f8be0079c531659141344cd1fd0a4f28419497f9722a3daafe3b4186f6b6457e090600090a35050565b60048190556040518181527f3e03d1f6db9c938103954d9053238ec024c7852bb15999ab2bd58960b2c1919d9060200160405180910390a15050565b60007f0000000000000000000000000000000000000000000000000000000000000000600160a060020a0316634000aea07f0000000000000000000000000000000000000000000000000000000000000000848660006040516020016104ed929190918252602082015260400190565b60408051601f19818403018152908290527c010000000000000000000000000000000000000000000000000000000063ffffffff86160282526105349392916004016106ad565b602060405180830381600087803b15801561054e57600080fd5b505af1158015610562573d6000803e3d6000fd5b505050506040513d601f19601f820116820180604052508101906105869190610650565b5060008381526020818152604080832054815180840188905280830185905230606082015260808082018390528351808303909101815260a0909101909252815191830191909120868452929091526105e090600161074f565b6000858152602081815260409182902092909255805180830187905280820184905281518082038301815260609091019091528051910120949350505050565b60006020828403121561063257600080fd5b8135600160a060020a038116811461064957600080fd5b9392505050565b60006020828403121561066257600080fd5b8151801515811461064957600080fd5b6000806040838503121561068557600080fd5b50508035926020909101359150565b6000602082840312156106a657600080fd5b5051919050565b600160a060020a038416815260006020848184015260606040840152835180606085015260005b818110156106f0578581018301518582016080015282016106d4565b81811115610702576000608083870101525b50601f01601f19169290920160800195945050505050565b6020808252818101527f4f776e61626c653a2063616c6c6572206973206e6f7420746865206f776e6572604082015260600190565b60008219821115610789577f4e487b7100000000000000000000000000000000000000000000000000000000600052601160045260246000fd5b50019056fea2646970667358221220790b2f195b57c9ebd174df8dcfd0d3317fc8c54871d0718cc5d157721abfc9a864736f6c63430008070033",
  "immutableReferences": {
    "73": [
      {
        "length": 32,
        "start": 542
      },
      {
        "length": 32,
        "start": 1153
      }
    ],
    "75": [
      {
        "length": 32,
        "start": 319
      },
      {
        "length": 32,
        "start": 1200
      }
    ]
  },
  "source": "// SPDX-License-Identifier: MIT\npragma solidity ^0.8.0;\n\nimport \"@chainlink/contracts/src/v0.8/VRFConsumerBase.sol\";\nimport \"@openzeppelin/contracts/access/Ownable.sol\";\n\ncontract RandomNumberConsumer is VRFConsumerBase, Ownable {\n\n    bytes32 internal keyHash;\n    uint256 internal fee;\n\n    uint256 public randomResult;\n\n    event RandomNumberCreated(uint256 randomResult);\n\n    constructor()\n        VRFConsumerBase(\n            0xa555fC018435bef5A13C6c6870a9d4C11DEC329C, // VRF Coordinator\n            0x84b9B910527Ad5C03A9Ca831909E21e236EA7b06  // LINK Token\n        )\n    {\n        keyHash = 0xcaf3c3727e033261d383b315559476f48034c13b18f8cafed4d871abe5049186;\n        fee = 0.1 * 10 ** 18; // 0.1 LINK\n    }\n\n    /**\n     * Requests randomness\n     */\n    function getRandomNumber() public onlyOwner returns (bytes32 requestId) {\n        require(LINK.balanceOf(address(this)) >= fee, \"Not enough LINK - fill contract with faucet\");\n        return requestRandomness(keyHash, fee);\n    }\n\n    /**\n     * Callback function used by VRF Coordinator\n     */\n    function fulfillRandomness(bytes32, uint256 randomness) internal override {\n        randomResult = randomness;\n        emit RandomNumberCreated(randomResult);\n    }\n\n}\n",
  "sourcePath": "/home/youness/Crypto/PoliticsCollectible/contracts/RandomNumberConsumer.sol",
  "compiler": {
    "name": "solc",
    "version": "0.8.7+commit.e28d00a7.Emscripten.clang"
  },
  "schemaVersion": "3.4.3",
  "updatedAt": "2021-09-07T08:49:39.441Z",
  "devdoc": {
    "kind": "dev",
    "methods": {
      "owner()": {
        "details": "Returns the address of the current owner."
      },
      "renounceOwnership()": {
        "details": "Leaves the contract without owner. It will not be possible to call `onlyOwner` functions anymore. Can only be called by the current owner. NOTE: Renouncing ownership will leave the contract without an owner, thereby removing any functionality that is only available to the owner."
      },
      "transferOwnership(address)": {
        "details": "Transfers ownership of the contract to a new account (`newOwner`). Can only be called by the current owner."
      }
    },
    "version": 1
  },
  "userdoc": {
    "kind": "user",
    "methods": {
      "getRandomNumber()": {
        "notice": "Requests randomness"
      }
    },
    "version": 1
  }
}