{
  "contractName": "Sell",
  "abi": [
    {
      "anonymous": false,
      "inputs": [
        {
          "indexed": true,
          "internalType": "address",
          "name": "owner",
          "type": "address"
        },
        {
          "indexed": true,
          "internalType": "address",
          "name": "approved",
          "type": "address"
        },
        {
          "indexed": true,
          "internalType": "uint256",
          "name": "tokenId",
          "type": "uint256"
        }
      ],
      "name": "Approval",
      "type": "event"
    },
    {
      "anonymous": false,
      "inputs": [
        {
          "indexed": true,
          "internalType": "address",
          "name": "owner",
          "type": "address"
        },
        {
          "indexed": true,
          "internalType": "address",
          "name": "operator",
          "type": "address"
        },
        {
          "indexed": false,
          "internalType": "bool",
          "name": "approved",
          "type": "bool"
        }
      ],
      "name": "ApprovalForAll",
      "type": "event"
    },
    {
      "anonymous": false,
      "inputs": [
        {
          "indexed": true,
          "internalType": "address",
          "name": "previousOwner",
          "type": "address"
        },
        {
          "indexed": true,
          "internalType": "address",
          "name": "newOwner",
          "type": "address"
        }
      ],
      "name": "OwnershipTransferred",
      "type": "event"
    },
    {
      "anonymous": false,
      "inputs": [
        {
          "indexed": true,
          "internalType": "address",
          "name": "from",
          "type": "address"
        },
        {
          "indexed": true,
          "internalType": "address",
          "name": "to",
          "type": "address"
        },
        {
          "indexed": true,
          "internalType": "uint256",
          "name": "tokenId",
          "type": "uint256"
        }
      ],
      "name": "Transfer",
      "type": "event"
    },
    {
      "inputs": [
        {
          "internalType": "uint256",
          "name": "_id",
          "type": "uint256"
        },
        {
          "internalType": "uint256",
          "name": "_qty",
          "type": "uint256"
        }
      ],
      "name": "addQty",
      "outputs": [],
      "stateMutability": "nonpayable",
      "type": "function"
    },
    {
      "inputs": [
        {
          "internalType": "address",
          "name": "to",
          "type": "address"
        },
        {
          "internalType": "uint256",
          "name": "tokenId",
          "type": "uint256"
        }
      ],
      "name": "approve",
      "outputs": [],
      "stateMutability": "nonpayable",
      "type": "function"
    },
    {
      "inputs": [
        {
          "internalType": "uint256",
          "name": "",
          "type": "uint256"
        }
      ],
      "name": "arrayPoliticiansOnSale",
      "outputs": [
        {
          "internalType": "uint256",
          "name": "",
          "type": "uint256"
        }
      ],
      "stateMutability": "view",
      "type": "function"
    },
    {
      "inputs": [
        {
          "internalType": "address",
          "name": "owner",
          "type": "address"
        }
      ],
      "name": "balanceOf",
      "outputs": [
        {
          "internalType": "uint256",
          "name": "",
          "type": "uint256"
        }
      ],
      "stateMutability": "view",
      "type": "function"
    },
    {
      "inputs": [
        {
          "internalType": "uint256",
          "name": "_id",
          "type": "uint256"
        },
        {
          "internalType": "string",
          "name": "_tokenUri",
          "type": "string"
        }
      ],
      "name": "buy",
      "outputs": [],
      "stateMutability": "payable",
      "type": "function"
    },
    {
      "inputs": [],
      "name": "contractAddress",
      "outputs": [
        {
          "internalType": "address payable",
          "name": "",
          "type": "address"
        }
      ],
      "stateMutability": "view",
      "type": "function"
    },
    {
      "inputs": [
        {
          "internalType": "string",
          "name": "_name",
          "type": "string"
        },
        {
          "internalType": "uint256",
          "name": "_id",
          "type": "uint256"
        },
        {
          "internalType": "uint256",
          "name": "_qty",
          "type": "uint256"
        },
        {
          "internalType": "uint256",
          "name": "_level",
          "type": "uint256"
        },
        {
          "internalType": "uint256",
          "name": "_price",
          "type": "uint256"
        },
        {
          "internalType": "bool",
          "name": "_lottery",
          "type": "bool"
        }
      ],
      "name": "create",
      "outputs": [
        {
          "components": [
            {
              "internalType": "uint256",
              "name": "id",
              "type": "uint256"
            },
            {
              "internalType": "uint256",
              "name": "qty",
              "type": "uint256"
            },
            {
              "internalType": "uint256",
              "name": "level",
              "type": "uint256"
            },
            {
              "internalType": "uint256",
              "name": "price",
              "type": "uint256"
            },
            {
              "internalType": "string",
              "name": "name",
              "type": "string"
            },
            {
              "internalType": "bool",
              "name": "lottery",
              "type": "bool"
            },
            {
              "internalType": "bool",
              "name": "created",
              "type": "bool"
            }
          ],
          "internalType": "struct Collectible.PoliticsAvailable",
          "name": "",
          "type": "tuple"
        }
      ],
      "stateMutability": "nonpayable",
      "type": "function"
    },
    {
      "inputs": [
        {
          "internalType": "uint256",
          "name": "tokenId",
          "type": "uint256"
        }
      ],
      "name": "getApproved",
      "outputs": [
        {
          "internalType": "address",
          "name": "",
          "type": "address"
        }
      ],
      "stateMutability": "view",
      "type": "function"
    },
    {
      "inputs": [],
      "name": "getMyPolitics",
      "outputs": [
        {
          "components": [
            {
              "internalType": "uint256",
              "name": "id",
              "type": "uint256"
            },
            {
              "internalType": "uint256",
              "name": "id_politic",
              "type": "uint256"
            },
            {
              "internalType": "address",
              "name": "owner",
              "type": "address"
            }
          ],
          "internalType": "struct Collectible.PoliticsOwned[]",
          "name": "",
          "type": "tuple[]"
        }
      ],
      "stateMutability": "view",
      "type": "function"
    },
    {
      "inputs": [
        {
          "internalType": "uint256",
          "name": "_id",
          "type": "uint256"
        }
      ],
      "name": "getPolitic",
      "outputs": [
        {
          "components": [
            {
              "internalType": "uint256",
              "name": "id",
              "type": "uint256"
            },
            {
              "internalType": "uint256",
              "name": "qty",
              "type": "uint256"
            },
            {
              "internalType": "uint256",
              "name": "level",
              "type": "uint256"
            },
            {
              "internalType": "uint256",
              "name": "price",
              "type": "uint256"
            },
            {
              "internalType": "string",
              "name": "name",
              "type": "string"
            },
            {
              "internalType": "bool",
              "name": "lottery",
              "type": "bool"
            },
            {
              "internalType": "bool",
              "name": "created",
              "type": "bool"
            }
          ],
          "internalType": "struct Collectible.PoliticsAvailable",
          "name": "",
          "type": "tuple"
        }
      ],
      "stateMutability": "view",
      "type": "function"
    },
    {
      "inputs": [],
      "name": "getPolitics",
      "outputs": [
        {
          "components": [
            {
              "internalType": "uint256",
              "name": "id",
              "type": "uint256"
            },
            {
              "internalType": "uint256",
              "name": "qty",
              "type": "uint256"
            },
            {
              "internalType": "uint256",
              "name": "level",
              "type": "uint256"
            },
            {
              "internalType": "uint256",
              "name": "price",
              "type": "uint256"
            },
            {
              "internalType": "string",
              "name": "name",
              "type": "string"
            },
            {
              "internalType": "bool",
              "name": "lottery",
              "type": "bool"
            },
            {
              "internalType": "bool",
              "name": "created",
              "type": "bool"
            }
          ],
          "internalType": "struct Collectible.PoliticsAvailable[]",
          "name": "",
          "type": "tuple[]"
        }
      ],
      "stateMutability": "view",
      "type": "function"
    },
    {
      "inputs": [
        {
          "internalType": "address",
          "name": "owner",
          "type": "address"
        },
        {
          "internalType": "address",
          "name": "operator",
          "type": "address"
        }
      ],
      "name": "isApprovedForAll",
      "outputs": [
        {
          "internalType": "bool",
          "name": "",
          "type": "bool"
        }
      ],
      "stateMutability": "view",
      "type": "function"
    },
    {
      "inputs": [],
      "name": "name",
      "outputs": [
        {
          "internalType": "string",
          "name": "",
          "type": "string"
        }
      ],
      "stateMutability": "view",
      "type": "function"
    },
    {
      "inputs": [
        {
          "internalType": "address",
          "name": "",
          "type": "address"
        },
        {
          "internalType": "address",
          "name": "",
          "type": "address"
        },
        {
          "internalType": "uint256",
          "name": "",
          "type": "uint256"
        },
        {
          "internalType": "bytes",
          "name": "",
          "type": "bytes"
        }
      ],
      "name": "onERC721Received",
      "outputs": [
        {
          "internalType": "bytes4",
          "name": "",
          "type": "bytes4"
        }
      ],
      "stateMutability": "nonpayable",
      "type": "function"
    },
    {
      "inputs": [],
      "name": "owner",
      "outputs": [
        {
          "internalType": "address",
          "name": "",
          "type": "address"
        }
      ],
      "stateMutability": "view",
      "type": "function"
    },
    {
      "inputs": [],
      "name": "ownerAddress",
      "outputs": [
        {
          "internalType": "address payable",
          "name": "",
          "type": "address"
        }
      ],
      "stateMutability": "view",
      "type": "function"
    },
    {
      "inputs": [
        {
          "internalType": "uint256",
          "name": "tokenId",
          "type": "uint256"
        }
      ],
      "name": "ownerOf",
      "outputs": [
        {
          "internalType": "address",
          "name": "",
          "type": "address"
        }
      ],
      "stateMutability": "view",
      "type": "function"
    },
    {
      "inputs": [],
      "name": "renounceOwnership",
      "outputs": [],
      "stateMutability": "nonpayable",
      "type": "function"
    },
    {
      "inputs": [
        {
          "internalType": "address",
          "name": "from",
          "type": "address"
        },
        {
          "internalType": "address",
          "name": "to",
          "type": "address"
        },
        {
          "internalType": "uint256",
          "name": "tokenId",
          "type": "uint256"
        }
      ],
      "name": "safeTransferFrom",
      "outputs": [],
      "stateMutability": "nonpayable",
      "type": "function"
    },
    {
      "inputs": [
        {
          "internalType": "address",
          "name": "from",
          "type": "address"
        },
        {
          "internalType": "address",
          "name": "to",
          "type": "address"
        },
        {
          "internalType": "uint256",
          "name": "tokenId",
          "type": "uint256"
        },
        {
          "internalType": "bytes",
          "name": "_data",
          "type": "bytes"
        }
      ],
      "name": "safeTransferFrom",
      "outputs": [],
      "stateMutability": "nonpayable",
      "type": "function"
    },
    {
      "inputs": [
        {
          "internalType": "address",
          "name": "operator",
          "type": "address"
        },
        {
          "internalType": "bool",
          "name": "approved",
          "type": "bool"
        }
      ],
      "name": "setApprovalForAll",
      "outputs": [],
      "stateMutability": "nonpayable",
      "type": "function"
    },
    {
      "inputs": [
        {
          "internalType": "bytes4",
          "name": "interfaceId",
          "type": "bytes4"
        }
      ],
      "name": "supportsInterface",
      "outputs": [
        {
          "internalType": "bool",
          "name": "",
          "type": "bool"
        }
      ],
      "stateMutability": "view",
      "type": "function"
    },
    {
      "inputs": [],
      "name": "symbol",
      "outputs": [
        {
          "internalType": "string",
          "name": "",
          "type": "string"
        }
      ],
      "stateMutability": "view",
      "type": "function"
    },
    {
      "inputs": [
        {
          "internalType": "uint256",
          "name": "tokenId",
          "type": "uint256"
        }
      ],
      "name": "tokenURI",
      "outputs": [
        {
          "internalType": "string",
          "name": "",
          "type": "string"
        }
      ],
      "stateMutability": "view",
      "type": "function"
    },
    {
      "inputs": [
        {
          "internalType": "address",
          "name": "from",
          "type": "address"
        },
        {
          "internalType": "address",
          "name": "to",
          "type": "address"
        },
        {
          "internalType": "uint256",
          "name": "tokenId",
          "type": "uint256"
        }
      ],
      "name": "transferFrom",
      "outputs": [],
      "stateMutability": "nonpayable",
      "type": "function"
    },
    {
      "inputs": [
        {
          "internalType": "address",
          "name": "newOwner",
          "type": "address"
        }
      ],
      "name": "transferOwnership",
      "outputs": [],
      "stateMutability": "nonpayable",
      "type": "function"
    },
    {
      "inputs": [
        {
          "internalType": "uint256",
          "name": "_tokenId",
          "type": "uint256"
        },
        {
          "internalType": "uint256",
          "name": "_price",
          "type": "uint256"
        }
      ],
      "name": "forSale",
      "outputs": [],
      "stateMutability": "nonpayable",
      "type": "function"
    },
    {
      "inputs": [
        {
          "internalType": "uint256",
          "name": "_tokenId",
          "type": "uint256"
        }
      ],
      "name": "buyPoliticsForSale",
      "outputs": [],
      "stateMutability": "payable",
      "type": "function"
    },
    {
      "inputs": [
        {
          "internalType": "uint256",
          "name": "_tokenId",
          "type": "uint256"
        }
      ],
      "name": "cancelSell",
      "outputs": [],
      "stateMutability": "payable",
      "type": "function"
    }
  ],
  "bytecode": "0x60806040526001600e5560056011553480156200001b57600080fd5b50604080518082018252600b81527f506f6c69746963734e667400000000000000000000000000000000000000000060208083019182528351808501909452600384527f504f4c0000000000000000000000000000000000000000000000000000000000908401528151919291620000969160009162000157565b508051620000ac90600190602084019062000157565b505050620000db620000cc62000101640100000000026401000000009004565b64010000000062000105810204565b600c8054600160a060020a03199081163317909155600d80549091163017905562000253565b3390565b60078054600160a060020a03838116600160a060020a0319831681179093556040519116919082907f8be0079c531659141344cd1fd0a4f28419497f9722a3daafe3b4186f6b6457e090600090a35050565b8280546200016590620001fd565b90600052602060002090601f016020900481019282620001895760008555620001d4565b82601f10620001a457805160ff1916838001178555620001d4565b82800160010185558215620001d4579182015b82811115620001d4578251825591602001919060010190620001b7565b50620001e2929150620001e6565b5090565b5b80821115620001e25760008155600101620001e7565b6002810460018216806200021257607f821691505b602082108114156200024d577f4e487b7100000000000000000000000000000000000000000000000000000000600052602260045260246000fd5b50919050565b6136f880620002636000396000f3fe6080604052600436106101df576000357c01000000000000000000000000000000000000000000000000000000009004806370a0823111610114578063a22cb465116100b2578063c87b56dd11610081578063c87b56dd1461052e578063e985e9c51461054e578063f2fde38b14610597578063f6b4dfb4146105b757600080fd5b8063a22cb465146104bb578063b7dc3b18146104db578063b88d4fde146104ee578063b9db1c981461050e57600080fd5b80638da5cb5b116100ee5780638da5cb5b146104485780638f84aa09146104665780638fedc8641461048657806395d89b41146104a657600080fd5b806370a08231146103e3578063715018a61461041157806385d334361461042657600080fd5b806323b872dd11610181578063546f9e671161015b578063546f9e671461037057806354b3efa6146103835780635ad16b7f146103a35780636352211e146103c357600080fd5b806323b872dd1461030e57806330f105cd1461032e57806342842e0e1461035057600080fd5b8063081812fc116101bd578063081812fc14610250578063095ea7b31461028857806311143277146102a8578063150b7a02146102d557600080fd5b806301ffc9a7146101e457806306fdde031461021957806307c9cd451461023b575b600080fd5b3480156101f057600080fd5b506102046101ff36600461315d565b6105d7565b60405190151581526020015b60405180910390f35b34801561022557600080fd5b5061022e610674565b6040516102109190613447565b61024e61024936600461320a565b610706565b005b34801561025c57600080fd5b5061027061026b36600461320a565b6108b6565b604051600160a060020a039091168152602001610210565b34801561029457600080fd5b5061024e6102a3366004613133565b610952565b3480156102b457600080fd5b506102c86102c3366004613197565b610a8a565b6040516102109190613523565b3480156102e157600080fd5b506102f56102f036600461308d565b610d03565b604051600160e060020a03199091168152602001610210565b34801561031a57600080fd5b5061024e610329366004613051565b610d2d565b34801561033a57600080fd5b50610343610d5a565b6040516102109190613384565b34801561035c57600080fd5b5061024e61036b366004613051565b610eca565b61024e61037e36600461320a565b610ee5565b34801561038f57600080fd5b5061024e61039e36600461326a565b61115d565b3480156103af57600080fd5b506102c86103be36600461320a565b6112a1565b3480156103cf57600080fd5b506102706103de36600461320a565b611440565b3480156103ef57600080fd5b506104036103fe366004613003565b6114ce565b604051908152602001610210565b34801561041d57600080fd5b5061024e61156b565b34801561043257600080fd5b5061043b6115a4565b60405161021091906133e5565b34801561045457600080fd5b50600754600160a060020a0316610270565b34801561047257600080fd5b50600c5461027090600160a060020a031681565b34801561049257600080fd5b506104036104a136600461320a565b611628565b3480156104b257600080fd5b5061022e611649565b3480156104c757600080fd5b5061024e6104d6366004613109565b611658565b61024e6104e9366004613223565b611720565b3480156104fa57600080fd5b5061024e61050936600461308d565b611c7e565b34801561051a57600080fd5b5061024e61052936600461326a565b611d0f565b34801561053a57600080fd5b5061022e61054936600461320a565b611ea0565b34801561055a57600080fd5b5061020461056936600461301e565b600160a060020a03918216600090815260056020908152604080832093909416825291909152205460ff1690565b3480156105a357600080fd5b5061024e6105b2366004613003565b61201e565b3480156105c357600080fd5b50600d5461027090600160a060020a031681565b6000600160e060020a031982167f80ac58cd00000000000000000000000000000000000000000000000000000000148061063a5750600160e060020a031982167f5b5e139f00000000000000000000000000000000000000000000000000000000145b8061066e57507f01ffc9a700000000000000000000000000000000000000000000000000000000600160e060020a03198316145b92915050565b606060008054610683906135db565b80601f01602080910402602001604051908101604052809291908181526020018280546106af906135db565b80156106fc5780601f106106d1576101008083540402835291602001916106fc565b820191906000526020600020905b8154815290600101906020018083116106df57829003601f168201915b5050505050905090565b6000818152600f6020526040902060020154600160a060020a031633146107775760405160e560020a62461bcd02815260206004820152601360248201527f4e6f7420796f757220706f6c6974696369616e0000000000000000000000000060448201526064015b60405180910390fd5b6011546000828152600f602052604081206001015490916064916103e8906107a790670de0b6b3a7640000613562565b6107b1919061354e565b6107bb9190613562565b6107c5919061354e565b90508034146107e95760405160e560020a62461bcd02815260040161076e906134ec565b600c54604051600160a060020a039091169082156108fc029083906000818181858888f19350505050158015610823573d6000803e3d6000fd5b50600d546040517f42842e0e000000000000000000000000000000000000000000000000000000008152600160a060020a0390911660048201523360248201526044810183905230906342842e0e90606401600060405180830381600087803b15801561088f57600080fd5b505af11580156108a3573d6000803e3d6000fd5b505050506108b28260016120d6565b5050565b60006108c1826121aa565b6109365760405160e560020a62461bcd02815260206004820152602c60248201527f4552433732313a20617070726f76656420717565727920666f72206e6f6e657860448201527f697374656e7420746f6b656e0000000000000000000000000000000000000000606482015260840161076e565b50600090815260046020526040902054600160a060020a031690565b600061095d82611440565b905080600160a060020a031683600160a060020a031614156109ea5760405160e560020a62461bcd02815260206004820152602160248201527f4552433732313a20617070726f76616c20746f2063757272656e74206f776e6560448201527f7200000000000000000000000000000000000000000000000000000000000000606482015260840161076e565b33600160a060020a0382161480610a065750610a068133610569565b610a7b5760405160e560020a62461bcd02815260206004820152603860248201527f4552433732313a20617070726f76652063616c6c6572206973206e6f74206f7760448201527f6e6572206e6f7220617070726f76656420666f7220616c6c0000000000000000606482015260840161076e565b610a8583836121c7565b505050565b610a92612da3565b600754600160a060020a03163314610abf5760405160e560020a62461bcd02815260040161076e906134b7565b600086815260096020526040902060050154610100900460ff1615610b295760405160e560020a62461bcd02815260206004820152601160248201527f696420616c726561647920696e20757365000000000000000000000000000000604482015260640161076e565b6040805160e081018252878152602080820188815292820187815260608301878152608084018c815287151560a0860152600160c0860181905260088054918201815560005285517ff3f7a9fe364faab93b216da50a3214154f22a0a2b415b23a84c8169e8b636ee3600690920291820190815596517ff3f7a9fe364faab93b216da50a3214154f22a0a2b415b23a84c8169e8b636ee482015592517ff3f7a9fe364faab93b216da50a3214154f22a0a2b415b23a84c8169e8b636ee584015590517ff3f7a9fe364faab93b216da50a3214154f22a0a2b415b23a84c8169e8b636ee6830155518051939485949093610c46937ff3f7a9fe364faab93b216da50a3214154f22a0a2b415b23a84c8169e8b636ee701920190612de4565b5060a08201516005909101805460c09093015115156101000261ff00199215159290921661ffff1990931692909217179055600087815260096020908152604091829020835181558184015160018201559183015160028301556060830151600383015560808301518051849392610cc5926004850192910190612de4565b5060a08201516005909101805460c09093015115156101000261ff00199215159290921661ffff199093169290921717905590509695505050505050565b7f150b7a02000000000000000000000000000000000000000000000000000000005b949350505050565b600754600160a060020a03163314610a855760405160e560020a62461bcd02815260040161076e906134b7565b600754606090600160a060020a03163314610d8a5760405160e560020a62461bcd02815260040161076e906134b7565b6008805480602002602001604051908101604052809291908181526020016000905b82821015610ec157838290600052602060002090600602016040518060e001604052908160008201548152602001600182015481526020016002820154815260200160038201548152602001600482018054610e07906135db565b80601f0160208091040260200160405190810160405280929190818152602001828054610e33906135db565b8015610e805780601f10610e5557610100808354040283529160200191610e80565b820191906000526020600020905b815481529060010190602001808311610e6357829003601f168201915b50505091835250506005919091015460ff80821615156020808501919091526101009092041615156040909201919091529082526001929092019101610dac565b50505050905090565b610a8583838360405180602001604052806000815250611c7e565b6000818152600f602052604090206002015474010000000000000000000000000000000000000000900460ff16610f615760405160e560020a62461bcd02815260206004820152601760248201527f506f6c6974696369616e206e6f7420666f722073616c65000000000000000000604482015260640161076e565b6000818152600f6020526040902060020154600160a060020a0316331415610fce5760405160e560020a62461bcd02815260206004820152600f60248201527f596f757220706f6c6974696369616e0000000000000000000000000000000000604482015260640161076e565b6000818152600f60205260409020600101546103e890610ff690670de0b6b3a7640000613562565b611000919061354e565b34146110215760405160e560020a62461bcd02815260040161076e906134ec565b60006064601154346110339190613562565b61103d919061354e565b9050600061104b8234613581565b600c54604051919250600160a060020a03169083156108fc029084906000818181858888f19350505050158015611086573d6000803e3d6000fd5b506000838152600f6020526040808220600201549051600160a060020a039091169183156108fc02918491818181858888f193505050501580156110ce573d6000803e3d6000fd5b50600d546040517f42842e0e000000000000000000000000000000000000000000000000000000008152600160a060020a0390911660048201523360248201526044810184905230906342842e0e90606401600060405180830381600087803b15801561113a57600080fd5b505af115801561114e573d6000803e3d6000fd5b50505050610a858360016120d6565b6000828152600b6020526040902054600160a060020a031633146111ec5760405160e560020a62461bcd02815260206004820152602260248201527f596f7520617265206e6f7420746865206f776e6572206f662074686520746f6b60448201527f656e000000000000000000000000000000000000000000000000000000000000606482015260840161076e565b600d54611204903390600160a060020a031684610eca565b604080516080810182528381526020808201848152338385019081526001606085018181526000898152600f9095529590932084518155915182840155516002909101805494511515740100000000000000000000000000000000000000000274ffffffffffffffffffffffffffffffffffffffffff19909516600160a060020a0392909216919091179390931790925590610a859084906120d6565b6112a9612da3565b600754600160a060020a031633146112d65760405160e560020a62461bcd02815260040161076e906134b7565b600082815260096020526040902060050154610100900460ff1661133f5760405160e560020a62461bcd02815260206004820152601160248201527f506f6c69746963206e6f7420666f756e64000000000000000000000000000000604482015260640161076e565b600960008381526020019081526020016000206040518060e001604052908160008201548152602001600182015481526020016002820154815260200160038201548152602001600482018054611395906135db565b80601f01602080910402602001604051908101604052809291908181526020018280546113c1906135db565b801561140e5780601f106113e35761010080835404028352916020019161140e565b820191906000526020600020905b8154815290600101906020018083116113f157829003601f168201915b50505091835250506005919091015460ff8082161515602084015261010090910416151560409091015290505b919050565b600081815260026020526040812054600160a060020a03168061066e5760405160e560020a62461bcd02815260206004820152602960248201527f4552433732313a206f776e657220717565727920666f72206e6f6e657869737460448201527f656e7420746f6b656e0000000000000000000000000000000000000000000000606482015260840161076e565b6000600160a060020a03821661154f5760405160e560020a62461bcd02815260206004820152602a60248201527f4552433732313a2062616c616e636520717565727920666f7220746865207a6560448201527f726f206164647265737300000000000000000000000000000000000000000000606482015260840161076e565b50600160a060020a031660009081526003602052604090205490565b600754600160a060020a031633146115985760405160e560020a62461bcd02815260040161076e906134b7565b6115a26000612235565b565b336000908152600a60209081526040808320805482518185028101850190935280835260609492939192909184015b82821015610ec157600084815260209081902060408051606081018252600386029092018054835260018082015484860152600290910154600160a060020a03169183019190915290835290920191016115d3565b6010818154811061163857600080fd5b600091825260209091200154905081565b606060018054610683906135db565b600160a060020a0382163314156116b45760405160e560020a62461bcd02815260206004820152601960248201527f4552433732313a20617070726f766520746f2063616c6c657200000000000000604482015260640161076e565b336000818152600560209081526040808320600160a060020a03871680855290835292819020805460ff191686151590811790915590519081529192917f17307eab39ab6107e8899845ad3d59bd9653f200f220920489ca2b5937696c31910160405180910390a35050565b600082815260096020526040902060050154610100900460ff166117895760405160e560020a62461bcd02815260206004820152601160248201527f506f6c69746963206e6f7420666f756e64000000000000000000000000000000604482015260640161076e565b60008281526009602052604090206005015460ff16156118145760405160e560020a62461bcd02815260206004820152602360248201527f506f6c69746963206f6e6c7920617661696c61626c652077697468206c6f747460448201527f6572790000000000000000000000000000000000000000000000000000000000606482015260840161076e565b60008281526009602052604090206001015461189b5760405160e560020a62461bcd02815260206004820152602260248201527f5468657265206973206e6f206d6f726520706f6c6974696320617661696c616260448201527f6c65000000000000000000000000000000000000000000000000000000000000606482015260840161076e565b6000828152600960205260409020600301546103e8906118c390670de0b6b3a7640000613562565b6118cd919061354e565b34146118ee5760405160e560020a62461bcd02815260040161076e906134ec565b6118f6612da3565b60005b600854811015611b445783600882815481106119175761191761367a565b9060005260206000209060060201600001541415611b3257600881815481106119425761194261367a565b90600052602060002090600602016040518060e001604052908160008201548152602001600182015481526020016002820154815260200160038201548152602001600482018054611993906135db565b80601f01602080910402602001604051908101604052809291908181526020018280546119bf906135db565b8015611a0c5780601f106119e157610100808354040283529160200191611a0c565b820191906000526020600020905b8154815290600101906020018083116119ef57829003601f168201915b50505091835250506005919091015460ff80821615156020840152610100909104161515604090910152600880549193509082908110611a4e57611a4e61367a565b600091825260208220600160069092020101805491611a6c836135c4565b919050555060088181548110611a8457611a8461367a565b906000526020600020906006020160096000868152602001908152602001600020600082015481600001556001820154816001015560028201548160020155600382015481600301556004820181600401908054611ae1906135db565b611aec929190612e68565b506005918201805491909201805460ff19811660ff93841615159081178355935461ffff1990911661ff0019909416939093176101009384900490921615159092021790555b80611b3c81613619565b9150506118f9565b50600e5460408051602080820193909352336c0100000000000000000000000002818301528151603481830301815260549091019091528051910120600090611b93906402540be40090613634565b600e80549192506000611ba583613619565b9091555050600c54604051600160a060020a03909116903480156108fc02916000818181858888f19350505050158015611be3573d6000803e3d6000fd5b50611bee3382612287565b611bf881846122a1565b6040805160608101825282815292516020808501918252338584018181526000828152600a8452858120805460018181018355918352858320995160039091029099019889559451948801949094555160029096018054600160a060020a0397909716600160a060020a0319978816179055938252600b90522080549092161790555050565b611c88338361233e565b611cfd5760405160e560020a62461bcd02815260206004820152603160248201527f4552433732313a207472616e736665722063616c6c6572206973206e6f74206f60448201527f776e6572206e6f7220617070726f766564000000000000000000000000000000606482015260840161076e565b611d0984848484612438565b50505050565b600754600160a060020a03163314611d3c5760405160e560020a62461bcd02815260040161076e906134b7565b60005b600854811015610a85578260088281548110611d5d57611d5d61367a565b906000526020600020906006020160000154148015611d9f57508160088281548110611d8b57611d8b61367a565b906000526020600020906006020160010154105b15611e8e578160088281548110611db857611db861367a565b90600052602060002090600602016001018190555060088181548110611de057611de061367a565b906000526020600020906006020160096000858152602001908152602001600020600082015481600001556001820154816001015560028201548160020155600382015481600301556004820181600401908054611e3d906135db565b611e48929190612e68565b506005918201805491909201805460ff19811660ff93841615159081178355935461ffff1990911661ff0019909416939093176101009384900490921615159092021790555b80611e9881613619565b915050611d3f565b6060611eab826121aa565b611f205760405160e560020a62461bcd02815260206004820152603160248201527f45524337323155524953746f726167653a2055524920717565727920666f722060448201527f6e6f6e6578697374656e7420746f6b656e000000000000000000000000000000606482015260840161076e565b60008281526006602052604081208054611f39906135db565b80601f0160208091040260200160405190810160405280929190818152602001828054611f65906135db565b8015611fb25780601f10611f8757610100808354040283529160200191611fb2565b820191906000526020600020905b815481529060010190602001808311611f9557829003601f168201915b505050505090506000611fd060408051602081019091526000815290565b9050805160001415611fe3575092915050565b815115612015578082604051602001611ffd929190613319565b60405160208183030381529060405292505050919050565b610d258461246e565b600754600160a060020a0316331461204b5760405160e560020a62461bcd02815260040161076e906134b7565b600160a060020a0381166120ca5760405160e560020a62461bcd02815260206004820152602660248201527f4f776e61626c653a206e6577206f776e657220697320746865207a65726f206160448201527f6464726573730000000000000000000000000000000000000000000000000000606482015260840161076e565b6120d381612235565b50565b8015612174576000828152600f6020526040812081815560018101829055600201805474ffffffffffffffffffffffffffffffffffffffffff191690555b601054811015610a855782601082815481106121325761213261367a565b9060005260206000200154141561216257601081815481106121565761215661367a565b60009182526020822001555b8061216c81613619565b915050612114565b50601080546001810182556000919091527f1b6847dc741a1b0cd08d278845f9d819d87b734759afb55fe2de5cb82a9ae6720155565b600090815260026020526040902054600160a060020a0316151590565b60008181526004602052604090208054600160a060020a031916600160a060020a03841690811790915581906121fc82611440565b600160a060020a03167f8c5be1e5ebec7d5bd14f71427d1e84f3dd0314c0f7b2291e5b200ac8c7c3b92560405160405180910390a45050565b60078054600160a060020a03838116600160a060020a0319831681179093556040519116919082907f8be0079c531659141344cd1fd0a4f28419497f9722a3daafe3b4186f6b6457e090600090a35050565b6108b2828260405180602001604052806000815250612557565b6122aa826121aa565b61231f5760405160e560020a62461bcd02815260206004820152602e60248201527f45524337323155524953746f726167653a2055524920736574206f66206e6f6e60448201527f6578697374656e7420746f6b656e000000000000000000000000000000000000606482015260840161076e565b60008281526006602090815260409091208251610a8592840190612de4565b6000612349826121aa565b6123be5760405160e560020a62461bcd02815260206004820152602c60248201527f4552433732313a206f70657261746f7220717565727920666f72206e6f6e657860448201527f697374656e7420746f6b656e0000000000000000000000000000000000000000606482015260840161076e565b60006123c983611440565b905080600160a060020a031684600160a060020a03161480612404575083600160a060020a03166123f9846108b6565b600160a060020a0316145b80610d255750600160a060020a0380821660009081526005602090815260408083209388168352929052205460ff16610d25565b61244384848461258d565b61244f8484848461276b565b611d095760405160e560020a62461bcd02815260040161076e9061345a565b6060612479826121aa565b6124ee5760405160e560020a62461bcd02815260206004820152602f60248201527f4552433732314d657461646174613a2055524920717565727920666f72206e6f60448201527f6e6578697374656e7420746f6b656e0000000000000000000000000000000000606482015260840161076e565b600061250560408051602081019091526000815290565b905060008151116125255760405180602001604052806000815250612550565b8061252f846128aa565b604051602001612540929190613319565b6040516020818303038152906040525b9392505050565b61256183836129fb565b61256e600084848461276b565b610a855760405160e560020a62461bcd02815260040161076e9061345a565b82600160a060020a03166125a082611440565b600160a060020a03161461261f5760405160e560020a62461bcd02815260206004820152602960248201527f4552433732313a207472616e73666572206f6620746f6b656e2074686174206960448201527f73206e6f74206f776e0000000000000000000000000000000000000000000000606482015260840161076e565b600160a060020a03821661269d5760405160e560020a62461bcd028152602060048201526024808201527f4552433732313a207472616e7366657220746f20746865207a65726f2061646460448201527f7265737300000000000000000000000000000000000000000000000000000000606482015260840161076e565b6126a8838383612b40565b6126b36000826121c7565b600160a060020a03831660009081526003602052604081208054600192906126dc908490613581565b9091555050600160a060020a038216600090815260036020526040812080546001929061270a908490613536565b90915550506000818152600260205260408082208054600160a060020a031916600160a060020a0386811691821790925591518493918716917fddf252ad1be2c89b69c2b068fc378daa952ba7f163c4a11628f55a4df523b3ef91a4505050565b6000600160a060020a0384163b156128a2576040517f150b7a02000000000000000000000000000000000000000000000000000000008152600160a060020a0385169063150b7a02906127c8903390899088908890600401613348565b602060405180830381600087803b1580156127e257600080fd5b505af1925050508015612812575060408051601f3d908101601f1916820190925261280f9181019061317a565b60015b61286f573d808015612840576040519150601f19603f3d011682016040523d82523d6000602084013e612845565b606091505b5080516128675760405160e560020a62461bcd02815260040161076e9061345a565b805181602001fd5b600160e060020a0319167f150b7a0200000000000000000000000000000000000000000000000000000000149050610d25565b506001610d25565b6060816128ea57505060408051808201909152600181527f3000000000000000000000000000000000000000000000000000000000000000602082015290565b8160005b811561291457806128fe81613619565b915061290d9050600a8361354e565b91506128ee565b60008167ffffffffffffffff81111561292f5761292f613693565b6040519080825280601f01601f191660200182016040528015612959576020820181803683370190505b5090505b8415610d255761296e600183613581565b915061297b600a86613634565b612986906030613536565b7f0100000000000000000000000000000000000000000000000000000000000000028183815181106129ba576129ba61367a565b60200101907effffffffffffffffffffffffffffffffffffffffffffffffffffffffffffff1916908160001a9053506129f4600a8661354e565b945061295d565b600160a060020a038216612a545760405160e560020a62461bcd02815260206004820181905260248201527f4552433732313a206d696e7420746f20746865207a65726f2061646472657373604482015260640161076e565b612a5d816121aa565b15612aad5760405160e560020a62461bcd02815260206004820152601c60248201527f4552433732313a20746f6b656e20616c7265616479206d696e74656400000000604482015260640161076e565b612ab960008383612b40565b600160a060020a0382166000908152600360205260408120805460019290612ae2908490613536565b90915550506000818152600260205260408082208054600160a060020a031916600160a060020a03861690811790915590518392907fddf252ad1be2c89b69c2b068fc378daa952ba7f163c4a11628f55a4df523b3ef908290a45050565b600160a060020a0383166000908152600a6020908152604080832080548251818502810185019093528083529192909190849084015b82821015612bcb57600084815260209081902060408051606081018252600386029092018054835260018082015484860152600290910154600160a060020a0316918301919091529083529092019101612b76565b505050600160a060020a0386166000908152600a60205260408120929350612bf4929150612ee3565b60005b8151811015612d725782828281518110612c1357612c1361367a565b60200260200101516000015114612cb157600160a060020a0385166000908152600a602052604090208251839083908110612c5057612c5061367a565b6020908102919091018101518254600180820185556000948552938390208251600390920201908155918101519282019290925560409091015160029091018054600160a060020a031916600160a060020a03909216919091179055612d60565b83828281518110612cc457612cc461367a565b602090810291909101810151600160a060020a039283166040918201529186166000908152600a909152208251839083908110612d0357612d0361367a565b6020908102919091018101518254600180820185556000948552938390208251600390920201908155918101519282019290925560409091015160029091018054600160a060020a031916600160a060020a039092169190911790555b80612d6a81613619565b915050612bf7565b50506000908152600b602052604090208054600160a060020a031916600160a060020a039290921691909117905550565b6040518060e0016040528060008152602001600081526020016000815260200160008152602001606081526020016000151581526020016000151581525090565b828054612df0906135db565b90600052602060002090601f016020900481019282612e125760008555612e58565b82601f10612e2b57805160ff1916838001178555612e58565b82800160010185558215612e58579182015b82811115612e58578251825591602001919060010190612e3d565b50612e64929150612f04565b5090565b828054612e74906135db565b90600052602060002090601f016020900481019282612e965760008555612e58565b82601f10612ea75780548555612e58565b82800160010185558215612e5857600052602060002091601f016020900482015b82811115612e58578254825591600101919060010190612ec8565b50805460008255600302906000526020600020908101906120d39190612f19565b5b80821115612e645760008155600101612f05565b5b80821115612e645760008082556001820155600281018054600160a060020a0319169055600301612f1a565b600067ffffffffffffffff80841115612f6157612f61613693565b604051601f8501601f19908116603f01168101908282118183101715612f8957612f89613693565b81604052809350858152868686011115612fa257600080fd5b858560208301376000602087830101525050509392505050565b8035600160a060020a038116811461143b57600080fd5b8035801515811461143b57600080fd5b600082601f830112612ff457600080fd5b61255083833560208501612f46565b60006020828403121561301557600080fd5b61255082612fbc565b6000806040838503121561303157600080fd5b61303a83612fbc565b915061304860208401612fbc565b90509250929050565b60008060006060848603121561306657600080fd5b61306f84612fbc565b925061307d60208501612fbc565b9150604084013590509250925092565b600080600080608085870312156130a357600080fd5b6130ac85612fbc565b93506130ba60208601612fbc565b925060408501359150606085013567ffffffffffffffff8111156130dd57600080fd5b8501601f810187136130ee57600080fd5b6130fd87823560208401612f46565b91505092959194509250565b6000806040838503121561311c57600080fd5b61312583612fbc565b915061304860208401612fd3565b6000806040838503121561314657600080fd5b61314f83612fbc565b946020939093013593505050565b60006020828403121561316f57600080fd5b8135612550816136ac565b60006020828403121561318c57600080fd5b8151612550816136ac565b60008060008060008060c087890312156131b057600080fd5b863567ffffffffffffffff8111156131c757600080fd5b6131d389828a01612fe3565b965050602087013594506040870135935060608701359250608087013591506131fe60a08801612fd3565b90509295509295509295565b60006020828403121561321c57600080fd5b5035919050565b6000806040838503121561323657600080fd5b82359150602083013567ffffffffffffffff81111561325457600080fd5b61326085828601612fe3565b9150509250929050565b6000806040838503121561327d57600080fd5b50508035926020909101359150565b600081518084526132a4816020860160208601613598565b601f01601f19169290920160200192915050565b805182526020810151602083015260408101516040830152606081015160608301526000608082015160e060808501526132f560e085018261328c565b905060a0830151151560a085015260c0830151151560c08501528091505092915050565b6000835161332b818460208801613598565b83519083019061333f818360208801613598565b01949350505050565b6000600160a060020a0380871683528086166020840152508360408301526080606083015261337a608083018461328c565b9695505050505050565b600060208083018184528085518083526040860191506040848202870101925083870160005b828110156133d857603f198886030184526133c68583516132b8565b945092850192908501906001016133aa565b5092979650505050505050565b602080825282518282018190526000919060409081850190868401855b8281101561343a578151805185528681015187860152850151600160a060020a03168585015260609093019290850190600101613402565b5091979650505050505050565b602081526000612550602083018461328c565b60208082526032908201527f4552433732313a207472616e7366657220746f206e6f6e20455243373231526560408201527f63656976657220696d706c656d656e7465720000000000000000000000000000606082015260800190565b6020808252818101527f4f776e61626c653a2063616c6c6572206973206e6f7420746865206f776e6572604082015260600190565b60208082526010908201527f496e636f727265637420616d6f756e7400000000000000000000000000000000604082015260600190565b60208152600061255060208301846132b8565b6000821982111561354957613549613648565b500190565b60008261355d5761355d613661565b500490565b600081600019048311821515161561357c5761357c613648565b500290565b60008282101561359357613593613648565b500390565b60005b838110156135b357818101518382015260200161359b565b83811115611d095750506000910152565b6000816135d3576135d3613648565b506000190190565b6002810460018216806135ef57607f821691505b602082108114156136135760e060020a634e487b7102600052602260045260246000fd5b50919050565b600060001982141561362d5761362d613648565b5060010190565b60008261364357613643613661565b500690565b60e060020a634e487b7102600052601160045260246000fd5b60e060020a634e487b7102600052601260045260246000fd5b60e060020a634e487b7102600052603260045260246000fd5b60e060020a634e487b7102600052604160045260246000fd5b600160e060020a0319811681146120d357600080fdfea26469706673582212205a666fcb4425ad4f6463f123fec1c3928d3bc0f00fcc215ff392ca55ab30febb64736f6c63430008070033",
  "immutableReferences": {},
  "source": "// SPDX-License-Identifier: MIT\n\npragma solidity ^0.8.0;\nimport \"./Collectible.sol\";\n\n/**\n* @title Base function of sell ERC721\n* @author Youness Chetoui\n*/\ncontract Sell is Collectible {\n    struct PoliticOnSale {\n        uint256 tokenId;\n        uint256 price;\n        address payable owner;\n        bool created;\n    }\n\n    mapping(uint256 => PoliticOnSale) internal politicsOnSale;\n\n    uint256[] public arrayPoliticiansOnSale;\n    uint256 internal feeSale = 5;\n\n    /**\n    * @notice Up for sale of owned politician\n    * @param _tokenId of politician owned and _price wished\n    */\n    function forSale(uint256 _tokenId, uint256 _price) public {\n        require(politicToUser[_tokenId] == msg.sender, \"You are not the owner of the token\");\n\n        ERC721.safeTransferFrom(msg.sender, contractAddress, _tokenId);\n\n        PoliticOnSale memory politicOnSale =\n            PoliticOnSale({tokenId: _tokenId, price: _price, owner: payable(msg.sender), created: true});\n\n        politicsOnSale[_tokenId] = politicOnSale;\n\n        _updatePoliticianOnSale(_tokenId, true);\n    }\n\n    /**\n    * @notice Buy politician\n    * @param _tokenId of politician for sale\n    */\n    function buyPoliticsForSale(uint256 _tokenId) public payable {\n        require(politicsOnSale[_tokenId].created, \"Politician not for sale\");\n        require(msg.sender != politicsOnSale[_tokenId].owner, \"Your politician\");\n        require(msg.value == (politicsOnSale[_tokenId].price * 10**18) / 1000, \"Incorrect amount\");\n\n        // get 5% of fee\n        uint256 feeCost = msg.value * feeSale / 100;\n        uint256 amountOwner = msg.value - feeCost;\n        ownerAddress.transfer(feeCost);\n        politicsOnSale[_tokenId].owner.transfer(amountOwner);\n\n        // transfer collectible from contract to buyer\n        this.safeTransferFrom(contractAddress, msg.sender, _tokenId);\n\n        // Delete onSale\n        _updatePoliticianOnSale(_tokenId, true);\n    }\n\n    /**\n    * @notice Cancel the sell of politician\n    * @param _tokenId of politician for sale\n    */\n    function cancelSell(uint256 _tokenId) public payable {\n        require(msg.sender == politicsOnSale[_tokenId].owner, \"Not your politician\");\n        uint256 feeCost = ((politicsOnSale[_tokenId].price * 10**18) / 1000) * feeSale /100;\n        require(msg.value == feeCost, \"Incorrect amount\");\n\n        ownerAddress.transfer(feeCost);\n        // transfer collectible from contract to buyer\n        this.safeTransferFrom(contractAddress, msg.sender, _tokenId);\n\n        // Delete onSale\n        _updatePoliticianOnSale(_tokenId, true);\n    }\n\n    function _updatePoliticianOnSale(uint256 _tokenId, bool _delete) internal {\n        if (_delete) {\n            delete politicsOnSale[_tokenId];\n\n            for (uint i = 0; i < arrayPoliticiansOnSale.length; i++) {\n                if (arrayPoliticiansOnSale[i] == _tokenId) {\n                    delete arrayPoliticiansOnSale[i];\n                }\n            }\n        } else {\n            arrayPoliticiansOnSale.push(_tokenId);\n        }\n    }\n}\n",
  "sourcePath": "/home/youness/Crypto/PoliticsCollectible/contracts/Sell.sol",
  "compiler": {
    "name": "solc",
    "version": "0.8.7+commit.e28d00a7.Emscripten.clang"
  },
  "schemaVersion": "3.4.3",
  "updatedAt": "2021-09-02T12:11:06.693Z",
  "devdoc": {
    "author": "Youness Chetoui",
    "kind": "dev",
    "methods": {
      "addQty(uint256,uint256)": {
        "params": {
          "_id": "of PoliticsAvailable and _qty wished"
        }
      },
      "approve(address,uint256)": {
        "details": "See {IERC721-approve}."
      },
      "balanceOf(address)": {
        "details": "See {IERC721-balanceOf}."
      },
      "buy(uint256,string)": {
        "params": {
          "_id": ", _tokenUri of politician available"
        }
      },
      "buyPoliticsForSale(uint256)": {
        "params": {
          "_tokenId": "of politician for sale"
        }
      },
      "cancelSell(uint256)": {
        "params": {
          "_tokenId": "of politician for sale"
        }
      },
      "create(string,uint256,uint256,uint256,uint256,bool)": {
        "params": {
          "_name": ", _id, _qty, _level, _price and _lottery of politician available"
        },
        "returns": {
          "_0": "PoliticsAvailable created"
        }
      },
      "forSale(uint256,uint256)": {
        "params": {
          "_tokenId": "of politician owned and _price wished"
        }
      },
      "getApproved(uint256)": {
        "details": "See {IERC721-getApproved}."
      },
      "getMyPolitics()": {
        "returns": {
          "_0": "array of struct PoliticsOwned"
        }
      },
      "getPolitic(uint256)": {
        "params": {
          "_id": "of politician"
        },
        "returns": {
          "_0": "struct PoliticsAvailable"
        }
      },
      "getPolitics()": {
        "returns": {
          "_0": "Array of struct PoliticsAvailable"
        }
      },
      "isApprovedForAll(address,address)": {
        "details": "See {IERC721-isApprovedForAll}."
      },
      "name()": {
        "details": "See {IERC721Metadata-name}."
      },
      "onERC721Received(address,address,uint256,bytes)": {
        "details": "See {IERC721Receiver-onERC721Received}. Always returns `IERC721Receiver.onERC721Received.selector`."
      },
      "owner()": {
        "details": "Returns the address of the current owner."
      },
      "ownerOf(uint256)": {
        "details": "See {IERC721-ownerOf}."
      },
      "renounceOwnership()": {
        "details": "Leaves the contract without owner. It will not be possible to call `onlyOwner` functions anymore. Can only be called by the current owner. NOTE: Renouncing ownership will leave the contract without an owner, thereby removing any functionality that is only available to the owner."
      },
      "safeTransferFrom(address,address,uint256)": {
        "details": "See {IERC721-safeTransferFrom}."
      },
      "safeTransferFrom(address,address,uint256,bytes)": {
        "details": "See {IERC721-safeTransferFrom}."
      },
      "setApprovalForAll(address,bool)": {
        "details": "See {IERC721-setApprovalForAll}."
      },
      "supportsInterface(bytes4)": {
        "details": "See {IERC165-supportsInterface}."
      },
      "symbol()": {
        "details": "See {IERC721Metadata-symbol}."
      },
      "tokenURI(uint256)": {
        "details": "See {IERC721Metadata-tokenURI}."
      },
      "transferOwnership(address)": {
        "details": "Transfers ownership of the contract to a new account (`newOwner`). Can only be called by the current owner."
      }
    },
    "title": "Base function of sell ERC721",
    "version": 1
  },
  "userdoc": {
    "kind": "user",
    "methods": {
      "addQty(uint256,uint256)": {
        "notice": "Add quantity for a PoliticsAvailable"
      },
      "buy(uint256,string)": {
        "notice": "Buy politician"
      },
      "buyPoliticsForSale(uint256)": {
        "notice": "Buy politician"
      },
      "cancelSell(uint256)": {
        "notice": "Cancel the sell of politician"
      },
      "create(string,uint256,uint256,uint256,uint256,bool)": {
        "notice": "Create politician"
      },
      "forSale(uint256,uint256)": {
        "notice": "Up for sale of owned politician"
      },
      "getMyPolitics()": {
        "notice": "Get politician by user"
      },
      "getPolitic(uint256)": {
        "notice": "get politician available by id"
      },
      "getPolitics()": {
        "notice": "get list of all politician available"
      },
      "transferFrom(address,address,uint256)": {
        "notice": "Disabled not safe transform"
      }
    },
    "version": 1
  }
}