{
  "contractName": "Sell",
  "abi": [
    {
      "anonymous": false,
      "inputs": [
        {
          "indexed": true,
          "internalType": "address",
          "name": "owner",
          "type": "address"
        },
        {
          "indexed": true,
          "internalType": "address",
          "name": "approved",
          "type": "address"
        },
        {
          "indexed": true,
          "internalType": "uint256",
          "name": "tokenId",
          "type": "uint256"
        }
      ],
      "name": "Approval",
      "type": "event"
    },
    {
      "anonymous": false,
      "inputs": [
        {
          "indexed": true,
          "internalType": "address",
          "name": "owner",
          "type": "address"
        },
        {
          "indexed": true,
          "internalType": "address",
          "name": "operator",
          "type": "address"
        },
        {
          "indexed": false,
          "internalType": "bool",
          "name": "approved",
          "type": "bool"
        }
      ],
      "name": "ApprovalForAll",
      "type": "event"
    },
    {
      "anonymous": false,
      "inputs": [
        {
          "indexed": true,
          "internalType": "address",
          "name": "previousOwner",
          "type": "address"
        },
        {
          "indexed": true,
          "internalType": "address",
          "name": "newOwner",
          "type": "address"
        }
      ],
      "name": "OwnershipTransferred",
      "type": "event"
    },
    {
      "anonymous": false,
      "inputs": [
        {
          "indexed": true,
          "internalType": "address",
          "name": "from",
          "type": "address"
        },
        {
          "indexed": true,
          "internalType": "address",
          "name": "to",
          "type": "address"
        },
        {
          "indexed": true,
          "internalType": "uint256",
          "name": "tokenId",
          "type": "uint256"
        }
      ],
      "name": "Transfer",
      "type": "event"
    },
    {
      "inputs": [
        {
          "internalType": "uint256",
          "name": "_id",
          "type": "uint256"
        },
        {
          "internalType": "uint256",
          "name": "_qty",
          "type": "uint256"
        }
      ],
      "name": "addQty",
      "outputs": [],
      "stateMutability": "nonpayable",
      "type": "function"
    },
    {
      "inputs": [
        {
          "internalType": "address",
          "name": "to",
          "type": "address"
        },
        {
          "internalType": "uint256",
          "name": "tokenId",
          "type": "uint256"
        }
      ],
      "name": "approve",
      "outputs": [],
      "stateMutability": "nonpayable",
      "type": "function"
    },
    {
      "inputs": [
        {
          "internalType": "uint256",
          "name": "",
          "type": "uint256"
        }
      ],
      "name": "arrayPoliticiansOnSale",
      "outputs": [
        {
          "internalType": "uint256",
          "name": "",
          "type": "uint256"
        }
      ],
      "stateMutability": "view",
      "type": "function"
    },
    {
      "inputs": [
        {
          "internalType": "address",
          "name": "owner",
          "type": "address"
        }
      ],
      "name": "balanceOf",
      "outputs": [
        {
          "internalType": "uint256",
          "name": "",
          "type": "uint256"
        }
      ],
      "stateMutability": "view",
      "type": "function"
    },
    {
      "inputs": [
        {
          "internalType": "uint256",
          "name": "_id",
          "type": "uint256"
        },
        {
          "internalType": "string",
          "name": "_tokenUri",
          "type": "string"
        }
      ],
      "name": "buy",
      "outputs": [],
      "stateMutability": "payable",
      "type": "function"
    },
    {
      "inputs": [],
      "name": "contractAddress",
      "outputs": [
        {
          "internalType": "address payable",
          "name": "",
          "type": "address"
        }
      ],
      "stateMutability": "view",
      "type": "function"
    },
    {
      "inputs": [
        {
          "internalType": "string",
          "name": "_name",
          "type": "string"
        },
        {
          "internalType": "uint256",
          "name": "_id",
          "type": "uint256"
        },
        {
          "internalType": "uint256",
          "name": "_qty",
          "type": "uint256"
        },
        {
          "internalType": "uint256",
          "name": "_level",
          "type": "uint256"
        },
        {
          "internalType": "uint256",
          "name": "_price",
          "type": "uint256"
        },
        {
          "internalType": "bool",
          "name": "_lottery",
          "type": "bool"
        }
      ],
      "name": "create",
      "outputs": [
        {
          "components": [
            {
              "internalType": "uint256",
              "name": "id",
              "type": "uint256"
            },
            {
              "internalType": "uint256",
              "name": "qty",
              "type": "uint256"
            },
            {
              "internalType": "uint256",
              "name": "level",
              "type": "uint256"
            },
            {
              "internalType": "uint256",
              "name": "price",
              "type": "uint256"
            },
            {
              "internalType": "string",
              "name": "name",
              "type": "string"
            },
            {
              "internalType": "bool",
              "name": "lottery",
              "type": "bool"
            },
            {
              "internalType": "bool",
              "name": "created",
              "type": "bool"
            }
          ],
          "internalType": "struct Collectible.PoliticsAvailable",
          "name": "",
          "type": "tuple"
        }
      ],
      "stateMutability": "nonpayable",
      "type": "function"
    },
    {
      "inputs": [
        {
          "internalType": "uint256",
          "name": "tokenId",
          "type": "uint256"
        }
      ],
      "name": "getApproved",
      "outputs": [
        {
          "internalType": "address",
          "name": "",
          "type": "address"
        }
      ],
      "stateMutability": "view",
      "type": "function"
    },
    {
      "inputs": [],
      "name": "getMyPolitics",
      "outputs": [
        {
          "components": [
            {
              "internalType": "uint256",
              "name": "id",
              "type": "uint256"
            },
            {
              "internalType": "uint256",
              "name": "id_politic",
              "type": "uint256"
            },
            {
              "internalType": "address",
              "name": "owner",
              "type": "address"
            }
          ],
          "internalType": "struct Collectible.PoliticsOwned[]",
          "name": "",
          "type": "tuple[]"
        }
      ],
      "stateMutability": "view",
      "type": "function"
    },
    {
      "inputs": [],
      "name": "getPolitics",
      "outputs": [
        {
          "components": [
            {
              "internalType": "uint256",
              "name": "id",
              "type": "uint256"
            },
            {
              "internalType": "uint256",
              "name": "qty",
              "type": "uint256"
            },
            {
              "internalType": "uint256",
              "name": "level",
              "type": "uint256"
            },
            {
              "internalType": "uint256",
              "name": "price",
              "type": "uint256"
            },
            {
              "internalType": "string",
              "name": "name",
              "type": "string"
            },
            {
              "internalType": "bool",
              "name": "lottery",
              "type": "bool"
            },
            {
              "internalType": "bool",
              "name": "created",
              "type": "bool"
            }
          ],
          "internalType": "struct Collectible.PoliticsAvailable[]",
          "name": "",
          "type": "tuple[]"
        }
      ],
      "stateMutability": "view",
      "type": "function"
    },
    {
      "inputs": [
        {
          "internalType": "address",
          "name": "owner",
          "type": "address"
        },
        {
          "internalType": "address",
          "name": "operator",
          "type": "address"
        }
      ],
      "name": "isApprovedForAll",
      "outputs": [
        {
          "internalType": "bool",
          "name": "",
          "type": "bool"
        }
      ],
      "stateMutability": "view",
      "type": "function"
    },
    {
      "inputs": [],
      "name": "name",
      "outputs": [
        {
          "internalType": "string",
          "name": "",
          "type": "string"
        }
      ],
      "stateMutability": "view",
      "type": "function"
    },
    {
      "inputs": [
        {
          "internalType": "address",
          "name": "",
          "type": "address"
        },
        {
          "internalType": "address",
          "name": "",
          "type": "address"
        },
        {
          "internalType": "uint256",
          "name": "",
          "type": "uint256"
        },
        {
          "internalType": "bytes",
          "name": "",
          "type": "bytes"
        }
      ],
      "name": "onERC721Received",
      "outputs": [
        {
          "internalType": "bytes4",
          "name": "",
          "type": "bytes4"
        }
      ],
      "stateMutability": "nonpayable",
      "type": "function"
    },
    {
      "inputs": [],
      "name": "owner",
      "outputs": [
        {
          "internalType": "address",
          "name": "",
          "type": "address"
        }
      ],
      "stateMutability": "view",
      "type": "function"
    },
    {
      "inputs": [],
      "name": "ownerAddress",
      "outputs": [
        {
          "internalType": "address payable",
          "name": "",
          "type": "address"
        }
      ],
      "stateMutability": "view",
      "type": "function"
    },
    {
      "inputs": [
        {
          "internalType": "uint256",
          "name": "tokenId",
          "type": "uint256"
        }
      ],
      "name": "ownerOf",
      "outputs": [
        {
          "internalType": "address",
          "name": "",
          "type": "address"
        }
      ],
      "stateMutability": "view",
      "type": "function"
    },
    {
      "inputs": [],
      "name": "renounceOwnership",
      "outputs": [],
      "stateMutability": "nonpayable",
      "type": "function"
    },
    {
      "inputs": [
        {
          "internalType": "address",
          "name": "from",
          "type": "address"
        },
        {
          "internalType": "address",
          "name": "to",
          "type": "address"
        },
        {
          "internalType": "uint256",
          "name": "tokenId",
          "type": "uint256"
        }
      ],
      "name": "safeTransferFrom",
      "outputs": [],
      "stateMutability": "nonpayable",
      "type": "function"
    },
    {
      "inputs": [
        {
          "internalType": "address",
          "name": "from",
          "type": "address"
        },
        {
          "internalType": "address",
          "name": "to",
          "type": "address"
        },
        {
          "internalType": "uint256",
          "name": "tokenId",
          "type": "uint256"
        },
        {
          "internalType": "bytes",
          "name": "_data",
          "type": "bytes"
        }
      ],
      "name": "safeTransferFrom",
      "outputs": [],
      "stateMutability": "nonpayable",
      "type": "function"
    },
    {
      "inputs": [
        {
          "internalType": "address",
          "name": "operator",
          "type": "address"
        },
        {
          "internalType": "bool",
          "name": "approved",
          "type": "bool"
        }
      ],
      "name": "setApprovalForAll",
      "outputs": [],
      "stateMutability": "nonpayable",
      "type": "function"
    },
    {
      "inputs": [
        {
          "internalType": "bytes4",
          "name": "interfaceId",
          "type": "bytes4"
        }
      ],
      "name": "supportsInterface",
      "outputs": [
        {
          "internalType": "bool",
          "name": "",
          "type": "bool"
        }
      ],
      "stateMutability": "view",
      "type": "function"
    },
    {
      "inputs": [],
      "name": "symbol",
      "outputs": [
        {
          "internalType": "string",
          "name": "",
          "type": "string"
        }
      ],
      "stateMutability": "view",
      "type": "function"
    },
    {
      "inputs": [
        {
          "internalType": "uint256",
          "name": "tokenId",
          "type": "uint256"
        }
      ],
      "name": "tokenURI",
      "outputs": [
        {
          "internalType": "string",
          "name": "",
          "type": "string"
        }
      ],
      "stateMutability": "view",
      "type": "function"
    },
    {
      "inputs": [
        {
          "internalType": "address",
          "name": "from",
          "type": "address"
        },
        {
          "internalType": "address",
          "name": "to",
          "type": "address"
        },
        {
          "internalType": "uint256",
          "name": "tokenId",
          "type": "uint256"
        }
      ],
      "name": "transferFrom",
      "outputs": [],
      "stateMutability": "nonpayable",
      "type": "function"
    },
    {
      "inputs": [
        {
          "internalType": "address",
          "name": "newOwner",
          "type": "address"
        }
      ],
      "name": "transferOwnership",
      "outputs": [],
      "stateMutability": "nonpayable",
      "type": "function"
    },
    {
      "inputs": [
        {
          "internalType": "uint256",
          "name": "_tokenId",
          "type": "uint256"
        },
        {
          "internalType": "uint256",
          "name": "_price",
          "type": "uint256"
        }
      ],
      "name": "forSale",
      "outputs": [],
      "stateMutability": "nonpayable",
      "type": "function"
    },
    {
      "inputs": [
        {
          "internalType": "uint256",
          "name": "_tokenId",
          "type": "uint256"
        }
      ],
      "name": "buyPoliticsForSale",
      "outputs": [],
      "stateMutability": "payable",
      "type": "function"
    },
    {
      "inputs": [
        {
          "internalType": "uint256",
          "name": "_tokenId",
          "type": "uint256"
        }
      ],
      "name": "cancelSell",
      "outputs": [],
      "stateMutability": "payable",
      "type": "function"
    }
  ],
  "bytecode": "0x60806040526001600e5560056011553480156200001b57600080fd5b50604080518082018252600b81527f506f6c69746963734e667400000000000000000000000000000000000000000060208083019182528351808501909452600384527f504f4c0000000000000000000000000000000000000000000000000000000000908401528151919291620000969160009162000157565b508051620000ac90600190602084019062000157565b505050620000db620000cc62000101640100000000026401000000009004565b64010000000062000105810204565b600c8054600160a060020a03199081163317909155600d80549091163017905562000253565b3390565b60078054600160a060020a03838116600160a060020a0319831681179093556040519116919082907f8be0079c531659141344cd1fd0a4f28419497f9722a3daafe3b4186f6b6457e090600090a35050565b8280546200016590620001fd565b90600052602060002090601f016020900481019282620001895760008555620001d4565b82601f10620001a457805160ff1916838001178555620001d4565b82800160010185558215620001d4579182015b82811115620001d4578251825591602001919060010190620001b7565b50620001e2929150620001e6565b5090565b5b80821115620001e25760008155600101620001e7565b6002810460018216806200021257607f821691505b602082108114156200024d577f4e487b7100000000000000000000000000000000000000000000000000000000600052602260045260246000fd5b50919050565b61356a80620002636000396000f3fe6080604052600436106101d4576000357c010000000000000000000000000000000000000000000000000000000090048063715018a611610109578063b7dc3b18116100a7578063c87b56dd11610081578063c87b56dd14610503578063e985e9c514610523578063f2fde38b1461056c578063f6b4dfb41461058c57600080fd5b8063b7dc3b18146104b0578063b88d4fde146104c3578063b9db1c98146104e357600080fd5b80638f84aa09116100e35780638f84aa091461043b5780638fedc8641461045b57806395d89b411461047b578063a22cb4651461049057600080fd5b8063715018a6146103e657806385d33436146103fb5780638da5cb5b1461041d57600080fd5b806323b872dd11610176578063546f9e6711610150578063546f9e671461036557806354b3efa6146103785780636352211e1461039857806370a08231146103b857600080fd5b806323b872dd1461030357806330f105cd1461032357806342842e0e1461034557600080fd5b8063081812fc116101b2578063081812fc14610245578063095ea7b31461027d578063111432771461029d578063150b7a02146102ca57600080fd5b806301ffc9a7146101d957806306fdde031461020e57806307c9cd4514610230575b600080fd5b3480156101e557600080fd5b506101f96101f4366004612fcf565b6105ac565b60405190151581526020015b60405180910390f35b34801561021a57600080fd5b50610223610649565b60405161020591906132b9565b61024361023e36600461307c565b6106db565b005b34801561025157600080fd5b5061026561026036600461307c565b61088b565b604051600160a060020a039091168152602001610205565b34801561028957600080fd5b50610243610298366004612fa5565b610927565b3480156102a957600080fd5b506102bd6102b8366004613009565b610a5f565b6040516102059190613395565b3480156102d657600080fd5b506102ea6102e5366004612eff565b610d14565b604051600160e060020a03199091168152602001610205565b34801561030f57600080fd5b5061024361031e366004612ec3565b610d3e565b34801561032f57600080fd5b50610338610d6b565b60405161020591906131f6565b34801561035157600080fd5b50610243610360366004612ec3565b610edb565b61024361037336600461307c565b610ef6565b34801561038457600080fd5b506102436103933660046130dc565b61116e565b3480156103a457600080fd5b506102656103b336600461307c565b6112b2565b3480156103c457600080fd5b506103d86103d3366004612e75565b611340565b604051908152602001610205565b3480156103f257600080fd5b506102436113dd565b34801561040757600080fd5b50610410611416565b6040516102059190613257565b34801561042957600080fd5b50600754600160a060020a0316610265565b34801561044757600080fd5b50600c5461026590600160a060020a031681565b34801561046757600080fd5b506103d861047636600461307c565b61149a565b34801561048757600080fd5b506102236114bb565b34801561049c57600080fd5b506102436104ab366004612f7b565b6114ca565b6102436104be366004613095565b611592565b3480156104cf57600080fd5b506102436104de366004612eff565b611b2c565b3480156104ef57600080fd5b506102436104fe3660046130dc565b611bbd565b34801561050f57600080fd5b5061022361051e36600461307c565b611d4e565b34801561052f57600080fd5b506101f961053e366004612e90565b600160a060020a03918216600090815260056020908152604080832093909416825291909152205460ff1690565b34801561057857600080fd5b50610243610587366004612e75565b611ecc565b34801561059857600080fd5b50600d5461026590600160a060020a031681565b6000600160e060020a031982167f80ac58cd00000000000000000000000000000000000000000000000000000000148061060f5750600160e060020a031982167f5b5e139f00000000000000000000000000000000000000000000000000000000145b8061064357507f01ffc9a700000000000000000000000000000000000000000000000000000000600160e060020a03198316145b92915050565b6060600080546106589061344d565b80601f01602080910402602001604051908101604052809291908181526020018280546106849061344d565b80156106d15780601f106106a6576101008083540402835291602001916106d1565b820191906000526020600020905b8154815290600101906020018083116106b457829003601f168201915b5050505050905090565b6000818152600f6020526040902060020154600160a060020a0316331461074c5760405160e560020a62461bcd02815260206004820152601360248201527f4e6f7420796f757220706f6c6974696369616e0000000000000000000000000060448201526064015b60405180910390fd5b6011546000828152600f602052604081206001015490916064916103e89061077c90670de0b6b3a76400006133d4565b61078691906133c0565b61079091906133d4565b61079a91906133c0565b90508034146107be5760405160e560020a62461bcd0281526004016107439061335e565b600c54604051600160a060020a039091169082156108fc029083906000818181858888f193505050501580156107f8573d6000803e3d6000fd5b50600d546040517f42842e0e000000000000000000000000000000000000000000000000000000008152600160a060020a0390911660048201523360248201526044810183905230906342842e0e90606401600060405180830381600087803b15801561086457600080fd5b505af1158015610878573d6000803e3d6000fd5b50505050610887826001611f84565b5050565b600061089682612058565b61090b5760405160e560020a62461bcd02815260206004820152602c60248201527f4552433732313a20617070726f76656420717565727920666f72206e6f6e657860448201527f697374656e7420746f6b656e00000000000000000000000000000000000000006064820152608401610743565b50600090815260046020526040902054600160a060020a031690565b6000610932826112b2565b905080600160a060020a031683600160a060020a031614156109bf5760405160e560020a62461bcd02815260206004820152602160248201527f4552433732313a20617070726f76616c20746f2063757272656e74206f776e6560448201527f72000000000000000000000000000000000000000000000000000000000000006064820152608401610743565b33600160a060020a03821614806109db57506109db813361053e565b610a505760405160e560020a62461bcd02815260206004820152603860248201527f4552433732313a20617070726f76652063616c6c6572206973206e6f74206f7760448201527f6e6572206e6f7220617070726f76656420666f7220616c6c00000000000000006064820152608401610743565b610a5a8383612075565b505050565b610aa36040518060e0016040528060008152602001600081526020016000815260200160008152602001606081526020016000151581526020016000151581525090565b600754600160a060020a03163314610ad05760405160e560020a62461bcd02815260040161074390613329565b600086815260096020526040902060050154610100900460ff1615610b3a5760405160e560020a62461bcd02815260206004820152601160248201527f696420616c726561647920696e207573650000000000000000000000000000006044820152606401610743565b6040805160e081018252878152602080820188815292820187815260608301878152608084018c815287151560a0860152600160c0860181905260088054918201815560005285517ff3f7a9fe364faab93b216da50a3214154f22a0a2b415b23a84c8169e8b636ee3600690920291820190815596517ff3f7a9fe364faab93b216da50a3214154f22a0a2b415b23a84c8169e8b636ee482015592517ff3f7a9fe364faab93b216da50a3214154f22a0a2b415b23a84c8169e8b636ee584015590517ff3f7a9fe364faab93b216da50a3214154f22a0a2b415b23a84c8169e8b636ee6830155518051939485949093610c57937ff3f7a9fe364faab93b216da50a3214154f22a0a2b415b23a84c8169e8b636ee701920190612c51565b5060a08201516005909101805460c09093015115156101000261ff00199215159290921661ffff1990931692909217179055600087815260096020908152604091829020835181558184015160018201559183015160028301556060830151600383015560808301518051849392610cd6926004850192910190612c51565b5060a08201516005909101805460c09093015115156101000261ff00199215159290921661ffff199093169290921717905590509695505050505050565b7f150b7a02000000000000000000000000000000000000000000000000000000005b949350505050565b600754600160a060020a03163314610a5a5760405160e560020a62461bcd02815260040161074390613329565b600754606090600160a060020a03163314610d9b5760405160e560020a62461bcd02815260040161074390613329565b6008805480602002602001604051908101604052809291908181526020016000905b82821015610ed257838290600052602060002090600602016040518060e001604052908160008201548152602001600182015481526020016002820154815260200160038201548152602001600482018054610e189061344d565b80601f0160208091040260200160405190810160405280929190818152602001828054610e449061344d565b8015610e915780601f10610e6657610100808354040283529160200191610e91565b820191906000526020600020905b815481529060010190602001808311610e7457829003601f168201915b50505091835250506005919091015460ff80821615156020808501919091526101009092041615156040909201919091529082526001929092019101610dbd565b50505050905090565b610a5a83838360405180602001604052806000815250611b2c565b6000818152600f602052604090206002015474010000000000000000000000000000000000000000900460ff16610f725760405160e560020a62461bcd02815260206004820152601760248201527f506f6c6974696369616e206e6f7420666f722073616c650000000000000000006044820152606401610743565b6000818152600f6020526040902060020154600160a060020a0316331415610fdf5760405160e560020a62461bcd02815260206004820152600f60248201527f596f757220706f6c6974696369616e00000000000000000000000000000000006044820152606401610743565b6000818152600f60205260409020600101546103e89061100790670de0b6b3a76400006133d4565b61101191906133c0565b34146110325760405160e560020a62461bcd0281526004016107439061335e565b600060646011543461104491906133d4565b61104e91906133c0565b9050600061105c82346133f3565b600c54604051919250600160a060020a03169083156108fc029084906000818181858888f19350505050158015611097573d6000803e3d6000fd5b506000838152600f6020526040808220600201549051600160a060020a039091169183156108fc02918491818181858888f193505050501580156110df573d6000803e3d6000fd5b50600d546040517f42842e0e000000000000000000000000000000000000000000000000000000008152600160a060020a0390911660048201523360248201526044810184905230906342842e0e90606401600060405180830381600087803b15801561114b57600080fd5b505af115801561115f573d6000803e3d6000fd5b50505050610a5a836001611f84565b6000828152600b6020526040902054600160a060020a031633146111fd5760405160e560020a62461bcd02815260206004820152602260248201527f596f7520617265206e6f7420746865206f776e6572206f662074686520746f6b60448201527f656e0000000000000000000000000000000000000000000000000000000000006064820152608401610743565b600d54611215903390600160a060020a031684610edb565b604080516080810182528381526020808201848152338385019081526001606085018181526000898152600f9095529590932084518155915182840155516002909101805494511515740100000000000000000000000000000000000000000274ffffffffffffffffffffffffffffffffffffffffff19909516600160a060020a0392909216919091179390931790925590610a5a908490611f84565b600081815260026020526040812054600160a060020a0316806106435760405160e560020a62461bcd02815260206004820152602960248201527f4552433732313a206f776e657220717565727920666f72206e6f6e657869737460448201527f656e7420746f6b656e00000000000000000000000000000000000000000000006064820152608401610743565b6000600160a060020a0382166113c15760405160e560020a62461bcd02815260206004820152602a60248201527f4552433732313a2062616c616e636520717565727920666f7220746865207a6560448201527f726f2061646472657373000000000000000000000000000000000000000000006064820152608401610743565b50600160a060020a031660009081526003602052604090205490565b600754600160a060020a0316331461140a5760405160e560020a62461bcd02815260040161074390613329565b61141460006120e3565b565b336000908152600a60209081526040808320805482518185028101850190935280835260609492939192909184015b82821015610ed257600084815260209081902060408051606081018252600386029092018054835260018082015484860152600290910154600160a060020a0316918301919091529083529092019101611445565b601081815481106114aa57600080fd5b600091825260209091200154905081565b6060600180546106589061344d565b600160a060020a0382163314156115265760405160e560020a62461bcd02815260206004820152601960248201527f4552433732313a20617070726f766520746f2063616c6c6572000000000000006044820152606401610743565b336000818152600560209081526040808320600160a060020a03871680855290835292819020805460ff191686151590811790915590519081529192917f17307eab39ab6107e8899845ad3d59bd9653f200f220920489ca2b5937696c31910160405180910390a35050565b600082815260096020526040902060050154610100900460ff166115fb5760405160e560020a62461bcd02815260206004820152601160248201527f506f6c69746963206e6f7420666f756e640000000000000000000000000000006044820152606401610743565b60008281526009602052604090206005015460ff16156116865760405160e560020a62461bcd02815260206004820152602360248201527f506f6c69746963206f6e6c7920617661696c61626c652077697468206c6f747460448201527f65727900000000000000000000000000000000000000000000000000000000006064820152608401610743565b60008281526009602052604090206001015461170d5760405160e560020a62461bcd02815260206004820152602260248201527f5468657265206973206e6f206d6f726520706f6c6974696320617661696c616260448201527f6c650000000000000000000000000000000000000000000000000000000000006064820152608401610743565b6000828152600960205260409020600301546103e89061173590670de0b6b3a76400006133d4565b61173f91906133c0565b34146117605760405160e560020a62461bcd0281526004016107439061335e565b6117a46040518060e0016040528060008152602001600081526020016000815260200160008152602001606081526020016000151581526020016000151581525090565b60005b6008548110156119f25783600882815481106117c5576117c56134ec565b90600052602060002090600602016000015414156119e057600881815481106117f0576117f06134ec565b90600052602060002090600602016040518060e0016040529081600082015481526020016001820154815260200160028201548152602001600382015481526020016004820180546118419061344d565b80601f016020809104026020016040519081016040528092919081815260200182805461186d9061344d565b80156118ba5780601f1061188f576101008083540402835291602001916118ba565b820191906000526020600020905b81548152906001019060200180831161189d57829003601f168201915b50505091835250506005919091015460ff808216151560208401526101009091041615156040909101526008805491935090829081106118fc576118fc6134ec565b60009182526020822060016006909202010180549161191a83613436565b919050555060088181548110611932576119326134ec565b90600052602060002090600602016009600086815260200190815260200160002060008201548160000155600182015481600101556002820154816002015560038201548160030155600482018160040190805461198f9061344d565b61199a929190612cd5565b506005918201805491909201805460ff19811660ff93841615159081178355935461ffff1990911661ff0019909416939093176101009384900490921615159092021790555b806119ea8161348b565b9150506117a7565b50600e5460408051602080820193909352336c0100000000000000000000000002818301528151603481830301815260549091019091528051910120600090611a41906402540be400906134a6565b600e80549192506000611a538361348b565b9091555050600c54604051600160a060020a03909116903480156108fc02916000818181858888f19350505050158015611a91573d6000803e3d6000fd5b50611a9c3382612135565b611aa6818461214f565b6040805160608101825282815292516020808501918252338584018181526000828152600a8452858120805460018181018355918352858320995160039091029099019889559451948801949094555160029096018054600160a060020a0397909716600160a060020a0319978816179055938252600b90522080549092161790555050565b611b3633836121ec565b611bab5760405160e560020a62461bcd02815260206004820152603160248201527f4552433732313a207472616e736665722063616c6c6572206973206e6f74206f60448201527f776e6572206e6f7220617070726f7665640000000000000000000000000000006064820152608401610743565b611bb7848484846122e6565b50505050565b600754600160a060020a03163314611bea5760405160e560020a62461bcd02815260040161074390613329565b60005b600854811015610a5a578260088281548110611c0b57611c0b6134ec565b906000526020600020906006020160000154148015611c4d57508160088281548110611c3957611c396134ec565b906000526020600020906006020160010154105b15611d3c578160088281548110611c6657611c666134ec565b90600052602060002090600602016001018190555060088181548110611c8e57611c8e6134ec565b906000526020600020906006020160096000858152602001908152602001600020600082015481600001556001820154816001015560028201548160020155600382015481600301556004820181600401908054611ceb9061344d565b611cf6929190612cd5565b506005918201805491909201805460ff19811660ff93841615159081178355935461ffff1990911661ff0019909416939093176101009384900490921615159092021790555b80611d468161348b565b915050611bed565b6060611d5982612058565b611dce5760405160e560020a62461bcd02815260206004820152603160248201527f45524337323155524953746f726167653a2055524920717565727920666f722060448201527f6e6f6e6578697374656e7420746f6b656e0000000000000000000000000000006064820152608401610743565b60008281526006602052604081208054611de79061344d565b80601f0160208091040260200160405190810160405280929190818152602001828054611e139061344d565b8015611e605780601f10611e3557610100808354040283529160200191611e60565b820191906000526020600020905b815481529060010190602001808311611e4357829003601f168201915b505050505090506000611e7e60408051602081019091526000815290565b9050805160001415611e91575092915050565b815115611ec3578082604051602001611eab92919061318b565b60405160208183030381529060405292505050919050565b610d368461231c565b600754600160a060020a03163314611ef95760405160e560020a62461bcd02815260040161074390613329565b600160a060020a038116611f785760405160e560020a62461bcd02815260206004820152602660248201527f4f776e61626c653a206e6577206f776e657220697320746865207a65726f206160448201527f64647265737300000000000000000000000000000000000000000000000000006064820152608401610743565b611f81816120e3565b50565b8015612022576000828152600f6020526040812081815560018101829055600201805474ffffffffffffffffffffffffffffffffffffffffff191690555b601054811015610a5a578260108281548110611fe057611fe06134ec565b906000526020600020015414156120105760108181548110612004576120046134ec565b60009182526020822001555b8061201a8161348b565b915050611fc2565b50601080546001810182556000919091527f1b6847dc741a1b0cd08d278845f9d819d87b734759afb55fe2de5cb82a9ae6720155565b600090815260026020526040902054600160a060020a0316151590565b60008181526004602052604090208054600160a060020a031916600160a060020a03841690811790915581906120aa826112b2565b600160a060020a03167f8c5be1e5ebec7d5bd14f71427d1e84f3dd0314c0f7b2291e5b200ac8c7c3b92560405160405180910390a45050565b60078054600160a060020a03838116600160a060020a0319831681179093556040519116919082907f8be0079c531659141344cd1fd0a4f28419497f9722a3daafe3b4186f6b6457e090600090a35050565b610887828260405180602001604052806000815250612405565b61215882612058565b6121cd5760405160e560020a62461bcd02815260206004820152602e60248201527f45524337323155524953746f726167653a2055524920736574206f66206e6f6e60448201527f6578697374656e7420746f6b656e0000000000000000000000000000000000006064820152608401610743565b60008281526006602090815260409091208251610a5a92840190612c51565b60006121f782612058565b61226c5760405160e560020a62461bcd02815260206004820152602c60248201527f4552433732313a206f70657261746f7220717565727920666f72206e6f6e657860448201527f697374656e7420746f6b656e00000000000000000000000000000000000000006064820152608401610743565b6000612277836112b2565b905080600160a060020a031684600160a060020a031614806122b2575083600160a060020a03166122a78461088b565b600160a060020a0316145b80610d365750600160a060020a0380821660009081526005602090815260408083209388168352929052205460ff16610d36565b6122f184848461243b565b6122fd84848484612619565b611bb75760405160e560020a62461bcd028152600401610743906132cc565b606061232782612058565b61239c5760405160e560020a62461bcd02815260206004820152602f60248201527f4552433732314d657461646174613a2055524920717565727920666f72206e6f60448201527f6e6578697374656e7420746f6b656e00000000000000000000000000000000006064820152608401610743565b60006123b360408051602081019091526000815290565b905060008151116123d357604051806020016040528060008152506123fe565b806123dd84612758565b6040516020016123ee92919061318b565b6040516020818303038152906040525b9392505050565b61240f83836128a9565b61241c6000848484612619565b610a5a5760405160e560020a62461bcd028152600401610743906132cc565b82600160a060020a031661244e826112b2565b600160a060020a0316146124cd5760405160e560020a62461bcd02815260206004820152602960248201527f4552433732313a207472616e73666572206f6620746f6b656e2074686174206960448201527f73206e6f74206f776e00000000000000000000000000000000000000000000006064820152608401610743565b600160a060020a03821661254b5760405160e560020a62461bcd028152602060048201526024808201527f4552433732313a207472616e7366657220746f20746865207a65726f2061646460448201527f72657373000000000000000000000000000000000000000000000000000000006064820152608401610743565b6125568383836129ee565b612561600082612075565b600160a060020a038316600090815260036020526040812080546001929061258a9084906133f3565b9091555050600160a060020a03821660009081526003602052604081208054600192906125b89084906133a8565b90915550506000818152600260205260408082208054600160a060020a031916600160a060020a0386811691821790925591518493918716917fddf252ad1be2c89b69c2b068fc378daa952ba7f163c4a11628f55a4df523b3ef91a4505050565b6000600160a060020a0384163b15612750576040517f150b7a02000000000000000000000000000000000000000000000000000000008152600160a060020a0385169063150b7a02906126769033908990889088906004016131ba565b602060405180830381600087803b15801561269057600080fd5b505af19250505080156126c0575060408051601f3d908101601f191682019092526126bd91810190612fec565b60015b61271d573d8080156126ee576040519150601f19603f3d011682016040523d82523d6000602084013e6126f3565b606091505b5080516127155760405160e560020a62461bcd028152600401610743906132cc565b805181602001fd5b600160e060020a0319167f150b7a0200000000000000000000000000000000000000000000000000000000149050610d36565b506001610d36565b60608161279857505060408051808201909152600181527f3000000000000000000000000000000000000000000000000000000000000000602082015290565b8160005b81156127c257806127ac8161348b565b91506127bb9050600a836133c0565b915061279c565b60008167ffffffffffffffff8111156127dd576127dd613505565b6040519080825280601f01601f191660200182016040528015612807576020820181803683370190505b5090505b8415610d365761281c6001836133f3565b9150612829600a866134a6565b6128349060306133a8565b7f010000000000000000000000000000000000000000000000000000000000000002818381518110612868576128686134ec565b60200101907effffffffffffffffffffffffffffffffffffffffffffffffffffffffffffff1916908160001a9053506128a2600a866133c0565b945061280b565b600160a060020a0382166129025760405160e560020a62461bcd02815260206004820181905260248201527f4552433732313a206d696e7420746f20746865207a65726f20616464726573736044820152606401610743565b61290b81612058565b1561295b5760405160e560020a62461bcd02815260206004820152601c60248201527f4552433732313a20746f6b656e20616c7265616479206d696e746564000000006044820152606401610743565b612967600083836129ee565b600160a060020a03821660009081526003602052604081208054600192906129909084906133a8565b90915550506000818152600260205260408082208054600160a060020a031916600160a060020a03861690811790915590518392907fddf252ad1be2c89b69c2b068fc378daa952ba7f163c4a11628f55a4df523b3ef908290a45050565b600160a060020a0383166000908152600a6020908152604080832080548251818502810185019093528083529192909190849084015b82821015612a7957600084815260209081902060408051606081018252600386029092018054835260018082015484860152600290910154600160a060020a0316918301919091529083529092019101612a24565b505050600160a060020a0386166000908152600a60205260408120929350612aa2929150612d50565b60005b8151811015612c205782828281518110612ac157612ac16134ec565b60200260200101516000015114612b5f57600160a060020a0385166000908152600a602052604090208251839083908110612afe57612afe6134ec565b6020908102919091018101518254600180820185556000948552938390208251600390920201908155918101519282019290925560409091015160029091018054600160a060020a031916600160a060020a03909216919091179055612c0e565b83828281518110612b7257612b726134ec565b602090810291909101810151600160a060020a039283166040918201529186166000908152600a909152208251839083908110612bb157612bb16134ec565b6020908102919091018101518254600180820185556000948552938390208251600390920201908155918101519282019290925560409091015160029091018054600160a060020a031916600160a060020a039092169190911790555b80612c188161348b565b915050612aa5565b50506000908152600b602052604090208054600160a060020a031916600160a060020a039290921691909117905550565b828054612c5d9061344d565b90600052602060002090601f016020900481019282612c7f5760008555612cc5565b82601f10612c9857805160ff1916838001178555612cc5565b82800160010185558215612cc5579182015b82811115612cc5578251825591602001919060010190612caa565b50612cd1929150612d71565b5090565b828054612ce19061344d565b90600052602060002090601f016020900481019282612d035760008555612cc5565b82601f10612d145780548555612cc5565b82800160010185558215612cc557600052602060002091601f016020900482015b82811115612cc5578254825591600101919060010190612d35565b5080546000825560030290600052602060002090810190611f819190612d86565b5b80821115612cd15760008155600101612d72565b5b80821115612cd15760008082556001820155600281018054600160a060020a0319169055600301612d87565b600067ffffffffffffffff80841115612dce57612dce613505565b604051601f8501601f19908116603f01168101908282118183101715612df657612df6613505565b81604052809350858152868686011115612e0f57600080fd5b858560208301376000602087830101525050509392505050565b8035600160a060020a0381168114612e4057600080fd5b919050565b80358015158114612e4057600080fd5b600082601f830112612e6657600080fd5b6123fe83833560208501612db3565b600060208284031215612e8757600080fd5b6123fe82612e29565b60008060408385031215612ea357600080fd5b612eac83612e29565b9150612eba60208401612e29565b90509250929050565b600080600060608486031215612ed857600080fd5b612ee184612e29565b9250612eef60208501612e29565b9150604084013590509250925092565b60008060008060808587031215612f1557600080fd5b612f1e85612e29565b9350612f2c60208601612e29565b925060408501359150606085013567ffffffffffffffff811115612f4f57600080fd5b8501601f81018713612f6057600080fd5b612f6f87823560208401612db3565b91505092959194509250565b60008060408385031215612f8e57600080fd5b612f9783612e29565b9150612eba60208401612e45565b60008060408385031215612fb857600080fd5b612fc183612e29565b946020939093013593505050565b600060208284031215612fe157600080fd5b81356123fe8161351e565b600060208284031215612ffe57600080fd5b81516123fe8161351e565b60008060008060008060c0878903121561302257600080fd5b863567ffffffffffffffff81111561303957600080fd5b61304589828a01612e55565b9650506020870135945060408701359350606087013592506080870135915061307060a08801612e45565b90509295509295509295565b60006020828403121561308e57600080fd5b5035919050565b600080604083850312156130a857600080fd5b82359150602083013567ffffffffffffffff8111156130c657600080fd5b6130d285828601612e55565b9150509250929050565b600080604083850312156130ef57600080fd5b50508035926020909101359150565b6000815180845261311681602086016020860161340a565b601f01601f19169290920160200192915050565b805182526020810151602083015260408101516040830152606081015160608301526000608082015160e0608085015261316760e08501826130fe565b905060a0830151151560a085015260c0830151151560c08501528091505092915050565b6000835161319d81846020880161340a565b8351908301906131b181836020880161340a565b01949350505050565b6000600160a060020a038087168352808616602084015250836040830152608060608301526131ec60808301846130fe565b9695505050505050565b600060208083018184528085518083526040860191506040848202870101925083870160005b8281101561324a57603f1988860301845261323885835161312a565b9450928501929085019060010161321c565b5092979650505050505050565b602080825282518282018190526000919060409081850190868401855b828110156132ac578151805185528681015187860152850151600160a060020a03168585015260609093019290850190600101613274565b5091979650505050505050565b6020815260006123fe60208301846130fe565b60208082526032908201527f4552433732313a207472616e7366657220746f206e6f6e20455243373231526560408201527f63656976657220696d706c656d656e7465720000000000000000000000000000606082015260800190565b6020808252818101527f4f776e61626c653a2063616c6c6572206973206e6f7420746865206f776e6572604082015260600190565b60208082526010908201527f496e636f727265637420616d6f756e7400000000000000000000000000000000604082015260600190565b6020815260006123fe602083018461312a565b600082198211156133bb576133bb6134ba565b500190565b6000826133cf576133cf6134d3565b500490565b60008160001904831182151516156133ee576133ee6134ba565b500290565b600082821015613405576134056134ba565b500390565b60005b8381101561342557818101518382015260200161340d565b83811115611bb75750506000910152565b600081613445576134456134ba565b506000190190565b60028104600182168061346157607f821691505b602082108114156134855760e060020a634e487b7102600052602260045260246000fd5b50919050565b600060001982141561349f5761349f6134ba565b5060010190565b6000826134b5576134b56134d3565b500690565b60e060020a634e487b7102600052601160045260246000fd5b60e060020a634e487b7102600052601260045260246000fd5b60e060020a634e487b7102600052603260045260246000fd5b60e060020a634e487b7102600052604160045260246000fd5b600160e060020a031981168114611f8157600080fdfea2646970667358221220f751729188bb0da6d4f87e1711b7e0e09c87131a9c3602a5cc666430cdcee9b964736f6c63430008070033",
  "immutableReferences": {},
  "source": "// SPDX-License-Identifier: MIT\n\npragma solidity ^0.8.0;\nimport \"./CollectibleUtils.sol\";\n\n/**\n* @title Base function of sell ERC721\n* @author Youness Chetoui\n*/\ncontract Sell is CollectibleUtils {\n    struct PoliticOnSale {\n        uint256 tokenId;\n        uint256 price;\n        address payable owner;\n        bool created;\n    }\n\n    mapping(uint256 => PoliticOnSale) internal politicsOnSale;\n\n    uint256[] public arrayPoliticiansOnSale;\n    uint256 internal feeSale = 5;\n\n    /**\n    * @notice Up for sale of owned politician\n    * @param _tokenId of politician owned and _price wished\n    */\n    function forSale(uint256 _tokenId, uint256 _price) public {\n        require(politicToUser[_tokenId] == msg.sender, \"You are not the owner of the token\");\n\n        ERC721.safeTransferFrom(msg.sender, contractAddress, _tokenId);\n\n        PoliticOnSale memory politicOnSale =\n            PoliticOnSale({tokenId: _tokenId, price: _price, owner: payable(msg.sender), created: true});\n\n        politicsOnSale[_tokenId] = politicOnSale;\n\n        _updatePoliticianOnSale(_tokenId, true);\n    }\n\n    /**\n    * @notice Buy politician\n    * @param _tokenId of politician for sale\n    */\n    function buyPoliticsForSale(uint256 _tokenId) public payable {\n        require(politicsOnSale[_tokenId].created, \"Politician not for sale\");\n        require(msg.sender != politicsOnSale[_tokenId].owner, \"Your politician\");\n        require(msg.value == (politicsOnSale[_tokenId].price * 10**18) / 1000, \"Incorrect amount\");\n\n        // get 5% of fee\n        uint256 feeCost = msg.value * feeSale / 100;\n        uint256 amountOwner = msg.value - feeCost;\n        ownerAddress.transfer(feeCost);\n        politicsOnSale[_tokenId].owner.transfer(amountOwner);\n\n        // transfer collectible from contract to buyer\n        this.safeTransferFrom(contractAddress, msg.sender, _tokenId);\n\n        // Delete onSale\n        _updatePoliticianOnSale(_tokenId, true);\n    }\n\n    /**\n    * @notice Cancel the sell of politician\n    * @param _tokenId of politician for sale\n    */\n    function cancelSell(uint256 _tokenId) public payable {\n        require(msg.sender == politicsOnSale[_tokenId].owner, \"Not your politician\");\n        uint256 feeCost = ((politicsOnSale[_tokenId].price * 10**18) / 1000) * feeSale /100;\n        require(msg.value == feeCost, \"Incorrect amount\");\n\n        ownerAddress.transfer(feeCost);\n        // transfer collectible from contract to buyer\n        this.safeTransferFrom(contractAddress, msg.sender, _tokenId);\n\n        // Delete onSale\n        _updatePoliticianOnSale(_tokenId, true);\n    }\n\n    function _updatePoliticianOnSale(uint256 _tokenId, bool _delete) internal {\n        if (_delete) {\n            delete politicsOnSale[_tokenId];\n\n            for (uint i = 0; i < arrayPoliticiansOnSale.length; i++) {\n                if (arrayPoliticiansOnSale[i] == _tokenId) {\n                    delete arrayPoliticiansOnSale[i];\n                }\n            }\n        } else {\n            arrayPoliticiansOnSale.push(_tokenId);\n        }\n    }\n}\n",
  "sourcePath": "/home/youness/Crypto/PoliticsCollectible/contracts/Sell.sol",
  "compiler": {
    "name": "solc",
    "version": "0.8.7+commit.e28d00a7.Emscripten.clang"
  },
  "schemaVersion": "3.4.3",
  "updatedAt": "2021-09-02T13:41:26.777Z",
  "devdoc": {
    "author": "Youness Chetoui",
    "kind": "dev",
    "methods": {
      "addQty(uint256,uint256)": {
        "params": {
          "_id": "of PoliticsAvailable and _qty wished"
        }
      },
      "approve(address,uint256)": {
        "details": "See {IERC721-approve}."
      },
      "balanceOf(address)": {
        "details": "See {IERC721-balanceOf}."
      },
      "buy(uint256,string)": {
        "params": {
          "_id": ", _tokenUri of politician available"
        }
      },
      "buyPoliticsForSale(uint256)": {
        "params": {
          "_tokenId": "of politician for sale"
        }
      },
      "cancelSell(uint256)": {
        "params": {
          "_tokenId": "of politician for sale"
        }
      },
      "create(string,uint256,uint256,uint256,uint256,bool)": {
        "params": {
          "_name": ", _id, _qty, _level, _price and _lottery of politician available"
        },
        "returns": {
          "_0": "PoliticsAvailable created"
        }
      },
      "forSale(uint256,uint256)": {
        "params": {
          "_tokenId": "of politician owned and _price wished"
        }
      },
      "getApproved(uint256)": {
        "details": "See {IERC721-getApproved}."
      },
      "getMyPolitics()": {
        "returns": {
          "_0": "array of struct PoliticsOwned"
        }
      },
      "getPolitics()": {
        "returns": {
          "_0": "Array of struct PoliticsAvailable"
        }
      },
      "isApprovedForAll(address,address)": {
        "details": "See {IERC721-isApprovedForAll}."
      },
      "name()": {
        "details": "See {IERC721Metadata-name}."
      },
      "onERC721Received(address,address,uint256,bytes)": {
        "details": "See {IERC721Receiver-onERC721Received}. Always returns `IERC721Receiver.onERC721Received.selector`."
      },
      "owner()": {
        "details": "Returns the address of the current owner."
      },
      "ownerOf(uint256)": {
        "details": "See {IERC721-ownerOf}."
      },
      "renounceOwnership()": {
        "details": "Leaves the contract without owner. It will not be possible to call `onlyOwner` functions anymore. Can only be called by the current owner. NOTE: Renouncing ownership will leave the contract without an owner, thereby removing any functionality that is only available to the owner."
      },
      "safeTransferFrom(address,address,uint256)": {
        "details": "See {IERC721-safeTransferFrom}."
      },
      "safeTransferFrom(address,address,uint256,bytes)": {
        "details": "See {IERC721-safeTransferFrom}."
      },
      "setApprovalForAll(address,bool)": {
        "details": "See {IERC721-setApprovalForAll}."
      },
      "supportsInterface(bytes4)": {
        "details": "See {IERC165-supportsInterface}."
      },
      "symbol()": {
        "details": "See {IERC721Metadata-symbol}."
      },
      "tokenURI(uint256)": {
        "details": "See {IERC721Metadata-tokenURI}."
      },
      "transferOwnership(address)": {
        "details": "Transfers ownership of the contract to a new account (`newOwner`). Can only be called by the current owner."
      }
    },
    "title": "Base function of sell ERC721",
    "version": 1
  },
  "userdoc": {
    "kind": "user",
    "methods": {
      "addQty(uint256,uint256)": {
        "notice": "Add quantity for a PoliticsAvailable"
      },
      "buy(uint256,string)": {
        "notice": "Buy politician"
      },
      "buyPoliticsForSale(uint256)": {
        "notice": "Buy politician"
      },
      "cancelSell(uint256)": {
        "notice": "Cancel the sell of politician"
      },
      "create(string,uint256,uint256,uint256,uint256,bool)": {
        "notice": "Create politician"
      },
      "forSale(uint256,uint256)": {
        "notice": "Up for sale of owned politician"
      },
      "getMyPolitics()": {
        "notice": "Get politician by user"
      },
      "getPolitics()": {
        "notice": "get list of all politician available"
      },
      "transferFrom(address,address,uint256)": {
        "notice": "Disabled not safe transform"
      }
    },
    "version": 1
  }
}