{
  "contractName": "Sell",
  "abi": [
    {
      "anonymous": false,
      "inputs": [
        {
          "indexed": true,
          "internalType": "address",
          "name": "owner",
          "type": "address"
        },
        {
          "indexed": true,
          "internalType": "address",
          "name": "approved",
          "type": "address"
        },
        {
          "indexed": true,
          "internalType": "uint256",
          "name": "tokenId",
          "type": "uint256"
        }
      ],
      "name": "Approval",
      "type": "event"
    },
    {
      "anonymous": false,
      "inputs": [
        {
          "indexed": true,
          "internalType": "address",
          "name": "owner",
          "type": "address"
        },
        {
          "indexed": true,
          "internalType": "address",
          "name": "operator",
          "type": "address"
        },
        {
          "indexed": false,
          "internalType": "bool",
          "name": "approved",
          "type": "bool"
        }
      ],
      "name": "ApprovalForAll",
      "type": "event"
    },
    {
      "anonymous": false,
      "inputs": [
        {
          "indexed": false,
          "internalType": "uint256",
          "name": "id",
          "type": "uint256"
        },
        {
          "indexed": false,
          "internalType": "address",
          "name": "buyer",
          "type": "address"
        }
      ],
      "name": "BuyOnSale",
      "type": "event"
    },
    {
      "anonymous": false,
      "inputs": [
        {
          "indexed": false,
          "internalType": "uint256",
          "name": "id",
          "type": "uint256"
        }
      ],
      "name": "CreatePolitician",
      "type": "event"
    },
    {
      "anonymous": false,
      "inputs": [
        {
          "indexed": false,
          "internalType": "uint256",
          "name": "id",
          "type": "uint256"
        },
        {
          "indexed": false,
          "internalType": "address",
          "name": "owner",
          "type": "address"
        }
      ],
      "name": "CreateSale",
      "type": "event"
    },
    {
      "anonymous": false,
      "inputs": [
        {
          "indexed": true,
          "internalType": "address",
          "name": "previousOwner",
          "type": "address"
        },
        {
          "indexed": true,
          "internalType": "address",
          "name": "newOwner",
          "type": "address"
        }
      ],
      "name": "OwnershipTransferred",
      "type": "event"
    },
    {
      "anonymous": false,
      "inputs": [
        {
          "indexed": false,
          "internalType": "address",
          "name": "owner",
          "type": "address"
        },
        {
          "indexed": false,
          "internalType": "uint256",
          "name": "id",
          "type": "uint256"
        }
      ],
      "name": "PoliticianBuy",
      "type": "event"
    },
    {
      "anonymous": false,
      "inputs": [
        {
          "indexed": true,
          "internalType": "address",
          "name": "from",
          "type": "address"
        },
        {
          "indexed": true,
          "internalType": "address",
          "name": "to",
          "type": "address"
        },
        {
          "indexed": true,
          "internalType": "uint256",
          "name": "tokenId",
          "type": "uint256"
        }
      ],
      "name": "Transfer",
      "type": "event"
    },
    {
      "inputs": [
        {
          "internalType": "uint256",
          "name": "_id",
          "type": "uint256"
        },
        {
          "internalType": "uint256",
          "name": "_qty",
          "type": "uint256"
        }
      ],
      "name": "addQty",
      "outputs": [],
      "stateMutability": "nonpayable",
      "type": "function"
    },
    {
      "inputs": [
        {
          "internalType": "address",
          "name": "to",
          "type": "address"
        },
        {
          "internalType": "uint256",
          "name": "tokenId",
          "type": "uint256"
        }
      ],
      "name": "approve",
      "outputs": [],
      "stateMutability": "nonpayable",
      "type": "function"
    },
    {
      "inputs": [
        {
          "internalType": "uint256",
          "name": "",
          "type": "uint256"
        }
      ],
      "name": "arrayPoliticiansOnSale",
      "outputs": [
        {
          "internalType": "uint256",
          "name": "",
          "type": "uint256"
        }
      ],
      "stateMutability": "view",
      "type": "function"
    },
    {
      "inputs": [
        {
          "internalType": "address",
          "name": "owner",
          "type": "address"
        }
      ],
      "name": "balanceOf",
      "outputs": [
        {
          "internalType": "uint256",
          "name": "",
          "type": "uint256"
        }
      ],
      "stateMutability": "view",
      "type": "function"
    },
    {
      "inputs": [
        {
          "internalType": "uint256",
          "name": "_id",
          "type": "uint256"
        }
      ],
      "name": "buy",
      "outputs": [],
      "stateMutability": "payable",
      "type": "function"
    },
    {
      "inputs": [],
      "name": "contractAddress",
      "outputs": [
        {
          "internalType": "address payable",
          "name": "",
          "type": "address"
        }
      ],
      "stateMutability": "view",
      "type": "function"
    },
    {
      "inputs": [
        {
          "internalType": "uint256",
          "name": "_id",
          "type": "uint256"
        },
        {
          "internalType": "uint256",
          "name": "_price",
          "type": "uint256"
        },
        {
          "internalType": "uint256",
          "name": "_qty",
          "type": "uint256"
        },
        {
          "internalType": "bool",
          "name": "_lottery",
          "type": "bool"
        },
        {
          "internalType": "string",
          "name": "_tokenUri",
          "type": "string"
        }
      ],
      "name": "create",
      "outputs": [],
      "stateMutability": "nonpayable",
      "type": "function"
    },
    {
      "inputs": [
        {
          "internalType": "uint256",
          "name": "tokenId",
          "type": "uint256"
        }
      ],
      "name": "getApproved",
      "outputs": [
        {
          "internalType": "address",
          "name": "",
          "type": "address"
        }
      ],
      "stateMutability": "view",
      "type": "function"
    },
    {
      "inputs": [],
      "name": "getMyPolitics",
      "outputs": [
        {
          "components": [
            {
              "internalType": "uint256",
              "name": "id",
              "type": "uint256"
            },
            {
              "internalType": "uint256",
              "name": "id_politic",
              "type": "uint256"
            },
            {
              "internalType": "address",
              "name": "owner",
              "type": "address"
            }
          ],
          "internalType": "struct Collectible.PoliticsOwned[]",
          "name": "",
          "type": "tuple[]"
        }
      ],
      "stateMutability": "view",
      "type": "function"
    },
    {
      "inputs": [
        {
          "internalType": "uint256",
          "name": "_id",
          "type": "uint256"
        }
      ],
      "name": "getPoliticQty",
      "outputs": [
        {
          "internalType": "uint256",
          "name": "",
          "type": "uint256"
        }
      ],
      "stateMutability": "view",
      "type": "function"
    },
    {
      "inputs": [
        {
          "internalType": "address",
          "name": "owner",
          "type": "address"
        },
        {
          "internalType": "address",
          "name": "operator",
          "type": "address"
        }
      ],
      "name": "isApprovedForAll",
      "outputs": [
        {
          "internalType": "bool",
          "name": "",
          "type": "bool"
        }
      ],
      "stateMutability": "view",
      "type": "function"
    },
    {
      "inputs": [],
      "name": "name",
      "outputs": [
        {
          "internalType": "string",
          "name": "",
          "type": "string"
        }
      ],
      "stateMutability": "view",
      "type": "function"
    },
    {
      "inputs": [
        {
          "internalType": "address",
          "name": "",
          "type": "address"
        },
        {
          "internalType": "address",
          "name": "",
          "type": "address"
        },
        {
          "internalType": "uint256",
          "name": "",
          "type": "uint256"
        },
        {
          "internalType": "bytes",
          "name": "",
          "type": "bytes"
        }
      ],
      "name": "onERC721Received",
      "outputs": [
        {
          "internalType": "bytes4",
          "name": "",
          "type": "bytes4"
        }
      ],
      "stateMutability": "nonpayable",
      "type": "function"
    },
    {
      "inputs": [],
      "name": "owner",
      "outputs": [
        {
          "internalType": "address",
          "name": "",
          "type": "address"
        }
      ],
      "stateMutability": "view",
      "type": "function"
    },
    {
      "inputs": [],
      "name": "ownerAddress",
      "outputs": [
        {
          "internalType": "address payable",
          "name": "",
          "type": "address"
        }
      ],
      "stateMutability": "view",
      "type": "function"
    },
    {
      "inputs": [
        {
          "internalType": "uint256",
          "name": "tokenId",
          "type": "uint256"
        }
      ],
      "name": "ownerOf",
      "outputs": [
        {
          "internalType": "address",
          "name": "",
          "type": "address"
        }
      ],
      "stateMutability": "view",
      "type": "function"
    },
    {
      "inputs": [],
      "name": "renounceOwnership",
      "outputs": [],
      "stateMutability": "nonpayable",
      "type": "function"
    },
    {
      "inputs": [
        {
          "internalType": "address",
          "name": "from",
          "type": "address"
        },
        {
          "internalType": "address",
          "name": "to",
          "type": "address"
        },
        {
          "internalType": "uint256",
          "name": "tokenId",
          "type": "uint256"
        }
      ],
      "name": "safeTransferFrom",
      "outputs": [],
      "stateMutability": "nonpayable",
      "type": "function"
    },
    {
      "inputs": [
        {
          "internalType": "address",
          "name": "from",
          "type": "address"
        },
        {
          "internalType": "address",
          "name": "to",
          "type": "address"
        },
        {
          "internalType": "uint256",
          "name": "tokenId",
          "type": "uint256"
        },
        {
          "internalType": "bytes",
          "name": "_data",
          "type": "bytes"
        }
      ],
      "name": "safeTransferFrom",
      "outputs": [],
      "stateMutability": "nonpayable",
      "type": "function"
    },
    {
      "inputs": [
        {
          "internalType": "address",
          "name": "operator",
          "type": "address"
        },
        {
          "internalType": "bool",
          "name": "approved",
          "type": "bool"
        }
      ],
      "name": "setApprovalForAll",
      "outputs": [],
      "stateMutability": "nonpayable",
      "type": "function"
    },
    {
      "inputs": [
        {
          "internalType": "bytes4",
          "name": "interfaceId",
          "type": "bytes4"
        }
      ],
      "name": "supportsInterface",
      "outputs": [
        {
          "internalType": "bool",
          "name": "",
          "type": "bool"
        }
      ],
      "stateMutability": "view",
      "type": "function"
    },
    {
      "inputs": [],
      "name": "symbol",
      "outputs": [
        {
          "internalType": "string",
          "name": "",
          "type": "string"
        }
      ],
      "stateMutability": "view",
      "type": "function"
    },
    {
      "inputs": [
        {
          "internalType": "uint256",
          "name": "tokenId",
          "type": "uint256"
        }
      ],
      "name": "tokenURI",
      "outputs": [
        {
          "internalType": "string",
          "name": "",
          "type": "string"
        }
      ],
      "stateMutability": "view",
      "type": "function"
    },
    {
      "inputs": [
        {
          "internalType": "address",
          "name": "from",
          "type": "address"
        },
        {
          "internalType": "address",
          "name": "to",
          "type": "address"
        },
        {
          "internalType": "uint256",
          "name": "tokenId",
          "type": "uint256"
        }
      ],
      "name": "transferFrom",
      "outputs": [],
      "stateMutability": "nonpayable",
      "type": "function"
    },
    {
      "inputs": [
        {
          "internalType": "address",
          "name": "newOwner",
          "type": "address"
        }
      ],
      "name": "transferOwnership",
      "outputs": [],
      "stateMutability": "nonpayable",
      "type": "function"
    },
    {
      "inputs": [
        {
          "internalType": "uint256",
          "name": "_tokenId",
          "type": "uint256"
        },
        {
          "internalType": "uint256",
          "name": "_price",
          "type": "uint256"
        }
      ],
      "name": "forSale",
      "outputs": [],
      "stateMutability": "nonpayable",
      "type": "function"
    },
    {
      "inputs": [
        {
          "internalType": "uint256",
          "name": "_tokenId",
          "type": "uint256"
        }
      ],
      "name": "buyPoliticsForSale",
      "outputs": [],
      "stateMutability": "payable",
      "type": "function"
    },
    {
      "inputs": [
        {
          "internalType": "uint256",
          "name": "_tokenId",
          "type": "uint256"
        }
      ],
      "name": "cancelSell",
      "outputs": [],
      "stateMutability": "payable",
      "type": "function"
    }
  ],
  "bytecode": "0x60806040526001600e5560056011553480156200001b57600080fd5b50604080518082018252600b81527f506f6c69746963734e667400000000000000000000000000000000000000000060208083019182528351808501909452600384527f504f4c0000000000000000000000000000000000000000000000000000000000908401528151919291620000969160009162000157565b508051620000ac90600190602084019062000157565b505050620000db620000cc62000101640100000000026401000000009004565b64010000000062000105810204565b600c8054600160a060020a03199081163317909155600d80549091163017905562000253565b3390565b60078054600160a060020a03838116600160a060020a0319831681179093556040519116919082907f8be0079c531659141344cd1fd0a4f28419497f9722a3daafe3b4186f6b6457e090600090a35050565b8280546200016590620001fd565b90600052602060002090601f016020900481019282620001895760008555620001d4565b82601f10620001a457805160ff1916838001178555620001d4565b82800160010185558215620001d4579182015b82811115620001d4578251825591602001919060010190620001b7565b50620001e2929150620001e6565b5090565b5b80821115620001e25760008155600101620001e7565b6002810460018216806200021257607f821691505b602082108114156200024d577f4e487b7100000000000000000000000000000000000000000000000000000000600052602260045260246000fd5b50919050565b612efe80620002636000396000f3fe6080604052600436106101d3576000357c01000000000000000000000000000000000000000000000000000000009004806385d3343611610109578063b9db1c98116100a7578063de7f558711610081578063de7f5587146104f3578063e985e9c514610513578063f2fde38b1461055c578063f6b4dfb41461057c57600080fd5b8063b9db1c98146104a0578063c87b56dd146104c0578063d96a094a146104e057600080fd5b80638fedc864116100e35780638fedc8641461042b57806395d89b411461044b578063a22cb46514610460578063b88d4fde1461048057600080fd5b806385d33436146103cb5780638da5cb5b146103ed5780638f84aa091461040b57600080fd5b806323b872dd1161017657806354b3efa61161015057806354b3efa6146103485780636352211e1461036857806370a0823114610388578063715018a6146103b657600080fd5b806323b872dd146102f557806342842e0e14610315578063546f9e671461033557600080fd5b806307c9cd45116101b257806307c9cd4514610251578063081812fc14610264578063095ea7b31461029c578063150b7a02146102bc57600080fd5b8062695475146101d857806301ffc9a7146101fa57806306fdde031461022f575b600080fd5b3480156101e457600080fd5b506101f86101f3366004612ab1565b61059c565b005b34801561020657600080fd5b5061021a610215366004612a3c565b61070f565b60405190151581526020015b60405180910390f35b34801561023b57600080fd5b506102446107ac565b6040516102269190612c29565b6101f861025f366004612a76565b61083e565b34801561027057600080fd5b5061028461027f366004612a76565b6109e7565b604051600160a060020a039091168152602001610226565b3480156102a857600080fd5b506101f86102b7366004612a12565b610a83565b3480156102c857600080fd5b506102dc6102d736600461296c565b610bbb565b604051600160e060020a03199091168152602001610226565b34801561030157600080fd5b506101f8610310366004612930565b610be5565b34801561032157600080fd5b506101f8610330366004612930565b610c12565b6101f8610343366004612a76565b610c2d565b34801561035457600080fd5b506101f8610363366004612a8f565b610ee1565b34801561037457600080fd5b50610284610383366004612a76565b611079565b34801561039457600080fd5b506103a86103a33660046128e2565b611107565b604051908152602001610226565b3480156103c257600080fd5b506101f86111a4565b3480156103d757600080fd5b506103e06111dd565b6040516102269190612bc7565b3480156103f957600080fd5b50600754600160a060020a0316610284565b34801561041757600080fd5b50600c5461028490600160a060020a031681565b34801561043757600080fd5b506103a8610446366004612a76565b61126a565b34801561045757600080fd5b5061024461128b565b34801561046c57600080fd5b506101f861047b3660046129e8565b61129a565b34801561048c57600080fd5b506101f861049b36600461296c565b611362565b3480156104ac57600080fd5b506101f86104bb366004612a8f565b6113f3565b3480156104cc57600080fd5b506102446104db366004612a76565b611466565b6101f86104ee366004612a76565b6115e4565b3480156104ff57600080fd5b506103a861050e366004612a76565b61199b565b34801561051f57600080fd5b5061021a61052e3660046128fd565b600160a060020a03918216600090815260056020908152604080832093909416825291909152205460ff1690565b34801561056857600080fd5b506101f86105773660046128e2565b611a15565b34801561058857600080fd5b50600d5461028490600160a060020a031681565b600754600160a060020a031633146105d25760405160e560020a62461bcd0281526004016105c990612c99565b60405180910390fd5b60008581526008602052604090206004015460ff16156106375760405160e560020a62461bcd02815260206004820152601160248201527f696420616c726561647920696e2075736500000000000000000000000000000060448201526064016105c9565b6040805160a08101825286815260208082018781528515158385019081526060840186815260016080860181905260008c8152600a86528781208b90556008865296909620855181559251958301959095555160028201805460ff1916911515919091179055925180519293849390926106b892600385019291019061275e565b50608091909101516004909101805460ff19169115159190911790556040518681527ff00c522f13522af224c59f918a8375598b0362237c9cc8b4edb44f599cf0f3d69060200160405180910390a1505050505050565b6000600160e060020a031982167f80ac58cd0000000000000000000000000000000000000000000000000000000014806107725750600160e060020a031982167f5b5e139f00000000000000000000000000000000000000000000000000000000145b806107a657507f01ffc9a700000000000000000000000000000000000000000000000000000000600160e060020a03198316145b92915050565b6060600080546107bb90612de1565b80601f01602080910402602001604051908101604052809291908181526020018280546107e790612de1565b80156108345780601f1061080957610100808354040283529160200191610834565b820191906000526020600020905b81548152906001019060200180831161081757829003601f168201915b5050505050905090565b6000818152600f6020526040902060020154600160a060020a031633146108aa5760405160e560020a62461bcd02815260206004820152601360248201527f4e6f7420796f757220706f6c6974696369616e0000000000000000000000000060448201526064016105c9565b6011546000828152600f602052604081206001015490916064916103e8906108da90670de0b6b3a7640000612d68565b6108e49190612d54565b6108ee9190612d68565b6108f89190612d54565b905080341461091c5760405160e560020a62461bcd0281526004016105c990612d05565b600c54604051600160a060020a039091169082156108fc029083906000818181858888f19350505050158015610956573d6000803e3d6000fd5b50600d546040517f42842e0e000000000000000000000000000000000000000000000000000000008152600160a060020a0390911660048201523360248201526044810183905230906342842e0e90606401600060405180830381600087803b1580156109c257600080fd5b505af11580156109d6573d6000803e3d6000fd5b505050506109e382611acd565b5050565b60006109f282611b65565b610a675760405160e560020a62461bcd02815260206004820152602c60248201527f4552433732313a20617070726f76656420717565727920666f72206e6f6e657860448201527f697374656e7420746f6b656e000000000000000000000000000000000000000060648201526084016105c9565b50600090815260046020526040902054600160a060020a031690565b6000610a8e82611079565b905080600160a060020a031683600160a060020a03161415610b1b5760405160e560020a62461bcd02815260206004820152602160248201527f4552433732313a20617070726f76616c20746f2063757272656e74206f776e6560448201527f720000000000000000000000000000000000000000000000000000000000000060648201526084016105c9565b33600160a060020a0382161480610b375750610b37813361052e565b610bac5760405160e560020a62461bcd02815260206004820152603860248201527f4552433732313a20617070726f76652063616c6c6572206973206e6f74206f7760448201527f6e6572206e6f7220617070726f76656420666f7220616c6c000000000000000060648201526084016105c9565b610bb68383611b82565b505050565b7f150b7a02000000000000000000000000000000000000000000000000000000005b949350505050565b600754600160a060020a03163314610bb65760405160e560020a62461bcd0281526004016105c990612c99565b610bb683838360405180602001604052806000815250611362565b6000818152600f602052604090206002015474010000000000000000000000000000000000000000900460ff16610ca95760405160e560020a62461bcd02815260206004820152601760248201527f506f6c6974696369616e206e6f7420666f722073616c6500000000000000000060448201526064016105c9565b6000818152600f6020526040902060020154600160a060020a0316331415610d165760405160e560020a62461bcd02815260206004820152600f60248201527f596f757220706f6c6974696369616e000000000000000000000000000000000060448201526064016105c9565b6000818152600f60205260409020600101546103e890610d3e90670de0b6b3a7640000612d68565b610d489190612d54565b3414610d695760405160e560020a62461bcd0281526004016105c990612d05565b6000606460115434610d7b9190612d68565b610d859190612d54565b90506000610d938234612d87565b600c54604051919250600160a060020a03169083156108fc029084906000818181858888f19350505050158015610dce573d6000803e3d6000fd5b506000838152600f6020526040808220600201549051600160a060020a039091169183156108fc02918491818181858888f19350505050158015610e16573d6000803e3d6000fd5b50600d546040517f42842e0e000000000000000000000000000000000000000000000000000000008152600160a060020a0390911660048201523360248201526044810184905230906342842e0e90606401600060405180830381600087803b158015610e8257600080fd5b505af1158015610e96573d6000803e3d6000fd5b50505050610ea383611acd565b604080518481523360208201527fba09fc575b06563e24ebda6a85ecaffa381143e05692b04d0439c33cb68261c591015b60405180910390a1505050565b6000828152600b6020526040902054600160a060020a03163314610f705760405160e560020a62461bcd02815260206004820152602260248201527f596f7520617265206e6f7420746865206f776e6572206f662074686520746f6b60448201527f656e00000000000000000000000000000000000000000000000000000000000060648201526084016105c9565b600d54610f88903390600160a060020a031684610c12565b6040805160808101825283815260208082018481523383850181815260016060860181815260008a8152600f87528881208851815595518684015592516002909501805491511515740100000000000000000000000000000000000000000274ffffffffffffffffffffffffffffffffffffffffff19909216600160a060020a03909616959095171790935560108054938401815590527f1b6847dc741a1b0cd08d278845f9d819d87b734759afb55fe2de5cb82a9ae67290910186905583518681529182015290917ffd49647dd00e6b295aa9844cad9611d0f189dc9ef85fb3a2c3df136694cf15479101610ed4565b600081815260026020526040812054600160a060020a0316806107a65760405160e560020a62461bcd02815260206004820152602960248201527f4552433732313a206f776e657220717565727920666f72206e6f6e657869737460448201527f656e7420746f6b656e000000000000000000000000000000000000000000000060648201526084016105c9565b6000600160a060020a0382166111885760405160e560020a62461bcd02815260206004820152602a60248201527f4552433732313a2062616c616e636520717565727920666f7220746865207a6560448201527f726f20616464726573730000000000000000000000000000000000000000000060648201526084016105c9565b50600160a060020a031660009081526003602052604090205490565b600754600160a060020a031633146111d15760405160e560020a62461bcd0281526004016105c990612c99565b6111db6000611bf0565b565b336000908152600960209081526040808320805482518185028101850190935280835260609492939192909184015b8282101561126157600084815260209081902060408051606081018252600386029092018054835260018082015484860152600290910154600160a060020a031691830191909152908352909201910161120c565b50505050905090565b6010818154811061127a57600080fd5b600091825260209091200154905081565b6060600180546107bb90612de1565b600160a060020a0382163314156112f65760405160e560020a62461bcd02815260206004820152601960248201527f4552433732313a20617070726f766520746f2063616c6c65720000000000000060448201526064016105c9565b336000818152600560209081526040808320600160a060020a03871680855290835292819020805460ff191686151590811790915590519081529192917f17307eab39ab6107e8899845ad3d59bd9653f200f220920489ca2b5937696c31910160405180910390a35050565b61136c3383611c42565b6113e15760405160e560020a62461bcd02815260206004820152603160248201527f4552433732313a207472616e736665722063616c6c6572206973206e6f74206f60448201527f776e6572206e6f7220617070726f76656400000000000000000000000000000060648201526084016105c9565b6113ed84848484611d3c565b50505050565b600754600160a060020a031633146114205760405160e560020a62461bcd0281526004016105c990612c99565b60008281526008602052604090206004015460ff166114545760405160e560020a62461bcd0281526004016105c990612cce565b6000918252600a602052604090912055565b606061147182611b65565b6114e65760405160e560020a62461bcd02815260206004820152603160248201527f45524337323155524953746f726167653a2055524920717565727920666f722060448201527f6e6f6e6578697374656e7420746f6b656e00000000000000000000000000000060648201526084016105c9565b600082815260066020526040812080546114ff90612de1565b80601f016020809104026020016040519081016040528092919081815260200182805461152b90612de1565b80156115785780601f1061154d57610100808354040283529160200191611578565b820191906000526020600020905b81548152906001019060200180831161155b57829003601f168201915b50505050509050600061159660408051602081019091526000815290565b90508051600014156115a9575092915050565b8151156115db5780826040516020016115c3929190612b5c565b60405160208183030381529060405292505050919050565b610bdd84611d72565b60008181526008602052604090206004015460ff166116185760405160e560020a62461bcd0281526004016105c990612cce565b60008181526008602052604090206002015460ff16156116a35760405160e560020a62461bcd02815260206004820152602360248201527f506f6c69746963206f6e6c7920617661696c61626c652077697468206c6f747460448201527f657279000000000000000000000000000000000000000000000000000000000060648201526084016105c9565b6000818152600a60205260409020546117275760405160e560020a62461bcd02815260206004820152602260248201527f5468657265206973206e6f206d6f726520706f6c6974696320617661696c616260448201527f6c6500000000000000000000000000000000000000000000000000000000000060648201526084016105c9565b6000818152600860205260409020600101546103e89061174f90670de0b6b3a7640000612d68565b6117599190612d54565b341461177a5760405160e560020a62461bcd0281526004016105c990612d05565b6000818152600a6020526040812080549161179483612dca565b9091555050600e5460408051602080820193909352336c01000000000000000000000000028183015281516034818303018152605490910190915280519101206000906117e7906402540be40090612e3a565b600e805491925060006117f983612e1f565b9091555050600c54604051600160a060020a03909116903480156108fc02916000818181858888f19350505050158015611837573d6000803e3d6000fd5b506118423382611e5b565b600082815260086020526040902060030180546118e791839161186490612de1565b80601f016020809104026020016040519081016040528092919081815260200182805461189090612de1565b80156118dd5780601f106118b2576101008083540402835291602001916118dd565b820191906000526020600020905b8154815290600101906020018083116118c057829003601f168201915b5050505050611e75565b604080516060810182528281526020808201858152338385018181526000828152600985528681208054600180820183559183528683208851600390920201908155945190850155905160029093018054600160a060020a03909416600160a060020a0319948516179055868152600b845285902080549092168117909155835190815290810184905290917f0f1f73114dcf85af6f6506a86f3b42cdc8af0e4d37ca5130270465cd9c3582239101610ed4565b600754600090600160a060020a031633146119cb5760405160e560020a62461bcd0281526004016105c990612c99565b60008281526008602052604090206004015460ff166119ff5760405160e560020a62461bcd0281526004016105c990612cce565b506000818152600a60205260409020545b919050565b600754600160a060020a03163314611a425760405160e560020a62461bcd0281526004016105c990612c99565b600160a060020a038116611ac15760405160e560020a62461bcd02815260206004820152602660248201527f4f776e61626c653a206e6577206f776e657220697320746865207a65726f206160448201527f646472657373000000000000000000000000000000000000000000000000000060648201526084016105c9565b611aca81611bf0565b50565b6000818152600f6020526040812081815560018101829055600201805474ffffffffffffffffffffffffffffffffffffffffff191690555b6010548110156109e3578160108281548110611b2357611b23612e80565b90600052602060002001541415611b535760108181548110611b4757611b47612e80565b60009182526020822001555b80611b5d81612e1f565b915050611b05565b600090815260026020526040902054600160a060020a0316151590565b60008181526004602052604090208054600160a060020a031916600160a060020a0384169081179091558190611bb782611079565b600160a060020a03167f8c5be1e5ebec7d5bd14f71427d1e84f3dd0314c0f7b2291e5b200ac8c7c3b92560405160405180910390a45050565b60078054600160a060020a03838116600160a060020a0319831681179093556040519116919082907f8be0079c531659141344cd1fd0a4f28419497f9722a3daafe3b4186f6b6457e090600090a35050565b6000611c4d82611b65565b611cc25760405160e560020a62461bcd02815260206004820152602c60248201527f4552433732313a206f70657261746f7220717565727920666f72206e6f6e657860448201527f697374656e7420746f6b656e000000000000000000000000000000000000000060648201526084016105c9565b6000611ccd83611079565b905080600160a060020a031684600160a060020a03161480611d08575083600160a060020a0316611cfd846109e7565b600160a060020a0316145b80610bdd5750600160a060020a0380821660009081526005602090815260408083209388168352929052205460ff16610bdd565b611d47848484611f12565b611d53848484846120f0565b6113ed5760405160e560020a62461bcd0281526004016105c990612c3c565b6060611d7d82611b65565b611df25760405160e560020a62461bcd02815260206004820152602f60248201527f4552433732314d657461646174613a2055524920717565727920666f72206e6f60448201527f6e6578697374656e7420746f6b656e000000000000000000000000000000000060648201526084016105c9565b6000611e0960408051602081019091526000815290565b90506000815111611e295760405180602001604052806000815250611e54565b80611e338461222f565b604051602001611e44929190612b5c565b6040516020818303038152906040525b9392505050565b6109e3828260405180602001604052806000815250612380565b611e7e82611b65565b611ef35760405160e560020a62461bcd02815260206004820152602e60248201527f45524337323155524953746f726167653a2055524920736574206f66206e6f6e60448201527f6578697374656e7420746f6b656e00000000000000000000000000000000000060648201526084016105c9565b60008281526006602090815260409091208251610bb69284019061275e565b82600160a060020a0316611f2582611079565b600160a060020a031614611fa45760405160e560020a62461bcd02815260206004820152602960248201527f4552433732313a207472616e73666572206f6620746f6b656e2074686174206960448201527f73206e6f74206f776e000000000000000000000000000000000000000000000060648201526084016105c9565b600160a060020a0382166120225760405160e560020a62461bcd028152602060048201526024808201527f4552433732313a207472616e7366657220746f20746865207a65726f2061646460448201527f726573730000000000000000000000000000000000000000000000000000000060648201526084016105c9565b61202d8383836123b6565b612038600082611b82565b600160a060020a0383166000908152600360205260408120805460019290612061908490612d87565b9091555050600160a060020a038216600090815260036020526040812080546001929061208f908490612d3c565b90915550506000818152600260205260408082208054600160a060020a031916600160a060020a0386811691821790925591518493918716917fddf252ad1be2c89b69c2b068fc378daa952ba7f163c4a11628f55a4df523b3ef91a4505050565b6000600160a060020a0384163b15612227576040517f150b7a02000000000000000000000000000000000000000000000000000000008152600160a060020a0385169063150b7a029061214d903390899088908890600401612b8b565b602060405180830381600087803b15801561216757600080fd5b505af1925050508015612197575060408051601f3d908101601f1916820190925261219491810190612a59565b60015b6121f4573d8080156121c5576040519150601f19603f3d011682016040523d82523d6000602084013e6121ca565b606091505b5080516121ec5760405160e560020a62461bcd0281526004016105c990612c3c565b805181602001fd5b600160e060020a0319167f150b7a0200000000000000000000000000000000000000000000000000000000149050610bdd565b506001610bdd565b60608161226f57505060408051808201909152600181527f3000000000000000000000000000000000000000000000000000000000000000602082015290565b8160005b8115612299578061228381612e1f565b91506122929050600a83612d54565b9150612273565b60008167ffffffffffffffff8111156122b4576122b4612e99565b6040519080825280601f01601f1916602001820160405280156122de576020820181803683370190505b5090505b8415610bdd576122f3600183612d87565b9150612300600a86612e3a565b61230b906030612d3c565b7f01000000000000000000000000000000000000000000000000000000000000000281838151811061233f5761233f612e80565b60200101907effffffffffffffffffffffffffffffffffffffffffffffffffffffffffffff1916908160001a905350612379600a86612d54565b94506122e2565b61238a8383612619565b61239760008484846120f0565b610bb65760405160e560020a62461bcd0281526004016105c990612c3c565b600160a060020a038316600090815260096020908152604080832080548251818502810185019093528083529192909190849084015b8282101561244157600084815260209081902060408051606081018252600386029092018054835260018082015484860152600290910154600160a060020a03169183019190915290835290920191016123ec565b505050600160a060020a038616600090815260096020526040812092935061246a9291506127e2565b60005b81518110156125e8578282828151811061248957612489612e80565b6020026020010151600001511461252757600160a060020a038516600090815260096020526040902082518390839081106124c6576124c6612e80565b6020908102919091018101518254600180820185556000948552938390208251600390920201908155918101519282019290925560409091015160029091018054600160a060020a031916600160a060020a039092169190911790556125d6565b8382828151811061253a5761253a612e80565b602090810291909101810151600160a060020a039283166040918201529186166000908152600990915220825183908390811061257957612579612e80565b6020908102919091018101518254600180820185556000948552938390208251600390920201908155918101519282019290925560409091015160029091018054600160a060020a031916600160a060020a039092169190911790555b806125e081612e1f565b91505061246d565b50506000908152600b602052604090208054600160a060020a031916600160a060020a039290921691909117905550565b600160a060020a0382166126725760405160e560020a62461bcd02815260206004820181905260248201527f4552433732313a206d696e7420746f20746865207a65726f206164647265737360448201526064016105c9565b61267b81611b65565b156126cb5760405160e560020a62461bcd02815260206004820152601c60248201527f4552433732313a20746f6b656e20616c7265616479206d696e7465640000000060448201526064016105c9565b6126d7600083836123b6565b600160a060020a0382166000908152600360205260408120805460019290612700908490612d3c565b90915550506000818152600260205260408082208054600160a060020a031916600160a060020a03861690811790915590518392907fddf252ad1be2c89b69c2b068fc378daa952ba7f163c4a11628f55a4df523b3ef908290a45050565b82805461276a90612de1565b90600052602060002090601f01602090048101928261278c57600085556127d2565b82601f106127a557805160ff19168380011785556127d2565b828001600101855582156127d2579182015b828111156127d25782518255916020019190600101906127b7565b506127de929150612803565b5090565b5080546000825560030290600052602060002090810190611aca9190612818565b5b808211156127de5760008155600101612804565b5b808211156127de5760008082556001820155600281018054600160a060020a0319169055600301612819565b600067ffffffffffffffff8084111561286057612860612e99565b604051601f8501601f19908116603f0116810190828211818310171561288857612888612e99565b816040528093508581528686860111156128a157600080fd5b858560208301376000602087830101525050509392505050565b8035600160a060020a0381168114611a1057600080fd5b80358015158114611a1057600080fd5b6000602082840312156128f457600080fd5b611e54826128bb565b6000806040838503121561291057600080fd5b612919836128bb565b9150612927602084016128bb565b90509250929050565b60008060006060848603121561294557600080fd5b61294e846128bb565b925061295c602085016128bb565b9150604084013590509250925092565b6000806000806080858703121561298257600080fd5b61298b856128bb565b9350612999602086016128bb565b925060408501359150606085013567ffffffffffffffff8111156129bc57600080fd5b8501601f810187136129cd57600080fd5b6129dc87823560208401612845565b91505092959194509250565b600080604083850312156129fb57600080fd5b612a04836128bb565b9150612927602084016128d2565b60008060408385031215612a2557600080fd5b612a2e836128bb565b946020939093013593505050565b600060208284031215612a4e57600080fd5b8135611e5481612eb2565b600060208284031215612a6b57600080fd5b8151611e5481612eb2565b600060208284031215612a8857600080fd5b5035919050565b60008060408385031215612aa257600080fd5b50508035926020909101359150565b600080600080600060a08688031215612ac957600080fd5b853594506020860135935060408601359250612ae7606087016128d2565b9150608086013567ffffffffffffffff811115612b0357600080fd5b8601601f81018813612b1457600080fd5b612b2388823560208401612845565b9150509295509295909350565b60008151808452612b48816020860160208601612d9e565b601f01601f19169290920160200192915050565b60008351612b6e818460208801612d9e565b835190830190612b82818360208801612d9e565b01949350505050565b6000600160a060020a03808716835280861660208401525083604083015260806060830152612bbd6080830184612b30565b9695505050505050565b602080825282518282018190526000919060409081850190868401855b82811015612c1c578151805185528681015187860152850151600160a060020a03168585015260609093019290850190600101612be4565b5091979650505050505050565b602081526000611e546020830184612b30565b60208082526032908201527f4552433732313a207472616e7366657220746f206e6f6e20455243373231526560408201527f63656976657220696d706c656d656e7465720000000000000000000000000000606082015260800190565b6020808252818101527f4f776e61626c653a2063616c6c6572206973206e6f7420746865206f776e6572604082015260600190565b60208082526011908201527f506f6c69746963206e6f7420666f756e64000000000000000000000000000000604082015260600190565b60208082526010908201527f496e636f727265637420616d6f756e7400000000000000000000000000000000604082015260600190565b60008219821115612d4f57612d4f612e4e565b500190565b600082612d6357612d63612e67565b500490565b6000816000190483118215151615612d8257612d82612e4e565b500290565b600082821015612d9957612d99612e4e565b500390565b60005b83811015612db9578181015183820152602001612da1565b838111156113ed5750506000910152565b600081612dd957612dd9612e4e565b506000190190565b600281046001821680612df557607f821691505b60208210811415612e195760e060020a634e487b7102600052602260045260246000fd5b50919050565b6000600019821415612e3357612e33612e4e565b5060010190565b600082612e4957612e49612e67565b500690565b60e060020a634e487b7102600052601160045260246000fd5b60e060020a634e487b7102600052601260045260246000fd5b60e060020a634e487b7102600052603260045260246000fd5b60e060020a634e487b7102600052604160045260246000fd5b600160e060020a031981168114611aca57600080fdfea26469706673582212200991be3dcd8873dad08006a98152a250970b11a48ee5b4a563182b901e327b9964736f6c63430008070033",
  "immutableReferences": {},
  "source": "// SPDX-License-Identifier: MIT\n\npragma solidity ^0.8.0;\nimport \"./CollectibleUtils.sol\";\n\n/**\n* @title Base function of sell ERC721\n* @author Youness Chetoui\n*/\ncontract Sell is CollectibleUtils {\n    struct PoliticOnSale {\n        uint256 tokenId;\n        uint256 price;\n        address payable owner;\n        bool created;\n    }\n\n    mapping(uint256 => PoliticOnSale) internal politicsOnSale;\n\n    uint256[] public arrayPoliticiansOnSale;\n    uint256 internal feeSale = 5;\n\n    event CreateSale(uint256 id, address owner);\n    event BuyOnSale(uint256 id, address buyer);\n\n    /**\n    * @notice Up for sale of owned politician\n    * @param _tokenId of politician owned and _price wished\n    */\n    function forSale(uint256 _tokenId, uint256 _price) public {\n        require(politicToUser[_tokenId] == msg.sender, \"You are not the owner of the token\");\n\n        ERC721.safeTransferFrom(msg.sender, contractAddress, _tokenId);\n\n        PoliticOnSale memory politicOnSale =\n            PoliticOnSale({tokenId: _tokenId, price: _price, owner: payable(msg.sender), created: true});\n\n        politicsOnSale[_tokenId] = politicOnSale;\n\n        arrayPoliticiansOnSale.push(_tokenId);\n\n        emit CreateSale(_tokenId, msg.sender);\n    }\n\n    /**\n    * @notice Buy politician\n    * @param _tokenId of politician for sale\n    */\n    function buyPoliticsForSale(uint256 _tokenId) public payable {\n        require(politicsOnSale[_tokenId].created, \"Politician not for sale\");\n        require(msg.sender != politicsOnSale[_tokenId].owner, \"Your politician\");\n        require(msg.value == (politicsOnSale[_tokenId].price * 10**18) / 1000, \"Incorrect amount\");\n\n        // get 5% of fee\n        uint256 feeCost = msg.value * feeSale / 100;\n        uint256 amountOwner = msg.value - feeCost;\n        ownerAddress.transfer(feeCost);\n        politicsOnSale[_tokenId].owner.transfer(amountOwner);\n\n        // transfer collectible from contract to buyer\n        this.safeTransferFrom(contractAddress, msg.sender, _tokenId);\n\n        // Delete onSale\n        _updatePoliticianOnSale(_tokenId);\n\n        emit BuyOnSale(_tokenId, msg.sender);\n    }\n\n    /**\n    * @notice Cancel the sell of politician\n    * @param _tokenId of politician for sale\n    */\n    function cancelSell(uint256 _tokenId) public payable {\n        require(msg.sender == politicsOnSale[_tokenId].owner, \"Not your politician\");\n        uint256 feeCost = ((politicsOnSale[_tokenId].price * 10**18) / 1000) * feeSale /100;\n        require(msg.value == feeCost, \"Incorrect amount\");\n\n        ownerAddress.transfer(feeCost);\n        // transfer collectible from contract to buyer\n        this.safeTransferFrom(contractAddress, msg.sender, _tokenId);\n\n        // Delete onSale\n        _updatePoliticianOnSale(_tokenId);\n    }\n\n    /**\n    * @notice Update on sale politician\n    * @param _tokenId of politician\n    */\n    function _updatePoliticianOnSale(uint256 _tokenId) internal {\n        delete politicsOnSale[_tokenId];\n\n        for (uint i = 0; i < arrayPoliticiansOnSale.length; i++) {\n            if (arrayPoliticiansOnSale[i] == _tokenId) {\n                delete arrayPoliticiansOnSale[i];\n            }\n        }\n    }\n}\n",
  "sourcePath": "/home/youness/Crypto/PoliticsCollectible/contracts/Sell.sol",
  "compiler": {
    "name": "solc",
    "version": "0.8.7+commit.e28d00a7.Emscripten.clang"
  },
  "schemaVersion": "3.4.3",
  "updatedAt": "2021-09-07T08:49:39.448Z",
  "devdoc": {
    "author": "Youness Chetoui",
    "kind": "dev",
    "methods": {
      "addQty(uint256,uint256)": {
        "params": {
          "_id": "of PoliticsAvailable and _qty wished"
        }
      },
      "approve(address,uint256)": {
        "details": "See {IERC721-approve}."
      },
      "balanceOf(address)": {
        "details": "See {IERC721-balanceOf}."
      },
      "buy(uint256)": {
        "params": {
          "_id": ", _tokenUri of politician available"
        }
      },
      "buyPoliticsForSale(uint256)": {
        "params": {
          "_tokenId": "of politician for sale"
        }
      },
      "cancelSell(uint256)": {
        "params": {
          "_tokenId": "of politician for sale"
        }
      },
      "create(uint256,uint256,uint256,bool,string)": {
        "params": {
          "_id": ", _qty, _price and _lottery of politician available"
        }
      },
      "forSale(uint256,uint256)": {
        "params": {
          "_tokenId": "of politician owned and _price wished"
        }
      },
      "getApproved(uint256)": {
        "details": "See {IERC721-getApproved}."
      },
      "getMyPolitics()": {
        "returns": {
          "_0": "array of struct PoliticsOwned"
        }
      },
      "getPoliticQty(uint256)": {
        "params": {
          "_id": "PoliticsAvailable"
        },
        "returns": {
          "_0": "uint256"
        }
      },
      "isApprovedForAll(address,address)": {
        "details": "See {IERC721-isApprovedForAll}."
      },
      "name()": {
        "details": "See {IERC721Metadata-name}."
      },
      "onERC721Received(address,address,uint256,bytes)": {
        "details": "See {IERC721Receiver-onERC721Received}. Always returns `IERC721Receiver.onERC721Received.selector`."
      },
      "owner()": {
        "details": "Returns the address of the current owner."
      },
      "ownerOf(uint256)": {
        "details": "See {IERC721-ownerOf}."
      },
      "renounceOwnership()": {
        "details": "Leaves the contract without owner. It will not be possible to call `onlyOwner` functions anymore. Can only be called by the current owner. NOTE: Renouncing ownership will leave the contract without an owner, thereby removing any functionality that is only available to the owner."
      },
      "safeTransferFrom(address,address,uint256)": {
        "details": "See {IERC721-safeTransferFrom}."
      },
      "safeTransferFrom(address,address,uint256,bytes)": {
        "details": "See {IERC721-safeTransferFrom}."
      },
      "setApprovalForAll(address,bool)": {
        "details": "See {IERC721-setApprovalForAll}."
      },
      "supportsInterface(bytes4)": {
        "details": "See {IERC165-supportsInterface}."
      },
      "symbol()": {
        "details": "See {IERC721Metadata-symbol}."
      },
      "tokenURI(uint256)": {
        "details": "See {IERC721Metadata-tokenURI}."
      },
      "transferOwnership(address)": {
        "details": "Transfers ownership of the contract to a new account (`newOwner`). Can only be called by the current owner."
      }
    },
    "title": "Base function of sell ERC721",
    "version": 1
  },
  "userdoc": {
    "kind": "user",
    "methods": {
      "addQty(uint256,uint256)": {
        "notice": "Add quantity for a PoliticsAvailable"
      },
      "buy(uint256)": {
        "notice": "Buy politician"
      },
      "buyPoliticsForSale(uint256)": {
        "notice": "Buy politician"
      },
      "cancelSell(uint256)": {
        "notice": "Cancel the sell of politician"
      },
      "create(uint256,uint256,uint256,bool,string)": {
        "notice": "Create politician"
      },
      "forSale(uint256,uint256)": {
        "notice": "Up for sale of owned politician"
      },
      "getMyPolitics()": {
        "notice": "Get politician by user"
      },
      "getPoliticQty(uint256)": {
        "notice": "get qty of politician available"
      },
      "transferFrom(address,address,uint256)": {
        "notice": "Disabled not safe transform"
      }
    },
    "version": 1
  }
}