{
  "contractName": "Sell",
  "abi": [
    {
      "anonymous": false,
      "inputs": [
        {
          "indexed": true,
          "internalType": "address",
          "name": "owner",
          "type": "address"
        },
        {
          "indexed": true,
          "internalType": "address",
          "name": "approved",
          "type": "address"
        },
        {
          "indexed": true,
          "internalType": "uint256",
          "name": "tokenId",
          "type": "uint256"
        }
      ],
      "name": "Approval",
      "type": "event"
    },
    {
      "anonymous": false,
      "inputs": [
        {
          "indexed": true,
          "internalType": "address",
          "name": "owner",
          "type": "address"
        },
        {
          "indexed": true,
          "internalType": "address",
          "name": "operator",
          "type": "address"
        },
        {
          "indexed": false,
          "internalType": "bool",
          "name": "approved",
          "type": "bool"
        }
      ],
      "name": "ApprovalForAll",
      "type": "event"
    },
    {
      "anonymous": false,
      "inputs": [
        {
          "indexed": false,
          "internalType": "uint256",
          "name": "id",
          "type": "uint256"
        },
        {
          "indexed": false,
          "internalType": "address",
          "name": "buyer",
          "type": "address"
        }
      ],
      "name": "BuyOnSale",
      "type": "event"
    },
    {
      "anonymous": false,
      "inputs": [
        {
          "indexed": false,
          "internalType": "uint256",
          "name": "id",
          "type": "uint256"
        }
      ],
      "name": "CreatePolitician",
      "type": "event"
    },
    {
      "anonymous": false,
      "inputs": [
        {
          "indexed": false,
          "internalType": "uint256",
          "name": "id",
          "type": "uint256"
        },
        {
          "indexed": false,
          "internalType": "address",
          "name": "owner",
          "type": "address"
        }
      ],
      "name": "CreateSale",
      "type": "event"
    },
    {
      "anonymous": false,
      "inputs": [
        {
          "indexed": true,
          "internalType": "address",
          "name": "previousOwner",
          "type": "address"
        },
        {
          "indexed": true,
          "internalType": "address",
          "name": "newOwner",
          "type": "address"
        }
      ],
      "name": "OwnershipTransferred",
      "type": "event"
    },
    {
      "anonymous": false,
      "inputs": [
        {
          "indexed": false,
          "internalType": "address",
          "name": "owner",
          "type": "address"
        },
        {
          "indexed": false,
          "internalType": "uint256",
          "name": "id",
          "type": "uint256"
        }
      ],
      "name": "PoliticianBuy",
      "type": "event"
    },
    {
      "anonymous": false,
      "inputs": [
        {
          "indexed": true,
          "internalType": "address",
          "name": "from",
          "type": "address"
        },
        {
          "indexed": true,
          "internalType": "address",
          "name": "to",
          "type": "address"
        },
        {
          "indexed": true,
          "internalType": "uint256",
          "name": "tokenId",
          "type": "uint256"
        }
      ],
      "name": "Transfer",
      "type": "event"
    },
    {
      "inputs": [
        {
          "internalType": "uint256",
          "name": "_id",
          "type": "uint256"
        },
        {
          "internalType": "uint256",
          "name": "_qty",
          "type": "uint256"
        }
      ],
      "name": "addQty",
      "outputs": [],
      "stateMutability": "nonpayable",
      "type": "function"
    },
    {
      "inputs": [
        {
          "internalType": "address",
          "name": "to",
          "type": "address"
        },
        {
          "internalType": "uint256",
          "name": "tokenId",
          "type": "uint256"
        }
      ],
      "name": "approve",
      "outputs": [],
      "stateMutability": "nonpayable",
      "type": "function"
    },
    {
      "inputs": [
        {
          "internalType": "uint256",
          "name": "",
          "type": "uint256"
        }
      ],
      "name": "arrayPoliticiansOnSale",
      "outputs": [
        {
          "internalType": "uint256",
          "name": "",
          "type": "uint256"
        }
      ],
      "stateMutability": "view",
      "type": "function"
    },
    {
      "inputs": [
        {
          "internalType": "address",
          "name": "owner",
          "type": "address"
        }
      ],
      "name": "balanceOf",
      "outputs": [
        {
          "internalType": "uint256",
          "name": "",
          "type": "uint256"
        }
      ],
      "stateMutability": "view",
      "type": "function"
    },
    {
      "inputs": [
        {
          "internalType": "uint256",
          "name": "_id",
          "type": "uint256"
        },
        {
          "internalType": "string",
          "name": "_tokenUri",
          "type": "string"
        }
      ],
      "name": "buy",
      "outputs": [],
      "stateMutability": "payable",
      "type": "function"
    },
    {
      "inputs": [],
      "name": "contractAddress",
      "outputs": [
        {
          "internalType": "address payable",
          "name": "",
          "type": "address"
        }
      ],
      "stateMutability": "view",
      "type": "function"
    },
    {
      "inputs": [
        {
          "internalType": "uint256",
          "name": "_id",
          "type": "uint256"
        },
        {
          "internalType": "uint256",
          "name": "_price",
          "type": "uint256"
        },
        {
          "internalType": "uint256",
          "name": "_qty",
          "type": "uint256"
        },
        {
          "internalType": "bool",
          "name": "_lottery",
          "type": "bool"
        }
      ],
      "name": "create",
      "outputs": [],
      "stateMutability": "nonpayable",
      "type": "function"
    },
    {
      "inputs": [
        {
          "internalType": "uint256",
          "name": "tokenId",
          "type": "uint256"
        }
      ],
      "name": "getApproved",
      "outputs": [
        {
          "internalType": "address",
          "name": "",
          "type": "address"
        }
      ],
      "stateMutability": "view",
      "type": "function"
    },
    {
      "inputs": [],
      "name": "getMyPolitics",
      "outputs": [
        {
          "components": [
            {
              "internalType": "uint256",
              "name": "id",
              "type": "uint256"
            },
            {
              "internalType": "uint256",
              "name": "id_politic",
              "type": "uint256"
            },
            {
              "internalType": "address",
              "name": "owner",
              "type": "address"
            }
          ],
          "internalType": "struct Collectible.PoliticsOwned[]",
          "name": "",
          "type": "tuple[]"
        }
      ],
      "stateMutability": "view",
      "type": "function"
    },
    {
      "inputs": [
        {
          "internalType": "uint256",
          "name": "_id",
          "type": "uint256"
        }
      ],
      "name": "getPoliticQty",
      "outputs": [
        {
          "internalType": "uint256",
          "name": "",
          "type": "uint256"
        }
      ],
      "stateMutability": "view",
      "type": "function"
    },
    {
      "inputs": [
        {
          "internalType": "address",
          "name": "owner",
          "type": "address"
        },
        {
          "internalType": "address",
          "name": "operator",
          "type": "address"
        }
      ],
      "name": "isApprovedForAll",
      "outputs": [
        {
          "internalType": "bool",
          "name": "",
          "type": "bool"
        }
      ],
      "stateMutability": "view",
      "type": "function"
    },
    {
      "inputs": [],
      "name": "name",
      "outputs": [
        {
          "internalType": "string",
          "name": "",
          "type": "string"
        }
      ],
      "stateMutability": "view",
      "type": "function"
    },
    {
      "inputs": [
        {
          "internalType": "address",
          "name": "",
          "type": "address"
        },
        {
          "internalType": "address",
          "name": "",
          "type": "address"
        },
        {
          "internalType": "uint256",
          "name": "",
          "type": "uint256"
        },
        {
          "internalType": "bytes",
          "name": "",
          "type": "bytes"
        }
      ],
      "name": "onERC721Received",
      "outputs": [
        {
          "internalType": "bytes4",
          "name": "",
          "type": "bytes4"
        }
      ],
      "stateMutability": "nonpayable",
      "type": "function"
    },
    {
      "inputs": [],
      "name": "owner",
      "outputs": [
        {
          "internalType": "address",
          "name": "",
          "type": "address"
        }
      ],
      "stateMutability": "view",
      "type": "function"
    },
    {
      "inputs": [],
      "name": "ownerAddress",
      "outputs": [
        {
          "internalType": "address payable",
          "name": "",
          "type": "address"
        }
      ],
      "stateMutability": "view",
      "type": "function"
    },
    {
      "inputs": [
        {
          "internalType": "uint256",
          "name": "tokenId",
          "type": "uint256"
        }
      ],
      "name": "ownerOf",
      "outputs": [
        {
          "internalType": "address",
          "name": "",
          "type": "address"
        }
      ],
      "stateMutability": "view",
      "type": "function"
    },
    {
      "inputs": [],
      "name": "renounceOwnership",
      "outputs": [],
      "stateMutability": "nonpayable",
      "type": "function"
    },
    {
      "inputs": [
        {
          "internalType": "address",
          "name": "from",
          "type": "address"
        },
        {
          "internalType": "address",
          "name": "to",
          "type": "address"
        },
        {
          "internalType": "uint256",
          "name": "tokenId",
          "type": "uint256"
        }
      ],
      "name": "safeTransferFrom",
      "outputs": [],
      "stateMutability": "nonpayable",
      "type": "function"
    },
    {
      "inputs": [
        {
          "internalType": "address",
          "name": "from",
          "type": "address"
        },
        {
          "internalType": "address",
          "name": "to",
          "type": "address"
        },
        {
          "internalType": "uint256",
          "name": "tokenId",
          "type": "uint256"
        },
        {
          "internalType": "bytes",
          "name": "_data",
          "type": "bytes"
        }
      ],
      "name": "safeTransferFrom",
      "outputs": [],
      "stateMutability": "nonpayable",
      "type": "function"
    },
    {
      "inputs": [
        {
          "internalType": "address",
          "name": "operator",
          "type": "address"
        },
        {
          "internalType": "bool",
          "name": "approved",
          "type": "bool"
        }
      ],
      "name": "setApprovalForAll",
      "outputs": [],
      "stateMutability": "nonpayable",
      "type": "function"
    },
    {
      "inputs": [
        {
          "internalType": "bytes4",
          "name": "interfaceId",
          "type": "bytes4"
        }
      ],
      "name": "supportsInterface",
      "outputs": [
        {
          "internalType": "bool",
          "name": "",
          "type": "bool"
        }
      ],
      "stateMutability": "view",
      "type": "function"
    },
    {
      "inputs": [],
      "name": "symbol",
      "outputs": [
        {
          "internalType": "string",
          "name": "",
          "type": "string"
        }
      ],
      "stateMutability": "view",
      "type": "function"
    },
    {
      "inputs": [
        {
          "internalType": "uint256",
          "name": "tokenId",
          "type": "uint256"
        }
      ],
      "name": "tokenURI",
      "outputs": [
        {
          "internalType": "string",
          "name": "",
          "type": "string"
        }
      ],
      "stateMutability": "view",
      "type": "function"
    },
    {
      "inputs": [
        {
          "internalType": "address",
          "name": "from",
          "type": "address"
        },
        {
          "internalType": "address",
          "name": "to",
          "type": "address"
        },
        {
          "internalType": "uint256",
          "name": "tokenId",
          "type": "uint256"
        }
      ],
      "name": "transferFrom",
      "outputs": [],
      "stateMutability": "nonpayable",
      "type": "function"
    },
    {
      "inputs": [
        {
          "internalType": "address",
          "name": "newOwner",
          "type": "address"
        }
      ],
      "name": "transferOwnership",
      "outputs": [],
      "stateMutability": "nonpayable",
      "type": "function"
    },
    {
      "inputs": [
        {
          "internalType": "uint256",
          "name": "_tokenId",
          "type": "uint256"
        },
        {
          "internalType": "uint256",
          "name": "_price",
          "type": "uint256"
        }
      ],
      "name": "forSale",
      "outputs": [],
      "stateMutability": "nonpayable",
      "type": "function"
    },
    {
      "inputs": [],
      "name": "test",
      "outputs": [
        {
          "internalType": "uint256[]",
          "name": "",
          "type": "uint256[]"
        }
      ],
      "stateMutability": "view",
      "type": "function"
    },
    {
      "inputs": [
        {
          "internalType": "uint256",
          "name": "_id",
          "type": "uint256"
        }
      ],
      "name": "you",
      "outputs": [
        {
          "components": [
            {
              "internalType": "uint256",
              "name": "tokenId",
              "type": "uint256"
            },
            {
              "internalType": "uint256",
              "name": "price",
              "type": "uint256"
            },
            {
              "internalType": "address payable",
              "name": "owner",
              "type": "address"
            },
            {
              "internalType": "bool",
              "name": "created",
              "type": "bool"
            }
          ],
          "internalType": "struct Sell.PoliticOnSale",
          "name": "",
          "type": "tuple"
        }
      ],
      "stateMutability": "view",
      "type": "function"
    },
    {
      "inputs": [
        {
          "internalType": "uint256",
          "name": "_tokenId",
          "type": "uint256"
        }
      ],
      "name": "buyPoliticsForSale",
      "outputs": [],
      "stateMutability": "payable",
      "type": "function"
    },
    {
      "inputs": [
        {
          "internalType": "uint256",
          "name": "_tokenId",
          "type": "uint256"
        }
      ],
      "name": "cancelSell",
      "outputs": [],
      "stateMutability": "payable",
      "type": "function"
    }
  ],
  "bytecode": "0x60806040526001600e5560056011553480156200001b57600080fd5b50604080518082018252600b81527f506f6c69746963734e667400000000000000000000000000000000000000000060208083019182528351808501909452600384527f504f4c0000000000000000000000000000000000000000000000000000000000908401528151919291620000969160009162000157565b508051620000ac90600190602084019062000157565b505050620000db620000cc62000101640100000000026401000000009004565b64010000000062000105810204565b600c8054600160a060020a03199081163317909155600d80549091163017905562000253565b3390565b60078054600160a060020a03838116600160a060020a0319831681179093556040519116919082907f8be0079c531659141344cd1fd0a4f28419497f9722a3daafe3b4186f6b6457e090600090a35050565b8280546200016590620001fd565b90600052602060002090601f016020900481019282620001895760008555620001d4565b82601f10620001a457805160ff1916838001178555620001d4565b82800160010185558215620001d4579182015b82811115620001d4578251825591602001919060010190620001b7565b50620001e2929150620001e6565b5090565b5b80821115620001e25760008155600101620001e7565b6002810460018216806200021257607f821691505b602082108114156200024d577f4e487b7100000000000000000000000000000000000000000000000000000000600052602260045260246000fd5b50919050565b61302880620002636000396000f3fe6080604052600436106101ea576000357c01000000000000000000000000000000000000000000000000000000009004806385d3343611610114578063b88d4fde116100b2578063e985e9c511610081578063e985e9c51461060d578063f2fde38b14610656578063f6b4dfb414610676578063f8a8fd6d1461069657600080fd5b8063b88d4fde1461058d578063b9db1c98146105ad578063c87b56dd146105cd578063de7f5587146105ed57600080fd5b80638fedc864116100ee5780638fedc8641461052557806395d89b4114610545578063a22cb4651461055a578063b7dc3b181461057a57600080fd5b806385d33436146104c55780638da5cb5b146104e75780638f84aa091461050557600080fd5b806323b872dd1161018c57806354b3efa61161015b57806354b3efa6146104425780636352211e1461046257806370a0823114610482578063715018a6146104b057600080fd5b806323b872dd1461030c5780633b27f0821461032c57806342842e0e1461040f578063546f9e671461042f57600080fd5b8063081812fc116101c8578063081812fc1461025b578063095ea7b3146102935780630b2ee7e9146102b3578063150b7a02146102d357600080fd5b806301ffc9a7146101ef57806306fdde031461022457806307c9cd4514610246575b600080fd5b3480156101fb57600080fd5b5061020f61020a366004612b07565b6106b8565b60405190151581526020015b60405180910390f35b34801561023057600080fd5b50610239610755565b60405161021b9190612d53565b610259610254366004612b41565b6107e7565b005b34801561026757600080fd5b5061027b610276366004612b41565b610995565b604051600160a060020a03909116815260200161021b565b34801561029f57600080fd5b506102596102ae366004612add565b610a31565b3480156102bf57600080fd5b506102596102ce366004612bd7565b610b69565b3480156102df57600080fd5b506102f36102ee366004612a37565b610cb2565b604051600160e060020a0319909116815260200161021b565b34801561031857600080fd5b506102596103273660046129fb565b610cdc565b34801561033857600080fd5b506103d1610347366004612b41565b604080516080810182526000808252602082018190529181018290526060810191909152506000908152600f602090815260409182902082516080810184528154815260018201549281019290925260020154600160a060020a038116928201929092527401000000000000000000000000000000000000000090910460ff161515606082015290565b60405161021b91908151815260208083015190820152604080830151600160a060020a03169082015260609182015115159181019190915260800190565b34801561041b57600080fd5b5061025961042a3660046129fb565b610d09565b61025961043d366004612b41565b610d24565b34801561044e57600080fd5b5061025961045d366004612bb5565b610fd8565b34801561046e57600080fd5b5061027b61047d366004612b41565b611170565b34801561048e57600080fd5b506104a261049d3660046129ad565b6111fe565b60405190815260200161021b565b3480156104bc57600080fd5b5061025961129b565b3480156104d157600080fd5b506104da6112d4565b60405161021b9190612cad565b3480156104f357600080fd5b50600754600160a060020a031661027b565b34801561051157600080fd5b50600c5461027b90600160a060020a031681565b34801561053157600080fd5b506104a2610540366004612b41565b611361565b34801561055157600080fd5b50610239611382565b34801561056657600080fd5b50610259610575366004612ab3565b611391565b610259610588366004612b5a565b611459565b34801561059957600080fd5b506102596105a8366004612a37565b611783565b3480156105b957600080fd5b506102596105c8366004612bb5565b611814565b3480156105d957600080fd5b506102396105e8366004612b41565b61188c565b3480156105f957600080fd5b506104a2610608366004612b41565b611a0a565b34801561061957600080fd5b5061020f6106283660046129c8565b600160a060020a03918216600090815260056020908152604080832093909416825291909152205460ff1690565b34801561066257600080fd5b506102596106713660046129ad565b611a89565b34801561068257600080fd5b50600d5461027b90600160a060020a031681565b3480156106a257600080fd5b506106ab611b41565b60405161021b9190612d0f565b6000600160e060020a031982167f80ac58cd00000000000000000000000000000000000000000000000000000000148061071b5750600160e060020a031982167f5b5e139f00000000000000000000000000000000000000000000000000000000145b8061074f57507f01ffc9a700000000000000000000000000000000000000000000000000000000600160e060020a03198316145b92915050565b60606000805461076490612f0b565b80601f016020809104026020016040519081016040528092919081815260200182805461079090612f0b565b80156107dd5780601f106107b2576101008083540402835291602001916107dd565b820191906000526020600020905b8154815290600101906020018083116107c057829003601f168201915b5050505050905090565b6000818152600f6020526040902060020154600160a060020a031633146108585760405160e560020a62461bcd02815260206004820152601360248201527f4e6f7420796f757220706f6c6974696369616e0000000000000000000000000060448201526064015b60405180910390fd5b6011546000828152600f602052604081206001015490916064916103e89061088890670de0b6b3a7640000612e92565b6108929190612e7e565b61089c9190612e92565b6108a69190612e7e565b90508034146108ca5760405160e560020a62461bcd02815260040161084f90612e2f565b600c54604051600160a060020a039091169082156108fc029083906000818181858888f19350505050158015610904573d6000803e3d6000fd5b50600d546040517f42842e0e000000000000000000000000000000000000000000000000000000008152600160a060020a0390911660048201523360248201526044810183905230906342842e0e90606401600060405180830381600087803b15801561097057600080fd5b505af1158015610984573d6000803e3d6000fd5b5050505061099182611b98565b5050565b60006109a082611c30565b610a155760405160e560020a62461bcd02815260206004820152602c60248201527f4552433732313a20617070726f76656420717565727920666f72206e6f6e657860448201527f697374656e7420746f6b656e0000000000000000000000000000000000000000606482015260840161084f565b50600090815260046020526040902054600160a060020a031690565b6000610a3c82611170565b905080600160a060020a031683600160a060020a03161415610ac95760405160e560020a62461bcd02815260206004820152602160248201527f4552433732313a20617070726f76616c20746f2063757272656e74206f776e6560448201527f7200000000000000000000000000000000000000000000000000000000000000606482015260840161084f565b33600160a060020a0382161480610ae55750610ae58133610628565b610b5a5760405160e560020a62461bcd02815260206004820152603860248201527f4552433732313a20617070726f76652063616c6c6572206973206e6f74206f7760448201527f6e6572206e6f7220617070726f76656420666f7220616c6c0000000000000000606482015260840161084f565b610b648383611c4d565b505050565b600754600160a060020a03163314610b965760405160e560020a62461bcd02815260040161084f90612dc3565b600084815260086020526040902060020154610100900460ff1615610c005760405160e560020a62461bcd02815260206004820152601160248201527f696420616c726561647920696e20757365000000000000000000000000000000604482015260640161084f565b60408051608081018252858152602080820186815284151583850190815260016060850181815260008b8152600a86528781208a9055600890955293869020855181559251908301555160029091018054925115156101000261ff00199215159290921661ffff199093169290921717905590517ff00c522f13522af224c59f918a8375598b0362237c9cc8b4edb44f599cf0f3d690610ca39087815260200190565b60405180910390a15050505050565b7f150b7a02000000000000000000000000000000000000000000000000000000005b949350505050565b600754600160a060020a03163314610b645760405160e560020a62461bcd02815260040161084f90612dc3565b610b6483838360405180602001604052806000815250611783565b6000818152600f602052604090206002015474010000000000000000000000000000000000000000900460ff16610da05760405160e560020a62461bcd02815260206004820152601760248201527f506f6c6974696369616e206e6f7420666f722073616c65000000000000000000604482015260640161084f565b6000818152600f6020526040902060020154600160a060020a0316331415610e0d5760405160e560020a62461bcd02815260206004820152600f60248201527f596f757220706f6c6974696369616e0000000000000000000000000000000000604482015260640161084f565b6000818152600f60205260409020600101546103e890610e3590670de0b6b3a7640000612e92565b610e3f9190612e7e565b3414610e605760405160e560020a62461bcd02815260040161084f90612e2f565b6000606460115434610e729190612e92565b610e7c9190612e7e565b90506000610e8a8234612eb1565b600c54604051919250600160a060020a03169083156108fc029084906000818181858888f19350505050158015610ec5573d6000803e3d6000fd5b506000838152600f6020526040808220600201549051600160a060020a039091169183156108fc02918491818181858888f19350505050158015610f0d573d6000803e3d6000fd5b50600d546040517f42842e0e000000000000000000000000000000000000000000000000000000008152600160a060020a0390911660048201523360248201526044810184905230906342842e0e90606401600060405180830381600087803b158015610f7957600080fd5b505af1158015610f8d573d6000803e3d6000fd5b50505050610f9a83611b98565b604080518481523360208201527fba09fc575b06563e24ebda6a85ecaffa381143e05692b04d0439c33cb68261c591015b60405180910390a1505050565b6000828152600b6020526040902054600160a060020a031633146110675760405160e560020a62461bcd02815260206004820152602260248201527f596f7520617265206e6f7420746865206f776e6572206f662074686520746f6b60448201527f656e000000000000000000000000000000000000000000000000000000000000606482015260840161084f565b600d5461107f903390600160a060020a031684610d09565b6040805160808101825283815260208082018481523383850181815260016060860181815260008a8152600f87528881208851815595518684015592516002909501805491511515740100000000000000000000000000000000000000000274ffffffffffffffffffffffffffffffffffffffffff19909216600160a060020a03909616959095171790935560108054938401815590527f1b6847dc741a1b0cd08d278845f9d819d87b734759afb55fe2de5cb82a9ae67290910186905583518681529182015290917ffd49647dd00e6b295aa9844cad9611d0f189dc9ef85fb3a2c3df136694cf15479101610fcb565b600081815260026020526040812054600160a060020a03168061074f5760405160e560020a62461bcd02815260206004820152602960248201527f4552433732313a206f776e657220717565727920666f72206e6f6e657869737460448201527f656e7420746f6b656e0000000000000000000000000000000000000000000000606482015260840161084f565b6000600160a060020a03821661127f5760405160e560020a62461bcd02815260206004820152602a60248201527f4552433732313a2062616c616e636520717565727920666f7220746865207a6560448201527f726f206164647265737300000000000000000000000000000000000000000000606482015260840161084f565b50600160a060020a031660009081526003602052604090205490565b600754600160a060020a031633146112c85760405160e560020a62461bcd02815260040161084f90612dc3565b6112d26000611cbb565b565b336000908152600960209081526040808320805482518185028101850190935280835260609492939192909184015b8282101561135857600084815260209081902060408051606081018252600386029092018054835260018082015484860152600290910154600160a060020a0316918301919091529083529092019101611303565b50505050905090565b6010818154811061137157600080fd5b600091825260209091200154905081565b60606001805461076490612f0b565b600160a060020a0382163314156113ed5760405160e560020a62461bcd02815260206004820152601960248201527f4552433732313a20617070726f766520746f2063616c6c657200000000000000604482015260640161084f565b336000818152600560209081526040808320600160a060020a03871680855290835292819020805460ff191686151590811790915590519081529192917f17307eab39ab6107e8899845ad3d59bd9653f200f220920489ca2b5937696c31910160405180910390a35050565b600082815260086020526040902060020154610100900460ff166114925760405160e560020a62461bcd02815260040161084f90612df8565b60008281526008602052604090206002015460ff161561151d5760405160e560020a62461bcd02815260206004820152602360248201527f506f6c69746963206f6e6c7920617661696c61626c652077697468206c6f747460448201527f6572790000000000000000000000000000000000000000000000000000000000606482015260840161084f565b6000828152600a60205260409020546115a15760405160e560020a62461bcd02815260206004820152602260248201527f5468657265206973206e6f206d6f726520706f6c6974696320617661696c616260448201527f6c65000000000000000000000000000000000000000000000000000000000000606482015260840161084f565b6000828152600860205260409020600101546103e8906115c990670de0b6b3a7640000612e92565b6115d39190612e7e565b34146115f45760405160e560020a62461bcd02815260040161084f90612e2f565b6000828152600a6020526040812080549161160e83612ef4565b9091555050600e5460408051602080820193909352336c0100000000000000000000000002818301528151603481830301815260549091019091528051910120600090611661906402540be40090612f64565b600e8054919250600061167383612f49565b9091555050600c54604051600160a060020a03909116903480156108fc02916000818181858888f193505050501580156116b1573d6000803e3d6000fd5b506116bc3382611d0d565b6116c68183611d27565b604080516060810182528281526020808201868152338385018181526000828152600985528681208054600180820183559183528683208851600390920201908155945190850155905160029093018054600160a060020a03909416600160a060020a0319948516179055868152600b845285902080549092168117909155835190815290810184905290917f0f1f73114dcf85af6f6506a86f3b42cdc8af0e4d37ca5130270465cd9c358223910160405180910390a150505050565b61178d3383611dc4565b6118025760405160e560020a62461bcd02815260206004820152603160248201527f4552433732313a207472616e736665722063616c6c6572206973206e6f74206f60448201527f776e6572206e6f7220617070726f766564000000000000000000000000000000606482015260840161084f565b61180e84848484611ebe565b50505050565b600754600160a060020a031633146118415760405160e560020a62461bcd02815260040161084f90612dc3565b600082815260086020526040902060020154610100900460ff1661187a5760405160e560020a62461bcd02815260040161084f90612df8565b6000918252600a602052604090912055565b606061189782611c30565b61190c5760405160e560020a62461bcd02815260206004820152603160248201527f45524337323155524953746f726167653a2055524920717565727920666f722060448201527f6e6f6e6578697374656e7420746f6b656e000000000000000000000000000000606482015260840161084f565b6000828152600660205260408120805461192590612f0b565b80601f016020809104026020016040519081016040528092919081815260200182805461195190612f0b565b801561199e5780601f106119735761010080835404028352916020019161199e565b820191906000526020600020905b81548152906001019060200180831161198157829003601f168201915b5050505050905060006119bc60408051602081019091526000815290565b90508051600014156119cf575092915050565b815115611a015780826040516020016119e9929190612c42565b60405160208183030381529060405292505050919050565b610cd484611ef4565b600754600090600160a060020a03163314611a3a5760405160e560020a62461bcd02815260040161084f90612dc3565b600082815260086020526040902060020154610100900460ff16611a735760405160e560020a62461bcd02815260040161084f90612df8565b506000818152600a60205260409020545b919050565b600754600160a060020a03163314611ab65760405160e560020a62461bcd02815260040161084f90612dc3565b600160a060020a038116611b355760405160e560020a62461bcd02815260206004820152602660248201527f4f776e61626c653a206e6577206f776e657220697320746865207a65726f206160448201527f6464726573730000000000000000000000000000000000000000000000000000606482015260840161084f565b611b3e81611cbb565b50565b606060108054806020026020016040519081016040528092919081815260200182805480156107dd57602002820191906000526020600020905b815481526020019060010190808311611b7b575050505050905090565b6000818152600f6020526040812081815560018101829055600201805474ffffffffffffffffffffffffffffffffffffffffff191690555b601054811015610991578160108281548110611bee57611bee612faa565b90600052602060002001541415611c1e5760108181548110611c1257611c12612faa565b60009182526020822001555b80611c2881612f49565b915050611bd0565b600090815260026020526040902054600160a060020a0316151590565b60008181526004602052604090208054600160a060020a031916600160a060020a0384169081179091558190611c8282611170565b600160a060020a03167f8c5be1e5ebec7d5bd14f71427d1e84f3dd0314c0f7b2291e5b200ac8c7c3b92560405160405180910390a45050565b60078054600160a060020a03838116600160a060020a0319831681179093556040519116919082907f8be0079c531659141344cd1fd0a4f28419497f9722a3daafe3b4186f6b6457e090600090a35050565b610991828260405180602001604052806000815250611fdd565b611d3082611c30565b611da55760405160e560020a62461bcd02815260206004820152602e60248201527f45524337323155524953746f726167653a2055524920736574206f66206e6f6e60448201527f6578697374656e7420746f6b656e000000000000000000000000000000000000606482015260840161084f565b60008281526006602090815260409091208251610b6492840190612829565b6000611dcf82611c30565b611e445760405160e560020a62461bcd02815260206004820152602c60248201527f4552433732313a206f70657261746f7220717565727920666f72206e6f6e657860448201527f697374656e7420746f6b656e0000000000000000000000000000000000000000606482015260840161084f565b6000611e4f83611170565b905080600160a060020a031684600160a060020a03161480611e8a575083600160a060020a0316611e7f84610995565b600160a060020a0316145b80610cd45750600160a060020a0380821660009081526005602090815260408083209388168352929052205460ff16610cd4565b611ec9848484612013565b611ed5848484846121f1565b61180e5760405160e560020a62461bcd02815260040161084f90612d66565b6060611eff82611c30565b611f745760405160e560020a62461bcd02815260206004820152602f60248201527f4552433732314d657461646174613a2055524920717565727920666f72206e6f60448201527f6e6578697374656e7420746f6b656e0000000000000000000000000000000000606482015260840161084f565b6000611f8b60408051602081019091526000815290565b90506000815111611fab5760405180602001604052806000815250611fd6565b80611fb584612330565b604051602001611fc6929190612c42565b6040516020818303038152906040525b9392505050565b611fe78383612481565b611ff460008484846121f1565b610b645760405160e560020a62461bcd02815260040161084f90612d66565b82600160a060020a031661202682611170565b600160a060020a0316146120a55760405160e560020a62461bcd02815260206004820152602960248201527f4552433732313a207472616e73666572206f6620746f6b656e2074686174206960448201527f73206e6f74206f776e0000000000000000000000000000000000000000000000606482015260840161084f565b600160a060020a0382166121235760405160e560020a62461bcd028152602060048201526024808201527f4552433732313a207472616e7366657220746f20746865207a65726f2061646460448201527f7265737300000000000000000000000000000000000000000000000000000000606482015260840161084f565b61212e8383836125c6565b612139600082611c4d565b600160a060020a0383166000908152600360205260408120805460019290612162908490612eb1565b9091555050600160a060020a0382166000908152600360205260408120805460019290612190908490612e66565b90915550506000818152600260205260408082208054600160a060020a031916600160a060020a0386811691821790925591518493918716917fddf252ad1be2c89b69c2b068fc378daa952ba7f163c4a11628f55a4df523b3ef91a4505050565b6000600160a060020a0384163b15612328576040517f150b7a02000000000000000000000000000000000000000000000000000000008152600160a060020a0385169063150b7a029061224e903390899088908890600401612c71565b602060405180830381600087803b15801561226857600080fd5b505af1925050508015612298575060408051601f3d908101601f1916820190925261229591810190612b24565b60015b6122f5573d8080156122c6576040519150601f19603f3d011682016040523d82523d6000602084013e6122cb565b606091505b5080516122ed5760405160e560020a62461bcd02815260040161084f90612d66565b805181602001fd5b600160e060020a0319167f150b7a0200000000000000000000000000000000000000000000000000000000149050610cd4565b506001610cd4565b60608161237057505060408051808201909152600181527f3000000000000000000000000000000000000000000000000000000000000000602082015290565b8160005b811561239a578061238481612f49565b91506123939050600a83612e7e565b9150612374565b60008167ffffffffffffffff8111156123b5576123b5612fc3565b6040519080825280601f01601f1916602001820160405280156123df576020820181803683370190505b5090505b8415610cd4576123f4600183612eb1565b9150612401600a86612f64565b61240c906030612e66565b7f01000000000000000000000000000000000000000000000000000000000000000281838151811061244057612440612faa565b60200101907effffffffffffffffffffffffffffffffffffffffffffffffffffffffffffff1916908160001a90535061247a600a86612e7e565b94506123e3565b600160a060020a0382166124da5760405160e560020a62461bcd02815260206004820181905260248201527f4552433732313a206d696e7420746f20746865207a65726f2061646472657373604482015260640161084f565b6124e381611c30565b156125335760405160e560020a62461bcd02815260206004820152601c60248201527f4552433732313a20746f6b656e20616c7265616479206d696e74656400000000604482015260640161084f565b61253f600083836125c6565b600160a060020a0382166000908152600360205260408120805460019290612568908490612e66565b90915550506000818152600260205260408082208054600160a060020a031916600160a060020a03861690811790915590518392907fddf252ad1be2c89b69c2b068fc378daa952ba7f163c4a11628f55a4df523b3ef908290a45050565b600160a060020a038316600090815260096020908152604080832080548251818502810185019093528083529192909190849084015b8282101561265157600084815260209081902060408051606081018252600386029092018054835260018082015484860152600290910154600160a060020a03169183019190915290835290920191016125fc565b505050600160a060020a038616600090815260096020526040812092935061267a9291506128ad565b60005b81518110156127f8578282828151811061269957612699612faa565b6020026020010151600001511461273757600160a060020a038516600090815260096020526040902082518390839081106126d6576126d6612faa565b6020908102919091018101518254600180820185556000948552938390208251600390920201908155918101519282019290925560409091015160029091018054600160a060020a031916600160a060020a039092169190911790556127e6565b8382828151811061274a5761274a612faa565b602090810291909101810151600160a060020a039283166040918201529186166000908152600990915220825183908390811061278957612789612faa565b6020908102919091018101518254600180820185556000948552938390208251600390920201908155918101519282019290925560409091015160029091018054600160a060020a031916600160a060020a039092169190911790555b806127f081612f49565b91505061267d565b50506000908152600b602052604090208054600160a060020a031916600160a060020a039290921691909117905550565b82805461283590612f0b565b90600052602060002090601f016020900481019282612857576000855561289d565b82601f1061287057805160ff191683800117855561289d565b8280016001018555821561289d579182015b8281111561289d578251825591602001919060010190612882565b506128a99291506128ce565b5090565b5080546000825560030290600052602060002090810190611b3e91906128e3565b5b808211156128a957600081556001016128cf565b5b808211156128a95760008082556001820155600281018054600160a060020a03191690556003016128e4565b600067ffffffffffffffff8084111561292b5761292b612fc3565b604051601f8501601f19908116603f0116810190828211818310171561295357612953612fc3565b8160405280935085815286868601111561296c57600080fd5b858560208301376000602087830101525050509392505050565b8035600160a060020a0381168114611a8457600080fd5b80358015158114611a8457600080fd5b6000602082840312156129bf57600080fd5b611fd682612986565b600080604083850312156129db57600080fd5b6129e483612986565b91506129f260208401612986565b90509250929050565b600080600060608486031215612a1057600080fd5b612a1984612986565b9250612a2760208501612986565b9150604084013590509250925092565b60008060008060808587031215612a4d57600080fd5b612a5685612986565b9350612a6460208601612986565b925060408501359150606085013567ffffffffffffffff811115612a8757600080fd5b8501601f81018713612a9857600080fd5b612aa787823560208401612910565b91505092959194509250565b60008060408385031215612ac657600080fd5b612acf83612986565b91506129f26020840161299d565b60008060408385031215612af057600080fd5b612af983612986565b946020939093013593505050565b600060208284031215612b1957600080fd5b8135611fd681612fdc565b600060208284031215612b3657600080fd5b8151611fd681612fdc565b600060208284031215612b5357600080fd5b5035919050565b60008060408385031215612b6d57600080fd5b82359150602083013567ffffffffffffffff811115612b8b57600080fd5b8301601f81018513612b9c57600080fd5b612bab85823560208401612910565b9150509250929050565b60008060408385031215612bc857600080fd5b50508035926020909101359150565b60008060008060808587031215612bed57600080fd5b843593506020850135925060408501359150612c0b6060860161299d565b905092959194509250565b60008151808452612c2e816020860160208601612ec8565b601f01601f19169290920160200192915050565b60008351612c54818460208801612ec8565b835190830190612c68818360208801612ec8565b01949350505050565b6000600160a060020a03808716835280861660208401525083604083015260806060830152612ca36080830184612c16565b9695505050505050565b602080825282518282018190526000919060409081850190868401855b82811015612d02578151805185528681015187860152850151600160a060020a03168585015260609093019290850190600101612cca565b5091979650505050505050565b6020808252825182820181905260009190848201906040850190845b81811015612d4757835183529284019291840191600101612d2b565b50909695505050505050565b602081526000611fd66020830184612c16565b60208082526032908201527f4552433732313a207472616e7366657220746f206e6f6e20455243373231526560408201527f63656976657220696d706c656d656e7465720000000000000000000000000000606082015260800190565b6020808252818101527f4f776e61626c653a2063616c6c6572206973206e6f7420746865206f776e6572604082015260600190565b60208082526011908201527f506f6c69746963206e6f7420666f756e64000000000000000000000000000000604082015260600190565b60208082526010908201527f496e636f727265637420616d6f756e7400000000000000000000000000000000604082015260600190565b60008219821115612e7957612e79612f78565b500190565b600082612e8d57612e8d612f91565b500490565b6000816000190483118215151615612eac57612eac612f78565b500290565b600082821015612ec357612ec3612f78565b500390565b60005b83811015612ee3578181015183820152602001612ecb565b8381111561180e5750506000910152565b600081612f0357612f03612f78565b506000190190565b600281046001821680612f1f57607f821691505b60208210811415612f435760e060020a634e487b7102600052602260045260246000fd5b50919050565b6000600019821415612f5d57612f5d612f78565b5060010190565b600082612f7357612f73612f91565b500690565b60e060020a634e487b7102600052601160045260246000fd5b60e060020a634e487b7102600052601260045260246000fd5b60e060020a634e487b7102600052603260045260246000fd5b60e060020a634e487b7102600052604160045260246000fd5b600160e060020a031981168114611b3e57600080fdfea2646970667358221220465a122e07be5982135b50915763bb3c207520a7ee328a8f31b95666dcfafa4b64736f6c63430008070033",
  "immutableReferences": {},
  "source": "// SPDX-License-Identifier: MIT\n\npragma solidity ^0.8.0;\nimport \"./CollectibleUtils.sol\";\n\n/**\n* @title Base function of sell ERC721\n* @author Youness Chetoui\n*/\ncontract Sell is CollectibleUtils {\n    struct PoliticOnSale {\n        uint256 tokenId;\n        uint256 price;\n        address payable owner;\n        bool created;\n    }\n\n    mapping(uint256 => PoliticOnSale) internal politicsOnSale;\n\n    uint256[] public arrayPoliticiansOnSale;\n    uint256 internal feeSale = 5;\n\n    event CreateSale(uint256 id, address owner);\n    event BuyOnSale(uint256 id, address buyer);\n\n    /**\n    * @notice Up for sale of owned politician\n    * @param _tokenId of politician owned and _price wished\n    */\n    function forSale(uint256 _tokenId, uint256 _price) public {\n        require(politicToUser[_tokenId] == msg.sender, \"You are not the owner of the token\");\n\n        ERC721.safeTransferFrom(msg.sender, contractAddress, _tokenId);\n\n        PoliticOnSale memory politicOnSale =\n            PoliticOnSale({tokenId: _tokenId, price: _price, owner: payable(msg.sender), created: true});\n\n        politicsOnSale[_tokenId] = politicOnSale;\n\n        arrayPoliticiansOnSale.push(_tokenId);\n\n        emit CreateSale(_tokenId, msg.sender);\n    }\n\n    function test() public view returns(uint256[] memory) {\n        return arrayPoliticiansOnSale;\n    }\n\n    function you(uint256 _id) public view returns(PoliticOnSale memory) {\n        return politicsOnSale[_id];\n    }\n\n    /**\n    * @notice Buy politician\n    * @param _tokenId of politician for sale\n    */\n    function buyPoliticsForSale(uint256 _tokenId) public payable {\n        require(politicsOnSale[_tokenId].created, \"Politician not for sale\");\n        require(msg.sender != politicsOnSale[_tokenId].owner, \"Your politician\");\n        require(msg.value == (politicsOnSale[_tokenId].price * 10**18) / 1000, \"Incorrect amount\");\n\n        // get 5% of fee\n        uint256 feeCost = msg.value * feeSale / 100;\n        uint256 amountOwner = msg.value - feeCost;\n        ownerAddress.transfer(feeCost);\n        politicsOnSale[_tokenId].owner.transfer(amountOwner);\n\n        // transfer collectible from contract to buyer\n        this.safeTransferFrom(contractAddress, msg.sender, _tokenId);\n\n        // Delete onSale\n        _updatePoliticianOnSale(_tokenId);\n\n        emit BuyOnSale(_tokenId, msg.sender);\n    }\n\n    /**\n    * @notice Cancel the sell of politician\n    * @param _tokenId of politician for sale\n    */\n    function cancelSell(uint256 _tokenId) public payable {\n        require(msg.sender == politicsOnSale[_tokenId].owner, \"Not your politician\");\n        uint256 feeCost = ((politicsOnSale[_tokenId].price * 10**18) / 1000) * feeSale /100;\n        require(msg.value == feeCost, \"Incorrect amount\");\n\n        ownerAddress.transfer(feeCost);\n        // transfer collectible from contract to buyer\n        this.safeTransferFrom(contractAddress, msg.sender, _tokenId);\n\n        // Delete onSale\n        _updatePoliticianOnSale(_tokenId);\n    }\n\n    /**\n    * @notice Update on sale politician\n    * @param _tokenId of politician\n    */\n    function _updatePoliticianOnSale(uint256 _tokenId) internal {\n        delete politicsOnSale[_tokenId];\n\n        for (uint i = 0; i < arrayPoliticiansOnSale.length; i++) {\n            if (arrayPoliticiansOnSale[i] == _tokenId) {\n                delete arrayPoliticiansOnSale[i];\n            }\n        }\n    }\n}\n",
  "sourcePath": "/home/youness/Crypto/PoliticsCollectible/contracts/Sell.sol",
  "compiler": {
    "name": "solc",
    "version": "0.8.7+commit.e28d00a7.Emscripten.clang"
  },
  "schemaVersion": "3.4.3",
  "updatedAt": "2021-09-03T12:29:22.029Z",
  "devdoc": {
    "author": "Youness Chetoui",
    "kind": "dev",
    "methods": {
      "addQty(uint256,uint256)": {
        "params": {
          "_id": "of PoliticsAvailable and _qty wished"
        }
      },
      "approve(address,uint256)": {
        "details": "See {IERC721-approve}."
      },
      "balanceOf(address)": {
        "details": "See {IERC721-balanceOf}."
      },
      "buy(uint256,string)": {
        "params": {
          "_id": ", _tokenUri of politician available"
        }
      },
      "buyPoliticsForSale(uint256)": {
        "params": {
          "_tokenId": "of politician for sale"
        }
      },
      "cancelSell(uint256)": {
        "params": {
          "_tokenId": "of politician for sale"
        }
      },
      "create(uint256,uint256,uint256,bool)": {
        "params": {
          "_id": ", _qty, _price and _lottery of politician available"
        }
      },
      "forSale(uint256,uint256)": {
        "params": {
          "_tokenId": "of politician owned and _price wished"
        }
      },
      "getApproved(uint256)": {
        "details": "See {IERC721-getApproved}."
      },
      "getMyPolitics()": {
        "returns": {
          "_0": "array of struct PoliticsOwned"
        }
      },
      "getPoliticQty(uint256)": {
        "params": {
          "_id": "PoliticsAvailable"
        },
        "returns": {
          "_0": "uint256"
        }
      },
      "isApprovedForAll(address,address)": {
        "details": "See {IERC721-isApprovedForAll}."
      },
      "name()": {
        "details": "See {IERC721Metadata-name}."
      },
      "onERC721Received(address,address,uint256,bytes)": {
        "details": "See {IERC721Receiver-onERC721Received}. Always returns `IERC721Receiver.onERC721Received.selector`."
      },
      "owner()": {
        "details": "Returns the address of the current owner."
      },
      "ownerOf(uint256)": {
        "details": "See {IERC721-ownerOf}."
      },
      "renounceOwnership()": {
        "details": "Leaves the contract without owner. It will not be possible to call `onlyOwner` functions anymore. Can only be called by the current owner. NOTE: Renouncing ownership will leave the contract without an owner, thereby removing any functionality that is only available to the owner."
      },
      "safeTransferFrom(address,address,uint256)": {
        "details": "See {IERC721-safeTransferFrom}."
      },
      "safeTransferFrom(address,address,uint256,bytes)": {
        "details": "See {IERC721-safeTransferFrom}."
      },
      "setApprovalForAll(address,bool)": {
        "details": "See {IERC721-setApprovalForAll}."
      },
      "supportsInterface(bytes4)": {
        "details": "See {IERC165-supportsInterface}."
      },
      "symbol()": {
        "details": "See {IERC721Metadata-symbol}."
      },
      "tokenURI(uint256)": {
        "details": "See {IERC721Metadata-tokenURI}."
      },
      "transferOwnership(address)": {
        "details": "Transfers ownership of the contract to a new account (`newOwner`). Can only be called by the current owner."
      }
    },
    "title": "Base function of sell ERC721",
    "version": 1
  },
  "userdoc": {
    "kind": "user",
    "methods": {
      "addQty(uint256,uint256)": {
        "notice": "Add quantity for a PoliticsAvailable"
      },
      "buy(uint256,string)": {
        "notice": "Buy politician"
      },
      "buyPoliticsForSale(uint256)": {
        "notice": "Buy politician"
      },
      "cancelSell(uint256)": {
        "notice": "Cancel the sell of politician"
      },
      "create(uint256,uint256,uint256,bool)": {
        "notice": "Create politician"
      },
      "forSale(uint256,uint256)": {
        "notice": "Up for sale of owned politician"
      },
      "getMyPolitics()": {
        "notice": "Get politician by user"
      },
      "getPoliticQty(uint256)": {
        "notice": "get qty of politician available"
      },
      "transferFrom(address,address,uint256)": {
        "notice": "Disabled not safe transform"
      }
    },
    "version": 1
  }
}