{
  "contractName": "Sell",
  "abi": [
    {
      "anonymous": false,
      "inputs": [
        {
          "indexed": true,
          "internalType": "address",
          "name": "owner",
          "type": "address"
        },
        {
          "indexed": true,
          "internalType": "address",
          "name": "approved",
          "type": "address"
        },
        {
          "indexed": true,
          "internalType": "uint256",
          "name": "tokenId",
          "type": "uint256"
        }
      ],
      "name": "Approval",
      "type": "event"
    },
    {
      "anonymous": false,
      "inputs": [
        {
          "indexed": true,
          "internalType": "address",
          "name": "owner",
          "type": "address"
        },
        {
          "indexed": true,
          "internalType": "address",
          "name": "operator",
          "type": "address"
        },
        {
          "indexed": false,
          "internalType": "bool",
          "name": "approved",
          "type": "bool"
        }
      ],
      "name": "ApprovalForAll",
      "type": "event"
    },
    {
      "anonymous": false,
      "inputs": [
        {
          "indexed": true,
          "internalType": "address",
          "name": "previousOwner",
          "type": "address"
        },
        {
          "indexed": true,
          "internalType": "address",
          "name": "newOwner",
          "type": "address"
        }
      ],
      "name": "OwnershipTransferred",
      "type": "event"
    },
    {
      "anonymous": false,
      "inputs": [
        {
          "indexed": true,
          "internalType": "address",
          "name": "from",
          "type": "address"
        },
        {
          "indexed": true,
          "internalType": "address",
          "name": "to",
          "type": "address"
        },
        {
          "indexed": true,
          "internalType": "uint256",
          "name": "tokenId",
          "type": "uint256"
        }
      ],
      "name": "Transfer",
      "type": "event"
    },
    {
      "inputs": [
        {
          "internalType": "uint256",
          "name": "_id",
          "type": "uint256"
        },
        {
          "internalType": "uint256",
          "name": "_qty",
          "type": "uint256"
        }
      ],
      "name": "addQty",
      "outputs": [],
      "stateMutability": "nonpayable",
      "type": "function"
    },
    {
      "inputs": [
        {
          "internalType": "address",
          "name": "to",
          "type": "address"
        },
        {
          "internalType": "uint256",
          "name": "tokenId",
          "type": "uint256"
        }
      ],
      "name": "approve",
      "outputs": [],
      "stateMutability": "nonpayable",
      "type": "function"
    },
    {
      "inputs": [
        {
          "internalType": "address",
          "name": "owner",
          "type": "address"
        }
      ],
      "name": "balanceOf",
      "outputs": [
        {
          "internalType": "uint256",
          "name": "",
          "type": "uint256"
        }
      ],
      "stateMutability": "view",
      "type": "function"
    },
    {
      "inputs": [
        {
          "internalType": "uint256",
          "name": "_id",
          "type": "uint256"
        }
      ],
      "name": "buy",
      "outputs": [],
      "stateMutability": "payable",
      "type": "function"
    },
    {
      "inputs": [],
      "name": "contractAddress",
      "outputs": [
        {
          "internalType": "address payable",
          "name": "",
          "type": "address"
        }
      ],
      "stateMutability": "view",
      "type": "function"
    },
    {
      "inputs": [
        {
          "internalType": "string",
          "name": "_name",
          "type": "string"
        },
        {
          "internalType": "uint256",
          "name": "_id",
          "type": "uint256"
        },
        {
          "internalType": "uint256",
          "name": "_qty",
          "type": "uint256"
        },
        {
          "internalType": "uint256",
          "name": "_level",
          "type": "uint256"
        },
        {
          "internalType": "uint256",
          "name": "_price",
          "type": "uint256"
        },
        {
          "internalType": "bool",
          "name": "_lottery",
          "type": "bool"
        }
      ],
      "name": "create",
      "outputs": [
        {
          "components": [
            {
              "internalType": "uint256",
              "name": "id",
              "type": "uint256"
            },
            {
              "internalType": "uint256",
              "name": "qty",
              "type": "uint256"
            },
            {
              "internalType": "uint256",
              "name": "level",
              "type": "uint256"
            },
            {
              "internalType": "uint256",
              "name": "price",
              "type": "uint256"
            },
            {
              "internalType": "string",
              "name": "name",
              "type": "string"
            },
            {
              "internalType": "bool",
              "name": "lottery",
              "type": "bool"
            },
            {
              "internalType": "bool",
              "name": "created",
              "type": "bool"
            }
          ],
          "internalType": "struct Collectible.PoliticsAvailable",
          "name": "",
          "type": "tuple"
        }
      ],
      "stateMutability": "nonpayable",
      "type": "function"
    },
    {
      "inputs": [
        {
          "internalType": "uint256",
          "name": "tokenId",
          "type": "uint256"
        }
      ],
      "name": "getApproved",
      "outputs": [
        {
          "internalType": "address",
          "name": "",
          "type": "address"
        }
      ],
      "stateMutability": "view",
      "type": "function"
    },
    {
      "inputs": [],
      "name": "getMyPolitics",
      "outputs": [
        {
          "components": [
            {
              "internalType": "uint256",
              "name": "id",
              "type": "uint256"
            },
            {
              "internalType": "uint256",
              "name": "id_politic",
              "type": "uint256"
            },
            {
              "internalType": "address",
              "name": "owner",
              "type": "address"
            }
          ],
          "internalType": "struct Collectible.PoliticsOwned[]",
          "name": "",
          "type": "tuple[]"
        }
      ],
      "stateMutability": "view",
      "type": "function"
    },
    {
      "inputs": [
        {
          "internalType": "uint256",
          "name": "_id",
          "type": "uint256"
        }
      ],
      "name": "getPolitic",
      "outputs": [
        {
          "components": [
            {
              "internalType": "uint256",
              "name": "id",
              "type": "uint256"
            },
            {
              "internalType": "uint256",
              "name": "qty",
              "type": "uint256"
            },
            {
              "internalType": "uint256",
              "name": "level",
              "type": "uint256"
            },
            {
              "internalType": "uint256",
              "name": "price",
              "type": "uint256"
            },
            {
              "internalType": "string",
              "name": "name",
              "type": "string"
            },
            {
              "internalType": "bool",
              "name": "lottery",
              "type": "bool"
            },
            {
              "internalType": "bool",
              "name": "created",
              "type": "bool"
            }
          ],
          "internalType": "struct Collectible.PoliticsAvailable",
          "name": "",
          "type": "tuple"
        }
      ],
      "stateMutability": "view",
      "type": "function"
    },
    {
      "inputs": [],
      "name": "getPolitics",
      "outputs": [
        {
          "components": [
            {
              "internalType": "uint256",
              "name": "id",
              "type": "uint256"
            },
            {
              "internalType": "uint256",
              "name": "qty",
              "type": "uint256"
            },
            {
              "internalType": "uint256",
              "name": "level",
              "type": "uint256"
            },
            {
              "internalType": "uint256",
              "name": "price",
              "type": "uint256"
            },
            {
              "internalType": "string",
              "name": "name",
              "type": "string"
            },
            {
              "internalType": "bool",
              "name": "lottery",
              "type": "bool"
            },
            {
              "internalType": "bool",
              "name": "created",
              "type": "bool"
            }
          ],
          "internalType": "struct Collectible.PoliticsAvailable[]",
          "name": "",
          "type": "tuple[]"
        }
      ],
      "stateMutability": "view",
      "type": "function"
    },
    {
      "inputs": [
        {
          "internalType": "address",
          "name": "owner",
          "type": "address"
        },
        {
          "internalType": "address",
          "name": "operator",
          "type": "address"
        }
      ],
      "name": "isApprovedForAll",
      "outputs": [
        {
          "internalType": "bool",
          "name": "",
          "type": "bool"
        }
      ],
      "stateMutability": "view",
      "type": "function"
    },
    {
      "inputs": [],
      "name": "name",
      "outputs": [
        {
          "internalType": "string",
          "name": "",
          "type": "string"
        }
      ],
      "stateMutability": "view",
      "type": "function"
    },
    {
      "inputs": [],
      "name": "owner",
      "outputs": [
        {
          "internalType": "address",
          "name": "",
          "type": "address"
        }
      ],
      "stateMutability": "view",
      "type": "function"
    },
    {
      "inputs": [],
      "name": "ownerAddress",
      "outputs": [
        {
          "internalType": "address payable",
          "name": "",
          "type": "address"
        }
      ],
      "stateMutability": "view",
      "type": "function"
    },
    {
      "inputs": [
        {
          "internalType": "uint256",
          "name": "tokenId",
          "type": "uint256"
        }
      ],
      "name": "ownerOf",
      "outputs": [
        {
          "internalType": "address",
          "name": "",
          "type": "address"
        }
      ],
      "stateMutability": "view",
      "type": "function"
    },
    {
      "inputs": [],
      "name": "renounceOwnership",
      "outputs": [],
      "stateMutability": "nonpayable",
      "type": "function"
    },
    {
      "inputs": [
        {
          "internalType": "address",
          "name": "from",
          "type": "address"
        },
        {
          "internalType": "address",
          "name": "to",
          "type": "address"
        },
        {
          "internalType": "uint256",
          "name": "tokenId",
          "type": "uint256"
        }
      ],
      "name": "safeTransferFrom",
      "outputs": [],
      "stateMutability": "nonpayable",
      "type": "function"
    },
    {
      "inputs": [
        {
          "internalType": "address",
          "name": "from",
          "type": "address"
        },
        {
          "internalType": "address",
          "name": "to",
          "type": "address"
        },
        {
          "internalType": "uint256",
          "name": "tokenId",
          "type": "uint256"
        },
        {
          "internalType": "bytes",
          "name": "_data",
          "type": "bytes"
        }
      ],
      "name": "safeTransferFrom",
      "outputs": [],
      "stateMutability": "nonpayable",
      "type": "function"
    },
    {
      "inputs": [
        {
          "internalType": "address",
          "name": "operator",
          "type": "address"
        },
        {
          "internalType": "bool",
          "name": "approved",
          "type": "bool"
        }
      ],
      "name": "setApprovalForAll",
      "outputs": [],
      "stateMutability": "nonpayable",
      "type": "function"
    },
    {
      "inputs": [
        {
          "internalType": "bytes4",
          "name": "interfaceId",
          "type": "bytes4"
        }
      ],
      "name": "supportsInterface",
      "outputs": [
        {
          "internalType": "bool",
          "name": "",
          "type": "bool"
        }
      ],
      "stateMutability": "view",
      "type": "function"
    },
    {
      "inputs": [],
      "name": "symbol",
      "outputs": [
        {
          "internalType": "string",
          "name": "",
          "type": "string"
        }
      ],
      "stateMutability": "view",
      "type": "function"
    },
    {
      "inputs": [
        {
          "internalType": "uint256",
          "name": "tokenId",
          "type": "uint256"
        }
      ],
      "name": "tokenURI",
      "outputs": [
        {
          "internalType": "string",
          "name": "",
          "type": "string"
        }
      ],
      "stateMutability": "view",
      "type": "function"
    },
    {
      "inputs": [
        {
          "internalType": "address",
          "name": "from",
          "type": "address"
        },
        {
          "internalType": "address",
          "name": "to",
          "type": "address"
        },
        {
          "internalType": "uint256",
          "name": "tokenId",
          "type": "uint256"
        }
      ],
      "name": "transferFrom",
      "outputs": [],
      "stateMutability": "nonpayable",
      "type": "function"
    },
    {
      "inputs": [
        {
          "internalType": "address",
          "name": "newOwner",
          "type": "address"
        }
      ],
      "name": "transferOwnership",
      "outputs": [],
      "stateMutability": "nonpayable",
      "type": "function"
    },
    {
      "inputs": [
        {
          "internalType": "uint256",
          "name": "_tokenId",
          "type": "uint256"
        },
        {
          "internalType": "uint256",
          "name": "_price",
          "type": "uint256"
        }
      ],
      "name": "forSale",
      "outputs": [],
      "stateMutability": "nonpayable",
      "type": "function"
    },
    {
      "inputs": [
        {
          "internalType": "uint256",
          "name": "_tokenId",
          "type": "uint256"
        }
      ],
      "name": "buyPoliticsForSale",
      "outputs": [],
      "stateMutability": "payable",
      "type": "function"
    },
    {
      "inputs": [
        {
          "internalType": "uint256",
          "name": "_tokenId",
          "type": "uint256"
        }
      ],
      "name": "cancelSell",
      "outputs": [],
      "stateMutability": "nonpayable",
      "type": "function"
    }
  ],
  "bytecode": "0x60806040526001600d556005600f553480156200001b57600080fd5b506040518060400160405280600b81526020017f506f6c69746963734e66740000000000000000000000000000000000000000008152506040518060400160405280600381526020017f504f4c00000000000000000000000000000000000000000000000000000000008152508160009080519060200190620000a092919062000232565b508060019080519060200190620000b992919062000232565b505050620000dc620000d06200016460201b60201c565b6200016c60201b60201c565b33600b60006101000a81548173ffffffffffffffffffffffffffffffffffffffff021916908373ffffffffffffffffffffffffffffffffffffffff16021790555030600c60006101000a81548173ffffffffffffffffffffffffffffffffffffffff021916908373ffffffffffffffffffffffffffffffffffffffff16021790555062000347565b600033905090565b6000600660009054906101000a900473ffffffffffffffffffffffffffffffffffffffff16905081600660006101000a81548173ffffffffffffffffffffffffffffffffffffffff021916908373ffffffffffffffffffffffffffffffffffffffff1602179055508173ffffffffffffffffffffffffffffffffffffffff168173ffffffffffffffffffffffffffffffffffffffff167f8be0079c531659141344cd1fd0a4f28419497f9722a3daafe3b4186f6b6457e060405160405180910390a35050565b8280546200024090620002e2565b90600052602060002090601f016020900481019282620002645760008555620002b0565b82601f106200027f57805160ff1916838001178555620002b0565b82800160010185558215620002b0579182015b82811115620002af57825182559160200191906001019062000292565b5b509050620002bf9190620002c3565b5090565b5b80821115620002de576000816000905550600101620002c4565b5090565b60006002820490506001821680620002fb57607f821691505b6020821081141562000312576200031162000318565b5b50919050565b7f4e487b7100000000000000000000000000000000000000000000000000000000600052602260045260246000fd5b6163af80620003576000396000f3fe60806040526004361061019c5760003560e01c806370a08231116100ec578063b88d4fde1161008a578063d96a094a11610064578063d96a094a146105c9578063e985e9c5146105e5578063f2fde38b14610622578063f6b4dfb41461064b5761019c565b8063b88d4fde1461053a578063b9db1c9814610563578063c87b56dd1461058c5761019c565b80638da5cb5b116100c65780638da5cb5b146104905780638f84aa09146104bb57806395d89b41146104e6578063a22cb465146105115761019c565b806370a0823114610411578063715018a61461044e57806385d33436146104655761019c565b806323b872dd11610159578063546f9e6711610133578063546f9e671461035257806354b3efa61461036e5780635ad16b7f146103975780636352211e146103d45761019c565b806323b872dd146102d557806330f105cd146102fe57806342842e0e146103295761019c565b806301ffc9a7146101a157806306fdde03146101de57806307c9cd4514610209578063081812fc14610232578063095ea7b31461026f5780631114327714610298575b600080fd5b3480156101ad57600080fd5b506101c860048036038101906101c39190614973565b610676565b6040516101d59190615396565b60405180910390f35b3480156101ea57600080fd5b506101f3610758565b60405161020091906153b1565b60405180910390f35b34801561021557600080fd5b50610230600480360381019061022b9190614a76565b6107ea565b005b34801561023e57600080fd5b5061025960048036038101906102549190614a76565b610dc5565b6040516102669190615299565b60405180910390f35b34801561027b57600080fd5b5061029660048036038101906102919190614933565b610e4a565b005b3480156102a457600080fd5b506102bf60048036038101906102ba91906149cd565b610f62565b6040516102cc91906156f3565b60405180910390f35b3480156102e157600080fd5b506102fc60048036038101906102f7919061481d565b6111e3565b005b34801561030a57600080fd5b50610313611264565b6040516103209190615352565b60405180910390f35b34801561033557600080fd5b50610350600480360381019061034b919061481d565b61142f565b005b61036c60048036038101906103679190614a76565b61144f565b005b34801561037a57600080fd5b5061039560048036038101906103909190614aa3565b611c1c565b005b3480156103a357600080fd5b506103be60048036038101906103b99190614a76565b612263565b6040516103cb91906156f3565b60405180910390f35b3480156103e057600080fd5b506103fb60048036038101906103f69190614a76565b61245f565b6040516104089190615299565b60405180910390f35b34801561041d57600080fd5b50610438600480360381019061043391906147b0565b612511565b6040516104459190615715565b60405180910390f35b34801561045a57600080fd5b506104636125c9565b005b34801561047157600080fd5b5061047a612651565b6040516104879190615374565b60405180910390f35b34801561049c57600080fd5b506104a5612757565b6040516104b29190615299565b60405180910390f35b3480156104c757600080fd5b506104d0612781565b6040516104dd91906152b4565b60405180910390f35b3480156104f257600080fd5b506104fb6127a7565b60405161050891906153b1565b60405180910390f35b34801561051d57600080fd5b50610538600480360381019061053391906148f3565b612839565b005b34801561054657600080fd5b50610561600480360381019061055c9190614870565b6129ba565b005b34801561056f57600080fd5b5061058a60048036038101906105859190614aa3565b612e1a565b005b34801561059857600080fd5b506105b360048036038101906105ae9190614a76565b613020565b6040516105c091906153b1565b60405180910390f35b6105e360048036038101906105de9190614a76565b6130c7565b005b3480156105f157600080fd5b5061060c600480360381019061060791906147dd565b613711565b6040516106199190615396565b60405180910390f35b34801561062e57600080fd5b50610649600480360381019061064491906147b0565b6137a5565b005b34801561065757600080fd5b5061066061389d565b60405161066d91906152b4565b60405180910390f35b60007f80ac58cd000000000000000000000000000000000000000000000000000000007bffffffffffffffffffffffffffffffffffffffffffffffffffffffff1916827bffffffffffffffffffffffffffffffffffffffffffffffffffffffff1916148061074157507f5b5e139f000000000000000000000000000000000000000000000000000000007bffffffffffffffffffffffffffffffffffffffffffffffffffffffff1916827bffffffffffffffffffffffffffffffffffffffffffffffffffffffff1916145b806107515750610750826138c3565b5b9050919050565b60606000805461076790615aba565b80601f016020809104026020016040519081016040528092919081815260200182805461079390615aba565b80156107e05780601f106107b5576101008083540402835291602001916107e0565b820191906000526020600020905b8154815290600101906020018083116107c357829003601f168201915b5050505050905090565b600e600082815260200190815260200160002060020160009054906101000a900473ffffffffffffffffffffffffffffffffffffffff1673ffffffffffffffffffffffffffffffffffffffff163373ffffffffffffffffffffffffffffffffffffffff161461088e576040517f08c379a0000000000000000000000000000000000000000000000000000000008152600401610885906156b3565b60405180910390fd5b3073ffffffffffffffffffffffffffffffffffffffff166342842e0e600c60009054906101000a900473ffffffffffffffffffffffffffffffffffffffff1633846040518463ffffffff1660e01b81526004016108ed939291906152cf565b600060405180830381600087803b15801561090757600080fd5b505af115801561091b573d6000803e3d6000fd5b50505050600e600082815260200190815260200160002060008082016000905560018201600090556002820160006101000a81549073ffffffffffffffffffffffffffffffffffffffff02191690556002820160146101000a81549060ff02191690555050600060096000600c60009054906101000a900473ffffffffffffffffffffffffffffffffffffffff1673ffffffffffffffffffffffffffffffffffffffff1673ffffffffffffffffffffffffffffffffffffffff168152602001908152602001600020805480602002602001604051908101604052809291908181526020016000905b82821015610a9f578382906000526020600020906003020160405180606001604052908160008201548152602001600182015481526020016002820160009054906101000a900473ffffffffffffffffffffffffffffffffffffffff1673ffffffffffffffffffffffffffffffffffffffff1673ffffffffffffffffffffffffffffffffffffffff168152505081526020019060010190610a03565b50505050905060096000600c60009054906101000a900473ffffffffffffffffffffffffffffffffffffffff1673ffffffffffffffffffffffffffffffffffffffff1673ffffffffffffffffffffffffffffffffffffffff1681526020019081526020016000206000610b129190614484565b60005b8151811015610d6e5782828281518110610b3257610b31615c52565b5b60200260200101516000015114610c2857600960003373ffffffffffffffffffffffffffffffffffffffff1673ffffffffffffffffffffffffffffffffffffffff168152602001908152602001600020828281518110610b9557610b94615c52565b5b60200260200101519080600181540180825580915050600190039060005260206000209060030201600090919091909150600082015181600001556020820151816001015560408201518160020160006101000a81548173ffffffffffffffffffffffffffffffffffffffff021916908373ffffffffffffffffffffffffffffffffffffffff1602179055505050610d5b565b33828281518110610c3c57610c3b615c52565b5b60200260200101516040019073ffffffffffffffffffffffffffffffffffffffff16908173ffffffffffffffffffffffffffffffffffffffff1681525050600960003373ffffffffffffffffffffffffffffffffffffffff1673ffffffffffffffffffffffffffffffffffffffff168152602001908152602001600020828281518110610ccc57610ccb615c52565b5b60200260200101519080600181540180825580915050600190039060005260206000209060030201600090919091909150600082015181600001556020820151816001015560408201518160020160006101000a81548173ffffffffffffffffffffffffffffffffffffffff021916908373ffffffffffffffffffffffffffffffffffffffff16021790555050505b8080610d6690615b1d565b915050610b15565b5033600a600084815260200190815260200160002060006101000a81548173ffffffffffffffffffffffffffffffffffffffff021916908373ffffffffffffffffffffffffffffffffffffffff1602179055505050565b6000610dd08261392d565b610e0f576040517f08c379a0000000000000000000000000000000000000000000000000000000008152600401610e0690615553565b60405180910390fd5b6004600083815260200190815260200160002060009054906101000a900473ffffffffffffffffffffffffffffffffffffffff169050919050565b6000610e558261245f565b90508073ffffffffffffffffffffffffffffffffffffffff168373ffffffffffffffffffffffffffffffffffffffff161415610ec6576040517f08c379a0000000000000000000000000000000000000000000000000000000008152600401610ebd906155f3565b60405180910390fd5b8073ffffffffffffffffffffffffffffffffffffffff16610ee5613999565b73ffffffffffffffffffffffffffffffffffffffff161480610f145750610f1381610f0e613999565b613711565b5b610f53576040517f08c379a0000000000000000000000000000000000000000000000000000000008152600401610f4a906154d3565b60405180910390fd5b610f5d83836139a1565b505050565b610f6a6144a8565b610f72613999565b73ffffffffffffffffffffffffffffffffffffffff16610f90612757565b73ffffffffffffffffffffffffffffffffffffffff1614610fe6576040517f08c379a0000000000000000000000000000000000000000000000000000000008152600401610fdd90615573565b60405180910390fd5b6008600087815260200190815260200160002060050160019054906101000a900460ff161561104a576040517f08c379a000000000000000000000000000000000000000000000000000000000815260040161104190615673565b60405180910390fd5b60006040518060e00160405280888152602001878152602001868152602001858152602001898152602001841515815260200160011515815250905060078190806001815401808255809150506001900390600052602060002090600602016000909190919091506000820151816000015560208201518160010155604082015181600201556060820151816003015560808201518160040190805190602001906110f69291906144e9565b5060a08201518160050160006101000a81548160ff02191690831515021790555060c08201518160050160016101000a81548160ff021916908315150217905550505080600860008981526020019081526020016000206000820151816000015560208201518160010155604082015181600201556060820151816003015560808201518160040190805190602001906111919291906144e9565b5060a08201518160050160006101000a81548160ff02191690831515021790555060c08201518160050160016101000a81548160ff021916908315150217905550905050809150509695505050505050565b6111eb613999565b73ffffffffffffffffffffffffffffffffffffffff16611209612757565b73ffffffffffffffffffffffffffffffffffffffff161461125f576040517f08c379a000000000000000000000000000000000000000000000000000000000815260040161125690615573565b60405180910390fd5b505050565b606061126e613999565b73ffffffffffffffffffffffffffffffffffffffff1661128c612757565b73ffffffffffffffffffffffffffffffffffffffff16146112e2576040517f08c379a00000000000000000000000000000000000000000000000000000000081526004016112d990615573565b60405180910390fd5b6007805480602002602001604051908101604052809291908181526020016000905b8282101561142657838290600052602060002090600602016040518060e00160405290816000820154815260200160018201548152602001600282015481526020016003820154815260200160048201805461135f90615aba565b80601f016020809104026020016040519081016040528092919081815260200182805461138b90615aba565b80156113d85780601f106113ad576101008083540402835291602001916113d8565b820191906000526020600020905b8154815290600101906020018083116113bb57829003601f168201915b505050505081526020016005820160009054906101000a900460ff161515151581526020016005820160019054906101000a900460ff16151515158152505081526020019060010190611304565b50505050905090565b61144a838383604051806020016040528060008152506129ba565b505050565b600e600082815260200190815260200160002060020160149054906101000a900460ff166114b2576040517f08c379a00000000000000000000000000000000000000000000000000000000081526004016114a9906155d3565b60405180910390fd5b600e600082815260200190815260200160002060020160009054906101000a900473ffffffffffffffffffffffffffffffffffffffff1673ffffffffffffffffffffffffffffffffffffffff163373ffffffffffffffffffffffffffffffffffffffff161415611557576040517f08c379a000000000000000000000000000000000000000000000000000000000815260040161154e90615633565b60405180910390fd5b6103e8670de0b6b3a7640000600e6000848152602001908152602001600020600101546115849190615904565b61158e91906158d3565b34146115cf576040517f08c379a00000000000000000000000000000000000000000000000000000000081526004016115c6906156d3565b60405180910390fd5b60006064600f54346115e19190615904565b6115eb91906158d3565b9050600081346115fb919061595e565b9050600b60009054906101000a900473ffffffffffffffffffffffffffffffffffffffff1673ffffffffffffffffffffffffffffffffffffffff166108fc839081150290604051600060405180830381858888f19350505050158015611665573d6000803e3d6000fd5b50600e600084815260200190815260200160002060020160009054906101000a900473ffffffffffffffffffffffffffffffffffffffff1673ffffffffffffffffffffffffffffffffffffffff166108fc829081150290604051600060405180830381858888f193505050501580156116e2573d6000803e3d6000fd5b503073ffffffffffffffffffffffffffffffffffffffff166342842e0e600c60009054906101000a900473ffffffffffffffffffffffffffffffffffffffff1633866040518463ffffffff1660e01b8152600401611742939291906152cf565b600060405180830381600087803b15801561175c57600080fd5b505af1158015611770573d6000803e3d6000fd5b50505050600e600084815260200190815260200160002060008082016000905560018201600090556002820160006101000a81549073ffffffffffffffffffffffffffffffffffffffff02191690556002820160146101000a81549060ff02191690555050600060096000600c60009054906101000a900473ffffffffffffffffffffffffffffffffffffffff1673ffffffffffffffffffffffffffffffffffffffff1673ffffffffffffffffffffffffffffffffffffffff168152602001908152602001600020805480602002602001604051908101604052809291908181526020016000905b828210156118f4578382906000526020600020906003020160405180606001604052908160008201548152602001600182015481526020016002820160009054906101000a900473ffffffffffffffffffffffffffffffffffffffff1673ffffffffffffffffffffffffffffffffffffffff1673ffffffffffffffffffffffffffffffffffffffff168152505081526020019060010190611858565b50505050905060096000600c60009054906101000a900473ffffffffffffffffffffffffffffffffffffffff1673ffffffffffffffffffffffffffffffffffffffff1673ffffffffffffffffffffffffffffffffffffffff16815260200190815260200160002060006119679190614484565b60005b8151811015611bc3578482828151811061198757611986615c52565b5b60200260200101516000015114611a7d57600960003373ffffffffffffffffffffffffffffffffffffffff1673ffffffffffffffffffffffffffffffffffffffff1681526020019081526020016000208282815181106119ea576119e9615c52565b5b60200260200101519080600181540180825580915050600190039060005260206000209060030201600090919091909150600082015181600001556020820151816001015560408201518160020160006101000a81548173ffffffffffffffffffffffffffffffffffffffff021916908373ffffffffffffffffffffffffffffffffffffffff1602179055505050611bb0565b33828281518110611a9157611a90615c52565b5b60200260200101516040019073ffffffffffffffffffffffffffffffffffffffff16908173ffffffffffffffffffffffffffffffffffffffff1681525050600960003373ffffffffffffffffffffffffffffffffffffffff1673ffffffffffffffffffffffffffffffffffffffff168152602001908152602001600020828281518110611b2157611b20615c52565b5b60200260200101519080600181540180825580915050600190039060005260206000209060030201600090919091909150600082015181600001556020820151816001015560408201518160020160006101000a81548173ffffffffffffffffffffffffffffffffffffffff021916908373ffffffffffffffffffffffffffffffffffffffff16021790555050505b8080611bbb90615b1d565b91505061196a565b5033600a600086815260200190815260200160002060006101000a81548173ffffffffffffffffffffffffffffffffffffffff021916908373ffffffffffffffffffffffffffffffffffffffff16021790555050505050565b3373ffffffffffffffffffffffffffffffffffffffff16600a600084815260200190815260200160002060009054906101000a900473ffffffffffffffffffffffffffffffffffffffff1673ffffffffffffffffffffffffffffffffffffffff1614611cbd576040517f08c379a0000000000000000000000000000000000000000000000000000000008152600401611cb490615613565b60405180910390fd5b611cea33600c60009054906101000a900473ffffffffffffffffffffffffffffffffffffffff1684613a5a565b600060405180608001604052808481526020018381526020013373ffffffffffffffffffffffffffffffffffffffff16815260200160011515815250905080600e6000858152602001908152602001600020600082015181600001556020820151816001015560408201518160020160006101000a81548173ffffffffffffffffffffffffffffffffffffffff021916908373ffffffffffffffffffffffffffffffffffffffff16021790555060608201518160020160146101000a81548160ff0219169083151502179055509050506000600960003373ffffffffffffffffffffffffffffffffffffffff1673ffffffffffffffffffffffffffffffffffffffff168152602001908152602001600020805480602002602001604051908101604052809291908181526020016000905b82821015611eb7578382906000526020600020906003020160405180606001604052908160008201548152602001600182015481526020016002820160009054906101000a900473ffffffffffffffffffffffffffffffffffffffff1673ffffffffffffffffffffffffffffffffffffffff1673ffffffffffffffffffffffffffffffffffffffff168152505081526020019060010190611e1b565b505050509050600960003373ffffffffffffffffffffffffffffffffffffffff1673ffffffffffffffffffffffffffffffffffffffff1681526020019081526020016000206000611f089190614484565b60005b81518110156121a85784828281518110611f2857611f27615c52565b5b6020026020010151600001511461201e57600960003373ffffffffffffffffffffffffffffffffffffffff1673ffffffffffffffffffffffffffffffffffffffff168152602001908152602001600020828281518110611f8b57611f8a615c52565b5b60200260200101519080600181540180825580915050600190039060005260206000209060030201600090919091909150600082015181600001556020820151816001015560408201518160020160006101000a81548173ffffffffffffffffffffffffffffffffffffffff021916908373ffffffffffffffffffffffffffffffffffffffff1602179055505050612195565b600c60009054906101000a900473ffffffffffffffffffffffffffffffffffffffff1682828151811061205457612053615c52565b5b60200260200101516040019073ffffffffffffffffffffffffffffffffffffffff16908173ffffffffffffffffffffffffffffffffffffffff168152505060096000600c60009054906101000a900473ffffffffffffffffffffffffffffffffffffffff1673ffffffffffffffffffffffffffffffffffffffff1673ffffffffffffffffffffffffffffffffffffffff16815260200190815260200160002082828151811061210657612105615c52565b5b60200260200101519080600181540180825580915050600190039060005260206000209060030201600090919091909150600082015181600001556020820151816001015560408201518160020160006101000a81548173ffffffffffffffffffffffffffffffffffffffff021916908373ffffffffffffffffffffffffffffffffffffffff16021790555050505b80806121a090615b1d565b915050611f0b565b5060096000600a600087815260200190815260200160002060009054906101000a900473ffffffffffffffffffffffffffffffffffffffff1673ffffffffffffffffffffffffffffffffffffffff1673ffffffffffffffffffffffffffffffffffffffff16815260200190815260200160002060006122279190614484565b600a600085815260200190815260200160002060006101000a81549073ffffffffffffffffffffffffffffffffffffffff021916905550505050565b61226b6144a8565b612273613999565b73ffffffffffffffffffffffffffffffffffffffff16612291612757565b73ffffffffffffffffffffffffffffffffffffffff16146122e7576040517f08c379a00000000000000000000000000000000000000000000000000000000081526004016122de90615573565b60405180910390fd5b6008600083815260200190815260200160002060050160019054906101000a900460ff1661234a576040517f08c379a000000000000000000000000000000000000000000000000000000000815260040161234190615693565b60405180910390fd5b600860008381526020019081526020016000206040518060e0016040529081600082015481526020016001820154815260200160028201548152602001600382015481526020016004820180546123a090615aba565b80601f01602080910402602001604051908101604052809291908181526020018280546123cc90615aba565b80156124195780601f106123ee57610100808354040283529160200191612419565b820191906000526020600020905b8154815290600101906020018083116123fc57829003601f168201915b505050505081526020016005820160009054906101000a900460ff161515151581526020016005820160019054906101000a900460ff1615151515815250509050919050565b6000806002600084815260200190815260200160002060009054906101000a900473ffffffffffffffffffffffffffffffffffffffff169050600073ffffffffffffffffffffffffffffffffffffffff168173ffffffffffffffffffffffffffffffffffffffff161415612508576040517f08c379a00000000000000000000000000000000000000000000000000000000081526004016124ff90615513565b60405180910390fd5b80915050919050565b60008073ffffffffffffffffffffffffffffffffffffffff168273ffffffffffffffffffffffffffffffffffffffff161415612582576040517f08c379a0000000000000000000000000000000000000000000000000000000008152600401612579906154f3565b60405180910390fd5b600360008373ffffffffffffffffffffffffffffffffffffffff1673ffffffffffffffffffffffffffffffffffffffff168152602001908152602001600020549050919050565b6125d1613999565b73ffffffffffffffffffffffffffffffffffffffff166125ef612757565b73ffffffffffffffffffffffffffffffffffffffff1614612645576040517f08c379a000000000000000000000000000000000000000000000000000000000815260040161263c90615573565b60405180910390fd5b61264f6000613aba565b565b6060600960003373ffffffffffffffffffffffffffffffffffffffff1673ffffffffffffffffffffffffffffffffffffffff168152602001908152602001600020805480602002602001604051908101604052809291908181526020016000905b8282101561274e578382906000526020600020906003020160405180606001604052908160008201548152602001600182015481526020016002820160009054906101000a900473ffffffffffffffffffffffffffffffffffffffff1673ffffffffffffffffffffffffffffffffffffffff1673ffffffffffffffffffffffffffffffffffffffff1681525050815260200190600101906126b2565b50505050905090565b6000600660009054906101000a900473ffffffffffffffffffffffffffffffffffffffff16905090565b600b60009054906101000a900473ffffffffffffffffffffffffffffffffffffffff1681565b6060600180546127b690615aba565b80601f01602080910402602001604051908101604052809291908181526020018280546127e290615aba565b801561282f5780601f106128045761010080835404028352916020019161282f565b820191906000526020600020905b81548152906001019060200180831161281257829003601f168201915b5050505050905090565b612841613999565b73ffffffffffffffffffffffffffffffffffffffff168273ffffffffffffffffffffffffffffffffffffffff1614156128af576040517f08c379a00000000000000000000000000000000000000000000000000000000081526004016128a690615473565b60405180910390fd5b80600560006128bc613999565b73ffffffffffffffffffffffffffffffffffffffff1673ffffffffffffffffffffffffffffffffffffffff16815260200190815260200160002060008473ffffffffffffffffffffffffffffffffffffffff1673ffffffffffffffffffffffffffffffffffffffff16815260200190815260200160002060006101000a81548160ff0219169083151502179055508173ffffffffffffffffffffffffffffffffffffffff16612969613999565b73ffffffffffffffffffffffffffffffffffffffff167f17307eab39ab6107e8899845ad3d59bd9653f200f220920489ca2b5937696c31836040516129ae9190615396565b60405180910390a35050565b6129cb6129c5613999565b83613b80565b612a0a576040517f08c379a0000000000000000000000000000000000000000000000000000000008152600401612a0190615653565b60405180910390fd5b612a1684848484613c5e565b6000600960008673ffffffffffffffffffffffffffffffffffffffff1673ffffffffffffffffffffffffffffffffffffffff168152602001908152602001600020805480602002602001604051908101604052809291908181526020016000905b82821015612b13578382906000526020600020906003020160405180606001604052908160008201548152602001600182015481526020016002820160009054906101000a900473ffffffffffffffffffffffffffffffffffffffff1673ffffffffffffffffffffffffffffffffffffffff1673ffffffffffffffffffffffffffffffffffffffff168152505081526020019060010190612a77565b505050509050600960008673ffffffffffffffffffffffffffffffffffffffff1673ffffffffffffffffffffffffffffffffffffffff1681526020019081526020016000206000612b649190614484565b60005b8151811015612dc05783828281518110612b8457612b83615c52565b5b60200260200101516000015114612c7a57600960008773ffffffffffffffffffffffffffffffffffffffff1673ffffffffffffffffffffffffffffffffffffffff168152602001908152602001600020828281518110612be757612be6615c52565b5b60200260200101519080600181540180825580915050600190039060005260206000209060030201600090919091909150600082015181600001556020820151816001015560408201518160020160006101000a81548173ffffffffffffffffffffffffffffffffffffffff021916908373ffffffffffffffffffffffffffffffffffffffff1602179055505050612dad565b84828281518110612c8e57612c8d615c52565b5b60200260200101516040019073ffffffffffffffffffffffffffffffffffffffff16908173ffffffffffffffffffffffffffffffffffffffff1681525050600960008673ffffffffffffffffffffffffffffffffffffffff1673ffffffffffffffffffffffffffffffffffffffff168152602001908152602001600020828281518110612d1e57612d1d615c52565b5b60200260200101519080600181540180825580915050600190039060005260206000209060030201600090919091909150600082015181600001556020820151816001015560408201518160020160006101000a81548173ffffffffffffffffffffffffffffffffffffffff021916908373ffffffffffffffffffffffffffffffffffffffff16021790555050505b8080612db890615b1d565b915050612b67565b5033600a600085815260200190815260200160002060006101000a81548173ffffffffffffffffffffffffffffffffffffffff021916908373ffffffffffffffffffffffffffffffffffffffff1602179055505050505050565b612e22613999565b73ffffffffffffffffffffffffffffffffffffffff16612e40612757565b73ffffffffffffffffffffffffffffffffffffffff1614612e96576040517f08c379a0000000000000000000000000000000000000000000000000000000008152600401612e8d90615573565b60405180910390fd5b60005b60078054905081101561301b578260078281548110612ebb57612eba615c52565b5b906000526020600020906006020160000154148015612efe57508160078281548110612eea57612ee9615c52565b5b906000526020600020906006020160010154105b15613008578160078281548110612f1857612f17615c52565b5b90600052602060002090600602016001018190555060078181548110612f4157612f40615c52565b5b906000526020600020906006020160086000858152602001908152602001600020600082015481600001556001820154816001015560028201548160020155600382015481600301556004820181600401908054612f9e90615aba565b612fa992919061456f565b506005820160009054906101000a900460ff168160050160006101000a81548160ff0219169083151502179055506005820160019054906101000a900460ff168160050160016101000a81548160ff0219169083151502179055509050505b808061301390615b1d565b915050612e99565b505050565b606061302b8261392d565b61306a576040517f08c379a0000000000000000000000000000000000000000000000000000000008152600401613061906155b3565b60405180910390fd5b6000613074613cba565b9050600081511161309457604051806020016040528060008152506130bf565b8061309e84613cd1565b6040516020016130af929190615249565b6040516020818303038152906040525b915050919050565b6008600082815260200190815260200160002060050160019054906101000a900460ff1661312a576040517f08c379a000000000000000000000000000000000000000000000000000000000815260040161312190615693565b60405180910390fd5b6008600082815260200190815260200160002060050160009054906101000a900460ff161561318e576040517f08c379a0000000000000000000000000000000000000000000000000000000008152600401613185906154b3565b60405180910390fd5b60006008600083815260200190815260200160002060010154116131e7576040517f08c379a00000000000000000000000000000000000000000000000000000000081526004016131de90615433565b60405180910390fd5b6103e8670de0b6b3a764000060086000848152602001908152602001600020600301546132149190615904565b61321e91906158d3565b341461325f576040517f08c379a0000000000000000000000000000000000000000000000000000000008152600401613256906156d3565b60405180910390fd5b6132676144a8565b60005b6007805490508110156134ec57826007828154811061328c5761328b615c52565b5b90600052602060002090600602016000015414156134d957600781815481106132b8576132b7615c52565b5b90600052602060002090600602016040518060e00160405290816000820154815260200160018201548152602001600282015481526020016003820154815260200160048201805461330990615aba565b80601f016020809104026020016040519081016040528092919081815260200182805461333590615aba565b80156133825780601f1061335757610100808354040283529160200191613382565b820191906000526020600020905b81548152906001019060200180831161336557829003601f168201915b505050505081526020016005820160009054906101000a900460ff161515151581526020016005820160019054906101000a900460ff1615151515815250509150600781815481106133d7576133d6615c52565b5b906000526020600020906006020160010160008154809291906133f990615a90565b91905055506007818154811061341257613411615c52565b5b90600052602060002090600602016008600085815260200190815260200160002060008201548160000155600182015481600101556002820154816002015560038201548160030155600482018160040190805461346f90615aba565b61347a92919061456f565b506005820160009054906101000a900460ff168160050160006101000a81548160ff0219169083151502179055506005820160019054906101000a900460ff168160050160016101000a81548160ff0219169083151502179055509050505b80806134e490615b1d565b91505061326a565b5060006402540be400600d543360405160200161350a92919061526d565b6040516020818303038152906040528051906020012060001c61352d9190615b94565b9050600d600081548092919061354290615b1d565b91905055506135513382613e32565b600b60009054906101000a900473ffffffffffffffffffffffffffffffffffffffff1673ffffffffffffffffffffffffffffffffffffffff166108fc349081150290604051600060405180830381858888f193505050501580156135b9573d6000803e3d6000fd5b5060006040518060600160405280838152602001846000015181526020013373ffffffffffffffffffffffffffffffffffffffff168152509050600960003373ffffffffffffffffffffffffffffffffffffffff1673ffffffffffffffffffffffffffffffffffffffff168152602001908152602001600020819080600181540180825580915050600190039060005260206000209060030201600090919091909150600082015181600001556020820151816001015560408201518160020160006101000a81548173ffffffffffffffffffffffffffffffffffffffff021916908373ffffffffffffffffffffffffffffffffffffffff160217905550505033600a600084815260200190815260200160002060006101000a81548173ffffffffffffffffffffffffffffffffffffffff021916908373ffffffffffffffffffffffffffffffffffffffff16021790555050505050565b6000600560008473ffffffffffffffffffffffffffffffffffffffff1673ffffffffffffffffffffffffffffffffffffffff16815260200190815260200160002060008373ffffffffffffffffffffffffffffffffffffffff1673ffffffffffffffffffffffffffffffffffffffff16815260200190815260200160002060009054906101000a900460ff16905092915050565b6137ad613999565b73ffffffffffffffffffffffffffffffffffffffff166137cb612757565b73ffffffffffffffffffffffffffffffffffffffff1614613821576040517f08c379a000000000000000000000000000000000000000000000000000000000815260040161381890615573565b60405180910390fd5b600073ffffffffffffffffffffffffffffffffffffffff168173ffffffffffffffffffffffffffffffffffffffff161415613891576040517f08c379a0000000000000000000000000000000000000000000000000000000008152600401613888906153f3565b60405180910390fd5b61389a81613aba565b50565b600c60009054906101000a900473ffffffffffffffffffffffffffffffffffffffff1681565b60007f01ffc9a7000000000000000000000000000000000000000000000000000000007bffffffffffffffffffffffffffffffffffffffffffffffffffffffff1916827bffffffffffffffffffffffffffffffffffffffffffffffffffffffff1916149050919050565b60008073ffffffffffffffffffffffffffffffffffffffff166002600084815260200190815260200160002060009054906101000a900473ffffffffffffffffffffffffffffffffffffffff1673ffffffffffffffffffffffffffffffffffffffff1614159050919050565b600033905090565b816004600083815260200190815260200160002060006101000a81548173ffffffffffffffffffffffffffffffffffffffff021916908373ffffffffffffffffffffffffffffffffffffffff160217905550808273ffffffffffffffffffffffffffffffffffffffff16613a148361245f565b73ffffffffffffffffffffffffffffffffffffffff167f8c5be1e5ebec7d5bd14f71427d1e84f3dd0314c0f7b2291e5b200ac8c7c3b92560405160405180910390a45050565b613a6b613a65613999565b82613b80565b613aaa576040517f08c379a0000000000000000000000000000000000000000000000000000000008152600401613aa190615653565b60405180910390fd5b613ab5838383613e50565b505050565b6000600660009054906101000a900473ffffffffffffffffffffffffffffffffffffffff16905081600660006101000a81548173ffffffffffffffffffffffffffffffffffffffff021916908373ffffffffffffffffffffffffffffffffffffffff1602179055508173ffffffffffffffffffffffffffffffffffffffff168173ffffffffffffffffffffffffffffffffffffffff167f8be0079c531659141344cd1fd0a4f28419497f9722a3daafe3b4186f6b6457e060405160405180910390a35050565b6000613b8b8261392d565b613bca576040517f08c379a0000000000000000000000000000000000000000000000000000000008152600401613bc190615493565b60405180910390fd5b6000613bd58361245f565b90508073ffffffffffffffffffffffffffffffffffffffff168473ffffffffffffffffffffffffffffffffffffffff161480613c4457508373ffffffffffffffffffffffffffffffffffffffff16613c2c84610dc5565b73ffffffffffffffffffffffffffffffffffffffff16145b80613c555750613c548185613711565b5b91505092915050565b613c69848484613e50565b613c75848484846140ac565b613cb4576040517f08c379a0000000000000000000000000000000000000000000000000000000008152600401613cab906153d3565b60405180910390fd5b50505050565b606060405180602001604052806000815250905090565b60606000821415613d19576040518060400160405280600181526020017f30000000000000000000000000000000000000000000000000000000000000008152509050613e2d565b600082905060005b60008214613d4b578080613d3490615b1d565b915050600a82613d4491906158d3565b9150613d21565b60008167ffffffffffffffff811115613d6757613d66615c81565b5b6040519080825280601f01601f191660200182016040528015613d995781602001600182028036833780820191505090505b5090505b60008514613e2657600182613db2919061595e565b9150600a85613dc19190615b94565b6030613dcd919061587d565b60f81b818381518110613de357613de2615c52565b5b60200101907effffffffffffffffffffffffffffffffffffffffffffffffffffffffffffff1916908160001a905350600a85613e1f91906158d3565b9450613d9d565b8093505050505b919050565b613e4c828260405180602001604052806000815250614243565b5050565b8273ffffffffffffffffffffffffffffffffffffffff16613e708261245f565b73ffffffffffffffffffffffffffffffffffffffff1614613ec6576040517f08c379a0000000000000000000000000000000000000000000000000000000008152600401613ebd90615593565b60405180910390fd5b600073ffffffffffffffffffffffffffffffffffffffff168273ffffffffffffffffffffffffffffffffffffffff161415613f36576040517f08c379a0000000000000000000000000000000000000000000000000000000008152600401613f2d90615453565b60405180910390fd5b613f4183838361429e565b613f4c6000826139a1565b6001600360008573ffffffffffffffffffffffffffffffffffffffff1673ffffffffffffffffffffffffffffffffffffffff1681526020019081526020016000206000828254613f9c919061595e565b925050819055506001600360008473ffffffffffffffffffffffffffffffffffffffff1673ffffffffffffffffffffffffffffffffffffffff1681526020019081526020016000206000828254613ff3919061587d565b92505081905550816002600083815260200190815260200160002060006101000a81548173ffffffffffffffffffffffffffffffffffffffff021916908373ffffffffffffffffffffffffffffffffffffffff160217905550808273ffffffffffffffffffffffffffffffffffffffff168473ffffffffffffffffffffffffffffffffffffffff167fddf252ad1be2c89b69c2b068fc378daa952ba7f163c4a11628f55a4df523b3ef60405160405180910390a4505050565b60006140cd8473ffffffffffffffffffffffffffffffffffffffff166142a3565b15614236578373ffffffffffffffffffffffffffffffffffffffff1663150b7a026140f6613999565b8786866040518563ffffffff1660e01b81526004016141189493929190615306565b602060405180830381600087803b15801561413257600080fd5b505af192505050801561416357506040513d601f19601f8201168201806040525081019061416091906149a0565b60015b6141e6573d8060008114614193576040519150601f19603f3d011682016040523d82523d6000602084013e614198565b606091505b506000815114156141de576040517f08c379a00000000000000000000000000000000000000000000000000000000081526004016141d5906153d3565b60405180910390fd5b805181602001fd5b63150b7a0260e01b7bffffffffffffffffffffffffffffffffffffffffffffffffffffffff1916817bffffffffffffffffffffffffffffffffffffffffffffffffffffffff19161491505061423b565b600190505b949350505050565b61424d83836142b6565b61425a60008484846140ac565b614299576040517f08c379a0000000000000000000000000000000000000000000000000000000008152600401614290906153d3565b60405180910390fd5b505050565b505050565b600080823b905060008111915050919050565b600073ffffffffffffffffffffffffffffffffffffffff168273ffffffffffffffffffffffffffffffffffffffff161415614326576040517f08c379a000000000000000000000000000000000000000000000000000000000815260040161431d90615533565b60405180910390fd5b61432f8161392d565b1561436f576040517f08c379a000000000000000000000000000000000000000000000000000000000815260040161436690615413565b60405180910390fd5b61437b6000838361429e565b6001600360008473ffffffffffffffffffffffffffffffffffffffff1673ffffffffffffffffffffffffffffffffffffffff16815260200190815260200160002060008282546143cb919061587d565b92505081905550816002600083815260200190815260200160002060006101000a81548173ffffffffffffffffffffffffffffffffffffffff021916908373ffffffffffffffffffffffffffffffffffffffff160217905550808273ffffffffffffffffffffffffffffffffffffffff16600073ffffffffffffffffffffffffffffffffffffffff167fddf252ad1be2c89b69c2b068fc378daa952ba7f163c4a11628f55a4df523b3ef60405160405180910390a45050565b50805460008255600302906000526020600020908101906144a591906145fc565b50565b6040518060e0016040528060008152602001600081526020016000815260200160008152602001606081526020016000151581526020016000151581525090565b8280546144f590615aba565b90600052602060002090601f016020900481019282614517576000855561455e565b82601f1061453057805160ff191683800117855561455e565b8280016001018555821561455e579182015b8281111561455d578251825591602001919060010190614542565b5b50905061456b919061464a565b5090565b82805461457b90615aba565b90600052602060002090601f01602090048101928261459d57600085556145eb565b82601f106145ae57805485556145eb565b828001600101855582156145eb57600052602060002091601f016020900482015b828111156145ea5782548255916001019190600101906145cf565b5b5090506145f8919061464a565b5090565b5b808211156146465760008082016000905560018201600090556002820160006101000a81549073ffffffffffffffffffffffffffffffffffffffff0219169055506003016145fd565b5090565b5b8082111561466357600081600090555060010161464b565b5090565b600061467a61467584615755565b615730565b90508281526020810184848401111561469657614695615cb5565b5b6146a1848285615a4e565b509392505050565b60006146bc6146b784615786565b615730565b9050828152602081018484840111156146d8576146d7615cb5565b5b6146e3848285615a4e565b509392505050565b6000813590506146fa8161631d565b92915050565b60008135905061470f81616334565b92915050565b6000813590506147248161634b565b92915050565b6000815190506147398161634b565b92915050565b600082601f83011261475457614753615cb0565b5b8135614764848260208601614667565b91505092915050565b600082601f83011261478257614781615cb0565b5b81356147928482602086016146a9565b91505092915050565b6000813590506147aa81616362565b92915050565b6000602082840312156147c6576147c5615cbf565b5b60006147d4848285016146eb565b91505092915050565b600080604083850312156147f4576147f3615cbf565b5b6000614802858286016146eb565b9250506020614813858286016146eb565b9150509250929050565b60008060006060848603121561483657614835615cbf565b5b6000614844868287016146eb565b9350506020614855868287016146eb565b92505060406148668682870161479b565b9150509250925092565b6000806000806080858703121561488a57614889615cbf565b5b6000614898878288016146eb565b94505060206148a9878288016146eb565b93505060406148ba8782880161479b565b925050606085013567ffffffffffffffff8111156148db576148da615cba565b5b6148e78782880161473f565b91505092959194509250565b6000806040838503121561490a57614909615cbf565b5b6000614918858286016146eb565b925050602061492985828601614700565b9150509250929050565b6000806040838503121561494a57614949615cbf565b5b6000614958858286016146eb565b92505060206149698582860161479b565b9150509250929050565b60006020828403121561498957614988615cbf565b5b600061499784828501614715565b91505092915050565b6000602082840312156149b6576149b5615cbf565b5b60006149c48482850161472a565b91505092915050565b60008060008060008060c087890312156149ea576149e9615cbf565b5b600087013567ffffffffffffffff811115614a0857614a07615cba565b5b614a1489828a0161476d565b9650506020614a2589828a0161479b565b9550506040614a3689828a0161479b565b9450506060614a4789828a0161479b565b9350506080614a5889828a0161479b565b92505060a0614a6989828a01614700565b9150509295509295509295565b600060208284031215614a8c57614a8b615cbf565b5b6000614a9a8482850161479b565b91505092915050565b60008060408385031215614aba57614ab9615cbf565b5b6000614ac88582860161479b565b9250506020614ad98582860161479b565b9150509250929050565b6000614aef838361509a565b905092915050565b6000614b0383836151d2565b60608301905092915050565b614b1881615a18565b82525050565b614b27816159a4565b82525050565b614b3681615992565b82525050565b614b4581615992565b82525050565b614b5c614b5782615992565b615b66565b82525050565b6000614b6d826157d7565b614b77818561581d565b935083602082028501614b89856157b7565b8060005b85811015614bc55784840389528151614ba68582614ae3565b9450614bb183615803565b925060208a01995050600181019050614b8d565b50829750879550505050505092915050565b6000614be2826157e2565b614bec818561582e565b9350614bf7836157c7565b8060005b83811015614c28578151614c0f8882614af7565b9750614c1a83615810565b925050600181019050614bfb565b5085935050505092915050565b614c3e816159b6565b82525050565b614c4d816159b6565b82525050565b6000614c5e826157ed565b614c68818561583f565b9350614c78818560208601615a5d565b614c8181615cc4565b840191505092915050565b6000614c97826157f8565b614ca18185615850565b9350614cb1818560208601615a5d565b614cba81615cc4565b840191505092915050565b6000614cd0826157f8565b614cda8185615861565b9350614cea818560208601615a5d565b614cf381615cc4565b840191505092915050565b6000614d09826157f8565b614d138185615872565b9350614d23818560208601615a5d565b80840191505092915050565b6000614d3c603283615861565b9150614d4782615ce2565b604082019050919050565b6000614d5f602683615861565b9150614d6a82615d31565b604082019050919050565b6000614d82601c83615861565b9150614d8d82615d80565b602082019050919050565b6000614da5602283615861565b9150614db082615da9565b604082019050919050565b6000614dc8602483615861565b9150614dd382615df8565b604082019050919050565b6000614deb601983615861565b9150614df682615e47565b602082019050919050565b6000614e0e602c83615861565b9150614e1982615e70565b604082019050919050565b6000614e31602383615861565b9150614e3c82615ebf565b604082019050919050565b6000614e54603883615861565b9150614e5f82615f0e565b604082019050919050565b6000614e77602a83615861565b9150614e8282615f5d565b604082019050919050565b6000614e9a602983615861565b9150614ea582615fac565b604082019050919050565b6000614ebd602083615861565b9150614ec882615ffb565b602082019050919050565b6000614ee0602c83615861565b9150614eeb82616024565b604082019050919050565b6000614f03602083615861565b9150614f0e82616073565b602082019050919050565b6000614f26602983615861565b9150614f318261609c565b604082019050919050565b6000614f49602f83615861565b9150614f54826160eb565b604082019050919050565b6000614f6c601783615861565b9150614f778261613a565b602082019050919050565b6000614f8f602183615861565b9150614f9a82616163565b604082019050919050565b6000614fb2602283615861565b9150614fbd826161b2565b604082019050919050565b6000614fd5600f83615861565b9150614fe082616201565b602082019050919050565b6000614ff8603183615861565b91506150038261622a565b604082019050919050565b600061501b601183615861565b915061502682616279565b602082019050919050565b600061503e601183615861565b9150615049826162a2565b602082019050919050565b6000615061601383615861565b915061506c826162cb565b602082019050919050565b6000615084601083615861565b915061508f826162f4565b602082019050919050565b600060e0830160008301516150b26000860182615214565b5060208301516150c56020860182615214565b5060408301516150d86040860182615214565b5060608301516150eb6060860182615214565b50608083015184820360808601526151038282614c8c565b91505060a083015161511860a0860182614c35565b5060c083015161512b60c0860182614c35565b508091505092915050565b600060e08301600083015161514e6000860182615214565b5060208301516151616020860182615214565b5060408301516151746040860182615214565b5060608301516151876060860182615214565b506080830151848203608086015261519f8282614c8c565b91505060a08301516151b460a0860182614c35565b5060c08301516151c760c0860182614c35565b508091505092915050565b6060820160008201516151e86000850182615214565b5060208201516151fb6020850182615214565b50604082015161520e6040850182614b2d565b50505050565b61521d81615a0e565b82525050565b61522c81615a0e565b82525050565b61524361523e82615a0e565b615b8a565b82525050565b60006152558285614cfe565b91506152618284614cfe565b91508190509392505050565b60006152798285615232565b6020820191506152898284614b4b565b6014820191508190509392505050565b60006020820190506152ae6000830184614b3c565b92915050565b60006020820190506152c96000830184614b1e565b92915050565b60006060820190506152e46000830186614b0f565b6152f16020830185614b3c565b6152fe6040830184615223565b949350505050565b600060808201905061531b6000830187614b3c565b6153286020830186614b3c565b6153356040830185615223565b81810360608301526153478184614c53565b905095945050505050565b6000602082019050818103600083015261536c8184614b62565b905092915050565b6000602082019050818103600083015261538e8184614bd7565b905092915050565b60006020820190506153ab6000830184614c44565b92915050565b600060208201905081810360008301526153cb8184614cc5565b905092915050565b600060208201905081810360008301526153ec81614d2f565b9050919050565b6000602082019050818103600083015261540c81614d52565b9050919050565b6000602082019050818103600083015261542c81614d75565b9050919050565b6000602082019050818103600083015261544c81614d98565b9050919050565b6000602082019050818103600083015261546c81614dbb565b9050919050565b6000602082019050818103600083015261548c81614dde565b9050919050565b600060208201905081810360008301526154ac81614e01565b9050919050565b600060208201905081810360008301526154cc81614e24565b9050919050565b600060208201905081810360008301526154ec81614e47565b9050919050565b6000602082019050818103600083015261550c81614e6a565b9050919050565b6000602082019050818103600083015261552c81614e8d565b9050919050565b6000602082019050818103600083015261554c81614eb0565b9050919050565b6000602082019050818103600083015261556c81614ed3565b9050919050565b6000602082019050818103600083015261558c81614ef6565b9050919050565b600060208201905081810360008301526155ac81614f19565b9050919050565b600060208201905081810360008301526155cc81614f3c565b9050919050565b600060208201905081810360008301526155ec81614f5f565b9050919050565b6000602082019050818103600083015261560c81614f82565b9050919050565b6000602082019050818103600083015261562c81614fa5565b9050919050565b6000602082019050818103600083015261564c81614fc8565b9050919050565b6000602082019050818103600083015261566c81614feb565b9050919050565b6000602082019050818103600083015261568c8161500e565b9050919050565b600060208201905081810360008301526156ac81615031565b9050919050565b600060208201905081810360008301526156cc81615054565b9050919050565b600060208201905081810360008301526156ec81615077565b9050919050565b6000602082019050818103600083015261570d8184615136565b905092915050565b600060208201905061572a6000830184615223565b92915050565b600061573a61574b565b90506157468282615aec565b919050565b6000604051905090565b600067ffffffffffffffff8211156157705761576f615c81565b5b61577982615cc4565b9050602081019050919050565b600067ffffffffffffffff8211156157a1576157a0615c81565b5b6157aa82615cc4565b9050602081019050919050565b6000819050602082019050919050565b6000819050602082019050919050565b600081519050919050565b600081519050919050565b600081519050919050565b600081519050919050565b6000602082019050919050565b6000602082019050919050565b600082825260208201905092915050565b600082825260208201905092915050565b600082825260208201905092915050565b600082825260208201905092915050565b600082825260208201905092915050565b600081905092915050565b600061588882615a0e565b915061589383615a0e565b9250827fffffffffffffffffffffffffffffffffffffffffffffffffffffffffffffffff038211156158c8576158c7615bc5565b5b828201905092915050565b60006158de82615a0e565b91506158e983615a0e565b9250826158f9576158f8615bf4565b5b828204905092915050565b600061590f82615a0e565b915061591a83615a0e565b9250817fffffffffffffffffffffffffffffffffffffffffffffffffffffffffffffffff048311821515161561595357615952615bc5565b5b828202905092915050565b600061596982615a0e565b915061597483615a0e565b92508282101561598757615986615bc5565b5b828203905092915050565b600061599d826159ee565b9050919050565b60006159af826159ee565b9050919050565b60008115159050919050565b60007fffffffff0000000000000000000000000000000000000000000000000000000082169050919050565b600073ffffffffffffffffffffffffffffffffffffffff82169050919050565b6000819050919050565b6000615a2382615a2a565b9050919050565b6000615a3582615a3c565b9050919050565b6000615a47826159ee565b9050919050565b82818337600083830152505050565b60005b83811015615a7b578082015181840152602081019050615a60565b83811115615a8a576000848401525b50505050565b6000615a9b82615a0e565b91506000821415615aaf57615aae615bc5565b5b600182039050919050565b60006002820490506001821680615ad257607f821691505b60208210811415615ae657615ae5615c23565b5b50919050565b615af582615cc4565b810181811067ffffffffffffffff82111715615b1457615b13615c81565b5b80604052505050565b6000615b2882615a0e565b91507fffffffffffffffffffffffffffffffffffffffffffffffffffffffffffffffff821415615b5b57615b5a615bc5565b5b600182019050919050565b6000615b7182615b78565b9050919050565b6000615b8382615cd5565b9050919050565b6000819050919050565b6000615b9f82615a0e565b9150615baa83615a0e565b925082615bba57615bb9615bf4565b5b828206905092915050565b7f4e487b7100000000000000000000000000000000000000000000000000000000600052601160045260246000fd5b7f4e487b7100000000000000000000000000000000000000000000000000000000600052601260045260246000fd5b7f4e487b7100000000000000000000000000000000000000000000000000000000600052602260045260246000fd5b7f4e487b7100000000000000000000000000000000000000000000000000000000600052603260045260246000fd5b7f4e487b7100000000000000000000000000000000000000000000000000000000600052604160045260246000fd5b600080fd5b600080fd5b600080fd5b600080fd5b6000601f19601f8301169050919050565b60008160601b9050919050565b7f4552433732313a207472616e7366657220746f206e6f6e20455243373231526560008201527f63656976657220696d706c656d656e7465720000000000000000000000000000602082015250565b7f4f776e61626c653a206e6577206f776e657220697320746865207a65726f206160008201527f6464726573730000000000000000000000000000000000000000000000000000602082015250565b7f4552433732313a20746f6b656e20616c7265616479206d696e74656400000000600082015250565b7f5468657265206973206e6f206d6f726520706f6c6974696320617661696c616260008201527f6c65000000000000000000000000000000000000000000000000000000000000602082015250565b7f4552433732313a207472616e7366657220746f20746865207a65726f2061646460008201527f7265737300000000000000000000000000000000000000000000000000000000602082015250565b7f4552433732313a20617070726f766520746f2063616c6c657200000000000000600082015250565b7f4552433732313a206f70657261746f7220717565727920666f72206e6f6e657860008201527f697374656e7420746f6b656e0000000000000000000000000000000000000000602082015250565b7f506f6c69746963206f6e6c7920617661696c61626c652077697468206c6f747460008201527f6572790000000000000000000000000000000000000000000000000000000000602082015250565b7f4552433732313a20617070726f76652063616c6c6572206973206e6f74206f7760008201527f6e6572206e6f7220617070726f76656420666f7220616c6c0000000000000000602082015250565b7f4552433732313a2062616c616e636520717565727920666f7220746865207a6560008201527f726f206164647265737300000000000000000000000000000000000000000000602082015250565b7f4552433732313a206f776e657220717565727920666f72206e6f6e657869737460008201527f656e7420746f6b656e0000000000000000000000000000000000000000000000602082015250565b7f4552433732313a206d696e7420746f20746865207a65726f2061646472657373600082015250565b7f4552433732313a20617070726f76656420717565727920666f72206e6f6e657860008201527f697374656e7420746f6b656e0000000000000000000000000000000000000000602082015250565b7f4f776e61626c653a2063616c6c6572206973206e6f7420746865206f776e6572600082015250565b7f4552433732313a207472616e73666572206f6620746f6b656e2074686174206960008201527f73206e6f74206f776e0000000000000000000000000000000000000000000000602082015250565b7f4552433732314d657461646174613a2055524920717565727920666f72206e6f60008201527f6e6578697374656e7420746f6b656e0000000000000000000000000000000000602082015250565b7f506f6c6974696369616e206e6f7420666f722073616c65000000000000000000600082015250565b7f4552433732313a20617070726f76616c20746f2063757272656e74206f776e6560008201527f7200000000000000000000000000000000000000000000000000000000000000602082015250565b7f596f7520617265206e6f7420746865206f776e6572206f662074686520746f6b60008201527f656e000000000000000000000000000000000000000000000000000000000000602082015250565b7f596f757220706f6c6974696369616e0000000000000000000000000000000000600082015250565b7f4552433732313a207472616e736665722063616c6c6572206973206e6f74206f60008201527f776e6572206e6f7220617070726f766564000000000000000000000000000000602082015250565b7f696420616c726561647920696e20757365000000000000000000000000000000600082015250565b7f506f6c69746963206e6f7420666f756e64000000000000000000000000000000600082015250565b7f4e6f7420796f757220706f6c6974696369616e00000000000000000000000000600082015250565b7f496e636f727265637420616d6f756e7400000000000000000000000000000000600082015250565b61632681615992565b811461633157600080fd5b50565b61633d816159b6565b811461634857600080fd5b50565b616354816159c2565b811461635f57600080fd5b50565b61636b81615a0e565b811461637657600080fd5b5056fea2646970667358221220f5725c726cbd98297b188ef471200e870beb1a3e01c06d988b943dc8eb50ce3464736f6c63430008070033",
  "immutableReferences": {},
  "source": "// SPDX-License-Identifier: MIT\n\npragma solidity ^0.8.0;\nimport \"./LotteryFactory.sol\";\n\n/**\n* @title Base function of sell ERC721\n* @author Youness Chetoui\n*/\ncontract Sell is LotteryFactory {\n    struct PoliticOnSale {\n        uint256 tokenId;\n        uint256 price;\n        address payable owner;\n        bool created;\n    }\n\n    mapping(uint256 => PoliticOnSale) internal politicsOnSale;\n\n    uint256 internal feeSale = 5;\n\n    /**\n    * @notice Up for sale of owned politician\n    * @param _tokenId of politician owned and _price wished\n    */\n    function forSale(uint256 _tokenId, uint256 _price) public {\n        require(politicToUser[_tokenId] == msg.sender, \"You are not the owner of the token\");\n\n        ERC721.transferFrom(msg.sender, contractAddress, _tokenId);\n\n        PoliticOnSale memory politicOnSale =\n            PoliticOnSale({tokenId: _tokenId, price: _price, owner: payable(msg.sender), created: true});\n\n        politicsOnSale[_tokenId] = politicOnSale;\n\n        // Update politicsOwned and transfer politician for sale to contract\n        PoliticsOwned[] memory politicsFrom = userOwnedPolitics[msg.sender];\n        delete userOwnedPolitics[msg.sender];\n        for (uint i = 0; i < politicsFrom.length; i++) {\n            if (politicsFrom[i].id != _tokenId) {\n                userOwnedPolitics[msg.sender].push(politicsFrom[i]);\n\n            } else {\n                politicsFrom[i].owner = contractAddress;\n                userOwnedPolitics[contractAddress].push(politicsFrom[i]);\n            }\n        }\n\n        delete userOwnedPolitics[politicToUser[_tokenId]];\n        delete politicToUser[_tokenId];\n    }\n\n    /**\n    * @notice Buy politician\n    * @param _tokenId of politician for sale\n    */\n    function buyPoliticsForSale(uint256 _tokenId) public payable {\n        require(politicsOnSale[_tokenId].created, \"Politician not for sale\");\n        require(msg.sender != politicsOnSale[_tokenId].owner, \"Your politician\");\n        require(msg.value == (politicsOnSale[_tokenId].price * 10**18) / 1000, \"Incorrect amount\");\n\n        // get 5% of fee\n        uint256 feeCost = msg.value * feeSale / 100;\n        uint256 amountOwner = msg.value - feeCost;\n        ownerAddress.transfer(feeCost);\n        politicsOnSale[_tokenId].owner.transfer(amountOwner);\n\n        // transfer collectible from contract to buyer\n        this.safeTransferFrom(contractAddress, msg.sender, _tokenId);\n\n        // Delete onSale\n        delete politicsOnSale[_tokenId];\n\n        // Update politician Owned\n        PoliticsOwned[] memory politicsFrom = userOwnedPolitics[contractAddress];\n        delete userOwnedPolitics[contractAddress];\n        for (uint i = 0; i < politicsFrom.length; i++) {\n            if (politicsFrom[i].id != _tokenId) {\n                userOwnedPolitics[msg.sender].push(politicsFrom[i]);\n\n            } else {\n                politicsFrom[i].owner = msg.sender;\n                userOwnedPolitics[msg.sender].push(politicsFrom[i]);\n            }\n        }\n\n        politicToUser[_tokenId] = msg.sender;\n    }\n\n    /**\n    * @notice Cancel the sell of politician\n    * @param _tokenId of politician for sale\n    */\n    function cancelSell(uint256 _tokenId) public {\n        require(msg.sender == politicsOnSale[_tokenId].owner, \"Not your politician\");\n\n        // transfer collectible from contract to buyer\n        this.safeTransferFrom(contractAddress, msg.sender, _tokenId);\n\n        // Delete onSale\n        delete politicsOnSale[_tokenId];\n\n        // Update politician Owned\n        PoliticsOwned[] memory politicsFrom = userOwnedPolitics[contractAddress];\n        delete userOwnedPolitics[contractAddress];\n        for (uint i = 0; i < politicsFrom.length; i++) {\n            if (politicsFrom[i].id != _tokenId) {\n                userOwnedPolitics[msg.sender].push(politicsFrom[i]);\n\n            } else {\n                politicsFrom[i].owner = msg.sender;\n                userOwnedPolitics[msg.sender].push(politicsFrom[i]);\n            }\n        }\n\n        politicToUser[_tokenId] = msg.sender;\n    }\n}\n",
  "sourcePath": "/home/youness/Crypto/PoliticsCollectible/contracts/Sell.sol",
  "compiler": {
    "name": "solc",
    "version": "0.8.7+commit.e28d00a7.Emscripten.clang"
  },
  "schemaVersion": "3.4.3",
  "updatedAt": "2021-08-31T09:20:42.194Z",
  "devdoc": {
    "author": "Youness Chetoui",
    "kind": "dev",
    "methods": {
      "addQty(uint256,uint256)": {
        "params": {
          "_id": "of PoliticsAvailable and _qty wished"
        }
      },
      "approve(address,uint256)": {
        "details": "See {IERC721-approve}."
      },
      "balanceOf(address)": {
        "details": "See {IERC721-balanceOf}."
      },
      "buy(uint256)": {
        "params": {
          "_id": "of politician available"
        }
      },
      "buyPoliticsForSale(uint256)": {
        "params": {
          "_tokenId": "of politician for sale"
        }
      },
      "cancelSell(uint256)": {
        "params": {
          "_tokenId": "of politician for sale"
        }
      },
      "create(string,uint256,uint256,uint256,uint256,bool)": {
        "params": {
          "_name": ", _id, _qty, _level, _price and _lottery of politician available"
        },
        "returns": {
          "_0": "PoliticsAvailable created"
        }
      },
      "forSale(uint256,uint256)": {
        "params": {
          "_tokenId": "of politician owned and _price wished"
        }
      },
      "getApproved(uint256)": {
        "details": "See {IERC721-getApproved}."
      },
      "getMyPolitics()": {
        "returns": {
          "_0": "array of struct PoliticsOwned"
        }
      },
      "getPolitic(uint256)": {
        "params": {
          "_id": "of politician"
        },
        "returns": {
          "_0": "struct PoliticsAvailable"
        }
      },
      "getPolitics()": {
        "returns": {
          "_0": "Array of struct PoliticsAvailable"
        }
      },
      "isApprovedForAll(address,address)": {
        "details": "See {IERC721-isApprovedForAll}."
      },
      "name()": {
        "details": "See {IERC721Metadata-name}."
      },
      "owner()": {
        "details": "Returns the address of the current owner."
      },
      "ownerOf(uint256)": {
        "details": "See {IERC721-ownerOf}."
      },
      "renounceOwnership()": {
        "details": "Leaves the contract without owner. It will not be possible to call `onlyOwner` functions anymore. Can only be called by the current owner. NOTE: Renouncing ownership will leave the contract without an owner, thereby removing any functionality that is only available to the owner."
      },
      "safeTransferFrom(address,address,uint256)": {
        "details": "See {IERC721-safeTransferFrom}."
      },
      "safeTransferFrom(address,address,uint256,bytes)": {
        "params": {
          "from": "politician wallet address, to wallet address of receiver, tokenId of politician to transfer, _data"
        }
      },
      "setApprovalForAll(address,bool)": {
        "details": "See {IERC721-setApprovalForAll}."
      },
      "supportsInterface(bytes4)": {
        "details": "See {IERC165-supportsInterface}."
      },
      "symbol()": {
        "details": "See {IERC721Metadata-symbol}."
      },
      "tokenURI(uint256)": {
        "details": "See {IERC721Metadata-tokenURI}."
      },
      "transferOwnership(address)": {
        "details": "Transfers ownership of the contract to a new account (`newOwner`). Can only be called by the current owner."
      }
    },
    "title": "Base function of sell ERC721",
    "version": 1
  },
  "userdoc": {
    "kind": "user",
    "methods": {
      "addQty(uint256,uint256)": {
        "notice": "Add quantity for a PoliticsAvailable"
      },
      "buy(uint256)": {
        "notice": "Buy politician"
      },
      "buyPoliticsForSale(uint256)": {
        "notice": "Buy politician"
      },
      "cancelSell(uint256)": {
        "notice": "Cancel the sell of politician"
      },
      "create(string,uint256,uint256,uint256,uint256,bool)": {
        "notice": "Create politician"
      },
      "forSale(uint256,uint256)": {
        "notice": "Up for sale of owned politician"
      },
      "getMyPolitics()": {
        "notice": "Get politician by user"
      },
      "getPolitic(uint256)": {
        "notice": "get politician available by id"
      },
      "getPolitics()": {
        "notice": "get list of all politician available"
      },
      "safeTransferFrom(address,address,uint256,bytes)": {
        "notice": "Transfer Politic"
      },
      "transferFrom(address,address,uint256)": {
        "notice": "Disabled not safe transform"
      }
    },
    "version": 1
  }
}