{
  "contractName": "Sell",
  "abi": [
    {
      "anonymous": false,
      "inputs": [
        {
          "indexed": true,
          "internalType": "address",
          "name": "owner",
          "type": "address"
        },
        {
          "indexed": true,
          "internalType": "address",
          "name": "approved",
          "type": "address"
        },
        {
          "indexed": true,
          "internalType": "uint256",
          "name": "tokenId",
          "type": "uint256"
        }
      ],
      "name": "Approval",
      "type": "event"
    },
    {
      "anonymous": false,
      "inputs": [
        {
          "indexed": true,
          "internalType": "address",
          "name": "owner",
          "type": "address"
        },
        {
          "indexed": true,
          "internalType": "address",
          "name": "operator",
          "type": "address"
        },
        {
          "indexed": false,
          "internalType": "bool",
          "name": "approved",
          "type": "bool"
        }
      ],
      "name": "ApprovalForAll",
      "type": "event"
    },
    {
      "anonymous": false,
      "inputs": [
        {
          "indexed": true,
          "internalType": "address",
          "name": "previousOwner",
          "type": "address"
        },
        {
          "indexed": true,
          "internalType": "address",
          "name": "newOwner",
          "type": "address"
        }
      ],
      "name": "OwnershipTransferred",
      "type": "event"
    },
    {
      "anonymous": false,
      "inputs": [
        {
          "indexed": true,
          "internalType": "address",
          "name": "from",
          "type": "address"
        },
        {
          "indexed": true,
          "internalType": "address",
          "name": "to",
          "type": "address"
        },
        {
          "indexed": true,
          "internalType": "uint256",
          "name": "tokenId",
          "type": "uint256"
        }
      ],
      "name": "Transfer",
      "type": "event"
    },
    {
      "inputs": [
        {
          "internalType": "uint256",
          "name": "_id",
          "type": "uint256"
        },
        {
          "internalType": "uint256",
          "name": "_qty",
          "type": "uint256"
        }
      ],
      "name": "addQty",
      "outputs": [],
      "stateMutability": "nonpayable",
      "type": "function"
    },
    {
      "inputs": [
        {
          "internalType": "address",
          "name": "to",
          "type": "address"
        },
        {
          "internalType": "uint256",
          "name": "tokenId",
          "type": "uint256"
        }
      ],
      "name": "approve",
      "outputs": [],
      "stateMutability": "nonpayable",
      "type": "function"
    },
    {
      "inputs": [
        {
          "internalType": "uint256",
          "name": "",
          "type": "uint256"
        }
      ],
      "name": "arrayPoliticiansOnSale",
      "outputs": [
        {
          "internalType": "uint256",
          "name": "",
          "type": "uint256"
        }
      ],
      "stateMutability": "view",
      "type": "function"
    },
    {
      "inputs": [
        {
          "internalType": "address",
          "name": "owner",
          "type": "address"
        }
      ],
      "name": "balanceOf",
      "outputs": [
        {
          "internalType": "uint256",
          "name": "",
          "type": "uint256"
        }
      ],
      "stateMutability": "view",
      "type": "function"
    },
    {
      "inputs": [
        {
          "internalType": "uint256",
          "name": "_id",
          "type": "uint256"
        }
      ],
      "name": "buy",
      "outputs": [],
      "stateMutability": "payable",
      "type": "function"
    },
    {
      "inputs": [],
      "name": "contractAddress",
      "outputs": [
        {
          "internalType": "address payable",
          "name": "",
          "type": "address"
        }
      ],
      "stateMutability": "view",
      "type": "function"
    },
    {
      "inputs": [
        {
          "internalType": "string",
          "name": "_name",
          "type": "string"
        },
        {
          "internalType": "uint256",
          "name": "_id",
          "type": "uint256"
        },
        {
          "internalType": "uint256",
          "name": "_qty",
          "type": "uint256"
        },
        {
          "internalType": "uint256",
          "name": "_level",
          "type": "uint256"
        },
        {
          "internalType": "uint256",
          "name": "_price",
          "type": "uint256"
        },
        {
          "internalType": "bool",
          "name": "_lottery",
          "type": "bool"
        }
      ],
      "name": "create",
      "outputs": [
        {
          "components": [
            {
              "internalType": "uint256",
              "name": "id",
              "type": "uint256"
            },
            {
              "internalType": "uint256",
              "name": "qty",
              "type": "uint256"
            },
            {
              "internalType": "uint256",
              "name": "level",
              "type": "uint256"
            },
            {
              "internalType": "uint256",
              "name": "price",
              "type": "uint256"
            },
            {
              "internalType": "string",
              "name": "name",
              "type": "string"
            },
            {
              "internalType": "bool",
              "name": "lottery",
              "type": "bool"
            },
            {
              "internalType": "bool",
              "name": "created",
              "type": "bool"
            }
          ],
          "internalType": "struct Collectible.PoliticsAvailable",
          "name": "",
          "type": "tuple"
        }
      ],
      "stateMutability": "nonpayable",
      "type": "function"
    },
    {
      "inputs": [
        {
          "internalType": "uint256",
          "name": "tokenId",
          "type": "uint256"
        }
      ],
      "name": "getApproved",
      "outputs": [
        {
          "internalType": "address",
          "name": "",
          "type": "address"
        }
      ],
      "stateMutability": "view",
      "type": "function"
    },
    {
      "inputs": [],
      "name": "getMyPolitics",
      "outputs": [
        {
          "components": [
            {
              "internalType": "uint256",
              "name": "id",
              "type": "uint256"
            },
            {
              "internalType": "uint256",
              "name": "id_politic",
              "type": "uint256"
            },
            {
              "internalType": "address",
              "name": "owner",
              "type": "address"
            }
          ],
          "internalType": "struct Collectible.PoliticsOwned[]",
          "name": "",
          "type": "tuple[]"
        }
      ],
      "stateMutability": "view",
      "type": "function"
    },
    {
      "inputs": [
        {
          "internalType": "uint256",
          "name": "_id",
          "type": "uint256"
        }
      ],
      "name": "getPolitic",
      "outputs": [
        {
          "components": [
            {
              "internalType": "uint256",
              "name": "id",
              "type": "uint256"
            },
            {
              "internalType": "uint256",
              "name": "qty",
              "type": "uint256"
            },
            {
              "internalType": "uint256",
              "name": "level",
              "type": "uint256"
            },
            {
              "internalType": "uint256",
              "name": "price",
              "type": "uint256"
            },
            {
              "internalType": "string",
              "name": "name",
              "type": "string"
            },
            {
              "internalType": "bool",
              "name": "lottery",
              "type": "bool"
            },
            {
              "internalType": "bool",
              "name": "created",
              "type": "bool"
            }
          ],
          "internalType": "struct Collectible.PoliticsAvailable",
          "name": "",
          "type": "tuple"
        }
      ],
      "stateMutability": "view",
      "type": "function"
    },
    {
      "inputs": [],
      "name": "getPolitics",
      "outputs": [
        {
          "components": [
            {
              "internalType": "uint256",
              "name": "id",
              "type": "uint256"
            },
            {
              "internalType": "uint256",
              "name": "qty",
              "type": "uint256"
            },
            {
              "internalType": "uint256",
              "name": "level",
              "type": "uint256"
            },
            {
              "internalType": "uint256",
              "name": "price",
              "type": "uint256"
            },
            {
              "internalType": "string",
              "name": "name",
              "type": "string"
            },
            {
              "internalType": "bool",
              "name": "lottery",
              "type": "bool"
            },
            {
              "internalType": "bool",
              "name": "created",
              "type": "bool"
            }
          ],
          "internalType": "struct Collectible.PoliticsAvailable[]",
          "name": "",
          "type": "tuple[]"
        }
      ],
      "stateMutability": "view",
      "type": "function"
    },
    {
      "inputs": [
        {
          "internalType": "address",
          "name": "owner",
          "type": "address"
        },
        {
          "internalType": "address",
          "name": "operator",
          "type": "address"
        }
      ],
      "name": "isApprovedForAll",
      "outputs": [
        {
          "internalType": "bool",
          "name": "",
          "type": "bool"
        }
      ],
      "stateMutability": "view",
      "type": "function"
    },
    {
      "inputs": [],
      "name": "name",
      "outputs": [
        {
          "internalType": "string",
          "name": "",
          "type": "string"
        }
      ],
      "stateMutability": "view",
      "type": "function"
    },
    {
      "inputs": [
        {
          "internalType": "address",
          "name": "",
          "type": "address"
        },
        {
          "internalType": "address",
          "name": "",
          "type": "address"
        },
        {
          "internalType": "uint256",
          "name": "",
          "type": "uint256"
        },
        {
          "internalType": "bytes",
          "name": "",
          "type": "bytes"
        }
      ],
      "name": "onERC721Received",
      "outputs": [
        {
          "internalType": "bytes4",
          "name": "",
          "type": "bytes4"
        }
      ],
      "stateMutability": "nonpayable",
      "type": "function"
    },
    {
      "inputs": [],
      "name": "owner",
      "outputs": [
        {
          "internalType": "address",
          "name": "",
          "type": "address"
        }
      ],
      "stateMutability": "view",
      "type": "function"
    },
    {
      "inputs": [],
      "name": "ownerAddress",
      "outputs": [
        {
          "internalType": "address payable",
          "name": "",
          "type": "address"
        }
      ],
      "stateMutability": "view",
      "type": "function"
    },
    {
      "inputs": [
        {
          "internalType": "uint256",
          "name": "tokenId",
          "type": "uint256"
        }
      ],
      "name": "ownerOf",
      "outputs": [
        {
          "internalType": "address",
          "name": "",
          "type": "address"
        }
      ],
      "stateMutability": "view",
      "type": "function"
    },
    {
      "inputs": [],
      "name": "renounceOwnership",
      "outputs": [],
      "stateMutability": "nonpayable",
      "type": "function"
    },
    {
      "inputs": [
        {
          "internalType": "address",
          "name": "from",
          "type": "address"
        },
        {
          "internalType": "address",
          "name": "to",
          "type": "address"
        },
        {
          "internalType": "uint256",
          "name": "tokenId",
          "type": "uint256"
        }
      ],
      "name": "safeTransferFrom",
      "outputs": [],
      "stateMutability": "nonpayable",
      "type": "function"
    },
    {
      "inputs": [
        {
          "internalType": "address",
          "name": "from",
          "type": "address"
        },
        {
          "internalType": "address",
          "name": "to",
          "type": "address"
        },
        {
          "internalType": "uint256",
          "name": "tokenId",
          "type": "uint256"
        },
        {
          "internalType": "bytes",
          "name": "_data",
          "type": "bytes"
        }
      ],
      "name": "safeTransferFrom",
      "outputs": [],
      "stateMutability": "nonpayable",
      "type": "function"
    },
    {
      "inputs": [
        {
          "internalType": "address",
          "name": "operator",
          "type": "address"
        },
        {
          "internalType": "bool",
          "name": "approved",
          "type": "bool"
        }
      ],
      "name": "setApprovalForAll",
      "outputs": [],
      "stateMutability": "nonpayable",
      "type": "function"
    },
    {
      "inputs": [
        {
          "internalType": "bytes4",
          "name": "interfaceId",
          "type": "bytes4"
        }
      ],
      "name": "supportsInterface",
      "outputs": [
        {
          "internalType": "bool",
          "name": "",
          "type": "bool"
        }
      ],
      "stateMutability": "view",
      "type": "function"
    },
    {
      "inputs": [],
      "name": "symbol",
      "outputs": [
        {
          "internalType": "string",
          "name": "",
          "type": "string"
        }
      ],
      "stateMutability": "view",
      "type": "function"
    },
    {
      "inputs": [
        {
          "internalType": "uint256",
          "name": "tokenId",
          "type": "uint256"
        }
      ],
      "name": "tokenURI",
      "outputs": [
        {
          "internalType": "string",
          "name": "",
          "type": "string"
        }
      ],
      "stateMutability": "view",
      "type": "function"
    },
    {
      "inputs": [
        {
          "internalType": "address",
          "name": "from",
          "type": "address"
        },
        {
          "internalType": "address",
          "name": "to",
          "type": "address"
        },
        {
          "internalType": "uint256",
          "name": "tokenId",
          "type": "uint256"
        }
      ],
      "name": "transferFrom",
      "outputs": [],
      "stateMutability": "nonpayable",
      "type": "function"
    },
    {
      "inputs": [
        {
          "internalType": "address",
          "name": "newOwner",
          "type": "address"
        }
      ],
      "name": "transferOwnership",
      "outputs": [],
      "stateMutability": "nonpayable",
      "type": "function"
    },
    {
      "inputs": [
        {
          "internalType": "uint256",
          "name": "_tokenId",
          "type": "uint256"
        },
        {
          "internalType": "uint256",
          "name": "_price",
          "type": "uint256"
        }
      ],
      "name": "forSale",
      "outputs": [],
      "stateMutability": "nonpayable",
      "type": "function"
    },
    {
      "inputs": [
        {
          "internalType": "uint256",
          "name": "_tokenId",
          "type": "uint256"
        }
      ],
      "name": "buyPoliticsForSale",
      "outputs": [],
      "stateMutability": "payable",
      "type": "function"
    },
    {
      "inputs": [
        {
          "internalType": "uint256",
          "name": "_tokenId",
          "type": "uint256"
        }
      ],
      "name": "cancelSell",
      "outputs": [],
      "stateMutability": "nonpayable",
      "type": "function"
    }
  ],
  "bytecode": "0x60806040526001600d5560056010553480156200001b57600080fd5b506040518060400160405280600b81526020017f506f6c69746963734e66740000000000000000000000000000000000000000008152506040518060400160405280600381526020017f504f4c00000000000000000000000000000000000000000000000000000000008152508160009080519060200190620000a092919062000232565b508060019080519060200190620000b992919062000232565b505050620000dc620000d06200016460201b60201c565b6200016c60201b60201c565b33600b60006101000a81548173ffffffffffffffffffffffffffffffffffffffff021916908373ffffffffffffffffffffffffffffffffffffffff16021790555030600c60006101000a81548173ffffffffffffffffffffffffffffffffffffffff021916908373ffffffffffffffffffffffffffffffffffffffff16021790555062000347565b600033905090565b6000600660009054906101000a900473ffffffffffffffffffffffffffffffffffffffff16905081600660006101000a81548173ffffffffffffffffffffffffffffffffffffffff021916908373ffffffffffffffffffffffffffffffffffffffff1602179055508173ffffffffffffffffffffffffffffffffffffffff168173ffffffffffffffffffffffffffffffffffffffff167f8be0079c531659141344cd1fd0a4f28419497f9722a3daafe3b4186f6b6457e060405160405180910390a35050565b8280546200024090620002e2565b90600052602060002090601f016020900481019282620002645760008555620002b0565b82601f106200027f57805160ff1916838001178555620002b0565b82800160010185558215620002b0579182015b82811115620002af57825182559160200191906001019062000292565b5b509050620002bf9190620002c3565b5090565b5b80821115620002de576000816000905550600101620002c4565b5090565b60006002820490506001821680620002fb57607f821691505b6020821081141562000312576200031162000318565b5b50919050565b7f4e487b7100000000000000000000000000000000000000000000000000000000600052602260045260246000fd5b61582680620003576000396000f3fe6080604052600436106101c25760003560e01c806370a08231116100f7578063a22cb46511610095578063d96a094a11610064578063d96a094a14610669578063e985e9c514610685578063f2fde38b146106c2578063f6b4dfb4146106eb576101c2565b8063a22cb465146105b1578063b88d4fde146105da578063b9db1c9814610603578063c87b56dd1461062c576101c2565b80638da5cb5b116100d15780638da5cb5b146104f35780638f84aa091461051e5780638fedc8641461054957806395d89b4114610586576101c2565b806370a0823114610474578063715018a6146104b157806385d33436146104c8576101c2565b806323b872dd11610164578063546f9e671161013e578063546f9e67146103b557806354b3efa6146103d15780635ad16b7f146103fa5780636352211e14610437576101c2565b806323b872dd1461033857806330f105cd1461036157806342842e0e1461038c576101c2565b8063081812fc116101a0578063081812fc14610258578063095ea7b31461029557806311143277146102be578063150b7a02146102fb576101c2565b806301ffc9a7146101c757806306fdde031461020457806307c9cd451461022f575b600080fd5b3480156101d357600080fd5b506101ee60048036038101906101e99190613dc0565b610716565b6040516101fb91906147f2565b60405180910390f35b34801561021057600080fd5b506102196107f8565b6040516102269190614828565b60405180910390f35b34801561023b57600080fd5b5061025660048036038101906102519190613ec3565b61088a565b005b34801561026457600080fd5b5061027f600480360381019061027a9190613ec3565b6109fa565b60405161028c91906146f5565b60405180910390f35b3480156102a157600080fd5b506102bc60048036038101906102b79190613d80565b610a7f565b005b3480156102ca57600080fd5b506102e560048036038101906102e09190613e1a565b610b97565b6040516102f29190614b6a565b60405180910390f35b34801561030757600080fd5b50610322600480360381019061031d9190613cbd565b610e18565b60405161032f919061480d565b60405180910390f35b34801561034457600080fd5b5061035f600480360381019061035a9190613c6a565b610e2c565b005b34801561036d57600080fd5b50610376610ead565b60405161038391906147ae565b60405180910390f35b34801561039857600080fd5b506103b360048036038101906103ae9190613c6a565b611078565b005b6103cf60048036038101906103ca9190613ec3565b611098565b005b3480156103dd57600080fd5b506103f860048036038101906103f39190613ef0565b6113fa565b005b34801561040657600080fd5b50610421600480360381019061041c9190613ec3565b6115d5565b60405161042e9190614b6a565b60405180910390f35b34801561044357600080fd5b5061045e60048036038101906104599190613ec3565b6117d1565b60405161046b91906146f5565b60405180910390f35b34801561048057600080fd5b5061049b60048036038101906104969190613bfd565b611883565b6040516104a89190614b8c565b60405180910390f35b3480156104bd57600080fd5b506104c661193b565b005b3480156104d457600080fd5b506104dd6119c3565b6040516104ea91906147d0565b60405180910390f35b3480156104ff57600080fd5b50610508611ac9565b60405161051591906146f5565b60405180910390f35b34801561052a57600080fd5b50610533611af3565b6040516105409190614710565b60405180910390f35b34801561055557600080fd5b50610570600480360381019061056b9190613ec3565b611b19565b60405161057d9190614b8c565b60405180910390f35b34801561059257600080fd5b5061059b611b3d565b6040516105a89190614828565b60405180910390f35b3480156105bd57600080fd5b506105d860048036038101906105d39190613d40565b611bcf565b005b3480156105e657600080fd5b5061060160048036038101906105fc9190613cbd565b611d50565b005b34801561060f57600080fd5b5061062a60048036038101906106259190613ef0565b611dbd565b005b34801561063857600080fd5b50610653600480360381019061064e9190613ec3565b611fc3565b6040516106609190614828565b60405180910390f35b610683600480360381019061067e9190613ec3565b61206a565b005b34801561069157600080fd5b506106ac60048036038101906106a79190613c2a565b6126b4565b6040516106b991906147f2565b60405180910390f35b3480156106ce57600080fd5b506106e960048036038101906106e49190613bfd565b612748565b005b3480156106f757600080fd5b50610700612840565b60405161070d9190614710565b60405180910390f35b60007f80ac58cd000000000000000000000000000000000000000000000000000000007bffffffffffffffffffffffffffffffffffffffffffffffffffffffff1916827bffffffffffffffffffffffffffffffffffffffffffffffffffffffff191614806107e157507f5b5e139f000000000000000000000000000000000000000000000000000000007bffffffffffffffffffffffffffffffffffffffffffffffffffffffff1916827bffffffffffffffffffffffffffffffffffffffffffffffffffffffff1916145b806107f157506107f082612866565b5b9050919050565b60606000805461080790614f31565b80601f016020809104026020016040519081016040528092919081815260200182805461083390614f31565b80156108805780601f1061085557610100808354040283529160200191610880565b820191906000526020600020905b81548152906001019060200180831161086357829003601f168201915b5050505050905090565b600e600082815260200190815260200160002060020160009054906101000a900473ffffffffffffffffffffffffffffffffffffffff1673ffffffffffffffffffffffffffffffffffffffff163373ffffffffffffffffffffffffffffffffffffffff161461092e576040517f08c379a000000000000000000000000000000000000000000000000000000000815260040161092590614b2a565b60405180910390fd5b3073ffffffffffffffffffffffffffffffffffffffff166342842e0e600c60009054906101000a900473ffffffffffffffffffffffffffffffffffffffff1633846040518463ffffffff1660e01b815260040161098d9392919061472b565b600060405180830381600087803b1580156109a757600080fd5b505af11580156109bb573d6000803e3d6000fd5b505050506109ec600c60009054906101000a900473ffffffffffffffffffffffffffffffffffffffff1633836128d0565b6109f7816001612cd3565b50565b6000610a0582612dda565b610a44576040517f08c379a0000000000000000000000000000000000000000000000000000000008152600401610a3b906149ca565b60405180910390fd5b6004600083815260200190815260200160002060009054906101000a900473ffffffffffffffffffffffffffffffffffffffff169050919050565b6000610a8a826117d1565b90508073ffffffffffffffffffffffffffffffffffffffff168373ffffffffffffffffffffffffffffffffffffffff161415610afb576040517f08c379a0000000000000000000000000000000000000000000000000000000008152600401610af290614a6a565b60405180910390fd5b8073ffffffffffffffffffffffffffffffffffffffff16610b1a612e46565b73ffffffffffffffffffffffffffffffffffffffff161480610b495750610b4881610b43612e46565b6126b4565b5b610b88576040517f08c379a0000000000000000000000000000000000000000000000000000000008152600401610b7f9061494a565b60405180910390fd5b610b928383612e4e565b505050565b610b9f6138d1565b610ba7612e46565b73ffffffffffffffffffffffffffffffffffffffff16610bc5611ac9565b73ffffffffffffffffffffffffffffffffffffffff1614610c1b576040517f08c379a0000000000000000000000000000000000000000000000000000000008152600401610c12906149ea565b60405180910390fd5b6008600087815260200190815260200160002060050160019054906101000a900460ff1615610c7f576040517f08c379a0000000000000000000000000000000000000000000000000000000008152600401610c7690614aea565b60405180910390fd5b60006040518060e0016040528088815260200187815260200186815260200185815260200189815260200184151581526020016001151581525090506007819080600181540180825580915050600190039060005260206000209060060201600090919091909150600082015181600001556020820151816001015560408201518160020155606082015181600301556080820151816004019080519060200190610d2b929190613912565b5060a08201518160050160006101000a81548160ff02191690831515021790555060c08201518160050160016101000a81548160ff02191690831515021790555050508060086000898152602001908152602001600020600082015181600001556020820151816001015560408201518160020155606082015181600301556080820151816004019080519060200190610dc6929190613912565b5060a08201518160050160006101000a81548160ff02191690831515021790555060c08201518160050160016101000a81548160ff021916908315150217905550905050809150509695505050505050565b600063150b7a0260e01b9050949350505050565b610e34612e46565b73ffffffffffffffffffffffffffffffffffffffff16610e52611ac9565b73ffffffffffffffffffffffffffffffffffffffff1614610ea8576040517f08c379a0000000000000000000000000000000000000000000000000000000008152600401610e9f906149ea565b60405180910390fd5b505050565b6060610eb7612e46565b73ffffffffffffffffffffffffffffffffffffffff16610ed5611ac9565b73ffffffffffffffffffffffffffffffffffffffff1614610f2b576040517f08c379a0000000000000000000000000000000000000000000000000000000008152600401610f22906149ea565b60405180910390fd5b6007805480602002602001604051908101604052809291908181526020016000905b8282101561106f57838290600052602060002090600602016040518060e001604052908160008201548152602001600182015481526020016002820154815260200160038201548152602001600482018054610fa890614f31565b80601f0160208091040260200160405190810160405280929190818152602001828054610fd490614f31565b80156110215780601f10610ff657610100808354040283529160200191611021565b820191906000526020600020905b81548152906001019060200180831161100457829003601f168201915b505050505081526020016005820160009054906101000a900460ff161515151581526020016005820160019054906101000a900460ff16151515158152505081526020019060010190610f4d565b50505050905090565b61109383838360405180602001604052806000815250611d50565b505050565b600e600082815260200190815260200160002060020160149054906101000a900460ff166110fb576040517f08c379a00000000000000000000000000000000000000000000000000000000081526004016110f290614a4a565b60405180910390fd5b600e600082815260200190815260200160002060020160009054906101000a900473ffffffffffffffffffffffffffffffffffffffff1673ffffffffffffffffffffffffffffffffffffffff163373ffffffffffffffffffffffffffffffffffffffff1614156111a0576040517f08c379a000000000000000000000000000000000000000000000000000000000815260040161119790614aaa565b60405180910390fd5b6103e8670de0b6b3a7640000600e6000848152602001908152602001600020600101546111cd9190614d7b565b6111d79190614d4a565b3414611218576040517f08c379a000000000000000000000000000000000000000000000000000000000815260040161120f90614b4a565b60405180910390fd5b600060646010543461122a9190614d7b565b6112349190614d4a565b9050600081346112449190614dd5565b9050600b60009054906101000a900473ffffffffffffffffffffffffffffffffffffffff1673ffffffffffffffffffffffffffffffffffffffff166108fc839081150290604051600060405180830381858888f193505050501580156112ae573d6000803e3d6000fd5b50600e600084815260200190815260200160002060020160009054906101000a900473ffffffffffffffffffffffffffffffffffffffff1673ffffffffffffffffffffffffffffffffffffffff166108fc829081150290604051600060405180830381858888f1935050505015801561132b573d6000803e3d6000fd5b503073ffffffffffffffffffffffffffffffffffffffff166342842e0e600c60009054906101000a900473ffffffffffffffffffffffffffffffffffffffff1633866040518463ffffffff1660e01b815260040161138b9392919061472b565b600060405180830381600087803b1580156113a557600080fd5b505af11580156113b9573d6000803e3d6000fd5b505050506113ea600c60009054906101000a900473ffffffffffffffffffffffffffffffffffffffff1633856128d0565b6113f5836001612cd3565b505050565b3373ffffffffffffffffffffffffffffffffffffffff16600a600084815260200190815260200160002060009054906101000a900473ffffffffffffffffffffffffffffffffffffffff1673ffffffffffffffffffffffffffffffffffffffff161461149b576040517f08c379a000000000000000000000000000000000000000000000000000000000815260040161149290614a8a565b60405180910390fd5b6114c833600c60009054906101000a900473ffffffffffffffffffffffffffffffffffffffff1684611078565b600060405180608001604052808481526020018381526020013373ffffffffffffffffffffffffffffffffffffffff16815260200160011515815250905080600e6000858152602001908152602001600020600082015181600001556020820151816001015560408201518160020160006101000a81548173ffffffffffffffffffffffffffffffffffffffff021916908373ffffffffffffffffffffffffffffffffffffffff16021790555060608201518160020160146101000a81548160ff0219169083151502179055509050506115c533600c60009054906101000a900473ffffffffffffffffffffffffffffffffffffffff16856128d0565b6115d0836001612cd3565b505050565b6115dd6138d1565b6115e5612e46565b73ffffffffffffffffffffffffffffffffffffffff16611603611ac9565b73ffffffffffffffffffffffffffffffffffffffff1614611659576040517f08c379a0000000000000000000000000000000000000000000000000000000008152600401611650906149ea565b60405180910390fd5b6008600083815260200190815260200160002060050160019054906101000a900460ff166116bc576040517f08c379a00000000000000000000000000000000000000000000000000000000081526004016116b390614b0a565b60405180910390fd5b600860008381526020019081526020016000206040518060e00160405290816000820154815260200160018201548152602001600282015481526020016003820154815260200160048201805461171290614f31565b80601f016020809104026020016040519081016040528092919081815260200182805461173e90614f31565b801561178b5780601f106117605761010080835404028352916020019161178b565b820191906000526020600020905b81548152906001019060200180831161176e57829003601f168201915b505050505081526020016005820160009054906101000a900460ff161515151581526020016005820160019054906101000a900460ff1615151515815250509050919050565b6000806002600084815260200190815260200160002060009054906101000a900473ffffffffffffffffffffffffffffffffffffffff169050600073ffffffffffffffffffffffffffffffffffffffff168173ffffffffffffffffffffffffffffffffffffffff16141561187a576040517f08c379a00000000000000000000000000000000000000000000000000000000081526004016118719061498a565b60405180910390fd5b80915050919050565b60008073ffffffffffffffffffffffffffffffffffffffff168273ffffffffffffffffffffffffffffffffffffffff1614156118f4576040517f08c379a00000000000000000000000000000000000000000000000000000000081526004016118eb9061496a565b60405180910390fd5b600360008373ffffffffffffffffffffffffffffffffffffffff1673ffffffffffffffffffffffffffffffffffffffff168152602001908152602001600020549050919050565b611943612e46565b73ffffffffffffffffffffffffffffffffffffffff16611961611ac9565b73ffffffffffffffffffffffffffffffffffffffff16146119b7576040517f08c379a00000000000000000000000000000000000000000000000000000000081526004016119ae906149ea565b60405180910390fd5b6119c16000612f07565b565b6060600960003373ffffffffffffffffffffffffffffffffffffffff1673ffffffffffffffffffffffffffffffffffffffff168152602001908152602001600020805480602002602001604051908101604052809291908181526020016000905b82821015611ac0578382906000526020600020906003020160405180606001604052908160008201548152602001600182015481526020016002820160009054906101000a900473ffffffffffffffffffffffffffffffffffffffff1673ffffffffffffffffffffffffffffffffffffffff1673ffffffffffffffffffffffffffffffffffffffff168152505081526020019060010190611a24565b50505050905090565b6000600660009054906101000a900473ffffffffffffffffffffffffffffffffffffffff16905090565b600b60009054906101000a900473ffffffffffffffffffffffffffffffffffffffff1681565b600f8181548110611b2957600080fd5b906000526020600020016000915090505481565b606060018054611b4c90614f31565b80601f0160208091040260200160405190810160405280929190818152602001828054611b7890614f31565b8015611bc55780601f10611b9a57610100808354040283529160200191611bc5565b820191906000526020600020905b815481529060010190602001808311611ba857829003601f168201915b5050505050905090565b611bd7612e46565b73ffffffffffffffffffffffffffffffffffffffff168273ffffffffffffffffffffffffffffffffffffffff161415611c45576040517f08c379a0000000000000000000000000000000000000000000000000000000008152600401611c3c906148ea565b60405180910390fd5b8060056000611c52612e46565b73ffffffffffffffffffffffffffffffffffffffff1673ffffffffffffffffffffffffffffffffffffffff16815260200190815260200160002060008473ffffffffffffffffffffffffffffffffffffffff1673ffffffffffffffffffffffffffffffffffffffff16815260200190815260200160002060006101000a81548160ff0219169083151502179055508173ffffffffffffffffffffffffffffffffffffffff16611cff612e46565b73ffffffffffffffffffffffffffffffffffffffff167f17307eab39ab6107e8899845ad3d59bd9653f200f220920489ca2b5937696c3183604051611d4491906147f2565b60405180910390a35050565b611d61611d5b612e46565b83612fcd565b611da0576040517f08c379a0000000000000000000000000000000000000000000000000000000008152600401611d9790614aca565b60405180910390fd5b611dac848484846130ab565b611db78484846128d0565b50505050565b611dc5612e46565b73ffffffffffffffffffffffffffffffffffffffff16611de3611ac9565b73ffffffffffffffffffffffffffffffffffffffff1614611e39576040517f08c379a0000000000000000000000000000000000000000000000000000000008152600401611e30906149ea565b60405180910390fd5b60005b600780549050811015611fbe578260078281548110611e5e57611e5d6150c9565b5b906000526020600020906006020160000154148015611ea157508160078281548110611e8d57611e8c6150c9565b5b906000526020600020906006020160010154105b15611fab578160078281548110611ebb57611eba6150c9565b5b90600052602060002090600602016001018190555060078181548110611ee457611ee36150c9565b5b906000526020600020906006020160086000858152602001908152602001600020600082015481600001556001820154816001015560028201548160020155600382015481600301556004820181600401908054611f4190614f31565b611f4c929190613998565b506005820160009054906101000a900460ff168160050160006101000a81548160ff0219169083151502179055506005820160019054906101000a900460ff168160050160016101000a81548160ff0219169083151502179055509050505b8080611fb690614f94565b915050611e3c565b505050565b6060611fce82612dda565b61200d576040517f08c379a000000000000000000000000000000000000000000000000000000000815260040161200490614a2a565b60405180910390fd5b6000612017613107565b905060008151116120375760405180602001604052806000815250612062565b806120418461311e565b6040516020016120529291906146a5565b6040516020818303038152906040525b915050919050565b6008600082815260200190815260200160002060050160019054906101000a900460ff166120cd576040517f08c379a00000000000000000000000000000000000000000000000000000000081526004016120c490614b0a565b60405180910390fd5b6008600082815260200190815260200160002060050160009054906101000a900460ff1615612131576040517f08c379a00000000000000000000000000000000000000000000000000000000081526004016121289061492a565b60405180910390fd5b600060086000838152602001908152602001600020600101541161218a576040517f08c379a0000000000000000000000000000000000000000000000000000000008152600401612181906148aa565b60405180910390fd5b6103e8670de0b6b3a764000060086000848152602001908152602001600020600301546121b79190614d7b565b6121c19190614d4a565b3414612202576040517f08c379a00000000000000000000000000000000000000000000000000000000081526004016121f990614b4a565b60405180910390fd5b61220a6138d1565b60005b60078054905081101561248f57826007828154811061222f5761222e6150c9565b5b906000526020600020906006020160000154141561247c576007818154811061225b5761225a6150c9565b5b90600052602060002090600602016040518060e0016040529081600082015481526020016001820154815260200160028201548152602001600382015481526020016004820180546122ac90614f31565b80601f01602080910402602001604051908101604052809291908181526020018280546122d890614f31565b80156123255780601f106122fa57610100808354040283529160200191612325565b820191906000526020600020905b81548152906001019060200180831161230857829003601f168201915b505050505081526020016005820160009054906101000a900460ff161515151581526020016005820160019054906101000a900460ff16151515158152505091506007818154811061237a576123796150c9565b5b9060005260206000209060060201600101600081548092919061239c90614f07565b9190505550600781815481106123b5576123b46150c9565b5b90600052602060002090600602016008600085815260200190815260200160002060008201548160000155600182015481600101556002820154816002015560038201548160030155600482018160040190805461241290614f31565b61241d929190613998565b506005820160009054906101000a900460ff168160050160006101000a81548160ff0219169083151502179055506005820160019054906101000a900460ff168160050160016101000a81548160ff0219169083151502179055509050505b808061248790614f94565b91505061220d565b5060006402540be400600d54336040516020016124ad9291906146c9565b6040516020818303038152906040528051906020012060001c6124d0919061500b565b9050600d60008154809291906124e590614f94565b9190505550600b60009054906101000a900473ffffffffffffffffffffffffffffffffffffffff1673ffffffffffffffffffffffffffffffffffffffff166108fc349081150290604051600060405180830381858888f19350505050158015612552573d6000803e3d6000fd5b5061255d338261327f565b60006040518060600160405280838152602001846000015181526020013373ffffffffffffffffffffffffffffffffffffffff168152509050600960003373ffffffffffffffffffffffffffffffffffffffff1673ffffffffffffffffffffffffffffffffffffffff168152602001908152602001600020819080600181540180825580915050600190039060005260206000209060030201600090919091909150600082015181600001556020820151816001015560408201518160020160006101000a81548173ffffffffffffffffffffffffffffffffffffffff021916908373ffffffffffffffffffffffffffffffffffffffff160217905550505033600a600084815260200190815260200160002060006101000a81548173ffffffffffffffffffffffffffffffffffffffff021916908373ffffffffffffffffffffffffffffffffffffffff16021790555050505050565b6000600560008473ffffffffffffffffffffffffffffffffffffffff1673ffffffffffffffffffffffffffffffffffffffff16815260200190815260200160002060008373ffffffffffffffffffffffffffffffffffffffff1673ffffffffffffffffffffffffffffffffffffffff16815260200190815260200160002060009054906101000a900460ff16905092915050565b612750612e46565b73ffffffffffffffffffffffffffffffffffffffff1661276e611ac9565b73ffffffffffffffffffffffffffffffffffffffff16146127c4576040517f08c379a00000000000000000000000000000000000000000000000000000000081526004016127bb906149ea565b60405180910390fd5b600073ffffffffffffffffffffffffffffffffffffffff168173ffffffffffffffffffffffffffffffffffffffff161415612834576040517f08c379a000000000000000000000000000000000000000000000000000000000815260040161282b9061486a565b60405180910390fd5b61283d81612f07565b50565b600c60009054906101000a900473ffffffffffffffffffffffffffffffffffffffff1681565b60007f01ffc9a7000000000000000000000000000000000000000000000000000000007bffffffffffffffffffffffffffffffffffffffffffffffffffffffff1916827bffffffffffffffffffffffffffffffffffffffffffffffffffffffff1916149050919050565b6000600960008573ffffffffffffffffffffffffffffffffffffffff1673ffffffffffffffffffffffffffffffffffffffff168152602001908152602001600020805480602002602001604051908101604052809291908181526020016000905b828210156129cd578382906000526020600020906003020160405180606001604052908160008201548152602001600182015481526020016002820160009054906101000a900473ffffffffffffffffffffffffffffffffffffffff1673ffffffffffffffffffffffffffffffffffffffff1673ffffffffffffffffffffffffffffffffffffffff168152505081526020019060010190612931565b505050509050600960008573ffffffffffffffffffffffffffffffffffffffff1673ffffffffffffffffffffffffffffffffffffffff1681526020019081526020016000206000612a1e9190613a25565b60005b8151811015612c7a5782828281518110612a3e57612a3d6150c9565b5b60200260200101516000015114612b3457600960008673ffffffffffffffffffffffffffffffffffffffff1673ffffffffffffffffffffffffffffffffffffffff168152602001908152602001600020828281518110612aa157612aa06150c9565b5b60200260200101519080600181540180825580915050600190039060005260206000209060030201600090919091909150600082015181600001556020820151816001015560408201518160020160006101000a81548173ffffffffffffffffffffffffffffffffffffffff021916908373ffffffffffffffffffffffffffffffffffffffff1602179055505050612c67565b83828281518110612b4857612b476150c9565b5b60200260200101516040019073ffffffffffffffffffffffffffffffffffffffff16908173ffffffffffffffffffffffffffffffffffffffff1681525050600960008573ffffffffffffffffffffffffffffffffffffffff1673ffffffffffffffffffffffffffffffffffffffff168152602001908152602001600020828281518110612bd857612bd76150c9565b5b60200260200101519080600181540180825580915050600190039060005260206000209060030201600090919091909150600082015181600001556020820151816001015560408201518160020160006101000a81548173ffffffffffffffffffffffffffffffffffffffff021916908373ffffffffffffffffffffffffffffffffffffffff16021790555050505b8080612c7290614f94565b915050612a21565b5082600a600084815260200190815260200160002060006101000a81548173ffffffffffffffffffffffffffffffffffffffff021916908373ffffffffffffffffffffffffffffffffffffffff16021790555050505050565b8015612dac57600e600083815260200190815260200160002060008082016000905560018201600090556002820160006101000a81549073ffffffffffffffffffffffffffffffffffffffff02191690556002820160146101000a81549060ff0219169055505060005b600f80549050811015612da65782600f8281548110612d5f57612d5e6150c9565b5b90600052602060002001541415612d9357600f8181548110612d8457612d836150c9565b5b90600052602060002001600090555b8080612d9e90614f94565b915050612d3d565b50612dd6565b600f8290806001815401808255809150506001900390600052602060002001600090919091909150555b5050565b60008073ffffffffffffffffffffffffffffffffffffffff166002600084815260200190815260200160002060009054906101000a900473ffffffffffffffffffffffffffffffffffffffff1673ffffffffffffffffffffffffffffffffffffffff1614159050919050565b600033905090565b816004600083815260200190815260200160002060006101000a81548173ffffffffffffffffffffffffffffffffffffffff021916908373ffffffffffffffffffffffffffffffffffffffff160217905550808273ffffffffffffffffffffffffffffffffffffffff16612ec1836117d1565b73ffffffffffffffffffffffffffffffffffffffff167f8c5be1e5ebec7d5bd14f71427d1e84f3dd0314c0f7b2291e5b200ac8c7c3b92560405160405180910390a45050565b6000600660009054906101000a900473ffffffffffffffffffffffffffffffffffffffff16905081600660006101000a81548173ffffffffffffffffffffffffffffffffffffffff021916908373ffffffffffffffffffffffffffffffffffffffff1602179055508173ffffffffffffffffffffffffffffffffffffffff168173ffffffffffffffffffffffffffffffffffffffff167f8be0079c531659141344cd1fd0a4f28419497f9722a3daafe3b4186f6b6457e060405160405180910390a35050565b6000612fd882612dda565b613017576040517f08c379a000000000000000000000000000000000000000000000000000000000815260040161300e9061490a565b60405180910390fd5b6000613022836117d1565b90508073ffffffffffffffffffffffffffffffffffffffff168473ffffffffffffffffffffffffffffffffffffffff16148061309157508373ffffffffffffffffffffffffffffffffffffffff16613079846109fa565b73ffffffffffffffffffffffffffffffffffffffff16145b806130a257506130a181856126b4565b5b91505092915050565b6130b684848461329d565b6130c2848484846134f9565b613101576040517f08c379a00000000000000000000000000000000000000000000000000000000081526004016130f89061484a565b60405180910390fd5b50505050565b606060405180602001604052806000815250905090565b60606000821415613166576040518060400160405280600181526020017f3000000000000000000000000000000000000000000000000000000000000000815250905061327a565b600082905060005b6000821461319857808061318190614f94565b915050600a826131919190614d4a565b915061316e565b60008167ffffffffffffffff8111156131b4576131b36150f8565b5b6040519080825280601f01601f1916602001820160405280156131e65781602001600182028036833780820191505090505b5090505b60008514613273576001826131ff9190614dd5565b9150600a8561320e919061500b565b603061321a9190614cf4565b60f81b8183815181106132305761322f6150c9565b5b60200101907effffffffffffffffffffffffffffffffffffffffffffffffffffffffffffff1916908160001a905350600a8561326c9190614d4a565b94506131ea565b8093505050505b919050565b613299828260405180602001604052806000815250613690565b5050565b8273ffffffffffffffffffffffffffffffffffffffff166132bd826117d1565b73ffffffffffffffffffffffffffffffffffffffff1614613313576040517f08c379a000000000000000000000000000000000000000000000000000000000815260040161330a90614a0a565b60405180910390fd5b600073ffffffffffffffffffffffffffffffffffffffff168273ffffffffffffffffffffffffffffffffffffffff161415613383576040517f08c379a000000000000000000000000000000000000000000000000000000000815260040161337a906148ca565b60405180910390fd5b61338e8383836136eb565b613399600082612e4e565b6001600360008573ffffffffffffffffffffffffffffffffffffffff1673ffffffffffffffffffffffffffffffffffffffff16815260200190815260200160002060008282546133e99190614dd5565b925050819055506001600360008473ffffffffffffffffffffffffffffffffffffffff1673ffffffffffffffffffffffffffffffffffffffff16815260200190815260200160002060008282546134409190614cf4565b92505081905550816002600083815260200190815260200160002060006101000a81548173ffffffffffffffffffffffffffffffffffffffff021916908373ffffffffffffffffffffffffffffffffffffffff160217905550808273ffffffffffffffffffffffffffffffffffffffff168473ffffffffffffffffffffffffffffffffffffffff167fddf252ad1be2c89b69c2b068fc378daa952ba7f163c4a11628f55a4df523b3ef60405160405180910390a4505050565b600061351a8473ffffffffffffffffffffffffffffffffffffffff166136f0565b15613683578373ffffffffffffffffffffffffffffffffffffffff1663150b7a02613543612e46565b8786866040518563ffffffff1660e01b81526004016135659493929190614762565b602060405180830381600087803b15801561357f57600080fd5b505af19250505080156135b057506040513d601f19601f820116820180604052508101906135ad9190613ded565b60015b613633573d80600081146135e0576040519150601f19603f3d011682016040523d82523d6000602084013e6135e5565b606091505b5060008151141561362b576040517f08c379a00000000000000000000000000000000000000000000000000000000081526004016136229061484a565b60405180910390fd5b805181602001fd5b63150b7a0260e01b7bffffffffffffffffffffffffffffffffffffffffffffffffffffffff1916817bffffffffffffffffffffffffffffffffffffffffffffffffffffffff191614915050613688565b600190505b949350505050565b61369a8383613703565b6136a760008484846134f9565b6136e6576040517f08c379a00000000000000000000000000000000000000000000000000000000081526004016136dd9061484a565b60405180910390fd5b505050565b505050565b600080823b905060008111915050919050565b600073ffffffffffffffffffffffffffffffffffffffff168273ffffffffffffffffffffffffffffffffffffffff161415613773576040517f08c379a000000000000000000000000000000000000000000000000000000000815260040161376a906149aa565b60405180910390fd5b61377c81612dda565b156137bc576040517f08c379a00000000000000000000000000000000000000000000000000000000081526004016137b39061488a565b60405180910390fd5b6137c8600083836136eb565b6001600360008473ffffffffffffffffffffffffffffffffffffffff1673ffffffffffffffffffffffffffffffffffffffff16815260200190815260200160002060008282546138189190614cf4565b92505081905550816002600083815260200190815260200160002060006101000a81548173ffffffffffffffffffffffffffffffffffffffff021916908373ffffffffffffffffffffffffffffffffffffffff160217905550808273ffffffffffffffffffffffffffffffffffffffff16600073ffffffffffffffffffffffffffffffffffffffff167fddf252ad1be2c89b69c2b068fc378daa952ba7f163c4a11628f55a4df523b3ef60405160405180910390a45050565b6040518060e0016040528060008152602001600081526020016000815260200160008152602001606081526020016000151581526020016000151581525090565b82805461391e90614f31565b90600052602060002090601f0160209004810192826139405760008555613987565b82601f1061395957805160ff1916838001178555613987565b82800160010185558215613987579182015b8281111561398657825182559160200191906001019061396b565b5b5090506139949190613a49565b5090565b8280546139a490614f31565b90600052602060002090601f0160209004810192826139c65760008555613a14565b82601f106139d75780548555613a14565b82800160010185558215613a1457600052602060002091601f016020900482015b82811115613a135782548255916001019190600101906139f8565b5b509050613a219190613a49565b5090565b5080546000825560030290600052602060002090810190613a469190613a66565b50565b5b80821115613a62576000816000905550600101613a4a565b5090565b5b80821115613ab05760008082016000905560018201600090556002820160006101000a81549073ffffffffffffffffffffffffffffffffffffffff021916905550600301613a67565b5090565b6000613ac7613ac284614bcc565b614ba7565b905082815260208101848484011115613ae357613ae261512c565b5b613aee848285614ec5565b509392505050565b6000613b09613b0484614bfd565b614ba7565b905082815260208101848484011115613b2557613b2461512c565b5b613b30848285614ec5565b509392505050565b600081359050613b4781615794565b92915050565b600081359050613b5c816157ab565b92915050565b600081359050613b71816157c2565b92915050565b600081519050613b86816157c2565b92915050565b600082601f830112613ba157613ba0615127565b5b8135613bb1848260208601613ab4565b91505092915050565b600082601f830112613bcf57613bce615127565b5b8135613bdf848260208601613af6565b91505092915050565b600081359050613bf7816157d9565b92915050565b600060208284031215613c1357613c12615136565b5b6000613c2184828501613b38565b91505092915050565b60008060408385031215613c4157613c40615136565b5b6000613c4f85828601613b38565b9250506020613c6085828601613b38565b9150509250929050565b600080600060608486031215613c8357613c82615136565b5b6000613c9186828701613b38565b9350506020613ca286828701613b38565b9250506040613cb386828701613be8565b9150509250925092565b60008060008060808587031215613cd757613cd6615136565b5b6000613ce587828801613b38565b9450506020613cf687828801613b38565b9350506040613d0787828801613be8565b925050606085013567ffffffffffffffff811115613d2857613d27615131565b5b613d3487828801613b8c565b91505092959194509250565b60008060408385031215613d5757613d56615136565b5b6000613d6585828601613b38565b9250506020613d7685828601613b4d565b9150509250929050565b60008060408385031215613d9757613d96615136565b5b6000613da585828601613b38565b9250506020613db685828601613be8565b9150509250929050565b600060208284031215613dd657613dd5615136565b5b6000613de484828501613b62565b91505092915050565b600060208284031215613e0357613e02615136565b5b6000613e1184828501613b77565b91505092915050565b60008060008060008060c08789031215613e3757613e36615136565b5b600087013567ffffffffffffffff811115613e5557613e54615131565b5b613e6189828a01613bba565b9650506020613e7289828a01613be8565b9550506040613e8389828a01613be8565b9450506060613e9489828a01613be8565b9350506080613ea589828a01613be8565b92505060a0613eb689828a01613b4d565b9150509295509295509295565b600060208284031215613ed957613ed8615136565b5b6000613ee784828501613be8565b91505092915050565b60008060408385031215613f0757613f06615136565b5b6000613f1585828601613be8565b9250506020613f2685828601613be8565b9150509250929050565b6000613f3c83836144f6565b905092915050565b6000613f50838361462e565b60608301905092915050565b613f6581614e8f565b82525050565b613f7481614e1b565b82525050565b613f8381614e09565b82525050565b613f9281614e09565b82525050565b613fa9613fa482614e09565b614fdd565b82525050565b6000613fba82614c4e565b613fc48185614c94565b935083602082028501613fd685614c2e565b8060005b858110156140125784840389528151613ff38582613f30565b9450613ffe83614c7a565b925060208a01995050600181019050613fda565b50829750879550505050505092915050565b600061402f82614c59565b6140398185614ca5565b935061404483614c3e565b8060005b8381101561407557815161405c8882613f44565b975061406783614c87565b925050600181019050614048565b5085935050505092915050565b61408b81614e2d565b82525050565b61409a81614e2d565b82525050565b6140a981614e39565b82525050565b60006140ba82614c64565b6140c48185614cb6565b93506140d4818560208601614ed4565b6140dd8161513b565b840191505092915050565b60006140f382614c6f565b6140fd8185614cc7565b935061410d818560208601614ed4565b6141168161513b565b840191505092915050565b600061412c82614c6f565b6141368185614cd8565b9350614146818560208601614ed4565b61414f8161513b565b840191505092915050565b600061416582614c6f565b61416f8185614ce9565b935061417f818560208601614ed4565b80840191505092915050565b6000614198603283614cd8565b91506141a382615159565b604082019050919050565b60006141bb602683614cd8565b91506141c6826151a8565b604082019050919050565b60006141de601c83614cd8565b91506141e9826151f7565b602082019050919050565b6000614201602283614cd8565b915061420c82615220565b604082019050919050565b6000614224602483614cd8565b915061422f8261526f565b604082019050919050565b6000614247601983614cd8565b9150614252826152be565b602082019050919050565b600061426a602c83614cd8565b9150614275826152e7565b604082019050919050565b600061428d602383614cd8565b915061429882615336565b604082019050919050565b60006142b0603883614cd8565b91506142bb82615385565b604082019050919050565b60006142d3602a83614cd8565b91506142de826153d4565b604082019050919050565b60006142f6602983614cd8565b915061430182615423565b604082019050919050565b6000614319602083614cd8565b915061432482615472565b602082019050919050565b600061433c602c83614cd8565b91506143478261549b565b604082019050919050565b600061435f602083614cd8565b915061436a826154ea565b602082019050919050565b6000614382602983614cd8565b915061438d82615513565b604082019050919050565b60006143a5602f83614cd8565b91506143b082615562565b604082019050919050565b60006143c8601783614cd8565b91506143d3826155b1565b602082019050919050565b60006143eb602183614cd8565b91506143f6826155da565b604082019050919050565b600061440e602283614cd8565b915061441982615629565b604082019050919050565b6000614431600f83614cd8565b915061443c82615678565b602082019050919050565b6000614454603183614cd8565b915061445f826156a1565b604082019050919050565b6000614477601183614cd8565b9150614482826156f0565b602082019050919050565b600061449a601183614cd8565b91506144a582615719565b602082019050919050565b60006144bd601383614cd8565b91506144c882615742565b602082019050919050565b60006144e0601083614cd8565b91506144eb8261576b565b602082019050919050565b600060e08301600083015161450e6000860182614670565b5060208301516145216020860182614670565b5060408301516145346040860182614670565b5060608301516145476060860182614670565b506080830151848203608086015261455f82826140e8565b91505060a083015161457460a0860182614082565b5060c083015161458760c0860182614082565b508091505092915050565b600060e0830160008301516145aa6000860182614670565b5060208301516145bd6020860182614670565b5060408301516145d06040860182614670565b5060608301516145e36060860182614670565b50608083015184820360808601526145fb82826140e8565b91505060a083015161461060a0860182614082565b5060c083015161462360c0860182614082565b508091505092915050565b6060820160008201516146446000850182614670565b5060208201516146576020850182614670565b50604082015161466a6040850182613f7a565b50505050565b61467981614e85565b82525050565b61468881614e85565b82525050565b61469f61469a82614e85565b615001565b82525050565b60006146b1828561415a565b91506146bd828461415a565b91508190509392505050565b60006146d5828561468e565b6020820191506146e58284613f98565b6014820191508190509392505050565b600060208201905061470a6000830184613f89565b92915050565b60006020820190506147256000830184613f6b565b92915050565b60006060820190506147406000830186613f5c565b61474d6020830185613f89565b61475a604083018461467f565b949350505050565b60006080820190506147776000830187613f89565b6147846020830186613f89565b614791604083018561467f565b81810360608301526147a381846140af565b905095945050505050565b600060208201905081810360008301526147c88184613faf565b905092915050565b600060208201905081810360008301526147ea8184614024565b905092915050565b60006020820190506148076000830184614091565b92915050565b600060208201905061482260008301846140a0565b92915050565b600060208201905081810360008301526148428184614121565b905092915050565b600060208201905081810360008301526148638161418b565b9050919050565b60006020820190508181036000830152614883816141ae565b9050919050565b600060208201905081810360008301526148a3816141d1565b9050919050565b600060208201905081810360008301526148c3816141f4565b9050919050565b600060208201905081810360008301526148e381614217565b9050919050565b600060208201905081810360008301526149038161423a565b9050919050565b600060208201905081810360008301526149238161425d565b9050919050565b6000602082019050818103600083015261494381614280565b9050919050565b60006020820190508181036000830152614963816142a3565b9050919050565b60006020820190508181036000830152614983816142c6565b9050919050565b600060208201905081810360008301526149a3816142e9565b9050919050565b600060208201905081810360008301526149c38161430c565b9050919050565b600060208201905081810360008301526149e38161432f565b9050919050565b60006020820190508181036000830152614a0381614352565b9050919050565b60006020820190508181036000830152614a2381614375565b9050919050565b60006020820190508181036000830152614a4381614398565b9050919050565b60006020820190508181036000830152614a63816143bb565b9050919050565b60006020820190508181036000830152614a83816143de565b9050919050565b60006020820190508181036000830152614aa381614401565b9050919050565b60006020820190508181036000830152614ac381614424565b9050919050565b60006020820190508181036000830152614ae381614447565b9050919050565b60006020820190508181036000830152614b038161446a565b9050919050565b60006020820190508181036000830152614b238161448d565b9050919050565b60006020820190508181036000830152614b43816144b0565b9050919050565b60006020820190508181036000830152614b63816144d3565b9050919050565b60006020820190508181036000830152614b848184614592565b905092915050565b6000602082019050614ba1600083018461467f565b92915050565b6000614bb1614bc2565b9050614bbd8282614f63565b919050565b6000604051905090565b600067ffffffffffffffff821115614be757614be66150f8565b5b614bf08261513b565b9050602081019050919050565b600067ffffffffffffffff821115614c1857614c176150f8565b5b614c218261513b565b9050602081019050919050565b6000819050602082019050919050565b6000819050602082019050919050565b600081519050919050565b600081519050919050565b600081519050919050565b600081519050919050565b6000602082019050919050565b6000602082019050919050565b600082825260208201905092915050565b600082825260208201905092915050565b600082825260208201905092915050565b600082825260208201905092915050565b600082825260208201905092915050565b600081905092915050565b6000614cff82614e85565b9150614d0a83614e85565b9250827fffffffffffffffffffffffffffffffffffffffffffffffffffffffffffffffff03821115614d3f57614d3e61503c565b5b828201905092915050565b6000614d5582614e85565b9150614d6083614e85565b925082614d7057614d6f61506b565b5b828204905092915050565b6000614d8682614e85565b9150614d9183614e85565b9250817fffffffffffffffffffffffffffffffffffffffffffffffffffffffffffffffff0483118215151615614dca57614dc961503c565b5b828202905092915050565b6000614de082614e85565b9150614deb83614e85565b925082821015614dfe57614dfd61503c565b5b828203905092915050565b6000614e1482614e65565b9050919050565b6000614e2682614e65565b9050919050565b60008115159050919050565b60007fffffffff0000000000000000000000000000000000000000000000000000000082169050919050565b600073ffffffffffffffffffffffffffffffffffffffff82169050919050565b6000819050919050565b6000614e9a82614ea1565b9050919050565b6000614eac82614eb3565b9050919050565b6000614ebe82614e65565b9050919050565b82818337600083830152505050565b60005b83811015614ef2578082015181840152602081019050614ed7565b83811115614f01576000848401525b50505050565b6000614f1282614e85565b91506000821415614f2657614f2561503c565b5b600182039050919050565b60006002820490506001821680614f4957607f821691505b60208210811415614f5d57614f5c61509a565b5b50919050565b614f6c8261513b565b810181811067ffffffffffffffff82111715614f8b57614f8a6150f8565b5b80604052505050565b6000614f9f82614e85565b91507fffffffffffffffffffffffffffffffffffffffffffffffffffffffffffffffff821415614fd257614fd161503c565b5b600182019050919050565b6000614fe882614fef565b9050919050565b6000614ffa8261514c565b9050919050565b6000819050919050565b600061501682614e85565b915061502183614e85565b9250826150315761503061506b565b5b828206905092915050565b7f4e487b7100000000000000000000000000000000000000000000000000000000600052601160045260246000fd5b7f4e487b7100000000000000000000000000000000000000000000000000000000600052601260045260246000fd5b7f4e487b7100000000000000000000000000000000000000000000000000000000600052602260045260246000fd5b7f4e487b7100000000000000000000000000000000000000000000000000000000600052603260045260246000fd5b7f4e487b7100000000000000000000000000000000000000000000000000000000600052604160045260246000fd5b600080fd5b600080fd5b600080fd5b600080fd5b6000601f19601f8301169050919050565b60008160601b9050919050565b7f4552433732313a207472616e7366657220746f206e6f6e20455243373231526560008201527f63656976657220696d706c656d656e7465720000000000000000000000000000602082015250565b7f4f776e61626c653a206e6577206f776e657220697320746865207a65726f206160008201527f6464726573730000000000000000000000000000000000000000000000000000602082015250565b7f4552433732313a20746f6b656e20616c7265616479206d696e74656400000000600082015250565b7f5468657265206973206e6f206d6f726520706f6c6974696320617661696c616260008201527f6c65000000000000000000000000000000000000000000000000000000000000602082015250565b7f4552433732313a207472616e7366657220746f20746865207a65726f2061646460008201527f7265737300000000000000000000000000000000000000000000000000000000602082015250565b7f4552433732313a20617070726f766520746f2063616c6c657200000000000000600082015250565b7f4552433732313a206f70657261746f7220717565727920666f72206e6f6e657860008201527f697374656e7420746f6b656e0000000000000000000000000000000000000000602082015250565b7f506f6c69746963206f6e6c7920617661696c61626c652077697468206c6f747460008201527f6572790000000000000000000000000000000000000000000000000000000000602082015250565b7f4552433732313a20617070726f76652063616c6c6572206973206e6f74206f7760008201527f6e6572206e6f7220617070726f76656420666f7220616c6c0000000000000000602082015250565b7f4552433732313a2062616c616e636520717565727920666f7220746865207a6560008201527f726f206164647265737300000000000000000000000000000000000000000000602082015250565b7f4552433732313a206f776e657220717565727920666f72206e6f6e657869737460008201527f656e7420746f6b656e0000000000000000000000000000000000000000000000602082015250565b7f4552433732313a206d696e7420746f20746865207a65726f2061646472657373600082015250565b7f4552433732313a20617070726f76656420717565727920666f72206e6f6e657860008201527f697374656e7420746f6b656e0000000000000000000000000000000000000000602082015250565b7f4f776e61626c653a2063616c6c6572206973206e6f7420746865206f776e6572600082015250565b7f4552433732313a207472616e73666572206f6620746f6b656e2074686174206960008201527f73206e6f74206f776e0000000000000000000000000000000000000000000000602082015250565b7f4552433732314d657461646174613a2055524920717565727920666f72206e6f60008201527f6e6578697374656e7420746f6b656e0000000000000000000000000000000000602082015250565b7f506f6c6974696369616e206e6f7420666f722073616c65000000000000000000600082015250565b7f4552433732313a20617070726f76616c20746f2063757272656e74206f776e6560008201527f7200000000000000000000000000000000000000000000000000000000000000602082015250565b7f596f7520617265206e6f7420746865206f776e6572206f662074686520746f6b60008201527f656e000000000000000000000000000000000000000000000000000000000000602082015250565b7f596f757220706f6c6974696369616e0000000000000000000000000000000000600082015250565b7f4552433732313a207472616e736665722063616c6c6572206973206e6f74206f60008201527f776e6572206e6f7220617070726f766564000000000000000000000000000000602082015250565b7f696420616c726561647920696e20757365000000000000000000000000000000600082015250565b7f506f6c69746963206e6f7420666f756e64000000000000000000000000000000600082015250565b7f4e6f7420796f757220706f6c6974696369616e00000000000000000000000000600082015250565b7f496e636f727265637420616d6f756e7400000000000000000000000000000000600082015250565b61579d81614e09565b81146157a857600080fd5b50565b6157b481614e2d565b81146157bf57600080fd5b50565b6157cb81614e39565b81146157d657600080fd5b50565b6157e281614e85565b81146157ed57600080fd5b5056fea26469706673582212209d5f34d594573a514fdc3de1217681637adc0f3c75ddf2573123f4ddcaa8f9d564736f6c63430008070033",
  "immutableReferences": {},
  "source": "// SPDX-License-Identifier: MIT\n\npragma solidity ^0.8.0;\nimport \"./Collectible.sol\";\n\n/**\n* @title Base function of sell ERC721\n* @author Youness Chetoui\n*/\ncontract Sell is Collectible {\n    struct PoliticOnSale {\n        uint256 tokenId;\n        uint256 price;\n        address payable owner;\n        bool created;\n    }\n\n    mapping(uint256 => PoliticOnSale) internal politicsOnSale;\n\n    uint256[] public arrayPoliticiansOnSale;\n    uint256 internal feeSale = 5;\n\n    /**\n    * @notice Up for sale of owned politician\n    * @param _tokenId of politician owned and _price wished\n    */\n    function forSale(uint256 _tokenId, uint256 _price) public {\n        require(politicToUser[_tokenId] == msg.sender, \"You are not the owner of the token\");\n\n        ERC721.safeTransferFrom(msg.sender, contractAddress, _tokenId);\n\n        PoliticOnSale memory politicOnSale =\n            PoliticOnSale({tokenId: _tokenId, price: _price, owner: payable(msg.sender), created: true});\n\n        politicsOnSale[_tokenId] = politicOnSale;\n        // Update politicsOwned and transfer politician for sale to contract\n        _updatePoliticsOwned(msg.sender, contractAddress, _tokenId);\n        _updatePoliticianOnSale(_tokenId, true);\n\n    }\n\n    /**\n    * @notice Buy politician\n    * @param _tokenId of politician for sale\n    */\n    function buyPoliticsForSale(uint256 _tokenId) public payable {\n        require(politicsOnSale[_tokenId].created, \"Politician not for sale\");\n        require(msg.sender != politicsOnSale[_tokenId].owner, \"Your politician\");\n        require(msg.value == (politicsOnSale[_tokenId].price * 10**18) / 1000, \"Incorrect amount\");\n\n        // get 5% of fee\n        uint256 feeCost = msg.value * feeSale / 100;\n        uint256 amountOwner = msg.value - feeCost;\n        ownerAddress.transfer(feeCost);\n        politicsOnSale[_tokenId].owner.transfer(amountOwner);\n\n        // transfer collectible from contract to buyer\n        this.safeTransferFrom(contractAddress, msg.sender, _tokenId);\n\n        // Update politician Owned\n        _updatePoliticsOwned(contractAddress, msg.sender, _tokenId);\n        // Delete onSale\n        _updatePoliticianOnSale(_tokenId, true);\n    }\n\n    /**\n    * @notice Cancel the sell of politician\n    * @param _tokenId of politician for sale\n    */\n    function cancelSell(uint256 _tokenId) public {\n        require(msg.sender == politicsOnSale[_tokenId].owner, \"Not your politician\");\n\n        // transfer collectible from contract to buyer\n        this.safeTransferFrom(contractAddress, msg.sender, _tokenId);\n\n        // Update politician Owned\n        _updatePoliticsOwned(contractAddress, msg.sender, _tokenId);\n        // Delete onSale\n        _updatePoliticianOnSale(_tokenId, true);\n    }\n\n    function _updatePoliticianOnSale(uint256 _tokenId, bool _delete) internal {\n        if (_delete) {\n            delete politicsOnSale[_tokenId];\n\n            for (uint i = 0; i < arrayPoliticiansOnSale.length; i++) {\n                if (arrayPoliticiansOnSale[i] == _tokenId) {\n                    delete arrayPoliticiansOnSale[i];\n                }\n            }\n        } else {\n            arrayPoliticiansOnSale.push(_tokenId);\n        }\n    }\n}\n",
  "sourcePath": "/home/youness/Crypto/PoliticsCollectible/contracts/Sell.sol",
  "compiler": {
    "name": "solc",
    "version": "0.8.7+commit.e28d00a7.Emscripten.clang"
  },
  "schemaVersion": "3.4.3",
  "updatedAt": "2021-08-31T14:32:13.917Z",
  "devdoc": {
    "author": "Youness Chetoui",
    "kind": "dev",
    "methods": {
      "addQty(uint256,uint256)": {
        "params": {
          "_id": "of PoliticsAvailable and _qty wished"
        }
      },
      "approve(address,uint256)": {
        "details": "See {IERC721-approve}."
      },
      "balanceOf(address)": {
        "details": "See {IERC721-balanceOf}."
      },
      "buy(uint256)": {
        "params": {
          "_id": "of politician available"
        }
      },
      "buyPoliticsForSale(uint256)": {
        "params": {
          "_tokenId": "of politician for sale"
        }
      },
      "cancelSell(uint256)": {
        "params": {
          "_tokenId": "of politician for sale"
        }
      },
      "create(string,uint256,uint256,uint256,uint256,bool)": {
        "params": {
          "_name": ", _id, _qty, _level, _price and _lottery of politician available"
        },
        "returns": {
          "_0": "PoliticsAvailable created"
        }
      },
      "forSale(uint256,uint256)": {
        "params": {
          "_tokenId": "of politician owned and _price wished"
        }
      },
      "getApproved(uint256)": {
        "details": "See {IERC721-getApproved}."
      },
      "getMyPolitics()": {
        "returns": {
          "_0": "array of struct PoliticsOwned"
        }
      },
      "getPolitic(uint256)": {
        "params": {
          "_id": "of politician"
        },
        "returns": {
          "_0": "struct PoliticsAvailable"
        }
      },
      "getPolitics()": {
        "returns": {
          "_0": "Array of struct PoliticsAvailable"
        }
      },
      "isApprovedForAll(address,address)": {
        "details": "See {IERC721-isApprovedForAll}."
      },
      "name()": {
        "details": "See {IERC721Metadata-name}."
      },
      "onERC721Received(address,address,uint256,bytes)": {
        "details": "See {IERC721Receiver-onERC721Received}. Always returns `IERC721Receiver.onERC721Received.selector`."
      },
      "owner()": {
        "details": "Returns the address of the current owner."
      },
      "ownerOf(uint256)": {
        "details": "See {IERC721-ownerOf}."
      },
      "renounceOwnership()": {
        "details": "Leaves the contract without owner. It will not be possible to call `onlyOwner` functions anymore. Can only be called by the current owner. NOTE: Renouncing ownership will leave the contract without an owner, thereby removing any functionality that is only available to the owner."
      },
      "safeTransferFrom(address,address,uint256)": {
        "details": "See {IERC721-safeTransferFrom}."
      },
      "safeTransferFrom(address,address,uint256,bytes)": {
        "params": {
          "from": "politician wallet address, to wallet address of receiver, tokenId of politician to transfer, _data"
        }
      },
      "setApprovalForAll(address,bool)": {
        "details": "See {IERC721-setApprovalForAll}."
      },
      "supportsInterface(bytes4)": {
        "details": "See {IERC165-supportsInterface}."
      },
      "symbol()": {
        "details": "See {IERC721Metadata-symbol}."
      },
      "tokenURI(uint256)": {
        "details": "See {IERC721Metadata-tokenURI}."
      },
      "transferOwnership(address)": {
        "details": "Transfers ownership of the contract to a new account (`newOwner`). Can only be called by the current owner."
      }
    },
    "title": "Base function of sell ERC721",
    "version": 1
  },
  "userdoc": {
    "kind": "user",
    "methods": {
      "addQty(uint256,uint256)": {
        "notice": "Add quantity for a PoliticsAvailable"
      },
      "buy(uint256)": {
        "notice": "Buy politician"
      },
      "buyPoliticsForSale(uint256)": {
        "notice": "Buy politician"
      },
      "cancelSell(uint256)": {
        "notice": "Cancel the sell of politician"
      },
      "create(string,uint256,uint256,uint256,uint256,bool)": {
        "notice": "Create politician"
      },
      "forSale(uint256,uint256)": {
        "notice": "Up for sale of owned politician"
      },
      "getMyPolitics()": {
        "notice": "Get politician by user"
      },
      "getPolitic(uint256)": {
        "notice": "get politician available by id"
      },
      "getPolitics()": {
        "notice": "get list of all politician available"
      },
      "safeTransferFrom(address,address,uint256,bytes)": {
        "notice": "Transfer Politic"
      },
      "transferFrom(address,address,uint256)": {
        "notice": "Disabled not safe transform"
      }
    },
    "version": 1
  }
}